{
  "contractName": "Able",
  "abi": [
    {
      "anonymous": false,
      "inputs": [
        {
          "indexed": false,
          "internalType": "string",
          "name": "_name",
          "type": "string"
        }
      ],
      "name": "Disabled",
      "type": "event"
    },
    {
      "anonymous": false,
      "inputs": [
        {
          "indexed": false,
          "internalType": "string",
          "name": "_name",
          "type": "string"
        }
      ],
      "name": "Enabled",
      "type": "event"
    },
    {
      "constant": false,
      "inputs": [
        {
          "internalType": "string",
          "name": "_name",
          "type": "string"
        }
      ],
      "name": "enable",
      "outputs": [],
      "payable": false,
      "stateMutability": "nonpayable",
      "type": "function"
    },
    {
      "constant": false,
      "inputs": [
        {
          "internalType": "string",
          "name": "_name",
          "type": "string"
        }
      ],
      "name": "disable",
      "outputs": [],
      "payable": false,
      "stateMutability": "nonpayable",
      "type": "function"
    },
    {
      "constant": true,
      "inputs": [
        {
          "internalType": "string",
          "name": "_name",
          "type": "string"
        }
      ],
      "name": "enabled",
      "outputs": [
        {
          "internalType": "bool",
          "name": "",
          "type": "bool"
        }
      ],
      "payable": false,
      "stateMutability": "view",
      "type": "function"
    },
    {
      "constant": true,
      "inputs": [
        {
          "internalType": "string",
          "name": "_name",
          "type": "string"
        }
      ],
      "name": "disabled",
      "outputs": [
        {
          "internalType": "bool",
          "name": "",
          "type": "bool"
        }
      ],
      "payable": false,
      "stateMutability": "view",
      "type": "function"
    }
  ],
  "bytecode": "0x608060405234801561001057600080fd5b506108b5806100206000396000f3fe608060405234801561001057600080fd5b506004361061004c5760003560e01c80635b526811146100515780637ca41f2614610124578063b8724c59146101f7578063e2998381146102b2575b600080fd5b61010a6004803603602081101561006757600080fd5b810190808035906020019064010000000081111561008457600080fd5b82018360208201111561009657600080fd5b803590602001918460018302840111640100000000831117156100b857600080fd5b91908080601f016020809104026020016040519081016040528093929190818152602001838380828437600081840152601f19601f82011690508083019250505050505050919291929050505061036d565b604051808215151515815260200191505060405180910390f35b6101dd6004803603602081101561013a57600080fd5b810190808035906020019064010000000081111561015757600080fd5b82018360208201111561016957600080fd5b8035906020019184600183028401116401000000008311171561018b57600080fd5b91908080601f016020809104026020016040519081016040528093929190818152602001838380828437600081840152601f19601f8201169050808301925050505050505091929192905050506103ec565b604051808215151515815260200191505060405180910390f35b6102b06004803603602081101561020d57600080fd5b810190808035906020019064010000000081111561022a57600080fd5b82018360208201111561023c57600080fd5b8035906020019184600183028401116401000000008311171561025e57600080fd5b91908080601f016020809104026020016040519081016040528093929190818152602001838380828437600081840152601f19601f82011690508083019250505050505050919291929050505061046c565b005b61036b600480360360208110156102c857600080fd5b81019080803590602001906401000000008111156102e557600080fd5b8201836020820111156102f757600080fd5b8035906020019184600183028401116401000000008311171561031957600080fd5b91908080601f016020809104026020016040519081016040528093929190818152602001838380828437600081840152601f19601f820116905080830192505050505050509192919290505050610675565b005b600080826040518082805190602001908083835b602083106103a45780518252602082019150602081019050602083039250610381565b6001836020036101000a038019825116818451168082178552505050505050905001915050908152602001604051809103902060009054906101000a900460ff169050919050565b600080826040518082805190602001908083835b602083106104235780518252602082019150602081019050602083039250610400565b6001836020036101000a038019825116818451168082178552505050505050905001915050908152602001604051809103902060009054906101000a900460ff16159050919050565b6000816040518082805190602001908083835b602083106104a2578051825260208201915060208101905060208303925061047f565b6001836020036101000a038019825116818451168082178552505050505050905001915050908152602001604051809103902060009054906101000a900460ff16610555576040517f08c379a00000000000000000000000000000000000000000000000000000000081526004018080602001828103825260158152602001807f41626c653a206e616d6520697320656e61626c6564000000000000000000000081525060200191505060405180910390fd5b600080826040518082805190602001908083835b6020831061058c5780518252602082019150602081019050602083039250610569565b6001836020036101000a038019825116818451168082178552505050505050905001915050908152602001604051809103902060006101000a81548160ff0219169083151502179055507fb5e827ca0218ec32f5872a8cdba7c9a069373f7ef4a2fb0c72ae0f25cf78f1c2816040518080602001828103825283818151815260200191508051906020019080838360005b8381101561063857808201518184015260208101905061061d565b50505050905090810190601f1680156106655780820380516001836020036101000a031916815260200191505b509250505060405180910390a150565b6000816040518082805190602001908083835b602083106106ab5780518252602082019150602081019050602083039250610688565b6001836020036101000a038019825116818451168082178552505050505050905001915050908152602001604051809103902060009054906101000a900460ff161561075f576040517f08c379a00000000000000000000000000000000000000000000000000000000081526004018080602001828103825260168152602001807f41626c653a206e616d652069732064697361626c65640000000000000000000081525060200191505060405180910390fd5b60016000826040518082805190602001908083835b602083106107975780518252602082019150602081019050602083039250610774565b6001836020036101000a038019825116818451168082178552505050505050905001915050908152602001604051809103902060006101000a81548160ff0219169083151502179055507f1429691d4b3ebbe1b946e4625c94bd72f57e8d9f73242f97d7c968072cb891b9816040518080602001828103825283818151815260200191508051906020019080838360005b83811015610843578082015181840152602081019050610828565b50505050905090810190601f1680156108705780820380516001836020036101000a031916815260200191505b509250505060405180910390a15056fea265627a7a72315820188f0c04fe932ebea50bac45ef900606a1395e713615437ca5131e74124266c364736f6c634300050b0032",
  "source": "/*\n * Lottery oracle\n *\n * Copyright (C) 2017-2019 Hubii AS\n */\n\npragma solidity ^0.5.11;\n\n/// @title Able\n/// @author Jens Ivar Jørdre <jensivar@hubii.com>\n/// @notice A base contract that supports general enablement and disablement\n/// @dev By default all is enabled\ncontract Able {\n    event Disabled(string _name);\n    event Enabled(string _name);\n\n    mapping(string => bool) private _disabled;\n\n    /// @notice Enable by the given name\n    /// @param _name The name to enable\n    function enable(string memory _name)\n    public\n    {\n        // Require that the name is disabled\n        require(_disabled[_name], \"Able: name is enabled\");\n\n        // Enable name\n        _disabled[_name] = false;\n\n        // Emit event\n        emit Enabled(_name);\n    }\n\n    /// @notice Disable by the given name\n    /// @param _name The name to disable\n    function disable(string memory _name)\n    public\n    {\n        // Require that the name is enabled\n        require(!_disabled[_name], \"Able: name is disabled\");\n\n        // Disable name\n        _disabled[_name] = true;\n\n        // Emit event\n        emit Disabled(_name);\n    }\n\n    /// @notice Gauge whether the name is enabled\n    /// @param _name The name to gauge\n    function enabled(string memory _name)\n    public\n    view\n    returns (bool)\n    {\n        return !_disabled[_name];\n    }\n\n    /// @notice Gauge whether the name is disable\n    /// @param _name The name to gauge\n    function disabled(string memory _name)\n    public\n    view\n    returns (bool)\n    {\n        return _disabled[_name];\n    }\n\n    modifier onlyEnabled(string memory _name) {\n        require(enabled(_name), \"Able: name is disabled\");\n        _;\n    }\n\n    modifier onlyDisabled(string memory _name) {\n        require(disabled(_name), \"Able: name is enabled\");\n        _;\n    }\n}",
  "sourcePath": "/opt/buildagent/work/9988d0feca52d9d9/contracts/Able.sol",
  "compiler": {
    "name": "solc",
    "version": "0.5.11+commit.c082d0b4.Emscripten.clang"
  },
  "schemaVersion": "3.0.16",
  "updatedAt": "2019-09-25T13:39:49.294Z",
  "devdoc": {
    "author": "Jens Ivar Jørdre <jensivar@hubii.com>",
    "details": "By default all is enabled",
    "methods": {
      "disable(string)": {
        "params": {
          "_name": "The name to disable"
        }
      },
      "disabled(string)": {
        "params": {
          "_name": "The name to gauge"
        }
      },
      "enable(string)": {
        "params": {
          "_name": "The name to enable"
        }
      },
      "enabled(string)": {
        "params": {
          "_name": "The name to gauge"
        }
      }
    },
    "title": "Able"
  },
  "userdoc": {
    "methods": {
      "disable(string)": {
        "notice": "Disable by the given name"
      },
      "disabled(string)": {
        "notice": "Gauge whether the name is disable"
      },
      "enable(string)": {
        "notice": "Enable by the given name"
      },
      "enabled(string)": {
        "notice": "Gauge whether the name is enabled"
      }
    },
    "notice": "A base contract that supports general enablement and disablement"
  }
}