{
  "contractName": "AlphaBetaGammaResolutionEngine",
  "abi": [
    {
      "constant": true,
      "inputs": [],
      "name": "frozen",
      "outputs": [
        {
          "internalType": "bool",
          "name": "",
          "type": "bool"
        }
      ],
      "payable": false,
      "stateMutability": "view",
      "type": "function"
    },
    {
      "constant": true,
      "inputs": [
        {
          "internalType": "uint256",
          "name": "_verificationPhaseNumber",
          "type": "uint256"
        }
      ],
      "name": "metricsByVerificationPhaseNumber",
      "outputs": [
        {
          "internalType": "enum VerificationPhaseLib.State",
          "name": "state",
          "type": "uint8"
        },
        {
          "internalType": "uint256",
          "name": "trueStakeAmount",
          "type": "uint256"
        },
        {
          "internalType": "uint256",
          "name": "falseStakeAmount",
          "type": "uint256"
        },
        {
          "internalType": "uint256",
          "name": "stakeAmount",
          "type": "uint256"
        },
        {
          "internalType": "uint256",
          "name": "numberOfWallets",
          "type": "uint256"
        },
        {
          "internalType": "uint256",
          "name": "bountyAmount",
          "type": "uint256"
        },
        {
          "internalType": "bool",
          "name": "bountyAwarded",
          "type": "bool"
        },
        {
          "internalType": "uint256",
          "name": "startBlock",
          "type": "uint256"
        },
        {
          "internalType": "uint256",
          "name": "endBlock",
          "type": "uint256"
        },
        {
          "internalType": "uint256",
          "name": "numberOfBlocks",
          "type": "uint256"
        }
      ],
      "payable": false,
      "stateMutability": "view",
      "type": "function"
    },
    {
      "constant": true,
      "inputs": [
        {
          "internalType": "uint256",
          "name": "_blockNumber",
          "type": "uint256"
        }
      ],
      "name": "metricsByBlockNumber",
      "outputs": [
        {
          "internalType": "uint256",
          "name": "trueStakeAmount",
          "type": "uint256"
        },
        {
          "internalType": "uint256",
          "name": "falseStakeAmount",
          "type": "uint256"
        },
        {
          "internalType": "uint256",
          "name": "stakeAmount",
          "type": "uint256"
        }
      ],
      "payable": false,
      "stateMutability": "view",
      "type": "function"
    },
    {
      "constant": true,
      "inputs": [
        {
          "internalType": "string",
          "name": "_role",
          "type": "string"
        }
      ],
      "name": "isRole",
      "outputs": [
        {
          "internalType": "bool",
          "name": "",
          "type": "bool"
        }
      ],
      "payable": false,
      "stateMutability": "view",
      "type": "function"
    },
    {
      "constant": true,
      "inputs": [
        {
          "internalType": "address",
          "name": "_wallet",
          "type": "address"
        }
      ],
      "name": "metricsByWallet",
      "outputs": [
        {
          "internalType": "uint256",
          "name": "trueStakeAmount",
          "type": "uint256"
        },
        {
          "internalType": "uint256",
          "name": "falseStakeAmount",
          "type": "uint256"
        },
        {
          "internalType": "uint256",
          "name": "stakeAmount",
          "type": "uint256"
        }
      ],
      "payable": false,
      "stateMutability": "view",
      "type": "function"
    },
    {
      "constant": true,
      "inputs": [],
      "name": "initialized",
      "outputs": [
        {
          "internalType": "bool",
          "name": "",
          "type": "bool"
        }
      ],
      "payable": false,
      "stateMutability": "view",
      "type": "function"
    },
    {
      "constant": false,
      "inputs": [
        {
          "internalType": "address",
          "name": "_wallet",
          "type": "address"
        },
        {
          "internalType": "uint256",
          "name": "_firstVerificationPhaseNumber",
          "type": "uint256"
        },
        {
          "internalType": "uint256",
          "name": "_lastVerificationPhaseNumber",
          "type": "uint256"
        }
      ],
      "name": "stagePayout",
      "outputs": [],
      "payable": false,
      "stateMutability": "nonpayable",
      "type": "function"
    },
    {
      "constant": true,
      "inputs": [],
      "name": "nextGamma",
      "outputs": [
        {
          "internalType": "uint256",
          "name": "",
          "type": "uint256"
        }
      ],
      "payable": false,
      "stateMutability": "view",
      "type": "function"
    },
    {
      "constant": false,
      "inputs": [
        {
          "internalType": "string",
          "name": "_role",
          "type": "string"
        }
      ],
      "name": "addRole",
      "outputs": [],
      "payable": false,
      "stateMutability": "nonpayable",
      "type": "function"
    },
    {
      "constant": true,
      "inputs": [],
      "name": "nextBeta",
      "outputs": [
        {
          "internalType": "uint256",
          "name": "",
          "type": "uint256"
        }
      ],
      "payable": false,
      "stateMutability": "view",
      "type": "function"
    },
    {
      "constant": true,
      "inputs": [],
      "name": "verificationStatus",
      "outputs": [
        {
          "internalType": "enum VerificationPhaseLib.Status",
          "name": "",
          "type": "uint8"
        }
      ],
      "payable": false,
      "stateMutability": "view",
      "type": "function"
    },
    {
      "constant": false,
      "inputs": [
        {
          "internalType": "address",
          "name": "_wallet",
          "type": "address"
        },
        {
          "internalType": "bool",
          "name": "_status",
          "type": "bool"
        },
        {
          "internalType": "uint256",
          "name": "_amount",
          "type": "uint256"
        }
      ],
      "name": "stake",
      "outputs": [],
      "payable": false,
      "stateMutability": "nonpayable",
      "type": "function"
    },
    {
      "constant": false,
      "inputs": [
        {
          "internalType": "string",
          "name": "_role",
          "type": "string"
        },
        {
          "internalType": "address",
          "name": "_address",
          "type": "address"
        }
      ],
      "name": "addRoleAccessor",
      "outputs": [],
      "payable": false,
      "stateMutability": "nonpayable",
      "type": "function"
    },
    {
      "constant": true,
      "inputs": [
        {
          "internalType": "address",
          "name": "",
          "type": "address"
        }
      ],
      "name": "stagedAmountByWallet",
      "outputs": [
        {
          "internalType": "uint256",
          "name": "",
          "type": "uint256"
        }
      ],
      "payable": false,
      "stateMutability": "view",
      "type": "function"
    },
    {
      "constant": true,
      "inputs": [],
      "name": "operator",
      "outputs": [
        {
          "internalType": "address",
          "name": "",
          "type": "address"
        }
      ],
      "payable": false,
      "stateMutability": "view",
      "type": "function"
    },
    {
      "constant": true,
      "inputs": [],
      "name": "nextAlpha",
      "outputs": [
        {
          "internalType": "uint256",
          "name": "",
          "type": "uint256"
        }
      ],
      "payable": false,
      "stateMutability": "view",
      "type": "function"
    },
    {
      "constant": false,
      "inputs": [
        {
          "internalType": "string",
          "name": "_role",
          "type": "string"
        },
        {
          "internalType": "address",
          "name": "_address",
          "type": "address"
        }
      ],
      "name": "removeRoleAccessor",
      "outputs": [],
      "payable": false,
      "stateMutability": "nonpayable",
      "type": "function"
    },
    {
      "constant": true,
      "inputs": [
        {
          "internalType": "string",
          "name": "_name",
          "type": "string"
        }
      ],
      "name": "disabled",
      "outputs": [
        {
          "internalType": "bool",
          "name": "",
          "type": "bool"
        }
      ],
      "payable": false,
      "stateMutability": "view",
      "type": "function"
    },
    {
      "constant": false,
      "inputs": [],
      "name": "freeze",
      "outputs": [],
      "payable": false,
      "stateMutability": "nonpayable",
      "type": "function"
    },
    {
      "constant": false,
      "inputs": [
        {
          "internalType": "address",
          "name": "_wallet",
          "type": "address"
        }
      ],
      "name": "stageStake",
      "outputs": [],
      "payable": false,
      "stateMutability": "nonpayable",
      "type": "function"
    },
    {
      "constant": true,
      "inputs": [
        {
          "internalType": "string",
          "name": "_name",
          "type": "string"
        }
      ],
      "name": "enabled",
      "outputs": [
        {
          "internalType": "bool",
          "name": "",
          "type": "bool"
        }
      ],
      "payable": false,
      "stateMutability": "view",
      "type": "function"
    },
    {
      "constant": true,
      "inputs": [],
      "name": "oracle",
      "outputs": [
        {
          "internalType": "address",
          "name": "",
          "type": "address"
        }
      ],
      "payable": false,
      "stateMutability": "view",
      "type": "function"
    },
    {
      "constant": false,
      "inputs": [],
      "name": "initialize",
      "outputs": [],
      "payable": false,
      "stateMutability": "nonpayable",
      "type": "function"
    },
    {
      "constant": false,
      "inputs": [
        {
          "internalType": "address",
          "name": "_bountyAllocator",
          "type": "address"
        }
      ],
      "name": "setBountyAllocator",
      "outputs": [],
      "payable": false,
      "stateMutability": "nonpayable",
      "type": "function"
    },
    {
      "constant": true,
      "inputs": [],
      "name": "RESOLVE_ACTION",
      "outputs": [
        {
          "internalType": "string",
          "name": "",
          "type": "string"
        }
      ],
      "payable": false,
      "stateMutability": "view",
      "type": "function"
    },
    {
      "constant": true,
      "inputs": [],
      "name": "STAKE_ACTION",
      "outputs": [
        {
          "internalType": "string",
          "name": "",
          "type": "string"
        }
      ],
      "payable": false,
      "stateMutability": "view",
      "type": "function"
    },
    {
      "constant": true,
      "inputs": [
        {
          "internalType": "uint256",
          "name": "_verificationPhaseNumber",
          "type": "uint256"
        },
        {
          "internalType": "address",
          "name": "_wallet",
          "type": "address"
        }
      ],
      "name": "calculatePayout",
      "outputs": [
        {
          "internalType": "uint256",
          "name": "",
          "type": "uint256"
        }
      ],
      "payable": false,
      "stateMutability": "view",
      "type": "function"
    },
    {
      "constant": true,
      "inputs": [],
      "name": "rolesCount",
      "outputs": [
        {
          "internalType": "uint256",
          "name": "",
          "type": "uint256"
        }
      ],
      "payable": false,
      "stateMutability": "view",
      "type": "function"
    },
    {
      "constant": false,
      "inputs": [
        {
          "internalType": "string",
          "name": "_action",
          "type": "string"
        }
      ],
      "name": "enable",
      "outputs": [],
      "payable": false,
      "stateMutability": "nonpayable",
      "type": "function"
    },
    {
      "constant": true,
      "inputs": [
        {
          "internalType": "uint256",
          "name": "",
          "type": "uint256"
        }
      ],
      "name": "roles",
      "outputs": [
        {
          "internalType": "string",
          "name": "",
          "type": "string"
        }
      ],
      "payable": false,
      "stateMutability": "view",
      "type": "function"
    },
    {
      "constant": true,
      "inputs": [],
      "name": "bountyFund",
      "outputs": [
        {
          "internalType": "contract BountyFund",
          "name": "",
          "type": "address"
        }
      ],
      "payable": false,
      "stateMutability": "view",
      "type": "function"
    },
    {
      "constant": false,
      "inputs": [],
      "name": "resolveIfCriteriaMet",
      "outputs": [],
      "payable": false,
      "stateMutability": "nonpayable",
      "type": "function"
    },
    {
      "constant": true,
      "inputs": [],
      "name": "bountyAllocator",
      "outputs": [
        {
          "internalType": "address",
          "name": "",
          "type": "address"
        }
      ],
      "payable": false,
      "stateMutability": "view",
      "type": "function"
    },
    {
      "constant": true,
      "inputs": [],
      "name": "verificationPhaseNumber",
      "outputs": [
        {
          "internalType": "uint256",
          "name": "",
          "type": "uint256"
        }
      ],
      "payable": false,
      "stateMutability": "view",
      "type": "function"
    },
    {
      "constant": true,
      "inputs": [
        {
          "internalType": "address",
          "name": "",
          "type": "address"
        },
        {
          "internalType": "uint256",
          "name": "",
          "type": "uint256"
        }
      ],
      "name": "payoutStagedByWalletPhase",
      "outputs": [
        {
          "internalType": "bool",
          "name": "",
          "type": "bool"
        }
      ],
      "payable": false,
      "stateMutability": "view",
      "type": "function"
    },
    {
      "constant": false,
      "inputs": [
        {
          "internalType": "address",
          "name": "_wallet",
          "type": "address"
        }
      ],
      "name": "stageBounty",
      "outputs": [],
      "payable": false,
      "stateMutability": "nonpayable",
      "type": "function"
    },
    {
      "constant": false,
      "inputs": [
        {
          "internalType": "string",
          "name": "_action",
          "type": "string"
        }
      ],
      "name": "disable",
      "outputs": [],
      "payable": false,
      "stateMutability": "nonpayable",
      "type": "function"
    },
    {
      "constant": true,
      "inputs": [],
      "name": "OWNER_ROLE",
      "outputs": [
        {
          "internalType": "string",
          "name": "",
          "type": "string"
        }
      ],
      "payable": false,
      "stateMutability": "view",
      "type": "function"
    },
    {
      "constant": true,
      "inputs": [
        {
          "internalType": "address",
          "name": "",
          "type": "address"
        },
        {
          "internalType": "bool",
          "name": "",
          "type": "bool"
        }
      ],
      "name": "stakedAmountByWalletStatus",
      "outputs": [
        {
          "internalType": "uint256",
          "name": "",
          "type": "uint256"
        }
      ],
      "payable": false,
      "stateMutability": "view",
      "type": "function"
    },
    {
      "constant": false,
      "inputs": [
        {
          "internalType": "address",
          "name": "_wallet",
          "type": "address"
        },
        {
          "internalType": "uint256",
          "name": "_amount",
          "type": "uint256"
        }
      ],
      "name": "stage",
      "outputs": [],
      "payable": false,
      "stateMutability": "nonpayable",
      "type": "function"
    },
    {
      "constant": false,
      "inputs": [
        {
          "internalType": "address",
          "name": "_wallet",
          "type": "address"
        },
        {
          "internalType": "uint256",
          "name": "_amount",
          "type": "uint256"
        }
      ],
      "name": "withdraw",
      "outputs": [],
      "payable": false,
      "stateMutability": "nonpayable",
      "type": "function"
    },
    {
      "constant": true,
      "inputs": [
        {
          "internalType": "uint256",
          "name": "_verificationPhaseNumber",
          "type": "uint256"
        },
        {
          "internalType": "address",
          "name": "_wallet",
          "type": "address"
        }
      ],
      "name": "metricsByVerificationPhaseNumberAndWallet",
      "outputs": [
        {
          "internalType": "uint256",
          "name": "trueStakeAmount",
          "type": "uint256"
        },
        {
          "internalType": "uint256",
          "name": "falseStakeAmount",
          "type": "uint256"
        },
        {
          "internalType": "uint256",
          "name": "stakeAmount",
          "type": "uint256"
        }
      ],
      "payable": false,
      "stateMutability": "view",
      "type": "function"
    },
    {
      "constant": true,
      "inputs": [
        {
          "internalType": "string",
          "name": "_role",
          "type": "string"
        },
        {
          "internalType": "address",
          "name": "_address",
          "type": "address"
        }
      ],
      "name": "isRoleAccessor",
      "outputs": [
        {
          "internalType": "bool",
          "name": "",
          "type": "bool"
        }
      ],
      "payable": false,
      "stateMutability": "view",
      "type": "function"
    },
    {
      "constant": true,
      "inputs": [
        {
          "internalType": "uint256",
          "name": "",
          "type": "uint256"
        },
        {
          "internalType": "bool",
          "name": "",
          "type": "bool"
        }
      ],
      "name": "stakedAmountByBlockStatus",
      "outputs": [
        {
          "internalType": "uint256",
          "name": "",
          "type": "uint256"
        }
      ],
      "payable": false,
      "stateMutability": "view",
      "type": "function"
    },
    {
      "constant": true,
      "inputs": [],
      "name": "token",
      "outputs": [
        {
          "internalType": "contract ERC20",
          "name": "",
          "type": "address"
        }
      ],
      "payable": false,
      "stateMutability": "view",
      "type": "function"
    },
    {
      "constant": true,
      "inputs": [
        {
          "internalType": "uint256",
          "name": "",
          "type": "uint256"
        }
      ],
      "name": "verificationPhaseByPhaseNumber",
      "outputs": [
        {
          "internalType": "enum VerificationPhaseLib.State",
          "name": "state",
          "type": "uint8"
        },
        {
          "internalType": "enum VerificationPhaseLib.Status",
          "name": "result",
          "type": "uint8"
        },
        {
          "internalType": "uint256",
          "name": "stakedAmount",
          "type": "uint256"
        },
        {
          "internalType": "uint256",
          "name": "stakingWallets",
          "type": "uint256"
        },
        {
          "internalType": "uint256",
          "name": "bountyAmount",
          "type": "uint256"
        },
        {
          "internalType": "bool",
          "name": "bountyAwarded",
          "type": "bool"
        },
        {
          "internalType": "uint256",
          "name": "startBlock",
          "type": "uint256"
        },
        {
          "internalType": "uint256",
          "name": "endBlock",
          "type": "uint256"
        }
      ],
      "payable": false,
      "stateMutability": "view",
      "type": "function"
    },
    {
      "inputs": [
        {
          "internalType": "address",
          "name": "_oracle",
          "type": "address"
        },
        {
          "internalType": "address",
          "name": "_operator",
          "type": "address"
        },
        {
          "internalType": "address",
          "name": "_bountyFund",
          "type": "address"
        },
        {
          "internalType": "uint256",
          "name": "_nextAlpha",
          "type": "uint256"
        },
        {
          "internalType": "uint256",
          "name": "_nextBeta",
          "type": "uint256"
        },
        {
          "internalType": "uint256",
          "name": "_nextGamma",
          "type": "uint256"
        }
      ],
      "payable": false,
      "stateMutability": "nonpayable",
      "type": "constructor"
    },
    {
      "anonymous": false,
      "inputs": [
        {
          "indexed": false,
          "internalType": "uint256",
          "name": "alpha",
          "type": "uint256"
        }
      ],
      "name": "NextAlphaSet",
      "type": "event"
    },
    {
      "anonymous": false,
      "inputs": [
        {
          "indexed": false,
          "internalType": "uint256",
          "name": "beta",
          "type": "uint256"
        }
      ],
      "name": "NextBetaSet",
      "type": "event"
    },
    {
      "anonymous": false,
      "inputs": [
        {
          "indexed": false,
          "internalType": "uint256",
          "name": "gamma",
          "type": "uint256"
        }
      ],
      "name": "NextGammaSet",
      "type": "event"
    },
    {
      "anonymous": false,
      "inputs": [],
      "name": "Frozen",
      "type": "event"
    },
    {
      "anonymous": false,
      "inputs": [
        {
          "indexed": true,
          "internalType": "address",
          "name": "_bountyAllocator",
          "type": "address"
        }
      ],
      "name": "BountyAllocatorSet",
      "type": "event"
    },
    {
      "anonymous": false,
      "inputs": [],
      "name": "Initialized",
      "type": "event"
    },
    {
      "anonymous": false,
      "inputs": [
        {
          "indexed": true,
          "internalType": "address",
          "name": "_wallet",
          "type": "address"
        },
        {
          "indexed": true,
          "internalType": "uint256",
          "name": "_verificationPhaseNumber",
          "type": "uint256"
        },
        {
          "indexed": false,
          "internalType": "bool",
          "name": "_status",
          "type": "bool"
        },
        {
          "indexed": false,
          "internalType": "uint256",
          "name": "_amount",
          "type": "uint256"
        }
      ],
      "name": "Staked",
      "type": "event"
    },
    {
      "anonymous": false,
      "inputs": [
        {
          "indexed": true,
          "internalType": "uint256",
          "name": "_verificationPhaseNumber",
          "type": "uint256"
        }
      ],
      "name": "Resolved",
      "type": "event"
    },
    {
      "anonymous": false,
      "inputs": [
        {
          "indexed": true,
          "internalType": "uint256",
          "name": "_verificationPhaseNumber",
          "type": "uint256"
        },
        {
          "indexed": false,
          "internalType": "uint256",
          "name": "_bountyAmount",
          "type": "uint256"
        }
      ],
      "name": "BountyImported",
      "type": "event"
    },
    {
      "anonymous": false,
      "inputs": [
        {
          "indexed": true,
          "internalType": "address",
          "name": "_wallet",
          "type": "address"
        },
        {
          "indexed": false,
          "internalType": "uint256",
          "name": "_bountyAmount",
          "type": "uint256"
        }
      ],
      "name": "BountyStaged",
      "type": "event"
    },
    {
      "anonymous": false,
      "inputs": [
        {
          "indexed": true,
          "internalType": "uint256",
          "name": "_verificationPhaseNumber",
          "type": "uint256"
        }
      ],
      "name": "VerificationPhaseOpened",
      "type": "event"
    },
    {
      "anonymous": false,
      "inputs": [
        {
          "indexed": true,
          "internalType": "uint256",
          "name": "_verificationPhaseNumber",
          "type": "uint256"
        }
      ],
      "name": "VerificationPhaseClosed",
      "type": "event"
    },
    {
      "anonymous": false,
      "inputs": [
        {
          "indexed": true,
          "internalType": "address",
          "name": "_wallet",
          "type": "address"
        },
        {
          "indexed": true,
          "internalType": "uint256",
          "name": "_firstVerificationPhaseNumber",
          "type": "uint256"
        },
        {
          "indexed": true,
          "internalType": "uint256",
          "name": "_lastVerificationPhaseNumber",
          "type": "uint256"
        },
        {
          "indexed": false,
          "internalType": "uint256",
          "name": "_payout",
          "type": "uint256"
        }
      ],
      "name": "PayoutStaged",
      "type": "event"
    },
    {
      "anonymous": false,
      "inputs": [
        {
          "indexed": true,
          "internalType": "address",
          "name": "_wallet",
          "type": "address"
        },
        {
          "indexed": false,
          "internalType": "uint256",
          "name": "_amount",
          "type": "uint256"
        }
      ],
      "name": "StakeStaged",
      "type": "event"
    },
    {
      "anonymous": false,
      "inputs": [
        {
          "indexed": true,
          "internalType": "address",
          "name": "_wallet",
          "type": "address"
        },
        {
          "indexed": false,
          "internalType": "uint256",
          "name": "_amount",
          "type": "uint256"
        }
      ],
      "name": "Staged",
      "type": "event"
    },
    {
      "anonymous": false,
      "inputs": [
        {
          "indexed": true,
          "internalType": "address",
          "name": "_wallet",
          "type": "address"
        },
        {
          "indexed": false,
          "internalType": "uint256",
          "name": "_amount",
          "type": "uint256"
        }
      ],
      "name": "Withdrawn",
      "type": "event"
    },
    {
      "anonymous": false,
      "inputs": [
        {
          "indexed": false,
          "internalType": "string",
          "name": "_name",
          "type": "string"
        }
      ],
      "name": "Disabled",
      "type": "event"
    },
    {
      "anonymous": false,
      "inputs": [
        {
          "indexed": false,
          "internalType": "string",
          "name": "_name",
          "type": "string"
        }
      ],
      "name": "Enabled",
      "type": "event"
    },
    {
      "anonymous": false,
      "inputs": [
        {
          "indexed": false,
          "internalType": "string",
          "name": "_role",
          "type": "string"
        }
      ],
      "name": "RoleAdded",
      "type": "event"
    },
    {
      "anonymous": false,
      "inputs": [
        {
          "indexed": false,
          "internalType": "string",
          "name": "_role",
          "type": "string"
        },
        {
          "indexed": true,
          "internalType": "address",
          "name": "_address",
          "type": "address"
        }
      ],
      "name": "RoleAccessorAdded",
      "type": "event"
    },
    {
      "anonymous": false,
      "inputs": [
        {
          "indexed": false,
          "internalType": "string",
          "name": "_role",
          "type": "string"
        },
        {
          "indexed": true,
          "internalType": "address",
          "name": "_address",
          "type": "address"
        }
      ],
      "name": "RoleAccessorRemoved",
      "type": "event"
    },
    {
      "constant": true,
      "inputs": [
        {
          "internalType": "bool",
          "name": "_status",
          "type": "bool"
        }
      ],
      "name": "resolutionDeltaAmount",
      "outputs": [
        {
          "internalType": "uint256",
          "name": "",
          "type": "uint256"
        }
      ],
      "payable": false,
      "stateMutability": "view",
      "type": "function"
    },
    {
      "constant": true,
      "inputs": [],
      "name": "alphaResolutionDeltaAmount",
      "outputs": [
        {
          "internalType": "uint256",
          "name": "",
          "type": "uint256"
        }
      ],
      "payable": false,
      "stateMutability": "view",
      "type": "function"
    },
    {
      "constant": true,
      "inputs": [
        {
          "internalType": "bool",
          "name": "_status",
          "type": "bool"
        }
      ],
      "name": "betaResolutionDeltaAmount",
      "outputs": [
        {
          "internalType": "uint256",
          "name": "",
          "type": "uint256"
        }
      ],
      "payable": false,
      "stateMutability": "view",
      "type": "function"
    },
    {
      "constant": true,
      "inputs": [],
      "name": "gammaResolutionDelta",
      "outputs": [
        {
          "internalType": "uint256",
          "name": "",
          "type": "uint256"
        }
      ],
      "payable": false,
      "stateMutability": "view",
      "type": "function"
    },
    {
      "constant": true,
      "inputs": [],
      "name": "resolutionCriteriaMet",
      "outputs": [
        {
          "internalType": "bool",
          "name": "",
          "type": "bool"
        }
      ],
      "payable": false,
      "stateMutability": "view",
      "type": "function"
    },
    {
      "constant": true,
      "inputs": [],
      "name": "alphaCriterionMet",
      "outputs": [
        {
          "internalType": "bool",
          "name": "",
          "type": "bool"
        }
      ],
      "payable": false,
      "stateMutability": "view",
      "type": "function"
    },
    {
      "constant": true,
      "inputs": [],
      "name": "betaCriterionMet",
      "outputs": [
        {
          "internalType": "bool",
          "name": "",
          "type": "bool"
        }
      ],
      "payable": false,
      "stateMutability": "view",
      "type": "function"
    },
    {
      "constant": true,
      "inputs": [],
      "name": "gammaCriterionMet",
      "outputs": [
        {
          "internalType": "bool",
          "name": "",
          "type": "bool"
        }
      ],
      "payable": false,
      "stateMutability": "view",
      "type": "function"
    },
    {
      "constant": false,
      "inputs": [
        {
          "internalType": "uint256",
          "name": "_nextAlpha",
          "type": "uint256"
        }
      ],
      "name": "setNextAlpha",
      "outputs": [],
      "payable": false,
      "stateMutability": "nonpayable",
      "type": "function"
    },
    {
      "constant": false,
      "inputs": [
        {
          "internalType": "uint256",
          "name": "_nextBeta",
          "type": "uint256"
        }
      ],
      "name": "setNextBeta",
      "outputs": [],
      "payable": false,
      "stateMutability": "nonpayable",
      "type": "function"
    },
    {
      "constant": false,
      "inputs": [
        {
          "internalType": "uint256",
          "name": "_nextGamma",
          "type": "uint256"
        }
      ],
      "name": "setNextGamma",
      "outputs": [],
      "payable": false,
      "stateMutability": "nonpayable",
      "type": "function"
    },
    {
      "constant": true,
      "inputs": [
        {
          "internalType": "uint256",
          "name": "_verificationPhaseNumber",
          "type": "uint256"
        }
      ],
      "name": "alphaByPhaseNumber",
      "outputs": [
        {
          "internalType": "uint256",
          "name": "",
          "type": "uint256"
        }
      ],
      "payable": false,
      "stateMutability": "view",
      "type": "function"
    },
    {
      "constant": true,
      "inputs": [
        {
          "internalType": "uint256",
          "name": "_verificationPhaseNumber",
          "type": "uint256"
        }
      ],
      "name": "betaByPhaseNumber",
      "outputs": [
        {
          "internalType": "uint256",
          "name": "",
          "type": "uint256"
        }
      ],
      "payable": false,
      "stateMutability": "view",
      "type": "function"
    },
    {
      "constant": true,
      "inputs": [
        {
          "internalType": "uint256",
          "name": "_verificationPhaseNumber",
          "type": "uint256"
        }
      ],
      "name": "gammaByPhaseNumber",
      "outputs": [
        {
          "internalType": "uint256",
          "name": "",
          "type": "uint256"
        }
      ],
      "payable": false,
      "stateMutability": "view",
      "type": "function"
    }
  ],
  "bytecode": "0x60806040523480156200001157600080fd5b50604051620064d6380380620064d6833981810160405260c08110156200003757600080fd5b81019080805190602001909291908051906020019092919080519060200190929190805190602001909291908051906020019092919080519060200190929190505050858585620000c36040518060400160405280600581526020017f4f574e45520000000000000000000000000000000000000000000000000000008152506200039260201b60201c565b6200010a6040518060400160405280600581526020017f4f574e4552000000000000000000000000000000000000000000000000000000815250336200043160201b60201c565b82600460006101000a81548173ffffffffffffffffffffffffffffffffffffffff021916908373ffffffffffffffffffffffffffffffffffffffff16021790555081600560006101000a81548173ffffffffffffffffffffffffffffffffffffffff021916908373ffffffffffffffffffffffffffffffffffffffff16021790555080600760006101000a81548173ffffffffffffffffffffffffffffffffffffffff021916908373ffffffffffffffffffffffffffffffffffffffff160217905550600760009054906101000a900473ffffffffffffffffffffffffffffffffffffffff1673ffffffffffffffffffffffffffffffffffffffff16637d54a822306040518263ffffffff1660e01b8152600401808273ffffffffffffffffffffffffffffffffffffffff1673ffffffffffffffffffffffffffffffffffffffff168152602001915050600060405180830381600087803b1580156200026f57600080fd5b505af115801562000284573d6000803e3d6000fd5b50505050600760009054906101000a900473ffffffffffffffffffffffffffffffffffffffff1673ffffffffffffffffffffffffffffffffffffffff1663fc0c546a6040518163ffffffff1660e01b815260040160206040518083038186803b158015620002f157600080fd5b505afa15801562000306573d6000803e3d6000fd5b505050506040513d60208110156200031d57600080fd5b8101908080519060200190929190505050600860006101000a81548173ffffffffffffffffffffffffffffffffffffffff021916908373ffffffffffffffffffffffffffffffffffffffff16021790555050505082601081905550816011819055508060128190555050505050505062000761565b60016000620003a7836200047160201b60201c565b815260200190815260200160002054600014156200042e576000819080600181540180825580915050906001820390600052602060002001600090919290919091509080519060200190620003fe929190620006b2565b5050600080549050600160006200041b846200047160201b60201c565b8152602001908152602001600020819055505b50565b6200046d81600260006200044b866200047160201b60201c565b8152602001908152602001600020620004ee60201b620057a01790919060201c565b5050565b6000816040516020018082805190602001908083835b60208310620004ac578051825260208201915060208101905060208303925062000487565b6001836020036101000a038019825116818451168082178552505050505050905001915050604051602081830303815290604052805190602001209050919050565b620005008282620005d260201b60201c565b1562000574576040517f08c379a000000000000000000000000000000000000000000000000000000000815260040180806020018281038252601f8152602001807f526f6c65733a206163636f756e7420616c72656164792068617320726f6c650081525060200191505060405180910390fd5b60018260000160008373ffffffffffffffffffffffffffffffffffffffff1673ffffffffffffffffffffffffffffffffffffffff16815260200190815260200160002060006101000a81548160ff0219169083151502179055505050565b60008073ffffffffffffffffffffffffffffffffffffffff168273ffffffffffffffffffffffffffffffffffffffff1614156200065b576040517f08c379a0000000000000000000000000000000000000000000000000000000008152600401808060200182810382526022815260200180620064b46022913960400191505060405180910390fd5b8260000160008373ffffffffffffffffffffffffffffffffffffffff1673ffffffffffffffffffffffffffffffffffffffff16815260200190815260200160002060009054906101000a900460ff16905092915050565b828054600181600116156101000203166002900490600052602060002090601f016020900481019282601f10620006f557805160ff191683800117855562000726565b8280016001018555821562000726579182015b828111156200072557825182559160200191906001019062000708565b5b50905062000735919062000739565b5090565b6200075e91905b808211156200075a57600081600090555060010162000740565b5090565b90565b615d4380620007716000396000f3fe608060405234801561001057600080fd5b50600436106103a45760003560e01c8063960873da116101e9578063d0e22f091161010f578063ef0c32f3116100ad578063fb535fd61161007c578063fb535fd614611678578063fbf098ed1461176b578063fc0c546a146117b9578063fc8d631714611803576103a4565b8063ef0c32f31461156e578063f3fef3a31461159c578063f5308f88146115ea578063f556e70a14611608576103a4565b8063e58378bb116100e9578063e58378bb14611417578063e7690e1e1461149a578063e86c1d36146114bc578063ebb2666f14611520576103a4565b8063d0e22f09146112b2578063d5bdee6d14611318578063e29983811461135c576103a4565b8063bfda4a4911610187578063cb669b9611610156578063cb669b96146111c6578063cbb6d87614611208578063cf7f3da41461124a578063d00e768b14611294576103a4565b8063bfda4a49146110a9578063c06c66ca14611150578063c587f53c1461119a578063c7617f16146111a4576103a4565b8063b330df73116101c3578063b330df7314610eeb578063b726be7f14610f6e578063b8517dd814610fd0578063b8724c5914610fee576103a4565b8063960873da14610de2578063a1f6c95914610e26578063a2167c1914610ea9576103a4565b806353a538aa116102ce5780637b31c5961161026c5780638129fc1c1161023b5780638129fc1c14610d6a5780638bb5adc714610d745780638de5ff0314610d925780638fcdbc0714610dc0576103a4565b80637b31c59614610bc55780637bd190b714610c095780637ca41f2614610c4d5780637dc0d1d014610d20576103a4565b80635b0f833a116102a85780635b0f833a146109c95780635b52681114610aa457806362a5af3b14610b7757806370551d4d14610b81576103a4565b806353a538aa14610909578063570ca735146109615780635984ad71146109ab576103a4565b8063170ec9fb116103465780634a0d3096116103155780634a0d3096146107865780634a0f2f7a146107b25780634da195be1461080c578063513554e7146108e7576103a4565b8063170ec9fb14610637578063303a59a91461068f5780633e96e868146106ad578063433c2baf14610768576103a4565b80630aed00a2116103825780630aed00a2146104ae5780630f6c37de146104dc57806312e810f2146105af578063158ef93e14610615576103a4565b8063054f7d9c146103a957806306bcbd00146103cb57806306d05aef1461045e575b600080fd5b6103b1611896565b604051808215151515815260200191505060405180910390f35b6103f7600480360360208110156103e157600080fd5b81019080803590602001909291905050506118a9565b604051808b600281111561040757fe5b60ff1681526020018a8152602001898152602001888152602001878152602001868152602001851515151581526020018481526020018381526020018281526020019a505050505050505050505060405180910390f35b61048a6004803603602081101561047457600080fd5b8101908080359060200190929190505050611a1b565b60405180848152602001838152602001828152602001935050505060405180910390f35b6104da600480360360208110156104c457600080fd5b8101908080359060200190929190505050611a93565b005b610595600480360360208110156104f257600080fd5b810190808035906020019064010000000081111561050f57600080fd5b82018360208201111561052157600080fd5b8035906020019184600183028401116401000000008311171561054357600080fd5b91908080601f016020809104026020016040519081016040528093929190818152602001838380828437600081840152601f19601f820116905080830192505050505050509192919290505050611bef565b604051808215151515815260200191505060405180910390f35b6105f1600480360360208110156105c557600080fd5b81019080803573ffffffffffffffffffffffffffffffffffffffff169060200190929190505050611c18565b60405180848152602001838152602001828152602001935050505060405180910390f35b61061d611ce8565b604051808215151515815260200191505060405180910390f35b61068d6004803603606081101561064d57600080fd5b81019080803573ffffffffffffffffffffffffffffffffffffffff1690602001909291908035906020019092919080359060200190929190505050611cfb565b005b610697611e35565b6040518082815260200191505060405180910390f35b610766600480360360208110156106c357600080fd5b81019080803590602001906401000000008111156106e057600080fd5b8201836020820111156106f257600080fd5b8035906020019184600183028401116401000000008311171561071457600080fd5b91908080601f016020809104026020016040519081016040528093929190818152602001838380828437600081840152601f19601f820116905080830192505050505050509192919290505050611e3b565b005b610770611f79565b6040518082815260200191505060405180910390f35b61078e611f7f565b6040518082600281111561079e57fe5b60ff16815260200191505060405180910390f35b61080a600480360360608110156107c857600080fd5b81019080803573ffffffffffffffffffffffffffffffffffffffff16906020019092919080351515906020019092919080359060200190929190505050611f92565b005b6108e56004803603604081101561082257600080fd5b810190808035906020019064010000000081111561083f57600080fd5b82018360208201111561085157600080fd5b8035906020019184600183028401116401000000008311171561087357600080fd5b91908080601f016020809104026020016040519081016040528093929190818152602001838380828437600081840152601f19601f820116905080830192505050505050509192919290803573ffffffffffffffffffffffffffffffffffffffff16906020019092919050505061229d565b005b6108ef6123f4565b604051808215151515815260200191505060405180910390f35b61094b6004803603602081101561091f57600080fd5b81019080803573ffffffffffffffffffffffffffffffffffffffff169060200190929190505050612423565b6040518082815260200191505060405180910390f35b61096961243b565b604051808273ffffffffffffffffffffffffffffffffffffffff1673ffffffffffffffffffffffffffffffffffffffff16815260200191505060405180910390f35b6109b3612461565b6040518082815260200191505060405180910390f35b610aa2600480360360408110156109df57600080fd5b81019080803590602001906401000000008111156109fc57600080fd5b820183602082011115610a0e57600080fd5b80359060200191846001830284011164010000000083111715610a3057600080fd5b91908080601f016020809104026020016040519081016040528093929190818152602001838380828437600081840152601f19601f820116905080830192505050505050509192919290803573ffffffffffffffffffffffffffffffffffffffff169060200190929190505050612467565b005b610b5d60048036036020811015610aba57600080fd5b8101908080359060200190640100000000811115610ad757600080fd5b820183602082011115610ae957600080fd5b80359060200191846001830284011164010000000083111715610b0b57600080fd5b91908080601f016020809104026020016040519081016040528093929190818152602001838380828437600081840152601f19601f8201169050808301925050505050505091929192905050506125e1565b604051808215151515815260200191505060405180910390f35b610b7f612661565b005b610baf60048036036020811015610b9757600080fd5b81019080803515159060200190929190505050612740565b6040518082815260200191505060405180910390f35b610bf360048036036020811015610bdb57600080fd5b8101908080351515906020019092919050505061276d565b6040518082815260200191505060405180910390f35b610c4b60048036036020811015610c1f57600080fd5b81019080803573ffffffffffffffffffffffffffffffffffffffff16906020019092919050505061293e565b005b610d0660048036036020811015610c6357600080fd5b8101908080359060200190640100000000811115610c8057600080fd5b820183602082011115610c9257600080fd5b80359060200191846001830284011164010000000083111715610cb457600080fd5b91908080601f016020809104026020016040519081016040528093929190818152602001838380828437600081840152601f19601f820116905080830192505050505050509192919290505050612bd0565b604051808215151515815260200191505060405180910390f35b610d28612c51565b604051808273ffffffffffffffffffffffffffffffffffffffff1673ffffffffffffffffffffffffffffffffffffffff16815260200191505060405180910390f35b610d72612c77565b005b610d7c612e7a565b6040518082815260200191505060405180910390f35b610dbe60048036036020811015610da857600080fd5b8101908080359060200190929190505050612f0c565b005b610dc8613068565b604051808215151515815260200191505060405180910390f35b610e2460048036036020811015610df857600080fd5b81019080803573ffffffffffffffffffffffffffffffffffffffff169060200190929190505050613095565b005b610e2e6131d4565b6040518080602001828103825283818151815260200191508051906020019080838360005b83811015610e6e578082015181840152602081019050610e53565b50505050905090810190601f168015610e9b5780820380516001836020036101000a031916815260200191505b509250505060405180910390f35b610ed560048036036020811015610ebf57600080fd5b810190808035906020019092919050505061320d565b6040518082815260200191505060405180910390f35b610ef3613243565b6040518080602001828103825283818151815260200191508051906020019080838360005b83811015610f33578082015181840152602081019050610f18565b50505050905090810190601f168015610f605780820380516001836020036101000a031916815260200191505b509250505060405180910390f35b610fba60048036036040811015610f8457600080fd5b8101908080359060200190929190803573ffffffffffffffffffffffffffffffffffffffff16906020019092919050505061327c565b6040518082815260200191505060405180910390f35b610fd8613471565b6040518082815260200191505060405180910390f35b6110a76004803603602081101561100457600080fd5b810190808035906020019064010000000081111561102157600080fd5b82018360208201111561103357600080fd5b8035906020019184600183028401116401000000008311171561105557600080fd5b91908080601f016020809104026020016040519081016040528093929190818152602001838380828437600081840152601f19601f82011690508083019250505050505050919291929050505061347d565b005b6110d5600480360360208110156110bf57600080fd5b810190808035906020019092919050505061352f565b6040518080602001828103825283818151815260200191508051906020019080838360005b838110156111155780820151818401526020810190506110fa565b50505050905090810190601f1680156111425780820380516001836020036101000a031916815260200191505b509250505060405180910390f35b6111586135e8565b604051808273ffffffffffffffffffffffffffffffffffffffff1673ffffffffffffffffffffffffffffffffffffffff16815260200191505060405180910390f35b6111a261360e565b005b6111ac6137c3565b604051808215151515815260200191505060405180910390f35b6111f2600480360360208110156111dc57600080fd5b810190808035906020019092919050505061381f565b6040518082815260200191505060405180910390f35b6112346004803603602081101561121e57600080fd5b8101908080359060200190929190505050613855565b6040518082815260200191505060405180910390f35b61125261388b565b604051808273ffffffffffffffffffffffffffffffffffffffff1673ffffffffffffffffffffffffffffffffffffffff16815260200191505060405180910390f35b61129c6138b1565b6040518082815260200191505060405180910390f35b6112fe600480360360408110156112c857600080fd5b81019080803573ffffffffffffffffffffffffffffffffffffffff169060200190929190803590602001909291905050506138b7565b604051808215151515815260200191505060405180910390f35b61135a6004803603602081101561132e57600080fd5b81019080803573ffffffffffffffffffffffffffffffffffffffff1690602001909291905050506138e6565b005b6114156004803603602081101561137257600080fd5b810190808035906020019064010000000081111561138f57600080fd5b8201836020820111156113a157600080fd5b803590602001918460018302840111640100000000831117156113c357600080fd5b91908080601f016020809104026020016040519081016040528093929190818152602001838380828437600081840152601f19601f820116905080830192505050505050509192919290505050613b44565b005b61141f613bf6565b6040518080602001828103825283818151815260200191508051906020019080838360005b8381101561145f578082015181840152602081019050611444565b50505050905090810190601f16801561148c5780820380516001836020036101000a031916815260200191505b509250505060405180910390f35b6114a2613c2f565b604051808215151515815260200191505060405180910390f35b61150a600480360360408110156114d257600080fd5b81019080803573ffffffffffffffffffffffffffffffffffffffff169060200190929190803515159060200190929190505050613e5d565b6040518082815260200191505060405180910390f35b61156c6004803603604081101561153657600080fd5b81019080803573ffffffffffffffffffffffffffffffffffffffff16906020019092919080359060200190929190505050613e82565b005b61159a6004803603602081101561158457600080fd5b8101908080359060200190929190505050613f84565b005b6115e8600480360360408110156115b257600080fd5b81019080803573ffffffffffffffffffffffffffffffffffffffff169060200190929190803590602001909291905050506140e0565b005b6115f26141e2565b6040518082815260200191505060405180910390f35b6116546004803603604081101561161e57600080fd5b8101908080359060200190929190803573ffffffffffffffffffffffffffffffffffffffff16906020019092919050505061421e565b60405180848152602001838152602001828152602001935050505060405180910390f35b6117516004803603604081101561168e57600080fd5b81019080803590602001906401000000008111156116ab57600080fd5b8201836020820111156116bd57600080fd5b803590602001918460018302840111640100000000831117156116df57600080fd5b91908080601f016020809104026020016040519081016040528093929190818152602001838380828437600081840152601f19601f820116905080830192505050505050509192919290803573ffffffffffffffffffffffffffffffffffffffff169060200190929190505050614316565b604051808215151515815260200191505060405180910390f35b6117a36004803603604081101561178157600080fd5b810190808035906020019092919080351515906020019092919050505061434d565b6040518082815260200191505060405180910390f35b6117c1614372565b604051808273ffffffffffffffffffffffffffffffffffffffff1673ffffffffffffffffffffffffffffffffffffffff16815260200191505060405180910390f35b61182f6004803603602081101561181957600080fd5b8101908080359060200190929190505050614398565b6040518089600281111561183f57fe5b60ff16815260200188600281111561185357fe5b60ff168152602001878152602001868152602001858152602001841515151581526020018381526020018281526020019850505050505050505060405180910390f35b600860159054906101000a900460ff1681565b600080600080600080600080600080600a60008c815260200190815260200160002060000160009054906101000a900460ff169950600a60008c815260200190815260200160002060020160006001151515158152602001908152602001600020549850600a60008c8152602001908152602001600020600201600080151515158152602001908152602001600020549750600a60008c8152602001908152602001600020600101549650600a60008c8152602001908152602001600020600601549550600a60008c8152602001908152602001600020600701549450600a60008c815260200190815260200160002060080160009054906101000a900460ff169350600a60008c8152602001908152602001600020600901549250600a60008c8152602001908152602001600020600a01549150611a0c836000851180156119f25750600084145b6119fc57836119fe565b435b61440790919063ffffffff16565b90509193959799509193959799565b6000806000600c600085815260200190815260200160002060006001151515158152602001908152602001600020549250600c6000858152602001908152602001600020600080151515158152602001908152602001600020549150611a8a828461449090919063ffffffff16565b90509193909250565b6040518060400160405280600581526020017f4f574e4552000000000000000000000000000000000000000000000000000000815250611ad38133614316565b611b28576040517f08c379a000000000000000000000000000000000000000000000000000000000815260040180806020018281038252602a815260200180615b56602a913960400191505060405180910390fd5b600860159054906101000a900460ff1615611bab576040517f08c379a000000000000000000000000000000000000000000000000000000000815260040180806020018281038252601b8152602001807f5265736f6c7574696f6e456e67696e653a2069732066726f7a656e000000000081525060200191505060405180910390fd5b816010819055507f6e6d449f93ade2f7633064e1100455be4000ded2710a405adc35da1096e2102f6010546040518082815260200191505060405180910390a15050565b600060016000611bfe84614518565b815260200190815260200160002054600014159050919050565b6000806000600b60008573ffffffffffffffffffffffffffffffffffffffff1673ffffffffffffffffffffffffffffffffffffffff16815260200190815260200160002060006001151515158152602001908152602001600020549250600b60008573ffffffffffffffffffffffffffffffffffffffff1673ffffffffffffffffffffffffffffffffffffffff168152602001908152602001600020600080151515158152602001908152602001600020549150611cdf828461449090919063ffffffff16565b90509193909250565b600860149054906101000a900460ff1681565b600460009054906101000a900473ffffffffffffffffffffffffffffffffffffffff1673ffffffffffffffffffffffffffffffffffffffff163373ffffffffffffffffffffffffffffffffffffffff1614611da1576040517f08c379a000000000000000000000000000000000000000000000000000000000815260040180806020018281038252602e815260200180615ba1602e913960400191505060405180910390fd5b600080905060008390505b828111611dde57611dcf611dc08683614593565b8361449090919063ffffffff16565b91508080600101915050611dac565b5081838573ffffffffffffffffffffffffffffffffffffffff167fc1199d92491cca50fe2a0c945991862e1ea7ed9da838db6eedd4e19580f6ec45846040518082815260200191505060405180910390a450505050565b60125481565b6040518060400160405280600581526020017f4f574e4552000000000000000000000000000000000000000000000000000000815250611e7b8133614316565b611ed0576040517f08c379a000000000000000000000000000000000000000000000000000000000815260040180806020018281038252602a815260200180615b56602a913960400191505060405180910390fd5b611ed9826146d6565b7f22f30a094e2ed10e9a92ebac7a70b8e2ae3288d9b594db22587861bc8fef4eef826040518080602001828103825283818151815260200191508051906020019080838360005b83811015611f3b578082015181840152602081019050611f20565b50505050905090810190601f168015611f685780820380516001836020036101000a031916815260200191505b509250505060405180910390a15050565b60115481565b600d60009054906101000a900460ff1681565b600460009054906101000a900473ffffffffffffffffffffffffffffffffffffffff1673ffffffffffffffffffffffffffffffffffffffff163373ffffffffffffffffffffffffffffffffffffffff1614612038576040517f08c379a000000000000000000000000000000000000000000000000000000000815260040180806020018281038252602e815260200180615ba1602e913960400191505060405180910390fd5b6040518060400160405280600581526020017f5354414b4500000000000000000000000000000000000000000000000000000081525061207781612bd0565b6120e9576040517f08c379a00000000000000000000000000000000000000000000000000000000081526004018080602001828103825260168152602001807f41626c653a206e616d652069732064697361626c65640000000000000000000081525060200191505060405180910390fd5b61215082600b60008773ffffffffffffffffffffffffffffffffffffffff1673ffffffffffffffffffffffffffffffffffffffff1681526020019081526020016000206000861515151581526020019081526020016000205461449090919063ffffffff16565b600b60008673ffffffffffffffffffffffffffffffffffffffff1673ffffffffffffffffffffffffffffffffffffffff168152602001908152602001600020600085151515158152602001908152602001600020819055506121e382600c60004381526020019081526020016000206000861515151581526020019081526020016000205461449090919063ffffffff16565b600c60004381526020019081526020016000206000851515151581526020019081526020016000208190555061223a848484600a60006009548152602001908152602001600020614762909392919063ffffffff16565b6009548473ffffffffffffffffffffffffffffffffffffffff167fb090af6b9902ba8a7bc46486cd082be61763b3decc7be5ab48dc26422860230c858560405180831515151581526020018281526020019250505060405180910390a350505050565b6040518060400160405280600581526020017f4f574e45520000000000000000000000000000000000000000000000000000008152506122dd8133614316565b612332576040517f08c379a000000000000000000000000000000000000000000000000000000000815260040180806020018281038252602a815260200180615b56602a913960400191505060405180910390fd5b61233c83836149cc565b8173ffffffffffffffffffffffffffffffffffffffff167fafe42c64e42361a5193c84f3f11b6803e41dd901d473ee6faa72f43f8ab1f468846040518080602001828103825283818151815260200191508051906020019080838360005b838110156123b557808201518184015260208101905061239a565b50505050905090810190601f1680156123e25780820380516001836020036101000a031916815260200191505b509250505060405180910390a2505050565b60006123fe6137c3565b801561240e575061240d613c2f565b5b801561241e575061241d613068565b5b905090565b600f6020528060005260406000206000915090505481565b600560009054906101000a900473ffffffffffffffffffffffffffffffffffffffff1681565b60105481565b6040518060400160405280600581526020017f4f574e45520000000000000000000000000000000000000000000000000000008152506124a78133614316565b6124fc576040517f08c379a000000000000000000000000000000000000000000000000000000000815260040180806020018281038252602a815260200180615b56602a913960400191505060405180910390fd5b612529826002600061250d87614518565b81526020019081526020016000206149fd90919063ffffffff16565b8173ffffffffffffffffffffffffffffffffffffffff167f3e3ea7a1060be276a52e916803e2f89e3478e263893fc3c0b4d5793dd6d5f032846040518080602001828103825283818151815260200191508051906020019080838360005b838110156125a2578082015181840152602081019050612587565b50505050905090810190601f1680156125cf5780820380516001836020036101000a031916815260200191505b509250505060405180910390a2505050565b60006003826040518082805190602001908083835b6020831061261957805182526020820191506020810190506020830392506125f6565b6001836020036101000a038019825116818451168082178552505050505050905001915050908152602001604051809103902060009054906101000a900460ff169050919050565b6040518060400160405280600581526020017f4f574e45520000000000000000000000000000000000000000000000000000008152506126a18133614316565b6126f6576040517f08c379a000000000000000000000000000000000000000000000000000000000815260040180806020018281038252602a815260200180615b56602a913960400191505060405180910390fd5b6001600860156101000a81548160ff0219169083151502179055507fa8cab3d1893ed53071b052fafa843143492f25d1d6b0170d460789f7ab1954be60405160405180910390a150565b60008061274b612e7a565b905060006127588461276d565b90506127648282614aba565b92505050919050565b6000806127a5600a6000600954815260200190815260200160002060010154612797600954613855565b614ad490919063ffffffff16565b90506000612866600a600060095481526020019081526020016000206002016000861515151581526020019081526020016000205473__ConstantsLib__________________________62a123336040518163ffffffff1660e01b815260040160206040518083038186803b15801561281d57600080fd5b505af4158015612831573d6000803e3d6000fd5b505050506040513d602081101561284757600080fd5b8101908080519060200190929190505050614ad490919063ffffffff16565b9050818110612876576000612935565b612934612913612887600954613855565b73__ConstantsLib__________________________62a123336040518163ffffffff1660e01b815260040160206040518083038186803b1580156128ca57600080fd5b505af41580156128de573d6000803e3d6000fd5b505050506040513d60208110156128f457600080fd5b810190808051906020019092919050505061440790919063ffffffff16565b612926838561440790919063ffffffff16565b614b5a90919063ffffffff16565b5b92505050919050565b600460009054906101000a900473ffffffffffffffffffffffffffffffffffffffff1673ffffffffffffffffffffffffffffffffffffffff163373ffffffffffffffffffffffffffffffffffffffff16146129e4576040517f08c379a000000000000000000000000000000000000000000000000000000000815260040180806020018281038252602e815260200180615ba1602e913960400191505060405180910390fd5b6040518060400160405280600781526020017f5245534f4c564500000000000000000000000000000000000000000000000000815250612a23816125e1565b612a95576040517f08c379a00000000000000000000000000000000000000000000000000000000081526004018080602001828103825260158152602001807f41626c653a206e616d6520697320656e61626c6564000000000000000000000081525060200191505060405180910390fd5b6000600a6000600954815260200190815260200160002090506000612b708260030160008673ffffffffffffffffffffffffffffffffffffffff1673ffffffffffffffffffffffffffffffffffffffff168152602001908152602001600020600080151515158152602001908152602001600020548360030160008773ffffffffffffffffffffffffffffffffffffffff1673ffffffffffffffffffffffffffffffffffffffff168152602001908152602001600020600060011515151581526020019081526020016000205461449090919063ffffffff16565b9050612b7c8482614be9565b8373ffffffffffffffffffffffffffffffffffffffff167f46c86b7ebca513b3ec213b4738e43070434543c30ac031708ba3851ac8cb4121826040518082815260200191505060405180910390a250505050565b60006003826040518082805190602001908083835b60208310612c085780518252602082019150602081019050602083039250612be5565b6001836020036101000a038019825116818451168082178552505050505050905001915050908152602001604051809103902060009054906101000a900460ff16159050919050565b600460009054906101000a900473ffffffffffffffffffffffffffffffffffffffff1681565b6040518060400160405280600581526020017f4f574e4552000000000000000000000000000000000000000000000000000000815250612cb78133614316565b612d0c576040517f08c379a000000000000000000000000000000000000000000000000000000000815260040180806020018281038252602a815260200180615b56602a913960400191505060405180910390fd5b600860149054906101000a900460ff1615612d72576040517f08c379a0000000000000000000000000000000000000000000000000000000008152600401808060200182810382526025815260200180615c486025913960400191505060405180910390fd5b600660009054906101000a900473ffffffffffffffffffffffffffffffffffffffff1673ffffffffffffffffffffffffffffffffffffffff16600073ffffffffffffffffffffffffffffffffffffffff161415612e1a576040517f08c379a000000000000000000000000000000000000000000000000000000000815260040180806020018281038252602a815260200180615ce5602a913960400191505060405180910390fd5b6001600860146101000a81548160ff0219169083151502179055506000612e3f614c82565b9050612e4a81614dc6565b7f5daa87a0e9463431830481fd4b6e3403442dfb9a12b9c07597e9f61d50b633c860405160405180910390a15050565b600080612eb2600a6000600954815260200190815260200160002060070154612ea460095461320d565b614ad490919063ffffffff16565b9050600a60006009548152602001908152602001600020600101548111612eda576000612f06565b612f05600a60006009548152602001908152602001600020600101548261440790919063ffffffff16565b5b91505090565b6040518060400160405280600581526020017f4f574e4552000000000000000000000000000000000000000000000000000000815250612f4c8133614316565b612fa1576040517f08c379a000000000000000000000000000000000000000000000000000000000815260040180806020018281038252602a815260200180615b56602a913960400191505060405180910390fd5b600860159054906101000a900460ff1615613024576040517f08c379a000000000000000000000000000000000000000000000000000000000815260040180806020018281038252601b8152602001807f5265736f6c7574696f6e456e67696e653a2069732066726f7a656e000000000081525060200191505060405180910390fd5b816011819055507f8bd21fd609c096d2ad2126f9024468f83179ed58a219068b8a6fa0381751de386011546040518082815260200191505060405180910390a15050565b600061307560095461381f565b600a60006009548152602001908152602001600020600601541015905090565b6040518060400160405280600581526020017f4f574e45520000000000000000000000000000000000000000000000000000008152506130d58133614316565b61312a576040517f08c379a000000000000000000000000000000000000000000000000000000000815260040180806020018281038252602a815260200180615b56602a913960400191505060405180910390fd5b81600660006101000a81548173ffffffffffffffffffffffffffffffffffffffff021916908373ffffffffffffffffffffffffffffffffffffffff160217905550600660009054906101000a900473ffffffffffffffffffffffffffffffffffffffff1673ffffffffffffffffffffffffffffffffffffffff167f788e1a4c2faf407e4a26256b2cc5e39ac3883f819087249fc5c54102d5a1afda60405160405180910390a25050565b6040518060400160405280600781526020017f5245534f4c56450000000000000000000000000000000000000000000000000081525081565b6000600a6000838152602001908152602001600020600b0160008154811061323157fe5b90600052602060002001549050919050565b6040518060400160405280600581526020017f5354414b4500000000000000000000000000000000000000000000000000000081525081565b6000600a600084815260200190815260200160002060000160019054906101000a900460ff1660028111156132ad57fe5b600060028111156132ba57fe5b14156132c9576000905061346b565b6000600160028111156132d857fe5b600a600086815260200190815260200160002060000160019054906101000a900460ff16600281111561330757fe5b1490506000600a600086815260200190815260200160002060020160008315151515158152602001908152602001600020549050600a600086815260200190815260200160002060080160009054906101000a900460ff16156133905761338d600a6000878152602001908152602001600020600701548261449090919063ffffffff16565b90505b6000600a600087815260200190815260200160002060030160008673ffffffffffffffffffffffffffffffffffffffff1673ffffffffffffffffffffffffffffffffffffffff1681526020019081526020016000206000841515151581526020019081526020016000205490506000600a600088815260200190815260200160002060020160008515151515815260200190815260200160002054905061346482613456836134488688614ad490919063ffffffff16565b614b5a90919063ffffffff16565b61449090919063ffffffff16565b9450505050505b92915050565b60008080549050905090565b600560009054906101000a900473ffffffffffffffffffffffffffffffffffffffff1673ffffffffffffffffffffffffffffffffffffffff163373ffffffffffffffffffffffffffffffffffffffff1614613523576040517f08c379a0000000000000000000000000000000000000000000000000000000008152600401808060200182810382526030815260200180615b266030913960400191505060405180910390fd5b61352c81614eea565b50565b6000818154811061353c57fe5b906000526020600020016000915090508054600181600116156101000203166002900480601f0160208091040260200160405190810160405280929190818152602001828054600181600116156101000203166002900480156135e05780601f106135b5576101008083540402835291602001916135e0565b820191906000526020600020905b8154815290600101906020018083116135c357829003601f168201915b505050505081565b600760009054906101000a900473ffffffffffffffffffffffffffffffffffffffff1681565b600460009054906101000a900473ffffffffffffffffffffffffffffffffffffffff1673ffffffffffffffffffffffffffffffffffffffff163373ffffffffffffffffffffffffffffffffffffffff16146136b4576040517f08c379a000000000000000000000000000000000000000000000000000000000815260040180806020018281038252602e815260200180615ba1602e913960400191505060405180910390fd5b6040518060400160405280600781526020017f5245534f4c5645000000000000000000000000000000000000000000000000008152506136f381612bd0565b613765576040517f08c379a00000000000000000000000000000000000000000000000000000000081526004018080602001828103825260168152602001807f41626c653a206e616d652069732064697361626c65640000000000000000000081525060200191505060405180910390fd5b61376d6123f4565b156137c05761377a6150f4565b6009547f148a25ee2a7671350ab878ff183447de8ae5afa2ee0ae7d5ee1ad6b25c4868c260405160405180910390a260006137b3614c82565b90506137be81614dc6565b505b50565b6000806137fb600a60006009548152602001908152602001600020600701546137ed60095461320d565b614ad490919063ffffffff16565b905080600a6000600954815260200190815260200160002060010154101591505090565b6000600a6000838152602001908152602001600020600b0160028154811061384357fe5b90600052602060002001549050919050565b6000600a6000838152602001908152602001600020600b0160018154811061387957fe5b90600052602060002001549050919050565b600660009054906101000a900473ffffffffffffffffffffffffffffffffffffffff1681565b60095481565b600e6020528160005260406000206020528060005260406000206000915091509054906101000a900460ff1681565b6040518060400160405280600581526020017f4f574e45520000000000000000000000000000000000000000000000000000008152506139268133614316565b61397b576040517f08c379a000000000000000000000000000000000000000000000000000000000815260040180806020018281038252602a815260200180615b56602a913960400191505060405180910390fd5b6040518060400160405280600781526020017f5245534f4c5645000000000000000000000000000000000000000000000000008152506139ba816125e1565b613a2c576040517f08c379a00000000000000000000000000000000000000000000000000000000081526004018080602001828103825260158152602001807f41626c653a206e616d6520697320656e61626c6564000000000000000000000081525060200191505060405180910390fd5b613a96600a6000600954815260200190815260200160002060070154600f60008673ffffffffffffffffffffffffffffffffffffffff1673ffffffffffffffffffffffffffffffffffffffff1681526020019081526020016000205461449090919063ffffffff16565b600f60008573ffffffffffffffffffffffffffffffffffffffff1673ffffffffffffffffffffffffffffffffffffffff168152602001908152602001600020819055508273ffffffffffffffffffffffffffffffffffffffff167f0f49497f1a94a8def9ec5c99c6cb026964d545cbc6e742501cd1b2b07d1ba99f600a60006009548152602001908152602001600020600701546040518082815260200191505060405180910390a2505050565b600560009054906101000a900473ffffffffffffffffffffffffffffffffffffffff1673ffffffffffffffffffffffffffffffffffffffff163373ffffffffffffffffffffffffffffffffffffffff1614613bea576040517f08c379a0000000000000000000000000000000000000000000000000000000008152600401808060200182810382526030815260200180615b266030913960400191505060405180910390fd5b613bf3816152a1565b50565b6040518060400160405280600581526020017f4f574e455200000000000000000000000000000000000000000000000000000081525081565b6000600a600060095481526020019081526020016000206001015460001415613c5b5760009050613e5a565b6000613c68600954613855565b613d50600a6000600954815260200190815260200160002060010154613d4273__ConstantsLib__________________________62a123336040518163ffffffff1660e01b815260040160206040518083038186803b158015613cca57600080fd5b505af4158015613cde573d6000803e3d6000fd5b505050506040513d6020811015613cf457600080fd5b8101908080519060200190929190505050600a600060095481526020019081526020016000206002016000600115151515815260200190815260200160002054614ad490919063ffffffff16565b614b5a90919063ffffffff16565b101590506000613d61600954613855565b613e48600a6000600954815260200190815260200160002060010154613e3a73__ConstantsLib__________________________62a123336040518163ffffffff1660e01b815260040160206040518083038186803b158015613dc357600080fd5b505af4158015613dd7573d6000803e3d6000fd5b505050506040513d6020811015613ded57600080fd5b8101908080519060200190929190505050600a6000600954815260200190815260200160002060020160008015151515815260200190815260200160002054614ad490919063ffffffff16565b614b5a90919063ffffffff16565b101590508180613e555750805b925050505b90565b600b602052816000526040600020602052806000526040600020600091509150505481565b600460009054906101000a900473ffffffffffffffffffffffffffffffffffffffff1673ffffffffffffffffffffffffffffffffffffffff163373ffffffffffffffffffffffffffffffffffffffff1614613f28576040517f08c379a000000000000000000000000000000000000000000000000000000000815260040180806020018281038252602e815260200180615ba1602e913960400191505060405180910390fd5b613f328282614be9565b8173ffffffffffffffffffffffffffffffffffffffff167f02688c924ef99d72adc11835fa071707c184455730eb94dc633e9870e1c3bcee826040518082815260200191505060405180910390a25050565b6040518060400160405280600581526020017f4f574e4552000000000000000000000000000000000000000000000000000000815250613fc48133614316565b614019576040517f08c379a000000000000000000000000000000000000000000000000000000000815260040180806020018281038252602a815260200180615b56602a913960400191505060405180910390fd5b600860159054906101000a900460ff161561409c576040517f08c379a000000000000000000000000000000000000000000000000000000000815260040180806020018281038252601b8152602001807f5265736f6c7574696f6e456e67696e653a2069732066726f7a656e000000000081525060200191505060405180910390fd5b816012819055507fb2d6527bead72edb169a1656493763a576d2af497a13fe793243e1b5db7300856012546040518082815260200191505060405180910390a15050565b600460009054906101000a900473ffffffffffffffffffffffffffffffffffffffff1673ffffffffffffffffffffffffffffffffffffffff163373ffffffffffffffffffffffffffffffffffffffff1614614186576040517f08c379a000000000000000000000000000000000000000000000000000000000815260040180806020018281038252602e815260200180615ba1602e913960400191505060405180910390fd5b61419082826154ac565b8173ffffffffffffffffffffffffffffffffffffffff167f7084f5476618d8e60b11ef0d7d3f06914655adb8793e28ff7f018d4c76d505d5826040518082815260200191505060405180910390a25050565b6000614219600a600060095481526020019081526020016000206006015461420b60095461381f565b61440790919063ffffffff16565b905090565b6000806000600a600086815260200190815260200160002060030160008573ffffffffffffffffffffffffffffffffffffffff1673ffffffffffffffffffffffffffffffffffffffff16815260200190815260200160002060006001151515158152602001908152602001600020549250600a600086815260200190815260200160002060030160008573ffffffffffffffffffffffffffffffffffffffff1673ffffffffffffffffffffffffffffffffffffffff16815260200190815260200160002060008015151515815260200190815260200160002054915061430d828461449090919063ffffffff16565b90509250925092565b6000614345826002600061432987614518565b81526020019081526020016000206156c290919063ffffffff16565b905092915050565b600c602052816000526040600020602052806000526040600020600091509150505481565b600860009054906101000a900473ffffffffffffffffffffffffffffffffffffffff1681565b600a6020528060005260406000206000915090508060000160009054906101000a900460ff16908060000160019054906101000a900460ff16908060010154908060060154908060070154908060080160009054906101000a900460ff169080600901549080600a0154905088565b60008282111561447f576040517f08c379a000000000000000000000000000000000000000000000000000000000815260040180806020018281038252601e8152602001807f536166654d6174683a207375627472616374696f6e206f766572666c6f77000081525060200191505060405180910390fd5b600082840390508091505092915050565b60008082840190508381101561450e576040517f08c379a000000000000000000000000000000000000000000000000000000000815260040180806020018281038252601b8152602001807f536166654d6174683a206164646974696f6e206f766572666c6f77000000000081525060200191505060405180910390fd5b8091505092915050565b6000816040516020018082805190602001908083835b60208310614551578051825260208201915060208101905060208303925061452e565b6001836020036101000a038019825116818451168082178552505050505050905001915050604051602081830303815290604052805190602001209050919050565b6000600a600083815260200190815260200160002060000160009054906101000a900460ff1660028111156145c457fe5b6002808111156145d057fe5b146145de57600090506146d0565b600e60008473ffffffffffffffffffffffffffffffffffffffff1673ffffffffffffffffffffffffffffffffffffffff168152602001908152602001600020600083815260200190815260200160002060009054906101000a900460ff161561464a57600090506146d0565b6000614656838561327c565b90506001600e60008673ffffffffffffffffffffffffffffffffffffffff1673ffffffffffffffffffffffffffffffffffffffff168152602001908152602001600020600085815260200190815260200160002060006101000a81548160ff0219169083151502179055506146cb8482614be9565b809150505b92915050565b600160006146e383614518565b8152602001908152602001600020546000141561475f576000819080600181540180825580915050906001820390600052602060002001600090919290919091509080519060200190614737929190615a80565b50506000805490506001600061474c84614518565b8152602001908152602001600020819055505b50565b61477981856001015461449090919063ffffffff16565b84600101819055506147ad81856002016000851515151581526020019081526020016000205461449090919063ffffffff16565b8460020160008415151515815260200190815260200160002081905550614833818560030160008673ffffffffffffffffffffffffffffffffffffffff1673ffffffffffffffffffffffffffffffffffffffff1681526020019081526020016000206000851515151581526020019081526020016000205461449090919063ffffffff16565b8460030160008573ffffffffffffffffffffffffffffffffffffffff1673ffffffffffffffffffffffffffffffffffffffff168152602001908152602001600020600084151515158152602001908152602001600020819055506148ca818560040160004381526020019081526020016000206000851515151581526020019081526020016000205461449090919063ffffffff16565b846004016000438152602001908152602001600020600084151515158152602001908152602001600020819055508360050160008473ffffffffffffffffffffffffffffffffffffffff1673ffffffffffffffffffffffffffffffffffffffff16815260200190815260200160002060009054906101000a900460ff166149c65760018460050160008573ffffffffffffffffffffffffffffffffffffffff1673ffffffffffffffffffffffffffffffffffffffff16815260200190815260200160002060006101000a81548160ff0219169083151502179055506149bd6001856006015461449090919063ffffffff16565b84600601819055505b50505050565b6149f981600260006149dd86614518565b81526020019081526020016000206157a090919063ffffffff16565b5050565b614a0782826156c2565b614a5c576040517f08c379a0000000000000000000000000000000000000000000000000000000008152600401808060200182810382526021815260200180615b806021913960400191505060405180910390fd5b60008260000160008373ffffffffffffffffffffffffffffffffffffffff1673ffffffffffffffffffffffffffffffffffffffff16815260200190815260200160002060006101000a81548160ff0219169083151502179055505050565b600081831015614aca5781614acc565b825b905092915050565b600080831415614ae75760009050614b54565b6000828402905082848281614af857fe5b0414614b4f576040517f08c379a0000000000000000000000000000000000000000000000000000000008152600401808060200182810382526021815260200180615bcf6021913960400191505060405180910390fd5b809150505b92915050565b6000808211614bd1576040517f08c379a000000000000000000000000000000000000000000000000000000000815260040180806020018281038252601a8152602001807f536166654d6174683a206469766973696f6e206279207a65726f00000000000081525060200191505060405180910390fd5b6000828481614bdc57fe5b0490508091505092915050565b614c3b81600f60008573ffffffffffffffffffffffffffffffffffffffff1673ffffffffffffffffffffffffffffffffffffffff1681526020019081526020016000205461449090919063ffffffff16565b600f60008473ffffffffffffffffffffffffffffffffffffffff1673ffffffffffffffffffffffffffffffffffffffff168152602001908152602001600020819055505050565b600080600760009054906101000a900473ffffffffffffffffffffffffffffffffffffffff1673ffffffffffffffffffffffffffffffffffffffff1663cabfd1bf600660009054906101000a900473ffffffffffffffffffffffffffffffffffffffff166040518263ffffffff1660e01b8152600401808273ffffffffffffffffffffffffffffffffffffffff1673ffffffffffffffffffffffffffffffffffffffff168152602001915050602060405180830381600087803b158015614d4857600080fd5b505af1158015614d5c573d6000803e3d6000fd5b505050506040513d6020811015614d7257600080fd5b810190808051906020019092919050505090506009547f19f48f5ad18ce87f3ee918db6f8ece6244ca05188a3f986cbaad4ef1241a5dbd826040518082815260200191505060405180910390a28091505090565b60006002811115614dd357fe5b600a6000614ded600160095461449090919063ffffffff16565b815260200190815260200160002060000160009054906101000a900460ff166002811115614e1757fe5b14614e6d576040517f08c379a000000000000000000000000000000000000000000000000000000000815260040180806020018281038252603d815260200180615c6d603d913960400191505060405180910390fd5b614e83600160095461449090919063ffffffff16565b600981905550614eb081600a6000600954815260200190815260200160002061587b90919063ffffffff16565b614eb86158b7565b6009547f9bdc29cef4fb1c7bae8fbfe617da2974521f5b773b27c8826ba71e9edbc23b8860405160405180910390a250565b6003816040518082805190602001908083835b60208310614f205780518252602082019150602081019050602083039250614efd565b6001836020036101000a038019825116818451168082178552505050505050905001915050908152602001604051809103902060009054906101000a900460ff16614fd3576040517f08c379a00000000000000000000000000000000000000000000000000000000081526004018080602001828103825260158152602001807f41626c653a206e616d6520697320656e61626c6564000000000000000000000081525060200191505060405180910390fd5b60006003826040518082805190602001908083835b6020831061500b5780518252602082019150602081019050602083039250614fe8565b6001836020036101000a038019825116818451168082178552505050505050905001915050908152602001604051809103902060006101000a81548160ff0219169083151502179055507fb5e827ca0218ec32f5872a8cdba7c9a069373f7ef4a2fb0c72ae0f25cf78f1c2816040518080602001828103825283818151815260200191508051906020019080838360005b838110156150b757808201518184015260208101905061509c565b50505050905090810190601f1680156150e45780820380516001836020036101000a031916815260200191505b509250505060405180910390a150565b6001600281111561510157fe5b600a6000600954815260200190815260200160002060000160009054906101000a900460ff16600281111561513257fe5b14615188576040517f08c379a000000000000000000000000000000000000000000000000000000000815260040180806020018281038252603b815260200180615caa603b913960400191505060405180910390fd5b6151a5600a60006009548152602001908152602001600020615985565b600d60009054906101000a900460ff1660028111156151c057fe5b600a6000600954815260200190815260200160002060000160019054906101000a900460ff1660028111156151f157fe5b1461527057600a6000600954815260200190815260200160002060000160019054906101000a900460ff16600d60006101000a81548160ff0219169083600281111561523957fe5b02179055506001600a6000600954815260200190815260200160002060080160006101000a81548160ff0219169083151502179055505b6009547f9feea6fd2bc175ea5210b97c9f21684984af26aa9a2aa1049dad999cf094289d60405160405180910390a2565b6003816040518082805190602001908083835b602083106152d757805182526020820191506020810190506020830392506152b4565b6001836020036101000a038019825116818451168082178552505050505050905001915050908152602001604051809103902060009054906101000a900460ff161561538b576040517f08c379a00000000000000000000000000000000000000000000000000000000081526004018080602001828103825260168152602001807f41626c653a206e616d652069732064697361626c65640000000000000000000081525060200191505060405180910390fd5b60016003826040518082805190602001908083835b602083106153c357805182526020820191506020810190506020830392506153a0565b6001836020036101000a038019825116818451168082178552505050505050905001915050908152602001604051809103902060006101000a81548160ff0219169083151502179055507f1429691d4b3ebbe1b946e4625c94bd72f57e8d9f73242f97d7c968072cb891b9816040518080602001828103825283818151815260200191508051906020019080838360005b8381101561546f578082015181840152602081019050615454565b50505050905090810190601f16801561549c5780820380516001836020036101000a031916815260200191505b509250505060405180910390a150565b600f60008373ffffffffffffffffffffffffffffffffffffffff1673ffffffffffffffffffffffffffffffffffffffff16815260200190815260200160002054811115615544576040517f08c379a0000000000000000000000000000000000000000000000000000000008152600401808060200182810382526036815260200180615c126036913960400191505060405180910390fd5b61559681600f60008573ffffffffffffffffffffffffffffffffffffffff1673ffffffffffffffffffffffffffffffffffffffff1681526020019081526020016000205461440790919063ffffffff16565b600f60008473ffffffffffffffffffffffffffffffffffffffff1673ffffffffffffffffffffffffffffffffffffffff16815260200190815260200160002081905550600860009054906101000a900473ffffffffffffffffffffffffffffffffffffffff1673ffffffffffffffffffffffffffffffffffffffff1663a9059cbb83836040518363ffffffff1660e01b8152600401808373ffffffffffffffffffffffffffffffffffffffff1673ffffffffffffffffffffffffffffffffffffffff16815260200182815260200192505050602060405180830381600087803b15801561568257600080fd5b505af1158015615696573d6000803e3d6000fd5b505050506040513d60208110156156ac57600080fd5b8101908080519060200190929190505050505050565b60008073ffffffffffffffffffffffffffffffffffffffff168273ffffffffffffffffffffffffffffffffffffffff161415615749576040517f08c379a0000000000000000000000000000000000000000000000000000000008152600401808060200182810382526022815260200180615bf06022913960400191505060405180910390fd5b8260000160008373ffffffffffffffffffffffffffffffffffffffff1673ffffffffffffffffffffffffffffffffffffffff16815260200190815260200160002060009054906101000a900460ff16905092915050565b6157aa82826156c2565b1561581d576040517f08c379a000000000000000000000000000000000000000000000000000000000815260040180806020018281038252601f8152602001807f526f6c65733a206163636f756e7420616c72656164792068617320726f6c650081525060200191505060405180910390fd5b60018260000160008373ffffffffffffffffffffffffffffffffffffffff1673ffffffffffffffffffffffffffffffffffffffff16815260200190815260200160002060006101000a81548160ff0219169083151502179055505050565b60018260000160006101000a81548160ff0219169083600281111561589c57fe5b02179055508082600701819055504382600901819055505050565b600a60006009548152602001908152602001600020600b016010549080600181540180825580915050906001820390600052602060002001600090919290919091505550600a60006009548152602001908152602001600020600b016011549080600181540180825580915050906001820390600052602060002001600090919290919091505550600a60006009548152602001908152602001600020600b016012549080600181540180825580915050906001820390600052602060002001600090919290919091505550565b60028160000160006101000a81548160ff021916908360028111156159a657fe5b02179055504381600a018190555080600201600080151515158152602001908152602001600020548160020160006001151515158152602001908152602001600020541115615a1a5760018160000160016101000a81548160ff02191690836002811115615a1057fe5b0217905550615a7d565b80600201600080151515158152602001908152602001600020548160020160006001151515158152602001908152602001600020541015615a7c5760028160000160016101000a81548160ff02191690836002811115615a7657fe5b02179055505b5b50565b828054600181600116156101000203166002900490600052602060002090601f016020900481019282601f10615ac157805160ff1916838001178555615aef565b82800160010185558215615aef579182015b82811115615aee578251825591602001919060010190615ad3565b5b509050615afc9190615b00565b5090565b615b2291905b80821115615b1e576000816000905550600101615b06565b5090565b9056fe5265736f6c7574696f6e456e67696e653a2073656e646572206973206e6f742074686520736574206f70657261746f725242414365643a2073656e646572206973206e6f74206163636573736f72206f662074686520726f6c65526f6c65733a206163636f756e7420646f6573206e6f74206861766520726f6c655265736f6c7574696f6e456e67696e653a2073656e646572206973206e6f742074686520736574206f7261636c65536166654d6174683a206d756c7469706c69636174696f6e206f766572666c6f77526f6c65733a206163636f756e7420697320746865207a65726f20616464726573735265736f6c7574696f6e456e67696e653a20616d6f756e742069732067726561746572207468616e2073746167656420616d6f756e745265736f6c7574696f6e456e67696e653a20616c726561647920696e697469616c697a65645265736f6c7574696f6e456e67696e653a20766572696669636174696f6e207068617365206973206e6f7420696e20756e6f70656e65642073746174655265736f6c7574696f6e456e67696e653a20766572696669636174696f6e207068617365206973206e6f7420696e206f70656e65642073746174655265736f6c7574696f6e456e67696e653a206d697373696e6720626f756e747920616c6c6f6361746f72a265627a7a72315820d5e28c17ecaaf5966f29ce91c932f1a55bb157fb19dc2484b53bddf904b6446964736f6c634300050b0032526f6c65733a206163636f756e7420697320746865207a65726f2061646472657373",
  "source": "/*\n * Lottery oracle\n *\n * Copyright (C) 2017-2019 Hubii AS\n */\n\npragma solidity ^0.5.11;\n\nimport {Resolvable} from \"./Resolvable.sol\";\nimport {ResolutionEngine} from \"./ResolutionEngine.sol\";\nimport {ConstantsLib} from \"./ConstantsLib.sol\";\nimport {Math} from \"openzeppelin-solidity/contracts/math/Math.sol\";\n\n/// @title AlphaBetaGammaResolutionEngine\n/// @author Mark Briscombe <mark@hubii.com> & Jens Ivar Jrdre <jensivar@hubii.com>\n/// @notice A resolution engine with Bounty with Ratio, Percentage and Addresses\n/// Resolve the staking market when:\n/// - The total number of tokens staked on the market is >= alpha times the number of tokens posted for the Bounty AND;\n/// - The percentage of tokens staked on either option across the market is >= beta % AND;\n/// - The total number of addresses staking tokens is >= gamma\ncontract AlphaBetaGammaResolutionEngine is Resolvable, ResolutionEngine {\n\n    event NextAlphaSet(uint256 alpha);\n    event NextBetaSet(uint256 beta);\n    event NextGammaSet(uint256 gamma);\n\n    uint256 constant private ALPHA_INDEX = 0;\n    uint256 constant private BETA_INDEX = 1;\n    uint256 constant private GAMMA_INDEX = 2;\n\n    uint256 public nextAlpha;\n    uint256 public nextBeta;\n    uint256 public nextGamma;\n\n    /// @notice `msg.sender` will be added as accessor to the owner role\n    /// @param _oracle The address of oracle\n    /// @param _operator The address of operator\n    /// @param _bountyFund The address of bounty fund\n    /// @param _nextAlpha The next alpha criterion of this resolution engine\n    /// @param _nextBeta The next beta criterion of this resolution engine\n    /// @param _nextGamma The next gamma criterion of this resolution engine\n    constructor(address _oracle, address _operator, address _bountyFund,\n        uint256 _nextAlpha, uint256 _nextBeta, uint256 _nextGamma)\n    public\n    ResolutionEngine(_oracle, _operator, _bountyFund)\n    {\n        nextAlpha = _nextAlpha;\n        nextBeta = _nextBeta;\n        nextGamma = _nextGamma;\n    }\n\n    /// @notice Return the amount needed to resolve the current market for the given status\n    /// @param _status The concerned status\n    /// @return the amount needed to obtain to resolve the market\n    function resolutionDeltaAmount(bool _status)\n    public\n    view\n    returns (uint256)\n    {\n        uint256 alphaAmount = alphaResolutionDeltaAmount();\n        uint256 betaAmount = betaResolutionDeltaAmount(_status);\n        return Math.max(alphaAmount, betaAmount);\n    }\n\n    /// @notice Return the amount needed to resolve the alpha criterion\n    /// @return the amount needed to obtain to resolve the alpha criterion\n    function alphaResolutionDeltaAmount()\n    public\n    view\n    returns (uint256)\n    {\n        uint256 scaledBountyAmount = alphaByPhaseNumber(verificationPhaseNumber)\n        .mul(verificationPhaseByPhaseNumber[verificationPhaseNumber].bountyAmount);\n        return (\n        scaledBountyAmount > verificationPhaseByPhaseNumber[verificationPhaseNumber].stakedAmount ?\n        scaledBountyAmount.sub(verificationPhaseByPhaseNumber[verificationPhaseNumber].stakedAmount) :\n        0\n        );\n    }\n\n    /// @notice Return the amount needed to resolve the beta criterion for the given status\n    /// @param _status The concerned status\n    /// @return the amount needed to obtain to resolve the beta criterion\n    function betaResolutionDeltaAmount(bool _status)\n    public\n    view\n    returns (uint256)\n    {\n        uint256 scaledStakedAmount = betaByPhaseNumber(verificationPhaseNumber)\n        .mul(verificationPhaseByPhaseNumber[verificationPhaseNumber].stakedAmount);\n        uint256 scaledStatusStakedAmount = ConstantsLib.PARTS_PER()\n        .mul(verificationPhaseByPhaseNumber[verificationPhaseNumber].stakedAmountByStatus[_status]);\n        return (\n        scaledStatusStakedAmount < scaledStakedAmount ?\n        scaledStakedAmount.sub(scaledStatusStakedAmount).div(\n            ConstantsLib.PARTS_PER().sub(betaByPhaseNumber(verificationPhaseNumber))\n        ) :\n        0\n        );\n    }\n\n    /// @notice Return the number of staking wallets needed to resolve the gamma criterion\n    /// @return the number of staking wallets needed to resolve the gamma criterion\n    function gammaResolutionDelta()\n    public\n    view\n    returns (uint256)\n    {\n        return gammaByPhaseNumber(verificationPhaseNumber)\n        .sub(verificationPhaseByPhaseNumber[verificationPhaseNumber].stakingWallets);\n    }\n\n    /// @notice Gauge whether the resolution criteria have been met\n    /// @return true if resolution criteria have been met, else false\n    function resolutionCriteriaMet()\n    public\n    view\n    returns (bool)\n    {\n        return alphaCriterionMet() && betaCriterionMet() && gammaCriterionMet();\n    }\n\n    /// @notice Gauge whether the alpha criterion has been met\n    /// @return true if criterion has been met, else false\n    function alphaCriterionMet()\n    public\n    view\n    returns (bool)\n    {\n        uint256 baseline = alphaByPhaseNumber(verificationPhaseNumber)\n        .mul(verificationPhaseByPhaseNumber[verificationPhaseNumber].bountyAmount);\n        return verificationPhaseByPhaseNumber[verificationPhaseNumber].stakedAmount >= baseline;\n    }\n\n    /// @notice Gauge whether the beta criterion has been met\n    /// @return true if criterion has been met, else false\n    function betaCriterionMet()\n    public\n    view\n    returns (bool)\n    {\n        if (0 == verificationPhaseByPhaseNumber[verificationPhaseNumber].stakedAmount)\n            return false;\n\n        bool trueCriterionMet = verificationPhaseByPhaseNumber[verificationPhaseNumber].stakedAmountByStatus[true]\n        .mul(ConstantsLib.PARTS_PER())\n        .div(verificationPhaseByPhaseNumber[verificationPhaseNumber].stakedAmount)\n        >= betaByPhaseNumber(verificationPhaseNumber);\n\n        bool falseCriterionMet = verificationPhaseByPhaseNumber[verificationPhaseNumber].stakedAmountByStatus[false]\n        .mul(ConstantsLib.PARTS_PER())\n        .div(verificationPhaseByPhaseNumber[verificationPhaseNumber].stakedAmount)\n        >= betaByPhaseNumber(verificationPhaseNumber);\n\n        return trueCriterionMet || falseCriterionMet;\n    }\n\n    /// @notice Gauge whether the gamma criterion has been met\n    /// @return true if criterion has been met, else false\n    function gammaCriterionMet()\n    public\n    view\n    returns (bool)\n    {\n        return verificationPhaseByPhaseNumber[verificationPhaseNumber].stakingWallets\n        >= gammaByPhaseNumber(verificationPhaseNumber);\n    }\n\n    /// @notice Set the next alpha criterion\n    /// @dev Only enabled when the resolution engine is not frozen\n    /// @param _nextAlpha The next alpha\n    function setNextAlpha(uint256 _nextAlpha)\n    public\n    onlyRoleAccessor(OWNER_ROLE)\n    onlyNotFrozen\n    {\n        // Set the alpha\n        nextAlpha = _nextAlpha;\n\n        // Emit event\n        emit NextAlphaSet(nextAlpha);\n    }\n\n    /// @notice Set the next beta criterion\n    /// @dev Only enabled when the resolution engine is not frozen\n    /// @param _nextBeta The next beta\n    function setNextBeta(uint256 _nextBeta)\n    public\n    onlyRoleAccessor(OWNER_ROLE)\n    onlyNotFrozen\n    {\n        // Set the beta\n        nextBeta = _nextBeta;\n\n        // Emit event\n        emit NextBetaSet(nextBeta);\n    }\n\n    /// @notice Set the next gamma criterion\n    /// @dev Only enabled when the resolution engine is not frozen\n    /// @param _nextGamma The next gamma\n    function setNextGamma(uint256 _nextGamma)\n    public\n    onlyRoleAccessor(OWNER_ROLE)\n    onlyNotFrozen\n    {\n        // Set the gamma\n        nextGamma = _nextGamma;\n\n        // Emit event\n        emit NextGammaSet(nextGamma);\n    }\n\n    /// @notice Get the alpha parameter by the given verification phase number\n    /// @param _verificationPhaseNumber The concerned verification phase number\n    /// @return The alpha value\n    function alphaByPhaseNumber(uint256 _verificationPhaseNumber)\n    public\n    view\n    returns (uint256)\n    {\n        return verificationPhaseByPhaseNumber[_verificationPhaseNumber].uintCriteria[ALPHA_INDEX];\n    }\n    \n    /// @notice Get the beta parameter by the given verification phase number\n    /// @param _verificationPhaseNumber The concerned verification phase number\n    /// @return The beta value\n    function betaByPhaseNumber(uint256 _verificationPhaseNumber)\n    public\n    view\n    returns (uint256)\n    {\n        return verificationPhaseByPhaseNumber[_verificationPhaseNumber].uintCriteria[BETA_INDEX];\n    }\n\n    /// @notice Get the gamma parameter by the given verification phase number\n    /// @param _verificationPhaseNumber The concerned verification phase number\n    /// @return The gamma value\n    function gammaByPhaseNumber(uint256 _verificationPhaseNumber)\n    public\n    view\n    returns (uint256)\n    {\n        return verificationPhaseByPhaseNumber[_verificationPhaseNumber].uintCriteria[GAMMA_INDEX];\n    }\n\n    /// @notice Augment the verification phase with verification criteria params\n    function _addVerificationCriteria()\n    internal\n    {\n        verificationPhaseByPhaseNumber[verificationPhaseNumber].uintCriteria.push(nextAlpha);\n        verificationPhaseByPhaseNumber[verificationPhaseNumber].uintCriteria.push(nextBeta);\n        verificationPhaseByPhaseNumber[verificationPhaseNumber].uintCriteria.push(nextGamma);\n    }\n}\n",
  "sourcePath": "/opt/buildagent/work/9988d0feca52d9d9/contracts/AlphaBetaGammaResolutionEngine.sol",
  "compiler": {
    "name": "solc",
    "version": "0.5.11+commit.c082d0b4.Emscripten.clang"
  },
  "schemaVersion": "3.0.16",
  "updatedAt": "2019-09-22T23:17:18.929Z",
  "devdoc": {
    "author": "Mark Briscombe <mark@hubii.com> & Jens Ivar Jrdre <jensivar@hubii.com>",
    "methods": {
      "addRole(string)": {
        "params": {
          "_role": "The concerned role"
        }
      },
      "addRoleAccessor(string,address)": {
        "params": {
          "_address": "The concerned address",
          "_role": "The concerned role"
        }
      },
      "alphaByPhaseNumber(uint256)": {
        "params": {
          "_verificationPhaseNumber": "The concerned verification phase number"
        },
        "return": "The alpha value"
      },
      "alphaCriterionMet()": {
        "return": "true if criterion has been met, else false"
      },
      "alphaResolutionDeltaAmount()": {
        "return": "the amount needed to obtain to resolve the alpha criterion"
      },
      "betaByPhaseNumber(uint256)": {
        "params": {
          "_verificationPhaseNumber": "The concerned verification phase number"
        },
        "return": "The beta value"
      },
      "betaCriterionMet()": {
        "return": "true if criterion has been met, else false"
      },
      "betaResolutionDeltaAmount(bool)": {
        "params": {
          "_status": "The concerned status"
        },
        "return": "the amount needed to obtain to resolve the beta criterion"
      },
      "calculatePayout(uint256,address)": {
        "params": {
          "_verificationPhaseNumber": "The concerned verification phase number",
          "_wallet": "The address of the concerned wallet"
        },
        "return": "the payout"
      },
      "constructor": {
        "params": {
          "_bountyFund": "The address of bounty fund",
          "_nextAlpha": "The next alpha criterion of this resolution engine",
          "_nextBeta": "The next beta criterion of this resolution engine",
          "_nextGamma": "The next gamma criterion of this resolution engine",
          "_operator": "The address of operator",
          "_oracle": "The address of oracle"
        }
      },
      "disable(string)": {
        "params": {
          "_action": "The action to disable"
        }
      },
      "disabled(string)": {
        "params": {
          "_name": "The name to gauge"
        }
      },
      "enable(string)": {
        "params": {
          "_action": "The action to enable"
        }
      },
      "enabled(string)": {
        "params": {
          "_name": "The name to gauge"
        }
      },
      "freeze()": {
        "details": "This operation can not be undone"
      },
      "gammaByPhaseNumber(uint256)": {
        "params": {
          "_verificationPhaseNumber": "The concerned verification phase number"
        },
        "return": "The gamma value"
      },
      "gammaCriterionMet()": {
        "return": "true if criterion has been met, else false"
      },
      "gammaResolutionDelta()": {
        "return": "the number of staking wallets needed to resolve the gamma criterion"
      },
      "isRole(string)": {
        "params": {
          "_role": "The concerned role"
        },
        "return": "true if role has been set, else false"
      },
      "isRoleAccessor(string,address)": {
        "params": {
          "_address": "The concerned address",
          "_role": "The concerned role"
        },
        "return": "true if address is the one of a registered accessor of role, else false"
      },
      "metricsByBlockNumber(uint256)": {
        "details": "Reverts if provided block number is higher than current block number",
        "params": {
          "_blockNumber": "The concerned block number"
        },
        "return": "the metrics"
      },
      "metricsByVerificationPhaseNumber(uint256)": {
        "params": {
          "_verificationPhaseNumber": "The concerned verification phase number"
        },
        "return": "the metrics"
      },
      "metricsByVerificationPhaseNumberAndWallet(uint256,address)": {
        "details": "Reverts if provided verification phase number is higher than current verification phase number",
        "params": {
          "_verificationPhaseNumber": "The concerned verification phase number",
          "_wallet": "The address of the concerned wallet"
        },
        "return": "the metrics"
      },
      "metricsByWallet(address)": {
        "params": {
          "_wallet": "The address of the concerned wallet"
        },
        "return": "the metrics"
      },
      "removeRoleAccessor(string,address)": {
        "params": {
          "_address": "The concerned address",
          "_role": "The concerned role"
        }
      },
      "resolutionCriteriaMet()": {
        "return": "true if resolution criteria have been met, else false"
      },
      "resolutionDeltaAmount(bool)": {
        "params": {
          "_status": "The concerned status"
        },
        "return": "the amount needed to obtain to resolve the market"
      },
      "resolveIfCriteriaMet()": {
        "details": "The function can only be called by oracle. be the current verification phase number"
      },
      "rolesCount()": {
        "return": "The count of roles"
      },
      "setBountyAllocator(address)": {
        "params": {
          "_bountyAllocator": "The bounty allocator to be set"
        }
      },
      "setNextAlpha(uint256)": {
        "details": "Only enabled when the resolution engine is not frozen",
        "params": {
          "_nextAlpha": "The next alpha"
        }
      },
      "setNextBeta(uint256)": {
        "details": "Only enabled when the resolution engine is not frozen",
        "params": {
          "_nextBeta": "The next beta"
        }
      },
      "setNextGamma(uint256)": {
        "details": "Only enabled when the resolution engine is not frozen",
        "params": {
          "_nextGamma": "The next gamma"
        }
      },
      "stage(address,uint256)": {
        "details": "The function can only be called by oracle.",
        "params": {
          "_amount": "The amount to be staged",
          "_wallet": "The address of the concerned wallet"
        }
      },
      "stageBounty(address)": {
        "params": {
          "_wallet": "The recipient address of the bounty transfer"
        }
      },
      "stagePayout(address,uint256,uint256)": {
        "details": "The function can only be called by oracle.",
        "params": {
          "_firstVerificationPhaseNumber": "The first verification phase number to stage payout from",
          "_lastVerificationPhaseNumber": "The last verification phase number to stage payout from",
          "_wallet": "The address of the concerned wallet"
        }
      },
      "stageStake(address)": {
        "details": "The function can only be called by oracle and when resolve action has been disabled",
        "params": {
          "_wallet": "The address of the concerned wallet"
        }
      },
      "stake(address,bool,uint256)": {
        "details": "The function can only be called by oracle.",
        "params": {
          "_amount": "The amount staked",
          "_status": "The status staked at",
          "_wallet": "The concerned wallet"
        }
      },
      "withdraw(address,uint256)": {
        "details": "The function can only be called by oracle.",
        "params": {
          "_amount": "The amount to be withdrawn",
          "_wallet": "The address of the concerned wallet"
        }
      }
    },
    "title": "AlphaBetaGammaResolutionEngine"
  },
  "userdoc": {
    "methods": {
      "addRole(string)": {
        "notice": "Add role"
      },
      "addRoleAccessor(string,address)": {
        "notice": "Register an address as accessor of a role"
      },
      "alphaByPhaseNumber(uint256)": {
        "notice": "Get the alpha parameter by the given verification phase number"
      },
      "alphaCriterionMet()": {
        "notice": "Gauge whether the alpha criterion has been met"
      },
      "alphaResolutionDeltaAmount()": {
        "notice": "Return the amount needed to resolve the alpha criterion"
      },
      "betaByPhaseNumber(uint256)": {
        "notice": "Get the beta parameter by the given verification phase number"
      },
      "betaCriterionMet()": {
        "notice": "Gauge whether the beta criterion has been met"
      },
      "betaResolutionDeltaAmount(bool)": {
        "notice": "Return the amount needed to resolve the beta criterion for the given status"
      },
      "calculatePayout(uint256,address)": {
        "notice": "Calculate the payout of the given wallet at the given verification phase number"
      },
      "constructor": "`msg.sender` will be added as accessor to the owner role",
      "disable(string)": {
        "notice": "Disable the given action"
      },
      "disabled(string)": {
        "notice": "Gauge whether the name is disable"
      },
      "enable(string)": {
        "notice": "Enable the given action"
      },
      "enabled(string)": {
        "notice": "Gauge whether the name is enabled"
      },
      "freeze()": {
        "notice": "Freeze this resolution engine"
      },
      "gammaByPhaseNumber(uint256)": {
        "notice": "Get the gamma parameter by the given verification phase number"
      },
      "gammaCriterionMet()": {
        "notice": "Gauge whether the gamma criterion has been met"
      },
      "gammaResolutionDelta()": {
        "notice": "Return the number of staking wallets needed to resolve the gamma criterion"
      },
      "initialize()": {
        "notice": "Initialize the engine"
      },
      "isRole(string)": {
        "notice": "Gauge whether a role is set"
      },
      "isRoleAccessor(string,address)": {
        "notice": "Gauge whether an address is an accessor of a role"
      },
      "metricsByBlockNumber(uint256)": {
        "notice": "Get the metrics for the block"
      },
      "metricsByVerificationPhaseNumber(uint256)": {
        "notice": "Get the metrics for the given verification phase number"
      },
      "metricsByVerificationPhaseNumberAndWallet(uint256,address)": {
        "notice": "Get the metrics for the given verification phase number and wallet"
      },
      "metricsByWallet(address)": {
        "notice": "Get the metrics for the wallet"
      },
      "removeRoleAccessor(string,address)": {
        "notice": "Deregister an address as accessor of a role"
      },
      "resolutionCriteriaMet()": {
        "notice": "Gauge whether the resolution criteria have been met"
      },
      "resolutionDeltaAmount(bool)": {
        "notice": "Return the amount needed to resolve the current market for the given status"
      },
      "resolveIfCriteriaMet()": {
        "notice": "Resolve the market in the current verification phase if resolution criteria have been met"
      },
      "rolesCount()": {
        "notice": "Get the count of roles"
      },
      "setBountyAllocator(address)": {
        "notice": "Set the bounty allocator"
      },
      "setNextAlpha(uint256)": {
        "notice": "Set the next alpha criterion"
      },
      "setNextBeta(uint256)": {
        "notice": "Set the next beta criterion"
      },
      "setNextGamma(uint256)": {
        "notice": "Set the next gamma criterion"
      },
      "stage(address,uint256)": {
        "notice": "Stage the given amount"
      },
      "stageBounty(address)": {
        "notice": "Export the bounty to the given address"
      },
      "stagePayout(address,uint256,uint256)": {
        "notice": "Stage the payout earned by given wallet in the inclusive range of given verification phase numbers"
      },
      "stageStake(address)": {
        "notice": "Stage the amount staked in the current verification phase"
      },
      "stake(address,bool,uint256)": {
        "notice": "Stake by updating metrics"
      },
      "withdraw(address,uint256)": {
        "notice": "Withdraw the given amount"
      }
    },
    "notice": "A resolution engine with Bounty with Ratio, Percentage and Addresses Resolve the staking market when: - The total number of tokens staked on the market is >= alpha times the number of tokens posted for the Bounty AND; - The percentage of tokens staked on either option across the market is >= beta % AND; - The total number of addresses staking tokens is >= gamma"
  }
}