{
  "contractName": "BergenResolutionEngine",
  "abi": [
    {
      "constant": true,
      "inputs": [],
      "name": "frozen",
      "outputs": [
        {
          "internalType": "bool",
          "name": "",
          "type": "bool"
        }
      ],
      "payable": false,
      "stateMutability": "view",
      "type": "function"
    },
    {
      "constant": true,
      "inputs": [
        {
          "internalType": "uint256",
          "name": "_verificationPhaseNumber",
          "type": "uint256"
        }
      ],
      "name": "metricsByVerificationPhaseNumber",
      "outputs": [
        {
          "internalType": "enum VerificationPhaseLib.State",
          "name": "state",
          "type": "uint8"
        },
        {
          "internalType": "uint256",
          "name": "trueStakeAmount",
          "type": "uint256"
        },
        {
          "internalType": "uint256",
          "name": "falseStakeAmount",
          "type": "uint256"
        },
        {
          "internalType": "uint256",
          "name": "stakeAmount",
          "type": "uint256"
        },
        {
          "internalType": "uint256",
          "name": "numberOfWallets",
          "type": "uint256"
        },
        {
          "internalType": "uint256",
          "name": "bountyAmount",
          "type": "uint256"
        },
        {
          "internalType": "bool",
          "name": "bountyAwarded",
          "type": "bool"
        },
        {
          "internalType": "uint256",
          "name": "startBlock",
          "type": "uint256"
        },
        {
          "internalType": "uint256",
          "name": "endBlock",
          "type": "uint256"
        },
        {
          "internalType": "uint256",
          "name": "numberOfBlocks",
          "type": "uint256"
        }
      ],
      "payable": false,
      "stateMutability": "view",
      "type": "function"
    },
    {
      "constant": true,
      "inputs": [
        {
          "internalType": "uint256",
          "name": "_blockNumber",
          "type": "uint256"
        }
      ],
      "name": "metricsByBlockNumber",
      "outputs": [
        {
          "internalType": "uint256",
          "name": "trueStakeAmount",
          "type": "uint256"
        },
        {
          "internalType": "uint256",
          "name": "falseStakeAmount",
          "type": "uint256"
        },
        {
          "internalType": "uint256",
          "name": "stakeAmount",
          "type": "uint256"
        }
      ],
      "payable": false,
      "stateMutability": "view",
      "type": "function"
    },
    {
      "constant": true,
      "inputs": [
        {
          "internalType": "string",
          "name": "_role",
          "type": "string"
        }
      ],
      "name": "isRole",
      "outputs": [
        {
          "internalType": "bool",
          "name": "",
          "type": "bool"
        }
      ],
      "payable": false,
      "stateMutability": "view",
      "type": "function"
    },
    {
      "constant": true,
      "inputs": [
        {
          "internalType": "address",
          "name": "_wallet",
          "type": "address"
        }
      ],
      "name": "metricsByWallet",
      "outputs": [
        {
          "internalType": "uint256",
          "name": "trueStakeAmount",
          "type": "uint256"
        },
        {
          "internalType": "uint256",
          "name": "falseStakeAmount",
          "type": "uint256"
        },
        {
          "internalType": "uint256",
          "name": "stakeAmount",
          "type": "uint256"
        }
      ],
      "payable": false,
      "stateMutability": "view",
      "type": "function"
    },
    {
      "constant": false,
      "inputs": [
        {
          "internalType": "address",
          "name": "_wallet",
          "type": "address"
        },
        {
          "internalType": "uint256",
          "name": "_firstVerificationPhaseNumber",
          "type": "uint256"
        },
        {
          "internalType": "uint256",
          "name": "_lastVerificationPhaseNumber",
          "type": "uint256"
        }
      ],
      "name": "stagePayout",
      "outputs": [],
      "payable": false,
      "stateMutability": "nonpayable",
      "type": "function"
    },
    {
      "constant": true,
      "inputs": [],
      "name": "nextGamma",
      "outputs": [
        {
          "internalType": "uint256",
          "name": "",
          "type": "uint256"
        }
      ],
      "payable": false,
      "stateMutability": "view",
      "type": "function"
    },
    {
      "constant": false,
      "inputs": [
        {
          "internalType": "string",
          "name": "_role",
          "type": "string"
        }
      ],
      "name": "addRole",
      "outputs": [],
      "payable": false,
      "stateMutability": "nonpayable",
      "type": "function"
    },
    {
      "constant": true,
      "inputs": [],
      "name": "nextBeta",
      "outputs": [
        {
          "internalType": "uint256",
          "name": "",
          "type": "uint256"
        }
      ],
      "payable": false,
      "stateMutability": "view",
      "type": "function"
    },
    {
      "constant": true,
      "inputs": [],
      "name": "verificationStatus",
      "outputs": [
        {
          "internalType": "enum VerificationPhaseLib.Status",
          "name": "",
          "type": "uint8"
        }
      ],
      "payable": false,
      "stateMutability": "view",
      "type": "function"
    },
    {
      "constant": false,
      "inputs": [
        {
          "internalType": "address",
          "name": "_wallet",
          "type": "address"
        },
        {
          "internalType": "bool",
          "name": "_status",
          "type": "bool"
        },
        {
          "internalType": "uint256",
          "name": "_amount",
          "type": "uint256"
        }
      ],
      "name": "stake",
      "outputs": [],
      "payable": false,
      "stateMutability": "nonpayable",
      "type": "function"
    },
    {
      "constant": false,
      "inputs": [
        {
          "internalType": "string",
          "name": "_role",
          "type": "string"
        },
        {
          "internalType": "address",
          "name": "_address",
          "type": "address"
        }
      ],
      "name": "addRoleAccessor",
      "outputs": [],
      "payable": false,
      "stateMutability": "nonpayable",
      "type": "function"
    },
    {
      "constant": true,
      "inputs": [
        {
          "internalType": "address",
          "name": "",
          "type": "address"
        }
      ],
      "name": "stagedAmountByWallet",
      "outputs": [
        {
          "internalType": "uint256",
          "name": "",
          "type": "uint256"
        }
      ],
      "payable": false,
      "stateMutability": "view",
      "type": "function"
    },
    {
      "constant": true,
      "inputs": [],
      "name": "operator",
      "outputs": [
        {
          "internalType": "address",
          "name": "",
          "type": "address"
        }
      ],
      "payable": false,
      "stateMutability": "view",
      "type": "function"
    },
    {
      "constant": true,
      "inputs": [],
      "name": "nextAlpha",
      "outputs": [
        {
          "internalType": "uint256",
          "name": "",
          "type": "uint256"
        }
      ],
      "payable": false,
      "stateMutability": "view",
      "type": "function"
    },
    {
      "constant": false,
      "inputs": [
        {
          "internalType": "string",
          "name": "_role",
          "type": "string"
        },
        {
          "internalType": "address",
          "name": "_address",
          "type": "address"
        }
      ],
      "name": "removeRoleAccessor",
      "outputs": [],
      "payable": false,
      "stateMutability": "nonpayable",
      "type": "function"
    },
    {
      "constant": true,
      "inputs": [
        {
          "internalType": "string",
          "name": "_name",
          "type": "string"
        }
      ],
      "name": "disabled",
      "outputs": [
        {
          "internalType": "bool",
          "name": "",
          "type": "bool"
        }
      ],
      "payable": false,
      "stateMutability": "view",
      "type": "function"
    },
    {
      "constant": false,
      "inputs": [],
      "name": "freeze",
      "outputs": [],
      "payable": false,
      "stateMutability": "nonpayable",
      "type": "function"
    },
    {
      "constant": false,
      "inputs": [
        {
          "internalType": "address",
          "name": "_wallet",
          "type": "address"
        }
      ],
      "name": "withdrawBounty",
      "outputs": [],
      "payable": false,
      "stateMutability": "nonpayable",
      "type": "function"
    },
    {
      "constant": true,
      "inputs": [
        {
          "internalType": "address",
          "name": "_wallet",
          "type": "address"
        },
        {
          "internalType": "uint256",
          "name": "_firstVerificationPhaseNumber",
          "type": "uint256"
        },
        {
          "internalType": "uint256",
          "name": "_lastVerificationPhaseNumber",
          "type": "uint256"
        }
      ],
      "name": "calculatePayout",
      "outputs": [
        {
          "internalType": "uint256",
          "name": "",
          "type": "uint256"
        }
      ],
      "payable": false,
      "stateMutability": "view",
      "type": "function"
    },
    {
      "constant": false,
      "inputs": [
        {
          "internalType": "address",
          "name": "_wallet",
          "type": "address"
        }
      ],
      "name": "stageStake",
      "outputs": [],
      "payable": false,
      "stateMutability": "nonpayable",
      "type": "function"
    },
    {
      "constant": true,
      "inputs": [
        {
          "internalType": "string",
          "name": "_name",
          "type": "string"
        }
      ],
      "name": "enabled",
      "outputs": [
        {
          "internalType": "bool",
          "name": "",
          "type": "bool"
        }
      ],
      "payable": false,
      "stateMutability": "view",
      "type": "function"
    },
    {
      "constant": true,
      "inputs": [],
      "name": "oracle",
      "outputs": [
        {
          "internalType": "address",
          "name": "",
          "type": "address"
        }
      ],
      "payable": false,
      "stateMutability": "view",
      "type": "function"
    },
    {
      "constant": false,
      "inputs": [],
      "name": "initialize",
      "outputs": [],
      "payable": false,
      "stateMutability": "nonpayable",
      "type": "function"
    },
    {
      "constant": false,
      "inputs": [
        {
          "internalType": "address",
          "name": "_bountyAllocator",
          "type": "address"
        }
      ],
      "name": "setBountyAllocator",
      "outputs": [],
      "payable": false,
      "stateMutability": "nonpayable",
      "type": "function"
    },
    {
      "constant": true,
      "inputs": [],
      "name": "RESOLVE_ACTION",
      "outputs": [
        {
          "internalType": "string",
          "name": "",
          "type": "string"
        }
      ],
      "payable": false,
      "stateMutability": "view",
      "type": "function"
    },
    {
      "constant": true,
      "inputs": [],
      "name": "STAKE_ACTION",
      "outputs": [
        {
          "internalType": "string",
          "name": "",
          "type": "string"
        }
      ],
      "payable": false,
      "stateMutability": "view",
      "type": "function"
    },
    {
      "constant": true,
      "inputs": [],
      "name": "rolesCount",
      "outputs": [
        {
          "internalType": "uint256",
          "name": "",
          "type": "uint256"
        }
      ],
      "payable": false,
      "stateMutability": "view",
      "type": "function"
    },
    {
      "constant": false,
      "inputs": [
        {
          "internalType": "string",
          "name": "_action",
          "type": "string"
        }
      ],
      "name": "enable",
      "outputs": [],
      "payable": false,
      "stateMutability": "nonpayable",
      "type": "function"
    },
    {
      "constant": true,
      "inputs": [
        {
          "internalType": "uint256",
          "name": "",
          "type": "uint256"
        }
      ],
      "name": "roles",
      "outputs": [
        {
          "internalType": "string",
          "name": "",
          "type": "string"
        }
      ],
      "payable": false,
      "stateMutability": "view",
      "type": "function"
    },
    {
      "constant": true,
      "inputs": [],
      "name": "bountyFund",
      "outputs": [
        {
          "internalType": "contract BountyFund",
          "name": "",
          "type": "address"
        }
      ],
      "payable": false,
      "stateMutability": "view",
      "type": "function"
    },
    {
      "constant": false,
      "inputs": [],
      "name": "resolveIfCriteriaMet",
      "outputs": [],
      "payable": false,
      "stateMutability": "nonpayable",
      "type": "function"
    },
    {
      "constant": true,
      "inputs": [],
      "name": "bountyAllocator",
      "outputs": [
        {
          "internalType": "address",
          "name": "",
          "type": "address"
        }
      ],
      "payable": false,
      "stateMutability": "view",
      "type": "function"
    },
    {
      "constant": true,
      "inputs": [],
      "name": "verificationPhaseNumber",
      "outputs": [
        {
          "internalType": "uint256",
          "name": "",
          "type": "uint256"
        }
      ],
      "payable": false,
      "stateMutability": "view",
      "type": "function"
    },
    {
      "constant": true,
      "inputs": [
        {
          "internalType": "address",
          "name": "",
          "type": "address"
        },
        {
          "internalType": "uint256",
          "name": "",
          "type": "uint256"
        }
      ],
      "name": "payoutStagedByWalletPhase",
      "outputs": [
        {
          "internalType": "bool",
          "name": "",
          "type": "bool"
        }
      ],
      "payable": false,
      "stateMutability": "view",
      "type": "function"
    },
    {
      "constant": false,
      "inputs": [
        {
          "internalType": "string",
          "name": "_action",
          "type": "string"
        }
      ],
      "name": "disable",
      "outputs": [],
      "payable": false,
      "stateMutability": "nonpayable",
      "type": "function"
    },
    {
      "constant": true,
      "inputs": [],
      "name": "OWNER_ROLE",
      "outputs": [
        {
          "internalType": "string",
          "name": "",
          "type": "string"
        }
      ],
      "payable": false,
      "stateMutability": "view",
      "type": "function"
    },
    {
      "constant": true,
      "inputs": [
        {
          "internalType": "address",
          "name": "",
          "type": "address"
        },
        {
          "internalType": "bool",
          "name": "",
          "type": "bool"
        }
      ],
      "name": "stakedAmountByWalletStatus",
      "outputs": [
        {
          "internalType": "uint256",
          "name": "",
          "type": "uint256"
        }
      ],
      "payable": false,
      "stateMutability": "view",
      "type": "function"
    },
    {
      "constant": false,
      "inputs": [
        {
          "internalType": "address",
          "name": "_wallet",
          "type": "address"
        },
        {
          "internalType": "uint256",
          "name": "_amount",
          "type": "uint256"
        }
      ],
      "name": "stage",
      "outputs": [],
      "payable": false,
      "stateMutability": "nonpayable",
      "type": "function"
    },
    {
      "constant": false,
      "inputs": [
        {
          "internalType": "address",
          "name": "_wallet",
          "type": "address"
        },
        {
          "internalType": "uint256",
          "name": "_amount",
          "type": "uint256"
        }
      ],
      "name": "withdraw",
      "outputs": [],
      "payable": false,
      "stateMutability": "nonpayable",
      "type": "function"
    },
    {
      "constant": true,
      "inputs": [
        {
          "internalType": "uint256",
          "name": "_verificationPhaseNumber",
          "type": "uint256"
        },
        {
          "internalType": "address",
          "name": "_wallet",
          "type": "address"
        }
      ],
      "name": "metricsByVerificationPhaseNumberAndWallet",
      "outputs": [
        {
          "internalType": "uint256",
          "name": "trueStakeAmount",
          "type": "uint256"
        },
        {
          "internalType": "uint256",
          "name": "falseStakeAmount",
          "type": "uint256"
        },
        {
          "internalType": "uint256",
          "name": "stakeAmount",
          "type": "uint256"
        }
      ],
      "payable": false,
      "stateMutability": "view",
      "type": "function"
    },
    {
      "constant": true,
      "inputs": [
        {
          "internalType": "string",
          "name": "_role",
          "type": "string"
        },
        {
          "internalType": "address",
          "name": "_address",
          "type": "address"
        }
      ],
      "name": "isRoleAccessor",
      "outputs": [
        {
          "internalType": "bool",
          "name": "",
          "type": "bool"
        }
      ],
      "payable": false,
      "stateMutability": "view",
      "type": "function"
    },
    {
      "constant": true,
      "inputs": [
        {
          "internalType": "uint256",
          "name": "",
          "type": "uint256"
        },
        {
          "internalType": "bool",
          "name": "",
          "type": "bool"
        }
      ],
      "name": "stakedAmountByBlockStatus",
      "outputs": [
        {
          "internalType": "uint256",
          "name": "",
          "type": "uint256"
        }
      ],
      "payable": false,
      "stateMutability": "view",
      "type": "function"
    },
    {
      "constant": true,
      "inputs": [],
      "name": "token",
      "outputs": [
        {
          "internalType": "contract ERC20",
          "name": "",
          "type": "address"
        }
      ],
      "payable": false,
      "stateMutability": "view",
      "type": "function"
    },
    {
      "constant": true,
      "inputs": [
        {
          "internalType": "uint256",
          "name": "",
          "type": "uint256"
        }
      ],
      "name": "verificationPhaseByPhaseNumber",
      "outputs": [
        {
          "internalType": "enum VerificationPhaseLib.State",
          "name": "state",
          "type": "uint8"
        },
        {
          "internalType": "enum VerificationPhaseLib.Status",
          "name": "result",
          "type": "uint8"
        },
        {
          "internalType": "uint256",
          "name": "stakedAmount",
          "type": "uint256"
        },
        {
          "internalType": "uint256",
          "name": "stakingWallets",
          "type": "uint256"
        },
        {
          "internalType": "uint256",
          "name": "bountyAmount",
          "type": "uint256"
        },
        {
          "internalType": "bool",
          "name": "bountyAwarded",
          "type": "bool"
        },
        {
          "internalType": "uint256",
          "name": "startBlock",
          "type": "uint256"
        },
        {
          "internalType": "uint256",
          "name": "endBlock",
          "type": "uint256"
        }
      ],
      "payable": false,
      "stateMutability": "view",
      "type": "function"
    },
    {
      "inputs": [
        {
          "internalType": "address",
          "name": "_oracle",
          "type": "address"
        },
        {
          "internalType": "address",
          "name": "_operator",
          "type": "address"
        },
        {
          "internalType": "address",
          "name": "_bountyFund",
          "type": "address"
        },
        {
          "internalType": "uint256",
          "name": "_nextAlpha",
          "type": "uint256"
        },
        {
          "internalType": "uint256",
          "name": "_nextBeta",
          "type": "uint256"
        },
        {
          "internalType": "uint256",
          "name": "_nextGamma",
          "type": "uint256"
        }
      ],
      "payable": false,
      "stateMutability": "nonpayable",
      "type": "constructor"
    },
    {
      "anonymous": false,
      "inputs": [
        {
          "indexed": false,
          "internalType": "uint256",
          "name": "alpha",
          "type": "uint256"
        }
      ],
      "name": "NextAlphaSet",
      "type": "event"
    },
    {
      "anonymous": false,
      "inputs": [
        {
          "indexed": false,
          "internalType": "uint256",
          "name": "beta",
          "type": "uint256"
        }
      ],
      "name": "NextBetaSet",
      "type": "event"
    },
    {
      "anonymous": false,
      "inputs": [
        {
          "indexed": false,
          "internalType": "uint256",
          "name": "gamma",
          "type": "uint256"
        }
      ],
      "name": "NextGammaSet",
      "type": "event"
    },
    {
      "anonymous": false,
      "inputs": [],
      "name": "Frozen",
      "type": "event"
    },
    {
      "anonymous": false,
      "inputs": [
        {
          "indexed": true,
          "internalType": "address",
          "name": "_bountyAllocator",
          "type": "address"
        }
      ],
      "name": "BountyAllocatorSet",
      "type": "event"
    },
    {
      "anonymous": false,
      "inputs": [
        {
          "indexed": true,
          "internalType": "address",
          "name": "_wallet",
          "type": "address"
        },
        {
          "indexed": true,
          "internalType": "uint256",
          "name": "_verificationPhaseNumber",
          "type": "uint256"
        },
        {
          "indexed": false,
          "internalType": "bool",
          "name": "_status",
          "type": "bool"
        },
        {
          "indexed": false,
          "internalType": "uint256",
          "name": "_amount",
          "type": "uint256"
        }
      ],
      "name": "Staked",
      "type": "event"
    },
    {
      "anonymous": false,
      "inputs": [
        {
          "indexed": true,
          "internalType": "address",
          "name": "_wallet",
          "type": "address"
        },
        {
          "indexed": false,
          "internalType": "uint256",
          "name": "_bountyAmount",
          "type": "uint256"
        }
      ],
      "name": "BountyWithdrawn",
      "type": "event"
    },
    {
      "anonymous": false,
      "inputs": [
        {
          "indexed": true,
          "internalType": "uint256",
          "name": "_verificationPhaseNumber",
          "type": "uint256"
        },
        {
          "indexed": false,
          "internalType": "uint256",
          "name": "_bountyAmount",
          "type": "uint256"
        }
      ],
      "name": "VerificationPhaseOpened",
      "type": "event"
    },
    {
      "anonymous": false,
      "inputs": [
        {
          "indexed": true,
          "internalType": "uint256",
          "name": "_verificationPhaseNumber",
          "type": "uint256"
        }
      ],
      "name": "VerificationPhaseClosed",
      "type": "event"
    },
    {
      "anonymous": false,
      "inputs": [
        {
          "indexed": true,
          "internalType": "address",
          "name": "_wallet",
          "type": "address"
        },
        {
          "indexed": true,
          "internalType": "uint256",
          "name": "_firstVerificationPhaseNumber",
          "type": "uint256"
        },
        {
          "indexed": true,
          "internalType": "uint256",
          "name": "_lastVerificationPhaseNumber",
          "type": "uint256"
        },
        {
          "indexed": false,
          "internalType": "uint256",
          "name": "_payout",
          "type": "uint256"
        }
      ],
      "name": "PayoutStaged",
      "type": "event"
    },
    {
      "anonymous": false,
      "inputs": [
        {
          "indexed": true,
          "internalType": "address",
          "name": "_wallet",
          "type": "address"
        },
        {
          "indexed": false,
          "internalType": "uint256",
          "name": "_amount",
          "type": "uint256"
        }
      ],
      "name": "StakeStaged",
      "type": "event"
    },
    {
      "anonymous": false,
      "inputs": [
        {
          "indexed": true,
          "internalType": "address",
          "name": "_wallet",
          "type": "address"
        },
        {
          "indexed": false,
          "internalType": "uint256",
          "name": "_amount",
          "type": "uint256"
        }
      ],
      "name": "Staged",
      "type": "event"
    },
    {
      "anonymous": false,
      "inputs": [
        {
          "indexed": true,
          "internalType": "address",
          "name": "_wallet",
          "type": "address"
        },
        {
          "indexed": false,
          "internalType": "uint256",
          "name": "_amount",
          "type": "uint256"
        }
      ],
      "name": "Withdrawn",
      "type": "event"
    },
    {
      "anonymous": false,
      "inputs": [
        {
          "indexed": false,
          "internalType": "string",
          "name": "_name",
          "type": "string"
        }
      ],
      "name": "Disabled",
      "type": "event"
    },
    {
      "anonymous": false,
      "inputs": [
        {
          "indexed": false,
          "internalType": "string",
          "name": "_name",
          "type": "string"
        }
      ],
      "name": "Enabled",
      "type": "event"
    },
    {
      "anonymous": false,
      "inputs": [
        {
          "indexed": false,
          "internalType": "string",
          "name": "_role",
          "type": "string"
        }
      ],
      "name": "RoleAdded",
      "type": "event"
    },
    {
      "anonymous": false,
      "inputs": [
        {
          "indexed": false,
          "internalType": "string",
          "name": "_role",
          "type": "string"
        },
        {
          "indexed": true,
          "internalType": "address",
          "name": "_address",
          "type": "address"
        }
      ],
      "name": "RoleAccessorAdded",
      "type": "event"
    },
    {
      "anonymous": false,
      "inputs": [
        {
          "indexed": false,
          "internalType": "string",
          "name": "_role",
          "type": "string"
        },
        {
          "indexed": true,
          "internalType": "address",
          "name": "_address",
          "type": "address"
        }
      ],
      "name": "RoleAccessorRemoved",
      "type": "event"
    },
    {
      "constant": true,
      "inputs": [
        {
          "internalType": "bool",
          "name": "_status",
          "type": "bool"
        }
      ],
      "name": "resolutionDeltaAmount",
      "outputs": [
        {
          "internalType": "uint256",
          "name": "",
          "type": "uint256"
        }
      ],
      "payable": false,
      "stateMutability": "view",
      "type": "function"
    },
    {
      "constant": true,
      "inputs": [],
      "name": "alphaResolutionDeltaAmount",
      "outputs": [
        {
          "internalType": "uint256",
          "name": "",
          "type": "uint256"
        }
      ],
      "payable": false,
      "stateMutability": "view",
      "type": "function"
    },
    {
      "constant": true,
      "inputs": [
        {
          "internalType": "bool",
          "name": "_status",
          "type": "bool"
        }
      ],
      "name": "betaResolutionDeltaAmount",
      "outputs": [
        {
          "internalType": "uint256",
          "name": "",
          "type": "uint256"
        }
      ],
      "payable": false,
      "stateMutability": "view",
      "type": "function"
    },
    {
      "constant": true,
      "inputs": [],
      "name": "gammaResolutionDelta",
      "outputs": [
        {
          "internalType": "uint256",
          "name": "",
          "type": "uint256"
        }
      ],
      "payable": false,
      "stateMutability": "view",
      "type": "function"
    },
    {
      "constant": true,
      "inputs": [],
      "name": "resolutionCriteriaMet",
      "outputs": [
        {
          "internalType": "bool",
          "name": "",
          "type": "bool"
        }
      ],
      "payable": false,
      "stateMutability": "view",
      "type": "function"
    },
    {
      "constant": true,
      "inputs": [],
      "name": "alphaCriterionMet",
      "outputs": [
        {
          "internalType": "bool",
          "name": "",
          "type": "bool"
        }
      ],
      "payable": false,
      "stateMutability": "view",
      "type": "function"
    },
    {
      "constant": true,
      "inputs": [],
      "name": "betaCriterionMet",
      "outputs": [
        {
          "internalType": "bool",
          "name": "",
          "type": "bool"
        }
      ],
      "payable": false,
      "stateMutability": "view",
      "type": "function"
    },
    {
      "constant": true,
      "inputs": [],
      "name": "gammaCriterionMet",
      "outputs": [
        {
          "internalType": "bool",
          "name": "",
          "type": "bool"
        }
      ],
      "payable": false,
      "stateMutability": "view",
      "type": "function"
    },
    {
      "constant": false,
      "inputs": [
        {
          "internalType": "uint256",
          "name": "_nextAlpha",
          "type": "uint256"
        }
      ],
      "name": "setNextAlpha",
      "outputs": [],
      "payable": false,
      "stateMutability": "nonpayable",
      "type": "function"
    },
    {
      "constant": false,
      "inputs": [
        {
          "internalType": "uint256",
          "name": "_nextBeta",
          "type": "uint256"
        }
      ],
      "name": "setNextBeta",
      "outputs": [],
      "payable": false,
      "stateMutability": "nonpayable",
      "type": "function"
    },
    {
      "constant": false,
      "inputs": [
        {
          "internalType": "uint256",
          "name": "_nextGamma",
          "type": "uint256"
        }
      ],
      "name": "setNextGamma",
      "outputs": [],
      "payable": false,
      "stateMutability": "nonpayable",
      "type": "function"
    },
    {
      "constant": true,
      "inputs": [
        {
          "internalType": "uint256",
          "name": "_verificationPhaseNumber",
          "type": "uint256"
        }
      ],
      "name": "alphaByPhaseNumber",
      "outputs": [
        {
          "internalType": "uint256",
          "name": "",
          "type": "uint256"
        }
      ],
      "payable": false,
      "stateMutability": "view",
      "type": "function"
    },
    {
      "constant": true,
      "inputs": [
        {
          "internalType": "uint256",
          "name": "_verificationPhaseNumber",
          "type": "uint256"
        }
      ],
      "name": "betaByPhaseNumber",
      "outputs": [
        {
          "internalType": "uint256",
          "name": "",
          "type": "uint256"
        }
      ],
      "payable": false,
      "stateMutability": "view",
      "type": "function"
    },
    {
      "constant": true,
      "inputs": [
        {
          "internalType": "uint256",
          "name": "_verificationPhaseNumber",
          "type": "uint256"
        }
      ],
      "name": "gammaByPhaseNumber",
      "outputs": [
        {
          "internalType": "uint256",
          "name": "",
          "type": "uint256"
        }
      ],
      "payable": false,
      "stateMutability": "view",
      "type": "function"
    }
  ],
  "bytecode": "0x60806040523480156200001157600080fd5b506040516200666f3803806200666f833981810160405260c08110156200003757600080fd5b81019080805190602001909291908051906020019092919080519060200190929190805190602001909291908051906020019092919080519060200190929190505050858585620000c36040518060400160405280600581526020017f4f574e45520000000000000000000000000000000000000000000000000000008152506200039260201b60201c565b6200010a6040518060400160405280600581526020017f4f574e4552000000000000000000000000000000000000000000000000000000815250336200043160201b60201c565b82600460006101000a81548173ffffffffffffffffffffffffffffffffffffffff021916908373ffffffffffffffffffffffffffffffffffffffff16021790555081600560006101000a81548173ffffffffffffffffffffffffffffffffffffffff021916908373ffffffffffffffffffffffffffffffffffffffff16021790555080600760006101000a81548173ffffffffffffffffffffffffffffffffffffffff021916908373ffffffffffffffffffffffffffffffffffffffff160217905550600760009054906101000a900473ffffffffffffffffffffffffffffffffffffffff1673ffffffffffffffffffffffffffffffffffffffff16637d54a822306040518263ffffffff1660e01b8152600401808273ffffffffffffffffffffffffffffffffffffffff1673ffffffffffffffffffffffffffffffffffffffff168152602001915050600060405180830381600087803b1580156200026f57600080fd5b505af115801562000284573d6000803e3d6000fd5b50505050600760009054906101000a900473ffffffffffffffffffffffffffffffffffffffff1673ffffffffffffffffffffffffffffffffffffffff1663fc0c546a6040518163ffffffff1660e01b815260040160206040518083038186803b158015620002f157600080fd5b505afa15801562000306573d6000803e3d6000fd5b505050506040513d60208110156200031d57600080fd5b8101908080519060200190929190505050600860006101000a81548173ffffffffffffffffffffffffffffffffffffffff021916908373ffffffffffffffffffffffffffffffffffffffff16021790555050505082601081905550816011819055508060128190555050505050505062000761565b60016000620003a7836200047160201b60201c565b815260200190815260200160002054600014156200042e576000819080600181540180825580915050906001820390600052602060002001600090919290919091509080519060200190620003fe929190620006b2565b5050600080549050600160006200041b846200047160201b60201c565b8152602001908152602001600020819055505b50565b6200046d81600260006200044b866200047160201b60201c565b8152602001908152602001600020620004ee60201b6200595b1790919060201c565b5050565b6000816040516020018082805190602001908083835b60208310620004ac578051825260208201915060208101905060208303925062000487565b6001836020036101000a038019825116818451168082178552505050505050905001915050604051602081830303815290604052805190602001209050919050565b620005008282620005d260201b60201c565b1562000574576040517f08c379a000000000000000000000000000000000000000000000000000000000815260040180806020018281038252601f8152602001807f526f6c65733a206163636f756e7420616c72656164792068617320726f6c650081525060200191505060405180910390fd5b60018260000160008373ffffffffffffffffffffffffffffffffffffffff1673ffffffffffffffffffffffffffffffffffffffff16815260200190815260200160002060006101000a81548160ff0219169083151502179055505050565b60008073ffffffffffffffffffffffffffffffffffffffff168273ffffffffffffffffffffffffffffffffffffffff1614156200065b576040517f08c379a00000000000000000000000000000000000000000000000000000000081526004018080602001828103825260228152602001806200664d6022913960400191505060405180910390fd5b8260000160008373ffffffffffffffffffffffffffffffffffffffff1673ffffffffffffffffffffffffffffffffffffffff16815260200190815260200160002060009054906101000a900460ff16905092915050565b828054600181600116156101000203166002900490600052602060002090601f016020900481019282601f10620006f557805160ff191683800117855562000726565b8280016001018555821562000726579182015b828111156200072557825182559160200191906001019062000708565b5b50905062000735919062000739565b5090565b6200075e91905b808211156200075a57600081600090555060010162000740565b5090565b90565b615edc80620007716000396000f3fe608060405234801561001057600080fd5b50600436106103995760003560e01c80638de5ff03116101e9578063d00e768b1161010f578063ef0c32f3116100ad578063fb535fd61161007c578063fb535fd614611655578063fbf098ed14611748578063fc0c546a14611796578063fc8d6317146117e057610399565b8063ef0c32f31461154b578063f3fef3a314611579578063f5308f88146115c7578063f556e70a146115e557610399565b8063e58378bb116100e9578063e58378bb146113f4578063e7690e1e14611477578063e86c1d3614611499578063ebb2666f146114fd57610399565b8063d00e768b146112b5578063d0e22f09146112d3578063e29983811461133957610399565b8063b8724c5911610187578063c7617f1611610156578063c7617f16146111c5578063cb669b96146111e7578063cbb6d87614611229578063cf7f3da41461126b57610399565b8063b8724c591461100f578063bfda4a49146110ca578063c06c66ca14611171578063c587f53c146111bb57610399565b8063a1f6c959116101c3578063a1f6c95914610ea9578063a2167c1914610f2c578063b330df7314610f6e578063b8517dd814610ff157610399565b80638de5ff0314610e155780638fcdbc0714610e43578063960873da14610e6557610399565b806353a538aa116102ce57806370551d4d1161026c5780637ca41f261161023b5780637ca41f2614610cd05780637dc0d1d014610da35780638129fc1c14610ded5780638bb5adc714610df757610399565b806370551d4d14610b98578063790d36cb14610bdc5780637b31c59614610c485780637bd190b714610c8c57610399565b80635b0f833a116102a85780635b0f833a1461099c5780635b52681114610a7757806362a5af3b14610b4a5780636dbf810814610b5457610399565b806353a538aa146108dc578063570ca735146109345780635984ad711461097e57610399565b8063303a59a91161033b5780634a0d3096116103155780634a0d3096146107595780634a0f2f7a146107855780634da195be146107df578063513554e7146108ba57610399565b8063303a59a9146106625780633e96e86814610680578063433c2baf1461073b57610399565b80630aed00a2116103775780630aed00a2146104a35780630f6c37de146104d157806312e810f2146105a4578063170ec9fb1461060a57610399565b8063054f7d9c1461039e57806306bcbd00146103c057806306d05aef14610453575b600080fd5b6103a6611873565b604051808215151515815260200191505060405180910390f35b6103ec600480360360208110156103d657600080fd5b8101908080359060200190929190505050611886565b604051808b60028111156103fc57fe5b60ff1681526020018a8152602001898152602001888152602001878152602001868152602001851515151581526020018481526020018381526020018281526020019a505050505050505050505060405180910390f35b61047f6004803603602081101561046957600080fd5b81019080803590602001909291905050506119f8565b60405180848152602001838152602001828152602001935050505060405180910390f35b6104cf600480360360208110156104b957600080fd5b8101908080359060200190929190505050611a70565b005b61058a600480360360208110156104e757600080fd5b810190808035906020019064010000000081111561050457600080fd5b82018360208201111561051657600080fd5b8035906020019184600183028401116401000000008311171561053857600080fd5b91908080601f016020809104026020016040519081016040528093929190818152602001838380828437600081840152601f19601f820116905080830192505050505050509192919290505050611bcc565b604051808215151515815260200191505060405180910390f35b6105e6600480360360208110156105ba57600080fd5b81019080803573ffffffffffffffffffffffffffffffffffffffff169060200190929190505050611bf5565b60405180848152602001838152602001828152602001935050505060405180910390f35b6106606004803603606081101561062057600080fd5b81019080803573ffffffffffffffffffffffffffffffffffffffff1690602001909291908035906020019092919080359060200190929190505050611cc5565b005b61066a611dff565b6040518082815260200191505060405180910390f35b6107396004803603602081101561069657600080fd5b81019080803590602001906401000000008111156106b357600080fd5b8201836020820111156106c557600080fd5b803590602001918460018302840111640100000000831117156106e757600080fd5b91908080601f016020809104026020016040519081016040528093929190818152602001838380828437600081840152601f19601f820116905080830192505050505050509192919290505050611e05565b005b610743611f43565b6040518082815260200191505060405180910390f35b610761611f49565b6040518082600281111561077157fe5b60ff16815260200191505060405180910390f35b6107dd6004803603606081101561079b57600080fd5b81019080803573ffffffffffffffffffffffffffffffffffffffff16906020019092919080351515906020019092919080359060200190929190505050611f5c565b005b6108b8600480360360408110156107f557600080fd5b810190808035906020019064010000000081111561081257600080fd5b82018360208201111561082457600080fd5b8035906020019184600183028401116401000000008311171561084657600080fd5b91908080601f016020809104026020016040519081016040528093929190818152602001838380828437600081840152601f19601f820116905080830192505050505050509192919290803573ffffffffffffffffffffffffffffffffffffffff169060200190929190505050612267565b005b6108c26123be565b604051808215151515815260200191505060405180910390f35b61091e600480360360208110156108f257600080fd5b81019080803573ffffffffffffffffffffffffffffffffffffffff1690602001909291905050506123ed565b6040518082815260200191505060405180910390f35b61093c612405565b604051808273ffffffffffffffffffffffffffffffffffffffff1673ffffffffffffffffffffffffffffffffffffffff16815260200191505060405180910390f35b61098661242b565b6040518082815260200191505060405180910390f35b610a75600480360360408110156109b257600080fd5b81019080803590602001906401000000008111156109cf57600080fd5b8201836020820111156109e157600080fd5b80359060200191846001830284011164010000000083111715610a0357600080fd5b91908080601f016020809104026020016040519081016040528093929190818152602001838380828437600081840152601f19601f820116905080830192505050505050509192919290803573ffffffffffffffffffffffffffffffffffffffff169060200190929190505050612431565b005b610b3060048036036020811015610a8d57600080fd5b8101908080359060200190640100000000811115610aaa57600080fd5b820183602082011115610abc57600080fd5b80359060200191846001830284011164010000000083111715610ade57600080fd5b91908080601f016020809104026020016040519081016040528093929190818152602001838380828437600081840152601f19601f8201169050808301925050505050505091929192905050506125ab565b604051808215151515815260200191505060405180910390f35b610b5261262b565b005b610b9660048036036020811015610b6a57600080fd5b81019080803573ffffffffffffffffffffffffffffffffffffffff16906020019092919050505061270a565b005b610bc660048036036020811015610bae57600080fd5b81019080803515159060200190929190505050612a62565b6040518082815260200191505060405180910390f35b610c3260048036036060811015610bf257600080fd5b81019080803573ffffffffffffffffffffffffffffffffffffffff1690602001909291908035906020019092919080359060200190929190505050612a8f565b6040518082815260200191505060405180910390f35b610c7660048036036020811015610c5e57600080fd5b81019080803515159060200190929190505050612ada565b6040518082815260200191505060405180910390f35b610cce60048036036020811015610ca257600080fd5b81019080803573ffffffffffffffffffffffffffffffffffffffff169060200190929190505050612cf2565b005b610d8960048036036020811015610ce657600080fd5b8101908080359060200190640100000000811115610d0357600080fd5b820183602082011115610d1557600080fd5b80359060200191846001830284011164010000000083111715610d3757600080fd5b91908080601f016020809104026020016040519081016040528093929190818152602001838380828437600081840152601f19601f8201169050808301925050505050505091929192905050506130e9565b604051808215151515815260200191505060405180910390f35b610dab61316a565b604051808273ffffffffffffffffffffffffffffffffffffffff1673ffffffffffffffffffffffffffffffffffffffff16815260200191505060405180910390f35b610df5613190565b005b610dff61328b565b6040518082815260200191505060405180910390f35b610e4160048036036020811015610e2b57600080fd5b810190808035906020019092919050505061331d565b005b610e4b613479565b604051808215151515815260200191505060405180910390f35b610ea760048036036020811015610e7b57600080fd5b81019080803573ffffffffffffffffffffffffffffffffffffffff1690602001909291905050506134a6565b005b610eb16135e5565b6040518080602001828103825283818151815260200191508051906020019080838360005b83811015610ef1578082015181840152602081019050610ed6565b50505050905090810190601f168015610f1e5780820380516001836020036101000a031916815260200191505b509250505060405180910390f35b610f5860048036036020811015610f4257600080fd5b810190808035906020019092919050505061361e565b6040518082815260200191505060405180910390f35b610f76613654565b6040518080602001828103825283818151815260200191508051906020019080838360005b83811015610fb6578082015181840152602081019050610f9b565b50505050905090810190601f168015610fe35780820380516001836020036101000a031916815260200191505b509250505060405180910390f35b610ff961368d565b6040518082815260200191505060405180910390f35b6110c86004803603602081101561102557600080fd5b810190808035906020019064010000000081111561104257600080fd5b82018360208201111561105457600080fd5b8035906020019184600183028401116401000000008311171561107657600080fd5b91908080601f016020809104026020016040519081016040528093929190818152602001838380828437600081840152601f19601f820116905080830192505050505050509192919290505050613699565b005b6110f6600480360360208110156110e057600080fd5b810190808035906020019092919050505061374b565b6040518080602001828103825283818151815260200191508051906020019080838360005b8381101561113657808201518184015260208101905061111b565b50505050905090810190601f1680156111635780820380516001836020036101000a031916815260200191505b509250505060405180910390f35b611179613804565b604051808273ffffffffffffffffffffffffffffffffffffffff1673ffffffffffffffffffffffffffffffffffffffff16815260200191505060405180910390f35b6111c361382a565b005b6111cd6139a2565b604051808215151515815260200191505060405180910390f35b611213600480360360208110156111fd57600080fd5b81019080803590602001909291905050506139fe565b6040518082815260200191505060405180910390f35b6112556004803603602081101561123f57600080fd5b8101908080359060200190929190505050613a34565b6040518082815260200191505060405180910390f35b611273613a6a565b604051808273ffffffffffffffffffffffffffffffffffffffff1673ffffffffffffffffffffffffffffffffffffffff16815260200191505060405180910390f35b6112bd613a90565b6040518082815260200191505060405180910390f35b61131f600480360360408110156112e957600080fd5b81019080803573ffffffffffffffffffffffffffffffffffffffff16906020019092919080359060200190929190505050613a96565b604051808215151515815260200191505060405180910390f35b6113f26004803603602081101561134f57600080fd5b810190808035906020019064010000000081111561136c57600080fd5b82018360208201111561137e57600080fd5b803590602001918460018302840111640100000000831117156113a057600080fd5b91908080601f016020809104026020016040519081016040528093929190818152602001838380828437600081840152601f19601f820116905080830192505050505050509192919290505050613ac5565b005b6113fc613b77565b6040518080602001828103825283818151815260200191508051906020019080838360005b8381101561143c578082015181840152602081019050611421565b50505050905090810190601f1680156114695780820380516001836020036101000a031916815260200191505b509250505060405180910390f35b61147f613bb0565b604051808215151515815260200191505060405180910390f35b6114e7600480360360408110156114af57600080fd5b81019080803573ffffffffffffffffffffffffffffffffffffffff169060200190929190803515159060200190929190505050613dde565b6040518082815260200191505060405180910390f35b6115496004803603604081101561151357600080fd5b81019080803573ffffffffffffffffffffffffffffffffffffffff16906020019092919080359060200190929190505050613e03565b005b6115776004803603602081101561156157600080fd5b8101908080359060200190929190505050613f05565b005b6115c56004803603604081101561158f57600080fd5b81019080803573ffffffffffffffffffffffffffffffffffffffff16906020019092919080359060200190929190505050614061565b005b6115cf61436b565b6040518082815260200191505060405180910390f35b611631600480360360408110156115fb57600080fd5b8101908080359060200190929190803573ffffffffffffffffffffffffffffffffffffffff1690602001909291905050506143a7565b60405180848152602001838152602001828152602001935050505060405180910390f35b61172e6004803603604081101561166b57600080fd5b810190808035906020019064010000000081111561168857600080fd5b82018360208201111561169a57600080fd5b803590602001918460018302840111640100000000831117156116bc57600080fd5b91908080601f016020809104026020016040519081016040528093929190818152602001838380828437600081840152601f19601f820116905080830192505050505050509192919290803573ffffffffffffffffffffffffffffffffffffffff16906020019092919050505061449f565b604051808215151515815260200191505060405180910390f35b6117806004803603604081101561175e57600080fd5b81019080803590602001909291908035151590602001909291905050506144d6565b6040518082815260200191505060405180910390f35b61179e6144fb565b604051808273ffffffffffffffffffffffffffffffffffffffff1673ffffffffffffffffffffffffffffffffffffffff16815260200191505060405180910390f35b61180c600480360360208110156117f657600080fd5b8101908080359060200190929190505050614521565b6040518089600281111561181c57fe5b60ff16815260200188600281111561183057fe5b60ff168152602001878152602001868152602001858152602001841515151581526020018381526020018281526020019850505050505050505060405180910390f35b600860149054906101000a900460ff1681565b600080600080600080600080600080600a60008c815260200190815260200160002060000160009054906101000a900460ff169950600a60008c815260200190815260200160002060020160006001151515158152602001908152602001600020549850600a60008c8152602001908152602001600020600201600080151515158152602001908152602001600020549750600a60008c8152602001908152602001600020600101549650600a60008c8152602001908152602001600020600601549550600a60008c8152602001908152602001600020600701549450600a60008c815260200190815260200160002060080160009054906101000a900460ff169350600a60008c8152602001908152602001600020600901549250600a60008c8152602001908152602001600020600a015491506119e9836000851180156119cf5750600084145b6119d957836119db565b435b61459090919063ffffffff16565b90509193959799509193959799565b6000806000600c600085815260200190815260200160002060006001151515158152602001908152602001600020549250600c6000858152602001908152602001600020600080151515158152602001908152602001600020549150611a67828461461990919063ffffffff16565b90509193909250565b6040518060400160405280600581526020017f4f574e4552000000000000000000000000000000000000000000000000000000815250611ab0813361449f565b611b05576040517f08c379a000000000000000000000000000000000000000000000000000000000815260040180806020018281038252602a815260200180615d13602a913960400191505060405180910390fd5b600860149054906101000a900460ff1615611b88576040517f08c379a000000000000000000000000000000000000000000000000000000000815260040180806020018281038252601b8152602001807f5265736f6c7574696f6e456e67696e653a2069732066726f7a656e000000000081525060200191505060405180910390fd5b816010819055507f6e6d449f93ade2f7633064e1100455be4000ded2710a405adc35da1096e2102f6010546040518082815260200191505060405180910390a15050565b600060016000611bdb846146a1565b815260200190815260200160002054600014159050919050565b6000806000600b60008573ffffffffffffffffffffffffffffffffffffffff1673ffffffffffffffffffffffffffffffffffffffff16815260200190815260200160002060006001151515158152602001908152602001600020549250600b60008573ffffffffffffffffffffffffffffffffffffffff1673ffffffffffffffffffffffffffffffffffffffff168152602001908152602001600020600080151515158152602001908152602001600020549150611cbc828461461990919063ffffffff16565b90509193909250565b600460009054906101000a900473ffffffffffffffffffffffffffffffffffffffff1673ffffffffffffffffffffffffffffffffffffffff163373ffffffffffffffffffffffffffffffffffffffff1614611d6b576040517f08c379a0000000000000000000000000000000000000000000000000000000008152600401808060200182810382526032815260200180615ce16032913960400191505060405180910390fd5b600080905060008390505b828111611da857611d99611d8a868361471c565b8361461990919063ffffffff16565b91508080600101915050611d76565b5081838573ffffffffffffffffffffffffffffffffffffffff167fc1199d92491cca50fe2a0c945991862e1ea7ed9da838db6eedd4e19580f6ec45846040518082815260200191505060405180910390a450505050565b60125481565b6040518060400160405280600581526020017f4f574e4552000000000000000000000000000000000000000000000000000000815250611e45813361449f565b611e9a576040517f08c379a000000000000000000000000000000000000000000000000000000000815260040180806020018281038252602a815260200180615d13602a913960400191505060405180910390fd5b611ea38261485f565b7f22f30a094e2ed10e9a92ebac7a70b8e2ae3288d9b594db22587861bc8fef4eef826040518080602001828103825283818151815260200191508051906020019080838360005b83811015611f05578082015181840152602081019050611eea565b50505050905090810190601f168015611f325780820380516001836020036101000a031916815260200191505b509250505060405180910390a15050565b60115481565b600d60009054906101000a900460ff1681565b600460009054906101000a900473ffffffffffffffffffffffffffffffffffffffff1673ffffffffffffffffffffffffffffffffffffffff163373ffffffffffffffffffffffffffffffffffffffff1614612002576040517f08c379a0000000000000000000000000000000000000000000000000000000008152600401808060200182810382526032815260200180615ce16032913960400191505060405180910390fd5b6040518060400160405280600581526020017f5354414b45000000000000000000000000000000000000000000000000000000815250612041816130e9565b6120b3576040517f08c379a00000000000000000000000000000000000000000000000000000000081526004018080602001828103825260168152602001807f41626c653a206e616d652069732064697361626c65640000000000000000000081525060200191505060405180910390fd5b61211a82600b60008773ffffffffffffffffffffffffffffffffffffffff1673ffffffffffffffffffffffffffffffffffffffff1681526020019081526020016000206000861515151581526020019081526020016000205461461990919063ffffffff16565b600b60008673ffffffffffffffffffffffffffffffffffffffff1673ffffffffffffffffffffffffffffffffffffffff168152602001908152602001600020600085151515158152602001908152602001600020819055506121ad82600c60004381526020019081526020016000206000861515151581526020019081526020016000205461461990919063ffffffff16565b600c600043815260200190815260200160002060008515151515815260200190815260200160002081905550612204848484600a600060095481526020019081526020016000206148eb909392919063ffffffff16565b6009548473ffffffffffffffffffffffffffffffffffffffff167fb090af6b9902ba8a7bc46486cd082be61763b3decc7be5ab48dc26422860230c858560405180831515151581526020018281526020019250505060405180910390a350505050565b6040518060400160405280600581526020017f4f574e45520000000000000000000000000000000000000000000000000000008152506122a7813361449f565b6122fc576040517f08c379a000000000000000000000000000000000000000000000000000000000815260040180806020018281038252602a815260200180615d13602a913960400191505060405180910390fd5b6123068383614b55565b8173ffffffffffffffffffffffffffffffffffffffff167fafe42c64e42361a5193c84f3f11b6803e41dd901d473ee6faa72f43f8ab1f468846040518080602001828103825283818151815260200191508051906020019080838360005b8381101561237f578082015181840152602081019050612364565b50505050905090810190601f1680156123ac5780820380516001836020036101000a031916815260200191505b509250505060405180910390a2505050565b60006123c86139a2565b80156123d857506123d7613bb0565b5b80156123e857506123e7613479565b5b905090565b600f6020528060005260406000206000915090505481565b600560009054906101000a900473ffffffffffffffffffffffffffffffffffffffff1681565b60105481565b6040518060400160405280600581526020017f4f574e4552000000000000000000000000000000000000000000000000000000815250612471813361449f565b6124c6576040517f08c379a000000000000000000000000000000000000000000000000000000000815260040180806020018281038252602a815260200180615d13602a913960400191505060405180910390fd5b6124f382600260006124d7876146a1565b8152602001908152602001600020614b8690919063ffffffff16565b8173ffffffffffffffffffffffffffffffffffffffff167f3e3ea7a1060be276a52e916803e2f89e3478e263893fc3c0b4d5793dd6d5f032846040518080602001828103825283818151815260200191508051906020019080838360005b8381101561256c578082015181840152602081019050612551565b50505050905090810190601f1680156125995780820380516001836020036101000a031916815260200191505b509250505060405180910390a2505050565b60006003826040518082805190602001908083835b602083106125e357805182526020820191506020810190506020830392506125c0565b6001836020036101000a038019825116818451168082178552505050505050905001915050908152602001604051809103902060009054906101000a900460ff169050919050565b6040518060400160405280600581526020017f4f574e455200000000000000000000000000000000000000000000000000000081525061266b813361449f565b6126c0576040517f08c379a000000000000000000000000000000000000000000000000000000000815260040180806020018281038252602a815260200180615d13602a913960400191505060405180910390fd5b6001600860146101000a81548160ff0219169083151502179055507fa8cab3d1893ed53071b052fafa843143492f25d1d6b0170d460789f7ab1954be60405160405180910390a150565b600560009054906101000a900473ffffffffffffffffffffffffffffffffffffffff1673ffffffffffffffffffffffffffffffffffffffff163373ffffffffffffffffffffffffffffffffffffffff16146127b0576040517f08c379a0000000000000000000000000000000000000000000000000000000008152600401808060200182810382526034815260200180615dfc6034913960400191505060405180910390fd5b6040518060400160405280600781526020017f5245534f4c5645000000000000000000000000000000000000000000000000008152506127ef816125ab565b612861576040517f08c379a00000000000000000000000000000000000000000000000000000000081526004018080602001828103825260158152602001807f41626c653a206e616d6520697320656e61626c6564000000000000000000000081525060200191505060405180910390fd5b600a60006009548152602001908152602001600020600701546000106128ef576040517f08c379a00000000000000000000000000000000000000000000000000000000081526004018080602001828103825260208152602001807f5265736f6c7574696f6e456e67696e653a20626f756e7479206973207a65726f81525060200191505060405180910390fd5b6000600a600060095481526020019081526020016000206007015490506000600a6000600954815260200190815260200160002060070181905550600860009054906101000a900473ffffffffffffffffffffffffffffffffffffffff1673ffffffffffffffffffffffffffffffffffffffff1663a9059cbb84836040518363ffffffff1660e01b8152600401808373ffffffffffffffffffffffffffffffffffffffff1673ffffffffffffffffffffffffffffffffffffffff16815260200182815260200192505050602060405180830381600087803b1580156129d357600080fd5b505af11580156129e7573d6000803e3d6000fd5b505050506040513d60208110156129fd57600080fd5b8101908080519060200190929190505050508273ffffffffffffffffffffffffffffffffffffffff167ffbb199240588d6cfa082d033fe56e2b66ee60cd1f6077f995df828dcb20ed104826040518082815260200191505060405180910390a2505050565b600080612a6d61328b565b90506000612a7a84612ada565b9050612a868282614c43565b92505050919050565b6000806000905060008490505b838111612ace57612abf612ab08783614c5d565b8361461990919063ffffffff16565b91508080600101915050612a9c565b50809150509392505050565b600080612b12600a6000600954815260200190815260200160002060010154612b04600954613a34565b614e5290919063ffffffff16565b90506000612bd3600a600060095481526020019081526020016000206002016000861515151581526020019081526020016000205473__ConstantsLib__________________________62a123336040518163ffffffff1660e01b815260040160206040518083038186803b158015612b8a57600080fd5b505af4158015612b9e573d6000803e3d6000fd5b505050506040513d6020811015612bb457600080fd5b8101908080519060200190929190505050614e5290919063ffffffff16565b9050808211612be757600092505050612ced565b6000612bfc828461459090919063ffffffff16565b90506000612c9a612c0e600954613a34565b73__ConstantsLib__________________________62a123336040518163ffffffff1660e01b815260040160206040518083038186803b158015612c5157600080fd5b505af4158015612c65573d6000803e3d6000fd5b505050506040513d6020811015612c7b57600080fd5b810190808051906020019092919050505061459090919063ffffffff16565b90506000612cb18284614ed890919063ffffffff16565b9050612cc68284614f6790919063ffffffff16565b600014612ce457612ce160018261461990919063ffffffff16565b90505b80955050505050505b919050565b600460009054906101000a900473ffffffffffffffffffffffffffffffffffffffff1673ffffffffffffffffffffffffffffffffffffffff163373ffffffffffffffffffffffffffffffffffffffff1614612d98576040517f08c379a0000000000000000000000000000000000000000000000000000000008152600401808060200182810382526032815260200180615ce16032913960400191505060405180910390fd5b6040518060400160405280600781526020017f5245534f4c564500000000000000000000000000000000000000000000000000815250612dd7816125ab565b612e49576040517f08c379a00000000000000000000000000000000000000000000000000000000081526004018080602001828103825260158152602001807f41626c653a206e616d6520697320656e61626c6564000000000000000000000081525060200191505060405180910390fd5b6000612f33600a6000600954815260200190815260200160002060030160008573ffffffffffffffffffffffffffffffffffffffff1673ffffffffffffffffffffffffffffffffffffffff16815260200190815260200160002060008015151515815260200190815260200160002054600a6000600954815260200190815260200160002060030160008673ffffffffffffffffffffffffffffffffffffffff1673ffffffffffffffffffffffffffffffffffffffff168152602001908152602001600020600060011515151581526020019081526020016000205461461990919063ffffffff16565b905080600010612fab576040517f08c379a000000000000000000000000000000000000000000000000000000000815260040180806020018281038252601f8152602001807f5265736f6c7574696f6e456e67696e653a207374616b65206973207a65726f0081525060200191505060405180910390fd5b6000600a6000600954815260200190815260200160002060030160008573ffffffffffffffffffffffffffffffffffffffff1673ffffffffffffffffffffffffffffffffffffffff16815260200190815260200160002060006001151515158152602001908152602001600020819055506000600a6000600954815260200190815260200160002060030160008573ffffffffffffffffffffffffffffffffffffffff1673ffffffffffffffffffffffffffffffffffffffff168152602001908152602001600020600080151515158152602001908152602001600020819055506130968382614ff1565b8273ffffffffffffffffffffffffffffffffffffffff167f46c86b7ebca513b3ec213b4738e43070434543c30ac031708ba3851ac8cb4121826040518082815260200191505060405180910390a2505050565b60006003826040518082805190602001908083835b6020831061312157805182526020820191506020810190506020830392506130fe565b6001836020036101000a038019825116818451168082178552505050505050905001915050908152602001604051809103902060009054906101000a900460ff16159050919050565b600460009054906101000a900473ffffffffffffffffffffffffffffffffffffffff1681565b6040518060400160405280600581526020017f4f574e45520000000000000000000000000000000000000000000000000000008152506131d0813361449f565b613225576040517f08c379a000000000000000000000000000000000000000000000000000000000815260040180806020018281038252602a815260200180615d13602a913960400191505060405180910390fd5b600954600014613280576040517f08c379a0000000000000000000000000000000000000000000000000000000008152600401808060200182810382526025815260200180615dd76025913960400191505060405180910390fd5b61328861508a565b50565b6000806132c3600a60006009548152602001908152602001600020600701546132b560095461361e565b614e5290919063ffffffff16565b9050600a600060095481526020019081526020016000206001015481116132eb576000613317565b613316600a60006009548152602001908152602001600020600101548261459090919063ffffffff16565b5b91505090565b6040518060400160405280600581526020017f4f574e455200000000000000000000000000000000000000000000000000000081525061335d813361449f565b6133b2576040517f08c379a000000000000000000000000000000000000000000000000000000000815260040180806020018281038252602a815260200180615d13602a913960400191505060405180910390fd5b600860149054906101000a900460ff1615613435576040517f08c379a000000000000000000000000000000000000000000000000000000000815260040180806020018281038252601b8152602001807f5265736f6c7574696f6e456e67696e653a2069732066726f7a656e000000000081525060200191505060405180910390fd5b816011819055507f8bd21fd609c096d2ad2126f9024468f83179ed58a219068b8a6fa0381751de386011546040518082815260200191505060405180910390a15050565b60006134866009546139fe565b600a60006009548152602001908152602001600020600601541015905090565b6040518060400160405280600581526020017f4f574e45520000000000000000000000000000000000000000000000000000008152506134e6813361449f565b61353b576040517f08c379a000000000000000000000000000000000000000000000000000000000815260040180806020018281038252602a815260200180615d13602a913960400191505060405180910390fd5b81600660006101000a81548173ffffffffffffffffffffffffffffffffffffffff021916908373ffffffffffffffffffffffffffffffffffffffff160217905550600660009054906101000a900473ffffffffffffffffffffffffffffffffffffffff1673ffffffffffffffffffffffffffffffffffffffff167f788e1a4c2faf407e4a26256b2cc5e39ac3883f819087249fc5c54102d5a1afda60405160405180910390a25050565b6040518060400160405280600781526020017f5245534f4c56450000000000000000000000000000000000000000000000000081525081565b6000600a6000838152602001908152602001600020600b0160008154811061364257fe5b90600052602060002001549050919050565b6040518060400160405280600581526020017f5354414b4500000000000000000000000000000000000000000000000000000081525081565b60008080549050905090565b600560009054906101000a900473ffffffffffffffffffffffffffffffffffffffff1673ffffffffffffffffffffffffffffffffffffffff163373ffffffffffffffffffffffffffffffffffffffff161461373f576040517f08c379a0000000000000000000000000000000000000000000000000000000008152600401808060200182810382526034815260200180615dfc6034913960400191505060405180910390fd5b613748816152bb565b50565b6000818154811061375857fe5b906000526020600020016000915090508054600181600116156101000203166002900480601f0160208091040260200160405190810160405280929190818152602001828054600181600116156101000203166002900480156137fc5780601f106137d1576101008083540402835291602001916137fc565b820191906000526020600020905b8154815290600101906020018083116137df57829003601f168201915b505050505081565b600760009054906101000a900473ffffffffffffffffffffffffffffffffffffffff1681565b600460009054906101000a900473ffffffffffffffffffffffffffffffffffffffff1673ffffffffffffffffffffffffffffffffffffffff163373ffffffffffffffffffffffffffffffffffffffff16146138d0576040517f08c379a0000000000000000000000000000000000000000000000000000000008152600401808060200182810382526032815260200180615ce16032913960400191505060405180910390fd5b6040518060400160405280600781526020017f5245534f4c56450000000000000000000000000000000000000000000000000081525061390f816130e9565b613981576040517f08c379a00000000000000000000000000000000000000000000000000000000081526004018080602001828103825260168152602001807f41626c653a206e616d652069732064697361626c65640000000000000000000081525060200191505060405180910390fd5b6139896123be565b1561399f576139966154c5565b61399e61508a565b5b50565b6000806139da600a60006009548152602001908152602001600020600701546139cc60095461361e565b614e5290919063ffffffff16565b905080600a6000600954815260200190815260200160002060010154101591505090565b6000600a6000838152602001908152602001600020600b01600281548110613a2257fe5b90600052602060002001549050919050565b6000600a6000838152602001908152602001600020600b01600181548110613a5857fe5b90600052602060002001549050919050565b600660009054906101000a900473ffffffffffffffffffffffffffffffffffffffff1681565b60095481565b600e6020528160005260406000206020528060005260406000206000915091509054906101000a900460ff1681565b600560009054906101000a900473ffffffffffffffffffffffffffffffffffffffff1673ffffffffffffffffffffffffffffffffffffffff163373ffffffffffffffffffffffffffffffffffffffff1614613b6b576040517f08c379a0000000000000000000000000000000000000000000000000000000008152600401808060200182810382526034815260200180615dfc6034913960400191505060405180910390fd5b613b7481615672565b50565b6040518060400160405280600581526020017f4f574e455200000000000000000000000000000000000000000000000000000081525081565b6000600a600060095481526020019081526020016000206001015460001415613bdc5760009050613ddb565b6000613be9600954613a34565b613cd1600a6000600954815260200190815260200160002060010154613cc373__ConstantsLib__________________________62a123336040518163ffffffff1660e01b815260040160206040518083038186803b158015613c4b57600080fd5b505af4158015613c5f573d6000803e3d6000fd5b505050506040513d6020811015613c7557600080fd5b8101908080519060200190929190505050600a600060095481526020019081526020016000206002016000600115151515815260200190815260200160002054614e5290919063ffffffff16565b614ed890919063ffffffff16565b101590506000613ce2600954613a34565b613dc9600a6000600954815260200190815260200160002060010154613dbb73__ConstantsLib__________________________62a123336040518163ffffffff1660e01b815260040160206040518083038186803b158015613d4457600080fd5b505af4158015613d58573d6000803e3d6000fd5b505050506040513d6020811015613d6e57600080fd5b8101908080519060200190929190505050600a6000600954815260200190815260200160002060020160008015151515815260200190815260200160002054614e5290919063ffffffff16565b614ed890919063ffffffff16565b101590508180613dd65750805b925050505b90565b600b602052816000526040600020602052806000526040600020600091509150505481565b600460009054906101000a900473ffffffffffffffffffffffffffffffffffffffff1673ffffffffffffffffffffffffffffffffffffffff163373ffffffffffffffffffffffffffffffffffffffff1614613ea9576040517f08c379a0000000000000000000000000000000000000000000000000000000008152600401808060200182810382526032815260200180615ce16032913960400191505060405180910390fd5b613eb38282614ff1565b8173ffffffffffffffffffffffffffffffffffffffff167f02688c924ef99d72adc11835fa071707c184455730eb94dc633e9870e1c3bcee826040518082815260200191505060405180910390a25050565b6040518060400160405280600581526020017f4f574e4552000000000000000000000000000000000000000000000000000000815250613f45813361449f565b613f9a576040517f08c379a000000000000000000000000000000000000000000000000000000000815260040180806020018281038252602a815260200180615d13602a913960400191505060405180910390fd5b600860149054906101000a900460ff161561401d576040517f08c379a000000000000000000000000000000000000000000000000000000000815260040180806020018281038252601b8152602001807f5265736f6c7574696f6e456e67696e653a2069732066726f7a656e000000000081525060200191505060405180910390fd5b816012819055507fb2d6527bead72edb169a1656493763a576d2af497a13fe793243e1b5db7300856012546040518082815260200191505060405180910390a15050565b600460009054906101000a900473ffffffffffffffffffffffffffffffffffffffff1673ffffffffffffffffffffffffffffffffffffffff163373ffffffffffffffffffffffffffffffffffffffff1614614107576040517f08c379a0000000000000000000000000000000000000000000000000000000008152600401808060200182810382526032815260200180615ce16032913960400191505060405180910390fd5b600f60008373ffffffffffffffffffffffffffffffffffffffff1673ffffffffffffffffffffffffffffffffffffffff1681526020019081526020016000205481111561419f576040517f08c379a0000000000000000000000000000000000000000000000000000000008152600401808060200182810382526036815260200180615da16036913960400191505060405180910390fd5b6141f181600f60008573ffffffffffffffffffffffffffffffffffffffff1673ffffffffffffffffffffffffffffffffffffffff1681526020019081526020016000205461459090919063ffffffff16565b600f60008473ffffffffffffffffffffffffffffffffffffffff1673ffffffffffffffffffffffffffffffffffffffff16815260200190815260200160002081905550600860009054906101000a900473ffffffffffffffffffffffffffffffffffffffff1673ffffffffffffffffffffffffffffffffffffffff1663a9059cbb83836040518363ffffffff1660e01b8152600401808373ffffffffffffffffffffffffffffffffffffffff1673ffffffffffffffffffffffffffffffffffffffff16815260200182815260200192505050602060405180830381600087803b1580156142dd57600080fd5b505af11580156142f1573d6000803e3d6000fd5b505050506040513d602081101561430757600080fd5b8101908080519060200190929190505050508173ffffffffffffffffffffffffffffffffffffffff167f7084f5476618d8e60b11ef0d7d3f06914655adb8793e28ff7f018d4c76d505d5826040518082815260200191505060405180910390a25050565b60006143a2600a60006009548152602001908152602001600020600601546143946009546139fe565b61459090919063ffffffff16565b905090565b6000806000600a600086815260200190815260200160002060030160008573ffffffffffffffffffffffffffffffffffffffff1673ffffffffffffffffffffffffffffffffffffffff16815260200190815260200160002060006001151515158152602001908152602001600020549250600a600086815260200190815260200160002060030160008573ffffffffffffffffffffffffffffffffffffffff1673ffffffffffffffffffffffffffffffffffffffff168152602001908152602001600020600080151515158152602001908152602001600020549150614496828461461990919063ffffffff16565b90509250925092565b60006144ce82600260006144b2876146a1565b815260200190815260200160002061587d90919063ffffffff16565b905092915050565b600c602052816000526040600020602052806000526040600020600091509150505481565b600860009054906101000a900473ffffffffffffffffffffffffffffffffffffffff1681565b600a6020528060005260406000206000915090508060000160009054906101000a900460ff16908060000160019054906101000a900460ff16908060010154908060060154908060070154908060080160009054906101000a900460ff169080600901549080600a0154905088565b600082821115614608576040517f08c379a000000000000000000000000000000000000000000000000000000000815260040180806020018281038252601e8152602001807f536166654d6174683a207375627472616374696f6e206f766572666c6f77000081525060200191505060405180910390fd5b600082840390508091505092915050565b600080828401905083811015614697576040517f08c379a000000000000000000000000000000000000000000000000000000000815260040180806020018281038252601b8152602001807f536166654d6174683a206164646974696f6e206f766572666c6f77000000000081525060200191505060405180910390fd5b8091505092915050565b6000816040516020018082805190602001908083835b602083106146da57805182526020820191506020810190506020830392506146b7565b6001836020036101000a038019825116818451168082178552505050505050905001915050604051602081830303815290604052805190602001209050919050565b6000600a600083815260200190815260200160002060000160009054906101000a900460ff16600281111561474d57fe5b60028081111561475957fe5b146147675760009050614859565b600e60008473ffffffffffffffffffffffffffffffffffffffff1673ffffffffffffffffffffffffffffffffffffffff168152602001908152602001600020600083815260200190815260200160002060009054906101000a900460ff16156147d35760009050614859565b6001600e60008573ffffffffffffffffffffffffffffffffffffffff1673ffffffffffffffffffffffffffffffffffffffff168152602001908152602001600020600084815260200190815260200160002060006101000a81548160ff02191690831515021790555060006148488484614c5d565b90506148548482614ff1565b809150505b92915050565b6001600061486c836146a1565b815260200190815260200160002054600014156148e85760008190806001815401808255809150509060018203906000526020600020016000909192909190915090805190602001906148c0929190615c3b565b5050600080549050600160006148d5846146a1565b8152602001908152602001600020819055505b50565b61490281856001015461461990919063ffffffff16565b846001018190555061493681856002016000851515151581526020019081526020016000205461461990919063ffffffff16565b84600201600084151515158152602001908152602001600020819055506149bc818560030160008673ffffffffffffffffffffffffffffffffffffffff1673ffffffffffffffffffffffffffffffffffffffff1681526020019081526020016000206000851515151581526020019081526020016000205461461990919063ffffffff16565b8460030160008573ffffffffffffffffffffffffffffffffffffffff1673ffffffffffffffffffffffffffffffffffffffff16815260200190815260200160002060008415151515815260200190815260200160002081905550614a53818560040160004381526020019081526020016000206000851515151581526020019081526020016000205461461990919063ffffffff16565b846004016000438152602001908152602001600020600084151515158152602001908152602001600020819055508360050160008473ffffffffffffffffffffffffffffffffffffffff1673ffffffffffffffffffffffffffffffffffffffff16815260200190815260200160002060009054906101000a900460ff16614b4f5760018460050160008573ffffffffffffffffffffffffffffffffffffffff1673ffffffffffffffffffffffffffffffffffffffff16815260200190815260200160002060006101000a81548160ff021916908315150217905550614b466001856006015461461990919063ffffffff16565b84600601819055505b50505050565b614b828160026000614b66866146a1565b815260200190815260200160002061595b90919063ffffffff16565b5050565b614b90828261587d565b614be5576040517f08c379a0000000000000000000000000000000000000000000000000000000008152600401808060200182810382526021815260200180615d3d6021913960400191505060405180910390fd5b60008260000160008373ffffffffffffffffffffffffffffffffffffffff1673ffffffffffffffffffffffffffffffffffffffff16815260200190815260200160002060006101000a81548160ff0219169083151502179055505050565b600081831015614c535781614c55565b825b905092915050565b6000600a600083815260200190815260200160002060000160019054906101000a900460ff166002811115614c8e57fe5b60006002811115614c9b57fe5b1415614caa5760009050614e4c565b600060016002811115614cb957fe5b600a600085815260200190815260200160002060000160019054906101000a900460ff166002811115614ce857fe5b1490506000600a600085815260200190815260200160002060020160008315151515158152602001908152602001600020549050600a600085815260200190815260200160002060080160009054906101000a900460ff1615614d7157614d6e600a6000868152602001908152602001600020600701548261461990919063ffffffff16565b90505b6000600a600086815260200190815260200160002060030160008773ffffffffffffffffffffffffffffffffffffffff1673ffffffffffffffffffffffffffffffffffffffff1681526020019081526020016000206000841515151581526020019081526020016000205490506000600a6000878152602001908152602001600020600201600085151515158152602001908152602001600020549050614e4582614e3783614e298688614e5290919063ffffffff16565b614ed890919063ffffffff16565b61461990919063ffffffff16565b9450505050505b92915050565b600080831415614e655760009050614ed2565b6000828402905082848281614e7657fe5b0414614ecd576040517f08c379a0000000000000000000000000000000000000000000000000000000008152600401808060200182810382526021815260200180615d5e6021913960400191505060405180910390fd5b809150505b92915050565b6000808211614f4f576040517f08c379a000000000000000000000000000000000000000000000000000000000815260040180806020018281038252601a8152602001807f536166654d6174683a206469766973696f6e206279207a65726f00000000000081525060200191505060405180910390fd5b6000828481614f5a57fe5b0490508091505092915050565b600080821415614fdf576040517f08c379a00000000000000000000000000000000000000000000000000000000081526004018080602001828103825260188152602001807f536166654d6174683a206d6f64756c6f206279207a65726f000000000000000081525060200191505060405180910390fd5b818381614fe857fe5b06905092915050565b61504381600f60008573ffffffffffffffffffffffffffffffffffffffff1673ffffffffffffffffffffffffffffffffffffffff1681526020019081526020016000205461461990919063ffffffff16565b600f60008473ffffffffffffffffffffffffffffffffffffffff1673ffffffffffffffffffffffffffffffffffffffff168152602001908152602001600020819055505050565b6000600281111561509757fe5b600a60006150b1600160095461461990919063ffffffff16565b815260200190815260200160002060000160009054906101000a900460ff1660028111156150db57fe5b14615131576040517f08c379a000000000000000000000000000000000000000000000000000000000815260040180806020018281038252603d815260200180615e30603d913960400191505060405180910390fd5b615147600160095461461990919063ffffffff16565b6009819055506000600760009054906101000a900473ffffffffffffffffffffffffffffffffffffffff1673ffffffffffffffffffffffffffffffffffffffff1663cabfd1bf600660009054906101000a900473ffffffffffffffffffffffffffffffffffffffff166040518263ffffffff1660e01b8152600401808273ffffffffffffffffffffffffffffffffffffffff1673ffffffffffffffffffffffffffffffffffffffff168152602001915050602060405180830381600087803b15801561521257600080fd5b505af1158015615226573d6000803e3d6000fd5b505050506040513d602081101561523c57600080fd5b8101908080519060200190929190505050905061527681600a60006009548152602001908152602001600020615a3690919063ffffffff16565b61527e615a72565b6009547f24786cbd23ca6a7ab9bcfaa39cfb8879416ae5f0a1b46011fb60ec1c99ed3b80826040518082815260200191505060405180910390a250565b6003816040518082805190602001908083835b602083106152f157805182526020820191506020810190506020830392506152ce565b6001836020036101000a038019825116818451168082178552505050505050905001915050908152602001604051809103902060009054906101000a900460ff166153a4576040517f08c379a00000000000000000000000000000000000000000000000000000000081526004018080602001828103825260158152602001807f41626c653a206e616d6520697320656e61626c6564000000000000000000000081525060200191505060405180910390fd5b60006003826040518082805190602001908083835b602083106153dc57805182526020820191506020810190506020830392506153b9565b6001836020036101000a038019825116818451168082178552505050505050905001915050908152602001604051809103902060006101000a81548160ff0219169083151502179055507fb5e827ca0218ec32f5872a8cdba7c9a069373f7ef4a2fb0c72ae0f25cf78f1c2816040518080602001828103825283818151815260200191508051906020019080838360005b8381101561548857808201518184015260208101905061546d565b50505050905090810190601f1680156154b55780820380516001836020036101000a031916815260200191505b509250505060405180910390a150565b600160028111156154d257fe5b600a6000600954815260200190815260200160002060000160009054906101000a900460ff16600281111561550357fe5b14615559576040517f08c379a000000000000000000000000000000000000000000000000000000000815260040180806020018281038252603b815260200180615e6d603b913960400191505060405180910390fd5b615576600a60006009548152602001908152602001600020615b40565b600d60009054906101000a900460ff16600281111561559157fe5b600a6000600954815260200190815260200160002060000160019054906101000a900460ff1660028111156155c257fe5b1461564157600a6000600954815260200190815260200160002060000160019054906101000a900460ff16600d60006101000a81548160ff0219169083600281111561560a57fe5b02179055506001600a6000600954815260200190815260200160002060080160006101000a81548160ff0219169083151502179055505b6009547f9feea6fd2bc175ea5210b97c9f21684984af26aa9a2aa1049dad999cf094289d60405160405180910390a2565b6003816040518082805190602001908083835b602083106156a85780518252602082019150602081019050602083039250615685565b6001836020036101000a038019825116818451168082178552505050505050905001915050908152602001604051809103902060009054906101000a900460ff161561575c576040517f08c379a00000000000000000000000000000000000000000000000000000000081526004018080602001828103825260168152602001807f41626c653a206e616d652069732064697361626c65640000000000000000000081525060200191505060405180910390fd5b60016003826040518082805190602001908083835b602083106157945780518252602082019150602081019050602083039250615771565b6001836020036101000a038019825116818451168082178552505050505050905001915050908152602001604051809103902060006101000a81548160ff0219169083151502179055507f1429691d4b3ebbe1b946e4625c94bd72f57e8d9f73242f97d7c968072cb891b9816040518080602001828103825283818151815260200191508051906020019080838360005b83811015615840578082015181840152602081019050615825565b50505050905090810190601f16801561586d5780820380516001836020036101000a031916815260200191505b509250505060405180910390a150565b60008073ffffffffffffffffffffffffffffffffffffffff168273ffffffffffffffffffffffffffffffffffffffff161415615904576040517f08c379a0000000000000000000000000000000000000000000000000000000008152600401808060200182810382526022815260200180615d7f6022913960400191505060405180910390fd5b8260000160008373ffffffffffffffffffffffffffffffffffffffff1673ffffffffffffffffffffffffffffffffffffffff16815260200190815260200160002060009054906101000a900460ff16905092915050565b615965828261587d565b156159d8576040517f08c379a000000000000000000000000000000000000000000000000000000000815260040180806020018281038252601f8152602001807f526f6c65733a206163636f756e7420616c72656164792068617320726f6c650081525060200191505060405180910390fd5b60018260000160008373ffffffffffffffffffffffffffffffffffffffff1673ffffffffffffffffffffffffffffffffffffffff16815260200190815260200160002060006101000a81548160ff0219169083151502179055505050565b60018260000160006101000a81548160ff02191690836002811115615a5757fe5b02179055508082600701819055504382600901819055505050565b600a60006009548152602001908152602001600020600b016010549080600181540180825580915050906001820390600052602060002001600090919290919091505550600a60006009548152602001908152602001600020600b016011549080600181540180825580915050906001820390600052602060002001600090919290919091505550600a60006009548152602001908152602001600020600b016012549080600181540180825580915050906001820390600052602060002001600090919290919091505550565b60028160000160006101000a81548160ff02191690836002811115615b6157fe5b02179055504381600a018190555080600201600080151515158152602001908152602001600020548160020160006001151515158152602001908152602001600020541115615bd55760018160000160016101000a81548160ff02191690836002811115615bcb57fe5b0217905550615c38565b80600201600080151515158152602001908152602001600020548160020160006001151515158152602001908152602001600020541015615c375760028160000160016101000a81548160ff02191690836002811115615c3157fe5b02179055505b5b50565b828054600181600116156101000203166002900490600052602060002090601f016020900481019282601f10615c7c57805160ff1916838001178555615caa565b82800160010185558215615caa579182015b82811115615ca9578251825591602001919060010190615c8e565b5b509050615cb79190615cbb565b5090565b615cdd91905b80821115615cd9576000816000905550600101615cc1565b5090565b9056fe5265736f6c7574696f6e456e67696e653a2073656e646572206973206e6f742074686520646566696e6564206f7261636c655242414365643a2073656e646572206973206e6f74206163636573736f72206f662074686520726f6c65526f6c65733a206163636f756e7420646f6573206e6f74206861766520726f6c65536166654d6174683a206d756c7469706c69636174696f6e206f766572666c6f77526f6c65733a206163636f756e7420697320746865207a65726f20616464726573735265736f6c7574696f6e456e67696e653a20616d6f756e742069732067726561746572207468616e2073746167656420616d6f756e745265736f6c7574696f6e456e67696e653a20616c726561647920696e697469616c697a65645265736f6c7574696f6e456e67696e653a2073656e646572206973206e6f742074686520646566696e6564206f70657261746f725265736f6c7574696f6e456e67696e653a20766572696669636174696f6e207068617365206973206e6f7420696e20756e6f70656e65642073746174655265736f6c7574696f6e456e67696e653a20766572696669636174696f6e207068617365206973206e6f7420696e206f70656e6564207374617465a265627a7a72315820949c72180d3e938bb74e213058b259a1b8c68052f9c9386234162dcc4af45a0d64736f6c634300050b0032526f6c65733a206163636f756e7420697320746865207a65726f2061646472657373",
  "source": "/*\n * Lottery oracle\n *\n * Copyright (C) 2017-2019 Hubii AS\n */\n\npragma solidity ^0.5.11;\n\nimport {Resolvable} from \"./Resolvable.sol\";\nimport {ResolutionEngine} from \"./ResolutionEngine.sol\";\nimport {ConstantsLib} from \"./ConstantsLib.sol\";\nimport {Math} from \"openzeppelin-solidity/contracts/math/Math.sol\";\n\n/// @title BergenResolutionEngine\n/// @author Mark Briscombe <mark@hubii.com> & Jens Ivar Jrdre <jensivar@hubii.com>\n/// @notice A resolution engine with criteria of Total Stake Amount relative to Bounty,\n///   Directional Stake Fraction and Total Staking Wallets Count\n/// Resolve the staking market when:\n/// - The total number of tokens staked on the market is >= alpha times the number of tokens posted for the Bounty AND;\n/// - The percentage of tokens staked on either option across the market is >= beta % AND;\n/// - The total number of addresses staking tokens is >= gamma\ncontract BergenResolutionEngine is Resolvable, ResolutionEngine {\n\n    event NextAlphaSet(uint256 alpha);\n    event NextBetaSet(uint256 beta);\n    event NextGammaSet(uint256 gamma);\n\n    uint256 constant private ALPHA_INDEX = 0;\n    uint256 constant private BETA_INDEX = 1;\n    uint256 constant private GAMMA_INDEX = 2;\n\n    uint256 public nextAlpha;\n    uint256 public nextBeta;\n    uint256 public nextGamma;\n\n    /// @notice `msg.sender` will be added as accessor to the owner role\n    /// @param _oracle The address of oracle\n    /// @param _operator The address of operator\n    /// @param _bountyFund The address of bounty fund\n    /// @param _nextAlpha The next alpha criterion of this resolution engine\n    /// @param _nextBeta The next beta criterion of this resolution engine\n    /// @param _nextGamma The next gamma criterion of this resolution engine\n    constructor(address _oracle, address _operator, address _bountyFund,\n        uint256 _nextAlpha, uint256 _nextBeta, uint256 _nextGamma)\n    public\n    ResolutionEngine(_oracle, _operator, _bountyFund)\n    {\n        nextAlpha = _nextAlpha;\n        nextBeta = _nextBeta;\n        nextGamma = _nextGamma;\n    }\n\n    /// @notice Return the amount needed to resolve the current market for the given status\n    /// @param _status The concerned status\n    /// @return the amount needed to obtain to resolve the market\n    function resolutionDeltaAmount(bool _status)\n    public\n    view\n    returns (uint256)\n    {\n        uint256 alphaAmount = alphaResolutionDeltaAmount();\n        uint256 betaAmount = betaResolutionDeltaAmount(_status);\n        return Math.max(alphaAmount, betaAmount);\n    }\n\n    /// @notice Return the amount needed to resolve the alpha criterion\n    /// @return the amount needed to obtain to resolve the alpha criterion\n    function alphaResolutionDeltaAmount()\n    public\n    view\n    returns (uint256)\n    {\n        // Obtain alpha * bounty amount\n        uint256 scaledBountyAmount = alphaByPhaseNumber(verificationPhaseNumber)\n        .mul(verificationPhaseByPhaseNumber[verificationPhaseNumber].bountyAmount);\n\n        return scaledBountyAmount > verificationPhaseByPhaseNumber[verificationPhaseNumber].stakedAmount ?\n        scaledBountyAmount.sub(verificationPhaseByPhaseNumber[verificationPhaseNumber].stakedAmount) :\n        0;\n    }\n\n    /// @notice Return the amount needed to resolve the beta criterion for the given status\n    /// @param _status The concerned status\n    /// @return the amount needed to obtain to resolve the beta criterion\n    ///\n    /// With E, A and a respectively representing the entirety (100%) value, the total amount staked and\n    /// the amount staked on the given status the initial delta amount is calculated as\n    ///\n    ///    delta = (beta * A - E * a) / (E - beta)\n    ///\n    /// If there is a non-zero remainder in the calculation the delta is incremented by an additional unit\n    function betaResolutionDeltaAmount(bool _status)\n    public\n    view\n    returns (uint256)\n    {\n        // Obtain beta * total amount staked\n        uint256 scaledStakedAmount = betaByPhaseNumber(verificationPhaseNumber)\n        .mul(verificationPhaseByPhaseNumber[verificationPhaseNumber].stakedAmount);\n\n        // Obtain entirety * directional amount staked\n        uint256 scaledStatusStakedAmount = ConstantsLib.PARTS_PER()\n        .mul(verificationPhaseByPhaseNumber[verificationPhaseNumber].stakedAmountByStatus[_status]);\n\n        // If scaled amounts are exactly equal return 0\n        if (scaledStakedAmount <= scaledStatusStakedAmount)\n            return 0;\n\n        // Else calculate the delta and add 1 for round off error\n        else {\n            uint256 scaledAmountsDiff = scaledStakedAmount.sub(scaledStatusStakedAmount);\n            uint256 dividend = ConstantsLib.PARTS_PER().sub(betaByPhaseNumber(verificationPhaseNumber));\n\n            // Calculate the minimum delta\n            uint256 delta = scaledAmountsDiff.div(dividend);\n\n            // Add 1 to delta if the above calculation left a remainder\n            if (0 != scaledAmountsDiff.mod(dividend))\n                delta = delta.add(1);\n\n            return delta;\n        }\n    }\n\n    /// @notice Return the number of staking wallets needed to resolve the gamma criterion\n    /// @return the number of staking wallets needed to resolve the gamma criterion\n    function gammaResolutionDelta()\n    public\n    view\n    returns (uint256)\n    {\n        return gammaByPhaseNumber(verificationPhaseNumber)\n        .sub(verificationPhaseByPhaseNumber[verificationPhaseNumber].stakingWallets);\n    }\n\n    /// @notice Gauge whether the resolution criteria have been met\n    /// @return true if resolution criteria have been met, else false\n    function resolutionCriteriaMet()\n    public\n    view\n    returns (bool)\n    {\n        return alphaCriterionMet() && betaCriterionMet() && gammaCriterionMet();\n    }\n\n    /// @notice Gauge whether the alpha criterion has been met\n    /// @return true if criterion has been met, else false\n    function alphaCriterionMet()\n    public\n    view\n    returns (bool)\n    {\n        uint256 baseline = alphaByPhaseNumber(verificationPhaseNumber)\n        .mul(verificationPhaseByPhaseNumber[verificationPhaseNumber].bountyAmount);\n        return verificationPhaseByPhaseNumber[verificationPhaseNumber].stakedAmount >= baseline;\n    }\n\n    /// @notice Gauge whether the beta criterion has been met\n    /// @return true if criterion has been met, else false\n    function betaCriterionMet()\n    public\n    view\n    returns (bool)\n    {\n        // Return false if nothing was staked\n        if (0 == verificationPhaseByPhaseNumber[verificationPhaseNumber].stakedAmount)\n            return false;\n\n        // Determine whether true criterion was met\n        bool trueCriterionMet = verificationPhaseByPhaseNumber[verificationPhaseNumber].stakedAmountByStatus[true]\n        .mul(ConstantsLib.PARTS_PER())\n        .div(verificationPhaseByPhaseNumber[verificationPhaseNumber].stakedAmount)\n        >= betaByPhaseNumber(verificationPhaseNumber);\n\n        // Determine whether false criterion was met\n        bool falseCriterionMet = verificationPhaseByPhaseNumber[verificationPhaseNumber].stakedAmountByStatus[false]\n        .mul(ConstantsLib.PARTS_PER())\n        .div(verificationPhaseByPhaseNumber[verificationPhaseNumber].stakedAmount)\n        >= betaByPhaseNumber(verificationPhaseNumber);\n\n        return trueCriterionMet || falseCriterionMet;\n    }\n\n    /// @notice Gauge whether the gamma criterion has been met\n    /// @return true if criterion has been met, else false\n    function gammaCriterionMet()\n    public\n    view\n    returns (bool)\n    {\n        return verificationPhaseByPhaseNumber[verificationPhaseNumber].stakingWallets\n        >= gammaByPhaseNumber(verificationPhaseNumber);\n    }\n\n    /// @notice Set the next alpha criterion\n    /// @dev Only enabled when the resolution engine is not frozen\n    /// @param _nextAlpha The next alpha\n    function setNextAlpha(uint256 _nextAlpha)\n    public\n    onlyRoleAccessor(OWNER_ROLE)\n    onlyNotFrozen\n    {\n        // Set the alpha\n        nextAlpha = _nextAlpha;\n\n        // Emit event\n        emit NextAlphaSet(nextAlpha);\n    }\n\n    /// @notice Set the next beta criterion\n    /// @dev Only enabled when the resolution engine is not frozen\n    /// @param _nextBeta The next beta\n    function setNextBeta(uint256 _nextBeta)\n    public\n    onlyRoleAccessor(OWNER_ROLE)\n    onlyNotFrozen\n    {\n        // Set the beta\n        nextBeta = _nextBeta;\n\n        // Emit event\n        emit NextBetaSet(nextBeta);\n    }\n\n    /// @notice Set the next gamma criterion\n    /// @dev Only enabled when the resolution engine is not frozen\n    /// @param _nextGamma The next gamma\n    function setNextGamma(uint256 _nextGamma)\n    public\n    onlyRoleAccessor(OWNER_ROLE)\n    onlyNotFrozen\n    {\n        // Set the gamma\n        nextGamma = _nextGamma;\n\n        // Emit event\n        emit NextGammaSet(nextGamma);\n    }\n\n    /// @notice Get the alpha parameter by the given verification phase number\n    /// @param _verificationPhaseNumber The concerned verification phase number\n    /// @return the alpha value\n    function alphaByPhaseNumber(uint256 _verificationPhaseNumber)\n    public\n    view\n    returns (uint256)\n    {\n        return verificationPhaseByPhaseNumber[_verificationPhaseNumber].uintCriteria[ALPHA_INDEX];\n    }\n\n    /// @notice Get the beta parameter by the given verification phase number\n    /// @param _verificationPhaseNumber The concerned verification phase number\n    /// @return the beta value\n    function betaByPhaseNumber(uint256 _verificationPhaseNumber)\n    public\n    view\n    returns (uint256)\n    {\n        return verificationPhaseByPhaseNumber[_verificationPhaseNumber].uintCriteria[BETA_INDEX];\n    }\n\n    /// @notice Get the gamma parameter by the given verification phase number\n    /// @param _verificationPhaseNumber The concerned verification phase number\n    /// @return the gamma value\n    function gammaByPhaseNumber(uint256 _verificationPhaseNumber)\n    public\n    view\n    returns (uint256)\n    {\n        return verificationPhaseByPhaseNumber[_verificationPhaseNumber].uintCriteria[GAMMA_INDEX];\n    }\n\n    /// @notice Augment the verification phase with verification criteria params\n    function _addVerificationCriteria()\n    internal\n    {\n        verificationPhaseByPhaseNumber[verificationPhaseNumber].uintCriteria.push(nextAlpha);\n        verificationPhaseByPhaseNumber[verificationPhaseNumber].uintCriteria.push(nextBeta);\n        verificationPhaseByPhaseNumber[verificationPhaseNumber].uintCriteria.push(nextGamma);\n    }\n}\n",
  "sourcePath": "/opt/buildagent/work/9988d0feca52d9d9/contracts/BergenResolutionEngine.sol",
  "compiler": {
    "name": "solc",
    "version": "0.5.11+commit.c082d0b4.Emscripten.clang"
  },
  "schemaVersion": "3.0.16",
  "updatedAt": "2019-10-06T10:19:29.276Z",
  "devdoc": {
    "author": "Mark Briscombe <mark@hubii.com> & Jens Ivar Jrdre <jensivar@hubii.com>",
    "methods": {
      "addRole(string)": {
        "params": {
          "_role": "The concerned role"
        }
      },
      "addRoleAccessor(string,address)": {
        "params": {
          "_address": "The concerned address",
          "_role": "The concerned role"
        }
      },
      "alphaByPhaseNumber(uint256)": {
        "params": {
          "_verificationPhaseNumber": "The concerned verification phase number"
        },
        "return": "the alpha value"
      },
      "alphaCriterionMet()": {
        "return": "true if criterion has been met, else false"
      },
      "alphaResolutionDeltaAmount()": {
        "return": "the amount needed to obtain to resolve the alpha criterion"
      },
      "betaByPhaseNumber(uint256)": {
        "params": {
          "_verificationPhaseNumber": "The concerned verification phase number"
        },
        "return": "the beta value"
      },
      "betaCriterionMet()": {
        "return": "true if criterion has been met, else false"
      },
      "betaResolutionDeltaAmount(bool)": {
        "params": {
          "_status": "The concerned status"
        },
        "return": "the amount needed to obtain to resolve the beta criterion     /// With E, A and a respectively representing the entirety (100%) value, the total amount staked and the amount staked on the given status the initial delta amount is calculated as     ///    delta = (beta * A - E * a) / (E - beta)     /// If there is a non-zero remainder in the calculation the delta is incremented by an additional unit"
      },
      "calculatePayout(address,uint256,uint256)": {
        "params": {
          "_firstVerificationPhaseNumber": "The first verification phase number to stage payout from",
          "_lastVerificationPhaseNumber": "The last verification phase number to stage payout from",
          "_wallet": "The address of the concerned wallet"
        },
        "return": "the payout"
      },
      "constructor": {
        "params": {
          "_bountyFund": "The address of bounty fund",
          "_nextAlpha": "The next alpha criterion of this resolution engine",
          "_nextBeta": "The next beta criterion of this resolution engine",
          "_nextGamma": "The next gamma criterion of this resolution engine",
          "_operator": "The address of operator",
          "_oracle": "The address of oracle"
        }
      },
      "disable(string)": {
        "params": {
          "_action": "The action to disable"
        }
      },
      "disabled(string)": {
        "params": {
          "_name": "The name to gauge"
        }
      },
      "enable(string)": {
        "params": {
          "_action": "The action to enable"
        }
      },
      "enabled(string)": {
        "params": {
          "_name": "The name to gauge"
        }
      },
      "freeze()": {
        "details": "This operation can not be undone"
      },
      "gammaByPhaseNumber(uint256)": {
        "params": {
          "_verificationPhaseNumber": "The concerned verification phase number"
        },
        "return": "the gamma value"
      },
      "gammaCriterionMet()": {
        "return": "true if criterion has been met, else false"
      },
      "gammaResolutionDelta()": {
        "return": "the number of staking wallets needed to resolve the gamma criterion"
      },
      "isRole(string)": {
        "params": {
          "_role": "The concerned role"
        },
        "return": "true if role has been set, else false"
      },
      "isRoleAccessor(string,address)": {
        "params": {
          "_address": "The concerned address",
          "_role": "The concerned role"
        },
        "return": "true if address is the one of a registered accessor of role, else false"
      },
      "metricsByBlockNumber(uint256)": {
        "details": "Reverts if provided block number is higher than current block number",
        "params": {
          "_blockNumber": "The concerned block number"
        },
        "return": "the metrics"
      },
      "metricsByVerificationPhaseNumber(uint256)": {
        "params": {
          "_verificationPhaseNumber": "The concerned verification phase number"
        },
        "return": "the metrics"
      },
      "metricsByVerificationPhaseNumberAndWallet(uint256,address)": {
        "details": "Reverts if provided verification phase number is higher than current verification phase number",
        "params": {
          "_verificationPhaseNumber": "The concerned verification phase number",
          "_wallet": "The address of the concerned wallet"
        },
        "return": "the metrics"
      },
      "metricsByWallet(address)": {
        "params": {
          "_wallet": "The address of the concerned wallet"
        },
        "return": "the metrics"
      },
      "removeRoleAccessor(string,address)": {
        "params": {
          "_address": "The concerned address",
          "_role": "The concerned role"
        }
      },
      "resolutionCriteriaMet()": {
        "return": "true if resolution criteria have been met, else false"
      },
      "resolutionDeltaAmount(bool)": {
        "params": {
          "_status": "The concerned status"
        },
        "return": "the amount needed to obtain to resolve the market"
      },
      "resolveIfCriteriaMet()": {
        "details": "The function can only be called by oracle. be the current verification phase number"
      },
      "rolesCount()": {
        "return": "the count of roles"
      },
      "setBountyAllocator(address)": {
        "params": {
          "_bountyAllocator": "The bounty allocator to be set"
        }
      },
      "setNextAlpha(uint256)": {
        "details": "Only enabled when the resolution engine is not frozen",
        "params": {
          "_nextAlpha": "The next alpha"
        }
      },
      "setNextBeta(uint256)": {
        "details": "Only enabled when the resolution engine is not frozen",
        "params": {
          "_nextBeta": "The next beta"
        }
      },
      "setNextGamma(uint256)": {
        "details": "Only enabled when the resolution engine is not frozen",
        "params": {
          "_nextGamma": "The next gamma"
        }
      },
      "stage(address,uint256)": {
        "details": "The function can only be called by oracle.",
        "params": {
          "_amount": "The amount to be staged",
          "_wallet": "The address of the concerned wallet"
        }
      },
      "stagePayout(address,uint256,uint256)": {
        "details": "The function can only be called by oracle.",
        "params": {
          "_firstVerificationPhaseNumber": "The first verification phase number to stage payout from",
          "_lastVerificationPhaseNumber": "The last verification phase number to stage payout from",
          "_wallet": "The address of the concerned wallet"
        }
      },
      "stageStake(address)": {
        "details": "The function can only be called by oracle and when resolve action has been disabled",
        "params": {
          "_wallet": "The address of the concerned wallet"
        }
      },
      "stake(address,bool,uint256)": {
        "details": "The function can only be called by oracle.",
        "params": {
          "_amount": "The amount staked",
          "_status": "The status staked at",
          "_wallet": "The concerned wallet"
        }
      },
      "withdraw(address,uint256)": {
        "details": "The function can only be called by oracle.",
        "params": {
          "_amount": "The amount to be withdrawn",
          "_wallet": "The address of the concerned wallet"
        }
      },
      "withdrawBounty(address)": {
        "params": {
          "_wallet": "The recipient address of the bounty transfer"
        }
      }
    },
    "title": "BergenResolutionEngine"
  },
  "userdoc": {
    "methods": {
      "addRole(string)": {
        "notice": "Add role"
      },
      "addRoleAccessor(string,address)": {
        "notice": "Register an address as accessor of a role"
      },
      "alphaByPhaseNumber(uint256)": {
        "notice": "Get the alpha parameter by the given verification phase number"
      },
      "alphaCriterionMet()": {
        "notice": "Gauge whether the alpha criterion has been met"
      },
      "alphaResolutionDeltaAmount()": {
        "notice": "Return the amount needed to resolve the alpha criterion"
      },
      "betaByPhaseNumber(uint256)": {
        "notice": "Get the beta parameter by the given verification phase number"
      },
      "betaCriterionMet()": {
        "notice": "Gauge whether the beta criterion has been met"
      },
      "betaResolutionDeltaAmount(bool)": {
        "notice": "Return the amount needed to resolve the beta criterion for the given status"
      },
      "calculatePayout(address,uint256,uint256)": {
        "notice": "Calculate the payout accrued by given wallet in the inclusive range of given verification phase numbers"
      },
      "constructor": "`msg.sender` will be added as accessor to the owner role",
      "disable(string)": {
        "notice": "Disable the given action"
      },
      "disabled(string)": {
        "notice": "Gauge whether the name is disable"
      },
      "enable(string)": {
        "notice": "Enable the given action"
      },
      "enabled(string)": {
        "notice": "Gauge whether the name is enabled"
      },
      "freeze()": {
        "notice": "Freeze updates to this resolution engine"
      },
      "gammaByPhaseNumber(uint256)": {
        "notice": "Get the gamma parameter by the given verification phase number"
      },
      "gammaCriterionMet()": {
        "notice": "Gauge whether the gamma criterion has been met"
      },
      "gammaResolutionDelta()": {
        "notice": "Return the number of staking wallets needed to resolve the gamma criterion"
      },
      "initialize()": {
        "notice": "Initialize the engine"
      },
      "isRole(string)": {
        "notice": "Gauge whether a role is set"
      },
      "isRoleAccessor(string,address)": {
        "notice": "Gauge whether an address is an accessor of a role"
      },
      "metricsByBlockNumber(uint256)": {
        "notice": "Get the metrics for the block"
      },
      "metricsByVerificationPhaseNumber(uint256)": {
        "notice": "Get the metrics for the given verification phase number"
      },
      "metricsByVerificationPhaseNumberAndWallet(uint256,address)": {
        "notice": "Get the metrics for the given verification phase number and wallet"
      },
      "metricsByWallet(address)": {
        "notice": "Get the metrics for the wallet"
      },
      "removeRoleAccessor(string,address)": {
        "notice": "Deregister an address as accessor of a role"
      },
      "resolutionCriteriaMet()": {
        "notice": "Gauge whether the resolution criteria have been met"
      },
      "resolutionDeltaAmount(bool)": {
        "notice": "Return the amount needed to resolve the current market for the given status"
      },
      "resolveIfCriteriaMet()": {
        "notice": "Resolve the market in the current verification phase if resolution criteria have been met"
      },
      "rolesCount()": {
        "notice": "Get the count of roles"
      },
      "setBountyAllocator(address)": {
        "notice": "Set the bounty allocator"
      },
      "setNextAlpha(uint256)": {
        "notice": "Set the next alpha criterion"
      },
      "setNextBeta(uint256)": {
        "notice": "Set the next beta criterion"
      },
      "setNextGamma(uint256)": {
        "notice": "Set the next gamma criterion"
      },
      "stage(address,uint256)": {
        "notice": "Stage the given amount"
      },
      "stagePayout(address,uint256,uint256)": {
        "notice": "Stage the payout accrued by given wallet in the inclusive range of given verification phase numbers"
      },
      "stageStake(address)": {
        "notice": "Stage the amount staked in the current verification phase"
      },
      "stake(address,bool,uint256)": {
        "notice": "Stake by updating metrics"
      },
      "withdraw(address,uint256)": {
        "notice": "Withdraw the given amount"
      },
      "withdrawBounty(address)": {
        "notice": "Stage the bounty to the given address"
      }
    },
    "notice": "A resolution engine with criteria of Total Stake Amount relative to Bounty,   Directional Stake Fraction and Total Staking Wallets Count Resolve the staking market when: - The total number of tokens staked on the market is >= alpha times the number of tokens posted for the Bounty AND; - The percentage of tokens staked on either option across the market is >= beta % AND; - The total number of addresses staking tokens is >= gamma"
  }
}