{
  "contractName": "BountyFund",
  "abi": [
    {
      "constant": true,
      "inputs": [
        {
          "internalType": "string",
          "name": "_role",
          "type": "string"
        }
      ],
      "name": "isRole",
      "outputs": [
        {
          "internalType": "bool",
          "name": "",
          "type": "bool"
        }
      ],
      "payable": false,
      "stateMutability": "view",
      "type": "function"
    },
    {
      "constant": false,
      "inputs": [
        {
          "internalType": "string",
          "name": "_role",
          "type": "string"
        }
      ],
      "name": "addRole",
      "outputs": [],
      "payable": false,
      "stateMutability": "nonpayable",
      "type": "function"
    },
    {
      "constant": false,
      "inputs": [
        {
          "internalType": "string",
          "name": "_role",
          "type": "string"
        },
        {
          "internalType": "address",
          "name": "_address",
          "type": "address"
        }
      ],
      "name": "addRoleAccessor",
      "outputs": [],
      "payable": false,
      "stateMutability": "nonpayable",
      "type": "function"
    },
    {
      "constant": false,
      "inputs": [
        {
          "internalType": "string",
          "name": "_role",
          "type": "string"
        },
        {
          "internalType": "address",
          "name": "_address",
          "type": "address"
        }
      ],
      "name": "removeRoleAccessor",
      "outputs": [],
      "payable": false,
      "stateMutability": "nonpayable",
      "type": "function"
    },
    {
      "constant": true,
      "inputs": [],
      "name": "rolesCount",
      "outputs": [
        {
          "internalType": "uint256",
          "name": "",
          "type": "uint256"
        }
      ],
      "payable": false,
      "stateMutability": "view",
      "type": "function"
    },
    {
      "constant": true,
      "inputs": [],
      "name": "resolutionEngine",
      "outputs": [
        {
          "internalType": "address",
          "name": "",
          "type": "address"
        }
      ],
      "payable": false,
      "stateMutability": "view",
      "type": "function"
    },
    {
      "constant": true,
      "inputs": [
        {
          "internalType": "uint256",
          "name": "",
          "type": "uint256"
        }
      ],
      "name": "roles",
      "outputs": [
        {
          "internalType": "string",
          "name": "",
          "type": "string"
        }
      ],
      "payable": false,
      "stateMutability": "view",
      "type": "function"
    },
    {
      "constant": true,
      "inputs": [],
      "name": "OWNER_ROLE",
      "outputs": [
        {
          "internalType": "string",
          "name": "",
          "type": "string"
        }
      ],
      "payable": false,
      "stateMutability": "view",
      "type": "function"
    },
    {
      "constant": true,
      "inputs": [
        {
          "internalType": "string",
          "name": "_role",
          "type": "string"
        },
        {
          "internalType": "address",
          "name": "_address",
          "type": "address"
        }
      ],
      "name": "isRoleAccessor",
      "outputs": [
        {
          "internalType": "bool",
          "name": "",
          "type": "bool"
        }
      ],
      "payable": false,
      "stateMutability": "view",
      "type": "function"
    },
    {
      "constant": true,
      "inputs": [],
      "name": "token",
      "outputs": [
        {
          "internalType": "contract ERC20",
          "name": "",
          "type": "address"
        }
      ],
      "payable": false,
      "stateMutability": "view",
      "type": "function"
    },
    {
      "inputs": [
        {
          "internalType": "address",
          "name": "_token",
          "type": "address"
        }
      ],
      "payable": false,
      "stateMutability": "nonpayable",
      "type": "constructor"
    },
    {
      "anonymous": false,
      "inputs": [
        {
          "indexed": true,
          "internalType": "address",
          "name": "_resolutionEngine",
          "type": "address"
        }
      ],
      "name": "ResolutionEngineSet",
      "type": "event"
    },
    {
      "anonymous": false,
      "inputs": [
        {
          "indexed": true,
          "internalType": "address",
          "name": "_wallet",
          "type": "address"
        },
        {
          "indexed": false,
          "internalType": "uint256",
          "name": "_amount",
          "type": "uint256"
        },
        {
          "indexed": false,
          "internalType": "uint256",
          "name": "_balance",
          "type": "uint256"
        }
      ],
      "name": "TokensDeposited",
      "type": "event"
    },
    {
      "anonymous": false,
      "inputs": [
        {
          "indexed": true,
          "internalType": "address",
          "name": "_wallet",
          "type": "address"
        },
        {
          "indexed": true,
          "internalType": "address",
          "name": "_allocator",
          "type": "address"
        },
        {
          "indexed": false,
          "internalType": "uint256",
          "name": "_amount",
          "type": "uint256"
        },
        {
          "indexed": false,
          "internalType": "uint256",
          "name": "_balance",
          "type": "uint256"
        }
      ],
      "name": "TokensAllocated",
      "type": "event"
    },
    {
      "anonymous": false,
      "inputs": [
        {
          "indexed": false,
          "internalType": "string",
          "name": "_role",
          "type": "string"
        }
      ],
      "name": "RoleAdded",
      "type": "event"
    },
    {
      "anonymous": false,
      "inputs": [
        {
          "indexed": false,
          "internalType": "string",
          "name": "_role",
          "type": "string"
        },
        {
          "indexed": true,
          "internalType": "address",
          "name": "_address",
          "type": "address"
        }
      ],
      "name": "RoleAccessorAdded",
      "type": "event"
    },
    {
      "anonymous": false,
      "inputs": [
        {
          "indexed": false,
          "internalType": "string",
          "name": "_role",
          "type": "string"
        },
        {
          "indexed": true,
          "internalType": "address",
          "name": "_address",
          "type": "address"
        }
      ],
      "name": "RoleAccessorRemoved",
      "type": "event"
    },
    {
      "constant": false,
      "inputs": [
        {
          "internalType": "address",
          "name": "_resolutionEngine",
          "type": "address"
        }
      ],
      "name": "setResolutionEngine",
      "outputs": [],
      "payable": false,
      "stateMutability": "nonpayable",
      "type": "function"
    },
    {
      "constant": false,
      "inputs": [
        {
          "internalType": "uint256",
          "name": "_amount",
          "type": "uint256"
        }
      ],
      "name": "depositTokens",
      "outputs": [],
      "payable": false,
      "stateMutability": "nonpayable",
      "type": "function"
    },
    {
      "constant": false,
      "inputs": [
        {
          "internalType": "address",
          "name": "_allocator",
          "type": "address"
        }
      ],
      "name": "allocateTokens",
      "outputs": [
        {
          "internalType": "uint256",
          "name": "",
          "type": "uint256"
        }
      ],
      "payable": false,
      "stateMutability": "nonpayable",
      "type": "function"
    }
  ],
  "bytecode": "0x60806040523480156200001157600080fd5b5060405162001f7c38038062001f7c833981810160405260208110156200003757600080fd5b81019080805190602001909291905050506200008e6040518060400160405280600581526020017f4f574e45520000000000000000000000000000000000000000000000000000008152506200011d60201b60201c565b620000d56040518060400160405280600581526020017f4f574e455200000000000000000000000000000000000000000000000000000081525033620001bc60201b60201c565b80600360006101000a81548173ffffffffffffffffffffffffffffffffffffffff021916908373ffffffffffffffffffffffffffffffffffffffff16021790555050620004ec565b600160006200013283620001fc60201b60201c565b81526020019081526020016000205460001415620001b9576000819080600181540180825580915050906001820390600052602060002001600090919290919091509080519060200190620001899291906200043d565b505060008054905060016000620001a684620001fc60201b60201c565b8152602001908152602001600020819055505b50565b620001f88160026000620001d686620001fc60201b60201c565b81526020019081526020016000206200027960201b6200179d1790919060201c565b5050565b6000816040516020018082805190602001908083835b6020831062000237578051825260208201915060208101905060208303925062000212565b6001836020036101000a038019825116818451168082178552505050505050905001915050604051602081830303815290604052805190602001209050919050565b6200028b82826200035d60201b60201c565b15620002ff576040517f08c379a000000000000000000000000000000000000000000000000000000000815260040180806020018281038252601f8152602001807f526f6c65733a206163636f756e7420616c72656164792068617320726f6c650081525060200191505060405180910390fd5b60018260000160008373ffffffffffffffffffffffffffffffffffffffff1673ffffffffffffffffffffffffffffffffffffffff16815260200190815260200160002060006101000a81548160ff0219169083151502179055505050565b60008073ffffffffffffffffffffffffffffffffffffffff168273ffffffffffffffffffffffffffffffffffffffff161415620003e6576040517f08c379a000000000000000000000000000000000000000000000000000000000815260040180806020018281038252602281526020018062001f5a6022913960400191505060405180910390fd5b8260000160008373ffffffffffffffffffffffffffffffffffffffff1673ffffffffffffffffffffffffffffffffffffffff16815260200190815260200160002060009054906101000a900460ff16905092915050565b828054600181600116156101000203166002900490600052602060002090601f016020900481019282601f106200048057805160ff1916838001178555620004b1565b82800160010185558215620004b1579182015b82811115620004b057825182559160200191906001019062000493565b5b509050620004c09190620004c4565b5090565b620004e991905b80821115620004e5576000816000905550600101620004cb565b5090565b90565b611a5e80620004fc6000396000f3fe608060405234801561001057600080fd5b50600436106100cf5760003560e01c8063bb7efd191161008c578063dd49756e11610066578063dd49756e146105c3578063e58378bb146105f1578063fb535fd614610674578063fc0c546a14610767576100cf565b8063bb7efd191461047a578063bfda4a49146104c4578063cabfd1bf1461056b576100cf565b80630f6c37de146100d45780633e96e868146101a75780634da195be146102625780635b0f833a1461033d5780637d54a82214610418578063b8517dd81461045c575b600080fd5b61018d600480360360208110156100ea57600080fd5b810190808035906020019064010000000081111561010757600080fd5b82018360208201111561011957600080fd5b8035906020019184600183028401116401000000008311171561013b57600080fd5b91908080601f016020809104026020016040519081016040528093929190818152602001838380828437600081840152601f19601f8201169050808301925050505050505091929192905050506107b1565b604051808215151515815260200191505060405180910390f35b610260600480360360208110156101bd57600080fd5b81019080803590602001906401000000008111156101da57600080fd5b8201836020820111156101ec57600080fd5b8035906020019184600183028401116401000000008311171561020e57600080fd5b91908080601f016020809104026020016040519081016040528093929190818152602001838380828437600081840152601f19601f8201169050808301925050505050505091929192905050506107da565b005b61033b6004803603604081101561027857600080fd5b810190808035906020019064010000000081111561029557600080fd5b8201836020820111156102a757600080fd5b803590602001918460018302840111640100000000831117156102c957600080fd5b91908080601f016020809104026020016040519081016040528093929190818152602001838380828437600081840152601f19601f820116905080830192505050505050509192919290803573ffffffffffffffffffffffffffffffffffffffff169060200190929190505050610918565b005b6104166004803603604081101561035357600080fd5b810190808035906020019064010000000081111561037057600080fd5b82018360208201111561038257600080fd5b803590602001918460018302840111640100000000831117156103a457600080fd5b91908080601f016020809104026020016040519081016040528093929190818152602001838380828437600081840152601f19601f820116905080830192505050505050509192919290803573ffffffffffffffffffffffffffffffffffffffff169060200190929190505050610a6f565b005b61045a6004803603602081101561042e57600080fd5b81019080803573ffffffffffffffffffffffffffffffffffffffff169060200190929190505050610be9565b005b610464610d9d565b6040518082815260200191505060405180910390f35b610482610da9565b604051808273ffffffffffffffffffffffffffffffffffffffff1673ffffffffffffffffffffffffffffffffffffffff16815260200191505060405180910390f35b6104f0600480360360208110156104da57600080fd5b8101908080359060200190929190505050610dcf565b6040518080602001828103825283818151815260200191508051906020019080838360005b83811015610530578082015181840152602081019050610515565b50505050905090810190601f16801561055d5780820380516001836020036101000a031916815260200191505b509250505060405180910390f35b6105ad6004803603602081101561058157600080fd5b81019080803573ffffffffffffffffffffffffffffffffffffffff169060200190929190505050610e88565b6040518082815260200191505060405180910390f35b6105ef600480360360208110156105d957600080fd5b81019080803590602001909291905050506111e9565b005b6105f9611434565b6040518080602001828103825283818151815260200191508051906020019080838360005b8381101561063957808201518184015260208101905061061e565b50505050905090810190601f1680156106665780820380516001836020036101000a031916815260200191505b509250505060405180910390f35b61074d6004803603604081101561068a57600080fd5b81019080803590602001906401000000008111156106a757600080fd5b8201836020820111156106b957600080fd5b803590602001918460018302840111640100000000831117156106db57600080fd5b91908080601f016020809104026020016040519081016040528093929190818152602001838380828437600081840152601f19601f820116905080830192505050505050509192919290803573ffffffffffffffffffffffffffffffffffffffff16906020019092919050505061146d565b604051808215151515815260200191505060405180910390f35b61076f6114a4565b604051808273ffffffffffffffffffffffffffffffffffffffff1673ffffffffffffffffffffffffffffffffffffffff16815260200191505060405180910390f35b6000600160006107c0846114ca565b815260200190815260200160002054600014159050919050565b6040518060400160405280600581526020017f4f574e455200000000000000000000000000000000000000000000000000000081525061081a813361146d565b61086f576040517f08c379a000000000000000000000000000000000000000000000000000000000815260040180806020018281038252602a8152602001806119bd602a913960400191505060405180910390fd5b61087882611545565b7f22f30a094e2ed10e9a92ebac7a70b8e2ae3288d9b594db22587861bc8fef4eef826040518080602001828103825283818151815260200191508051906020019080838360005b838110156108da5780820151818401526020810190506108bf565b50505050905090810190601f1680156109075780820380516001836020036101000a031916815260200191505b509250505060405180910390a15050565b6040518060400160405280600581526020017f4f574e4552000000000000000000000000000000000000000000000000000000815250610958813361146d565b6109ad576040517f08c379a000000000000000000000000000000000000000000000000000000000815260040180806020018281038252602a8152602001806119bd602a913960400191505060405180910390fd5b6109b783836115d1565b8173ffffffffffffffffffffffffffffffffffffffff167fafe42c64e42361a5193c84f3f11b6803e41dd901d473ee6faa72f43f8ab1f468846040518080602001828103825283818151815260200191508051906020019080838360005b83811015610a30578082015181840152602081019050610a15565b50505050905090810190601f168015610a5d5780820380516001836020036101000a031916815260200191505b509250505060405180910390a2505050565b6040518060400160405280600581526020017f4f574e4552000000000000000000000000000000000000000000000000000000815250610aaf813361146d565b610b04576040517f08c379a000000000000000000000000000000000000000000000000000000000815260040180806020018281038252602a8152602001806119bd602a913960400191505060405180910390fd5b610b318260026000610b15876114ca565b815260200190815260200160002061160290919063ffffffff16565b8173ffffffffffffffffffffffffffffffffffffffff167f3e3ea7a1060be276a52e916803e2f89e3478e263893fc3c0b4d5793dd6d5f032846040518080602001828103825283818151815260200191508051906020019080838360005b83811015610baa578082015181840152602081019050610b8f565b50505050905090810190601f168015610bd75780820380516001836020036101000a031916815260200191505b509250505060405180910390a2505050565b8073ffffffffffffffffffffffffffffffffffffffff16600073ffffffffffffffffffffffffffffffffffffffff161415610c6f576040517f08c379a00000000000000000000000000000000000000000000000000000000081526004018080602001828103825260368152602001806119556036913960400191505060405180910390fd5b600460009054906101000a900473ffffffffffffffffffffffffffffffffffffffff1673ffffffffffffffffffffffffffffffffffffffff16600073ffffffffffffffffffffffffffffffffffffffff1614610d16576040517f08c379a000000000000000000000000000000000000000000000000000000000815260040180806020018281038252603281526020018061198b6032913960400191505060405180910390fd5b80600460006101000a81548173ffffffffffffffffffffffffffffffffffffffff021916908373ffffffffffffffffffffffffffffffffffffffff1602179055508073ffffffffffffffffffffffffffffffffffffffff167ff315c9bac28a61a4302d19c248f569b36c251477e26fb135146ded33fff5751060405160405180910390a250565b60008080549050905090565b600460009054906101000a900473ffffffffffffffffffffffffffffffffffffffff1681565b60008181548110610ddc57fe5b906000526020600020016000915090508054600181600116156101000203166002900480601f016020809104026020016040519081016040528092919081815260200182805460018160011615610100020316600290048015610e805780601f10610e5557610100808354040283529160200191610e80565b820191906000526020600020905b815481529060010190602001808311610e6357829003601f168201915b505050505081565b6000600460009054906101000a900473ffffffffffffffffffffffffffffffffffffffff1673ffffffffffffffffffffffffffffffffffffffff163373ffffffffffffffffffffffffffffffffffffffff1614610f30576040517f08c379a000000000000000000000000000000000000000000000000000000000815260040180806020018281038252603781526020018061191e6037913960400191505060405180910390fd5b60008273ffffffffffffffffffffffffffffffffffffffff1663abaa99166040518163ffffffff1660e01b815260040160206040518083038186803b158015610f7857600080fd5b505afa158015610f8c573d6000803e3d6000fd5b505050506040513d6020811015610fa257600080fd5b81019080805190602001909291905050509050600360009054906101000a900473ffffffffffffffffffffffffffffffffffffffff1673ffffffffffffffffffffffffffffffffffffffff1663a9059cbb33836040518363ffffffff1660e01b8152600401808373ffffffffffffffffffffffffffffffffffffffff1673ffffffffffffffffffffffffffffffffffffffff16815260200182815260200192505050602060405180830381600087803b15801561105e57600080fd5b505af1158015611072573d6000803e3d6000fd5b505050506040513d602081101561108857600080fd5b8101908080519060200190929190505050508273ffffffffffffffffffffffffffffffffffffffff163373ffffffffffffffffffffffffffffffffffffffff167fb5dd370e02a9fd0a5f1a6d46f1fb2313da04ccef6c8b4e822062787ba71ac80f83600360009054906101000a900473ffffffffffffffffffffffffffffffffffffffff1673ffffffffffffffffffffffffffffffffffffffff166370a08231306040518263ffffffff1660e01b8152600401808273ffffffffffffffffffffffffffffffffffffffff1673ffffffffffffffffffffffffffffffffffffffff16815260200191505060206040518083038186803b15801561118957600080fd5b505afa15801561119d573d6000803e3d6000fd5b505050506040513d60208110156111b357600080fd5b8101908080519060200190929190505050604051808381526020018281526020019250505060405180910390a380915050919050565b600360009054906101000a900473ffffffffffffffffffffffffffffffffffffffff1673ffffffffffffffffffffffffffffffffffffffff166323b872dd3330846040518463ffffffff1660e01b8152600401808473ffffffffffffffffffffffffffffffffffffffff1673ffffffffffffffffffffffffffffffffffffffff1681526020018373ffffffffffffffffffffffffffffffffffffffff1673ffffffffffffffffffffffffffffffffffffffff1681526020018281526020019350505050602060405180830381600087803b1580156112c657600080fd5b505af11580156112da573d6000803e3d6000fd5b505050506040513d60208110156112f057600080fd5b8101908080519060200190929190505050503373ffffffffffffffffffffffffffffffffffffffff167ffdfdcf596161b0e81e3161597d46888dcc88bd83b22dcfb341c76377ca3bbc9e82600360009054906101000a900473ffffffffffffffffffffffffffffffffffffffff1673ffffffffffffffffffffffffffffffffffffffff166370a08231306040518263ffffffff1660e01b8152600401808273ffffffffffffffffffffffffffffffffffffffff1673ffffffffffffffffffffffffffffffffffffffff16815260200191505060206040518083038186803b1580156113da57600080fd5b505afa1580156113ee573d6000803e3d6000fd5b505050506040513d602081101561140457600080fd5b8101908080519060200190929190505050604051808381526020018281526020019250505060405180910390a250565b6040518060400160405280600581526020017f4f574e455200000000000000000000000000000000000000000000000000000081525081565b600061149c8260026000611480876114ca565b81526020019081526020016000206116bf90919063ffffffff16565b905092915050565b600360009054906101000a900473ffffffffffffffffffffffffffffffffffffffff1681565b6000816040516020018082805190602001908083835b6020831061150357805182526020820191506020810190506020830392506114e0565b6001836020036101000a038019825116818451168082178552505050505050905001915050604051602081830303815290604052805190602001209050919050565b60016000611552836114ca565b815260200190815260200160002054600014156115ce5760008190806001815401808255809150509060018203906000526020600020016000909192909190915090805190602001906115a6929190611878565b5050600080549050600160006115bb846114ca565b8152602001908152602001600020819055505b50565b6115fe81600260006115e2866114ca565b815260200190815260200160002061179d90919063ffffffff16565b5050565b61160c82826116bf565b611661576040517f08c379a00000000000000000000000000000000000000000000000000000000081526004018080602001828103825260218152602001806119e76021913960400191505060405180910390fd5b60008260000160008373ffffffffffffffffffffffffffffffffffffffff1673ffffffffffffffffffffffffffffffffffffffff16815260200190815260200160002060006101000a81548160ff0219169083151502179055505050565b60008073ffffffffffffffffffffffffffffffffffffffff168273ffffffffffffffffffffffffffffffffffffffff161415611746576040517f08c379a0000000000000000000000000000000000000000000000000000000008152600401808060200182810382526022815260200180611a086022913960400191505060405180910390fd5b8260000160008373ffffffffffffffffffffffffffffffffffffffff1673ffffffffffffffffffffffffffffffffffffffff16815260200190815260200160002060009054906101000a900460ff16905092915050565b6117a782826116bf565b1561181a576040517f08c379a000000000000000000000000000000000000000000000000000000000815260040180806020018281038252601f8152602001807f526f6c65733a206163636f756e7420616c72656164792068617320726f6c650081525060200191505060405180910390fd5b60018260000160008373ffffffffffffffffffffffffffffffffffffffff1673ffffffffffffffffffffffffffffffffffffffff16815260200190815260200160002060006101000a81548160ff0219169083151502179055505050565b828054600181600116156101000203166002900490600052602060002090601f016020900481019282601f106118b957805160ff19168380011785556118e7565b828001600101855582156118e7579182015b828111156118e65782518255916020019190600101906118cb565b5b5090506118f491906118f8565b5090565b61191a91905b808211156119165760008160009055506001016118fe565b5090565b9056fe426f756e747946756e643a2073656e646572206973206e6f742074686520646566696e6564207265736f6c7574696f6e20656e67696e65426f756e747946756e643a207265736f6c7574696f6e20656e67696e6520617267756d656e74206973207a65726f2061646472657373426f756e747946756e643a207265736f6c7574696f6e20656e67696e652068617320616c7265616479206265656e207365745242414365643a2073656e646572206973206e6f74206163636573736f72206f662074686520726f6c65526f6c65733a206163636f756e7420646f6573206e6f74206861766520726f6c65526f6c65733a206163636f756e7420697320746865207a65726f2061646472657373a265627a7a72315820edfdf486ea62027cb30ba2df8085ac7d9ed2a1a99f30c6e9e3dc3c7414cde05864736f6c634300050b0032526f6c65733a206163636f756e7420697320746865207a65726f2061646472657373",
  "source": "/*\n * Lottery oracle\n *\n * Copyright (C) 2017-2019 Hubii AS\n */\n\npragma solidity ^0.5.11;\n\nimport {RBACed} from \"./RBACed.sol\";\nimport {ERC20} from \"openzeppelin-solidity/contracts/token/ERC20/ERC20.sol\";\nimport {SafeMath} from \"openzeppelin-solidity/contracts/math/SafeMath.sol\";\nimport {Allocator} from \"./Allocator.sol\";\n\n/// @title BountyFund\n/// @author Jens Ivar Jrdre <jensivar@hubii.com>\n/// @notice A fund of bounties\ncontract BountyFund is RBACed {\n    using SafeMath for uint256;\n\n    event ResolutionEngineSet(address indexed _resolutionEngine);\n    event TokensDeposited(address indexed _wallet, uint256 _amount, uint256 _balance);\n    event TokensAllocated(address indexed _wallet, address indexed _allocator,\n        uint256 _amount, uint256 _balance);\n\n    ERC20 public token;\n    address public resolutionEngine;\n\n    /// @notice `msg.sender` will be added as accessor to the owner role\n    constructor(address _token)\n    public\n    {\n        // Initialize token\n        token = ERC20(_token);\n    }\n\n    modifier onlyResolutionEngine() {\n        require(msg.sender == resolutionEngine, \"BountyFund: sender is not the defined resolution engine\");\n        _;\n    }\n\n    /// @notice Set the resolution engine of this bounty fund\n    /// @dev This function can only be called once\n    /// @param _resolutionEngine The address of the concerned resolution engine\n    function setResolutionEngine(address _resolutionEngine)\n    public\n    {\n        require(address(0) != _resolutionEngine, \"BountyFund: resolution engine argument is zero address\");\n        require(address(0) == resolutionEngine, \"BountyFund: resolution engine has already been set\");\n\n        // Update resolution engine\n        resolutionEngine = _resolutionEngine;\n\n        // Emit event\n        emit ResolutionEngineSet(_resolutionEngine);\n    }\n\n    /// @notice Deposit the amount of token\n    /// @dev Client has to do prior approval of the transfer for the given amount\n    /// @param _amount The amount to deposit\n    function depositTokens(uint256 _amount)\n    public\n    {\n        // Transfer tokens to this\n        token.transferFrom(msg.sender, address(this), _amount);\n\n        // Emit event\n        emit TokensDeposited(msg.sender, _amount, token.balanceOf(address(this)));\n    }\n\n    /// @notice Transfer the fraction of balance of token to msg.sender\n    /// @param _allocator The allocator that calculates the allocation\n    function allocateTokens(address _allocator)\n    public\n    onlyResolutionEngine\n    returns (uint256)\n    {\n        // Calculate amount to transfer\n        uint256 amount = Allocator(_allocator).allocate();\n\n        // Transfer tokens to sender\n        token.transfer(msg.sender, amount);\n\n        // Emit event\n        emit TokensAllocated(msg.sender, _allocator, amount, token.balanceOf(address(this)));\n\n        // Return calculated amount\n        return amount;\n    }\n}\n",
  "sourcePath": "/opt/buildagent/work/9988d0feca52d9d9/contracts/BountyFund.sol",
  "compiler": {
    "name": "solc",
    "version": "0.5.11+commit.c082d0b4.Emscripten.clang"
  },
  "schemaVersion": "3.0.16",
  "updatedAt": "2019-09-23T20:12:01.435Z",
  "devdoc": {
    "author": "Jens Ivar Jrdre <jensivar@hubii.com>",
    "methods": {
      "addRole(string)": {
        "params": {
          "_role": "The concerned role"
        }
      },
      "addRoleAccessor(string,address)": {
        "params": {
          "_address": "The concerned address",
          "_role": "The concerned role"
        }
      },
      "allocateTokens(address)": {
        "params": {
          "_allocator": "The allocator that calculates the allocation"
        }
      },
      "depositTokens(uint256)": {
        "details": "Client has to do prior approval of the transfer for the given amount",
        "params": {
          "_amount": "The amount to deposit"
        }
      },
      "isRole(string)": {
        "params": {
          "_role": "The concerned role"
        },
        "return": "true if role has been set, else false"
      },
      "isRoleAccessor(string,address)": {
        "params": {
          "_address": "The concerned address",
          "_role": "The concerned role"
        },
        "return": "true if address is the one of a registered accessor of role, else false"
      },
      "removeRoleAccessor(string,address)": {
        "params": {
          "_address": "The concerned address",
          "_role": "The concerned role"
        }
      },
      "rolesCount()": {
        "return": "the count of roles"
      },
      "setResolutionEngine(address)": {
        "details": "This function can only be called once",
        "params": {
          "_resolutionEngine": "The address of the concerned resolution engine"
        }
      }
    },
    "title": "BountyFund"
  },
  "userdoc": {
    "methods": {
      "addRole(string)": {
        "notice": "Add role"
      },
      "addRoleAccessor(string,address)": {
        "notice": "Register an address as accessor of a role"
      },
      "allocateTokens(address)": {
        "notice": "Transfer the fraction of balance of token to msg.sender"
      },
      "constructor": "`msg.sender` will be added as accessor to the owner role",
      "depositTokens(uint256)": {
        "notice": "Deposit the amount of token"
      },
      "isRole(string)": {
        "notice": "Gauge whether a role is set"
      },
      "isRoleAccessor(string,address)": {
        "notice": "Gauge whether an address is an accessor of a role"
      },
      "removeRoleAccessor(string,address)": {
        "notice": "Deregister an address as accessor of a role"
      },
      "rolesCount()": {
        "notice": "Get the count of roles"
      },
      "setResolutionEngine(address)": {
        "notice": "Set the resolution engine of this bounty fund"
      }
    },
    "notice": "A fund of bounties"
  }
}