{
  "contractName": "BountyFund",
  "abi": [
    {
      "constant": true,
      "inputs": [
        {
          "internalType": "string",
          "name": "_role",
          "type": "string"
        }
      ],
      "name": "isRole",
      "outputs": [
        {
          "internalType": "bool",
          "name": "",
          "type": "bool"
        }
      ],
      "payable": false,
      "stateMutability": "view",
      "type": "function"
    },
    {
      "constant": false,
      "inputs": [
        {
          "internalType": "string",
          "name": "_role",
          "type": "string"
        }
      ],
      "name": "addRole",
      "outputs": [],
      "payable": false,
      "stateMutability": "nonpayable",
      "type": "function"
    },
    {
      "constant": false,
      "inputs": [
        {
          "internalType": "string",
          "name": "_role",
          "type": "string"
        },
        {
          "internalType": "address",
          "name": "_address",
          "type": "address"
        }
      ],
      "name": "addRoleAccessor",
      "outputs": [],
      "payable": false,
      "stateMutability": "nonpayable",
      "type": "function"
    },
    {
      "constant": true,
      "inputs": [],
      "name": "operator",
      "outputs": [
        {
          "internalType": "address",
          "name": "",
          "type": "address"
        }
      ],
      "payable": false,
      "stateMutability": "view",
      "type": "function"
    },
    {
      "constant": false,
      "inputs": [
        {
          "internalType": "string",
          "name": "_role",
          "type": "string"
        },
        {
          "internalType": "address",
          "name": "_address",
          "type": "address"
        }
      ],
      "name": "removeRoleAccessor",
      "outputs": [],
      "payable": false,
      "stateMutability": "nonpayable",
      "type": "function"
    },
    {
      "constant": true,
      "inputs": [],
      "name": "rolesCount",
      "outputs": [
        {
          "internalType": "uint256",
          "name": "",
          "type": "uint256"
        }
      ],
      "payable": false,
      "stateMutability": "view",
      "type": "function"
    },
    {
      "constant": true,
      "inputs": [],
      "name": "resolutionEngine",
      "outputs": [
        {
          "internalType": "address",
          "name": "",
          "type": "address"
        }
      ],
      "payable": false,
      "stateMutability": "view",
      "type": "function"
    },
    {
      "constant": true,
      "inputs": [
        {
          "internalType": "uint256",
          "name": "",
          "type": "uint256"
        }
      ],
      "name": "roles",
      "outputs": [
        {
          "internalType": "string",
          "name": "",
          "type": "string"
        }
      ],
      "payable": false,
      "stateMutability": "view",
      "type": "function"
    },
    {
      "constant": true,
      "inputs": [],
      "name": "OWNER_ROLE",
      "outputs": [
        {
          "internalType": "string",
          "name": "",
          "type": "string"
        }
      ],
      "payable": false,
      "stateMutability": "view",
      "type": "function"
    },
    {
      "constant": true,
      "inputs": [
        {
          "internalType": "string",
          "name": "_role",
          "type": "string"
        },
        {
          "internalType": "address",
          "name": "_address",
          "type": "address"
        }
      ],
      "name": "isRoleAccessor",
      "outputs": [
        {
          "internalType": "bool",
          "name": "",
          "type": "bool"
        }
      ],
      "payable": false,
      "stateMutability": "view",
      "type": "function"
    },
    {
      "constant": true,
      "inputs": [],
      "name": "token",
      "outputs": [
        {
          "internalType": "contract ERC20",
          "name": "",
          "type": "address"
        }
      ],
      "payable": false,
      "stateMutability": "view",
      "type": "function"
    },
    {
      "inputs": [
        {
          "internalType": "address",
          "name": "_token",
          "type": "address"
        },
        {
          "internalType": "address",
          "name": "_operator",
          "type": "address"
        }
      ],
      "payable": false,
      "stateMutability": "nonpayable",
      "type": "constructor"
    },
    {
      "anonymous": false,
      "inputs": [
        {
          "indexed": true,
          "internalType": "address",
          "name": "_resolutionEngine",
          "type": "address"
        }
      ],
      "name": "ResolutionEngineSet",
      "type": "event"
    },
    {
      "anonymous": false,
      "inputs": [
        {
          "indexed": true,
          "internalType": "address",
          "name": "_wallet",
          "type": "address"
        },
        {
          "indexed": false,
          "internalType": "uint256",
          "name": "_amount",
          "type": "uint256"
        },
        {
          "indexed": false,
          "internalType": "uint256",
          "name": "_balance",
          "type": "uint256"
        }
      ],
      "name": "TokensDeposited",
      "type": "event"
    },
    {
      "anonymous": false,
      "inputs": [
        {
          "indexed": true,
          "internalType": "address",
          "name": "_wallet",
          "type": "address"
        },
        {
          "indexed": true,
          "internalType": "address",
          "name": "_allocator",
          "type": "address"
        },
        {
          "indexed": false,
          "internalType": "uint256",
          "name": "_amount",
          "type": "uint256"
        },
        {
          "indexed": false,
          "internalType": "uint256",
          "name": "_balance",
          "type": "uint256"
        }
      ],
      "name": "TokensAllocated",
      "type": "event"
    },
    {
      "anonymous": false,
      "inputs": [
        {
          "indexed": true,
          "internalType": "address",
          "name": "_wallet",
          "type": "address"
        },
        {
          "indexed": false,
          "internalType": "uint256",
          "name": "_amount",
          "type": "uint256"
        }
      ],
      "name": "Withdrawn",
      "type": "event"
    },
    {
      "anonymous": false,
      "inputs": [
        {
          "indexed": false,
          "internalType": "string",
          "name": "_role",
          "type": "string"
        }
      ],
      "name": "RoleAdded",
      "type": "event"
    },
    {
      "anonymous": false,
      "inputs": [
        {
          "indexed": false,
          "internalType": "string",
          "name": "_role",
          "type": "string"
        },
        {
          "indexed": true,
          "internalType": "address",
          "name": "_address",
          "type": "address"
        }
      ],
      "name": "RoleAccessorAdded",
      "type": "event"
    },
    {
      "anonymous": false,
      "inputs": [
        {
          "indexed": false,
          "internalType": "string",
          "name": "_role",
          "type": "string"
        },
        {
          "indexed": true,
          "internalType": "address",
          "name": "_address",
          "type": "address"
        }
      ],
      "name": "RoleAccessorRemoved",
      "type": "event"
    },
    {
      "constant": false,
      "inputs": [
        {
          "internalType": "address",
          "name": "_resolutionEngine",
          "type": "address"
        }
      ],
      "name": "setResolutionEngine",
      "outputs": [],
      "payable": false,
      "stateMutability": "nonpayable",
      "type": "function"
    },
    {
      "constant": false,
      "inputs": [
        {
          "internalType": "uint256",
          "name": "_amount",
          "type": "uint256"
        }
      ],
      "name": "depositTokens",
      "outputs": [],
      "payable": false,
      "stateMutability": "nonpayable",
      "type": "function"
    },
    {
      "constant": false,
      "inputs": [
        {
          "internalType": "address",
          "name": "_allocator",
          "type": "address"
        }
      ],
      "name": "allocateTokens",
      "outputs": [
        {
          "internalType": "uint256",
          "name": "",
          "type": "uint256"
        }
      ],
      "payable": false,
      "stateMutability": "nonpayable",
      "type": "function"
    },
    {
      "constant": false,
      "inputs": [
        {
          "internalType": "address",
          "name": "_wallet",
          "type": "address"
        }
      ],
      "name": "withdraw",
      "outputs": [],
      "payable": false,
      "stateMutability": "nonpayable",
      "type": "function"
    }
  ],
  "bytecode": "0x60806040523480156200001157600080fd5b506040516200238b3803806200238b833981810160405260408110156200003757600080fd5b810190808051906020019092919080519060200190929190505050620000986040518060400160405280600581526020017f4f574e45520000000000000000000000000000000000000000000000000000008152506200016960201b60201c565b620000df6040518060400160405280600581526020017f4f574e4552000000000000000000000000000000000000000000000000000000815250336200020860201b60201c565b81600360006101000a81548173ffffffffffffffffffffffffffffffffffffffff021916908373ffffffffffffffffffffffffffffffffffffffff16021790555080600460006101000a81548173ffffffffffffffffffffffffffffffffffffffff021916908373ffffffffffffffffffffffffffffffffffffffff160217905550505062000538565b600160006200017e836200024860201b60201c565b8152602001908152602001600020546000141562000205576000819080600181540180825580915050906001820390600052602060002001600090919290919091509080519060200190620001d592919062000489565b505060008054905060016000620001f2846200024860201b60201c565b8152602001908152602001600020819055505b50565b62000244816002600062000222866200024860201b60201c565b8152602001908152602001600020620002c560201b62001b321790919060201c565b5050565b6000816040516020018082805190602001908083835b602083106200028357805182526020820191506020810190506020830392506200025e565b6001836020036101000a038019825116818451168082178552505050505050905001915050604051602081830303815290604052805190602001209050919050565b620002d78282620003a960201b60201c565b156200034b576040517f08c379a000000000000000000000000000000000000000000000000000000000815260040180806020018281038252601f8152602001807f526f6c65733a206163636f756e7420616c72656164792068617320726f6c650081525060200191505060405180910390fd5b60018260000160008373ffffffffffffffffffffffffffffffffffffffff1673ffffffffffffffffffffffffffffffffffffffff16815260200190815260200160002060006101000a81548160ff0219169083151502179055505050565b60008073ffffffffffffffffffffffffffffffffffffffff168273ffffffffffffffffffffffffffffffffffffffff16141562000432576040517f08c379a0000000000000000000000000000000000000000000000000000000008152600401808060200182810382526022815260200180620023696022913960400191505060405180910390fd5b8260000160008373ffffffffffffffffffffffffffffffffffffffff1673ffffffffffffffffffffffffffffffffffffffff16815260200190815260200160002060009054906101000a900460ff16905092915050565b828054600181600116156101000203166002900490600052602060002090601f016020900481019282601f10620004cc57805160ff1916838001178555620004fd565b82800160010185558215620004fd579182015b82811115620004fc578251825591602001919060010190620004df565b5b5090506200050c919062000510565b5090565b6200053591905b808211156200053157600081600090555060010162000517565b5090565b90565b611e2180620005486000396000f3fe608060405234801561001057600080fd5b50600436106100f55760003560e01c8063b8517dd811610097578063dd49756e11610066578063dd49756e14610677578063e58378bb146106a5578063fb535fd614610728578063fc0c546a1461081b576100f5565b8063b8517dd814610510578063bb7efd191461052e578063bfda4a4914610578578063cabfd1bf1461061f576100f5565b806351cff8d9116100d357806351cff8d914610363578063570ca735146103a75780635b0f833a146103f15780637d54a822146104cc576100f5565b80630f6c37de146100fa5780633e96e868146101cd5780634da195be14610288575b600080fd5b6101b36004803603602081101561011057600080fd5b810190808035906020019064010000000081111561012d57600080fd5b82018360208201111561013f57600080fd5b8035906020019184600183028401116401000000008311171561016157600080fd5b91908080601f016020809104026020016040519081016040528093929190818152602001838380828437600081840152601f19601f820116905080830192505050505050509192919290505050610865565b604051808215151515815260200191505060405180910390f35b610286600480360360208110156101e357600080fd5b810190808035906020019064010000000081111561020057600080fd5b82018360208201111561021257600080fd5b8035906020019184600183028401116401000000008311171561023457600080fd5b91908080601f016020809104026020016040519081016040528093929190818152602001838380828437600081840152601f19601f82011690508083019250505050505050919291929050505061088e565b005b6103616004803603604081101561029e57600080fd5b81019080803590602001906401000000008111156102bb57600080fd5b8201836020820111156102cd57600080fd5b803590602001918460018302840111640100000000831117156102ef57600080fd5b91908080601f016020809104026020016040519081016040528093929190818152602001838380828437600081840152601f19601f820116905080830192505050505050509192919290803573ffffffffffffffffffffffffffffffffffffffff1690602001909291905050506109cc565b005b6103a56004803603602081101561037957600080fd5b81019080803573ffffffffffffffffffffffffffffffffffffffff169060200190929190505050610b23565b005b6103af610dde565b604051808273ffffffffffffffffffffffffffffffffffffffff1673ffffffffffffffffffffffffffffffffffffffff16815260200191505060405180910390f35b6104ca6004803603604081101561040757600080fd5b810190808035906020019064010000000081111561042457600080fd5b82018360208201111561043657600080fd5b8035906020019184600183028401116401000000008311171561045857600080fd5b91908080601f016020809104026020016040519081016040528093929190818152602001838380828437600081840152601f19601f820116905080830192505050505050509192919290803573ffffffffffffffffffffffffffffffffffffffff169060200190929190505050610e04565b005b61050e600480360360208110156104e257600080fd5b81019080803573ffffffffffffffffffffffffffffffffffffffff169060200190929190505050610f7e565b005b610518611132565b6040518082815260200191505060405180910390f35b61053661113e565b604051808273ffffffffffffffffffffffffffffffffffffffff1673ffffffffffffffffffffffffffffffffffffffff16815260200191505060405180910390f35b6105a46004803603602081101561058e57600080fd5b8101908080359060200190929190505050611164565b6040518080602001828103825283818151815260200191508051906020019080838360005b838110156105e45780820151818401526020810190506105c9565b50505050905090810190601f1680156106115780820380516001836020036101000a031916815260200191505b509250505060405180910390f35b6106616004803603602081101561063557600080fd5b81019080803573ffffffffffffffffffffffffffffffffffffffff16906020019092919050505061121d565b6040518082815260200191505060405180910390f35b6106a36004803603602081101561068d57600080fd5b810190808035906020019092919050505061157e565b005b6106ad6117c9565b6040518080602001828103825283818151815260200191508051906020019080838360005b838110156106ed5780820151818401526020810190506106d2565b50505050905090810190601f16801561071a5780820380516001836020036101000a031916815260200191505b509250505060405180910390f35b6108016004803603604081101561073e57600080fd5b810190808035906020019064010000000081111561075b57600080fd5b82018360208201111561076d57600080fd5b8035906020019184600183028401116401000000008311171561078f57600080fd5b91908080601f016020809104026020016040519081016040528093929190818152602001838380828437600081840152601f19601f820116905080830192505050505050509192919290803573ffffffffffffffffffffffffffffffffffffffff169060200190929190505050611802565b604051808215151515815260200191505060405180910390f35b610823611839565b604051808273ffffffffffffffffffffffffffffffffffffffff1673ffffffffffffffffffffffffffffffffffffffff16815260200191505060405180910390f35b6000600160006108748461185f565b815260200190815260200160002054600014159050919050565b6040518060400160405280600581526020017f4f574e45520000000000000000000000000000000000000000000000000000008152506108ce8133611802565b610923576040517f08c379a000000000000000000000000000000000000000000000000000000000815260040180806020018281038252602a815260200180611d52602a913960400191505060405180910390fd5b61092c826118da565b7f22f30a094e2ed10e9a92ebac7a70b8e2ae3288d9b594db22587861bc8fef4eef826040518080602001828103825283818151815260200191508051906020019080838360005b8381101561098e578082015181840152602081019050610973565b50505050905090810190601f1680156109bb5780820380516001836020036101000a031916815260200191505b509250505060405180910390a15050565b6040518060400160405280600581526020017f4f574e4552000000000000000000000000000000000000000000000000000000815250610a0c8133611802565b610a61576040517f08c379a000000000000000000000000000000000000000000000000000000000815260040180806020018281038252602a815260200180611d52602a913960400191505060405180910390fd5b610a6b8383611966565b8173ffffffffffffffffffffffffffffffffffffffff167fafe42c64e42361a5193c84f3f11b6803e41dd901d473ee6faa72f43f8ab1f468846040518080602001828103825283818151815260200191508051906020019080838360005b83811015610ae4578082015181840152602081019050610ac9565b50505050905090810190601f168015610b115780820380516001836020036101000a031916815260200191505b509250505060405180910390a2505050565b600460009054906101000a900473ffffffffffffffffffffffffffffffffffffffff1673ffffffffffffffffffffffffffffffffffffffff163373ffffffffffffffffffffffffffffffffffffffff1614610bc9576040517f08c379a000000000000000000000000000000000000000000000000000000000815260040180806020018281038252602e815260200180611d9d602e913960400191505060405180910390fd5b6000600360009054906101000a900473ffffffffffffffffffffffffffffffffffffffff1673ffffffffffffffffffffffffffffffffffffffff166370a08231306040518263ffffffff1660e01b8152600401808273ffffffffffffffffffffffffffffffffffffffff1673ffffffffffffffffffffffffffffffffffffffff16815260200191505060206040518083038186803b158015610c6a57600080fd5b505afa158015610c7e573d6000803e3d6000fd5b505050506040513d6020811015610c9457600080fd5b81019080805190602001909291905050509050600360009054906101000a900473ffffffffffffffffffffffffffffffffffffffff1673ffffffffffffffffffffffffffffffffffffffff1663a9059cbb83836040518363ffffffff1660e01b8152600401808373ffffffffffffffffffffffffffffffffffffffff1673ffffffffffffffffffffffffffffffffffffffff16815260200182815260200192505050602060405180830381600087803b158015610d5057600080fd5b505af1158015610d64573d6000803e3d6000fd5b505050506040513d6020811015610d7a57600080fd5b8101908080519060200190929190505050508173ffffffffffffffffffffffffffffffffffffffff167f7084f5476618d8e60b11ef0d7d3f06914655adb8793e28ff7f018d4c76d505d5826040518082815260200191505060405180910390a25050565b600460009054906101000a900473ffffffffffffffffffffffffffffffffffffffff1681565b6040518060400160405280600581526020017f4f574e4552000000000000000000000000000000000000000000000000000000815250610e448133611802565b610e99576040517f08c379a000000000000000000000000000000000000000000000000000000000815260040180806020018281038252602a815260200180611d52602a913960400191505060405180910390fd5b610ec68260026000610eaa8761185f565b815260200190815260200160002061199790919063ffffffff16565b8173ffffffffffffffffffffffffffffffffffffffff167f3e3ea7a1060be276a52e916803e2f89e3478e263893fc3c0b4d5793dd6d5f032846040518080602001828103825283818151815260200191508051906020019080838360005b83811015610f3f578082015181840152602081019050610f24565b50505050905090810190601f168015610f6c5780820380516001836020036101000a031916815260200191505b509250505060405180910390a2505050565b8073ffffffffffffffffffffffffffffffffffffffff16600073ffffffffffffffffffffffffffffffffffffffff161415611004576040517f08c379a0000000000000000000000000000000000000000000000000000000008152600401808060200182810382526036815260200180611cea6036913960400191505060405180910390fd5b600560009054906101000a900473ffffffffffffffffffffffffffffffffffffffff1673ffffffffffffffffffffffffffffffffffffffff16600073ffffffffffffffffffffffffffffffffffffffff16146110ab576040517f08c379a0000000000000000000000000000000000000000000000000000000008152600401808060200182810382526032815260200180611d206032913960400191505060405180910390fd5b80600560006101000a81548173ffffffffffffffffffffffffffffffffffffffff021916908373ffffffffffffffffffffffffffffffffffffffff1602179055508073ffffffffffffffffffffffffffffffffffffffff167ff315c9bac28a61a4302d19c248f569b36c251477e26fb135146ded33fff5751060405160405180910390a250565b60008080549050905090565b600560009054906101000a900473ffffffffffffffffffffffffffffffffffffffff1681565b6000818154811061117157fe5b906000526020600020016000915090508054600181600116156101000203166002900480601f0160208091040260200160405190810160405280929190818152602001828054600181600116156101000203166002900480156112155780601f106111ea57610100808354040283529160200191611215565b820191906000526020600020905b8154815290600101906020018083116111f857829003601f168201915b505050505081565b6000600560009054906101000a900473ffffffffffffffffffffffffffffffffffffffff1673ffffffffffffffffffffffffffffffffffffffff163373ffffffffffffffffffffffffffffffffffffffff16146112c5576040517f08c379a0000000000000000000000000000000000000000000000000000000008152600401808060200182810382526037815260200180611cb36037913960400191505060405180910390fd5b60008273ffffffffffffffffffffffffffffffffffffffff1663abaa99166040518163ffffffff1660e01b815260040160206040518083038186803b15801561130d57600080fd5b505afa158015611321573d6000803e3d6000fd5b505050506040513d602081101561133757600080fd5b81019080805190602001909291905050509050600360009054906101000a900473ffffffffffffffffffffffffffffffffffffffff1673ffffffffffffffffffffffffffffffffffffffff1663a9059cbb33836040518363ffffffff1660e01b8152600401808373ffffffffffffffffffffffffffffffffffffffff1673ffffffffffffffffffffffffffffffffffffffff16815260200182815260200192505050602060405180830381600087803b1580156113f357600080fd5b505af1158015611407573d6000803e3d6000fd5b505050506040513d602081101561141d57600080fd5b8101908080519060200190929190505050508273ffffffffffffffffffffffffffffffffffffffff163373ffffffffffffffffffffffffffffffffffffffff167fb5dd370e02a9fd0a5f1a6d46f1fb2313da04ccef6c8b4e822062787ba71ac80f83600360009054906101000a900473ffffffffffffffffffffffffffffffffffffffff1673ffffffffffffffffffffffffffffffffffffffff166370a08231306040518263ffffffff1660e01b8152600401808273ffffffffffffffffffffffffffffffffffffffff1673ffffffffffffffffffffffffffffffffffffffff16815260200191505060206040518083038186803b15801561151e57600080fd5b505afa158015611532573d6000803e3d6000fd5b505050506040513d602081101561154857600080fd5b8101908080519060200190929190505050604051808381526020018281526020019250505060405180910390a380915050919050565b600360009054906101000a900473ffffffffffffffffffffffffffffffffffffffff1673ffffffffffffffffffffffffffffffffffffffff166323b872dd3330846040518463ffffffff1660e01b8152600401808473ffffffffffffffffffffffffffffffffffffffff1673ffffffffffffffffffffffffffffffffffffffff1681526020018373ffffffffffffffffffffffffffffffffffffffff1673ffffffffffffffffffffffffffffffffffffffff1681526020018281526020019350505050602060405180830381600087803b15801561165b57600080fd5b505af115801561166f573d6000803e3d6000fd5b505050506040513d602081101561168557600080fd5b8101908080519060200190929190505050503373ffffffffffffffffffffffffffffffffffffffff167ffdfdcf596161b0e81e3161597d46888dcc88bd83b22dcfb341c76377ca3bbc9e82600360009054906101000a900473ffffffffffffffffffffffffffffffffffffffff1673ffffffffffffffffffffffffffffffffffffffff166370a08231306040518263ffffffff1660e01b8152600401808273ffffffffffffffffffffffffffffffffffffffff1673ffffffffffffffffffffffffffffffffffffffff16815260200191505060206040518083038186803b15801561176f57600080fd5b505afa158015611783573d6000803e3d6000fd5b505050506040513d602081101561179957600080fd5b8101908080519060200190929190505050604051808381526020018281526020019250505060405180910390a250565b6040518060400160405280600581526020017f4f574e455200000000000000000000000000000000000000000000000000000081525081565b600061183182600260006118158761185f565b8152602001908152602001600020611a5490919063ffffffff16565b905092915050565b600360009054906101000a900473ffffffffffffffffffffffffffffffffffffffff1681565b6000816040516020018082805190602001908083835b602083106118985780518252602082019150602081019050602083039250611875565b6001836020036101000a038019825116818451168082178552505050505050905001915050604051602081830303815290604052805190602001209050919050565b600160006118e78361185f565b8152602001908152602001600020546000141561196357600081908060018154018082558091505090600182039060005260206000200160009091929091909150908051906020019061193b929190611c0d565b5050600080549050600160006119508461185f565b8152602001908152602001600020819055505b50565b61199381600260006119778661185f565b8152602001908152602001600020611b3290919063ffffffff16565b5050565b6119a18282611a54565b6119f6576040517f08c379a0000000000000000000000000000000000000000000000000000000008152600401808060200182810382526021815260200180611d7c6021913960400191505060405180910390fd5b60008260000160008373ffffffffffffffffffffffffffffffffffffffff1673ffffffffffffffffffffffffffffffffffffffff16815260200190815260200160002060006101000a81548160ff0219169083151502179055505050565b60008073ffffffffffffffffffffffffffffffffffffffff168273ffffffffffffffffffffffffffffffffffffffff161415611adb576040517f08c379a0000000000000000000000000000000000000000000000000000000008152600401808060200182810382526022815260200180611dcb6022913960400191505060405180910390fd5b8260000160008373ffffffffffffffffffffffffffffffffffffffff1673ffffffffffffffffffffffffffffffffffffffff16815260200190815260200160002060009054906101000a900460ff16905092915050565b611b3c8282611a54565b15611baf576040517f08c379a000000000000000000000000000000000000000000000000000000000815260040180806020018281038252601f8152602001807f526f6c65733a206163636f756e7420616c72656164792068617320726f6c650081525060200191505060405180910390fd5b60018260000160008373ffffffffffffffffffffffffffffffffffffffff1673ffffffffffffffffffffffffffffffffffffffff16815260200190815260200160002060006101000a81548160ff0219169083151502179055505050565b828054600181600116156101000203166002900490600052602060002090601f016020900481019282601f10611c4e57805160ff1916838001178555611c7c565b82800160010185558215611c7c579182015b82811115611c7b578251825591602001919060010190611c60565b5b509050611c899190611c8d565b5090565b611caf91905b80821115611cab576000816000905550600101611c93565b5090565b9056fe426f756e747946756e643a2073656e646572206973206e6f742074686520646566696e6564207265736f6c7574696f6e20656e67696e65426f756e747946756e643a207265736f6c7574696f6e20656e67696e6520617267756d656e74206973207a65726f2061646472657373426f756e747946756e643a207265736f6c7574696f6e20656e67696e652068617320616c7265616479206265656e207365745242414365643a2073656e646572206973206e6f74206163636573736f72206f662074686520726f6c65526f6c65733a206163636f756e7420646f6573206e6f74206861766520726f6c65426f756e747946756e643a2073656e646572206973206e6f742074686520646566696e6564206f70657261746f72526f6c65733a206163636f756e7420697320746865207a65726f2061646472657373a265627a7a72315820a1c0989b7b9af35ae2bccaf6b73aaf84ad1ac8c4115c53bccdb253c71b80217864736f6c634300050b0032526f6c65733a206163636f756e7420697320746865207a65726f2061646472657373",
  "source": "/*\n * Lottery oracle\n *\n * Copyright (C) 2017-2019 Hubii AS\n */\n\npragma solidity ^0.5.11;\n\nimport {RBACed} from \"./RBACed.sol\";\nimport {ERC20} from \"openzeppelin-solidity/contracts/token/ERC20/ERC20.sol\";\nimport {SafeMath} from \"openzeppelin-solidity/contracts/math/SafeMath.sol\";\nimport {Allocator} from \"./Allocator.sol\";\n\n/// @title BountyFund\n/// @author Jens Ivar Jrdre <jensivar@hubii.com>\n/// @notice A fund of bounties\ncontract BountyFund is RBACed {\n    using SafeMath for uint256;\n\n    event ResolutionEngineSet(address indexed _resolutionEngine);\n    event TokensDeposited(address indexed _wallet, uint256 _amount, uint256 _balance);\n    event TokensAllocated(address indexed _wallet, address indexed _allocator,\n        uint256 _amount, uint256 _balance);\n    event Withdrawn(address indexed _wallet, uint256 _amount);\n\n    ERC20 public token;\n\n    address public operator;\n    address public resolutionEngine;\n\n    /// @notice `msg.sender` will be added as accessor to the owner role\n    constructor(address _token, address _operator)\n    public\n    {\n        // Initialize token\n        token = ERC20(_token);\n\n        // Initialize operator\n        operator = _operator;\n    }\n\n    modifier onlyResolutionEngine() {\n        require(msg.sender == resolutionEngine, \"BountyFund: sender is not the defined resolution engine\");\n        _;\n    }\n\n    modifier onlyOperator() {\n        require(msg.sender == operator, \"BountyFund: sender is not the defined operator\");\n        _;\n    }\n\n    /// @notice Set the resolution engine of this bounty fund\n    /// @dev This function can only be called once\n    /// @param _resolutionEngine The address of the concerned resolution engine\n    function setResolutionEngine(address _resolutionEngine)\n    public\n    {\n        require(address(0) != _resolutionEngine, \"BountyFund: resolution engine argument is zero address\");\n        require(address(0) == resolutionEngine, \"BountyFund: resolution engine has already been set\");\n\n        // Update resolution engine\n        resolutionEngine = _resolutionEngine;\n\n        // Emit event\n        emit ResolutionEngineSet(_resolutionEngine);\n    }\n\n    /// @notice Deposit the amount of token\n    /// @dev Client has to do prior approval of the transfer for the given amount\n    /// @param _amount The amount to deposit\n    function depositTokens(uint256 _amount)\n    public\n    {\n        // Transfer tokens to this\n        token.transferFrom(msg.sender, address(this), _amount);\n\n        // Emit event\n        emit TokensDeposited(msg.sender, _amount, token.balanceOf(address(this)));\n    }\n\n    /// @notice Transfer the fraction of balance of token to msg.sender\n    /// @param _allocator The allocator that calculates the allocation\n    function allocateTokens(address _allocator)\n    public\n    onlyResolutionEngine\n    returns (uint256)\n    {\n        // Calculate amount to transfer\n        uint256 amount = Allocator(_allocator).allocate();\n\n        // Transfer tokens to sender\n        token.transfer(msg.sender, amount);\n\n        // Emit event\n        emit TokensAllocated(msg.sender, _allocator, amount, token.balanceOf(address(this)));\n\n        // Return calculated amount\n        return amount;\n    }\n\n    /// @notice Withdraw the to the given address\n    /// @param _wallet The recipient address of the bounty transfer\n    function withdraw(address _wallet)\n    public\n    onlyOperator\n    {\n        // Determine amount to transfer\n        uint256 amount = token.balanceOf(address(this));\n\n        // Transfer tokens to wallet\n        token.transfer(_wallet, amount);\n\n        // Emit event\n        emit Withdrawn(_wallet, amount);\n    }\n}\n",
  "sourcePath": "/opt/buildagent/work/9988d0feca52d9d9/contracts/BountyFund.sol",
  "compiler": {
    "name": "solc",
    "version": "0.5.11+commit.c082d0b4.Emscripten.clang"
  },
  "schemaVersion": "3.0.16",
  "updatedAt": "2019-09-26T12:53:50.208Z",
  "devdoc": {
    "author": "Jens Ivar Jrdre <jensivar@hubii.com>",
    "methods": {
      "addRole(string)": {
        "params": {
          "_role": "The concerned role"
        }
      },
      "addRoleAccessor(string,address)": {
        "params": {
          "_address": "The concerned address",
          "_role": "The concerned role"
        }
      },
      "allocateTokens(address)": {
        "params": {
          "_allocator": "The allocator that calculates the allocation"
        }
      },
      "depositTokens(uint256)": {
        "details": "Client has to do prior approval of the transfer for the given amount",
        "params": {
          "_amount": "The amount to deposit"
        }
      },
      "isRole(string)": {
        "params": {
          "_role": "The concerned role"
        },
        "return": "true if role has been set, else false"
      },
      "isRoleAccessor(string,address)": {
        "params": {
          "_address": "The concerned address",
          "_role": "The concerned role"
        },
        "return": "true if address is the one of a registered accessor of role, else false"
      },
      "removeRoleAccessor(string,address)": {
        "params": {
          "_address": "The concerned address",
          "_role": "The concerned role"
        }
      },
      "rolesCount()": {
        "return": "the count of roles"
      },
      "setResolutionEngine(address)": {
        "details": "This function can only be called once",
        "params": {
          "_resolutionEngine": "The address of the concerned resolution engine"
        }
      },
      "withdraw(address)": {
        "params": {
          "_wallet": "The recipient address of the bounty transfer"
        }
      }
    },
    "title": "BountyFund"
  },
  "userdoc": {
    "methods": {
      "addRole(string)": {
        "notice": "Add role"
      },
      "addRoleAccessor(string,address)": {
        "notice": "Register an address as accessor of a role"
      },
      "allocateTokens(address)": {
        "notice": "Transfer the fraction of balance of token to msg.sender"
      },
      "constructor": "`msg.sender` will be added as accessor to the owner role",
      "depositTokens(uint256)": {
        "notice": "Deposit the amount of token"
      },
      "isRole(string)": {
        "notice": "Gauge whether a role is set"
      },
      "isRoleAccessor(string,address)": {
        "notice": "Gauge whether an address is an accessor of a role"
      },
      "removeRoleAccessor(string,address)": {
        "notice": "Deregister an address as accessor of a role"
      },
      "rolesCount()": {
        "notice": "Get the count of roles"
      },
      "setResolutionEngine(address)": {
        "notice": "Set the resolution engine of this bounty fund"
      },
      "withdraw(address)": {
        "notice": "Withdraw the to the given address"
      }
    },
    "notice": "A fund of bounties"
  }
}