{
  "contractName": "BountyFund",
  "abi": [
    {
      "constant": true,
      "inputs": [],
      "name": "PARTS_PER",
      "outputs": [
        {
          "name": "",
          "type": "uint256"
        }
      ],
      "payable": false,
      "stateMutability": "view",
      "type": "function",
      "signature": "0x00a12333"
    },
    {
      "constant": true,
      "inputs": [
        {
          "name": "_role",
          "type": "string"
        }
      ],
      "name": "isRole",
      "outputs": [
        {
          "name": "",
          "type": "bool"
        }
      ],
      "payable": false,
      "stateMutability": "view",
      "type": "function",
      "signature": "0x0f6c37de"
    },
    {
      "constant": false,
      "inputs": [
        {
          "name": "_role",
          "type": "string"
        }
      ],
      "name": "addRole",
      "outputs": [],
      "payable": false,
      "stateMutability": "nonpayable",
      "type": "function",
      "signature": "0x3e96e868"
    },
    {
      "constant": false,
      "inputs": [
        {
          "name": "_role",
          "type": "string"
        },
        {
          "name": "_address",
          "type": "address"
        }
      ],
      "name": "addRoleAccessor",
      "outputs": [],
      "payable": false,
      "stateMutability": "nonpayable",
      "type": "function",
      "signature": "0x4da195be"
    },
    {
      "constant": false,
      "inputs": [
        {
          "name": "_role",
          "type": "string"
        },
        {
          "name": "_address",
          "type": "address"
        }
      ],
      "name": "removeRoleAccessor",
      "outputs": [],
      "payable": false,
      "stateMutability": "nonpayable",
      "type": "function",
      "signature": "0x5b0f833a"
    },
    {
      "constant": true,
      "inputs": [],
      "name": "rolesCount",
      "outputs": [
        {
          "name": "",
          "type": "uint256"
        }
      ],
      "payable": false,
      "stateMutability": "view",
      "type": "function",
      "signature": "0xb8517dd8"
    },
    {
      "constant": true,
      "inputs": [],
      "name": "resolutionEngine",
      "outputs": [
        {
          "name": "",
          "type": "address"
        }
      ],
      "payable": false,
      "stateMutability": "view",
      "type": "function",
      "signature": "0xbb7efd19"
    },
    {
      "constant": true,
      "inputs": [
        {
          "name": "",
          "type": "uint256"
        }
      ],
      "name": "roles",
      "outputs": [
        {
          "name": "",
          "type": "string"
        }
      ],
      "payable": false,
      "stateMutability": "view",
      "type": "function",
      "signature": "0xbfda4a49"
    },
    {
      "constant": true,
      "inputs": [],
      "name": "OWNER_ROLE",
      "outputs": [
        {
          "name": "",
          "type": "string"
        }
      ],
      "payable": false,
      "stateMutability": "view",
      "type": "function",
      "signature": "0xe58378bb"
    },
    {
      "constant": true,
      "inputs": [
        {
          "name": "_role",
          "type": "string"
        },
        {
          "name": "_address",
          "type": "address"
        }
      ],
      "name": "isRoleAccessor",
      "outputs": [
        {
          "name": "",
          "type": "bool"
        }
      ],
      "payable": false,
      "stateMutability": "view",
      "type": "function",
      "signature": "0xfb535fd6"
    },
    {
      "constant": true,
      "inputs": [],
      "name": "token",
      "outputs": [
        {
          "name": "",
          "type": "address"
        }
      ],
      "payable": false,
      "stateMutability": "view",
      "type": "function",
      "signature": "0xfc0c546a"
    },
    {
      "inputs": [
        {
          "name": "_token",
          "type": "address"
        }
      ],
      "payable": false,
      "stateMutability": "nonpayable",
      "type": "constructor",
      "signature": "constructor"
    },
    {
      "anonymous": false,
      "inputs": [
        {
          "indexed": true,
          "name": "_resolutionEngine",
          "type": "address"
        }
      ],
      "name": "ResolutionEngineSet",
      "type": "event",
      "signature": "0xf315c9bac28a61a4302d19c248f569b36c251477e26fb135146ded33fff57510"
    },
    {
      "anonymous": false,
      "inputs": [
        {
          "indexed": true,
          "name": "_wallet",
          "type": "address"
        },
        {
          "indexed": false,
          "name": "_amount",
          "type": "uint256"
        },
        {
          "indexed": false,
          "name": "_balance",
          "type": "uint256"
        }
      ],
      "name": "TokensDeposited",
      "type": "event",
      "signature": "0xfdfdcf596161b0e81e3161597d46888dcc88bd83b22dcfb341c76377ca3bbc9e"
    },
    {
      "anonymous": false,
      "inputs": [
        {
          "indexed": true,
          "name": "_wallet",
          "type": "address"
        },
        {
          "indexed": false,
          "name": "_amount",
          "type": "uint256"
        },
        {
          "indexed": false,
          "name": "_balance",
          "type": "uint256"
        }
      ],
      "name": "TokensWithdrawn",
      "type": "event",
      "signature": "0xffe903c0abe6b2dbb2f3474ef43d7a3c1fca49e5a774453423ca8e1952aabffa"
    },
    {
      "anonymous": false,
      "inputs": [
        {
          "indexed": false,
          "name": "_role",
          "type": "string"
        }
      ],
      "name": "RoleAdded",
      "type": "event",
      "signature": "0x22f30a094e2ed10e9a92ebac7a70b8e2ae3288d9b594db22587861bc8fef4eef"
    },
    {
      "anonymous": false,
      "inputs": [
        {
          "indexed": false,
          "name": "_role",
          "type": "string"
        },
        {
          "indexed": true,
          "name": "_address",
          "type": "address"
        }
      ],
      "name": "RoleAccessorAdded",
      "type": "event",
      "signature": "0xafe42c64e42361a5193c84f3f11b6803e41dd901d473ee6faa72f43f8ab1f468"
    },
    {
      "anonymous": false,
      "inputs": [
        {
          "indexed": false,
          "name": "_role",
          "type": "string"
        },
        {
          "indexed": true,
          "name": "_address",
          "type": "address"
        }
      ],
      "name": "RoleAccessorRemoved",
      "type": "event",
      "signature": "0x3e3ea7a1060be276a52e916803e2f89e3478e263893fc3c0b4d5793dd6d5f032"
    },
    {
      "constant": false,
      "inputs": [
        {
          "name": "_resolutionEngine",
          "type": "address"
        }
      ],
      "name": "setResolutionEngine",
      "outputs": [],
      "payable": false,
      "stateMutability": "nonpayable",
      "type": "function",
      "signature": "0x7d54a822"
    },
    {
      "constant": false,
      "inputs": [
        {
          "name": "_amount",
          "type": "uint256"
        }
      ],
      "name": "depositTokens",
      "outputs": [],
      "payable": false,
      "stateMutability": "nonpayable",
      "type": "function",
      "signature": "0xdd49756e"
    },
    {
      "constant": false,
      "inputs": [
        {
          "name": "_fraction",
          "type": "uint256"
        }
      ],
      "name": "withdrawTokens",
      "outputs": [
        {
          "name": "",
          "type": "uint256"
        }
      ],
      "payable": false,
      "stateMutability": "nonpayable",
      "type": "function",
      "signature": "0x315a095d"
    }
  ],
  "bytecode": "0x60806040523480156200001157600080fd5b5060405160208062001bf983398101806040528101908080519060200190929190505050620000846040805190810160405280600581526020017f4f574e45520000000000000000000000000000000000000000000000000000008152506200011c640100000000026401000000009004565b620000d46040805190810160405280600581526020017f4f574e455200000000000000000000000000000000000000000000000000000081525033620001dd640100000000026401000000009004565b80600360006101000a81548173ffffffffffffffffffffffffffffffffffffffff021916908373ffffffffffffffffffffffffffffffffffffffff160217905550506200045d565b600160006200013a8362000237640100000000026401000000009004565b600019166000191681526020019081526020016000205460001415620001da57600081908060018154018082558091505090600182039060005260206000200160009091929091909150908051906020019062000199929190620003ae565b505060008054905060016000620001bf8462000237640100000000026401000000009004565b60001916600019168152602001908152602001600020819055505b50565b620002338160026000620002008662000237640100000000026401000000009004565b60001916600019168152602001908152602001600020620003136401000000000262001621179091906401000000009004565b5050565b6000816040516020018082805190602001908083835b6020831015156200027457805182526020820191506020810190506020830392506200024d565b6001836020036101000a0380198251168184511680821785525050505050509050019150506040516020818303038152906040526040518082805190602001908083835b602083101515620002df5780518252602082019150602081019050602083039250620002b8565b6001836020036101000a03801982511681845116808217855250505050505090500191505060405180910390209050919050565b600073ffffffffffffffffffffffffffffffffffffffff168173ffffffffffffffffffffffffffffffffffffffff16141515156200035057600080fd5b60018260000160008373ffffffffffffffffffffffffffffffffffffffff1673ffffffffffffffffffffffffffffffffffffffff16815260200190815260200160002060006101000a81548160ff0219169083151502179055505050565b828054600181600116156101000203166002900490600052602060002090601f016020900481019282601f10620003f157805160ff191683800117855562000422565b8280016001018555821562000422579182015b828111156200042157825182559160200191906001019062000404565b5b50905062000431919062000435565b5090565b6200045a91905b80821115620004565760008160009055506001016200043c565b5090565b90565b61178c806200046d6000396000f3006080604052600436106100cf576000357c0100000000000000000000000000000000000000000000000000000000900463ffffffff168062a12333146100d45780630f6c37de146100ff578063315a095d146101805780633e96e868146101c15780634da195be1461022a5780635b0f833a146102b35780637d54a8221461033c578063b8517dd81461037f578063bb7efd19146103aa578063bfda4a4914610401578063dd49756e146104a7578063e58378bb146104d4578063fb535fd614610564578063fc0c546a14610605575b600080fd5b3480156100e057600080fd5b506100e961065c565b6040518082815260200191505060405180910390f35b34801561010b57600080fd5b50610166600480360381019080803590602001908201803590602001908080601f0160208091040260200160405190810160405280939291908181526020018383808284378201915050505050509192919290505050610668565b604051808215151515815260200191505060405180910390f35b34801561018c57600080fd5b506101ab60048036038101908080359060200190929190505050610699565b6040518082815260200191505060405180910390f35b3480156101cd57600080fd5b50610228600480360381019080803590602001908201803590602001908080601f0160208091040260200160405190810160405280939291908181526020018383808284378201915050505050509192919290505050610a75565b005b34801561023657600080fd5b506102b1600480360381019080803590602001908201803590602001908080601f0160208091040260200160405190810160405280939291908181526020018383808284378201915050505050509192919290803573ffffffffffffffffffffffffffffffffffffffff169060200190929190505050610b69565b005b3480156102bf57600080fd5b5061033a600480360381019080803590602001908201803590602001908080601f0160208091040260200160405190810160405280939291908181526020018383808284378201915050505050509192919290803573ffffffffffffffffffffffffffffffffffffffff169060200190929190505050610c76565b005b34801561034857600080fd5b5061037d600480360381019080803573ffffffffffffffffffffffffffffffffffffffff169060200190929190505050610dae565b005b34801561038b57600080fd5b50610394610ece565b6040518082815260200191505060405180910390f35b3480156103b657600080fd5b506103bf610eda565b604051808273ffffffffffffffffffffffffffffffffffffffff1673ffffffffffffffffffffffffffffffffffffffff16815260200191505060405180910390f35b34801561040d57600080fd5b5061042c60048036038101908080359060200190929190505050610f00565b6040518080602001828103825283818151815260200191508051906020019080838360005b8381101561046c578082015181840152602081019050610451565b50505050905090810190601f1680156104995780820380516001836020036101000a031916815260200191505b509250505060405180910390f35b3480156104b357600080fd5b506104d260048036038101908080359060200190929190505050610fbb565b005b3480156104e057600080fd5b506104e9611240565b6040518080602001828103825283818151815260200191508051906020019080838360005b8381101561052957808201518184015260208101905061050e565b50505050905090810190601f1680156105565780820380516001836020036101000a031916815260200191505b509250505060405180910390f35b34801561057057600080fd5b506105eb600480360381019080803590602001908201803590602001908080601f0160208091040260200160405190810160405280939291908181526020018383808284378201915050505050509192919290803573ffffffffffffffffffffffffffffffffffffffff169060200190929190505050611279565b604051808215151515815260200191505060405180910390f35b34801561061157600080fd5b5061061a6112b8565b604051808273ffffffffffffffffffffffffffffffffffffffff1673ffffffffffffffffffffffffffffffffffffffff16815260200191505060405180910390f35b670de0b6b3a764000081565b600060016000610677846112de565b6000191660001916815260200190815260200160002054600014159050919050565b600080600460009054906101000a900473ffffffffffffffffffffffffffffffffffffffff1673ffffffffffffffffffffffffffffffffffffffff163373ffffffffffffffffffffffffffffffffffffffff161415156106f857600080fd5b61081c670de0b6b3a764000061080e85600360009054906101000a900473ffffffffffffffffffffffffffffffffffffffff1673ffffffffffffffffffffffffffffffffffffffff166370a08231306040518263ffffffff167c0100000000000000000000000000000000000000000000000000000000028152600401808273ffffffffffffffffffffffffffffffffffffffff1673ffffffffffffffffffffffffffffffffffffffff168152602001915050602060405180830381600087803b1580156107c557600080fd5b505af11580156107d9573d6000803e3d6000fd5b505050506040513d60208110156107ef57600080fd5b81019080805190602001909291905050506113b690919063ffffffff16565b6113f490919063ffffffff16565b9050600360009054906101000a900473ffffffffffffffffffffffffffffffffffffffff1673ffffffffffffffffffffffffffffffffffffffff1663a9059cbb33836040518363ffffffff167c0100000000000000000000000000000000000000000000000000000000028152600401808373ffffffffffffffffffffffffffffffffffffffff1673ffffffffffffffffffffffffffffffffffffffff16815260200182815260200192505050602060405180830381600087803b1580156108e357600080fd5b505af11580156108f7573d6000803e3d6000fd5b505050506040513d602081101561090d57600080fd5b8101908080519060200190929190505050503373ffffffffffffffffffffffffffffffffffffffff167fffe903c0abe6b2dbb2f3474ef43d7a3c1fca49e5a774453423ca8e1952aabffa82600360009054906101000a900473ffffffffffffffffffffffffffffffffffffffff1673ffffffffffffffffffffffffffffffffffffffff166370a08231306040518263ffffffff167c0100000000000000000000000000000000000000000000000000000000028152600401808273ffffffffffffffffffffffffffffffffffffffff1673ffffffffffffffffffffffffffffffffffffffff168152602001915050602060405180830381600087803b158015610a1557600080fd5b505af1158015610a29573d6000803e3d6000fd5b505050506040513d6020811015610a3f57600080fd5b8101908080519060200190929190505050604051808381526020018281526020019250505060405180910390a280915050919050565b6040805190810160405280600581526020017f4f574e4552000000000000000000000000000000000000000000000000000000815250610ab58133611279565b1515610ac057600080fd5b610ac98261141e565b7f22f30a094e2ed10e9a92ebac7a70b8e2ae3288d9b594db22587861bc8fef4eef826040518080602001828103825283818151815260200191508051906020019080838360005b83811015610b2b578082015181840152602081019050610b10565b50505050905090810190601f168015610b585780820380516001836020036101000a031916815260200191505b509250505060405180910390a15050565b6040805190810160405280600581526020017f4f574e4552000000000000000000000000000000000000000000000000000000815250610ba98133611279565b1515610bb457600080fd5b610bbe83836114ba565b8173ffffffffffffffffffffffffffffffffffffffff167fafe42c64e42361a5193c84f3f11b6803e41dd901d473ee6faa72f43f8ab1f468846040518080602001828103825283818151815260200191508051906020019080838360005b83811015610c37578082015181840152602081019050610c1c565b50505050905090810190601f168015610c645780820380516001836020036101000a031916815260200191505b509250505060405180910390a2505050565b6040805190810160405280600581526020017f4f574e4552000000000000000000000000000000000000000000000000000000815250610cb68133611279565b1515610cc157600080fd5b610cf68260026000610cd2876112de565b600019166000191681526020019081526020016000206114f390919063ffffffff16565b8173ffffffffffffffffffffffffffffffffffffffff167f3e3ea7a1060be276a52e916803e2f89e3478e263893fc3c0b4d5793dd6d5f032846040518080602001828103825283818151815260200191508051906020019080838360005b83811015610d6f578082015181840152602081019050610d54565b50505050905090810190601f168015610d9c5780820380516001836020036101000a031916815260200191505b509250505060405180910390a2505050565b8073ffffffffffffffffffffffffffffffffffffffff16600073ffffffffffffffffffffffffffffffffffffffff1614151515610dea57600080fd5b600460009054906101000a900473ffffffffffffffffffffffffffffffffffffffff1673ffffffffffffffffffffffffffffffffffffffff16600073ffffffffffffffffffffffffffffffffffffffff16141515610e4757600080fd5b80600460006101000a81548173ffffffffffffffffffffffffffffffffffffffff021916908373ffffffffffffffffffffffffffffffffffffffff1602179055508073ffffffffffffffffffffffffffffffffffffffff167ff315c9bac28a61a4302d19c248f569b36c251477e26fb135146ded33fff5751060405160405180910390a250565b60008080549050905090565b600460009054906101000a900473ffffffffffffffffffffffffffffffffffffffff1681565b600081815481101515610f0f57fe5b906000526020600020016000915090508054600181600116156101000203166002900480601f016020809104026020016040519081016040528092919081815260200182805460018160011615610100020316600290048015610fb35780601f10610f8857610100808354040283529160200191610fb3565b820191906000526020600020905b815481529060010190602001808311610f9657829003601f168201915b505050505081565b600360009054906101000a900473ffffffffffffffffffffffffffffffffffffffff1673ffffffffffffffffffffffffffffffffffffffff166323b872dd3330846040518463ffffffff167c0100000000000000000000000000000000000000000000000000000000028152600401808473ffffffffffffffffffffffffffffffffffffffff1673ffffffffffffffffffffffffffffffffffffffff1681526020018373ffffffffffffffffffffffffffffffffffffffff1673ffffffffffffffffffffffffffffffffffffffff1681526020018281526020019350505050602060405180830381600087803b1580156110b457600080fd5b505af11580156110c8573d6000803e3d6000fd5b505050506040513d60208110156110de57600080fd5b8101908080519060200190929190505050503373ffffffffffffffffffffffffffffffffffffffff167ffdfdcf596161b0e81e3161597d46888dcc88bd83b22dcfb341c76377ca3bbc9e82600360009054906101000a900473ffffffffffffffffffffffffffffffffffffffff1673ffffffffffffffffffffffffffffffffffffffff166370a08231306040518263ffffffff167c0100000000000000000000000000000000000000000000000000000000028152600401808273ffffffffffffffffffffffffffffffffffffffff1673ffffffffffffffffffffffffffffffffffffffff168152602001915050602060405180830381600087803b1580156111e657600080fd5b505af11580156111fa573d6000803e3d6000fd5b505050506040513d602081101561121057600080fd5b8101908080519060200190929190505050604051808381526020018281526020019250505060405180910390a250565b6040805190810160405280600581526020017f4f574e455200000000000000000000000000000000000000000000000000000081525081565b60006112b0826002600061128c876112de565b6000191660001916815260200190815260200160002061158d90919063ffffffff16565b905092915050565b600360009054906101000a900473ffffffffffffffffffffffffffffffffffffffff1681565b6000816040516020018082805190602001908083835b60208310151561131957805182526020820191506020810190506020830392506112f4565b6001836020036101000a0380198251168184511680821785525050505050509050019150506040516020818303038152906040526040518082805190602001908083835b602083101515611382578051825260208201915060208101905060208303925061135d565b6001836020036101000a03801982511681845116808217855250505050505090500191505060405180910390209050919050565b60008060008414156113cb57600091506113ed565b82840290508284828115156113dc57fe5b041415156113e957600080fd5b8091505b5092915050565b60008060008311151561140657600080fd5b828481151561141157fe5b0490508091505092915050565b6001600061142b836112de565b6000191660001916815260200190815260200160002054600014156114b75760008190806001815401808255809150509060018203906000526020600020016000909192909190915090805190602001906114879291906116bb565b50506000805490506001600061149c846112de565b60001916600019168152602001908152602001600020819055505b50565b6114ef81600260006114cb866112de565b6000191660001916815260200190815260200160002061162190919063ffffffff16565b5050565b600073ffffffffffffffffffffffffffffffffffffffff168173ffffffffffffffffffffffffffffffffffffffff161415151561152f57600080fd5b60008260000160008373ffffffffffffffffffffffffffffffffffffffff1673ffffffffffffffffffffffffffffffffffffffff16815260200190815260200160002060006101000a81548160ff0219169083151502179055505050565b60008073ffffffffffffffffffffffffffffffffffffffff168273ffffffffffffffffffffffffffffffffffffffff16141515156115ca57600080fd5b8260000160008373ffffffffffffffffffffffffffffffffffffffff1673ffffffffffffffffffffffffffffffffffffffff16815260200190815260200160002060009054906101000a900460ff16905092915050565b600073ffffffffffffffffffffffffffffffffffffffff168173ffffffffffffffffffffffffffffffffffffffff161415151561165d57600080fd5b60018260000160008373ffffffffffffffffffffffffffffffffffffffff1673ffffffffffffffffffffffffffffffffffffffff16815260200190815260200160002060006101000a81548160ff0219169083151502179055505050565b828054600181600116156101000203166002900490600052602060002090601f016020900481019282601f106116fc57805160ff191683800117855561172a565b8280016001018555821561172a579182015b8281111561172957825182559160200191906001019061170e565b5b509050611737919061173b565b5090565b61175d91905b80821115611759576000816000905550600101611741565b5090565b905600a165627a7a723058200886373460a202342271701df296b2122c8451ff9c04f2be36c3dd4789a2446e0029",
  "source": "/*\n * Lottery oracle\n *\n * Copyright (C) 2017-2018 Hubii AS\n */\n\npragma solidity ^0.4.25;\n\nimport {RBACed} from \"./RBACed.sol\";\nimport {ResolutionEngine} from \"./ResolutionEngine.sol\";\nimport {ERC20} from \"openzeppelin-solidity/contracts/token/ERC20/ERC20.sol\";\nimport {SafeMath} from \"openzeppelin-solidity/contracts/math/SafeMath.sol\";\n\n/// @title BountyFund\n/// @author Jens Ivar Jørdre <jensivar@hubii.com>\n/// @notice A fund of bounties\ncontract BountyFund is RBACed {\n    using SafeMath for uint256;\n\n    event ResolutionEngineSet(address indexed _resolutionEngine);\n    event TokensDeposited(address indexed _wallet, uint256 _amount, uint256 _balance);\n    event TokensWithdrawn(address indexed _wallet, uint256 _amount, uint256 _balance);\n\n    uint256 constant public PARTS_PER = 1e18;\n\n    ERC20 public token;\n    ResolutionEngine public resolutionEngine;\n\n    /// @notice `msg.sender` will be added as accessor to the owner role\n    constructor(address _token) public {\n        // Initialize token\n        token = ERC20(_token);\n    }\n\n    modifier onlyRegisteredResolutionEngine() {\n        require(msg.sender == address(resolutionEngine));\n        _;\n    }\n\n    /// @notice Set the resolution engine of this bounty fund\n    /// @dev This function can only be called once\n    /// @param _resolutionEngine The address of the concerned resolution engine\n    function setResolutionEngine(address _resolutionEngine) public {\n        require(address(0) != _resolutionEngine);\n        require(address(0) == address(resolutionEngine));\n\n        // Update resolution engine\n        resolutionEngine = ResolutionEngine(_resolutionEngine);\n\n        // Emit event\n        emit ResolutionEngineSet(_resolutionEngine);\n    }\n\n    /// @notice Deposit the amount of token\n    /// @dev Client has to do prior approval of the transfer of the given amount\n    /// @param _amount The amount to deposit\n    function depositTokens(uint256 _amount)\n    public\n    {\n        // Transfer tokens to this\n        token.transferFrom(msg.sender, this, _amount);\n\n        // Emit event\n        emit TokensDeposited(msg.sender, _amount, token.balanceOf(this));\n    }\n\n    /// @notice Transfer the fraction of balance of token to msg.sender\n    /// @dev The entirety from which _fraction is subset\n    /// @param _fraction The fraction of current balance to withdraw\n    function withdrawTokens(uint256 _fraction)\n    public\n    onlyRegisteredResolutionEngine\n    returns (uint256)\n    {\n        // Calculate amount to transfer\n        uint256 amount = token.balanceOf(this).mul(_fraction).div(PARTS_PER);\n\n        // Transfer tokens to sender\n        token.transfer(msg.sender, amount);\n\n        // Emit event\n        emit TokensWithdrawn(msg.sender, amount, token.balanceOf(this));\n\n        // Return calculated amount\n        return amount;\n    }\n}\n",
  "sourcePath": "/opt/buildagent/work/9988d0feca52d9d9/contracts/BountyFund.sol",
  "compiler": {
    "name": "solc",
    "version": "0.4.25+commit.59dbf8f1.Emscripten.clang"
  },
  "schemaVersion": "3.0.0-beta.1",
  "updatedAt": "2018-10-03T16:03:08.689Z"
}