{
  "contractName": "ConstantsLib",
  "abi": [
    {
      "constant": true,
      "inputs": [],
      "name": "PARTS_PER",
      "outputs": [
        {
          "internalType": "uint256",
          "name": "",
          "type": "uint256"
        }
      ],
      "payable": false,
      "stateMutability": "pure",
      "type": "function"
    }
  ],
  "bytecode": "0x6098610024600b82828239805160001a607314601757fe5b30600052607381538281f3fe730000000000000000000000000000000000000000301460806040526004361060325760003560e01c8062a12333146037575b600080fd5b603d6053565b6040518082815260200191505060405180910390f35b6000670de0b6b3a764000090509056fea265627a7a723158201ea1d825cae346735619d8964dd2a016284f38ea68c05d83b7b7d1c13afc522464736f6c634300050b0032",
  "source": "/*\n * Lottery oracle\n *\n * Copyright (C) 2017-2019 Hubii AS\n */\n\npragma solidity ^0.5.11;\n\nlibrary ConstantsLib {\n    // Get the fraction that represents the entirety, equivalent of 100%\n    function PARTS_PER()\n    public\n    pure\n    returns (uint256)\n    {\n        return 1e18;\n    }\n}",
  "sourcePath": "/opt/buildagent/work/9988d0feca52d9d9/contracts/ConstantsLib.sol",
  "compiler": {
    "name": "solc",
    "version": "0.5.11+commit.c082d0b4.Emscripten.clang"
  },
  "schemaVersion": "3.0.16",
  "updatedAt": "2019-10-04T09:26:54.537Z",
  "devdoc": {
    "methods": {}
  },
  "userdoc": {
    "methods": {}
  }
}