{
  "contractName": "FractionalBalanceAllocatorFactory",
  "abi": [
    {
      "constant": true,
      "inputs": [
        {
          "internalType": "string",
          "name": "_role",
          "type": "string"
        }
      ],
      "name": "isRole",
      "outputs": [
        {
          "internalType": "bool",
          "name": "",
          "type": "bool"
        }
      ],
      "payable": false,
      "stateMutability": "view",
      "type": "function"
    },
    {
      "constant": false,
      "inputs": [
        {
          "internalType": "string",
          "name": "_role",
          "type": "string"
        }
      ],
      "name": "addRole",
      "outputs": [],
      "payable": false,
      "stateMutability": "nonpayable",
      "type": "function"
    },
    {
      "constant": false,
      "inputs": [
        {
          "internalType": "string",
          "name": "_role",
          "type": "string"
        },
        {
          "internalType": "address",
          "name": "_address",
          "type": "address"
        }
      ],
      "name": "addRoleAccessor",
      "outputs": [],
      "payable": false,
      "stateMutability": "nonpayable",
      "type": "function"
    },
    {
      "constant": false,
      "inputs": [
        {
          "internalType": "string",
          "name": "_role",
          "type": "string"
        },
        {
          "internalType": "address",
          "name": "_address",
          "type": "address"
        }
      ],
      "name": "removeRoleAccessor",
      "outputs": [],
      "payable": false,
      "stateMutability": "nonpayable",
      "type": "function"
    },
    {
      "constant": true,
      "inputs": [
        {
          "internalType": "uint256",
          "name": "",
          "type": "uint256"
        }
      ],
      "name": "instances",
      "outputs": [
        {
          "internalType": "address",
          "name": "",
          "type": "address"
        }
      ],
      "payable": false,
      "stateMutability": "view",
      "type": "function"
    },
    {
      "constant": true,
      "inputs": [],
      "name": "rolesCount",
      "outputs": [
        {
          "internalType": "uint256",
          "name": "",
          "type": "uint256"
        }
      ],
      "payable": false,
      "stateMutability": "view",
      "type": "function"
    },
    {
      "constant": true,
      "inputs": [
        {
          "internalType": "uint256",
          "name": "",
          "type": "uint256"
        }
      ],
      "name": "roles",
      "outputs": [
        {
          "internalType": "string",
          "name": "",
          "type": "string"
        }
      ],
      "payable": false,
      "stateMutability": "view",
      "type": "function"
    },
    {
      "constant": true,
      "inputs": [],
      "name": "OWNER_ROLE",
      "outputs": [
        {
          "internalType": "string",
          "name": "",
          "type": "string"
        }
      ],
      "payable": false,
      "stateMutability": "view",
      "type": "function"
    },
    {
      "constant": true,
      "inputs": [
        {
          "internalType": "string",
          "name": "_role",
          "type": "string"
        },
        {
          "internalType": "address",
          "name": "_address",
          "type": "address"
        }
      ],
      "name": "isRoleAccessor",
      "outputs": [
        {
          "internalType": "bool",
          "name": "",
          "type": "bool"
        }
      ],
      "payable": false,
      "stateMutability": "view",
      "type": "function"
    },
    {
      "anonymous": false,
      "inputs": [
        {
          "indexed": true,
          "internalType": "address",
          "name": "_fractionalBalanceAllocator",
          "type": "address"
        }
      ],
      "name": "Created",
      "type": "event"
    },
    {
      "anonymous": false,
      "inputs": [
        {
          "indexed": false,
          "internalType": "string",
          "name": "_role",
          "type": "string"
        }
      ],
      "name": "RoleAdded",
      "type": "event"
    },
    {
      "anonymous": false,
      "inputs": [
        {
          "indexed": false,
          "internalType": "string",
          "name": "_role",
          "type": "string"
        },
        {
          "indexed": true,
          "internalType": "address",
          "name": "_address",
          "type": "address"
        }
      ],
      "name": "RoleAccessorAdded",
      "type": "event"
    },
    {
      "anonymous": false,
      "inputs": [
        {
          "indexed": false,
          "internalType": "string",
          "name": "_role",
          "type": "string"
        },
        {
          "indexed": true,
          "internalType": "address",
          "name": "_address",
          "type": "address"
        }
      ],
      "name": "RoleAccessorRemoved",
      "type": "event"
    },
    {
      "constant": false,
      "inputs": [
        {
          "internalType": "uint256",
          "name": "_fraction",
          "type": "uint256"
        }
      ],
      "name": "create",
      "outputs": [
        {
          "internalType": "address",
          "name": "",
          "type": "address"
        }
      ],
      "payable": false,
      "stateMutability": "nonpayable",
      "type": "function"
    },
    {
      "constant": true,
      "inputs": [],
      "name": "instancesCount",
      "outputs": [
        {
          "internalType": "uint256",
          "name": "",
          "type": "uint256"
        }
      ],
      "payable": false,
      "stateMutability": "view",
      "type": "function"
    },
    {
      "constant": true,
      "inputs": [],
      "name": "allInstances",
      "outputs": [
        {
          "internalType": "address[]",
          "name": "",
          "type": "address[]"
        }
      ],
      "payable": false,
      "stateMutability": "view",
      "type": "function"
    }
  ],
  "bytecode": "0x60806040526200004a6040518060400160405280600581526020017f4f574e45520000000000000000000000000000000000000000000000000000008152506200009760201b60201c565b620000916040518060400160405280600581526020017f4f574e4552000000000000000000000000000000000000000000000000000000815250336200013660201b60201c565b62000466565b60016000620000ac836200017660201b60201c565b815260200190815260200160002054600014156200013357600081908060018154018082558091505090600182039060005260206000200160009091929091909150908051906020019062000103929190620003b7565b50506000805490506001600062000120846200017660201b60201c565b8152602001908152602001600020819055505b50565b62000172816002600062000150866200017660201b60201c565b8152602001908152602001600020620001f360201b620011991790919060201c565b5050565b6000816040516020018082805190602001908083835b60208310620001b157805182526020820191506020810190506020830392506200018c565b6001836020036101000a038019825116818451168082178552505050505050905001915050604051602081830303815290604052805190602001209050919050565b620002058282620002d760201b60201c565b1562000279576040517f08c379a000000000000000000000000000000000000000000000000000000000815260040180806020018281038252601f8152602001807f526f6c65733a206163636f756e7420616c72656164792068617320726f6c650081525060200191505060405180910390fd5b60018260000160008373ffffffffffffffffffffffffffffffffffffffff1673ffffffffffffffffffffffffffffffffffffffff16815260200190815260200160002060006101000a81548160ff0219169083151502179055505050565b60008073ffffffffffffffffffffffffffffffffffffffff168273ffffffffffffffffffffffffffffffffffffffff16141562000360576040517f08c379a000000000000000000000000000000000000000000000000000000000815260040180806020018281038252602281526020018062001d766022913960400191505060405180910390fd5b8260000160008373ffffffffffffffffffffffffffffffffffffffff1673ffffffffffffffffffffffffffffffffffffffff16815260200190815260200160002060009054906101000a900460ff16905092915050565b828054600181600116156101000203166002900490600052602060002090601f016020900481019282601f10620003fa57805160ff19168380011785556200042b565b828001600101855582156200042b579182015b828111156200042a5782518255916020019190600101906200040d565b5b5090506200043a91906200043e565b5090565b6200046391905b808211156200045f57600081600090555060010162000445565b5090565b90565b61190080620004766000396000f3fe608060405234801561001057600080fd5b50600436106100b45760003560e01c8063a2f7b3a511610071578063a2f7b3a514610489578063b8517dd8146104f7578063bfda4a4914610515578063e58378bb146105bc578063fa60dd391461063f578063fb535fd61461069e576100b4565b80630f6c37de146100b95780633e96e8681461018c5780634da195be14610247578063552f75a0146103225780635b0f833a14610340578063780900dc1461041b575b600080fd5b610172600480360360208110156100cf57600080fd5b81019080803590602001906401000000008111156100ec57600080fd5b8201836020820111156100fe57600080fd5b8035906020019184600183028401116401000000008311171561012057600080fd5b91908080601f016020809104026020016040519081016040528093929190818152602001838380828437600081840152601f19601f820116905080830192505050505050509192919290505050610791565b604051808215151515815260200191505060405180910390f35b610245600480360360208110156101a257600080fd5b81019080803590602001906401000000008111156101bf57600080fd5b8201836020820111156101d157600080fd5b803590602001918460018302840111640100000000831117156101f357600080fd5b91908080601f016020809104026020016040519081016040528093929190818152602001838380828437600081840152601f19601f8201169050808301925050505050505091929192905050506107ba565b005b6103206004803603604081101561025d57600080fd5b810190808035906020019064010000000081111561027a57600080fd5b82018360208201111561028c57600080fd5b803590602001918460018302840111640100000000831117156102ae57600080fd5b91908080601f016020809104026020016040519081016040528093929190818152602001838380828437600081840152601f19601f820116905080830192505050505050509192919290803573ffffffffffffffffffffffffffffffffffffffff1690602001909291905050506108f8565b005b61032a610a4f565b6040518082815260200191505060405180910390f35b6104196004803603604081101561035657600080fd5b810190808035906020019064010000000081111561037357600080fd5b82018360208201111561038557600080fd5b803590602001918460018302840111640100000000831117156103a757600080fd5b91908080601f016020809104026020016040519081016040528093929190818152602001838380828437600081840152601f19601f820116905080830192505050505050509192919290803573ffffffffffffffffffffffffffffffffffffffff169060200190929190505050610a5c565b005b6104476004803603602081101561043157600080fd5b8101908080359060200190929190505050610bd6565b604051808273ffffffffffffffffffffffffffffffffffffffff1673ffffffffffffffffffffffffffffffffffffffff16815260200191505060405180910390f35b6104b56004803603602081101561049f57600080fd5b8101908080359060200190929190505050610cc7565b604051808273ffffffffffffffffffffffffffffffffffffffff1673ffffffffffffffffffffffffffffffffffffffff16815260200191505060405180910390f35b6104ff610d03565b6040518082815260200191505060405180910390f35b6105416004803603602081101561052b57600080fd5b8101908080359060200190929190505050610d0f565b6040518080602001828103825283818151815260200191508051906020019080838360005b83811015610581578082015181840152602081019050610566565b50505050905090810190601f1680156105ae5780820380516001836020036101000a031916815260200191505b509250505060405180910390f35b6105c4610dc8565b6040518080602001828103825283818151815260200191508051906020019080838360005b838110156106045780820151818401526020810190506105e9565b50505050905090810190601f1680156106315780820380516001836020036101000a031916815260200191505b509250505060405180910390f35b610647610e01565b6040518080602001828103825283818151815260200191508051906020019060200280838360005b8381101561068a57808201518184015260208101905061066f565b505050509050019250505060405180910390f35b610777600480360360408110156106b457600080fd5b81019080803590602001906401000000008111156106d157600080fd5b8201836020820111156106e357600080fd5b8035906020019184600183028401116401000000008311171561070557600080fd5b91908080601f016020809104026020016040519081016040528093929190818152602001838380828437600081840152601f19601f820116905080830192505050505050509192919290803573ffffffffffffffffffffffffffffffffffffffff169060200190929190505050610e8f565b604051808215151515815260200191505060405180910390f35b6000600160006107a084610ec6565b815260200190815260200160002054600014159050919050565b6040518060400160405280600581526020017f4f574e45520000000000000000000000000000000000000000000000000000008152506107fa8133610e8f565b61084f576040517f08c379a000000000000000000000000000000000000000000000000000000000815260040180806020018281038252602a81526020018061185f602a913960400191505060405180910390fd5b61085882610f41565b7f22f30a094e2ed10e9a92ebac7a70b8e2ae3288d9b594db22587861bc8fef4eef826040518080602001828103825283818151815260200191508051906020019080838360005b838110156108ba57808201518184015260208101905061089f565b50505050905090810190601f1680156108e75780820380516001836020036101000a031916815260200191505b509250505060405180910390a15050565b6040518060400160405280600581526020017f4f574e45520000000000000000000000000000000000000000000000000000008152506109388133610e8f565b61098d576040517f08c379a000000000000000000000000000000000000000000000000000000000815260040180806020018281038252602a81526020018061185f602a913960400191505060405180910390fd5b6109978383610fcd565b8173ffffffffffffffffffffffffffffffffffffffff167fafe42c64e42361a5193c84f3f11b6803e41dd901d473ee6faa72f43f8ab1f468846040518080602001828103825283818151815260200191508051906020019080838360005b83811015610a105780820151818401526020810190506109f5565b50505050905090810190601f168015610a3d5780820380516001836020036101000a031916815260200191505b509250505060405180910390a2505050565b6000600380549050905090565b6040518060400160405280600581526020017f4f574e4552000000000000000000000000000000000000000000000000000000815250610a9c8133610e8f565b610af1576040517f08c379a000000000000000000000000000000000000000000000000000000000815260040180806020018281038252602a81526020018061185f602a913960400191505060405180910390fd5b610b1e8260026000610b0287610ec6565b8152602001908152602001600020610ffe90919063ffffffff16565b8173ffffffffffffffffffffffffffffffffffffffff167f3e3ea7a1060be276a52e916803e2f89e3478e263893fc3c0b4d5793dd6d5f032846040518080602001828103825283818151815260200191508051906020019080838360005b83811015610b97578082015181840152602081019050610b7c565b50505050905090810190601f168015610bc45780820380516001836020036101000a031916815260200191505b509250505060405180910390a2505050565b60008082604051610be690611274565b80828152602001915050604051809103906000f080158015610c0c573d6000803e3d6000fd5b50905060008190508073ffffffffffffffffffffffffffffffffffffffff167f1449abf21e49fd025f33495e77f7b1461caefdd3d4bb646424a3f445c4576a5b60405160405180910390a260038190806001815401808255809150509060018203906000526020600020016000909192909190916101000a81548173ffffffffffffffffffffffffffffffffffffffff021916908373ffffffffffffffffffffffffffffffffffffffff160217905550508092505050919050565b60038181548110610cd457fe5b906000526020600020016000915054906101000a900473ffffffffffffffffffffffffffffffffffffffff1681565b60008080549050905090565b60008181548110610d1c57fe5b906000526020600020016000915090508054600181600116156101000203166002900480601f016020809104026020016040519081016040528092919081815260200182805460018160011615610100020316600290048015610dc05780601f10610d9557610100808354040283529160200191610dc0565b820191906000526020600020905b815481529060010190602001808311610da357829003601f168201915b505050505081565b6040518060400160405280600581526020017f4f574e455200000000000000000000000000000000000000000000000000000081525081565b60606003805480602002602001604051908101604052809291908181526020018280548015610e8557602002820191906000526020600020905b8160009054906101000a900473ffffffffffffffffffffffffffffffffffffffff1673ffffffffffffffffffffffffffffffffffffffff1681526020019060010190808311610e3b575b5050505050905090565b6000610ebe8260026000610ea287610ec6565b81526020019081526020016000206110bb90919063ffffffff16565b905092915050565b6000816040516020018082805190602001908083835b60208310610eff5780518252602082019150602081019050602083039250610edc565b6001836020036101000a038019825116818451168082178552505050505050905001915050604051602081830303815290604052805190602001209050919050565b60016000610f4e83610ec6565b81526020019081526020016000205460001415610fca576000819080600181540180825580915050906001820390600052602060002001600090919290919091509080519060200190610fa2929190611281565b505060008054905060016000610fb784610ec6565b8152602001908152602001600020819055505b50565b610ffa8160026000610fde86610ec6565b815260200190815260200160002061119990919063ffffffff16565b5050565b61100882826110bb565b61105d576040517f08c379a00000000000000000000000000000000000000000000000000000000081526004018080602001828103825260218152602001806118896021913960400191505060405180910390fd5b60008260000160008373ffffffffffffffffffffffffffffffffffffffff1673ffffffffffffffffffffffffffffffffffffffff16815260200190815260200160002060006101000a81548160ff0219169083151502179055505050565b60008073ffffffffffffffffffffffffffffffffffffffff168273ffffffffffffffffffffffffffffffffffffffff161415611142576040517f08c379a00000000000000000000000000000000000000000000000000000000081526004018080602001828103825260228152602001806118aa6022913960400191505060405180910390fd5b8260000160008373ffffffffffffffffffffffffffffffffffffffff1673ffffffffffffffffffffffffffffffffffffffff16815260200190815260200160002060009054906101000a900460ff16905092915050565b6111a382826110bb565b15611216576040517f08c379a000000000000000000000000000000000000000000000000000000000815260040180806020018281038252601f8152602001807f526f6c65733a206163636f756e7420616c72656164792068617320726f6c650081525060200191505060405180910390fd5b60018260000160008373ffffffffffffffffffffffffffffffffffffffff1673ffffffffffffffffffffffffffffffffffffffff16815260200190815260200160002060006101000a81548160ff0219169083151502179055505050565b6105388061132783390190565b828054600181600116156101000203166002900490600052602060002090601f016020900481019282601f106112c257805160ff19168380011785556112f0565b828001600101855582156112f0579182015b828111156112ef5782518255916020019190600101906112d4565b5b5090506112fd9190611301565b5090565b61132391905b8082111561131f576000816000905550600101611307565b5090565b9056fe608060405234801561001057600080fd5b506040516105383803806105388339818101604052602081101561003357600080fd5b810190808051906020019092919050505073__ConstantsLib__________________________62a123336040518163ffffffff1660e01b815260040160206040518083038186803b15801561008757600080fd5b505af415801561009b573d6000803e3d6000fd5b505050506040513d60208110156100b157600080fd5b810190808051906020019092919050505081111561011a576040517f08c379a000000000000000000000000000000000000000000000000000000000815260040180806020018281038252603d8152602001806104fb603d913960400191505060405180910390fd5b80600081905550506103ca806101316000396000f3fe608060405234801561001057600080fd5b50600436106100365760003560e01c8063abaa99161461003b578063d8894bb514610059575b600080fd5b610043610077565b6040518082815260200191505060405180910390f35b610061610259565b6040518082815260200191505060405180910390f35b600061025473__ConstantsLib__________________________62a123336040518163ffffffff1660e01b815260040160206040518083038186803b1580156100bf57600080fd5b505af41580156100d3573d6000803e3d6000fd5b505050506040513d60208110156100e957600080fd5b81019080805190602001909291905050506102466000543373ffffffffffffffffffffffffffffffffffffffff1663fc0c546a6040518163ffffffff1660e01b815260040160206040518083038186803b15801561014657600080fd5b505afa15801561015a573d6000803e3d6000fd5b505050506040513d602081101561017057600080fd5b810190808051906020019092919050505073ffffffffffffffffffffffffffffffffffffffff166370a08231336040518263ffffffff1660e01b8152600401808273ffffffffffffffffffffffffffffffffffffffff1673ffffffffffffffffffffffffffffffffffffffff16815260200191505060206040518083038186803b1580156101fd57600080fd5b505afa158015610211573d6000803e3d6000fd5b505050506040513d602081101561022757600080fd5b810190808051906020019092919050505061025f90919063ffffffff16565b6102e590919063ffffffff16565b905090565b60005481565b60008083141561027257600090506102df565b600082840290508284828161028357fe5b04146102da576040517f08c379a00000000000000000000000000000000000000000000000000000000081526004018080602001828103825260218152602001806103756021913960400191505060405180910390fd5b809150505b92915050565b600080821161035c576040517f08c379a000000000000000000000000000000000000000000000000000000000815260040180806020018281038252601a8152602001807f536166654d6174683a206469766973696f6e206279207a65726f00000000000081525060200191505060405180910390fd5b600082848161036757fe5b049050809150509291505056fe536166654d6174683a206d756c7469706c69636174696f6e206f766572666c6f77a265627a7a7231582023717113b3cc3cab896c15df94e064ff73b1dbc9717eec492be4edc52be2a21064736f6c634300050b00324672616374696f6e616c42616c616e6365416c6c6f6361746f723a206672616374696f6e2069732067726561746572207468616e20656e7469726574795242414365643a2073656e646572206973206e6f74206163636573736f72206f662074686520726f6c65526f6c65733a206163636f756e7420646f6573206e6f74206861766520726f6c65526f6c65733a206163636f756e7420697320746865207a65726f2061646472657373a265627a7a72315820c35c8ea4c05c3c1ad22efaa46eded0160d7c1d699322737aa5025b4c4093e92964736f6c634300050b0032526f6c65733a206163636f756e7420697320746865207a65726f2061646472657373",
  "source": "/*\n * Lottery oracle\n *\n * Copyright (C) 2017-2019 Hubii AS\n */\n\npragma solidity ^0.5.11;\n\nimport {RBACed} from \"./RBACed.sol\";\nimport {FractionalBalanceAllocator} from \"./FractionalBalanceAllocator.sol\";\n\n/// @title FractionalBalanceAllocatorFactory\n/// @author Jens Ivar Jrdre <jensivar@hubii.com>\n/// @notice A factory of fractional balance allocators\ncontract FractionalBalanceAllocatorFactory is RBACed {\n\n    address[] public instances;\n\n    event Created(address indexed _fractionalBalanceAllocator);\n\n    /// @notice Create an instance of fractional balance allocator\n    /// @param _fraction The fraction of the fractional bounty allocator\n    // @return The address of the fractional balance allocator created\n    function create(uint256 _fraction)\n    public\n    returns (address)\n    {\n        // Instantiate fractional balance allocator\n        FractionalBalanceAllocator fractionalBalanceAllocator = new FractionalBalanceAllocator(_fraction);\n\n        address fractionalBalanceAllocatorAddress = address(fractionalBalanceAllocator);\n\n        // Emit event\n        emit Created(fractionalBalanceAllocatorAddress);\n\n        // Store the address of the instance\n        instances.push(fractionalBalanceAllocatorAddress);\n\n        // Return address of the instance\n        return fractionalBalanceAllocatorAddress;\n    }\n\n    // @notice Get the count of instances created\n    // @return The count of instances\n    function instancesCount()\n    public\n    view\n    returns (uint256)\n    {\n        return instances.length;\n    }\n\n    // @notice Get all instances created\n    // @return All instances\n    function allInstances()\n    public\n    view\n    returns (address[] memory)\n    {\n        return instances;\n    }\n}\n",
  "sourcePath": "/opt/buildagent/work/9988d0feca52d9d9/contracts/FractionalBalanceAllocatorFactory.sol",
  "compiler": {
    "name": "solc",
    "version": "0.5.11+commit.c082d0b4.Emscripten.clang"
  },
  "schemaVersion": "3.0.16",
  "updatedAt": "2019-09-22T23:03:55.479Z",
  "devdoc": {
    "author": "Jens Ivar Jrdre <jensivar@hubii.com>",
    "methods": {
      "addRole(string)": {
        "params": {
          "_role": "The concerned role"
        }
      },
      "addRoleAccessor(string,address)": {
        "params": {
          "_address": "The concerned address",
          "_role": "The concerned role"
        }
      },
      "create(uint256)": {
        "params": {
          "_fraction": "The fraction of the fractional bounty allocator"
        }
      },
      "isRole(string)": {
        "params": {
          "_role": "The concerned role"
        },
        "return": "true if role has been set, else false"
      },
      "isRoleAccessor(string,address)": {
        "params": {
          "_address": "The concerned address",
          "_role": "The concerned role"
        },
        "return": "true if address is the one of a registered accessor of role, else false"
      },
      "removeRoleAccessor(string,address)": {
        "params": {
          "_address": "The concerned address",
          "_role": "The concerned role"
        }
      },
      "rolesCount()": {
        "return": "The count of roles"
      }
    },
    "title": "FractionalBalanceAllocatorFactory"
  },
  "userdoc": {
    "methods": {
      "addRole(string)": {
        "notice": "Add role"
      },
      "addRoleAccessor(string,address)": {
        "notice": "Register an address as accessor of a role"
      },
      "create(uint256)": {
        "notice": "Create an instance of fractional balance allocator"
      },
      "isRole(string)": {
        "notice": "Gauge whether a role is set"
      },
      "isRoleAccessor(string,address)": {
        "notice": "Gauge whether an address is an accessor of a role"
      },
      "removeRoleAccessor(string,address)": {
        "notice": "Deregister an address as accessor of a role"
      },
      "rolesCount()": {
        "notice": "Get the count of roles"
      }
    },
    "notice": "A factory of fractional balance allocators"
  }
}