{
  "contractName": "FractionalBalanceAllocator",
  "abi": [
    {
      "constant": true,
      "inputs": [],
      "name": "frozen",
      "outputs": [
        {
          "internalType": "bool",
          "name": "",
          "type": "bool"
        }
      ],
      "payable": false,
      "stateMutability": "view",
      "type": "function"
    },
    {
      "constant": true,
      "inputs": [
        {
          "internalType": "string",
          "name": "_role",
          "type": "string"
        }
      ],
      "name": "isRole",
      "outputs": [
        {
          "internalType": "bool",
          "name": "",
          "type": "bool"
        }
      ],
      "payable": false,
      "stateMutability": "view",
      "type": "function"
    },
    {
      "constant": false,
      "inputs": [
        {
          "internalType": "string",
          "name": "_role",
          "type": "string"
        }
      ],
      "name": "addRole",
      "outputs": [],
      "payable": false,
      "stateMutability": "nonpayable",
      "type": "function"
    },
    {
      "constant": false,
      "inputs": [
        {
          "internalType": "string",
          "name": "_role",
          "type": "string"
        },
        {
          "internalType": "address",
          "name": "_address",
          "type": "address"
        }
      ],
      "name": "addRoleAccessor",
      "outputs": [],
      "payable": false,
      "stateMutability": "nonpayable",
      "type": "function"
    },
    {
      "constant": false,
      "inputs": [
        {
          "internalType": "string",
          "name": "_role",
          "type": "string"
        },
        {
          "internalType": "address",
          "name": "_address",
          "type": "address"
        }
      ],
      "name": "removeRoleAccessor",
      "outputs": [],
      "payable": false,
      "stateMutability": "nonpayable",
      "type": "function"
    },
    {
      "constant": true,
      "inputs": [],
      "name": "rolesCount",
      "outputs": [
        {
          "internalType": "uint256",
          "name": "",
          "type": "uint256"
        }
      ],
      "payable": false,
      "stateMutability": "view",
      "type": "function"
    },
    {
      "constant": true,
      "inputs": [
        {
          "internalType": "uint256",
          "name": "",
          "type": "uint256"
        }
      ],
      "name": "roles",
      "outputs": [
        {
          "internalType": "string",
          "name": "",
          "type": "string"
        }
      ],
      "payable": false,
      "stateMutability": "view",
      "type": "function"
    },
    {
      "constant": true,
      "inputs": [],
      "name": "fraction",
      "outputs": [
        {
          "internalType": "uint256",
          "name": "",
          "type": "uint256"
        }
      ],
      "payable": false,
      "stateMutability": "view",
      "type": "function"
    },
    {
      "constant": true,
      "inputs": [],
      "name": "OWNER_ROLE",
      "outputs": [
        {
          "internalType": "string",
          "name": "",
          "type": "string"
        }
      ],
      "payable": false,
      "stateMutability": "view",
      "type": "function"
    },
    {
      "constant": true,
      "inputs": [
        {
          "internalType": "string",
          "name": "_role",
          "type": "string"
        },
        {
          "internalType": "address",
          "name": "_address",
          "type": "address"
        }
      ],
      "name": "isRoleAccessor",
      "outputs": [
        {
          "internalType": "bool",
          "name": "",
          "type": "bool"
        }
      ],
      "payable": false,
      "stateMutability": "view",
      "type": "function"
    },
    {
      "inputs": [
        {
          "internalType": "uint256",
          "name": "_fraction",
          "type": "uint256"
        }
      ],
      "payable": false,
      "stateMutability": "nonpayable",
      "type": "constructor"
    },
    {
      "anonymous": false,
      "inputs": [],
      "name": "Frozen",
      "type": "event"
    },
    {
      "anonymous": false,
      "inputs": [
        {
          "indexed": false,
          "internalType": "uint256",
          "name": "_fraction",
          "type": "uint256"
        }
      ],
      "name": "FractionSet",
      "type": "event"
    },
    {
      "anonymous": false,
      "inputs": [
        {
          "indexed": false,
          "internalType": "string",
          "name": "_role",
          "type": "string"
        }
      ],
      "name": "RoleAdded",
      "type": "event"
    },
    {
      "anonymous": false,
      "inputs": [
        {
          "indexed": false,
          "internalType": "string",
          "name": "_role",
          "type": "string"
        },
        {
          "indexed": true,
          "internalType": "address",
          "name": "_address",
          "type": "address"
        }
      ],
      "name": "RoleAccessorAdded",
      "type": "event"
    },
    {
      "anonymous": false,
      "inputs": [
        {
          "indexed": false,
          "internalType": "string",
          "name": "_role",
          "type": "string"
        },
        {
          "indexed": true,
          "internalType": "address",
          "name": "_address",
          "type": "address"
        }
      ],
      "name": "RoleAccessorRemoved",
      "type": "event"
    },
    {
      "constant": false,
      "inputs": [],
      "name": "freeze",
      "outputs": [],
      "payable": false,
      "stateMutability": "nonpayable",
      "type": "function"
    },
    {
      "constant": false,
      "inputs": [
        {
          "internalType": "uint256",
          "name": "_fraction",
          "type": "uint256"
        }
      ],
      "name": "setFraction",
      "outputs": [],
      "payable": false,
      "stateMutability": "nonpayable",
      "type": "function"
    },
    {
      "constant": true,
      "inputs": [],
      "name": "allocate",
      "outputs": [
        {
          "internalType": "uint256",
          "name": "",
          "type": "uint256"
        }
      ],
      "payable": false,
      "stateMutability": "view",
      "type": "function"
    }
  ],
  "bytecode": "0x60806040523480156200001157600080fd5b5060405162001dce38038062001dce833981810160405260208110156200003757600080fd5b81019080805190602001909291905050506200008e6040518060400160405280600581526020017f4f574e4552000000000000000000000000000000000000000000000000000000815250620001be60201b60201c565b620000d56040518060400160405280600581526020017f4f574e4552000000000000000000000000000000000000000000000000000000815250336200025d60201b60201c565b73__ConstantsLib__________________________62a123336040518163ffffffff1660e01b815260040160206040518083038186803b1580156200011957600080fd5b505af41580156200012e573d6000803e3d6000fd5b505050506040513d60208110156200014557600080fd5b8101908080519060200190929190505050811115620001b0576040517f08c379a000000000000000000000000000000000000000000000000000000000815260040180806020018281038252603d81526020018062001d6f603d913960400191505060405180910390fd5b80600381905550506200058d565b60016000620001d3836200029d60201b60201c565b815260200190815260200160002054600014156200025a5760008190806001815401808255809150509060018203906000526020600020016000909192909190915090805190602001906200022a929190620004de565b50506000805490506001600062000247846200029d60201b60201c565b8152602001908152602001600020819055505b50565b62000299816002600062000277866200029d60201b60201c565b81526020019081526020016000206200031a60201b6200152d1790919060201c565b5050565b6000816040516020018082805190602001908083835b60208310620002d85780518252602082019150602081019050602083039250620002b3565b6001836020036101000a038019825116818451168082178552505050505050905001915050604051602081830303815290604052805190602001209050919050565b6200032c8282620003fe60201b60201c565b15620003a0576040517f08c379a000000000000000000000000000000000000000000000000000000000815260040180806020018281038252601f8152602001807f526f6c65733a206163636f756e7420616c72656164792068617320726f6c650081525060200191505060405180910390fd5b60018260000160008373ffffffffffffffffffffffffffffffffffffffff1673ffffffffffffffffffffffffffffffffffffffff16815260200190815260200160002060006101000a81548160ff0219169083151502179055505050565b60008073ffffffffffffffffffffffffffffffffffffffff168273ffffffffffffffffffffffffffffffffffffffff16141562000487576040517f08c379a000000000000000000000000000000000000000000000000000000000815260040180806020018281038252602281526020018062001dac6022913960400191505060405180910390fd5b8260000160008373ffffffffffffffffffffffffffffffffffffffff1673ffffffffffffffffffffffffffffffffffffffff16815260200190815260200160002060009054906101000a900460ff16905092915050565b828054600181600116156101000203166002900490600052602060002090601f016020900481019282601f106200052157805160ff191683800117855562000552565b8280016001018555821562000552579182015b828111156200055157825182559160200191906001019062000534565b5b50905062000561919062000565565b5090565b6200058a91905b80821115620005865760008160009055506001016200056c565b5090565b90565b6117d2806200059d6000396000f3fe608060405234801561001057600080fd5b50600436106100cf5760003560e01c806362a5af3b1161008c578063bfda4a4911610066578063bfda4a49146104ae578063d8894bb514610555578063e58378bb14610573578063fb535fd6146105f6576100cf565b806362a5af3b14610468578063abaa991614610472578063b8517dd814610490576100cf565b8063054f7d9c146100d45780630f6c37de146100f6578063182815b0146101c95780633e96e868146101f75780634da195be146102b25780635b0f833a1461038d575b600080fd5b6100dc6106e9565b604051808215151515815260200191505060405180910390f35b6101af6004803603602081101561010c57600080fd5b810190808035906020019064010000000081111561012957600080fd5b82018360208201111561013b57600080fd5b8035906020019184600183028401116401000000008311171561015d57600080fd5b91908080601f016020809104026020016040519081016040528093929190818152602001838380828437600081840152601f19601f8201169050808301925050505050505091929192905050506106fc565b604051808215151515815260200191505060405180910390f35b6101f5600480360360208110156101df57600080fd5b8101908080359060200190929190505050610725565b005b6102b06004803603602081101561020d57600080fd5b810190808035906020019064010000000081111561022a57600080fd5b82018360208201111561023c57600080fd5b8035906020019184600183028401116401000000008311171561025e57600080fd5b91908080601f016020809104026020016040519081016040528093929190818152602001838380828437600081840152601f19601f82011690508083019250505050505050919291929050505061093a565b005b61038b600480360360408110156102c857600080fd5b81019080803590602001906401000000008111156102e557600080fd5b8201836020820111156102f757600080fd5b8035906020019184600183028401116401000000008311171561031957600080fd5b91908080601f016020809104026020016040519081016040528093929190818152602001838380828437600081840152601f19601f820116905080830192505050505050509192919290803573ffffffffffffffffffffffffffffffffffffffff169060200190929190505050610a78565b005b610466600480360360408110156103a357600080fd5b81019080803590602001906401000000008111156103c057600080fd5b8201836020820111156103d257600080fd5b803590602001918460018302840111640100000000831117156103f457600080fd5b91908080601f016020809104026020016040519081016040528093929190818152602001838380828437600081840152601f19601f820116905080830192505050505050509192919290803573ffffffffffffffffffffffffffffffffffffffff169060200190929190505050610bcf565b005b610470610d49565b005b61047a610e28565b6040518082815260200191505060405180910390f35b61049861100a565b6040518082815260200191505060405180910390f35b6104da600480360360208110156104c457600080fd5b8101908080359060200190929190505050611016565b6040518080602001828103825283818151815260200191508051906020019080838360005b8381101561051a5780820151818401526020810190506104ff565b50505050905090810190601f1680156105475780820380516001836020036101000a031916815260200191505b509250505060405180910390f35b61055d6110cf565b6040518082815260200191505060405180910390f35b61057b6110d5565b6040518080602001828103825283818151815260200191508051906020019080838360005b838110156105bb5780820151818401526020810190506105a0565b50505050905090810190601f1680156105e85780820380516001836020036101000a031916815260200191505b509250505060405180910390f35b6106cf6004803603604081101561060c57600080fd5b810190808035906020019064010000000081111561062957600080fd5b82018360208201111561063b57600080fd5b8035906020019184600183028401116401000000008311171561065d57600080fd5b91908080601f016020809104026020016040519081016040528093929190818152602001838380828437600081840152601f19601f820116905080830192505050505050509192919290803573ffffffffffffffffffffffffffffffffffffffff16906020019092919050505061110e565b604051808215151515815260200191505060405180910390f35b600460009054906101000a900460ff1681565b60006001600061070b84611145565b815260200190815260200160002054600014159050919050565b6040518060400160405280600581526020017f4f574e4552000000000000000000000000000000000000000000000000000000815250610765813361110e565b6107ba576040517f08c379a000000000000000000000000000000000000000000000000000000000815260040180806020018281038252602a8152602001806116ae602a913960400191505060405180910390fd5b600460009054906101000a900460ff1615610820576040517f08c379a00000000000000000000000000000000000000000000000000000000081526004018080602001828103825260258152602001806117796025913960400191505060405180910390fd5b73__ConstantsLib__________________________62a123336040518163ffffffff1660e01b815260040160206040518083038186803b15801561086357600080fd5b505af4158015610877573d6000803e3d6000fd5b505050506040513d602081101561088d57600080fd5b81019080805190602001909291905050508211156108f6576040517f08c379a000000000000000000000000000000000000000000000000000000000815260040180806020018281038252603d81526020018061171a603d913960400191505060405180910390fd5b816003819055507f0715b7bb13cefca157769ecb01f046d01a1b69f814eb415ba0415e67fd119f026003546040518082815260200191505060405180910390a15050565b6040518060400160405280600581526020017f4f574e455200000000000000000000000000000000000000000000000000000081525061097a813361110e565b6109cf576040517f08c379a000000000000000000000000000000000000000000000000000000000815260040180806020018281038252602a8152602001806116ae602a913960400191505060405180910390fd5b6109d8826111c0565b7f22f30a094e2ed10e9a92ebac7a70b8e2ae3288d9b594db22587861bc8fef4eef826040518080602001828103825283818151815260200191508051906020019080838360005b83811015610a3a578082015181840152602081019050610a1f565b50505050905090810190601f168015610a675780820380516001836020036101000a031916815260200191505b509250505060405180910390a15050565b6040518060400160405280600581526020017f4f574e4552000000000000000000000000000000000000000000000000000000815250610ab8813361110e565b610b0d576040517f08c379a000000000000000000000000000000000000000000000000000000000815260040180806020018281038252602a8152602001806116ae602a913960400191505060405180910390fd5b610b17838361124c565b8173ffffffffffffffffffffffffffffffffffffffff167fafe42c64e42361a5193c84f3f11b6803e41dd901d473ee6faa72f43f8ab1f468846040518080602001828103825283818151815260200191508051906020019080838360005b83811015610b90578082015181840152602081019050610b75565b50505050905090810190601f168015610bbd5780820380516001836020036101000a031916815260200191505b509250505060405180910390a2505050565b6040518060400160405280600581526020017f4f574e4552000000000000000000000000000000000000000000000000000000815250610c0f813361110e565b610c64576040517f08c379a000000000000000000000000000000000000000000000000000000000815260040180806020018281038252602a8152602001806116ae602a913960400191505060405180910390fd5b610c918260026000610c7587611145565b815260200190815260200160002061127d90919063ffffffff16565b8173ffffffffffffffffffffffffffffffffffffffff167f3e3ea7a1060be276a52e916803e2f89e3478e263893fc3c0b4d5793dd6d5f032846040518080602001828103825283818151815260200191508051906020019080838360005b83811015610d0a578082015181840152602081019050610cef565b50505050905090810190601f168015610d375780820380516001836020036101000a031916815260200191505b509250505060405180910390a2505050565b6040518060400160405280600581526020017f4f574e4552000000000000000000000000000000000000000000000000000000815250610d89813361110e565b610dde576040517f08c379a000000000000000000000000000000000000000000000000000000000815260040180806020018281038252602a8152602001806116ae602a913960400191505060405180910390fd5b6001600460006101000a81548160ff0219169083151502179055507fa8cab3d1893ed53071b052fafa843143492f25d1d6b0170d460789f7ab1954be60405160405180910390a150565b600061100573__ConstantsLib__________________________62a123336040518163ffffffff1660e01b815260040160206040518083038186803b158015610e7057600080fd5b505af4158015610e84573d6000803e3d6000fd5b505050506040513d6020811015610e9a57600080fd5b8101908080519060200190929190505050610ff76003543373ffffffffffffffffffffffffffffffffffffffff1663fc0c546a6040518163ffffffff1660e01b815260040160206040518083038186803b158015610ef757600080fd5b505afa158015610f0b573d6000803e3d6000fd5b505050506040513d6020811015610f2157600080fd5b810190808051906020019092919050505073ffffffffffffffffffffffffffffffffffffffff166370a08231336040518263ffffffff1660e01b8152600401808273ffffffffffffffffffffffffffffffffffffffff1673ffffffffffffffffffffffffffffffffffffffff16815260200191505060206040518083038186803b158015610fae57600080fd5b505afa158015610fc2573d6000803e3d6000fd5b505050506040513d6020811015610fd857600080fd5b810190808051906020019092919050505061133a90919063ffffffff16565b6113c090919063ffffffff16565b905090565b60008080549050905090565b6000818154811061102357fe5b906000526020600020016000915090508054600181600116156101000203166002900480601f0160208091040260200160405190810160405280929190818152602001828054600181600116156101000203166002900480156110c75780601f1061109c576101008083540402835291602001916110c7565b820191906000526020600020905b8154815290600101906020018083116110aa57829003601f168201915b505050505081565b60035481565b6040518060400160405280600581526020017f4f574e455200000000000000000000000000000000000000000000000000000081525081565b600061113d826002600061112187611145565b815260200190815260200160002061144f90919063ffffffff16565b905092915050565b6000816040516020018082805190602001908083835b6020831061117e578051825260208201915060208101905060208303925061115b565b6001836020036101000a038019825116818451168082178552505050505050905001915050604051602081830303815290604052805190602001209050919050565b600160006111cd83611145565b81526020019081526020016000205460001415611249576000819080600181540180825580915050906001820390600052602060002001600090919290919091509080519060200190611221929190611608565b50506000805490506001600061123684611145565b8152602001908152602001600020819055505b50565b611279816002600061125d86611145565b815260200190815260200160002061152d90919063ffffffff16565b5050565b611287828261144f565b6112dc576040517f08c379a00000000000000000000000000000000000000000000000000000000081526004018080602001828103825260218152602001806116d86021913960400191505060405180910390fd5b60008260000160008373ffffffffffffffffffffffffffffffffffffffff1673ffffffffffffffffffffffffffffffffffffffff16815260200190815260200160002060006101000a81548160ff0219169083151502179055505050565b60008083141561134d57600090506113ba565b600082840290508284828161135e57fe5b04146113b5576040517f08c379a00000000000000000000000000000000000000000000000000000000081526004018080602001828103825260218152602001806116f96021913960400191505060405180910390fd5b809150505b92915050565b6000808211611437576040517f08c379a000000000000000000000000000000000000000000000000000000000815260040180806020018281038252601a8152602001807f536166654d6174683a206469766973696f6e206279207a65726f00000000000081525060200191505060405180910390fd5b600082848161144257fe5b0490508091505092915050565b60008073ffffffffffffffffffffffffffffffffffffffff168273ffffffffffffffffffffffffffffffffffffffff1614156114d6576040517f08c379a00000000000000000000000000000000000000000000000000000000081526004018080602001828103825260228152602001806117576022913960400191505060405180910390fd5b8260000160008373ffffffffffffffffffffffffffffffffffffffff1673ffffffffffffffffffffffffffffffffffffffff16815260200190815260200160002060009054906101000a900460ff16905092915050565b611537828261144f565b156115aa576040517f08c379a000000000000000000000000000000000000000000000000000000000815260040180806020018281038252601f8152602001807f526f6c65733a206163636f756e7420616c72656164792068617320726f6c650081525060200191505060405180910390fd5b60018260000160008373ffffffffffffffffffffffffffffffffffffffff1673ffffffffffffffffffffffffffffffffffffffff16815260200190815260200160002060006101000a81548160ff0219169083151502179055505050565b828054600181600116156101000203166002900490600052602060002090601f016020900481019282601f1061164957805160ff1916838001178555611677565b82800160010185558215611677579182015b8281111561167657825182559160200191906001019061165b565b5b5090506116849190611688565b5090565b6116aa91905b808211156116a657600081600090555060010161168e565b5090565b9056fe5242414365643a2073656e646572206973206e6f74206163636573736f72206f662074686520726f6c65526f6c65733a206163636f756e7420646f6573206e6f74206861766520726f6c65536166654d6174683a206d756c7469706c69636174696f6e206f766572666c6f774672616374696f6e616c42616c616e6365416c6c6f6361746f723a206672616374696f6e2069732067726561746572207468616e20656e746972657479526f6c65733a206163636f756e7420697320746865207a65726f20616464726573734672616374696f6e616c42616c616e6365416c6c6f6361746f723a2069732066726f7a656ea265627a7a723158201dd8870381607186fd8bcd6f47de2bda15c5b35974febe4da950e189590853b164736f6c634300050b00324672616374696f6e616c42616c616e6365416c6c6f6361746f723a206672616374696f6e2069732067726561746572207468616e20656e746972657479526f6c65733a206163636f756e7420697320746865207a65726f2061646472657373",
  "source": "/*\n * Lottery oracle\n *\n * Copyright (C) 2017-2019 Hubii AS\n */\n\npragma solidity ^0.5.11;\n\nimport {Allocator} from \"./Allocator.sol\";\nimport {RBACed} from \"./RBACed.sol\";\nimport {SafeMath} from \"openzeppelin-solidity/contracts/math/SafeMath.sol\";\nimport {BountyFund} from \"./BountyFund.sol\";\nimport {ERC20} from \"openzeppelin-solidity/contracts/token/ERC20/ERC20.sol\";\nimport {ConstantsLib} from \"./ConstantsLib.sol\";\n\n/// @title FractionalBalanceAllocator\n/// @author Jens Ivar Jrdre <jensivar@hubii.com>\n/// @notice A bounty allocator allocating by fraction of the bounty fund's token balance\ncontract FractionalBalanceAllocator is Allocator, RBACed {\n    using SafeMath for uint256;\n\n    event Frozen();\n    event FractionSet(uint256 _fraction);\n\n    uint256 public fraction;\n    bool public frozen;\n\n    constructor(uint256 _fraction)\n    public\n    {\n        // Require that fraction is less than the entirety\n        require(_fraction <= ConstantsLib.PARTS_PER(),\n            \"FractionalBalanceAllocator: fraction is greater than entirety\");\n\n        // Initialize fraction\n        fraction = _fraction;\n    }\n\n    modifier onlyNotFrozen() {\n        require(!frozen, \"FractionalBalanceAllocator: is frozen\");\n        _;\n    }\n\n    /// @notice Freeze updates this allocator\n    /// @dev This operation can not be undone\n    function freeze()\n    public\n    onlyRoleAccessor(OWNER_ROLE)\n    {\n        // Set the frozen flag\n        frozen = true;\n\n        // Emit event\n        emit Frozen();\n    }\n\n    /// @notice Set the fraction\n    /// @param _fraction The fraction to be set\n    function setFraction(uint256 _fraction)\n    public\n    onlyRoleAccessor(OWNER_ROLE)\n    onlyNotFrozen\n    {\n        // Require that fraction is less than the entirety\n        require(_fraction <= ConstantsLib.PARTS_PER(),\n            \"FractionalBalanceAllocator: fraction is greater than entirety\");\n\n        // Set the fraction\n        fraction = _fraction;\n\n        // Emit event\n        emit FractionSet(fraction);\n    }\n\n    /// @notice Return the defined allocation from the allocator\n    function allocate()\n    public\n    view\n    returns (uint256)\n    {\n        return BountyFund(msg.sender).token()\n        .balanceOf(address(msg.sender))\n        .mul(fraction)\n        .div(ConstantsLib.PARTS_PER());\n    }\n}",
  "sourcePath": "/opt/buildagent/work/9988d0feca52d9d9/contracts/FractionalBalanceAllocator.sol",
  "compiler": {
    "name": "solc",
    "version": "0.5.11+commit.c082d0b4.Emscripten.clang"
  },
  "schemaVersion": "3.0.16",
  "updatedAt": "2019-10-04T09:26:54.542Z",
  "devdoc": {
    "author": "Jens Ivar Jrdre <jensivar@hubii.com>",
    "methods": {
      "addRole(string)": {
        "params": {
          "_role": "The concerned role"
        }
      },
      "addRoleAccessor(string,address)": {
        "params": {
          "_address": "The concerned address",
          "_role": "The concerned role"
        }
      },
      "freeze()": {
        "details": "This operation can not be undone"
      },
      "isRole(string)": {
        "params": {
          "_role": "The concerned role"
        },
        "return": "true if role has been set, else false"
      },
      "isRoleAccessor(string,address)": {
        "params": {
          "_address": "The concerned address",
          "_role": "The concerned role"
        },
        "return": "true if address is the one of a registered accessor of role, else false"
      },
      "removeRoleAccessor(string,address)": {
        "params": {
          "_address": "The concerned address",
          "_role": "The concerned role"
        }
      },
      "rolesCount()": {
        "return": "the count of roles"
      },
      "setFraction(uint256)": {
        "params": {
          "_fraction": "The fraction to be set"
        }
      }
    },
    "title": "FractionalBalanceAllocator"
  },
  "userdoc": {
    "methods": {
      "addRole(string)": {
        "notice": "Add role"
      },
      "addRoleAccessor(string,address)": {
        "notice": "Register an address as accessor of a role"
      },
      "allocate()": {
        "notice": "Return the defined allocation from the allocator"
      },
      "freeze()": {
        "notice": "Freeze updates this allocator"
      },
      "isRole(string)": {
        "notice": "Gauge whether a role is set"
      },
      "isRoleAccessor(string,address)": {
        "notice": "Gauge whether an address is an accessor of a role"
      },
      "removeRoleAccessor(string,address)": {
        "notice": "Deregister an address as accessor of a role"
      },
      "rolesCount()": {
        "notice": "Get the count of roles"
      },
      "setFraction(uint256)": {
        "notice": "Set the fraction"
      }
    },
    "notice": "A bounty allocator allocating by fraction of the bounty fund's token balance"
  }
}