{
  "contractName": "FractionalBalanceAllocator",
  "abi": [
    {
      "constant": true,
      "inputs": [],
      "name": "fraction",
      "outputs": [
        {
          "internalType": "uint256",
          "name": "",
          "type": "uint256"
        }
      ],
      "payable": false,
      "stateMutability": "view",
      "type": "function"
    },
    {
      "inputs": [
        {
          "internalType": "uint256",
          "name": "_fraction",
          "type": "uint256"
        }
      ],
      "payable": false,
      "stateMutability": "nonpayable",
      "type": "constructor"
    },
    {
      "constant": true,
      "inputs": [],
      "name": "allocate",
      "outputs": [
        {
          "internalType": "uint256",
          "name": "",
          "type": "uint256"
        }
      ],
      "payable": false,
      "stateMutability": "view",
      "type": "function"
    }
  ],
  "bytecode": "0x608060405234801561001057600080fd5b506040516105383803806105388339818101604052602081101561003357600080fd5b810190808051906020019092919050505073__ConstantsLib__________________________62a123336040518163ffffffff1660e01b815260040160206040518083038186803b15801561008757600080fd5b505af415801561009b573d6000803e3d6000fd5b505050506040513d60208110156100b157600080fd5b810190808051906020019092919050505081111561011a576040517f08c379a000000000000000000000000000000000000000000000000000000000815260040180806020018281038252603d8152602001806104fb603d913960400191505060405180910390fd5b80600081905550506103ca806101316000396000f3fe608060405234801561001057600080fd5b50600436106100365760003560e01c8063abaa99161461003b578063d8894bb514610059575b600080fd5b610043610077565b6040518082815260200191505060405180910390f35b610061610259565b6040518082815260200191505060405180910390f35b600061025473__ConstantsLib__________________________62a123336040518163ffffffff1660e01b815260040160206040518083038186803b1580156100bf57600080fd5b505af41580156100d3573d6000803e3d6000fd5b505050506040513d60208110156100e957600080fd5b81019080805190602001909291905050506102466000543373ffffffffffffffffffffffffffffffffffffffff1663fc0c546a6040518163ffffffff1660e01b815260040160206040518083038186803b15801561014657600080fd5b505afa15801561015a573d6000803e3d6000fd5b505050506040513d602081101561017057600080fd5b810190808051906020019092919050505073ffffffffffffffffffffffffffffffffffffffff166370a08231336040518263ffffffff1660e01b8152600401808273ffffffffffffffffffffffffffffffffffffffff1673ffffffffffffffffffffffffffffffffffffffff16815260200191505060206040518083038186803b1580156101fd57600080fd5b505afa158015610211573d6000803e3d6000fd5b505050506040513d602081101561022757600080fd5b810190808051906020019092919050505061025f90919063ffffffff16565b6102e590919063ffffffff16565b905090565b60005481565b60008083141561027257600090506102df565b600082840290508284828161028357fe5b04146102da576040517f08c379a00000000000000000000000000000000000000000000000000000000081526004018080602001828103825260218152602001806103756021913960400191505060405180910390fd5b809150505b92915050565b600080821161035c576040517f08c379a000000000000000000000000000000000000000000000000000000000815260040180806020018281038252601a8152602001807f536166654d6174683a206469766973696f6e206279207a65726f00000000000081525060200191505060405180910390fd5b600082848161036757fe5b049050809150509291505056fe536166654d6174683a206d756c7469706c69636174696f6e206f766572666c6f77a265627a7a7231582023717113b3cc3cab896c15df94e064ff73b1dbc9717eec492be4edc52be2a21064736f6c634300050b00324672616374696f6e616c42616c616e6365416c6c6f6361746f723a206672616374696f6e2069732067726561746572207468616e20656e746972657479",
  "deployedBytecode": "0x608060405234801561001057600080fd5b50600436106100365760003560e01c8063abaa99161461003b578063d8894bb514610059575b600080fd5b610043610077565b6040518082815260200191505060405180910390f35b610061610259565b6040518082815260200191505060405180910390f35b600061025473__ConstantsLib__________________________62a123336040518163ffffffff1660e01b815260040160206040518083038186803b1580156100bf57600080fd5b505af41580156100d3573d6000803e3d6000fd5b505050506040513d60208110156100e957600080fd5b81019080805190602001909291905050506102466000543373ffffffffffffffffffffffffffffffffffffffff1663fc0c546a6040518163ffffffff1660e01b815260040160206040518083038186803b15801561014657600080fd5b505afa15801561015a573d6000803e3d6000fd5b505050506040513d602081101561017057600080fd5b810190808051906020019092919050505073ffffffffffffffffffffffffffffffffffffffff166370a08231336040518263ffffffff1660e01b8152600401808273ffffffffffffffffffffffffffffffffffffffff1673ffffffffffffffffffffffffffffffffffffffff16815260200191505060206040518083038186803b1580156101fd57600080fd5b505afa158015610211573d6000803e3d6000fd5b505050506040513d602081101561022757600080fd5b810190808051906020019092919050505061025f90919063ffffffff16565b6102e590919063ffffffff16565b905090565b60005481565b60008083141561027257600090506102df565b600082840290508284828161028357fe5b04146102da576040517f08c379a00000000000000000000000000000000000000000000000000000000081526004018080602001828103825260218152602001806103756021913960400191505060405180910390fd5b809150505b92915050565b600080821161035c576040517f08c379a000000000000000000000000000000000000000000000000000000000815260040180806020018281038252601a8152602001807f536166654d6174683a206469766973696f6e206279207a65726f00000000000081525060200191505060405180910390fd5b600082848161036757fe5b049050809150509291505056fe536166654d6174683a206d756c7469706c69636174696f6e206f766572666c6f77a265627a7a7231582023717113b3cc3cab896c15df94e064ff73b1dbc9717eec492be4edc52be2a21064736f6c634300050b0032",
  "source": "/*\n * Lottery oracle\n *\n * Copyright (C) 2017-2019 Hubii AS\n */\n\npragma solidity ^0.5.11;\n\nimport {Allocator} from \"./Allocator.sol\";\nimport {SafeMath} from \"openzeppelin-solidity/contracts/math/SafeMath.sol\";\nimport {BountyFund} from \"./BountyFund.sol\";\nimport {ERC20} from \"openzeppelin-solidity/contracts/token/ERC20/ERC20.sol\";\nimport {ConstantsLib} from \"./ConstantsLib.sol\";\n\n/// @title FractionalBalanceAllocator\n/// @author Jens Ivar Jørdre <jensivar@hubii.com>\n/// @notice A bounty allocator allocating by fraction of the bounty fund's token balance\ncontract FractionalBalanceAllocator is Allocator {\n    using SafeMath for uint256;\n\n    uint256 public fraction;\n\n    constructor(uint256 _fraction)\n    public\n    {\n        // Require that fraction is less than the entirety\n        require(_fraction <= ConstantsLib.PARTS_PER(), \"FractionalBalanceAllocator: fraction is greater than entirety\");\n\n        // Initialize fraction\n        fraction = _fraction;\n    }\n\n    /// @notice Return the defined allocation from the allocator\n    function allocate()\n    public\n    view\n    returns (uint256)\n    {\n        return BountyFund(msg.sender).token()\n        .balanceOf(address(msg.sender))\n        .mul(fraction)\n        .div(ConstantsLib.PARTS_PER());\n    }\n}",
  "sourcePath": "/opt/buildagent/work/9988d0feca52d9d9/contracts/FractionalBalanceAllocator.sol",
  "compiler": {
    "name": "solc",
    "version": "0.5.11+commit.c082d0b4.Emscripten.clang"
  },
  "schemaVersion": "3.0.16",
  "updatedAt": "2019-09-22T23:17:18.947Z",
  "devdoc": {
    "author": "Jens Ivar Jørdre <jensivar@hubii.com>",
    "methods": {},
    "title": "FractionalBalanceAllocator"
  },
  "userdoc": {
    "methods": {
      "allocate()": {
        "notice": "Return the defined allocation from the allocator"
      }
    },
    "notice": "A bounty allocator allocating by fraction of the bounty fund's token balance"
  }
}