{
  "contractName": "NaiveTotalResolutionEngine",
  "abi": [
    {
      "constant": true,
      "inputs": [],
      "name": "frozen",
      "outputs": [
        {
          "internalType": "bool",
          "name": "",
          "type": "bool"
        }
      ],
      "payable": false,
      "stateMutability": "view",
      "type": "function"
    },
    {
      "constant": true,
      "inputs": [
        {
          "internalType": "uint256",
          "name": "_verificationPhaseNumber",
          "type": "uint256"
        }
      ],
      "name": "metricsByVerificationPhaseNumber",
      "outputs": [
        {
          "internalType": "enum VerificationPhaseLib.State",
          "name": "state",
          "type": "uint8"
        },
        {
          "internalType": "uint256",
          "name": "trueStakeAmount",
          "type": "uint256"
        },
        {
          "internalType": "uint256",
          "name": "falseStakeAmount",
          "type": "uint256"
        },
        {
          "internalType": "uint256",
          "name": "stakeAmount",
          "type": "uint256"
        },
        {
          "internalType": "uint256",
          "name": "numberOfWallets",
          "type": "uint256"
        },
        {
          "internalType": "uint256",
          "name": "bountyAmount",
          "type": "uint256"
        },
        {
          "internalType": "bool",
          "name": "bountyAwarded",
          "type": "bool"
        },
        {
          "internalType": "uint256",
          "name": "startBlock",
          "type": "uint256"
        },
        {
          "internalType": "uint256",
          "name": "endBlock",
          "type": "uint256"
        },
        {
          "internalType": "uint256",
          "name": "numberOfBlocks",
          "type": "uint256"
        }
      ],
      "payable": false,
      "stateMutability": "view",
      "type": "function"
    },
    {
      "constant": true,
      "inputs": [
        {
          "internalType": "uint256",
          "name": "_blockNumber",
          "type": "uint256"
        }
      ],
      "name": "metricsByBlockNumber",
      "outputs": [
        {
          "internalType": "uint256",
          "name": "trueStakeAmount",
          "type": "uint256"
        },
        {
          "internalType": "uint256",
          "name": "falseStakeAmount",
          "type": "uint256"
        },
        {
          "internalType": "uint256",
          "name": "stakeAmount",
          "type": "uint256"
        }
      ],
      "payable": false,
      "stateMutability": "view",
      "type": "function"
    },
    {
      "constant": true,
      "inputs": [
        {
          "internalType": "string",
          "name": "_role",
          "type": "string"
        }
      ],
      "name": "isRole",
      "outputs": [
        {
          "internalType": "bool",
          "name": "",
          "type": "bool"
        }
      ],
      "payable": false,
      "stateMutability": "view",
      "type": "function"
    },
    {
      "constant": true,
      "inputs": [
        {
          "internalType": "address",
          "name": "_wallet",
          "type": "address"
        }
      ],
      "name": "metricsByWallet",
      "outputs": [
        {
          "internalType": "uint256",
          "name": "trueStakeAmount",
          "type": "uint256"
        },
        {
          "internalType": "uint256",
          "name": "falseStakeAmount",
          "type": "uint256"
        },
        {
          "internalType": "uint256",
          "name": "stakeAmount",
          "type": "uint256"
        }
      ],
      "payable": false,
      "stateMutability": "view",
      "type": "function"
    },
    {
      "constant": false,
      "inputs": [
        {
          "internalType": "address",
          "name": "_wallet",
          "type": "address"
        },
        {
          "internalType": "uint256",
          "name": "_firstVerificationPhaseNumber",
          "type": "uint256"
        },
        {
          "internalType": "uint256",
          "name": "_lastVerificationPhaseNumber",
          "type": "uint256"
        }
      ],
      "name": "stagePayout",
      "outputs": [],
      "payable": false,
      "stateMutability": "nonpayable",
      "type": "function"
    },
    {
      "constant": false,
      "inputs": [
        {
          "internalType": "string",
          "name": "_role",
          "type": "string"
        }
      ],
      "name": "addRole",
      "outputs": [],
      "payable": false,
      "stateMutability": "nonpayable",
      "type": "function"
    },
    {
      "constant": true,
      "inputs": [],
      "name": "verificationStatus",
      "outputs": [
        {
          "internalType": "enum VerificationPhaseLib.Status",
          "name": "",
          "type": "uint8"
        }
      ],
      "payable": false,
      "stateMutability": "view",
      "type": "function"
    },
    {
      "constant": false,
      "inputs": [
        {
          "internalType": "address",
          "name": "_wallet",
          "type": "address"
        },
        {
          "internalType": "bool",
          "name": "_status",
          "type": "bool"
        },
        {
          "internalType": "uint256",
          "name": "_amount",
          "type": "uint256"
        }
      ],
      "name": "stake",
      "outputs": [],
      "payable": false,
      "stateMutability": "nonpayable",
      "type": "function"
    },
    {
      "constant": false,
      "inputs": [
        {
          "internalType": "string",
          "name": "_role",
          "type": "string"
        },
        {
          "internalType": "address",
          "name": "_address",
          "type": "address"
        }
      ],
      "name": "addRoleAccessor",
      "outputs": [],
      "payable": false,
      "stateMutability": "nonpayable",
      "type": "function"
    },
    {
      "constant": true,
      "inputs": [],
      "name": "nextAmount",
      "outputs": [
        {
          "internalType": "uint256",
          "name": "",
          "type": "uint256"
        }
      ],
      "payable": false,
      "stateMutability": "view",
      "type": "function"
    },
    {
      "constant": true,
      "inputs": [
        {
          "internalType": "address",
          "name": "",
          "type": "address"
        }
      ],
      "name": "stagedAmountByWallet",
      "outputs": [
        {
          "internalType": "uint256",
          "name": "",
          "type": "uint256"
        }
      ],
      "payable": false,
      "stateMutability": "view",
      "type": "function"
    },
    {
      "constant": true,
      "inputs": [],
      "name": "operator",
      "outputs": [
        {
          "internalType": "address",
          "name": "",
          "type": "address"
        }
      ],
      "payable": false,
      "stateMutability": "view",
      "type": "function"
    },
    {
      "constant": false,
      "inputs": [
        {
          "internalType": "string",
          "name": "_role",
          "type": "string"
        },
        {
          "internalType": "address",
          "name": "_address",
          "type": "address"
        }
      ],
      "name": "removeRoleAccessor",
      "outputs": [],
      "payable": false,
      "stateMutability": "nonpayable",
      "type": "function"
    },
    {
      "constant": true,
      "inputs": [
        {
          "internalType": "string",
          "name": "_name",
          "type": "string"
        }
      ],
      "name": "disabled",
      "outputs": [
        {
          "internalType": "bool",
          "name": "",
          "type": "bool"
        }
      ],
      "payable": false,
      "stateMutability": "view",
      "type": "function"
    },
    {
      "constant": false,
      "inputs": [],
      "name": "freeze",
      "outputs": [],
      "payable": false,
      "stateMutability": "nonpayable",
      "type": "function"
    },
    {
      "constant": false,
      "inputs": [
        {
          "internalType": "address",
          "name": "_wallet",
          "type": "address"
        }
      ],
      "name": "withdrawBounty",
      "outputs": [],
      "payable": false,
      "stateMutability": "nonpayable",
      "type": "function"
    },
    {
      "constant": true,
      "inputs": [
        {
          "internalType": "address",
          "name": "_wallet",
          "type": "address"
        },
        {
          "internalType": "uint256",
          "name": "_firstVerificationPhaseNumber",
          "type": "uint256"
        },
        {
          "internalType": "uint256",
          "name": "_lastVerificationPhaseNumber",
          "type": "uint256"
        }
      ],
      "name": "calculatePayout",
      "outputs": [
        {
          "internalType": "uint256",
          "name": "",
          "type": "uint256"
        }
      ],
      "payable": false,
      "stateMutability": "view",
      "type": "function"
    },
    {
      "constant": false,
      "inputs": [
        {
          "internalType": "address",
          "name": "_wallet",
          "type": "address"
        }
      ],
      "name": "stageStake",
      "outputs": [],
      "payable": false,
      "stateMutability": "nonpayable",
      "type": "function"
    },
    {
      "constant": true,
      "inputs": [
        {
          "internalType": "string",
          "name": "_name",
          "type": "string"
        }
      ],
      "name": "enabled",
      "outputs": [
        {
          "internalType": "bool",
          "name": "",
          "type": "bool"
        }
      ],
      "payable": false,
      "stateMutability": "view",
      "type": "function"
    },
    {
      "constant": true,
      "inputs": [],
      "name": "oracle",
      "outputs": [
        {
          "internalType": "address",
          "name": "",
          "type": "address"
        }
      ],
      "payable": false,
      "stateMutability": "view",
      "type": "function"
    },
    {
      "constant": false,
      "inputs": [],
      "name": "initialize",
      "outputs": [],
      "payable": false,
      "stateMutability": "nonpayable",
      "type": "function"
    },
    {
      "constant": false,
      "inputs": [
        {
          "internalType": "address",
          "name": "_bountyAllocator",
          "type": "address"
        }
      ],
      "name": "setBountyAllocator",
      "outputs": [],
      "payable": false,
      "stateMutability": "nonpayable",
      "type": "function"
    },
    {
      "constant": true,
      "inputs": [],
      "name": "RESOLVE_ACTION",
      "outputs": [
        {
          "internalType": "string",
          "name": "",
          "type": "string"
        }
      ],
      "payable": false,
      "stateMutability": "view",
      "type": "function"
    },
    {
      "constant": true,
      "inputs": [],
      "name": "STAKE_ACTION",
      "outputs": [
        {
          "internalType": "string",
          "name": "",
          "type": "string"
        }
      ],
      "payable": false,
      "stateMutability": "view",
      "type": "function"
    },
    {
      "constant": true,
      "inputs": [],
      "name": "rolesCount",
      "outputs": [
        {
          "internalType": "uint256",
          "name": "",
          "type": "uint256"
        }
      ],
      "payable": false,
      "stateMutability": "view",
      "type": "function"
    },
    {
      "constant": false,
      "inputs": [
        {
          "internalType": "string",
          "name": "_action",
          "type": "string"
        }
      ],
      "name": "enable",
      "outputs": [],
      "payable": false,
      "stateMutability": "nonpayable",
      "type": "function"
    },
    {
      "constant": true,
      "inputs": [
        {
          "internalType": "uint256",
          "name": "",
          "type": "uint256"
        }
      ],
      "name": "roles",
      "outputs": [
        {
          "internalType": "string",
          "name": "",
          "type": "string"
        }
      ],
      "payable": false,
      "stateMutability": "view",
      "type": "function"
    },
    {
      "constant": true,
      "inputs": [],
      "name": "bountyFund",
      "outputs": [
        {
          "internalType": "contract BountyFund",
          "name": "",
          "type": "address"
        }
      ],
      "payable": false,
      "stateMutability": "view",
      "type": "function"
    },
    {
      "constant": false,
      "inputs": [],
      "name": "resolveIfCriteriaMet",
      "outputs": [],
      "payable": false,
      "stateMutability": "nonpayable",
      "type": "function"
    },
    {
      "constant": true,
      "inputs": [],
      "name": "bountyAllocator",
      "outputs": [
        {
          "internalType": "address",
          "name": "",
          "type": "address"
        }
      ],
      "payable": false,
      "stateMutability": "view",
      "type": "function"
    },
    {
      "constant": true,
      "inputs": [],
      "name": "verificationPhaseNumber",
      "outputs": [
        {
          "internalType": "uint256",
          "name": "",
          "type": "uint256"
        }
      ],
      "payable": false,
      "stateMutability": "view",
      "type": "function"
    },
    {
      "constant": true,
      "inputs": [
        {
          "internalType": "address",
          "name": "",
          "type": "address"
        },
        {
          "internalType": "uint256",
          "name": "",
          "type": "uint256"
        }
      ],
      "name": "payoutStagedByWalletPhase",
      "outputs": [
        {
          "internalType": "bool",
          "name": "",
          "type": "bool"
        }
      ],
      "payable": false,
      "stateMutability": "view",
      "type": "function"
    },
    {
      "constant": false,
      "inputs": [
        {
          "internalType": "string",
          "name": "_action",
          "type": "string"
        }
      ],
      "name": "disable",
      "outputs": [],
      "payable": false,
      "stateMutability": "nonpayable",
      "type": "function"
    },
    {
      "constant": true,
      "inputs": [],
      "name": "OWNER_ROLE",
      "outputs": [
        {
          "internalType": "string",
          "name": "",
          "type": "string"
        }
      ],
      "payable": false,
      "stateMutability": "view",
      "type": "function"
    },
    {
      "constant": true,
      "inputs": [
        {
          "internalType": "address",
          "name": "",
          "type": "address"
        },
        {
          "internalType": "bool",
          "name": "",
          "type": "bool"
        }
      ],
      "name": "stakedAmountByWalletStatus",
      "outputs": [
        {
          "internalType": "uint256",
          "name": "",
          "type": "uint256"
        }
      ],
      "payable": false,
      "stateMutability": "view",
      "type": "function"
    },
    {
      "constant": false,
      "inputs": [
        {
          "internalType": "address",
          "name": "_wallet",
          "type": "address"
        },
        {
          "internalType": "uint256",
          "name": "_amount",
          "type": "uint256"
        }
      ],
      "name": "stage",
      "outputs": [],
      "payable": false,
      "stateMutability": "nonpayable",
      "type": "function"
    },
    {
      "constant": false,
      "inputs": [
        {
          "internalType": "address",
          "name": "_wallet",
          "type": "address"
        },
        {
          "internalType": "uint256",
          "name": "_amount",
          "type": "uint256"
        }
      ],
      "name": "withdraw",
      "outputs": [],
      "payable": false,
      "stateMutability": "nonpayable",
      "type": "function"
    },
    {
      "constant": true,
      "inputs": [
        {
          "internalType": "uint256",
          "name": "_verificationPhaseNumber",
          "type": "uint256"
        },
        {
          "internalType": "address",
          "name": "_wallet",
          "type": "address"
        }
      ],
      "name": "metricsByVerificationPhaseNumberAndWallet",
      "outputs": [
        {
          "internalType": "uint256",
          "name": "trueStakeAmount",
          "type": "uint256"
        },
        {
          "internalType": "uint256",
          "name": "falseStakeAmount",
          "type": "uint256"
        },
        {
          "internalType": "uint256",
          "name": "stakeAmount",
          "type": "uint256"
        }
      ],
      "payable": false,
      "stateMutability": "view",
      "type": "function"
    },
    {
      "constant": true,
      "inputs": [
        {
          "internalType": "string",
          "name": "_role",
          "type": "string"
        },
        {
          "internalType": "address",
          "name": "_address",
          "type": "address"
        }
      ],
      "name": "isRoleAccessor",
      "outputs": [
        {
          "internalType": "bool",
          "name": "",
          "type": "bool"
        }
      ],
      "payable": false,
      "stateMutability": "view",
      "type": "function"
    },
    {
      "constant": true,
      "inputs": [
        {
          "internalType": "uint256",
          "name": "",
          "type": "uint256"
        },
        {
          "internalType": "bool",
          "name": "",
          "type": "bool"
        }
      ],
      "name": "stakedAmountByBlockStatus",
      "outputs": [
        {
          "internalType": "uint256",
          "name": "",
          "type": "uint256"
        }
      ],
      "payable": false,
      "stateMutability": "view",
      "type": "function"
    },
    {
      "constant": true,
      "inputs": [],
      "name": "token",
      "outputs": [
        {
          "internalType": "contract ERC20",
          "name": "",
          "type": "address"
        }
      ],
      "payable": false,
      "stateMutability": "view",
      "type": "function"
    },
    {
      "constant": true,
      "inputs": [
        {
          "internalType": "uint256",
          "name": "",
          "type": "uint256"
        }
      ],
      "name": "verificationPhaseByPhaseNumber",
      "outputs": [
        {
          "internalType": "enum VerificationPhaseLib.State",
          "name": "state",
          "type": "uint8"
        },
        {
          "internalType": "enum VerificationPhaseLib.Status",
          "name": "result",
          "type": "uint8"
        },
        {
          "internalType": "uint256",
          "name": "stakedAmount",
          "type": "uint256"
        },
        {
          "internalType": "uint256",
          "name": "stakingWallets",
          "type": "uint256"
        },
        {
          "internalType": "uint256",
          "name": "bountyAmount",
          "type": "uint256"
        },
        {
          "internalType": "bool",
          "name": "bountyAwarded",
          "type": "bool"
        },
        {
          "internalType": "uint256",
          "name": "startBlock",
          "type": "uint256"
        },
        {
          "internalType": "uint256",
          "name": "endBlock",
          "type": "uint256"
        }
      ],
      "payable": false,
      "stateMutability": "view",
      "type": "function"
    },
    {
      "inputs": [
        {
          "internalType": "address",
          "name": "_oracle",
          "type": "address"
        },
        {
          "internalType": "address",
          "name": "_operator",
          "type": "address"
        },
        {
          "internalType": "address",
          "name": "_bountyFund",
          "type": "address"
        },
        {
          "internalType": "uint256",
          "name": "_nextAmount",
          "type": "uint256"
        }
      ],
      "payable": false,
      "stateMutability": "nonpayable",
      "type": "constructor"
    },
    {
      "anonymous": false,
      "inputs": [
        {
          "indexed": false,
          "internalType": "uint256",
          "name": "amount",
          "type": "uint256"
        }
      ],
      "name": "NextAmountSet",
      "type": "event"
    },
    {
      "anonymous": false,
      "inputs": [],
      "name": "Frozen",
      "type": "event"
    },
    {
      "anonymous": false,
      "inputs": [
        {
          "indexed": true,
          "internalType": "address",
          "name": "_bountyAllocator",
          "type": "address"
        }
      ],
      "name": "BountyAllocatorSet",
      "type": "event"
    },
    {
      "anonymous": false,
      "inputs": [
        {
          "indexed": true,
          "internalType": "address",
          "name": "_wallet",
          "type": "address"
        },
        {
          "indexed": true,
          "internalType": "uint256",
          "name": "_verificationPhaseNumber",
          "type": "uint256"
        },
        {
          "indexed": false,
          "internalType": "bool",
          "name": "_status",
          "type": "bool"
        },
        {
          "indexed": false,
          "internalType": "uint256",
          "name": "_amount",
          "type": "uint256"
        }
      ],
      "name": "Staked",
      "type": "event"
    },
    {
      "anonymous": false,
      "inputs": [
        {
          "indexed": true,
          "internalType": "address",
          "name": "_wallet",
          "type": "address"
        },
        {
          "indexed": false,
          "internalType": "uint256",
          "name": "_bountyAmount",
          "type": "uint256"
        }
      ],
      "name": "BountyWithdrawn",
      "type": "event"
    },
    {
      "anonymous": false,
      "inputs": [
        {
          "indexed": true,
          "internalType": "uint256",
          "name": "_verificationPhaseNumber",
          "type": "uint256"
        },
        {
          "indexed": false,
          "internalType": "uint256",
          "name": "_bountyAmount",
          "type": "uint256"
        }
      ],
      "name": "VerificationPhaseOpened",
      "type": "event"
    },
    {
      "anonymous": false,
      "inputs": [
        {
          "indexed": true,
          "internalType": "uint256",
          "name": "_verificationPhaseNumber",
          "type": "uint256"
        }
      ],
      "name": "VerificationPhaseClosed",
      "type": "event"
    },
    {
      "anonymous": false,
      "inputs": [
        {
          "indexed": true,
          "internalType": "address",
          "name": "_wallet",
          "type": "address"
        },
        {
          "indexed": true,
          "internalType": "uint256",
          "name": "_firstVerificationPhaseNumber",
          "type": "uint256"
        },
        {
          "indexed": true,
          "internalType": "uint256",
          "name": "_lastVerificationPhaseNumber",
          "type": "uint256"
        },
        {
          "indexed": false,
          "internalType": "uint256",
          "name": "_payout",
          "type": "uint256"
        }
      ],
      "name": "PayoutStaged",
      "type": "event"
    },
    {
      "anonymous": false,
      "inputs": [
        {
          "indexed": true,
          "internalType": "address",
          "name": "_wallet",
          "type": "address"
        },
        {
          "indexed": false,
          "internalType": "uint256",
          "name": "_amount",
          "type": "uint256"
        }
      ],
      "name": "StakeStaged",
      "type": "event"
    },
    {
      "anonymous": false,
      "inputs": [
        {
          "indexed": true,
          "internalType": "address",
          "name": "_wallet",
          "type": "address"
        },
        {
          "indexed": false,
          "internalType": "uint256",
          "name": "_amount",
          "type": "uint256"
        }
      ],
      "name": "Staged",
      "type": "event"
    },
    {
      "anonymous": false,
      "inputs": [
        {
          "indexed": true,
          "internalType": "address",
          "name": "_wallet",
          "type": "address"
        },
        {
          "indexed": false,
          "internalType": "uint256",
          "name": "_amount",
          "type": "uint256"
        }
      ],
      "name": "Withdrawn",
      "type": "event"
    },
    {
      "anonymous": false,
      "inputs": [
        {
          "indexed": false,
          "internalType": "string",
          "name": "_name",
          "type": "string"
        }
      ],
      "name": "Disabled",
      "type": "event"
    },
    {
      "anonymous": false,
      "inputs": [
        {
          "indexed": false,
          "internalType": "string",
          "name": "_name",
          "type": "string"
        }
      ],
      "name": "Enabled",
      "type": "event"
    },
    {
      "anonymous": false,
      "inputs": [
        {
          "indexed": false,
          "internalType": "string",
          "name": "_role",
          "type": "string"
        }
      ],
      "name": "RoleAdded",
      "type": "event"
    },
    {
      "anonymous": false,
      "inputs": [
        {
          "indexed": false,
          "internalType": "string",
          "name": "_role",
          "type": "string"
        },
        {
          "indexed": true,
          "internalType": "address",
          "name": "_address",
          "type": "address"
        }
      ],
      "name": "RoleAccessorAdded",
      "type": "event"
    },
    {
      "anonymous": false,
      "inputs": [
        {
          "indexed": false,
          "internalType": "string",
          "name": "_role",
          "type": "string"
        },
        {
          "indexed": true,
          "internalType": "address",
          "name": "_address",
          "type": "address"
        }
      ],
      "name": "RoleAccessorRemoved",
      "type": "event"
    },
    {
      "constant": true,
      "inputs": [
        {
          "internalType": "bool",
          "name": "_status",
          "type": "bool"
        }
      ],
      "name": "resolutionDeltaAmount",
      "outputs": [
        {
          "internalType": "uint256",
          "name": "",
          "type": "uint256"
        }
      ],
      "payable": false,
      "stateMutability": "view",
      "type": "function"
    },
    {
      "constant": true,
      "inputs": [],
      "name": "resolutionCriteriaMet",
      "outputs": [
        {
          "internalType": "bool",
          "name": "",
          "type": "bool"
        }
      ],
      "payable": false,
      "stateMutability": "view",
      "type": "function"
    },
    {
      "constant": false,
      "inputs": [
        {
          "internalType": "uint256",
          "name": "_nextAmount",
          "type": "uint256"
        }
      ],
      "name": "setNextAmount",
      "outputs": [],
      "payable": false,
      "stateMutability": "nonpayable",
      "type": "function"
    },
    {
      "constant": true,
      "inputs": [
        {
          "internalType": "uint256",
          "name": "_verificationPhaseNumber",
          "type": "uint256"
        }
      ],
      "name": "amountByPhaseNumber",
      "outputs": [
        {
          "internalType": "uint256",
          "name": "",
          "type": "uint256"
        }
      ],
      "payable": false,
      "stateMutability": "view",
      "type": "function"
    }
  ],
  "bytecode": "0x60806040523480156200001157600080fd5b5060405162005a0e38038062005a0e833981810160405260808110156200003757600080fd5b8101908080519060200190929190805190602001909291908051906020019092919080519060200190929190505050838383620000af6040518060400160405280600581526020017f4f574e45520000000000000000000000000000000000000000000000000000008152506200036e60201b60201c565b620000f66040518060400160405280600581526020017f4f574e4552000000000000000000000000000000000000000000000000000000815250336200040d60201b60201c565b82600460006101000a81548173ffffffffffffffffffffffffffffffffffffffff021916908373ffffffffffffffffffffffffffffffffffffffff16021790555081600560006101000a81548173ffffffffffffffffffffffffffffffffffffffff021916908373ffffffffffffffffffffffffffffffffffffffff16021790555080600760006101000a81548173ffffffffffffffffffffffffffffffffffffffff021916908373ffffffffffffffffffffffffffffffffffffffff160217905550600760009054906101000a900473ffffffffffffffffffffffffffffffffffffffff1673ffffffffffffffffffffffffffffffffffffffff16637d54a822306040518263ffffffff1660e01b8152600401808273ffffffffffffffffffffffffffffffffffffffff1673ffffffffffffffffffffffffffffffffffffffff168152602001915050600060405180830381600087803b1580156200025b57600080fd5b505af115801562000270573d6000803e3d6000fd5b50505050600760009054906101000a900473ffffffffffffffffffffffffffffffffffffffff1673ffffffffffffffffffffffffffffffffffffffff1663fc0c546a6040518163ffffffff1660e01b815260040160206040518083038186803b158015620002dd57600080fd5b505afa158015620002f2573d6000803e3d6000fd5b505050506040513d60208110156200030957600080fd5b8101908080519060200190929190505050600860006101000a81548173ffffffffffffffffffffffffffffffffffffffff021916908373ffffffffffffffffffffffffffffffffffffffff16021790555050505080601081905550505050506200073d565b6001600062000383836200044d60201b60201c565b815260200190815260200160002054600014156200040a576000819080600181540180825580915050906001820390600052602060002001600090919290919091509080519060200190620003da9291906200068e565b505060008054905060016000620003f7846200044d60201b60201c565b8152602001908152602001600020819055505b50565b62000449816002600062000427866200044d60201b60201c565b8152602001908152602001600020620004ca60201b62004c911790919060201c565b5050565b6000816040516020018082805190602001908083835b6020831062000488578051825260208201915060208101905060208303925062000463565b6001836020036101000a038019825116818451168082178552505050505050905001915050604051602081830303815290604052805190602001209050919050565b620004dc8282620005ae60201b60201c565b1562000550576040517f08c379a000000000000000000000000000000000000000000000000000000000815260040180806020018281038252601f8152602001807f526f6c65733a206163636f756e7420616c72656164792068617320726f6c650081525060200191505060405180910390fd5b60018260000160008373ffffffffffffffffffffffffffffffffffffffff1673ffffffffffffffffffffffffffffffffffffffff16815260200190815260200160002060006101000a81548160ff0219169083151502179055505050565b60008073ffffffffffffffffffffffffffffffffffffffff168273ffffffffffffffffffffffffffffffffffffffff16141562000637576040517f08c379a0000000000000000000000000000000000000000000000000000000008152600401808060200182810382526022815260200180620059ec6022913960400191505060405180910390fd5b8260000160008373ffffffffffffffffffffffffffffffffffffffff1673ffffffffffffffffffffffffffffffffffffffff16815260200190815260200160002060009054906101000a900460ff16905092915050565b828054600181600116156101000203166002900490600052602060002090601f016020900481019282601f10620006d157805160ff191683800117855562000702565b8280016001018555821562000702579182015b8281111562000701578251825591602001919060010190620006e4565b5b50905062000711919062000715565b5090565b6200073a91905b80821115620007365760008160009055506001016200071c565b5090565b90565b61529f806200074d6000396000f3fe608060405234801561001057600080fd5b50600436106102955760003560e01c80637ca41f2611610167578063d00e768b116100ce578063f3fef3a311610087578063f3fef3a314611291578063f556e70a146112df578063fb535fd61461134f578063fbf098ed14611442578063fc0c546a14611490578063fc8d6317146114da57610295565b8063d00e768b1461101d578063d0e22f091461103b578063e2998381146110a1578063e58378bb1461115c578063e86c1d36146111df578063ebb2666f1461124357610295565b8063b8517dd811610120578063b8517dd814610dff578063b8724c5914610e1d578063bfda4a4914610ed8578063c06c66ca14610f7f578063c587f53c14610fc9578063cf7f3da414610fd357610295565b80637ca41f2614610b8e5780637dc0d1d014610c615780638129fc1c14610cab578063960873da14610cb5578063a1f6c95914610cf9578063b330df7314610d7c57610295565b80634da195be1161020b5780635b526811116101c45780635b5268111461097957806362a5af3b14610a4c5780636dbf810814610a5657806370551d4d14610a9a578063790d36cb14610ade5780637bd190b714610b4a57610295565b80634da195be146106e157806350f956db146107bc578063513554e7146107da57806353a538aa146107fc578063570ca735146108545780635b0f833a1461089e57610295565b806312b0348a1161025d57806312b0348a146104b457806312e810f2146104e2578063170ec9fb146105485780633e96e868146105a05780634a0d30961461065b5780634a0f2f7a1461068757610295565b8063054f7d9c1461029a57806306bcbd00146102bc57806306d05aef1461034f5780630a3b2c8a1461039f5780630f6c37de146103e1575b600080fd5b6102a261156d565b604051808215151515815260200191505060405180910390f35b6102e8600480360360208110156102d257600080fd5b8101908080359060200190929190505050611580565b604051808b60028111156102f857fe5b60ff1681526020018a8152602001898152602001888152602001878152602001868152602001851515151581526020018481526020018381526020018281526020019a505050505050505050505060405180910390f35b61037b6004803603602081101561036557600080fd5b81019080803590602001909291905050506116f2565b60405180848152602001838152602001828152602001935050505060405180910390f35b6103cb600480360360208110156103b557600080fd5b810190808035906020019092919050505061176a565b6040518082815260200191505060405180910390f35b61049a600480360360208110156103f757600080fd5b810190808035906020019064010000000081111561041457600080fd5b82018360208201111561042657600080fd5b8035906020019184600183028401116401000000008311171561044857600080fd5b91908080601f016020809104026020016040519081016040528093929190818152602001838380828437600081840152601f19601f8201169050808301925050505050505091929192905050506117a0565b604051808215151515815260200191505060405180910390f35b6104e0600480360360208110156104ca57600080fd5b81019080803590602001909291905050506117c9565b005b610524600480360360208110156104f857600080fd5b81019080803573ffffffffffffffffffffffffffffffffffffffff169060200190929190505050611925565b60405180848152602001838152602001828152602001935050505060405180910390f35b61059e6004803603606081101561055e57600080fd5b81019080803573ffffffffffffffffffffffffffffffffffffffff16906020019092919080359060200190929190803590602001909291905050506119f5565b005b610659600480360360208110156105b657600080fd5b81019080803590602001906401000000008111156105d357600080fd5b8201836020820111156105e557600080fd5b8035906020019184600183028401116401000000008311171561060757600080fd5b91908080601f016020809104026020016040519081016040528093929190818152602001838380828437600081840152601f19601f820116905080830192505050505050509192919290505050611b2f565b005b610663611c6d565b6040518082600281111561067357fe5b60ff16815260200191505060405180910390f35b6106df6004803603606081101561069d57600080fd5b81019080803573ffffffffffffffffffffffffffffffffffffffff16906020019092919080351515906020019092919080359060200190929190505050611c80565b005b6107ba600480360360408110156106f757600080fd5b810190808035906020019064010000000081111561071457600080fd5b82018360208201111561072657600080fd5b8035906020019184600183028401116401000000008311171561074857600080fd5b91908080601f016020809104026020016040519081016040528093929190818152602001838380828437600081840152601f19601f820116905080830192505050505050509192919290803573ffffffffffffffffffffffffffffffffffffffff169060200190929190505050611f8b565b005b6107c46120e2565b6040518082815260200191505060405180910390f35b6107e26120e8565b604051808215151515815260200191505060405180910390f35b61083e6004803603602081101561081257600080fd5b81019080803573ffffffffffffffffffffffffffffffffffffffff16906020019092919050505061216d565b6040518082815260200191505060405180910390f35b61085c612185565b604051808273ffffffffffffffffffffffffffffffffffffffff1673ffffffffffffffffffffffffffffffffffffffff16815260200191505060405180910390f35b610977600480360360408110156108b457600080fd5b81019080803590602001906401000000008111156108d157600080fd5b8201836020820111156108e357600080fd5b8035906020019184600183028401116401000000008311171561090557600080fd5b91908080601f016020809104026020016040519081016040528093929190818152602001838380828437600081840152601f19601f820116905080830192505050505050509192919290803573ffffffffffffffffffffffffffffffffffffffff1690602001909291905050506121ab565b005b610a326004803603602081101561098f57600080fd5b81019080803590602001906401000000008111156109ac57600080fd5b8201836020820111156109be57600080fd5b803590602001918460018302840111640100000000831117156109e057600080fd5b91908080601f016020809104026020016040519081016040528093929190818152602001838380828437600081840152601f19601f820116905080830192505050505050509192919290505050612325565b604051808215151515815260200191505060405180910390f35b610a546123a5565b005b610a9860048036036020811015610a6c57600080fd5b81019080803573ffffffffffffffffffffffffffffffffffffffff169060200190929190505050612484565b005b610ac860048036036020811015610ab057600080fd5b810190808035151590602001909291905050506127dc565b6040518082815260200191505060405180910390f35b610b3460048036036060811015610af457600080fd5b81019080803573ffffffffffffffffffffffffffffffffffffffff1690602001909291908035906020019092919080359060200190929190505050612875565b6040518082815260200191505060405180910390f35b610b8c60048036036020811015610b6057600080fd5b81019080803573ffffffffffffffffffffffffffffffffffffffff1690602001909291905050506128c0565b005b610c4760048036036020811015610ba457600080fd5b8101908080359060200190640100000000811115610bc157600080fd5b820183602082011115610bd357600080fd5b80359060200191846001830284011164010000000083111715610bf557600080fd5b91908080601f016020809104026020016040519081016040528093929190818152602001838380828437600081840152601f19601f820116905080830192505050505050509192919290505050612cb7565b604051808215151515815260200191505060405180910390f35b610c69612d38565b604051808273ffffffffffffffffffffffffffffffffffffffff1673ffffffffffffffffffffffffffffffffffffffff16815260200191505060405180910390f35b610cb3612d5e565b005b610cf760048036036020811015610ccb57600080fd5b81019080803573ffffffffffffffffffffffffffffffffffffffff169060200190929190505050612e59565b005b610d01612f98565b6040518080602001828103825283818151815260200191508051906020019080838360005b83811015610d41578082015181840152602081019050610d26565b50505050905090810190601f168015610d6e5780820380516001836020036101000a031916815260200191505b509250505060405180910390f35b610d84612fd1565b6040518080602001828103825283818151815260200191508051906020019080838360005b83811015610dc4578082015181840152602081019050610da9565b50505050905090810190601f168015610df15780820380516001836020036101000a031916815260200191505b509250505060405180910390f35b610e0761300a565b6040518082815260200191505060405180910390f35b610ed660048036036020811015610e3357600080fd5b8101908080359060200190640100000000811115610e5057600080fd5b820183602082011115610e6257600080fd5b80359060200191846001830284011164010000000083111715610e8457600080fd5b91908080601f016020809104026020016040519081016040528093929190818152602001838380828437600081840152601f19601f820116905080830192505050505050509192919290505050613016565b005b610f0460048036036020811015610eee57600080fd5b81019080803590602001909291905050506130c8565b6040518080602001828103825283818151815260200191508051906020019080838360005b83811015610f44578082015181840152602081019050610f29565b50505050905090810190601f168015610f715780820380516001836020036101000a031916815260200191505b509250505060405180910390f35b610f87613181565b604051808273ffffffffffffffffffffffffffffffffffffffff1673ffffffffffffffffffffffffffffffffffffffff16815260200191505060405180910390f35b610fd16131a7565b005b610fdb61331f565b604051808273ffffffffffffffffffffffffffffffffffffffff1673ffffffffffffffffffffffffffffffffffffffff16815260200191505060405180910390f35b611025613345565b6040518082815260200191505060405180910390f35b6110876004803603604081101561105157600080fd5b81019080803573ffffffffffffffffffffffffffffffffffffffff1690602001909291908035906020019092919050505061334b565b604051808215151515815260200191505060405180910390f35b61115a600480360360208110156110b757600080fd5b81019080803590602001906401000000008111156110d457600080fd5b8201836020820111156110e657600080fd5b8035906020019184600183028401116401000000008311171561110857600080fd5b91908080601f016020809104026020016040519081016040528093929190818152602001838380828437600081840152601f19601f82011690508083019250505050505050919291929050505061337a565b005b61116461342c565b6040518080602001828103825283818151815260200191508051906020019080838360005b838110156111a4578082015181840152602081019050611189565b50505050905090810190601f1680156111d15780820380516001836020036101000a031916815260200191505b509250505060405180910390f35b61122d600480360360408110156111f557600080fd5b81019080803573ffffffffffffffffffffffffffffffffffffffff169060200190929190803515159060200190929190505050613465565b6040518082815260200191505060405180910390f35b61128f6004803603604081101561125957600080fd5b81019080803573ffffffffffffffffffffffffffffffffffffffff1690602001909291908035906020019092919050505061348a565b005b6112dd600480360360408110156112a757600080fd5b81019080803573ffffffffffffffffffffffffffffffffffffffff1690602001909291908035906020019092919050505061358c565b005b61132b600480360360408110156112f557600080fd5b8101908080359060200190929190803573ffffffffffffffffffffffffffffffffffffffff169060200190929190505050613896565b60405180848152602001838152602001828152602001935050505060405180910390f35b6114286004803603604081101561136557600080fd5b810190808035906020019064010000000081111561138257600080fd5b82018360208201111561139457600080fd5b803590602001918460018302840111640100000000831117156113b657600080fd5b91908080601f016020809104026020016040519081016040528093929190818152602001838380828437600081840152601f19601f820116905080830192505050505050509192919290803573ffffffffffffffffffffffffffffffffffffffff16906020019092919050505061398e565b604051808215151515815260200191505060405180910390f35b61147a6004803603604081101561145857600080fd5b81019080803590602001909291908035151590602001909291905050506139c5565b6040518082815260200191505060405180910390f35b6114986139ea565b604051808273ffffffffffffffffffffffffffffffffffffffff1673ffffffffffffffffffffffffffffffffffffffff16815260200191505060405180910390f35b611506600480360360208110156114f057600080fd5b8101908080359060200190929190505050613a10565b6040518089600281111561151657fe5b60ff16815260200188600281111561152a57fe5b60ff168152602001878152602001868152602001858152602001841515151581526020018381526020018281526020019850505050505050505060405180910390f35b600860149054906101000a900460ff1681565b600080600080600080600080600080600a60008c815260200190815260200160002060000160009054906101000a900460ff169950600a60008c815260200190815260200160002060020160006001151515158152602001908152602001600020549850600a60008c8152602001908152602001600020600201600080151515158152602001908152602001600020549750600a60008c8152602001908152602001600020600101549650600a60008c8152602001908152602001600020600601549550600a60008c8152602001908152602001600020600701549450600a60008c815260200190815260200160002060080160009054906101000a900460ff169350600a60008c8152602001908152602001600020600901549250600a60008c8152602001908152602001600020600a015491506116e3836000851180156116c95750600084145b6116d357836116d5565b435b613a7f90919063ffffffff16565b90509193959799509193959799565b6000806000600c600085815260200190815260200160002060006001151515158152602001908152602001600020549250600c60008581526020019081526020016000206000801515151581526020019081526020016000205491506117618284613b0890919063ffffffff16565b90509193909250565b6000600a6000838152602001908152602001600020600b0160008154811061178e57fe5b90600052602060002001549050919050565b6000600160006117af84613b90565b815260200190815260200160002054600014159050919050565b6040518060400160405280600581526020017f4f574e4552000000000000000000000000000000000000000000000000000000815250611809813361398e565b61185e576040517f08c379a000000000000000000000000000000000000000000000000000000000815260040180806020018281038252602a8152602001806150d6602a913960400191505060405180910390fd5b600860149054906101000a900460ff16156118e1576040517f08c379a000000000000000000000000000000000000000000000000000000000815260040180806020018281038252601b8152602001807f5265736f6c7574696f6e456e67696e653a2069732066726f7a656e000000000081525060200191505060405180910390fd5b816010819055507f7702c8637c1dee54c3fb4477b85ca21edd857983155e179d09f33721d50480466010546040518082815260200191505060405180910390a15050565b6000806000600b60008573ffffffffffffffffffffffffffffffffffffffff1673ffffffffffffffffffffffffffffffffffffffff16815260200190815260200160002060006001151515158152602001908152602001600020549250600b60008573ffffffffffffffffffffffffffffffffffffffff1673ffffffffffffffffffffffffffffffffffffffff1681526020019081526020016000206000801515151581526020019081526020016000205491506119ec8284613b0890919063ffffffff16565b90509193909250565b600460009054906101000a900473ffffffffffffffffffffffffffffffffffffffff1673ffffffffffffffffffffffffffffffffffffffff163373ffffffffffffffffffffffffffffffffffffffff1614611a9b576040517f08c379a00000000000000000000000000000000000000000000000000000000081526004018080602001828103825260328152602001806150a46032913960400191505060405180910390fd5b600080905060008390505b828111611ad857611ac9611aba8683613c0b565b83613b0890919063ffffffff16565b91508080600101915050611aa6565b5081838573ffffffffffffffffffffffffffffffffffffffff167fc1199d92491cca50fe2a0c945991862e1ea7ed9da838db6eedd4e19580f6ec45846040518082815260200191505060405180910390a450505050565b6040518060400160405280600581526020017f4f574e4552000000000000000000000000000000000000000000000000000000815250611b6f813361398e565b611bc4576040517f08c379a000000000000000000000000000000000000000000000000000000000815260040180806020018281038252602a8152602001806150d6602a913960400191505060405180910390fd5b611bcd82613d4e565b7f22f30a094e2ed10e9a92ebac7a70b8e2ae3288d9b594db22587861bc8fef4eef826040518080602001828103825283818151815260200191508051906020019080838360005b83811015611c2f578082015181840152602081019050611c14565b50505050905090810190601f168015611c5c5780820380516001836020036101000a031916815260200191505b509250505060405180910390a15050565b600d60009054906101000a900460ff1681565b600460009054906101000a900473ffffffffffffffffffffffffffffffffffffffff1673ffffffffffffffffffffffffffffffffffffffff163373ffffffffffffffffffffffffffffffffffffffff1614611d26576040517f08c379a00000000000000000000000000000000000000000000000000000000081526004018080602001828103825260328152602001806150a46032913960400191505060405180910390fd5b6040518060400160405280600581526020017f5354414b45000000000000000000000000000000000000000000000000000000815250611d6581612cb7565b611dd7576040517f08c379a00000000000000000000000000000000000000000000000000000000081526004018080602001828103825260168152602001807f41626c653a206e616d652069732064697361626c65640000000000000000000081525060200191505060405180910390fd5b611e3e82600b60008773ffffffffffffffffffffffffffffffffffffffff1673ffffffffffffffffffffffffffffffffffffffff16815260200190815260200160002060008615151515815260200190815260200160002054613b0890919063ffffffff16565b600b60008673ffffffffffffffffffffffffffffffffffffffff1673ffffffffffffffffffffffffffffffffffffffff16815260200190815260200160002060008515151515815260200190815260200160002081905550611ed182600c600043815260200190815260200160002060008615151515815260200190815260200160002054613b0890919063ffffffff16565b600c600043815260200190815260200160002060008515151515815260200190815260200160002081905550611f28848484600a60006009548152602001908152602001600020613dda909392919063ffffffff16565b6009548473ffffffffffffffffffffffffffffffffffffffff167fb090af6b9902ba8a7bc46486cd082be61763b3decc7be5ab48dc26422860230c858560405180831515151581526020018281526020019250505060405180910390a350505050565b6040518060400160405280600581526020017f4f574e4552000000000000000000000000000000000000000000000000000000815250611fcb813361398e565b612020576040517f08c379a000000000000000000000000000000000000000000000000000000000815260040180806020018281038252602a8152602001806150d6602a913960400191505060405180910390fd5b61202a8383614044565b8173ffffffffffffffffffffffffffffffffffffffff167fafe42c64e42361a5193c84f3f11b6803e41dd901d473ee6faa72f43f8ab1f468846040518080602001828103825283818151815260200191508051906020019080838360005b838110156120a3578082015181840152602081019050612088565b50505050905090810190601f1680156120d05780820380516001836020036101000a031916815260200191505b509250505060405180910390a2505050565b60105481565b60006120f560095461176a565b600a600060095481526020019081526020016000206002016000600115151515815260200190815260200160002054101580612168575061213760095461176a565b600a600060095481526020019081526020016000206002016000801515151581526020019081526020016000205410155b905090565b600f6020528060005260406000206000915090505481565b600560009054906101000a900473ffffffffffffffffffffffffffffffffffffffff1681565b6040518060400160405280600581526020017f4f574e45520000000000000000000000000000000000000000000000000000008152506121eb813361398e565b612240576040517f08c379a000000000000000000000000000000000000000000000000000000000815260040180806020018281038252602a8152602001806150d6602a913960400191505060405180910390fd5b61226d826002600061225187613b90565b815260200190815260200160002061407590919063ffffffff16565b8173ffffffffffffffffffffffffffffffffffffffff167f3e3ea7a1060be276a52e916803e2f89e3478e263893fc3c0b4d5793dd6d5f032846040518080602001828103825283818151815260200191508051906020019080838360005b838110156122e65780820151818401526020810190506122cb565b50505050905090810190601f1680156123135780820380516001836020036101000a031916815260200191505b509250505060405180910390a2505050565b60006003826040518082805190602001908083835b6020831061235d578051825260208201915060208101905060208303925061233a565b6001836020036101000a038019825116818451168082178552505050505050905001915050908152602001604051809103902060009054906101000a900460ff169050919050565b6040518060400160405280600581526020017f4f574e45520000000000000000000000000000000000000000000000000000008152506123e5813361398e565b61243a576040517f08c379a000000000000000000000000000000000000000000000000000000000815260040180806020018281038252602a8152602001806150d6602a913960400191505060405180910390fd5b6001600860146101000a81548160ff0219169083151502179055507fa8cab3d1893ed53071b052fafa843143492f25d1d6b0170d460789f7ab1954be60405160405180910390a150565b600560009054906101000a900473ffffffffffffffffffffffffffffffffffffffff1673ffffffffffffffffffffffffffffffffffffffff163373ffffffffffffffffffffffffffffffffffffffff161461252a576040517f08c379a00000000000000000000000000000000000000000000000000000000081526004018080602001828103825260348152602001806151bf6034913960400191505060405180910390fd5b6040518060400160405280600781526020017f5245534f4c56450000000000000000000000000000000000000000000000000081525061256981612325565b6125db576040517f08c379a00000000000000000000000000000000000000000000000000000000081526004018080602001828103825260158152602001807f41626c653a206e616d6520697320656e61626c6564000000000000000000000081525060200191505060405180910390fd5b600a6000600954815260200190815260200160002060070154600010612669576040517f08c379a00000000000000000000000000000000000000000000000000000000081526004018080602001828103825260208152602001807f5265736f6c7574696f6e456e67696e653a20626f756e7479206973207a65726f81525060200191505060405180910390fd5b6000600a600060095481526020019081526020016000206007015490506000600a6000600954815260200190815260200160002060070181905550600860009054906101000a900473ffffffffffffffffffffffffffffffffffffffff1673ffffffffffffffffffffffffffffffffffffffff1663a9059cbb84836040518363ffffffff1660e01b8152600401808373ffffffffffffffffffffffffffffffffffffffff1673ffffffffffffffffffffffffffffffffffffffff16815260200182815260200192505050602060405180830381600087803b15801561274d57600080fd5b505af1158015612761573d6000803e3d6000fd5b505050506040513d602081101561277757600080fd5b8101908080519060200190929190505050508273ffffffffffffffffffffffffffffffffffffffff167ffbb199240588d6cfa082d033fe56e2b66ee60cd1f6077f995df828dcb20ed104826040518082815260200191505060405180910390a2505050565b6000600a600060095481526020019081526020016000206002016000831515151581526020019081526020016000205461281760095461176a565b1161282357600061286e565b61286d600a600060095481526020019081526020016000206002016000841515151581526020019081526020016000205461285f60095461176a565b613a7f90919063ffffffff16565b5b9050919050565b6000806000905060008490505b8381116128b4576128a56128968783614132565b83613b0890919063ffffffff16565b91508080600101915050612882565b50809150509392505050565b600460009054906101000a900473ffffffffffffffffffffffffffffffffffffffff1673ffffffffffffffffffffffffffffffffffffffff163373ffffffffffffffffffffffffffffffffffffffff1614612966576040517f08c379a00000000000000000000000000000000000000000000000000000000081526004018080602001828103825260328152602001806150a46032913960400191505060405180910390fd5b6040518060400160405280600781526020017f5245534f4c5645000000000000000000000000000000000000000000000000008152506129a581612325565b612a17576040517f08c379a00000000000000000000000000000000000000000000000000000000081526004018080602001828103825260158152602001807f41626c653a206e616d6520697320656e61626c6564000000000000000000000081525060200191505060405180910390fd5b6000612b01600a6000600954815260200190815260200160002060030160008573ffffffffffffffffffffffffffffffffffffffff1673ffffffffffffffffffffffffffffffffffffffff16815260200190815260200160002060008015151515815260200190815260200160002054600a6000600954815260200190815260200160002060030160008673ffffffffffffffffffffffffffffffffffffffff1673ffffffffffffffffffffffffffffffffffffffff1681526020019081526020016000206000600115151515815260200190815260200160002054613b0890919063ffffffff16565b905080600010612b79576040517f08c379a000000000000000000000000000000000000000000000000000000000815260040180806020018281038252601f8152602001807f5265736f6c7574696f6e456e67696e653a207374616b65206973207a65726f0081525060200191505060405180910390fd5b6000600a6000600954815260200190815260200160002060030160008573ffffffffffffffffffffffffffffffffffffffff1673ffffffffffffffffffffffffffffffffffffffff16815260200190815260200160002060006001151515158152602001908152602001600020819055506000600a6000600954815260200190815260200160002060030160008573ffffffffffffffffffffffffffffffffffffffff1673ffffffffffffffffffffffffffffffffffffffff16815260200190815260200160002060008015151515815260200190815260200160002081905550612c648382614327565b8273ffffffffffffffffffffffffffffffffffffffff167f46c86b7ebca513b3ec213b4738e43070434543c30ac031708ba3851ac8cb4121826040518082815260200191505060405180910390a2505050565b60006003826040518082805190602001908083835b60208310612cef5780518252602082019150602081019050602083039250612ccc565b6001836020036101000a038019825116818451168082178552505050505050905001915050908152602001604051809103902060009054906101000a900460ff16159050919050565b600460009054906101000a900473ffffffffffffffffffffffffffffffffffffffff1681565b6040518060400160405280600581526020017f4f574e4552000000000000000000000000000000000000000000000000000000815250612d9e813361398e565b612df3576040517f08c379a000000000000000000000000000000000000000000000000000000000815260040180806020018281038252602a8152602001806150d6602a913960400191505060405180910390fd5b600954600014612e4e576040517f08c379a000000000000000000000000000000000000000000000000000000000815260040180806020018281038252602581526020018061519a6025913960400191505060405180910390fd5b612e566143c0565b50565b6040518060400160405280600581526020017f4f574e4552000000000000000000000000000000000000000000000000000000815250612e99813361398e565b612eee576040517f08c379a000000000000000000000000000000000000000000000000000000000815260040180806020018281038252602a8152602001806150d6602a913960400191505060405180910390fd5b81600660006101000a81548173ffffffffffffffffffffffffffffffffffffffff021916908373ffffffffffffffffffffffffffffffffffffffff160217905550600660009054906101000a900473ffffffffffffffffffffffffffffffffffffffff1673ffffffffffffffffffffffffffffffffffffffff167f788e1a4c2faf407e4a26256b2cc5e39ac3883f819087249fc5c54102d5a1afda60405160405180910390a25050565b6040518060400160405280600781526020017f5245534f4c56450000000000000000000000000000000000000000000000000081525081565b6040518060400160405280600581526020017f5354414b4500000000000000000000000000000000000000000000000000000081525081565b60008080549050905090565b600560009054906101000a900473ffffffffffffffffffffffffffffffffffffffff1673ffffffffffffffffffffffffffffffffffffffff163373ffffffffffffffffffffffffffffffffffffffff16146130bc576040517f08c379a00000000000000000000000000000000000000000000000000000000081526004018080602001828103825260348152602001806151bf6034913960400191505060405180910390fd5b6130c5816145f1565b50565b600081815481106130d557fe5b906000526020600020016000915090508054600181600116156101000203166002900480601f0160208091040260200160405190810160405280929190818152602001828054600181600116156101000203166002900480156131795780601f1061314e57610100808354040283529160200191613179565b820191906000526020600020905b81548152906001019060200180831161315c57829003601f168201915b505050505081565b600760009054906101000a900473ffffffffffffffffffffffffffffffffffffffff1681565b600460009054906101000a900473ffffffffffffffffffffffffffffffffffffffff1673ffffffffffffffffffffffffffffffffffffffff163373ffffffffffffffffffffffffffffffffffffffff161461324d576040517f08c379a00000000000000000000000000000000000000000000000000000000081526004018080602001828103825260328152602001806150a46032913960400191505060405180910390fd5b6040518060400160405280600781526020017f5245534f4c56450000000000000000000000000000000000000000000000000081525061328c81612cb7565b6132fe576040517f08c379a00000000000000000000000000000000000000000000000000000000081526004018080602001828103825260168152602001807f41626c653a206e616d652069732064697361626c65640000000000000000000081525060200191505060405180910390fd5b6133066120e8565b1561331c576133136147fb565b61331b6143c0565b5b50565b600660009054906101000a900473ffffffffffffffffffffffffffffffffffffffff1681565b60095481565b600e6020528160005260406000206020528060005260406000206000915091509054906101000a900460ff1681565b600560009054906101000a900473ffffffffffffffffffffffffffffffffffffffff1673ffffffffffffffffffffffffffffffffffffffff163373ffffffffffffffffffffffffffffffffffffffff1614613420576040517f08c379a00000000000000000000000000000000000000000000000000000000081526004018080602001828103825260348152602001806151bf6034913960400191505060405180910390fd5b613429816149a8565b50565b6040518060400160405280600581526020017f4f574e455200000000000000000000000000000000000000000000000000000081525081565b600b602052816000526040600020602052806000526040600020600091509150505481565b600460009054906101000a900473ffffffffffffffffffffffffffffffffffffffff1673ffffffffffffffffffffffffffffffffffffffff163373ffffffffffffffffffffffffffffffffffffffff1614613530576040517f08c379a00000000000000000000000000000000000000000000000000000000081526004018080602001828103825260328152602001806150a46032913960400191505060405180910390fd5b61353a8282614327565b8173ffffffffffffffffffffffffffffffffffffffff167f02688c924ef99d72adc11835fa071707c184455730eb94dc633e9870e1c3bcee826040518082815260200191505060405180910390a25050565b600460009054906101000a900473ffffffffffffffffffffffffffffffffffffffff1673ffffffffffffffffffffffffffffffffffffffff163373ffffffffffffffffffffffffffffffffffffffff1614613632576040517f08c379a00000000000000000000000000000000000000000000000000000000081526004018080602001828103825260328152602001806150a46032913960400191505060405180910390fd5b600f60008373ffffffffffffffffffffffffffffffffffffffff1673ffffffffffffffffffffffffffffffffffffffff168152602001908152602001600020548111156136ca576040517f08c379a00000000000000000000000000000000000000000000000000000000081526004018080602001828103825260368152602001806151646036913960400191505060405180910390fd5b61371c81600f60008573ffffffffffffffffffffffffffffffffffffffff1673ffffffffffffffffffffffffffffffffffffffff16815260200190815260200160002054613a7f90919063ffffffff16565b600f60008473ffffffffffffffffffffffffffffffffffffffff1673ffffffffffffffffffffffffffffffffffffffff16815260200190815260200160002081905550600860009054906101000a900473ffffffffffffffffffffffffffffffffffffffff1673ffffffffffffffffffffffffffffffffffffffff1663a9059cbb83836040518363ffffffff1660e01b8152600401808373ffffffffffffffffffffffffffffffffffffffff1673ffffffffffffffffffffffffffffffffffffffff16815260200182815260200192505050602060405180830381600087803b15801561380857600080fd5b505af115801561381c573d6000803e3d6000fd5b505050506040513d602081101561383257600080fd5b8101908080519060200190929190505050508173ffffffffffffffffffffffffffffffffffffffff167f7084f5476618d8e60b11ef0d7d3f06914655adb8793e28ff7f018d4c76d505d5826040518082815260200191505060405180910390a25050565b6000806000600a600086815260200190815260200160002060030160008573ffffffffffffffffffffffffffffffffffffffff1673ffffffffffffffffffffffffffffffffffffffff16815260200190815260200160002060006001151515158152602001908152602001600020549250600a600086815260200190815260200160002060030160008573ffffffffffffffffffffffffffffffffffffffff1673ffffffffffffffffffffffffffffffffffffffff1681526020019081526020016000206000801515151581526020019081526020016000205491506139858284613b0890919063ffffffff16565b90509250925092565b60006139bd82600260006139a187613b90565b8152602001908152602001600020614bb390919063ffffffff16565b905092915050565b600c602052816000526040600020602052806000526040600020600091509150505481565b600860009054906101000a900473ffffffffffffffffffffffffffffffffffffffff1681565b600a6020528060005260406000206000915090508060000160009054906101000a900460ff16908060000160019054906101000a900460ff16908060010154908060060154908060070154908060080160009054906101000a900460ff169080600901549080600a0154905088565b600082821115613af7576040517f08c379a000000000000000000000000000000000000000000000000000000000815260040180806020018281038252601e8152602001807f536166654d6174683a207375627472616374696f6e206f766572666c6f77000081525060200191505060405180910390fd5b600082840390508091505092915050565b600080828401905083811015613b86576040517f08c379a000000000000000000000000000000000000000000000000000000000815260040180806020018281038252601b8152602001807f536166654d6174683a206164646974696f6e206f766572666c6f77000000000081525060200191505060405180910390fd5b8091505092915050565b6000816040516020018082805190602001908083835b60208310613bc95780518252602082019150602081019050602083039250613ba6565b6001836020036101000a038019825116818451168082178552505050505050905001915050604051602081830303815290604052805190602001209050919050565b6000600a600083815260200190815260200160002060000160009054906101000a900460ff166002811115613c3c57fe5b600280811115613c4857fe5b14613c565760009050613d48565b600e60008473ffffffffffffffffffffffffffffffffffffffff1673ffffffffffffffffffffffffffffffffffffffff168152602001908152602001600020600083815260200190815260200160002060009054906101000a900460ff1615613cc25760009050613d48565b6001600e60008573ffffffffffffffffffffffffffffffffffffffff1673ffffffffffffffffffffffffffffffffffffffff168152602001908152602001600020600084815260200190815260200160002060006101000a81548160ff0219169083151502179055506000613d378484614132565b9050613d438482614327565b809150505b92915050565b60016000613d5b83613b90565b81526020019081526020016000205460001415613dd7576000819080600181540180825580915050906001820390600052602060002001600090919290919091509080519060200190613daf929190614ffe565b505060008054905060016000613dc484613b90565b8152602001908152602001600020819055505b50565b613df1818560010154613b0890919063ffffffff16565b8460010181905550613e25818560020160008515151515815260200190815260200160002054613b0890919063ffffffff16565b8460020160008415151515815260200190815260200160002081905550613eab818560030160008673ffffffffffffffffffffffffffffffffffffffff1673ffffffffffffffffffffffffffffffffffffffff16815260200190815260200160002060008515151515815260200190815260200160002054613b0890919063ffffffff16565b8460030160008573ffffffffffffffffffffffffffffffffffffffff1673ffffffffffffffffffffffffffffffffffffffff16815260200190815260200160002060008415151515815260200190815260200160002081905550613f428185600401600043815260200190815260200160002060008515151515815260200190815260200160002054613b0890919063ffffffff16565b846004016000438152602001908152602001600020600084151515158152602001908152602001600020819055508360050160008473ffffffffffffffffffffffffffffffffffffffff1673ffffffffffffffffffffffffffffffffffffffff16815260200190815260200160002060009054906101000a900460ff1661403e5760018460050160008573ffffffffffffffffffffffffffffffffffffffff1673ffffffffffffffffffffffffffffffffffffffff16815260200190815260200160002060006101000a81548160ff02191690831515021790555061403560018560060154613b0890919063ffffffff16565b84600601819055505b50505050565b614071816002600061405586613b90565b8152602001908152602001600020614c9190919063ffffffff16565b5050565b61407f8282614bb3565b6140d4576040517f08c379a00000000000000000000000000000000000000000000000000000000081526004018080602001828103825260218152602001806151006021913960400191505060405180910390fd5b60008260000160008373ffffffffffffffffffffffffffffffffffffffff1673ffffffffffffffffffffffffffffffffffffffff16815260200190815260200160002060006101000a81548160ff0219169083151502179055505050565b6000600a600083815260200190815260200160002060000160019054906101000a900460ff16600281111561416357fe5b6000600281111561417057fe5b141561417f5760009050614321565b60006001600281111561418e57fe5b600a600085815260200190815260200160002060000160019054906101000a900460ff1660028111156141bd57fe5b1490506000600a600085815260200190815260200160002060020160008315151515158152602001908152602001600020549050600a600085815260200190815260200160002060080160009054906101000a900460ff161561424657614243600a60008681526020019081526020016000206007015482613b0890919063ffffffff16565b90505b6000600a600086815260200190815260200160002060030160008773ffffffffffffffffffffffffffffffffffffffff1673ffffffffffffffffffffffffffffffffffffffff1681526020019081526020016000206000841515151581526020019081526020016000205490506000600a600087815260200190815260200160002060020160008515151515815260200190815260200160002054905061431a8261430c836142fe8688614d6c90919063ffffffff16565b614df290919063ffffffff16565b613b0890919063ffffffff16565b9450505050505b92915050565b61437981600f60008573ffffffffffffffffffffffffffffffffffffffff1673ffffffffffffffffffffffffffffffffffffffff16815260200190815260200160002054613b0890919063ffffffff16565b600f60008473ffffffffffffffffffffffffffffffffffffffff1673ffffffffffffffffffffffffffffffffffffffff168152602001908152602001600020819055505050565b600060028111156143cd57fe5b600a60006143e76001600954613b0890919063ffffffff16565b815260200190815260200160002060000160009054906101000a900460ff16600281111561441157fe5b14614467576040517f08c379a000000000000000000000000000000000000000000000000000000000815260040180806020018281038252603d8152602001806151f3603d913960400191505060405180910390fd5b61447d6001600954613b0890919063ffffffff16565b6009819055506000600760009054906101000a900473ffffffffffffffffffffffffffffffffffffffff1673ffffffffffffffffffffffffffffffffffffffff1663cabfd1bf600660009054906101000a900473ffffffffffffffffffffffffffffffffffffffff166040518263ffffffff1660e01b8152600401808273ffffffffffffffffffffffffffffffffffffffff1673ffffffffffffffffffffffffffffffffffffffff168152602001915050602060405180830381600087803b15801561454857600080fd5b505af115801561455c573d6000803e3d6000fd5b505050506040513d602081101561457257600080fd5b810190808051906020019092919050505090506145ac81600a60006009548152602001908152602001600020614e8190919063ffffffff16565b6145b4614ebd565b6009547f24786cbd23ca6a7ab9bcfaa39cfb8879416ae5f0a1b46011fb60ec1c99ed3b80826040518082815260200191505060405180910390a250565b6003816040518082805190602001908083835b602083106146275780518252602082019150602081019050602083039250614604565b6001836020036101000a038019825116818451168082178552505050505050905001915050908152602001604051809103902060009054906101000a900460ff166146da576040517f08c379a00000000000000000000000000000000000000000000000000000000081526004018080602001828103825260158152602001807f41626c653a206e616d6520697320656e61626c6564000000000000000000000081525060200191505060405180910390fd5b60006003826040518082805190602001908083835b6020831061471257805182526020820191506020810190506020830392506146ef565b6001836020036101000a038019825116818451168082178552505050505050905001915050908152602001604051809103902060006101000a81548160ff0219169083151502179055507fb5e827ca0218ec32f5872a8cdba7c9a069373f7ef4a2fb0c72ae0f25cf78f1c2816040518080602001828103825283818151815260200191508051906020019080838360005b838110156147be5780820151818401526020810190506147a3565b50505050905090810190601f1680156147eb5780820380516001836020036101000a031916815260200191505b509250505060405180910390a150565b6001600281111561480857fe5b600a6000600954815260200190815260200160002060000160009054906101000a900460ff16600281111561483957fe5b1461488f576040517f08c379a000000000000000000000000000000000000000000000000000000000815260040180806020018281038252603b815260200180615230603b913960400191505060405180910390fd5b6148ac600a60006009548152602001908152602001600020614f03565b600d60009054906101000a900460ff1660028111156148c757fe5b600a6000600954815260200190815260200160002060000160019054906101000a900460ff1660028111156148f857fe5b1461497757600a6000600954815260200190815260200160002060000160019054906101000a900460ff16600d60006101000a81548160ff0219169083600281111561494057fe5b02179055506001600a6000600954815260200190815260200160002060080160006101000a81548160ff0219169083151502179055505b6009547f9feea6fd2bc175ea5210b97c9f21684984af26aa9a2aa1049dad999cf094289d60405160405180910390a2565b6003816040518082805190602001908083835b602083106149de57805182526020820191506020810190506020830392506149bb565b6001836020036101000a038019825116818451168082178552505050505050905001915050908152602001604051809103902060009054906101000a900460ff1615614a92576040517f08c379a00000000000000000000000000000000000000000000000000000000081526004018080602001828103825260168152602001807f41626c653a206e616d652069732064697361626c65640000000000000000000081525060200191505060405180910390fd5b60016003826040518082805190602001908083835b60208310614aca5780518252602082019150602081019050602083039250614aa7565b6001836020036101000a038019825116818451168082178552505050505050905001915050908152602001604051809103902060006101000a81548160ff0219169083151502179055507f1429691d4b3ebbe1b946e4625c94bd72f57e8d9f73242f97d7c968072cb891b9816040518080602001828103825283818151815260200191508051906020019080838360005b83811015614b76578082015181840152602081019050614b5b565b50505050905090810190601f168015614ba35780820380516001836020036101000a031916815260200191505b509250505060405180910390a150565b60008073ffffffffffffffffffffffffffffffffffffffff168273ffffffffffffffffffffffffffffffffffffffff161415614c3a576040517f08c379a00000000000000000000000000000000000000000000000000000000081526004018080602001828103825260228152602001806151426022913960400191505060405180910390fd5b8260000160008373ffffffffffffffffffffffffffffffffffffffff1673ffffffffffffffffffffffffffffffffffffffff16815260200190815260200160002060009054906101000a900460ff16905092915050565b614c9b8282614bb3565b15614d0e576040517f08c379a000000000000000000000000000000000000000000000000000000000815260040180806020018281038252601f8152602001807f526f6c65733a206163636f756e7420616c72656164792068617320726f6c650081525060200191505060405180910390fd5b60018260000160008373ffffffffffffffffffffffffffffffffffffffff1673ffffffffffffffffffffffffffffffffffffffff16815260200190815260200160002060006101000a81548160ff0219169083151502179055505050565b600080831415614d7f5760009050614dec565b6000828402905082848281614d9057fe5b0414614de7576040517f08c379a00000000000000000000000000000000000000000000000000000000081526004018080602001828103825260218152602001806151216021913960400191505060405180910390fd5b809150505b92915050565b6000808211614e69576040517f08c379a000000000000000000000000000000000000000000000000000000000815260040180806020018281038252601a8152602001807f536166654d6174683a206469766973696f6e206279207a65726f00000000000081525060200191505060405180910390fd5b6000828481614e7457fe5b0490508091505092915050565b60018260000160006101000a81548160ff02191690836002811115614ea257fe5b02179055508082600701819055504382600901819055505050565b600a60006009548152602001908152602001600020600b016010549080600181540180825580915050906001820390600052602060002001600090919290919091505550565b60028160000160006101000a81548160ff02191690836002811115614f2457fe5b02179055504381600a018190555080600201600080151515158152602001908152602001600020548160020160006001151515158152602001908152602001600020541115614f985760018160000160016101000a81548160ff02191690836002811115614f8e57fe5b0217905550614ffb565b80600201600080151515158152602001908152602001600020548160020160006001151515158152602001908152602001600020541015614ffa5760028160000160016101000a81548160ff02191690836002811115614ff457fe5b02179055505b5b50565b828054600181600116156101000203166002900490600052602060002090601f016020900481019282601f1061503f57805160ff191683800117855561506d565b8280016001018555821561506d579182015b8281111561506c578251825591602001919060010190615051565b5b50905061507a919061507e565b5090565b6150a091905b8082111561509c576000816000905550600101615084565b5090565b9056fe5265736f6c7574696f6e456e67696e653a2073656e646572206973206e6f742074686520646566696e6564206f7261636c655242414365643a2073656e646572206973206e6f74206163636573736f72206f662074686520726f6c65526f6c65733a206163636f756e7420646f6573206e6f74206861766520726f6c65536166654d6174683a206d756c7469706c69636174696f6e206f766572666c6f77526f6c65733a206163636f756e7420697320746865207a65726f20616464726573735265736f6c7574696f6e456e67696e653a20616d6f756e742069732067726561746572207468616e2073746167656420616d6f756e745265736f6c7574696f6e456e67696e653a20616c726561647920696e697469616c697a65645265736f6c7574696f6e456e67696e653a2073656e646572206973206e6f742074686520646566696e6564206f70657261746f725265736f6c7574696f6e456e67696e653a20766572696669636174696f6e207068617365206973206e6f7420696e20756e6f70656e65642073746174655265736f6c7574696f6e456e67696e653a20766572696669636174696f6e207068617365206973206e6f7420696e206f70656e6564207374617465a265627a7a723158209b18bca0f96ff8eae2174f7c12c30155d5ff0d81472afd4746d29ead86be1dde64736f6c634300050b0032526f6c65733a206163636f756e7420697320746865207a65726f2061646472657373",
  "source": "/*\n * Lottery oracle\n *\n * Copyright (C) 2017-2019 Hubii AS\n */\n\npragma solidity ^0.5.11;\n\nimport {Resolvable} from \"./Resolvable.sol\";\nimport {ResolutionEngine} from \"./ResolutionEngine.sol\";\n\n/// @title NaiveTotalResolutionEngine\n/// @author Jens Ivar Jrdre <jensivar@hubii.com>\n/// @notice A nave total resolution engine\n/// Resolve the staking market when:\n/// - The total number of tokens staked on either option reaches the defined amount criterion\ncontract NaiveTotalResolutionEngine is Resolvable, ResolutionEngine {\n\n    event NextAmountSet(uint256 amount);\n\n    uint256 public nextAmount;\n\n    /// @notice `msg.sender` will be added as accessor to the owner role\n    /// @param _oracle The address of oracle\n    /// @param _operator The address of operator\n    /// @param _bountyFund The address of bounty fund\n    /// @param _nextAmount The next amount criterion of this resolution engine\n    constructor(address _oracle, address _operator, address _bountyFund,\n        uint256 _nextAmount)\n    public\n    ResolutionEngine(_oracle, _operator, _bountyFund)\n    {\n        nextAmount = _nextAmount;\n    }\n\n    /// @notice Return the amount needed to resolve the current market for the given status\n    /// @param _status The concerned status\n    /// @return the amount needed to obtain to resolve the market\n    function resolutionDeltaAmount(bool _status)\n    public\n    view\n    returns (uint256)\n    {\n        return (\n        amountByPhaseNumber(verificationPhaseNumber) >\n        verificationPhaseByPhaseNumber[verificationPhaseNumber].stakedAmountByStatus[_status] ?\n        amountByPhaseNumber(verificationPhaseNumber).sub(\n            verificationPhaseByPhaseNumber[verificationPhaseNumber].stakedAmountByStatus[_status]\n        ) :\n        0\n        );\n    }\n\n    /// @notice Gauge whether the resolution criteria have been met\n    /// @return true if resolution criteria have been met, else false\n    function resolutionCriteriaMet()\n    public\n    view\n    returns (bool)\n    {\n        return verificationPhaseByPhaseNumber[verificationPhaseNumber].stakedAmountByStatus[true] >=\n        amountByPhaseNumber(verificationPhaseNumber) ||\n        verificationPhaseByPhaseNumber[verificationPhaseNumber].stakedAmountByStatus[false] >=\n        amountByPhaseNumber(verificationPhaseNumber);\n    }\n\n\n    /// @notice Set the next amount criterion\n    /// @dev Only enabled when the resolution engine is not frozen\n    /// @param _nextAmount The next amount\n    function setNextAmount(uint256 _nextAmount)\n    public\n    onlyRoleAccessor(OWNER_ROLE)\n    onlyNotFrozen\n    {\n        // Set the amount\n        nextAmount = _nextAmount;\n\n        // Emit event\n        emit NextAmountSet(nextAmount);\n    }\n\n    /// @notice Get the amount parameter by the given verification phase number\n    /// @param _verificationPhaseNumber The concerned verification phase number\n    /// @return the amount value\n    function amountByPhaseNumber(uint256 _verificationPhaseNumber)\n    public\n    view\n    returns (uint256)\n    {\n        return verificationPhaseByPhaseNumber[_verificationPhaseNumber].uintCriteria[0];\n    }\n\n    /// @notice Augment the verification phase with verification criteria params\n    function _addVerificationCriteria()\n    internal\n    {\n        verificationPhaseByPhaseNumber[verificationPhaseNumber].uintCriteria.push(nextAmount);\n    }\n}\n",
  "sourcePath": "/opt/buildagent/work/9988d0feca52d9d9/contracts/NaiveTotalResolutionEngine.sol",
  "compiler": {
    "name": "solc",
    "version": "0.5.11+commit.c082d0b4.Emscripten.clang"
  },
  "schemaVersion": "3.0.16",
  "updatedAt": "2019-10-04T09:25:02.464Z",
  "devdoc": {
    "author": "Jens Ivar Jrdre <jensivar@hubii.com>",
    "methods": {
      "addRole(string)": {
        "params": {
          "_role": "The concerned role"
        }
      },
      "addRoleAccessor(string,address)": {
        "params": {
          "_address": "The concerned address",
          "_role": "The concerned role"
        }
      },
      "amountByPhaseNumber(uint256)": {
        "params": {
          "_verificationPhaseNumber": "The concerned verification phase number"
        },
        "return": "the amount value"
      },
      "calculatePayout(address,uint256,uint256)": {
        "params": {
          "_firstVerificationPhaseNumber": "The first verification phase number to stage payout from",
          "_lastVerificationPhaseNumber": "The last verification phase number to stage payout from",
          "_wallet": "The address of the concerned wallet"
        },
        "return": "the payout"
      },
      "constructor": {
        "params": {
          "_bountyFund": "The address of bounty fund",
          "_nextAmount": "The next amount criterion of this resolution engine",
          "_operator": "The address of operator",
          "_oracle": "The address of oracle"
        }
      },
      "disable(string)": {
        "params": {
          "_action": "The action to disable"
        }
      },
      "disabled(string)": {
        "params": {
          "_name": "The name to gauge"
        }
      },
      "enable(string)": {
        "params": {
          "_action": "The action to enable"
        }
      },
      "enabled(string)": {
        "params": {
          "_name": "The name to gauge"
        }
      },
      "freeze()": {
        "details": "This operation can not be undone"
      },
      "isRole(string)": {
        "params": {
          "_role": "The concerned role"
        },
        "return": "true if role has been set, else false"
      },
      "isRoleAccessor(string,address)": {
        "params": {
          "_address": "The concerned address",
          "_role": "The concerned role"
        },
        "return": "true if address is the one of a registered accessor of role, else false"
      },
      "metricsByBlockNumber(uint256)": {
        "details": "Reverts if provided block number is higher than current block number",
        "params": {
          "_blockNumber": "The concerned block number"
        },
        "return": "the metrics"
      },
      "metricsByVerificationPhaseNumber(uint256)": {
        "params": {
          "_verificationPhaseNumber": "The concerned verification phase number"
        },
        "return": "the metrics"
      },
      "metricsByVerificationPhaseNumberAndWallet(uint256,address)": {
        "details": "Reverts if provided verification phase number is higher than current verification phase number",
        "params": {
          "_verificationPhaseNumber": "The concerned verification phase number",
          "_wallet": "The address of the concerned wallet"
        },
        "return": "the metrics"
      },
      "metricsByWallet(address)": {
        "params": {
          "_wallet": "The address of the concerned wallet"
        },
        "return": "the metrics"
      },
      "removeRoleAccessor(string,address)": {
        "params": {
          "_address": "The concerned address",
          "_role": "The concerned role"
        }
      },
      "resolutionCriteriaMet()": {
        "return": "true if resolution criteria have been met, else false"
      },
      "resolutionDeltaAmount(bool)": {
        "params": {
          "_status": "The concerned status"
        },
        "return": "the amount needed to obtain to resolve the market"
      },
      "resolveIfCriteriaMet()": {
        "details": "The function can only be called by oracle. be the current verification phase number"
      },
      "rolesCount()": {
        "return": "the count of roles"
      },
      "setBountyAllocator(address)": {
        "params": {
          "_bountyAllocator": "The bounty allocator to be set"
        }
      },
      "setNextAmount(uint256)": {
        "details": "Only enabled when the resolution engine is not frozen",
        "params": {
          "_nextAmount": "The next amount"
        }
      },
      "stage(address,uint256)": {
        "details": "The function can only be called by oracle.",
        "params": {
          "_amount": "The amount to be staged",
          "_wallet": "The address of the concerned wallet"
        }
      },
      "stagePayout(address,uint256,uint256)": {
        "details": "The function can only be called by oracle.",
        "params": {
          "_firstVerificationPhaseNumber": "The first verification phase number to stage payout from",
          "_lastVerificationPhaseNumber": "The last verification phase number to stage payout from",
          "_wallet": "The address of the concerned wallet"
        }
      },
      "stageStake(address)": {
        "details": "The function can only be called by oracle and when resolve action has been disabled",
        "params": {
          "_wallet": "The address of the concerned wallet"
        }
      },
      "stake(address,bool,uint256)": {
        "details": "The function can only be called by oracle.",
        "params": {
          "_amount": "The amount staked",
          "_status": "The status staked at",
          "_wallet": "The concerned wallet"
        }
      },
      "withdraw(address,uint256)": {
        "details": "The function can only be called by oracle.",
        "params": {
          "_amount": "The amount to be withdrawn",
          "_wallet": "The address of the concerned wallet"
        }
      },
      "withdrawBounty(address)": {
        "params": {
          "_wallet": "The recipient address of the bounty transfer"
        }
      }
    },
    "title": "NaiveTotalResolutionEngine"
  },
  "userdoc": {
    "methods": {
      "addRole(string)": {
        "notice": "Add role"
      },
      "addRoleAccessor(string,address)": {
        "notice": "Register an address as accessor of a role"
      },
      "amountByPhaseNumber(uint256)": {
        "notice": "Get the amount parameter by the given verification phase number"
      },
      "calculatePayout(address,uint256,uint256)": {
        "notice": "Calculate the payout accrued by given wallet in the inclusive range of given verification phase numbers"
      },
      "constructor": "`msg.sender` will be added as accessor to the owner role",
      "disable(string)": {
        "notice": "Disable the given action"
      },
      "disabled(string)": {
        "notice": "Gauge whether the name is disable"
      },
      "enable(string)": {
        "notice": "Enable the given action"
      },
      "enabled(string)": {
        "notice": "Gauge whether the name is enabled"
      },
      "freeze()": {
        "notice": "Freeze updates to this resolution engine"
      },
      "initialize()": {
        "notice": "Initialize the engine"
      },
      "isRole(string)": {
        "notice": "Gauge whether a role is set"
      },
      "isRoleAccessor(string,address)": {
        "notice": "Gauge whether an address is an accessor of a role"
      },
      "metricsByBlockNumber(uint256)": {
        "notice": "Get the metrics for the block"
      },
      "metricsByVerificationPhaseNumber(uint256)": {
        "notice": "Get the metrics for the given verification phase number"
      },
      "metricsByVerificationPhaseNumberAndWallet(uint256,address)": {
        "notice": "Get the metrics for the given verification phase number and wallet"
      },
      "metricsByWallet(address)": {
        "notice": "Get the metrics for the wallet"
      },
      "removeRoleAccessor(string,address)": {
        "notice": "Deregister an address as accessor of a role"
      },
      "resolutionCriteriaMet()": {
        "notice": "Gauge whether the resolution criteria have been met"
      },
      "resolutionDeltaAmount(bool)": {
        "notice": "Return the amount needed to resolve the current market for the given status"
      },
      "resolveIfCriteriaMet()": {
        "notice": "Resolve the market in the current verification phase if resolution criteria have been met"
      },
      "rolesCount()": {
        "notice": "Get the count of roles"
      },
      "setBountyAllocator(address)": {
        "notice": "Set the bounty allocator"
      },
      "setNextAmount(uint256)": {
        "notice": "Set the next amount criterion"
      },
      "stage(address,uint256)": {
        "notice": "Stage the given amount"
      },
      "stagePayout(address,uint256,uint256)": {
        "notice": "Stage the payout accrued by given wallet in the inclusive range of given verification phase numbers"
      },
      "stageStake(address)": {
        "notice": "Stage the amount staked in the current verification phase"
      },
      "stake(address,bool,uint256)": {
        "notice": "Stake by updating metrics"
      },
      "withdraw(address,uint256)": {
        "notice": "Withdraw the given amount"
      },
      "withdrawBounty(address)": {
        "notice": "Stage the bounty to the given address"
      }
    },
    "notice": "A nave total resolution engine Resolve the staking market when: - The total number of tokens staked on either option reaches the defined amount criterion"
  }
}