{
  "contractName": "NaiveTotalResolutionEngine",
  "abi": [
    {
      "constant": true,
      "inputs": [
        {
          "name": "_verificationPhaseNumber",
          "type": "uint256"
        }
      ],
      "name": "metricsByVerificationPhaseNumber",
      "outputs": [
        {
          "name": "state",
          "type": "uint8"
        },
        {
          "name": "trueStakeAmount",
          "type": "uint256"
        },
        {
          "name": "falseStakeAmount",
          "type": "uint256"
        },
        {
          "name": "stakeAmount",
          "type": "uint256"
        },
        {
          "name": "numberOfWallets",
          "type": "uint256"
        },
        {
          "name": "bountyAmount",
          "type": "uint256"
        },
        {
          "name": "bountyAwarded",
          "type": "bool"
        },
        {
          "name": "startBlock",
          "type": "uint256"
        },
        {
          "name": "endBlock",
          "type": "uint256"
        },
        {
          "name": "numberOfBlocks",
          "type": "uint256"
        }
      ],
      "payable": false,
      "stateMutability": "view",
      "type": "function",
      "signature": "0x06bcbd00"
    },
    {
      "constant": true,
      "inputs": [
        {
          "name": "_blockNumber",
          "type": "uint256"
        }
      ],
      "name": "metricsByBlockNumber",
      "outputs": [
        {
          "name": "trueStakeAmount",
          "type": "uint256"
        },
        {
          "name": "falseStakeAmount",
          "type": "uint256"
        },
        {
          "name": "stakeAmount",
          "type": "uint256"
        }
      ],
      "payable": false,
      "stateMutability": "view",
      "type": "function",
      "signature": "0x06d05aef"
    },
    {
      "constant": true,
      "inputs": [],
      "name": "ORACLE_ROLE",
      "outputs": [
        {
          "name": "",
          "type": "string"
        }
      ],
      "payable": false,
      "stateMutability": "view",
      "type": "function",
      "signature": "0x07e2cea5"
    },
    {
      "constant": false,
      "inputs": [
        {
          "name": "_verificationPhaseNumber",
          "type": "uint256"
        }
      ],
      "name": "resolveConditionally",
      "outputs": [],
      "payable": false,
      "stateMutability": "nonpayable",
      "type": "function",
      "signature": "0x0c680f14"
    },
    {
      "constant": true,
      "inputs": [
        {
          "name": "_role",
          "type": "string"
        }
      ],
      "name": "isRole",
      "outputs": [
        {
          "name": "",
          "type": "bool"
        }
      ],
      "payable": false,
      "stateMutability": "view",
      "type": "function",
      "signature": "0x0f6c37de"
    },
    {
      "constant": true,
      "inputs": [
        {
          "name": "_wallet",
          "type": "address"
        }
      ],
      "name": "metricsByWallet",
      "outputs": [
        {
          "name": "trueStakeAmount",
          "type": "uint256"
        },
        {
          "name": "falseStakeAmount",
          "type": "uint256"
        },
        {
          "name": "stakeAmount",
          "type": "uint256"
        }
      ],
      "payable": false,
      "stateMutability": "view",
      "type": "function",
      "signature": "0x12e810f2"
    },
    {
      "constant": false,
      "inputs": [
        {
          "name": "_role",
          "type": "string"
        }
      ],
      "name": "addRole",
      "outputs": [],
      "payable": false,
      "stateMutability": "nonpayable",
      "type": "function",
      "signature": "0x3e96e868"
    },
    {
      "constant": true,
      "inputs": [],
      "name": "verificationStatus",
      "outputs": [
        {
          "name": "",
          "type": "uint8"
        }
      ],
      "payable": false,
      "stateMutability": "view",
      "type": "function",
      "signature": "0x4a0d3096"
    },
    {
      "constant": false,
      "inputs": [
        {
          "name": "_role",
          "type": "string"
        },
        {
          "name": "_address",
          "type": "address"
        }
      ],
      "name": "addRoleAccessor",
      "outputs": [],
      "payable": false,
      "stateMutability": "nonpayable",
      "type": "function",
      "signature": "0x4da195be"
    },
    {
      "constant": false,
      "inputs": [
        {
          "name": "_role",
          "type": "string"
        },
        {
          "name": "_address",
          "type": "address"
        }
      ],
      "name": "removeRoleAccessor",
      "outputs": [],
      "payable": false,
      "stateMutability": "nonpayable",
      "type": "function",
      "signature": "0x5b0f833a"
    },
    {
      "constant": true,
      "inputs": [
        {
          "name": "",
          "type": "uint256"
        }
      ],
      "name": "verificationPhaseMap",
      "outputs": [
        {
          "name": "state",
          "type": "uint8"
        },
        {
          "name": "result",
          "type": "uint8"
        },
        {
          "name": "stakingWallets",
          "type": "uint256"
        },
        {
          "name": "bountyAmount",
          "type": "uint256"
        },
        {
          "name": "bountyAwarded",
          "type": "bool"
        },
        {
          "name": "startBlock",
          "type": "uint256"
        },
        {
          "name": "endBlock",
          "type": "uint256"
        }
      ],
      "payable": false,
      "stateMutability": "view",
      "type": "function",
      "signature": "0x5de85e81"
    },
    {
      "constant": true,
      "inputs": [],
      "name": "bountyFraction",
      "outputs": [
        {
          "name": "",
          "type": "uint256"
        }
      ],
      "payable": false,
      "stateMutability": "view",
      "type": "function",
      "signature": "0x62b46e1f"
    },
    {
      "constant": true,
      "inputs": [
        {
          "name": "",
          "type": "uint256"
        },
        {
          "name": "",
          "type": "bool"
        }
      ],
      "name": "blockStatusAmountMap",
      "outputs": [
        {
          "name": "",
          "type": "uint256"
        }
      ],
      "payable": false,
      "stateMutability": "view",
      "type": "function",
      "signature": "0x64f2a259"
    },
    {
      "constant": false,
      "inputs": [
        {
          "name": "_wallet",
          "type": "address"
        },
        {
          "name": "_verificationPhaseNumber",
          "type": "uint256"
        },
        {
          "name": "_status",
          "type": "bool"
        },
        {
          "name": "_amount",
          "type": "uint256"
        }
      ],
      "name": "updateMetrics",
      "outputs": [],
      "payable": false,
      "stateMutability": "nonpayable",
      "type": "function",
      "signature": "0x6b2324ea"
    },
    {
      "constant": true,
      "inputs": [],
      "name": "oracle",
      "outputs": [
        {
          "name": "",
          "type": "address"
        }
      ],
      "payable": false,
      "stateMutability": "view",
      "type": "function",
      "signature": "0x7dc0d1d0"
    },
    {
      "constant": true,
      "inputs": [],
      "name": "criterionAmountStaked",
      "outputs": [
        {
          "name": "",
          "type": "uint256"
        }
      ],
      "payable": false,
      "stateMutability": "view",
      "type": "function",
      "signature": "0x84bfc4a7"
    },
    {
      "constant": true,
      "inputs": [
        {
          "name": "",
          "type": "address"
        },
        {
          "name": "",
          "type": "uint256"
        }
      ],
      "name": "walletPhasePayoutMap",
      "outputs": [
        {
          "name": "",
          "type": "bool"
        }
      ],
      "payable": false,
      "stateMutability": "view",
      "type": "function",
      "signature": "0xb6d51b42"
    },
    {
      "constant": true,
      "inputs": [
        {
          "name": "_verificationPhaseNumber",
          "type": "uint256"
        },
        {
          "name": "_wallet",
          "type": "address"
        }
      ],
      "name": "calculatePayout",
      "outputs": [
        {
          "name": "",
          "type": "uint256"
        }
      ],
      "payable": false,
      "stateMutability": "view",
      "type": "function",
      "signature": "0xb726be7f"
    },
    {
      "constant": true,
      "inputs": [],
      "name": "rolesCount",
      "outputs": [
        {
          "name": "",
          "type": "uint256"
        }
      ],
      "payable": false,
      "stateMutability": "view",
      "type": "function",
      "signature": "0xb8517dd8"
    },
    {
      "constant": true,
      "inputs": [
        {
          "name": "",
          "type": "uint256"
        }
      ],
      "name": "roles",
      "outputs": [
        {
          "name": "",
          "type": "string"
        }
      ],
      "payable": false,
      "stateMutability": "view",
      "type": "function",
      "signature": "0xbfda4a49"
    },
    {
      "constant": true,
      "inputs": [],
      "name": "bountyFund",
      "outputs": [
        {
          "name": "",
          "type": "address"
        }
      ],
      "payable": false,
      "stateMutability": "view",
      "type": "function",
      "signature": "0xc06c66ca"
    },
    {
      "constant": true,
      "inputs": [],
      "name": "bountyAmount",
      "outputs": [
        {
          "name": "",
          "type": "uint256"
        }
      ],
      "payable": false,
      "stateMutability": "view",
      "type": "function",
      "signature": "0xccd331bf"
    },
    {
      "constant": true,
      "inputs": [],
      "name": "verificationPhaseNumber",
      "outputs": [
        {
          "name": "",
          "type": "uint256"
        }
      ],
      "payable": false,
      "stateMutability": "view",
      "type": "function",
      "signature": "0xd00e768b"
    },
    {
      "constant": false,
      "inputs": [
        {
          "name": "_wallet",
          "type": "address"
        },
        {
          "name": "_firstVerificationPhaseNumber",
          "type": "uint256"
        },
        {
          "name": "_lastVerificationPhaseNumber",
          "type": "uint256"
        }
      ],
      "name": "withdrawPayout",
      "outputs": [],
      "payable": false,
      "stateMutability": "nonpayable",
      "type": "function",
      "signature": "0xe28980c5"
    },
    {
      "constant": true,
      "inputs": [],
      "name": "OWNER_ROLE",
      "outputs": [
        {
          "name": "",
          "type": "string"
        }
      ],
      "payable": false,
      "stateMutability": "view",
      "type": "function",
      "signature": "0xe58378bb"
    },
    {
      "constant": true,
      "inputs": [
        {
          "name": "_verificationPhaseNumber",
          "type": "uint256"
        },
        {
          "name": "_wallet",
          "type": "address"
        }
      ],
      "name": "metricsByVerificationPhaseNumberAndWallet",
      "outputs": [
        {
          "name": "trueStakeAmount",
          "type": "uint256"
        },
        {
          "name": "falseStakeAmount",
          "type": "uint256"
        },
        {
          "name": "stakeAmount",
          "type": "uint256"
        }
      ],
      "payable": false,
      "stateMutability": "view",
      "type": "function",
      "signature": "0xf556e70a"
    },
    {
      "constant": true,
      "inputs": [
        {
          "name": "",
          "type": "address"
        },
        {
          "name": "",
          "type": "bool"
        }
      ],
      "name": "walletStatusAmountMap",
      "outputs": [
        {
          "name": "",
          "type": "uint256"
        }
      ],
      "payable": false,
      "stateMutability": "view",
      "type": "function",
      "signature": "0xfaba0b44"
    },
    {
      "constant": true,
      "inputs": [
        {
          "name": "_role",
          "type": "string"
        },
        {
          "name": "_address",
          "type": "address"
        }
      ],
      "name": "isRoleAccessor",
      "outputs": [
        {
          "name": "",
          "type": "bool"
        }
      ],
      "payable": false,
      "stateMutability": "view",
      "type": "function",
      "signature": "0xfb535fd6"
    },
    {
      "constant": true,
      "inputs": [],
      "name": "token",
      "outputs": [
        {
          "name": "",
          "type": "address"
        }
      ],
      "payable": false,
      "stateMutability": "view",
      "type": "function",
      "signature": "0xfc0c546a"
    },
    {
      "inputs": [
        {
          "name": "_oracle",
          "type": "address"
        },
        {
          "name": "_bountyFund",
          "type": "address"
        },
        {
          "name": "_bountyFraction",
          "type": "uint256"
        },
        {
          "name": "_criterionAmountStaked",
          "type": "uint256"
        }
      ],
      "payable": false,
      "stateMutability": "nonpayable",
      "type": "constructor",
      "signature": "constructor"
    },
    {
      "anonymous": false,
      "inputs": [
        {
          "indexed": true,
          "name": "_wallet",
          "type": "address"
        },
        {
          "indexed": true,
          "name": "_verificationPhaseNumber",
          "type": "uint256"
        },
        {
          "indexed": false,
          "name": "_status",
          "type": "bool"
        },
        {
          "indexed": false,
          "name": "_amount",
          "type": "uint256"
        }
      ],
      "name": "MetricsUpdated",
      "type": "event",
      "signature": "0xf0982056128fe431f591c932edd3cb69e2ef5164c40dbf84734d97241bae92c0"
    },
    {
      "anonymous": false,
      "inputs": [
        {
          "indexed": true,
          "name": "_verificationPhaseNumber",
          "type": "uint256"
        }
      ],
      "name": "ConditionallyResolved",
      "type": "event",
      "signature": "0x1a26b489739b235034b24b8f7c9c487736f13b77be1dd2ef63198ee5de404309"
    },
    {
      "anonymous": false,
      "inputs": [
        {
          "indexed": true,
          "name": "_verificationPhaseNumber",
          "type": "uint256"
        },
        {
          "indexed": false,
          "name": "_bountyFraction",
          "type": "uint256"
        },
        {
          "indexed": false,
          "name": "_bountyAmount",
          "type": "uint256"
        }
      ],
      "name": "BountyExtracted",
      "type": "event",
      "signature": "0xcfa758a68bf0397527bd572b3087e8063ee06e3135a8beb2a6db24411023a057"
    },
    {
      "anonymous": false,
      "inputs": [
        {
          "indexed": true,
          "name": "_verificationPhaseNumber",
          "type": "uint256"
        }
      ],
      "name": "VerificationPhaseOpened",
      "type": "event",
      "signature": "0x9bdc29cef4fb1c7bae8fbfe617da2974521f5b773b27c8826ba71e9edbc23b88"
    },
    {
      "anonymous": false,
      "inputs": [
        {
          "indexed": true,
          "name": "_verificationPhaseNumber",
          "type": "uint256"
        }
      ],
      "name": "VerificationPhaseClosed",
      "type": "event",
      "signature": "0x9feea6fd2bc175ea5210b97c9f21684984af26aa9a2aa1049dad999cf094289d"
    },
    {
      "anonymous": false,
      "inputs": [
        {
          "indexed": true,
          "name": "_wallet",
          "type": "address"
        },
        {
          "indexed": true,
          "name": "_verificationPhaseNumber",
          "type": "uint256"
        },
        {
          "indexed": false,
          "name": "_payout",
          "type": "uint256"
        }
      ],
      "name": "PayoutWithdrawn",
      "type": "event",
      "signature": "0xc5b7ebe2f977029f8b4377865e62fba0a54814d637b7fad519868496741e44c5"
    },
    {
      "anonymous": false,
      "inputs": [
        {
          "indexed": false,
          "name": "_role",
          "type": "string"
        }
      ],
      "name": "RoleAdded",
      "type": "event",
      "signature": "0x22f30a094e2ed10e9a92ebac7a70b8e2ae3288d9b594db22587861bc8fef4eef"
    },
    {
      "anonymous": false,
      "inputs": [
        {
          "indexed": false,
          "name": "_role",
          "type": "string"
        },
        {
          "indexed": true,
          "name": "_address",
          "type": "address"
        }
      ],
      "name": "RoleAccessorAdded",
      "type": "event",
      "signature": "0xafe42c64e42361a5193c84f3f11b6803e41dd901d473ee6faa72f43f8ab1f468"
    },
    {
      "anonymous": false,
      "inputs": [
        {
          "indexed": false,
          "name": "_role",
          "type": "string"
        },
        {
          "indexed": true,
          "name": "_address",
          "type": "address"
        }
      ],
      "name": "RoleAccessorRemoved",
      "type": "event",
      "signature": "0x3e3ea7a1060be276a52e916803e2f89e3478e263893fc3c0b4d5793dd6d5f032"
    },
    {
      "constant": true,
      "inputs": [],
      "name": "resolutionCriteriaMet",
      "outputs": [
        {
          "name": "",
          "type": "bool"
        }
      ],
      "payable": false,
      "stateMutability": "view",
      "type": "function",
      "signature": "0x513554e7"
    }
  ],
  "bytecode": "0x60806040523480156200001157600080fd5b506040516080806200343583398101806040528101908080519060200190929190805190602001909291908051906020019092919080519060200190929190505050838383620000a56040805190810160405280600581526020017f4f574e45520000000000000000000000000000000000000000000000000000008152506200043e640100000000026401000000009004565b620000f56040805190810160405280600581526020017f4f574e455200000000000000000000000000000000000000000000000000000081525033620004ff640100000000026401000000009004565b82600360006101000a81548173ffffffffffffffffffffffffffffffffffffffff021916908373ffffffffffffffffffffffffffffffffffffffff160217905550620001856040805190810160405280600681526020017f4f5241434c4500000000000000000000000000000000000000000000000000008152506200043e640100000000026401000000009004565b620001d56040805190810160405280600681526020017f4f5241434c45000000000000000000000000000000000000000000000000000081525084620004ff640100000000026401000000009004565b81600560006101000a81548173ffffffffffffffffffffffffffffffffffffffff021916908373ffffffffffffffffffffffffffffffffffffffff160217905550600560009054906101000a900473ffffffffffffffffffffffffffffffffffffffff1673ffffffffffffffffffffffffffffffffffffffff16637d54a822306040518263ffffffff167c0100000000000000000000000000000000000000000000000000000000028152600401808273ffffffffffffffffffffffffffffffffffffffff1673ffffffffffffffffffffffffffffffffffffffff168152602001915050600060405180830381600087803b158015620002d457600080fd5b505af1158015620002e9573d6000803e3d6000fd5b50505050600560009054906101000a900473ffffffffffffffffffffffffffffffffffffffff1673ffffffffffffffffffffffffffffffffffffffff1663fc0c546a6040518163ffffffff167c0100000000000000000000000000000000000000000000000000000000028152600401602060405180830381600087803b1580156200037457600080fd5b505af115801562000389573d6000803e3d6000fd5b505050506040513d6020811015620003a057600080fd5b8101908080519060200190929190505050600460006101000a81548173ffffffffffffffffffffffffffffffffffffffff021916908373ffffffffffffffffffffffffffffffffffffffff160217905550806006819055506200041162000559640100000000026401000000009004565b6200042a62000678640100000000026401000000009004565b50505080600e819055505050505062000992565b600160006200045c836200072f640100000000026401000000009004565b600019166000191681526020019081526020016000205460001415620004fc576000819080600181540180825580915050906001820390600052602060002001600090919290919091509080519060200190620004bb929190620008e3565b505060008054905060016000620004e1846200072f640100000000026401000000009004565b60001916600019168152602001908152602001600020819055505b50565b62000555816002600062000522866200072f640100000000026401000000009004565b600019166000191681526020019081526020016000206200080b6401000000000262002928179091906401000000009004565b5050565b600560009054906101000a900473ffffffffffffffffffffffffffffffffffffffff1673ffffffffffffffffffffffffffffffffffffffff1663315a095d6006546040518263ffffffff167c010000000000000000000000000000000000000000000000000000000002815260040180828152602001915050602060405180830381600087803b158015620005ed57600080fd5b505af115801562000602573d6000803e3d6000fd5b505050506040513d60208110156200061957600080fd5b81019080805190602001909291905050506007819055506008547fcfa758a68bf0397527bd572b3087e8063ee06e3135a8beb2a6db24411023a057600654600754604051808381526020018281526020019250505060405180910390a2565b600060028111156200068657fe5b60096000600854815260200190815260200160002060000160009054906101000a900460ff166002811115620006b857fe5b141515620006c557600080fd5b620006fe600754600960006008548152602001908152602001600020620008a664010000000002620028ec179091906401000000009004565b6008547f9bdc29cef4fb1c7bae8fbfe617da2974521f5b773b27c8826ba71e9edbc23b8860405160405180910390a2565b6000816040516020018082805190602001908083835b6020831015156200076c578051825260208201915060208101905060208303925062000745565b6001836020036101000a0380198251168184511680821785525050505050509050019150506040516020818303038152906040526040518082805190602001908083835b602083101515620007d75780518252602082019150602081019050602083039250620007b0565b6001836020036101000a03801982511681845116808217855250505050505090500191505060405180910390209050919050565b600073ffffffffffffffffffffffffffffffffffffffff168173ffffffffffffffffffffffffffffffffffffffff16141515156200084857600080fd5b60018260000160008373ffffffffffffffffffffffffffffffffffffffff1673ffffffffffffffffffffffffffffffffffffffff16815260200190815260200160002060006101000a81548160ff0219169083151502179055505050565b60018260000160006101000a81548160ff02191690836002811115620008c857fe5b02179055508082600601819055504382600801819055505050565b828054600181600116156101000203166002900490600052602060002090601f016020900481019282601f106200092657805160ff191683800117855562000957565b8280016001018555821562000957579182015b828111156200095657825182559160200191906001019062000939565b5b5090506200096691906200096a565b5090565b6200098f91905b808211156200098b57600081600090555060010162000971565b5090565b90565b612a9380620009a26000396000f300608060405260043610610180576000357c0100000000000000000000000000000000000000000000000000000000900463ffffffff16806306bcbd001461018557806306d05aef1461021757806307e2cea5146102665780630c680f14146102f65780630f6c37de1461032357806312e810f2146103a45780633e96e868146104095780634a0d3096146104725780634da195be146104ab578063513554e7146105345780635b0f833a146105635780635de85e81146105ec57806362b46e1f1461067757806364f2a259146106a25780636b2324ea146106ef5780637dc0d1d01461075257806384bfc4a7146107a9578063b6d51b42146107d4578063b726be7f14610839578063b8517dd81461089a578063bfda4a49146108c5578063c06c66ca1461096b578063ccd331bf146109c2578063d00e768b146109ed578063e28980c514610a18578063e58378bb14610a6f578063f556e70a14610aff578063faba0b4414610b6e578063fb535fd614610bd1578063fc0c546a14610c72575b600080fd5b34801561019157600080fd5b506101b060048036038101908080359060200190929190505050610cc9565b604051808b60028111156101c057fe5b60ff1681526020018a8152602001898152602001888152602001878152602001868152602001851515151581526020018481526020018381526020018281526020019a505050505050505050505060405180910390f35b34801561022357600080fd5b5061024260048036038101908080359060200190929190505050610e2e565b60405180848152602001838152602001828152602001935050505060405180910390f35b34801561027257600080fd5b5061027b610eb7565b6040518080602001828103825283818151815260200191508051906020019080838360005b838110156102bb5780820151818401526020810190506102a0565b50505050905090810190601f1680156102e85780820380516001836020036101000a031916815260200191505b509250505060405180910390f35b34801561030257600080fd5b5061032160048036038101908080359060200190929190505050610ef0565b005b34801561032f57600080fd5b5061038a600480360381019080803590602001908201803590602001908080601f0160208091040260200160405190810160405280939291908181526020018383808284378201915050505050509192919290505050610f9e565b604051808215151515815260200191505060405180910390f35b3480156103b057600080fd5b506103e5600480360381019080803573ffffffffffffffffffffffffffffffffffffffff169060200190929190505050610fcf565b60405180848152602001838152602001828152602001935050505060405180910390f35b34801561041557600080fd5b50610470600480360381019080803590602001908201803590602001908080601f016020809104026020016040519081016040528093929190818152602001838380828437820191505050505050919291929050505061109f565b005b34801561047e57600080fd5b50610487611193565b6040518082600281111561049757fe5b60ff16815260200191505060405180910390f35b3480156104b757600080fd5b50610532600480360381019080803590602001908201803590602001908080601f0160208091040260200160405190810160405280939291908181526020018383808284378201915050505050509192919290803573ffffffffffffffffffffffffffffffffffffffff1690602001909291905050506111a6565b005b34801561054057600080fd5b506105496112b3565b604051808215151515815260200191505060405180910390f35b34801561056f57600080fd5b506105ea600480360381019080803590602001908201803590602001908080601f0160208091040260200160405190810160405280939291908181526020018383808284378201915050505050509192919290803573ffffffffffffffffffffffffffffffffffffffff169060200190929190505050611328565b005b3480156105f857600080fd5b5061061760048036038101908080359060200190929190505050611460565b6040518088600281111561062757fe5b60ff16815260200187600281111561063b57fe5b60ff1681526020018681526020018581526020018415151515815260200183815260200182815260200197505050505050505060405180910390f35b34801561068357600080fd5b5061068c6114c9565b6040518082815260200191505060405180910390f35b3480156106ae57600080fd5b506106d9600480360381019080803590602001909291908035151590602001909291905050506114cf565b6040518082815260200191505060405180910390f35b3480156106fb57600080fd5b50610750600480360381019080803573ffffffffffffffffffffffffffffffffffffffff16906020019092919080359060200190929190803515159060200190929190803590602001909291905050506114f4565b005b34801561075e57600080fd5b50610767611704565b604051808273ffffffffffffffffffffffffffffffffffffffff1673ffffffffffffffffffffffffffffffffffffffff16815260200191505060405180910390f35b3480156107b557600080fd5b506107be61172a565b6040518082815260200191505060405180910390f35b3480156107e057600080fd5b5061081f600480360381019080803573ffffffffffffffffffffffffffffffffffffffff16906020019092919080359060200190929190505050611730565b604051808215151515815260200191505060405180910390f35b34801561084557600080fd5b5061088460048036038101908080359060200190929190803573ffffffffffffffffffffffffffffffffffffffff16906020019092919050505061175f565b6040518082815260200191505060405180910390f35b3480156108a657600080fd5b506108af611952565b6040518082815260200191505060405180910390f35b3480156108d157600080fd5b506108f06004803603810190808035906020019092919050505061195e565b6040518080602001828103825283818151815260200191508051906020019080838360005b83811015610930578082015181840152602081019050610915565b50505050905090810190601f16801561095d5780820380516001836020036101000a031916815260200191505b509250505060405180910390f35b34801561097757600080fd5b50610980611a19565b604051808273ffffffffffffffffffffffffffffffffffffffff1673ffffffffffffffffffffffffffffffffffffffff16815260200191505060405180910390f35b3480156109ce57600080fd5b506109d7611a3f565b6040518082815260200191505060405180910390f35b3480156109f957600080fd5b50610a02611a45565b6040518082815260200191505060405180910390f35b348015610a2457600080fd5b50610a6d600480360381019080803573ffffffffffffffffffffffffffffffffffffffff1690602001909291908035906020019092919080359060200190929190505050611a4b565b005b348015610a7b57600080fd5b50610a84611ac3565b6040518080602001828103825283818151815260200191508051906020019080838360005b83811015610ac4578082015181840152602081019050610aa9565b50505050905090810190601f168015610af15780820380516001836020036101000a031916815260200191505b509250505060405180910390f35b348015610b0b57600080fd5b50610b4a60048036038101908080359060200190929190803573ffffffffffffffffffffffffffffffffffffffff169060200190929190505050611afc565b60405180848152602001838152602001828152602001935050505060405180910390f35b348015610b7a57600080fd5b50610bbb600480360381019080803573ffffffffffffffffffffffffffffffffffffffff169060200190929190803515159060200190929190505050611c07565b6040518082815260200191505060405180910390f35b348015610bdd57600080fd5b50610c58600480360381019080803590602001908201803590602001908080601f0160208091040260200160405190810160405280939291908181526020018383808284378201915050505050509192919290803573ffffffffffffffffffffffffffffffffffffffff169060200190929190505050611c2c565b604051808215151515815260200191505060405180910390f35b348015610c7e57600080fd5b50610c87611c6b565b604051808273ffffffffffffffffffffffffffffffffffffffff1673ffffffffffffffffffffffffffffffffffffffff16815260200191505060405180910390f35b6000806000806000806000806000808a8060085410151515610cea57600080fd5b600960008d815260200190815260200160002060000160009054906101000a900460ff169a50600960008d815260200190815260200160002060010160006001151515158152602001908152602001600020549950600960008d8152602001908152602001600020600101600080151515158152602001908152602001600020549850610d80898b611c9190919063ffffffff16565b9750600960008d8152602001908152602001600020600301549650600960008d8152602001908152602001600020600601549550600960008d815260200190815260200160002060070160009054906101000a900460ff169450600960008d8152602001908152602001600020600801549350600960008d81526020019081526020016000206009015492508360008414610e1b5783610e1d565b435b039150509193959799509193959799565b600080600083804310151515610e4357600080fd5b600b600086815260200190815260200160002060006001151515158152602001908152602001600020549350600b6000868152602001908152602001600020600080151515158152602001908152602001600020549250610ead8385611c9190919063ffffffff16565b9150509193909250565b6040805190810160405280600681526020017f4f5241434c45000000000000000000000000000000000000000000000000000081525081565b6040805190810160405280600681526020017f4f5241434c450000000000000000000000000000000000000000000000000000815250610f308133611c2c565b1515610f3b57600080fd5b8180600854141515610f4c57600080fd5b610f546112b3565b15610f6a57610f61611cb2565b610f69611e31565b5b6008547f1a26b489739b235034b24b8f7c9c487736f13b77be1dd2ef63198ee5de40430960405160405180910390a2505050565b600060016000610fad84611ed5565b6000191660001916815260200190815260200160002054600014159050919050565b6000806000600a60008573ffffffffffffffffffffffffffffffffffffffff1673ffffffffffffffffffffffffffffffffffffffff16815260200190815260200160002060006001151515158152602001908152602001600020549250600a60008573ffffffffffffffffffffffffffffffffffffffff1673ffffffffffffffffffffffffffffffffffffffff1681526020019081526020016000206000801515151581526020019081526020016000205491506110968284611c9190919063ffffffff16565b90509193909250565b6040805190810160405280600581526020017f4f574e45520000000000000000000000000000000000000000000000000000008152506110df8133611c2c565b15156110ea57600080fd5b6110f382611fad565b7f22f30a094e2ed10e9a92ebac7a70b8e2ae3288d9b594db22587861bc8fef4eef826040518080602001828103825283818151815260200191508051906020019080838360005b8381101561115557808201518184015260208101905061113a565b50505050905090810190601f1680156111825780820380516001836020036101000a031916815260200191505b509250505060405180910390a15050565b600c60009054906101000a900460ff1681565b6040805190810160405280600581526020017f4f574e45520000000000000000000000000000000000000000000000000000008152506111e68133611c2c565b15156111f157600080fd5b6111fb8383612049565b8173ffffffffffffffffffffffffffffffffffffffff167fafe42c64e42361a5193c84f3f11b6803e41dd901d473ee6faa72f43f8ab1f468846040518080602001828103825283818151815260200191508051906020019080838360005b83811015611274578082015181840152602081019050611259565b50505050905090810190601f1680156112a15780820380516001836020036101000a031916815260200191505b509250505060405180910390a2505050565b6000600e5460096000600854815260200190815260200160002060010160006001151515158152602001908152602001600020541015806113235750600e546009600060085481526020019081526020016000206001016000801515151581526020019081526020016000205410155b905090565b6040805190810160405280600581526020017f4f574e45520000000000000000000000000000000000000000000000000000008152506113688133611c2c565b151561137357600080fd5b6113a8826002600061138487611ed5565b6000191660001916815260200190815260200160002061208290919063ffffffff16565b8173ffffffffffffffffffffffffffffffffffffffff167f3e3ea7a1060be276a52e916803e2f89e3478e263893fc3c0b4d5793dd6d5f032846040518080602001828103825283818151815260200191508051906020019080838360005b83811015611421578082015181840152602081019050611406565b50505050905090810190601f16801561144e5780820380516001836020036101000a031916815260200191505b509250505060405180910390a2505050565b60096020528060005260406000206000915090508060000160009054906101000a900460ff16908060000160019054906101000a900460ff16908060030154908060060154908060070160009054906101000a900460ff16908060080154908060090154905087565b60065481565b600b602052816000526040600020602052806000526040600020600091509150505481565b6040805190810160405280600681526020017f4f5241434c4500000000000000000000000000000000000000000000000000008152506115348133611c2c565b151561153f57600080fd5b838060085414151561155057600080fd5b6115b783600a60008973ffffffffffffffffffffffffffffffffffffffff1673ffffffffffffffffffffffffffffffffffffffff16815260200190815260200160002060008715151515815260200190815260200160002054611c9190919063ffffffff16565b600a60008873ffffffffffffffffffffffffffffffffffffffff1673ffffffffffffffffffffffffffffffffffffffff1681526020019081526020016000206000861515151581526020019081526020016000208190555061164a83600b600043815260200190815260200160002060008715151515815260200190815260200160002054611c9190919063ffffffff16565b600b6000438152602001908152602001600020600086151515158152602001908152602001600020819055506116a186858560096000600854815260200190815260200160002061211c909392919063ffffffff16565b848673ffffffffffffffffffffffffffffffffffffffff167ff0982056128fe431f591c932edd3cb69e2ef5164c40dbf84734d97241bae92c0868660405180831515151581526020018281526020019250505060405180910390a3505050505050565b600360009054906101000a900473ffffffffffffffffffffffffffffffffffffffff1681565b600e5481565b600d6020528160005260406000206020528060005260406000206000915091509054906101000a900460ff1681565b60008060008060006009600088815260200190815260200160002060000160019054906101000a900460ff16600281111561179657fe5b600060028111156117a357fe5b14156117b25760009450611948565b600160028111156117bf57fe5b6009600089815260200190815260200160002060000160019054906101000a900460ff1660028111156117ee57fe5b14935060096000888152602001908152602001600020600101600085151515151581526020019081526020016000205492506009600088815260200190815260200160002060070160009054906101000a900460ff161561187557611872600960008981526020019081526020016000206006015484611c9190919063ffffffff16565b92505b6009600088815260200190815260200160002060040160008773ffffffffffffffffffffffffffffffffffffffff1673ffffffffffffffffffffffffffffffffffffffff168152602001908152602001600020600085151515158152602001908152602001600020549150600960008881526020019081526020016000206001016000851515151581526020019081526020016000205490506119458261193783611929868861235d90919063ffffffff16565b61239b90919063ffffffff16565b611c9190919063ffffffff16565b94505b5050505092915050565b60008080549050905090565b60008181548110151561196d57fe5b906000526020600020016000915090508054600181600116156101000203166002900480601f016020809104026020016040519081016040528092919081815260200182805460018160011615610100020316600290048015611a115780601f106119e657610100808354040283529160200191611a11565b820191906000526020600020905b8154815290600101906020018083116119f457829003601f168201915b505050505081565b600560009054906101000a900473ffffffffffffffffffffffffffffffffffffffff1681565b60075481565b60085481565b60006040805190810160405280600681526020017f4f5241434c450000000000000000000000000000000000000000000000000000815250611a8d8133611c2c565b1515611a9857600080fd5b8391505b8282111515611abc57611aaf85836123c5565b8180600101925050611a9c565b5050505050565b6040805190810160405280600581526020017f4f574e455200000000000000000000000000000000000000000000000000000081525081565b6000806000848060085410151515611b1357600080fd5b6009600087815260200190815260200160002060040160008673ffffffffffffffffffffffffffffffffffffffff1673ffffffffffffffffffffffffffffffffffffffff168152602001908152602001600020600060011515151581526020019081526020016000205493506009600087815260200190815260200160002060040160008673ffffffffffffffffffffffffffffffffffffffff1673ffffffffffffffffffffffffffffffffffffffff168152602001908152602001600020600080151515158152602001908152602001600020549250611bfd8385611c9190919063ffffffff16565b9150509250925092565b600a602052816000526040600020602052806000526040600020600091509150505481565b6000611c638260026000611c3f87611ed5565b6000191660001916815260200190815260200160002061264190919063ffffffff16565b905092915050565b600460009054906101000a900473ffffffffffffffffffffffffffffffffffffffff1681565b6000808284019050838110151515611ca857600080fd5b8091505092915050565b60016002811115611cbf57fe5b60096000600854815260200190815260200160002060000160009054906101000a900460ff166002811115611cf057fe5b141515611cfc57600080fd5b611d196009600060085481526020019081526020016000206126d5565b600c60009054906101000a900460ff166002811115611d3457fe5b60096000600854815260200190815260200160002060000160019054906101000a900460ff166002811115611d6557fe5b141515611dee5760096000600854815260200190815260200160002060000160019054906101000a900460ff16600c60006101000a81548160ff02191690836002811115611daf57fe5b0217905550600160096000600854815260200190815260200160002060070160006101000a81548160ff021916908315150217905550611ded6127d0565b5b6008547f9feea6fd2bc175ea5210b97c9f21684984af26aa9a2aa1049dad999cf094289d60405160405180910390a2600860008154809291906001019190505550565b60006002811115611e3e57fe5b60096000600854815260200190815260200160002060000160009054906101000a900460ff166002811115611e6f57fe5b141515611e7b57600080fd5b611ea46007546009600060085481526020019081526020016000206128ec90919063ffffffff16565b6008547f9bdc29cef4fb1c7bae8fbfe617da2974521f5b773b27c8826ba71e9edbc23b8860405160405180910390a2565b6000816040516020018082805190602001908083835b602083101515611f105780518252602082019150602081019050602083039250611eeb565b6001836020036101000a0380198251168184511680821785525050505050509050019150506040516020818303038152906040526040518082805190602001908083835b602083101515611f795780518252602082019150602081019050602083039250611f54565b6001836020036101000a03801982511681845116808217855250505050505090500191505060405180910390209050919050565b60016000611fba83611ed5565b6000191660001916815260200190815260200160002054600014156120465760008190806001815401808255809150509060018203906000526020600020016000909192909190915090805190602001906120169291906129c2565b50506000805490506001600061202b84611ed5565b60001916600019168152602001908152602001600020819055505b50565b61207e816002600061205a86611ed5565b6000191660001916815260200190815260200160002061292890919063ffffffff16565b5050565b600073ffffffffffffffffffffffffffffffffffffffff168173ffffffffffffffffffffffffffffffffffffffff16141515156120be57600080fd5b60008260000160008373ffffffffffffffffffffffffffffffffffffffff1673ffffffffffffffffffffffffffffffffffffffff16815260200190815260200160002060006101000a81548160ff0219169083151502179055505050565b612148818560010160008515151515815260200190815260200160002054611c9190919063ffffffff16565b84600101600084151515158152602001908152602001600020819055508360020160008473ffffffffffffffffffffffffffffffffffffffff1673ffffffffffffffffffffffffffffffffffffffff16815260200190815260200160002060009054906101000a900460ff1615156122295760018460020160008573ffffffffffffffffffffffffffffffffffffffff1673ffffffffffffffffffffffffffffffffffffffff16815260200190815260200160002060006101000a81548160ff02191690831515021790555083600301600081548092919060010191905055505b612292818560040160008673ffffffffffffffffffffffffffffffffffffffff1673ffffffffffffffffffffffffffffffffffffffff16815260200190815260200160002060008515151515815260200190815260200160002054611c9190919063ffffffff16565b8460040160008573ffffffffffffffffffffffffffffffffffffffff1673ffffffffffffffffffffffffffffffffffffffff168152602001908152602001600020600084151515158152602001908152602001600020819055506123298185600501600043815260200190815260200160002060008515151515815260200190815260200160002054611c9190919063ffffffff16565b8460050160004381526020019081526020016000206000841515151581526020019081526020016000208190555050505050565b60008060008414156123725760009150612394565b828402905082848281151561238357fe5b0414151561239057600080fd5b8091505b5092915050565b6000806000831115156123ad57600080fd5b82848115156123b857fe5b0490508091505092915050565b60006009600083815260200190815260200160002060000160009054906101000a900460ff1660028111156123f657fe5b60028081111561240257fe5b14151561240e5761263c565b600d60008473ffffffffffffffffffffffffffffffffffffffff1673ffffffffffffffffffffffffffffffffffffffff168152602001908152602001600020600083815260200190815260200160002060009054906101000a900460ff16156124765761263c565b612480828461175f565b90506001600d60008573ffffffffffffffffffffffffffffffffffffffff1673ffffffffffffffffffffffffffffffffffffffff168152602001908152602001600020600084815260200190815260200160002060006101000a81548160ff021916908315150217905550600460009054906101000a900473ffffffffffffffffffffffffffffffffffffffff1673ffffffffffffffffffffffffffffffffffffffff1663a9059cbb84836040518363ffffffff167c0100000000000000000000000000000000000000000000000000000000028152600401808373ffffffffffffffffffffffffffffffffffffffff1673ffffffffffffffffffffffffffffffffffffffff16815260200182815260200192505050602060405180830381600087803b1580156125b057600080fd5b505af11580156125c4573d6000803e3d6000fd5b505050506040513d60208110156125da57600080fd5b810190808051906020019092919050505050818373ffffffffffffffffffffffffffffffffffffffff167fc5b7ebe2f977029f8b4377865e62fba0a54814d637b7fad519868496741e44c5836040518082815260200191505060405180910390a35b505050565b60008073ffffffffffffffffffffffffffffffffffffffff168273ffffffffffffffffffffffffffffffffffffffff161415151561267e57600080fd5b8260000160008373ffffffffffffffffffffffffffffffffffffffff1673ffffffffffffffffffffffffffffffffffffffff16815260200190815260200160002060009054906101000a900460ff16905092915050565b60028160000160006101000a81548160ff021916908360028111156126f657fe5b02179055504381600901819055508060010160008015151515815260200190815260200160002054816001016000600115151515815260200190815260200160002054111561276a5760018160000160016101000a81548160ff0219169083600281111561276057fe5b02179055506127cd565b806001016000801515151581526020019081526020016000205481600101600060011515151581526020019081526020016000205410156127cc5760028160000160016101000a81548160ff021916908360028111156127c657fe5b02179055505b5b50565b600560009054906101000a900473ffffffffffffffffffffffffffffffffffffffff1673ffffffffffffffffffffffffffffffffffffffff1663315a095d6006546040518263ffffffff167c010000000000000000000000000000000000000000000000000000000002815260040180828152602001915050602060405180830381600087803b15801561286357600080fd5b505af1158015612877573d6000803e3d6000fd5b505050506040513d602081101561288d57600080fd5b81019080805190602001909291905050506007819055506008547fcfa758a68bf0397527bd572b3087e8063ee06e3135a8beb2a6db24411023a057600654600754604051808381526020018281526020019250505060405180910390a2565b60018260000160006101000a81548160ff0219169083600281111561290d57fe5b02179055508082600601819055504382600801819055505050565b600073ffffffffffffffffffffffffffffffffffffffff168173ffffffffffffffffffffffffffffffffffffffff161415151561296457600080fd5b60018260000160008373ffffffffffffffffffffffffffffffffffffffff1673ffffffffffffffffffffffffffffffffffffffff16815260200190815260200160002060006101000a81548160ff0219169083151502179055505050565b828054600181600116156101000203166002900490600052602060002090601f016020900481019282601f10612a0357805160ff1916838001178555612a31565b82800160010185558215612a31579182015b82811115612a30578251825591602001919060010190612a15565b5b509050612a3e9190612a42565b5090565b612a6491905b80821115612a60576000816000905550600101612a48565b5090565b905600a165627a7a723058204dcbc6d5e6ddeeb6e6d3d1ed905d8d9fd2f56992e5a9fb1fa03dc9d4596b03450029",
  "source": "/*\n * Lottery oracle\n *\n * Copyright (C) 2017-2018 Hubii AS\n */\n\npragma solidity ^0.4.25;\n\nimport {Resolvable} from \"./Resolvable.sol\";\nimport {ResolutionEngine} from \"./ResolutionEngine.sol\";\n\n/// @title NaiveTotalResolutionEngine\n/// @author Jens Ivar Jrdre <jensivar@hubii.com>\n/// @notice A nave total resolution engine\ncontract NaiveTotalResolutionEngine is Resolvable, ResolutionEngine {\n\n    uint256 public criterionAmountStaked;\n\n    constructor(address _oracle, address _bountyFund, uint256 _bountyFraction,\n        uint256 _criterionAmountStaked)\n    public\n    ResolutionEngine(_oracle, _bountyFund, _bountyFraction)\n    {\n        criterionAmountStaked = _criterionAmountStaked;\n    }\n\n    /// @notice Gauge whether the resolution criteria have been met\n    /// @return true if resolution criteria have been met, else false\n    function resolutionCriteriaMet() public view returns (bool) {\n        return verificationPhaseMap[verificationPhaseNumber].statusAmountMap[true] >= criterionAmountStaked ||\n        verificationPhaseMap[verificationPhaseNumber].statusAmountMap[false] >= criterionAmountStaked;\n    }\n}\n",
  "sourcePath": "/opt/buildagent/work/9988d0feca52d9d9/contracts/NaiveTotalResolutionEngine.sol",
  "compiler": {
    "name": "solc",
    "version": "0.4.25+commit.59dbf8f1.Emscripten.clang"
  },
  "schemaVersion": "3.0.0-beta.1",
  "updatedAt": "2018-10-03T16:03:08.682Z"
}