{
  "contractName": "NaiveTotalResolutionEngine",
  "abi": [
    {
      "constant": true,
      "inputs": [],
      "name": "frozen",
      "outputs": [
        {
          "internalType": "bool",
          "name": "",
          "type": "bool"
        }
      ],
      "payable": false,
      "stateMutability": "view",
      "type": "function"
    },
    {
      "constant": true,
      "inputs": [
        {
          "internalType": "uint256",
          "name": "_verificationPhaseNumber",
          "type": "uint256"
        }
      ],
      "name": "metricsByVerificationPhaseNumber",
      "outputs": [
        {
          "internalType": "enum VerificationPhaseLib.State",
          "name": "state",
          "type": "uint8"
        },
        {
          "internalType": "uint256",
          "name": "trueStakeAmount",
          "type": "uint256"
        },
        {
          "internalType": "uint256",
          "name": "falseStakeAmount",
          "type": "uint256"
        },
        {
          "internalType": "uint256",
          "name": "stakeAmount",
          "type": "uint256"
        },
        {
          "internalType": "uint256",
          "name": "numberOfWallets",
          "type": "uint256"
        },
        {
          "internalType": "uint256",
          "name": "bountyAmount",
          "type": "uint256"
        },
        {
          "internalType": "bool",
          "name": "bountyAwarded",
          "type": "bool"
        },
        {
          "internalType": "uint256",
          "name": "startBlock",
          "type": "uint256"
        },
        {
          "internalType": "uint256",
          "name": "endBlock",
          "type": "uint256"
        },
        {
          "internalType": "uint256",
          "name": "numberOfBlocks",
          "type": "uint256"
        }
      ],
      "payable": false,
      "stateMutability": "view",
      "type": "function"
    },
    {
      "constant": true,
      "inputs": [
        {
          "internalType": "uint256",
          "name": "_blockNumber",
          "type": "uint256"
        }
      ],
      "name": "metricsByBlockNumber",
      "outputs": [
        {
          "internalType": "uint256",
          "name": "trueStakeAmount",
          "type": "uint256"
        },
        {
          "internalType": "uint256",
          "name": "falseStakeAmount",
          "type": "uint256"
        },
        {
          "internalType": "uint256",
          "name": "stakeAmount",
          "type": "uint256"
        }
      ],
      "payable": false,
      "stateMutability": "view",
      "type": "function"
    },
    {
      "constant": true,
      "inputs": [
        {
          "internalType": "string",
          "name": "_role",
          "type": "string"
        }
      ],
      "name": "isRole",
      "outputs": [
        {
          "internalType": "bool",
          "name": "",
          "type": "bool"
        }
      ],
      "payable": false,
      "stateMutability": "view",
      "type": "function"
    },
    {
      "constant": true,
      "inputs": [
        {
          "internalType": "address",
          "name": "_wallet",
          "type": "address"
        }
      ],
      "name": "metricsByWallet",
      "outputs": [
        {
          "internalType": "uint256",
          "name": "trueStakeAmount",
          "type": "uint256"
        },
        {
          "internalType": "uint256",
          "name": "falseStakeAmount",
          "type": "uint256"
        },
        {
          "internalType": "uint256",
          "name": "stakeAmount",
          "type": "uint256"
        }
      ],
      "payable": false,
      "stateMutability": "view",
      "type": "function"
    },
    {
      "constant": true,
      "inputs": [],
      "name": "initialized",
      "outputs": [
        {
          "internalType": "bool",
          "name": "",
          "type": "bool"
        }
      ],
      "payable": false,
      "stateMutability": "view",
      "type": "function"
    },
    {
      "constant": false,
      "inputs": [
        {
          "internalType": "address",
          "name": "_wallet",
          "type": "address"
        },
        {
          "internalType": "uint256",
          "name": "_firstVerificationPhaseNumber",
          "type": "uint256"
        },
        {
          "internalType": "uint256",
          "name": "_lastVerificationPhaseNumber",
          "type": "uint256"
        }
      ],
      "name": "stagePayout",
      "outputs": [],
      "payable": false,
      "stateMutability": "nonpayable",
      "type": "function"
    },
    {
      "constant": false,
      "inputs": [
        {
          "internalType": "string",
          "name": "_role",
          "type": "string"
        }
      ],
      "name": "addRole",
      "outputs": [],
      "payable": false,
      "stateMutability": "nonpayable",
      "type": "function"
    },
    {
      "constant": true,
      "inputs": [],
      "name": "verificationStatus",
      "outputs": [
        {
          "internalType": "enum VerificationPhaseLib.Status",
          "name": "",
          "type": "uint8"
        }
      ],
      "payable": false,
      "stateMutability": "view",
      "type": "function"
    },
    {
      "constant": false,
      "inputs": [
        {
          "internalType": "address",
          "name": "_wallet",
          "type": "address"
        },
        {
          "internalType": "bool",
          "name": "_status",
          "type": "bool"
        },
        {
          "internalType": "uint256",
          "name": "_amount",
          "type": "uint256"
        }
      ],
      "name": "stake",
      "outputs": [],
      "payable": false,
      "stateMutability": "nonpayable",
      "type": "function"
    },
    {
      "constant": false,
      "inputs": [
        {
          "internalType": "string",
          "name": "_role",
          "type": "string"
        },
        {
          "internalType": "address",
          "name": "_address",
          "type": "address"
        }
      ],
      "name": "addRoleAccessor",
      "outputs": [],
      "payable": false,
      "stateMutability": "nonpayable",
      "type": "function"
    },
    {
      "constant": true,
      "inputs": [
        {
          "internalType": "address",
          "name": "",
          "type": "address"
        }
      ],
      "name": "stagedAmountByWallet",
      "outputs": [
        {
          "internalType": "uint256",
          "name": "",
          "type": "uint256"
        }
      ],
      "payable": false,
      "stateMutability": "view",
      "type": "function"
    },
    {
      "constant": true,
      "inputs": [],
      "name": "operator",
      "outputs": [
        {
          "internalType": "address",
          "name": "",
          "type": "address"
        }
      ],
      "payable": false,
      "stateMutability": "view",
      "type": "function"
    },
    {
      "constant": false,
      "inputs": [
        {
          "internalType": "string",
          "name": "_role",
          "type": "string"
        },
        {
          "internalType": "address",
          "name": "_address",
          "type": "address"
        }
      ],
      "name": "removeRoleAccessor",
      "outputs": [],
      "payable": false,
      "stateMutability": "nonpayable",
      "type": "function"
    },
    {
      "constant": true,
      "inputs": [
        {
          "internalType": "string",
          "name": "_name",
          "type": "string"
        }
      ],
      "name": "disabled",
      "outputs": [
        {
          "internalType": "bool",
          "name": "",
          "type": "bool"
        }
      ],
      "payable": false,
      "stateMutability": "view",
      "type": "function"
    },
    {
      "constant": false,
      "inputs": [],
      "name": "freeze",
      "outputs": [],
      "payable": false,
      "stateMutability": "nonpayable",
      "type": "function"
    },
    {
      "constant": false,
      "inputs": [
        {
          "internalType": "address",
          "name": "_wallet",
          "type": "address"
        }
      ],
      "name": "stageStake",
      "outputs": [],
      "payable": false,
      "stateMutability": "nonpayable",
      "type": "function"
    },
    {
      "constant": true,
      "inputs": [
        {
          "internalType": "string",
          "name": "_name",
          "type": "string"
        }
      ],
      "name": "enabled",
      "outputs": [
        {
          "internalType": "bool",
          "name": "",
          "type": "bool"
        }
      ],
      "payable": false,
      "stateMutability": "view",
      "type": "function"
    },
    {
      "constant": true,
      "inputs": [],
      "name": "oracle",
      "outputs": [
        {
          "internalType": "address",
          "name": "",
          "type": "address"
        }
      ],
      "payable": false,
      "stateMutability": "view",
      "type": "function"
    },
    {
      "constant": false,
      "inputs": [],
      "name": "initialize",
      "outputs": [],
      "payable": false,
      "stateMutability": "nonpayable",
      "type": "function"
    },
    {
      "constant": false,
      "inputs": [
        {
          "internalType": "address",
          "name": "_bountyAllocator",
          "type": "address"
        }
      ],
      "name": "setBountyAllocator",
      "outputs": [],
      "payable": false,
      "stateMutability": "nonpayable",
      "type": "function"
    },
    {
      "constant": true,
      "inputs": [],
      "name": "RESOLVE_ACTION",
      "outputs": [
        {
          "internalType": "string",
          "name": "",
          "type": "string"
        }
      ],
      "payable": false,
      "stateMutability": "view",
      "type": "function"
    },
    {
      "constant": true,
      "inputs": [],
      "name": "amount",
      "outputs": [
        {
          "internalType": "uint256",
          "name": "",
          "type": "uint256"
        }
      ],
      "payable": false,
      "stateMutability": "view",
      "type": "function"
    },
    {
      "constant": true,
      "inputs": [],
      "name": "STAKE_ACTION",
      "outputs": [
        {
          "internalType": "string",
          "name": "",
          "type": "string"
        }
      ],
      "payable": false,
      "stateMutability": "view",
      "type": "function"
    },
    {
      "constant": true,
      "inputs": [
        {
          "internalType": "uint256",
          "name": "_verificationPhaseNumber",
          "type": "uint256"
        },
        {
          "internalType": "address",
          "name": "_wallet",
          "type": "address"
        }
      ],
      "name": "calculatePayout",
      "outputs": [
        {
          "internalType": "uint256",
          "name": "",
          "type": "uint256"
        }
      ],
      "payable": false,
      "stateMutability": "view",
      "type": "function"
    },
    {
      "constant": true,
      "inputs": [],
      "name": "rolesCount",
      "outputs": [
        {
          "internalType": "uint256",
          "name": "",
          "type": "uint256"
        }
      ],
      "payable": false,
      "stateMutability": "view",
      "type": "function"
    },
    {
      "constant": false,
      "inputs": [
        {
          "internalType": "string",
          "name": "_action",
          "type": "string"
        }
      ],
      "name": "enable",
      "outputs": [],
      "payable": false,
      "stateMutability": "nonpayable",
      "type": "function"
    },
    {
      "constant": true,
      "inputs": [
        {
          "internalType": "uint256",
          "name": "",
          "type": "uint256"
        }
      ],
      "name": "roles",
      "outputs": [
        {
          "internalType": "string",
          "name": "",
          "type": "string"
        }
      ],
      "payable": false,
      "stateMutability": "view",
      "type": "function"
    },
    {
      "constant": true,
      "inputs": [],
      "name": "bountyFund",
      "outputs": [
        {
          "internalType": "contract BountyFund",
          "name": "",
          "type": "address"
        }
      ],
      "payable": false,
      "stateMutability": "view",
      "type": "function"
    },
    {
      "constant": false,
      "inputs": [],
      "name": "resolveIfCriteriaMet",
      "outputs": [],
      "payable": false,
      "stateMutability": "nonpayable",
      "type": "function"
    },
    {
      "constant": true,
      "inputs": [],
      "name": "bountyAllocator",
      "outputs": [
        {
          "internalType": "address",
          "name": "",
          "type": "address"
        }
      ],
      "payable": false,
      "stateMutability": "view",
      "type": "function"
    },
    {
      "constant": true,
      "inputs": [],
      "name": "verificationPhaseNumber",
      "outputs": [
        {
          "internalType": "uint256",
          "name": "",
          "type": "uint256"
        }
      ],
      "payable": false,
      "stateMutability": "view",
      "type": "function"
    },
    {
      "constant": true,
      "inputs": [
        {
          "internalType": "address",
          "name": "",
          "type": "address"
        },
        {
          "internalType": "uint256",
          "name": "",
          "type": "uint256"
        }
      ],
      "name": "payoutStagedByWalletPhase",
      "outputs": [
        {
          "internalType": "bool",
          "name": "",
          "type": "bool"
        }
      ],
      "payable": false,
      "stateMutability": "view",
      "type": "function"
    },
    {
      "constant": false,
      "inputs": [
        {
          "internalType": "address",
          "name": "_wallet",
          "type": "address"
        }
      ],
      "name": "stageBounty",
      "outputs": [],
      "payable": false,
      "stateMutability": "nonpayable",
      "type": "function"
    },
    {
      "constant": false,
      "inputs": [
        {
          "internalType": "string",
          "name": "_action",
          "type": "string"
        }
      ],
      "name": "disable",
      "outputs": [],
      "payable": false,
      "stateMutability": "nonpayable",
      "type": "function"
    },
    {
      "constant": true,
      "inputs": [],
      "name": "OWNER_ROLE",
      "outputs": [
        {
          "internalType": "string",
          "name": "",
          "type": "string"
        }
      ],
      "payable": false,
      "stateMutability": "view",
      "type": "function"
    },
    {
      "constant": true,
      "inputs": [
        {
          "internalType": "address",
          "name": "",
          "type": "address"
        },
        {
          "internalType": "bool",
          "name": "",
          "type": "bool"
        }
      ],
      "name": "stakedAmountByWalletStatus",
      "outputs": [
        {
          "internalType": "uint256",
          "name": "",
          "type": "uint256"
        }
      ],
      "payable": false,
      "stateMutability": "view",
      "type": "function"
    },
    {
      "constant": false,
      "inputs": [
        {
          "internalType": "address",
          "name": "_wallet",
          "type": "address"
        },
        {
          "internalType": "uint256",
          "name": "_amount",
          "type": "uint256"
        }
      ],
      "name": "stage",
      "outputs": [],
      "payable": false,
      "stateMutability": "nonpayable",
      "type": "function"
    },
    {
      "constant": false,
      "inputs": [
        {
          "internalType": "address",
          "name": "_wallet",
          "type": "address"
        },
        {
          "internalType": "uint256",
          "name": "_amount",
          "type": "uint256"
        }
      ],
      "name": "withdraw",
      "outputs": [],
      "payable": false,
      "stateMutability": "nonpayable",
      "type": "function"
    },
    {
      "constant": true,
      "inputs": [
        {
          "internalType": "uint256",
          "name": "_verificationPhaseNumber",
          "type": "uint256"
        },
        {
          "internalType": "address",
          "name": "_wallet",
          "type": "address"
        }
      ],
      "name": "metricsByVerificationPhaseNumberAndWallet",
      "outputs": [
        {
          "internalType": "uint256",
          "name": "trueStakeAmount",
          "type": "uint256"
        },
        {
          "internalType": "uint256",
          "name": "falseStakeAmount",
          "type": "uint256"
        },
        {
          "internalType": "uint256",
          "name": "stakeAmount",
          "type": "uint256"
        }
      ],
      "payable": false,
      "stateMutability": "view",
      "type": "function"
    },
    {
      "constant": true,
      "inputs": [
        {
          "internalType": "string",
          "name": "_role",
          "type": "string"
        },
        {
          "internalType": "address",
          "name": "_address",
          "type": "address"
        }
      ],
      "name": "isRoleAccessor",
      "outputs": [
        {
          "internalType": "bool",
          "name": "",
          "type": "bool"
        }
      ],
      "payable": false,
      "stateMutability": "view",
      "type": "function"
    },
    {
      "constant": true,
      "inputs": [
        {
          "internalType": "uint256",
          "name": "",
          "type": "uint256"
        },
        {
          "internalType": "bool",
          "name": "",
          "type": "bool"
        }
      ],
      "name": "stakedAmountByBlockStatus",
      "outputs": [
        {
          "internalType": "uint256",
          "name": "",
          "type": "uint256"
        }
      ],
      "payable": false,
      "stateMutability": "view",
      "type": "function"
    },
    {
      "constant": true,
      "inputs": [],
      "name": "token",
      "outputs": [
        {
          "internalType": "contract ERC20",
          "name": "",
          "type": "address"
        }
      ],
      "payable": false,
      "stateMutability": "view",
      "type": "function"
    },
    {
      "constant": true,
      "inputs": [
        {
          "internalType": "uint256",
          "name": "",
          "type": "uint256"
        }
      ],
      "name": "verificationPhaseByPhaseNumber",
      "outputs": [
        {
          "internalType": "enum VerificationPhaseLib.State",
          "name": "state",
          "type": "uint8"
        },
        {
          "internalType": "enum VerificationPhaseLib.Status",
          "name": "result",
          "type": "uint8"
        },
        {
          "internalType": "uint256",
          "name": "stakedAmount",
          "type": "uint256"
        },
        {
          "internalType": "uint256",
          "name": "stakingWallets",
          "type": "uint256"
        },
        {
          "internalType": "uint256",
          "name": "bountyAmount",
          "type": "uint256"
        },
        {
          "internalType": "bool",
          "name": "bountyAwarded",
          "type": "bool"
        },
        {
          "internalType": "uint256",
          "name": "startBlock",
          "type": "uint256"
        },
        {
          "internalType": "uint256",
          "name": "endBlock",
          "type": "uint256"
        }
      ],
      "payable": false,
      "stateMutability": "view",
      "type": "function"
    },
    {
      "inputs": [
        {
          "internalType": "address",
          "name": "_oracle",
          "type": "address"
        },
        {
          "internalType": "address",
          "name": "_operator",
          "type": "address"
        },
        {
          "internalType": "address",
          "name": "_bountyFund",
          "type": "address"
        },
        {
          "internalType": "uint256",
          "name": "_amount",
          "type": "uint256"
        }
      ],
      "payable": false,
      "stateMutability": "nonpayable",
      "type": "constructor"
    },
    {
      "anonymous": false,
      "inputs": [
        {
          "indexed": false,
          "internalType": "uint256",
          "name": "amount",
          "type": "uint256"
        }
      ],
      "name": "AmountSet",
      "type": "event"
    },
    {
      "anonymous": false,
      "inputs": [],
      "name": "Frozen",
      "type": "event"
    },
    {
      "anonymous": false,
      "inputs": [
        {
          "indexed": true,
          "internalType": "address",
          "name": "_bountyAllocator",
          "type": "address"
        }
      ],
      "name": "BountyAllocatorSet",
      "type": "event"
    },
    {
      "anonymous": false,
      "inputs": [],
      "name": "Initialized",
      "type": "event"
    },
    {
      "anonymous": false,
      "inputs": [
        {
          "indexed": true,
          "internalType": "address",
          "name": "_wallet",
          "type": "address"
        },
        {
          "indexed": true,
          "internalType": "uint256",
          "name": "_verificationPhaseNumber",
          "type": "uint256"
        },
        {
          "indexed": false,
          "internalType": "bool",
          "name": "_status",
          "type": "bool"
        },
        {
          "indexed": false,
          "internalType": "uint256",
          "name": "_amount",
          "type": "uint256"
        }
      ],
      "name": "Staked",
      "type": "event"
    },
    {
      "anonymous": false,
      "inputs": [
        {
          "indexed": true,
          "internalType": "uint256",
          "name": "_verificationPhaseNumber",
          "type": "uint256"
        }
      ],
      "name": "Resolved",
      "type": "event"
    },
    {
      "anonymous": false,
      "inputs": [
        {
          "indexed": true,
          "internalType": "uint256",
          "name": "_verificationPhaseNumber",
          "type": "uint256"
        },
        {
          "indexed": false,
          "internalType": "uint256",
          "name": "_bountyAmount",
          "type": "uint256"
        }
      ],
      "name": "BountyImported",
      "type": "event"
    },
    {
      "anonymous": false,
      "inputs": [
        {
          "indexed": true,
          "internalType": "address",
          "name": "_wallet",
          "type": "address"
        },
        {
          "indexed": false,
          "internalType": "uint256",
          "name": "_bountyAmount",
          "type": "uint256"
        }
      ],
      "name": "BountyStaged",
      "type": "event"
    },
    {
      "anonymous": false,
      "inputs": [
        {
          "indexed": true,
          "internalType": "uint256",
          "name": "_verificationPhaseNumber",
          "type": "uint256"
        }
      ],
      "name": "VerificationPhaseOpened",
      "type": "event"
    },
    {
      "anonymous": false,
      "inputs": [
        {
          "indexed": true,
          "internalType": "uint256",
          "name": "_verificationPhaseNumber",
          "type": "uint256"
        }
      ],
      "name": "VerificationPhaseClosed",
      "type": "event"
    },
    {
      "anonymous": false,
      "inputs": [
        {
          "indexed": true,
          "internalType": "address",
          "name": "_wallet",
          "type": "address"
        },
        {
          "indexed": true,
          "internalType": "uint256",
          "name": "_firstVerificationPhaseNumber",
          "type": "uint256"
        },
        {
          "indexed": true,
          "internalType": "uint256",
          "name": "_lastVerificationPhaseNumber",
          "type": "uint256"
        },
        {
          "indexed": false,
          "internalType": "uint256",
          "name": "_payout",
          "type": "uint256"
        }
      ],
      "name": "PayoutStaged",
      "type": "event"
    },
    {
      "anonymous": false,
      "inputs": [
        {
          "indexed": true,
          "internalType": "address",
          "name": "_wallet",
          "type": "address"
        },
        {
          "indexed": false,
          "internalType": "uint256",
          "name": "_amount",
          "type": "uint256"
        }
      ],
      "name": "StakeStaged",
      "type": "event"
    },
    {
      "anonymous": false,
      "inputs": [
        {
          "indexed": true,
          "internalType": "address",
          "name": "_wallet",
          "type": "address"
        },
        {
          "indexed": false,
          "internalType": "uint256",
          "name": "_amount",
          "type": "uint256"
        }
      ],
      "name": "Staged",
      "type": "event"
    },
    {
      "anonymous": false,
      "inputs": [
        {
          "indexed": true,
          "internalType": "address",
          "name": "_wallet",
          "type": "address"
        },
        {
          "indexed": false,
          "internalType": "uint256",
          "name": "_amount",
          "type": "uint256"
        }
      ],
      "name": "Withdrawn",
      "type": "event"
    },
    {
      "anonymous": false,
      "inputs": [
        {
          "indexed": false,
          "internalType": "string",
          "name": "_name",
          "type": "string"
        }
      ],
      "name": "Disabled",
      "type": "event"
    },
    {
      "anonymous": false,
      "inputs": [
        {
          "indexed": false,
          "internalType": "string",
          "name": "_name",
          "type": "string"
        }
      ],
      "name": "Enabled",
      "type": "event"
    },
    {
      "anonymous": false,
      "inputs": [
        {
          "indexed": false,
          "internalType": "string",
          "name": "_role",
          "type": "string"
        }
      ],
      "name": "RoleAdded",
      "type": "event"
    },
    {
      "anonymous": false,
      "inputs": [
        {
          "indexed": false,
          "internalType": "string",
          "name": "_role",
          "type": "string"
        },
        {
          "indexed": true,
          "internalType": "address",
          "name": "_address",
          "type": "address"
        }
      ],
      "name": "RoleAccessorAdded",
      "type": "event"
    },
    {
      "anonymous": false,
      "inputs": [
        {
          "indexed": false,
          "internalType": "string",
          "name": "_role",
          "type": "string"
        },
        {
          "indexed": true,
          "internalType": "address",
          "name": "_address",
          "type": "address"
        }
      ],
      "name": "RoleAccessorRemoved",
      "type": "event"
    },
    {
      "constant": true,
      "inputs": [
        {
          "internalType": "bool",
          "name": "_status",
          "type": "bool"
        }
      ],
      "name": "resolutionDeltaAmount",
      "outputs": [
        {
          "internalType": "uint256",
          "name": "",
          "type": "uint256"
        }
      ],
      "payable": false,
      "stateMutability": "view",
      "type": "function"
    },
    {
      "constant": true,
      "inputs": [],
      "name": "resolutionCriteriaMet",
      "outputs": [
        {
          "internalType": "bool",
          "name": "",
          "type": "bool"
        }
      ],
      "payable": false,
      "stateMutability": "view",
      "type": "function"
    },
    {
      "constant": false,
      "inputs": [
        {
          "internalType": "uint256",
          "name": "_amount",
          "type": "uint256"
        }
      ],
      "name": "setAmount",
      "outputs": [],
      "payable": false,
      "stateMutability": "nonpayable",
      "type": "function"
    }
  ],
  "bytecode": "0x60806040523480156200001157600080fd5b506040516200585538038062005855833981810160405260808110156200003757600080fd5b8101908080519060200190929190805190602001909291908051906020019092919080519060200190929190505050838383620000af6040518060400160405280600581526020017f4f574e45520000000000000000000000000000000000000000000000000000008152506200036e60201b60201c565b620000f66040518060400160405280600581526020017f4f574e4552000000000000000000000000000000000000000000000000000000815250336200040d60201b60201c565b82600460006101000a81548173ffffffffffffffffffffffffffffffffffffffff021916908373ffffffffffffffffffffffffffffffffffffffff16021790555081600560006101000a81548173ffffffffffffffffffffffffffffffffffffffff021916908373ffffffffffffffffffffffffffffffffffffffff16021790555080600760006101000a81548173ffffffffffffffffffffffffffffffffffffffff021916908373ffffffffffffffffffffffffffffffffffffffff160217905550600760009054906101000a900473ffffffffffffffffffffffffffffffffffffffff1673ffffffffffffffffffffffffffffffffffffffff16637d54a822306040518263ffffffff1660e01b8152600401808273ffffffffffffffffffffffffffffffffffffffff1673ffffffffffffffffffffffffffffffffffffffff168152602001915050600060405180830381600087803b1580156200025b57600080fd5b505af115801562000270573d6000803e3d6000fd5b50505050600760009054906101000a900473ffffffffffffffffffffffffffffffffffffffff1673ffffffffffffffffffffffffffffffffffffffff1663fc0c546a6040518163ffffffff1660e01b815260040160206040518083038186803b158015620002dd57600080fd5b505afa158015620002f2573d6000803e3d6000fd5b505050506040513d60208110156200030957600080fd5b8101908080519060200190929190505050600860006101000a81548173ffffffffffffffffffffffffffffffffffffffff021916908373ffffffffffffffffffffffffffffffffffffffff16021790555050505080601081905550505050506200073d565b6001600062000383836200044d60201b60201c565b815260200190815260200160002054600014156200040a576000819080600181540180825580915050906001820390600052602060002001600090919290919091509080519060200190620003da9291906200068e565b505060008054905060016000620003f7846200044d60201b60201c565b8152602001908152602001600020819055505b50565b62000449816002600062000427866200044d60201b60201c565b8152602001908152602001600020620004ca60201b62004c111790919060201c565b5050565b6000816040516020018082805190602001908083835b6020831062000488578051825260208201915060208101905060208303925062000463565b6001836020036101000a038019825116818451168082178552505050505050905001915050604051602081830303815290604052805190602001209050919050565b620004dc8282620005ae60201b60201c565b1562000550576040517f08c379a000000000000000000000000000000000000000000000000000000000815260040180806020018281038252601f8152602001807f526f6c65733a206163636f756e7420616c72656164792068617320726f6c650081525060200191505060405180910390fd5b60018260000160008373ffffffffffffffffffffffffffffffffffffffff1673ffffffffffffffffffffffffffffffffffffffff16815260200190815260200160002060006101000a81548160ff0219169083151502179055505050565b60008073ffffffffffffffffffffffffffffffffffffffff168273ffffffffffffffffffffffffffffffffffffffff16141562000637576040517f08c379a0000000000000000000000000000000000000000000000000000000008152600401808060200182810382526022815260200180620058336022913960400191505060405180910390fd5b8260000160008373ffffffffffffffffffffffffffffffffffffffff1673ffffffffffffffffffffffffffffffffffffffff16815260200190815260200160002060009054906101000a900460ff16905092915050565b828054600181600116156101000203166002900490600052602060002090601f016020900481019282601f10620006d157805160ff191683800117855562000702565b8280016001018555821562000702579182015b8281111562000701578251825591602001919060010190620006e4565b5b50905062000711919062000715565b5090565b6200073a91905b80821115620007365760008160009055506001016200071c565b5090565b90565b6150e6806200074d6000396000f3fe608060405234801561001057600080fd5b50600436106102955760003560e01c8063960873da11610167578063d0e22f09116100ce578063f3fef3a311610087578063f3fef3a314611267578063f556e70a146112b5578063fb535fd614611325578063fbf098ed14611418578063fc0c546a14611466578063fc8d6317146114b057610295565b8063d0e22f0914610fcd578063d5bdee6d14611033578063e299838114611077578063e58378bb14611132578063e86c1d36146111b5578063ebb2666f1461121957610295565b8063b8724c5911610120578063b8724c5914610daf578063bfda4a4914610e6a578063c06c66ca14610f11578063c587f53c14610f5b578063cf7f3da414610f65578063d00e768b14610faf57610295565b8063960873da14610bc7578063a1f6c95914610c0b578063aa8c217c14610c8e578063b330df7314610cac578063b726be7f14610d2f578063b8517dd814610d9157610295565b80634da195be1161020b57806362a5af3b116101c457806362a5af3b14610a0e57806370551d4d14610a185780637bd190b714610a5c5780637ca41f2614610aa05780637dc0d1d014610b735780638129fc1c14610bbd57610295565b80634da195be146106c1578063513554e71461079c57806353a538aa146107be578063570ca735146108165780635b0f833a146108605780635b5268111461093b57610295565b8063158ef93e1161025d578063158ef93e146104d8578063170ec9fb146104fa578063271f88b4146105525780633e96e868146105805780634a0d30961461063b5780634a0f2f7a1461066757610295565b8063054f7d9c1461029a57806306bcbd00146102bc57806306d05aef1461034f5780630f6c37de1461039f57806312e810f214610472575b600080fd5b6102a2611543565b604051808215151515815260200191505060405180910390f35b6102e8600480360360208110156102d257600080fd5b8101908080359060200190929190505050611556565b604051808b60028111156102f857fe5b60ff1681526020018a8152602001898152602001888152602001878152602001868152602001851515151581526020018481526020018381526020018281526020019a505050505050505050505060405180910390f35b61037b6004803603602081101561036557600080fd5b81019080803590602001909291905050506116c8565b60405180848152602001838152602001828152602001935050505060405180910390f35b610458600480360360208110156103b557600080fd5b81019080803590602001906401000000008111156103d257600080fd5b8201836020820111156103e457600080fd5b8035906020019184600183028401116401000000008311171561040657600080fd5b91908080601f016020809104026020016040519081016040528093929190818152602001838380828437600081840152601f19601f820116905080830192505050505050509192919290505050611740565b604051808215151515815260200191505060405180910390f35b6104b46004803603602081101561048857600080fd5b81019080803573ffffffffffffffffffffffffffffffffffffffff169060200190929190505050611769565b60405180848152602001838152602001828152602001935050505060405180910390f35b6104e0611839565b604051808215151515815260200191505060405180910390f35b6105506004803603606081101561051057600080fd5b81019080803573ffffffffffffffffffffffffffffffffffffffff169060200190929190803590602001909291908035906020019092919050505061184c565b005b61057e6004803603602081101561056857600080fd5b8101908080359060200190929190505050611986565b005b6106396004803603602081101561059657600080fd5b81019080803590602001906401000000008111156105b357600080fd5b8201836020820111156105c557600080fd5b803590602001918460018302840111640100000000831117156105e757600080fd5b91908080601f016020809104026020016040519081016040528093929190818152602001838380828437600081840152601f19601f820116905080830192505050505050509192919290505050611ae2565b005b610643611c20565b6040518082600281111561065357fe5b60ff16815260200191505060405180910390f35b6106bf6004803603606081101561067d57600080fd5b81019080803573ffffffffffffffffffffffffffffffffffffffff16906020019092919080351515906020019092919080359060200190929190505050611c33565b005b61079a600480360360408110156106d757600080fd5b81019080803590602001906401000000008111156106f457600080fd5b82018360208201111561070657600080fd5b8035906020019184600183028401116401000000008311171561072857600080fd5b91908080601f016020809104026020016040519081016040528093929190818152602001838380828437600081840152601f19601f820116905080830192505050505050509192919290803573ffffffffffffffffffffffffffffffffffffffff169060200190929190505050611f3e565b005b6107a4612095565b604051808215151515815260200191505060405180910390f35b610800600480360360208110156107d457600080fd5b81019080803573ffffffffffffffffffffffffffffffffffffffff16906020019092919050505061210a565b6040518082815260200191505060405180910390f35b61081e612122565b604051808273ffffffffffffffffffffffffffffffffffffffff1673ffffffffffffffffffffffffffffffffffffffff16815260200191505060405180910390f35b6109396004803603604081101561087657600080fd5b810190808035906020019064010000000081111561089357600080fd5b8201836020820111156108a557600080fd5b803590602001918460018302840111640100000000831117156108c757600080fd5b91908080601f016020809104026020016040519081016040528093929190818152602001838380828437600081840152601f19601f820116905080830192505050505050509192919290803573ffffffffffffffffffffffffffffffffffffffff169060200190929190505050612148565b005b6109f46004803603602081101561095157600080fd5b810190808035906020019064010000000081111561096e57600080fd5b82018360208201111561098057600080fd5b803590602001918460018302840111640100000000831117156109a257600080fd5b91908080601f016020809104026020016040519081016040528093929190818152602001838380828437600081840152601f19601f8201169050808301925050505050505091929192905050506122c2565b604051808215151515815260200191505060405180910390f35b610a16612342565b005b610a4660048036036020811015610a2e57600080fd5b81019080803515159060200190929190505050612421565b6040518082815260200191505060405180910390f35b610a9e60048036036020811015610a7257600080fd5b81019080803573ffffffffffffffffffffffffffffffffffffffff1690602001909291905050506124aa565b005b610b5960048036036020811015610ab657600080fd5b8101908080359060200190640100000000811115610ad357600080fd5b820183602082011115610ae557600080fd5b80359060200191846001830284011164010000000083111715610b0757600080fd5b91908080601f016020809104026020016040519081016040528093929190818152602001838380828437600081840152601f19601f82011690508083019250505050505050919291929050505061273c565b604051808215151515815260200191505060405180910390f35b610b7b6127bd565b604051808273ffffffffffffffffffffffffffffffffffffffff1673ffffffffffffffffffffffffffffffffffffffff16815260200191505060405180910390f35b610bc56127e3565b005b610c0960048036036020811015610bdd57600080fd5b81019080803573ffffffffffffffffffffffffffffffffffffffff1690602001909291905050506129e6565b005b610c13612b25565b6040518080602001828103825283818151815260200191508051906020019080838360005b83811015610c53578082015181840152602081019050610c38565b50505050905090810190601f168015610c805780820380516001836020036101000a031916815260200191505b509250505060405180910390f35b610c96612b5e565b6040518082815260200191505060405180910390f35b610cb4612b64565b6040518080602001828103825283818151815260200191508051906020019080838360005b83811015610cf4578082015181840152602081019050610cd9565b50505050905090810190601f168015610d215780820380516001836020036101000a031916815260200191505b509250505060405180910390f35b610d7b60048036036040811015610d4557600080fd5b8101908080359060200190929190803573ffffffffffffffffffffffffffffffffffffffff169060200190929190505050612b9d565b6040518082815260200191505060405180910390f35b610d99612d92565b6040518082815260200191505060405180910390f35b610e6860048036036020811015610dc557600080fd5b8101908080359060200190640100000000811115610de257600080fd5b820183602082011115610df457600080fd5b80359060200191846001830284011164010000000083111715610e1657600080fd5b91908080601f016020809104026020016040519081016040528093929190818152602001838380828437600081840152601f19601f820116905080830192505050505050509192919290505050612d9e565b005b610e9660048036036020811015610e8057600080fd5b8101908080359060200190929190505050612e50565b6040518080602001828103825283818151815260200191508051906020019080838360005b83811015610ed6578082015181840152602081019050610ebb565b50505050905090810190601f168015610f035780820380516001836020036101000a031916815260200191505b509250505060405180910390f35b610f19612f09565b604051808273ffffffffffffffffffffffffffffffffffffffff1673ffffffffffffffffffffffffffffffffffffffff16815260200191505060405180910390f35b610f63612f2f565b005b610f6d6130e4565b604051808273ffffffffffffffffffffffffffffffffffffffff1673ffffffffffffffffffffffffffffffffffffffff16815260200191505060405180910390f35b610fb761310a565b6040518082815260200191505060405180910390f35b61101960048036036040811015610fe357600080fd5b81019080803573ffffffffffffffffffffffffffffffffffffffff16906020019092919080359060200190929190505050613110565b604051808215151515815260200191505060405180910390f35b6110756004803603602081101561104957600080fd5b81019080803573ffffffffffffffffffffffffffffffffffffffff16906020019092919050505061313f565b005b6111306004803603602081101561108d57600080fd5b81019080803590602001906401000000008111156110aa57600080fd5b8201836020820111156110bc57600080fd5b803590602001918460018302840111640100000000831117156110de57600080fd5b91908080601f016020809104026020016040519081016040528093929190818152602001838380828437600081840152601f19601f82011690508083019250505050505050919291929050505061339d565b005b61113a61344f565b6040518080602001828103825283818151815260200191508051906020019080838360005b8381101561117a57808201518184015260208101905061115f565b50505050905090810190601f1680156111a75780820380516001836020036101000a031916815260200191505b509250505060405180910390f35b611203600480360360408110156111cb57600080fd5b81019080803573ffffffffffffffffffffffffffffffffffffffff169060200190929190803515159060200190929190505050613488565b6040518082815260200191505060405180910390f35b6112656004803603604081101561122f57600080fd5b81019080803573ffffffffffffffffffffffffffffffffffffffff169060200190929190803590602001909291905050506134ad565b005b6112b36004803603604081101561127d57600080fd5b81019080803573ffffffffffffffffffffffffffffffffffffffff169060200190929190803590602001909291905050506135af565b005b611301600480360360408110156112cb57600080fd5b8101908080359060200190929190803573ffffffffffffffffffffffffffffffffffffffff1690602001909291905050506136b1565b60405180848152602001838152602001828152602001935050505060405180910390f35b6113fe6004803603604081101561133b57600080fd5b810190808035906020019064010000000081111561135857600080fd5b82018360208201111561136a57600080fd5b8035906020019184600183028401116401000000008311171561138c57600080fd5b91908080601f016020809104026020016040519081016040528093929190818152602001838380828437600081840152601f19601f820116905080830192505050505050509192919290803573ffffffffffffffffffffffffffffffffffffffff1690602001909291905050506137a9565b604051808215151515815260200191505060405180910390f35b6114506004803603604081101561142e57600080fd5b81019080803590602001909291908035151590602001909291905050506137e0565b6040518082815260200191505060405180910390f35b61146e613805565b604051808273ffffffffffffffffffffffffffffffffffffffff1673ffffffffffffffffffffffffffffffffffffffff16815260200191505060405180910390f35b6114dc600480360360208110156114c657600080fd5b810190808035906020019092919050505061382b565b604051808960028111156114ec57fe5b60ff16815260200188600281111561150057fe5b60ff168152602001878152602001868152602001858152602001841515151581526020018381526020018281526020019850505050505050505060405180910390f35b600860159054906101000a900460ff1681565b600080600080600080600080600080600a60008c815260200190815260200160002060000160009054906101000a900460ff169950600a60008c815260200190815260200160002060020160006001151515158152602001908152602001600020549850600a60008c8152602001908152602001600020600201600080151515158152602001908152602001600020549750600a60008c8152602001908152602001600020600101549650600a60008c8152602001908152602001600020600601549550600a60008c8152602001908152602001600020600701549450600a60008c815260200190815260200160002060080160009054906101000a900460ff169350600a60008c8152602001908152602001600020600901549250600a60008c8152602001908152602001600020600a015491506116b98360008511801561169f5750600084145b6116a957836116ab565b435b61389a90919063ffffffff16565b90509193959799509193959799565b6000806000600c600085815260200190815260200160002060006001151515158152602001908152602001600020549250600c6000858152602001908152602001600020600080151515158152602001908152602001600020549150611737828461392390919063ffffffff16565b90509193909250565b60006001600061174f846139ab565b815260200190815260200160002054600014159050919050565b6000806000600b60008573ffffffffffffffffffffffffffffffffffffffff1673ffffffffffffffffffffffffffffffffffffffff16815260200190815260200160002060006001151515158152602001908152602001600020549250600b60008573ffffffffffffffffffffffffffffffffffffffff1673ffffffffffffffffffffffffffffffffffffffff168152602001908152602001600020600080151515158152602001908152602001600020549150611830828461392390919063ffffffff16565b90509193909250565b600860149054906101000a900460ff1681565b600460009054906101000a900473ffffffffffffffffffffffffffffffffffffffff1673ffffffffffffffffffffffffffffffffffffffff163373ffffffffffffffffffffffffffffffffffffffff16146118f2576040517f08c379a000000000000000000000000000000000000000000000000000000000815260040180806020018281038252602e815260200180614f44602e913960400191505060405180910390fd5b600080905060008390505b82811161192f576119206119118683613a26565b8361392390919063ffffffff16565b915080806001019150506118fd565b5081838573ffffffffffffffffffffffffffffffffffffffff167fc1199d92491cca50fe2a0c945991862e1ea7ed9da838db6eedd4e19580f6ec45846040518082815260200191505060405180910390a450505050565b6040518060400160405280600581526020017f4f574e45520000000000000000000000000000000000000000000000000000008152506119c681336137a9565b611a1b576040517f08c379a000000000000000000000000000000000000000000000000000000000815260040180806020018281038252602a815260200180614ef9602a913960400191505060405180910390fd5b600860159054906101000a900460ff1615611a9e576040517f08c379a000000000000000000000000000000000000000000000000000000000815260040180806020018281038252601b8152602001807f5265736f6c7574696f6e456e67696e653a2069732066726f7a656e000000000081525060200191505060405180910390fd5b816010819055507f6c8adb022c106c792c550914ac8be8f8d144eee3bd015477c123481b90e05ce06010546040518082815260200191505060405180910390a15050565b6040518060400160405280600581526020017f4f574e4552000000000000000000000000000000000000000000000000000000815250611b2281336137a9565b611b77576040517f08c379a000000000000000000000000000000000000000000000000000000000815260040180806020018281038252602a815260200180614ef9602a913960400191505060405180910390fd5b611b8082613b69565b7f22f30a094e2ed10e9a92ebac7a70b8e2ae3288d9b594db22587861bc8fef4eef826040518080602001828103825283818151815260200191508051906020019080838360005b83811015611be2578082015181840152602081019050611bc7565b50505050905090810190601f168015611c0f5780820380516001836020036101000a031916815260200191505b509250505060405180910390a15050565b600d60009054906101000a900460ff1681565b600460009054906101000a900473ffffffffffffffffffffffffffffffffffffffff1673ffffffffffffffffffffffffffffffffffffffff163373ffffffffffffffffffffffffffffffffffffffff1614611cd9576040517f08c379a000000000000000000000000000000000000000000000000000000000815260040180806020018281038252602e815260200180614f44602e913960400191505060405180910390fd5b6040518060400160405280600581526020017f5354414b45000000000000000000000000000000000000000000000000000000815250611d188161273c565b611d8a576040517f08c379a00000000000000000000000000000000000000000000000000000000081526004018080602001828103825260168152602001807f41626c653a206e616d652069732064697361626c65640000000000000000000081525060200191505060405180910390fd5b611df182600b60008773ffffffffffffffffffffffffffffffffffffffff1673ffffffffffffffffffffffffffffffffffffffff1681526020019081526020016000206000861515151581526020019081526020016000205461392390919063ffffffff16565b600b60008673ffffffffffffffffffffffffffffffffffffffff1673ffffffffffffffffffffffffffffffffffffffff16815260200190815260200160002060008515151515815260200190815260200160002081905550611e8482600c60004381526020019081526020016000206000861515151581526020019081526020016000205461392390919063ffffffff16565b600c600043815260200190815260200160002060008515151515815260200190815260200160002081905550611edb848484600a60006009548152602001908152602001600020613bf5909392919063ffffffff16565b6009548473ffffffffffffffffffffffffffffffffffffffff167fb090af6b9902ba8a7bc46486cd082be61763b3decc7be5ab48dc26422860230c858560405180831515151581526020018281526020019250505060405180910390a350505050565b6040518060400160405280600581526020017f4f574e4552000000000000000000000000000000000000000000000000000000815250611f7e81336137a9565b611fd3576040517f08c379a000000000000000000000000000000000000000000000000000000000815260040180806020018281038252602a815260200180614ef9602a913960400191505060405180910390fd5b611fdd8383613e5f565b8173ffffffffffffffffffffffffffffffffffffffff167fafe42c64e42361a5193c84f3f11b6803e41dd901d473ee6faa72f43f8ab1f468846040518080602001828103825283818151815260200191508051906020019080838360005b8381101561205657808201518184015260208101905061203b565b50505050905090810190601f1680156120835780820380516001836020036101000a031916815260200191505b509250505060405180910390a2505050565b6000601054600a6000600954815260200190815260200160002060020160006001151515158152602001908152602001600020541015806121055750601054600a600060095481526020019081526020016000206002016000801515151581526020019081526020016000205410155b905090565b600f6020528060005260406000206000915090505481565b600560009054906101000a900473ffffffffffffffffffffffffffffffffffffffff1681565b6040518060400160405280600581526020017f4f574e455200000000000000000000000000000000000000000000000000000081525061218881336137a9565b6121dd576040517f08c379a000000000000000000000000000000000000000000000000000000000815260040180806020018281038252602a815260200180614ef9602a913960400191505060405180910390fd5b61220a82600260006121ee876139ab565b8152602001908152602001600020613e9090919063ffffffff16565b8173ffffffffffffffffffffffffffffffffffffffff167f3e3ea7a1060be276a52e916803e2f89e3478e263893fc3c0b4d5793dd6d5f032846040518080602001828103825283818151815260200191508051906020019080838360005b83811015612283578082015181840152602081019050612268565b50505050905090810190601f1680156122b05780820380516001836020036101000a031916815260200191505b509250505060405180910390a2505050565b60006003826040518082805190602001908083835b602083106122fa57805182526020820191506020810190506020830392506122d7565b6001836020036101000a038019825116818451168082178552505050505050905001915050908152602001604051809103902060009054906101000a900460ff169050919050565b6040518060400160405280600581526020017f4f574e455200000000000000000000000000000000000000000000000000000081525061238281336137a9565b6123d7576040517f08c379a000000000000000000000000000000000000000000000000000000000815260040180806020018281038252602a815260200180614ef9602a913960400191505060405180910390fd5b6001600860156101000a81548160ff0219169083151502179055507fa8cab3d1893ed53071b052fafa843143492f25d1d6b0170d460789f7ab1954be60405160405180910390a150565b6000600a6000600954815260200190815260200160002060020160008315151515815260200190815260200160002054601054116124605760006124a3565b6124a2600a600060095481526020019081526020016000206002016000841515151581526020019081526020016000205460105461389a90919063ffffffff16565b5b9050919050565b600460009054906101000a900473ffffffffffffffffffffffffffffffffffffffff1673ffffffffffffffffffffffffffffffffffffffff163373ffffffffffffffffffffffffffffffffffffffff1614612550576040517f08c379a000000000000000000000000000000000000000000000000000000000815260040180806020018281038252602e815260200180614f44602e913960400191505060405180910390fd5b6040518060400160405280600781526020017f5245534f4c56450000000000000000000000000000000000000000000000000081525061258f816122c2565b612601576040517f08c379a00000000000000000000000000000000000000000000000000000000081526004018080602001828103825260158152602001807f41626c653a206e616d6520697320656e61626c6564000000000000000000000081525060200191505060405180910390fd5b6000600a60006009548152602001908152602001600020905060006126dc8260030160008673ffffffffffffffffffffffffffffffffffffffff1673ffffffffffffffffffffffffffffffffffffffff168152602001908152602001600020600080151515158152602001908152602001600020548360030160008773ffffffffffffffffffffffffffffffffffffffff1673ffffffffffffffffffffffffffffffffffffffff168152602001908152602001600020600060011515151581526020019081526020016000205461392390919063ffffffff16565b90506126e88482613f4d565b8373ffffffffffffffffffffffffffffffffffffffff167f46c86b7ebca513b3ec213b4738e43070434543c30ac031708ba3851ac8cb4121826040518082815260200191505060405180910390a250505050565b60006003826040518082805190602001908083835b602083106127745780518252602082019150602081019050602083039250612751565b6001836020036101000a038019825116818451168082178552505050505050905001915050908152602001604051809103902060009054906101000a900460ff16159050919050565b600460009054906101000a900473ffffffffffffffffffffffffffffffffffffffff1681565b6040518060400160405280600581526020017f4f574e455200000000000000000000000000000000000000000000000000000081525061282381336137a9565b612878576040517f08c379a000000000000000000000000000000000000000000000000000000000815260040180806020018281038252602a815260200180614ef9602a913960400191505060405180910390fd5b600860149054906101000a900460ff16156128de576040517f08c379a0000000000000000000000000000000000000000000000000000000008152600401808060200182810382526025815260200180614feb6025913960400191505060405180910390fd5b600660009054906101000a900473ffffffffffffffffffffffffffffffffffffffff1673ffffffffffffffffffffffffffffffffffffffff16600073ffffffffffffffffffffffffffffffffffffffff161415612986576040517f08c379a000000000000000000000000000000000000000000000000000000000815260040180806020018281038252602a815260200180615088602a913960400191505060405180910390fd5b6001600860146101000a81548160ff02191690831515021790555060006129ab613fe6565b90506129b68161412a565b7f5daa87a0e9463431830481fd4b6e3403442dfb9a12b9c07597e9f61d50b633c860405160405180910390a15050565b6040518060400160405280600581526020017f4f574e4552000000000000000000000000000000000000000000000000000000815250612a2681336137a9565b612a7b576040517f08c379a000000000000000000000000000000000000000000000000000000000815260040180806020018281038252602a815260200180614ef9602a913960400191505060405180910390fd5b81600660006101000a81548173ffffffffffffffffffffffffffffffffffffffff021916908373ffffffffffffffffffffffffffffffffffffffff160217905550600660009054906101000a900473ffffffffffffffffffffffffffffffffffffffff1673ffffffffffffffffffffffffffffffffffffffff167f788e1a4c2faf407e4a26256b2cc5e39ac3883f819087249fc5c54102d5a1afda60405160405180910390a25050565b6040518060400160405280600781526020017f5245534f4c56450000000000000000000000000000000000000000000000000081525081565b60105481565b6040518060400160405280600581526020017f5354414b4500000000000000000000000000000000000000000000000000000081525081565b6000600a600084815260200190815260200160002060000160019054906101000a900460ff166002811115612bce57fe5b60006002811115612bdb57fe5b1415612bea5760009050612d8c565b600060016002811115612bf957fe5b600a600086815260200190815260200160002060000160019054906101000a900460ff166002811115612c2857fe5b1490506000600a600086815260200190815260200160002060020160008315151515158152602001908152602001600020549050600a600086815260200190815260200160002060080160009054906101000a900460ff1615612cb157612cae600a6000878152602001908152602001600020600701548261392390919063ffffffff16565b90505b6000600a600087815260200190815260200160002060030160008673ffffffffffffffffffffffffffffffffffffffff1673ffffffffffffffffffffffffffffffffffffffff1681526020019081526020016000206000841515151581526020019081526020016000205490506000600a6000888152602001908152602001600020600201600085151515158152602001908152602001600020549050612d8582612d7783612d69868861424690919063ffffffff16565b6142cc90919063ffffffff16565b61392390919063ffffffff16565b9450505050505b92915050565b60008080549050905090565b600560009054906101000a900473ffffffffffffffffffffffffffffffffffffffff1673ffffffffffffffffffffffffffffffffffffffff163373ffffffffffffffffffffffffffffffffffffffff1614612e44576040517f08c379a0000000000000000000000000000000000000000000000000000000008152600401808060200182810382526030815260200180614ec96030913960400191505060405180910390fd5b612e4d8161435b565b50565b60008181548110612e5d57fe5b906000526020600020016000915090508054600181600116156101000203166002900480601f016020809104026020016040519081016040528092919081815260200182805460018160011615610100020316600290048015612f015780601f10612ed657610100808354040283529160200191612f01565b820191906000526020600020905b815481529060010190602001808311612ee457829003601f168201915b505050505081565b600760009054906101000a900473ffffffffffffffffffffffffffffffffffffffff1681565b600460009054906101000a900473ffffffffffffffffffffffffffffffffffffffff1673ffffffffffffffffffffffffffffffffffffffff163373ffffffffffffffffffffffffffffffffffffffff1614612fd5576040517f08c379a000000000000000000000000000000000000000000000000000000000815260040180806020018281038252602e815260200180614f44602e913960400191505060405180910390fd5b6040518060400160405280600781526020017f5245534f4c5645000000000000000000000000000000000000000000000000008152506130148161273c565b613086576040517f08c379a00000000000000000000000000000000000000000000000000000000081526004018080602001828103825260168152602001807f41626c653a206e616d652069732064697361626c65640000000000000000000081525060200191505060405180910390fd5b61308e612095565b156130e15761309b614565565b6009547f148a25ee2a7671350ab878ff183447de8ae5afa2ee0ae7d5ee1ad6b25c4868c260405160405180910390a260006130d4613fe6565b90506130df8161412a565b505b50565b600660009054906101000a900473ffffffffffffffffffffffffffffffffffffffff1681565b60095481565b600e6020528160005260406000206020528060005260406000206000915091509054906101000a900460ff1681565b6040518060400160405280600581526020017f4f574e455200000000000000000000000000000000000000000000000000000081525061317f81336137a9565b6131d4576040517f08c379a000000000000000000000000000000000000000000000000000000000815260040180806020018281038252602a815260200180614ef9602a913960400191505060405180910390fd5b6040518060400160405280600781526020017f5245534f4c564500000000000000000000000000000000000000000000000000815250613213816122c2565b613285576040517f08c379a00000000000000000000000000000000000000000000000000000000081526004018080602001828103825260158152602001807f41626c653a206e616d6520697320656e61626c6564000000000000000000000081525060200191505060405180910390fd5b6132ef600a6000600954815260200190815260200160002060070154600f60008673ffffffffffffffffffffffffffffffffffffffff1673ffffffffffffffffffffffffffffffffffffffff1681526020019081526020016000205461392390919063ffffffff16565b600f60008573ffffffffffffffffffffffffffffffffffffffff1673ffffffffffffffffffffffffffffffffffffffff168152602001908152602001600020819055508273ffffffffffffffffffffffffffffffffffffffff167f0f49497f1a94a8def9ec5c99c6cb026964d545cbc6e742501cd1b2b07d1ba99f600a60006009548152602001908152602001600020600701546040518082815260200191505060405180910390a2505050565b600560009054906101000a900473ffffffffffffffffffffffffffffffffffffffff1673ffffffffffffffffffffffffffffffffffffffff163373ffffffffffffffffffffffffffffffffffffffff1614613443576040517f08c379a0000000000000000000000000000000000000000000000000000000008152600401808060200182810382526030815260200180614ec96030913960400191505060405180910390fd5b61344c81614712565b50565b6040518060400160405280600581526020017f4f574e455200000000000000000000000000000000000000000000000000000081525081565b600b602052816000526040600020602052806000526040600020600091509150505481565b600460009054906101000a900473ffffffffffffffffffffffffffffffffffffffff1673ffffffffffffffffffffffffffffffffffffffff163373ffffffffffffffffffffffffffffffffffffffff1614613553576040517f08c379a000000000000000000000000000000000000000000000000000000000815260040180806020018281038252602e815260200180614f44602e913960400191505060405180910390fd5b61355d8282613f4d565b8173ffffffffffffffffffffffffffffffffffffffff167f02688c924ef99d72adc11835fa071707c184455730eb94dc633e9870e1c3bcee826040518082815260200191505060405180910390a25050565b600460009054906101000a900473ffffffffffffffffffffffffffffffffffffffff1673ffffffffffffffffffffffffffffffffffffffff163373ffffffffffffffffffffffffffffffffffffffff1614613655576040517f08c379a000000000000000000000000000000000000000000000000000000000815260040180806020018281038252602e815260200180614f44602e913960400191505060405180910390fd5b61365f828261491d565b8173ffffffffffffffffffffffffffffffffffffffff167f7084f5476618d8e60b11ef0d7d3f06914655adb8793e28ff7f018d4c76d505d5826040518082815260200191505060405180910390a25050565b6000806000600a600086815260200190815260200160002060030160008573ffffffffffffffffffffffffffffffffffffffff1673ffffffffffffffffffffffffffffffffffffffff16815260200190815260200160002060006001151515158152602001908152602001600020549250600a600086815260200190815260200160002060030160008573ffffffffffffffffffffffffffffffffffffffff1673ffffffffffffffffffffffffffffffffffffffff1681526020019081526020016000206000801515151581526020019081526020016000205491506137a0828461392390919063ffffffff16565b90509250925092565b60006137d882600260006137bc876139ab565b8152602001908152602001600020614b3390919063ffffffff16565b905092915050565b600c602052816000526040600020602052806000526040600020600091509150505481565b600860009054906101000a900473ffffffffffffffffffffffffffffffffffffffff1681565b600a6020528060005260406000206000915090508060000160009054906101000a900460ff16908060000160019054906101000a900460ff16908060010154908060060154908060070154908060080160009054906101000a900460ff169080600901549080600a0154905088565b600082821115613912576040517f08c379a000000000000000000000000000000000000000000000000000000000815260040180806020018281038252601e8152602001807f536166654d6174683a207375627472616374696f6e206f766572666c6f77000081525060200191505060405180910390fd5b600082840390508091505092915050565b6000808284019050838110156139a1576040517f08c379a000000000000000000000000000000000000000000000000000000000815260040180806020018281038252601b8152602001807f536166654d6174683a206164646974696f6e206f766572666c6f77000000000081525060200191505060405180910390fd5b8091505092915050565b6000816040516020018082805190602001908083835b602083106139e457805182526020820191506020810190506020830392506139c1565b6001836020036101000a038019825116818451168082178552505050505050905001915050604051602081830303815290604052805190602001209050919050565b6000600a600083815260200190815260200160002060000160009054906101000a900460ff166002811115613a5757fe5b600280811115613a6357fe5b14613a715760009050613b63565b600e60008473ffffffffffffffffffffffffffffffffffffffff1673ffffffffffffffffffffffffffffffffffffffff168152602001908152602001600020600083815260200190815260200160002060009054906101000a900460ff1615613add5760009050613b63565b6000613ae98385612b9d565b90506001600e60008673ffffffffffffffffffffffffffffffffffffffff1673ffffffffffffffffffffffffffffffffffffffff168152602001908152602001600020600085815260200190815260200160002060006101000a81548160ff021916908315150217905550613b5e8482613f4d565b809150505b92915050565b60016000613b76836139ab565b81526020019081526020016000205460001415613bf2576000819080600181540180825580915050906001820390600052602060002001600090919290919091509080519060200190613bca929190614e23565b505060008054905060016000613bdf846139ab565b8152602001908152602001600020819055505b50565b613c0c81856001015461392390919063ffffffff16565b8460010181905550613c4081856002016000851515151581526020019081526020016000205461392390919063ffffffff16565b8460020160008415151515815260200190815260200160002081905550613cc6818560030160008673ffffffffffffffffffffffffffffffffffffffff1673ffffffffffffffffffffffffffffffffffffffff1681526020019081526020016000206000851515151581526020019081526020016000205461392390919063ffffffff16565b8460030160008573ffffffffffffffffffffffffffffffffffffffff1673ffffffffffffffffffffffffffffffffffffffff16815260200190815260200160002060008415151515815260200190815260200160002081905550613d5d818560040160004381526020019081526020016000206000851515151581526020019081526020016000205461392390919063ffffffff16565b846004016000438152602001908152602001600020600084151515158152602001908152602001600020819055508360050160008473ffffffffffffffffffffffffffffffffffffffff1673ffffffffffffffffffffffffffffffffffffffff16815260200190815260200160002060009054906101000a900460ff16613e595760018460050160008573ffffffffffffffffffffffffffffffffffffffff1673ffffffffffffffffffffffffffffffffffffffff16815260200190815260200160002060006101000a81548160ff021916908315150217905550613e506001856006015461392390919063ffffffff16565b84600601819055505b50505050565b613e8c8160026000613e70866139ab565b8152602001908152602001600020614c1190919063ffffffff16565b5050565b613e9a8282614b33565b613eef576040517f08c379a0000000000000000000000000000000000000000000000000000000008152600401808060200182810382526021815260200180614f236021913960400191505060405180910390fd5b60008260000160008373ffffffffffffffffffffffffffffffffffffffff1673ffffffffffffffffffffffffffffffffffffffff16815260200190815260200160002060006101000a81548160ff0219169083151502179055505050565b613f9f81600f60008573ffffffffffffffffffffffffffffffffffffffff1673ffffffffffffffffffffffffffffffffffffffff1681526020019081526020016000205461392390919063ffffffff16565b600f60008473ffffffffffffffffffffffffffffffffffffffff1673ffffffffffffffffffffffffffffffffffffffff168152602001908152602001600020819055505050565b600080600760009054906101000a900473ffffffffffffffffffffffffffffffffffffffff1673ffffffffffffffffffffffffffffffffffffffff1663cabfd1bf600660009054906101000a900473ffffffffffffffffffffffffffffffffffffffff166040518263ffffffff1660e01b8152600401808273ffffffffffffffffffffffffffffffffffffffff1673ffffffffffffffffffffffffffffffffffffffff168152602001915050602060405180830381600087803b1580156140ac57600080fd5b505af11580156140c0573d6000803e3d6000fd5b505050506040513d60208110156140d657600080fd5b810190808051906020019092919050505090506009547f19f48f5ad18ce87f3ee918db6f8ece6244ca05188a3f986cbaad4ef1241a5dbd826040518082815260200191505060405180910390a28091505090565b6000600281111561413757fe5b600a6000614151600160095461392390919063ffffffff16565b815260200190815260200160002060000160009054906101000a900460ff16600281111561417b57fe5b146141d1576040517f08c379a000000000000000000000000000000000000000000000000000000000815260040180806020018281038252603d815260200180615010603d913960400191505060405180910390fd5b6141e7600160095461392390919063ffffffff16565b60098190555061421481600a60006009548152602001908152602001600020614cec90919063ffffffff16565b6009547f9bdc29cef4fb1c7bae8fbfe617da2974521f5b773b27c8826ba71e9edbc23b8860405160405180910390a250565b60008083141561425957600090506142c6565b600082840290508284828161426a57fe5b04146142c1576040517f08c379a0000000000000000000000000000000000000000000000000000000008152600401808060200182810382526021815260200180614f726021913960400191505060405180910390fd5b809150505b92915050565b6000808211614343576040517f08c379a000000000000000000000000000000000000000000000000000000000815260040180806020018281038252601a8152602001807f536166654d6174683a206469766973696f6e206279207a65726f00000000000081525060200191505060405180910390fd5b600082848161434e57fe5b0490508091505092915050565b6003816040518082805190602001908083835b60208310614391578051825260208201915060208101905060208303925061436e565b6001836020036101000a038019825116818451168082178552505050505050905001915050908152602001604051809103902060009054906101000a900460ff16614444576040517f08c379a00000000000000000000000000000000000000000000000000000000081526004018080602001828103825260158152602001807f41626c653a206e616d6520697320656e61626c6564000000000000000000000081525060200191505060405180910390fd5b60006003826040518082805190602001908083835b6020831061447c5780518252602082019150602081019050602083039250614459565b6001836020036101000a038019825116818451168082178552505050505050905001915050908152602001604051809103902060006101000a81548160ff0219169083151502179055507fb5e827ca0218ec32f5872a8cdba7c9a069373f7ef4a2fb0c72ae0f25cf78f1c2816040518080602001828103825283818151815260200191508051906020019080838360005b8381101561452857808201518184015260208101905061450d565b50505050905090810190601f1680156145555780820380516001836020036101000a031916815260200191505b509250505060405180910390a150565b6001600281111561457257fe5b600a6000600954815260200190815260200160002060000160009054906101000a900460ff1660028111156145a357fe5b146145f9576040517f08c379a000000000000000000000000000000000000000000000000000000000815260040180806020018281038252603b81526020018061504d603b913960400191505060405180910390fd5b614616600a60006009548152602001908152602001600020614d28565b600d60009054906101000a900460ff16600281111561463157fe5b600a6000600954815260200190815260200160002060000160019054906101000a900460ff16600281111561466257fe5b146146e157600a6000600954815260200190815260200160002060000160019054906101000a900460ff16600d60006101000a81548160ff021916908360028111156146aa57fe5b02179055506001600a6000600954815260200190815260200160002060080160006101000a81548160ff0219169083151502179055505b6009547f9feea6fd2bc175ea5210b97c9f21684984af26aa9a2aa1049dad999cf094289d60405160405180910390a2565b6003816040518082805190602001908083835b602083106147485780518252602082019150602081019050602083039250614725565b6001836020036101000a038019825116818451168082178552505050505050905001915050908152602001604051809103902060009054906101000a900460ff16156147fc576040517f08c379a00000000000000000000000000000000000000000000000000000000081526004018080602001828103825260168152602001807f41626c653a206e616d652069732064697361626c65640000000000000000000081525060200191505060405180910390fd5b60016003826040518082805190602001908083835b602083106148345780518252602082019150602081019050602083039250614811565b6001836020036101000a038019825116818451168082178552505050505050905001915050908152602001604051809103902060006101000a81548160ff0219169083151502179055507f1429691d4b3ebbe1b946e4625c94bd72f57e8d9f73242f97d7c968072cb891b9816040518080602001828103825283818151815260200191508051906020019080838360005b838110156148e05780820151818401526020810190506148c5565b50505050905090810190601f16801561490d5780820380516001836020036101000a031916815260200191505b509250505060405180910390a150565b600f60008373ffffffffffffffffffffffffffffffffffffffff1673ffffffffffffffffffffffffffffffffffffffff168152602001908152602001600020548111156149b5576040517f08c379a0000000000000000000000000000000000000000000000000000000008152600401808060200182810382526036815260200180614fb56036913960400191505060405180910390fd5b614a0781600f60008573ffffffffffffffffffffffffffffffffffffffff1673ffffffffffffffffffffffffffffffffffffffff1681526020019081526020016000205461389a90919063ffffffff16565b600f60008473ffffffffffffffffffffffffffffffffffffffff1673ffffffffffffffffffffffffffffffffffffffff16815260200190815260200160002081905550600860009054906101000a900473ffffffffffffffffffffffffffffffffffffffff1673ffffffffffffffffffffffffffffffffffffffff1663a9059cbb83836040518363ffffffff1660e01b8152600401808373ffffffffffffffffffffffffffffffffffffffff1673ffffffffffffffffffffffffffffffffffffffff16815260200182815260200192505050602060405180830381600087803b158015614af357600080fd5b505af1158015614b07573d6000803e3d6000fd5b505050506040513d6020811015614b1d57600080fd5b8101908080519060200190929190505050505050565b60008073ffffffffffffffffffffffffffffffffffffffff168273ffffffffffffffffffffffffffffffffffffffff161415614bba576040517f08c379a0000000000000000000000000000000000000000000000000000000008152600401808060200182810382526022815260200180614f936022913960400191505060405180910390fd5b8260000160008373ffffffffffffffffffffffffffffffffffffffff1673ffffffffffffffffffffffffffffffffffffffff16815260200190815260200160002060009054906101000a900460ff16905092915050565b614c1b8282614b33565b15614c8e576040517f08c379a000000000000000000000000000000000000000000000000000000000815260040180806020018281038252601f8152602001807f526f6c65733a206163636f756e7420616c72656164792068617320726f6c650081525060200191505060405180910390fd5b60018260000160008373ffffffffffffffffffffffffffffffffffffffff1673ffffffffffffffffffffffffffffffffffffffff16815260200190815260200160002060006101000a81548160ff0219169083151502179055505050565b60018260000160006101000a81548160ff02191690836002811115614d0d57fe5b02179055508082600701819055504382600901819055505050565b60028160000160006101000a81548160ff02191690836002811115614d4957fe5b02179055504381600a018190555080600201600080151515158152602001908152602001600020548160020160006001151515158152602001908152602001600020541115614dbd5760018160000160016101000a81548160ff02191690836002811115614db357fe5b0217905550614e20565b80600201600080151515158152602001908152602001600020548160020160006001151515158152602001908152602001600020541015614e1f5760028160000160016101000a81548160ff02191690836002811115614e1957fe5b02179055505b5b50565b828054600181600116156101000203166002900490600052602060002090601f016020900481019282601f10614e6457805160ff1916838001178555614e92565b82800160010185558215614e92579182015b82811115614e91578251825591602001919060010190614e76565b5b509050614e9f9190614ea3565b5090565b614ec591905b80821115614ec1576000816000905550600101614ea9565b5090565b9056fe5265736f6c7574696f6e456e67696e653a2073656e646572206973206e6f742074686520736574206f70657261746f725242414365643a2073656e646572206973206e6f74206163636573736f72206f662074686520726f6c65526f6c65733a206163636f756e7420646f6573206e6f74206861766520726f6c655265736f6c7574696f6e456e67696e653a2073656e646572206973206e6f742074686520736574206f7261636c65536166654d6174683a206d756c7469706c69636174696f6e206f766572666c6f77526f6c65733a206163636f756e7420697320746865207a65726f20616464726573735265736f6c7574696f6e456e67696e653a20616d6f756e742069732067726561746572207468616e2073746167656420616d6f756e745265736f6c7574696f6e456e67696e653a20616c726561647920696e697469616c697a65645265736f6c7574696f6e456e67696e653a20766572696669636174696f6e207068617365206973206e6f7420696e20756e6f70656e65642073746174655265736f6c7574696f6e456e67696e653a20766572696669636174696f6e207068617365206973206e6f7420696e206f70656e65642073746174655265736f6c7574696f6e456e67696e653a206d697373696e6720626f756e747920616c6c6f6361746f72a265627a7a72315820a6ce6683e0d61dd0858fd4e1adf22f01b6b2c510f0b547e4b3184d55f3fc635f64736f6c634300050b0032526f6c65733a206163636f756e7420697320746865207a65726f2061646472657373",
  "source": "/*\n * Lottery oracle\n *\n * Copyright (C) 2017-2019 Hubii AS\n */\n\npragma solidity ^0.5.11;\n\nimport {Resolvable} from \"./Resolvable.sol\";\nimport {ResolutionEngine} from \"./ResolutionEngine.sol\";\n\n/// @title NaiveTotalResolutionEngine\n/// @author Jens Ivar Jrdre <jensivar@hubii.com>\n/// @notice A nave total resolution engine\n/// Resolve the staking market when:\n/// - The total number of tokens staked on either option reaches the defined amount criterion\ncontract NaiveTotalResolutionEngine is Resolvable, ResolutionEngine {\n\n    event AmountSet(uint256 amount);\n\n    uint256 public amount;\n\n    /// @notice `msg.sender` will be added as accessor to the owner role\n    /// @param _oracle The address of oracle\n    /// @param _operator The address of operator\n    /// @param _bountyFund The address of bounty fund\n    /// @param _amount The amount criterion of this resolution engine\n    constructor(address _oracle, address _operator, address _bountyFund,\n        uint256 _amount)\n    public\n    ResolutionEngine(_oracle, _operator, _bountyFund)\n    {\n        amount = _amount;\n    }\n\n    /// @notice Return the amount needed to resolve the current market for the given status\n    /// @param _status The concerned status\n    /// @return the amount needed to obtain to resolve the market\n    function resolutionDeltaAmount(bool _status)\n    public\n    view\n    returns (uint256)\n    {\n        return (\n        amount > verificationPhaseByPhaseNumber[verificationPhaseNumber].stakedAmountByStatus[_status] ?\n        amount.sub(\n            verificationPhaseByPhaseNumber[verificationPhaseNumber].stakedAmountByStatus[_status]\n        ) :\n        0\n        );\n    }\n\n    /// @notice Gauge whether the resolution criteria have been met\n    /// @return true if resolution criteria have been met, else false\n    function resolutionCriteriaMet()\n    public\n    view\n    returns (bool)\n    {\n        return verificationPhaseByPhaseNumber[verificationPhaseNumber].stakedAmountByStatus[true] >= amount ||\n        verificationPhaseByPhaseNumber[verificationPhaseNumber].stakedAmountByStatus[false] >= amount;\n    }\n\n\n    // TODO Remember freeze method in super and operator freeze and config setter\n    /// @notice Set the amount criterion\n    /// @dev Only enabled when the resolution engine is not frozen\n    /// @param _amount The concerned amount\n    function setAmount(uint256 _amount)\n    public\n    onlyRoleAccessor(OWNER_ROLE)\n    onlyNotFrozen\n    {\n        // Set the amount\n        amount = _amount;\n\n        // Emit event\n        emit AmountSet(amount);\n    }\n}\n",
  "sourcePath": "/opt/buildagent/work/9988d0feca52d9d9/contracts/NaiveTotalResolutionEngine.sol",
  "compiler": {
    "name": "solc",
    "version": "0.5.11+commit.c082d0b4.Emscripten.clang"
  },
  "schemaVersion": "3.0.16",
  "updatedAt": "2019-09-20T17:43:20.339Z",
  "devdoc": {
    "author": "Jens Ivar Jrdre <jensivar@hubii.com>",
    "methods": {
      "addRole(string)": {
        "params": {
          "_role": "The concerned role"
        }
      },
      "addRoleAccessor(string,address)": {
        "params": {
          "_address": "The concerned address",
          "_role": "The concerned role"
        }
      },
      "calculatePayout(uint256,address)": {
        "params": {
          "_verificationPhaseNumber": "The concerned verification phase number",
          "_wallet": "The address of the concerned wallet"
        },
        "return": "the payout"
      },
      "constructor": {
        "params": {
          "_amount": "The amount criterion of this resolution engine",
          "_bountyFund": "The address of bounty fund",
          "_operator": "The address of operator",
          "_oracle": "The address of oracle"
        }
      },
      "disable(string)": {
        "params": {
          "_action": "The action to disable"
        }
      },
      "disabled(string)": {
        "params": {
          "_name": "The name to gauge"
        }
      },
      "enable(string)": {
        "params": {
          "_action": "The action to enable"
        }
      },
      "enabled(string)": {
        "params": {
          "_name": "The name to gauge"
        }
      },
      "freeze()": {
        "details": "This operation can not be undone"
      },
      "isRole(string)": {
        "params": {
          "_role": "The concerned role"
        },
        "return": "true if role has been set, else false"
      },
      "isRoleAccessor(string,address)": {
        "params": {
          "_address": "The concerned address",
          "_role": "The concerned role"
        },
        "return": "true if address is the one of a registered accessor of role, else false"
      },
      "metricsByBlockNumber(uint256)": {
        "details": "Reverts if provided block number is higher than current block number",
        "params": {
          "_blockNumber": "The concerned block number"
        },
        "return": "the metrics"
      },
      "metricsByVerificationPhaseNumber(uint256)": {
        "params": {
          "_verificationPhaseNumber": "The concerned verification phase number"
        },
        "return": "the metrics"
      },
      "metricsByVerificationPhaseNumberAndWallet(uint256,address)": {
        "details": "Reverts if provided verification phase number is higher than current verification phase number",
        "params": {
          "_verificationPhaseNumber": "The concerned verification phase number",
          "_wallet": "The address of the concerned wallet"
        },
        "return": "the metrics"
      },
      "metricsByWallet(address)": {
        "params": {
          "_wallet": "The address of the concerned wallet"
        },
        "return": "the metrics"
      },
      "removeRoleAccessor(string,address)": {
        "params": {
          "_address": "The concerned address",
          "_role": "The concerned role"
        }
      },
      "resolutionCriteriaMet()": {
        "return": "true if resolution criteria have been met, else false"
      },
      "resolutionDeltaAmount(bool)": {
        "params": {
          "_status": "The concerned status"
        },
        "return": "the amount needed to obtain to resolve the market"
      },
      "resolveIfCriteriaMet()": {
        "details": "The function can only be called by oracle. be the current verification phase number"
      },
      "rolesCount()": {
        "return": "The count of roles"
      },
      "setAmount(uint256)": {
        "details": "Only enabled when the resolution engine is not frozen",
        "params": {
          "_amount": "The concerned amount"
        }
      },
      "setBountyAllocator(address)": {
        "params": {
          "_bountyAllocator": "The bounty allocator to be set"
        }
      },
      "stage(address,uint256)": {
        "details": "The function can only be called by oracle.",
        "params": {
          "_amount": "The amount to be staged",
          "_wallet": "The address of the concerned wallet"
        }
      },
      "stageBounty(address)": {
        "params": {
          "_wallet": "The recipient address of the bounty transfer"
        }
      },
      "stagePayout(address,uint256,uint256)": {
        "details": "The function can only be called by oracle.",
        "params": {
          "_firstVerificationPhaseNumber": "The first verification phase number to stage payout from",
          "_lastVerificationPhaseNumber": "The last verification phase number to stage payout from",
          "_wallet": "The address of the concerned wallet"
        }
      },
      "stageStake(address)": {
        "details": "The function can only be called by oracle and when resolve action has been disabled",
        "params": {
          "_wallet": "The address of the concerned wallet"
        }
      },
      "stake(address,bool,uint256)": {
        "details": "The function can only be called by oracle.",
        "params": {
          "_amount": "The amount staked",
          "_status": "The status staked at",
          "_wallet": "The concerned wallet"
        }
      },
      "withdraw(address,uint256)": {
        "details": "The function can only be called by oracle.",
        "params": {
          "_amount": "The amount to be withdrawn",
          "_wallet": "The address of the concerned wallet"
        }
      }
    },
    "title": "NaiveTotalResolutionEngine"
  },
  "userdoc": {
    "methods": {
      "addRole(string)": {
        "notice": "Add role"
      },
      "addRoleAccessor(string,address)": {
        "notice": "Register an address as accessor of a role"
      },
      "calculatePayout(uint256,address)": {
        "notice": "Calculate the payout of the given wallet at the given verification phase number"
      },
      "constructor": "`msg.sender` will be added as accessor to the owner role",
      "disable(string)": {
        "notice": "Disable the given action"
      },
      "disabled(string)": {
        "notice": "Gauge whether the name is disable"
      },
      "enable(string)": {
        "notice": "Enable the given action"
      },
      "enabled(string)": {
        "notice": "Gauge whether the name is enabled"
      },
      "freeze()": {
        "notice": "Freeze this resolution engine"
      },
      "initialize()": {
        "notice": "Initialize the engine"
      },
      "isRole(string)": {
        "notice": "Gauge whether a role is set"
      },
      "isRoleAccessor(string,address)": {
        "notice": "Gauge whether an address is an accessor of a role"
      },
      "metricsByBlockNumber(uint256)": {
        "notice": "Get the metrics for the block"
      },
      "metricsByVerificationPhaseNumber(uint256)": {
        "notice": "Get the metrics for the given verification phase number"
      },
      "metricsByVerificationPhaseNumberAndWallet(uint256,address)": {
        "notice": "Get the metrics for the given verification phase number and wallet"
      },
      "metricsByWallet(address)": {
        "notice": "Get the metrics for the wallet"
      },
      "removeRoleAccessor(string,address)": {
        "notice": "Deregister an address as accessor of a role"
      },
      "resolutionCriteriaMet()": {
        "notice": "Gauge whether the resolution criteria have been met"
      },
      "resolutionDeltaAmount(bool)": {
        "notice": "Return the amount needed to resolve the current market for the given status"
      },
      "resolveIfCriteriaMet()": {
        "notice": "Resolve the market in the current verification phase if resolution criteria have been met"
      },
      "rolesCount()": {
        "notice": "Get the count of roles"
      },
      "setAmount(uint256)": {
        "notice": "Set the amount criterion"
      },
      "setBountyAllocator(address)": {
        "notice": "Set the bounty allocator"
      },
      "stage(address,uint256)": {
        "notice": "Stage the given amount"
      },
      "stageBounty(address)": {
        "notice": "Export the bounty to the given address"
      },
      "stagePayout(address,uint256,uint256)": {
        "notice": "Stage the payout earned by given wallet in the inclusive range of given verification phase numbers"
      },
      "stageStake(address)": {
        "notice": "Stage the amount staked in the current verification phase"
      },
      "stake(address,bool,uint256)": {
        "notice": "Stake by updating metrics"
      },
      "withdraw(address,uint256)": {
        "notice": "Withdraw the given amount"
      }
    },
    "notice": "A nave total resolution engine Resolve the staking market when: - The total number of tokens staked on either option reaches the defined amount criterion"
  }
}