{
  "contractName": "NaiveTotalResolutionEngine",
  "abi": [
    {
      "constant": true,
      "inputs": [],
      "name": "frozen",
      "outputs": [
        {
          "internalType": "bool",
          "name": "",
          "type": "bool"
        }
      ],
      "payable": false,
      "stateMutability": "view",
      "type": "function"
    },
    {
      "constant": true,
      "inputs": [
        {
          "internalType": "uint256",
          "name": "_verificationPhaseNumber",
          "type": "uint256"
        }
      ],
      "name": "metricsByVerificationPhaseNumber",
      "outputs": [
        {
          "internalType": "enum VerificationPhaseLib.State",
          "name": "state",
          "type": "uint8"
        },
        {
          "internalType": "uint256",
          "name": "trueStakeAmount",
          "type": "uint256"
        },
        {
          "internalType": "uint256",
          "name": "falseStakeAmount",
          "type": "uint256"
        },
        {
          "internalType": "uint256",
          "name": "stakeAmount",
          "type": "uint256"
        },
        {
          "internalType": "uint256",
          "name": "numberOfWallets",
          "type": "uint256"
        },
        {
          "internalType": "uint256",
          "name": "bountyAmount",
          "type": "uint256"
        },
        {
          "internalType": "bool",
          "name": "bountyAwarded",
          "type": "bool"
        },
        {
          "internalType": "uint256",
          "name": "startBlock",
          "type": "uint256"
        },
        {
          "internalType": "uint256",
          "name": "endBlock",
          "type": "uint256"
        },
        {
          "internalType": "uint256",
          "name": "numberOfBlocks",
          "type": "uint256"
        }
      ],
      "payable": false,
      "stateMutability": "view",
      "type": "function"
    },
    {
      "constant": true,
      "inputs": [
        {
          "internalType": "uint256",
          "name": "_blockNumber",
          "type": "uint256"
        }
      ],
      "name": "metricsByBlockNumber",
      "outputs": [
        {
          "internalType": "uint256",
          "name": "trueStakeAmount",
          "type": "uint256"
        },
        {
          "internalType": "uint256",
          "name": "falseStakeAmount",
          "type": "uint256"
        },
        {
          "internalType": "uint256",
          "name": "stakeAmount",
          "type": "uint256"
        }
      ],
      "payable": false,
      "stateMutability": "view",
      "type": "function"
    },
    {
      "constant": true,
      "inputs": [
        {
          "internalType": "string",
          "name": "_role",
          "type": "string"
        }
      ],
      "name": "isRole",
      "outputs": [
        {
          "internalType": "bool",
          "name": "",
          "type": "bool"
        }
      ],
      "payable": false,
      "stateMutability": "view",
      "type": "function"
    },
    {
      "constant": true,
      "inputs": [
        {
          "internalType": "address",
          "name": "_wallet",
          "type": "address"
        }
      ],
      "name": "metricsByWallet",
      "outputs": [
        {
          "internalType": "uint256",
          "name": "trueStakeAmount",
          "type": "uint256"
        },
        {
          "internalType": "uint256",
          "name": "falseStakeAmount",
          "type": "uint256"
        },
        {
          "internalType": "uint256",
          "name": "stakeAmount",
          "type": "uint256"
        }
      ],
      "payable": false,
      "stateMutability": "view",
      "type": "function"
    },
    {
      "constant": true,
      "inputs": [],
      "name": "initialized",
      "outputs": [
        {
          "internalType": "bool",
          "name": "",
          "type": "bool"
        }
      ],
      "payable": false,
      "stateMutability": "view",
      "type": "function"
    },
    {
      "constant": false,
      "inputs": [
        {
          "internalType": "address",
          "name": "_wallet",
          "type": "address"
        },
        {
          "internalType": "uint256",
          "name": "_firstVerificationPhaseNumber",
          "type": "uint256"
        },
        {
          "internalType": "uint256",
          "name": "_lastVerificationPhaseNumber",
          "type": "uint256"
        }
      ],
      "name": "stagePayout",
      "outputs": [],
      "payable": false,
      "stateMutability": "nonpayable",
      "type": "function"
    },
    {
      "constant": false,
      "inputs": [
        {
          "internalType": "string",
          "name": "_role",
          "type": "string"
        }
      ],
      "name": "addRole",
      "outputs": [],
      "payable": false,
      "stateMutability": "nonpayable",
      "type": "function"
    },
    {
      "constant": true,
      "inputs": [],
      "name": "verificationStatus",
      "outputs": [
        {
          "internalType": "enum VerificationPhaseLib.Status",
          "name": "",
          "type": "uint8"
        }
      ],
      "payable": false,
      "stateMutability": "view",
      "type": "function"
    },
    {
      "constant": false,
      "inputs": [
        {
          "internalType": "address",
          "name": "_wallet",
          "type": "address"
        },
        {
          "internalType": "bool",
          "name": "_status",
          "type": "bool"
        },
        {
          "internalType": "uint256",
          "name": "_amount",
          "type": "uint256"
        }
      ],
      "name": "stake",
      "outputs": [],
      "payable": false,
      "stateMutability": "nonpayable",
      "type": "function"
    },
    {
      "constant": false,
      "inputs": [
        {
          "internalType": "string",
          "name": "_role",
          "type": "string"
        },
        {
          "internalType": "address",
          "name": "_address",
          "type": "address"
        }
      ],
      "name": "addRoleAccessor",
      "outputs": [],
      "payable": false,
      "stateMutability": "nonpayable",
      "type": "function"
    },
    {
      "constant": true,
      "inputs": [],
      "name": "nextAmount",
      "outputs": [
        {
          "internalType": "uint256",
          "name": "",
          "type": "uint256"
        }
      ],
      "payable": false,
      "stateMutability": "view",
      "type": "function"
    },
    {
      "constant": true,
      "inputs": [
        {
          "internalType": "address",
          "name": "",
          "type": "address"
        }
      ],
      "name": "stagedAmountByWallet",
      "outputs": [
        {
          "internalType": "uint256",
          "name": "",
          "type": "uint256"
        }
      ],
      "payable": false,
      "stateMutability": "view",
      "type": "function"
    },
    {
      "constant": true,
      "inputs": [],
      "name": "operator",
      "outputs": [
        {
          "internalType": "address",
          "name": "",
          "type": "address"
        }
      ],
      "payable": false,
      "stateMutability": "view",
      "type": "function"
    },
    {
      "constant": false,
      "inputs": [
        {
          "internalType": "string",
          "name": "_role",
          "type": "string"
        },
        {
          "internalType": "address",
          "name": "_address",
          "type": "address"
        }
      ],
      "name": "removeRoleAccessor",
      "outputs": [],
      "payable": false,
      "stateMutability": "nonpayable",
      "type": "function"
    },
    {
      "constant": true,
      "inputs": [
        {
          "internalType": "string",
          "name": "_name",
          "type": "string"
        }
      ],
      "name": "disabled",
      "outputs": [
        {
          "internalType": "bool",
          "name": "",
          "type": "bool"
        }
      ],
      "payable": false,
      "stateMutability": "view",
      "type": "function"
    },
    {
      "constant": false,
      "inputs": [],
      "name": "freeze",
      "outputs": [],
      "payable": false,
      "stateMutability": "nonpayable",
      "type": "function"
    },
    {
      "constant": true,
      "inputs": [
        {
          "internalType": "address",
          "name": "_wallet",
          "type": "address"
        },
        {
          "internalType": "uint256",
          "name": "_firstVerificationPhaseNumber",
          "type": "uint256"
        },
        {
          "internalType": "uint256",
          "name": "_lastVerificationPhaseNumber",
          "type": "uint256"
        }
      ],
      "name": "calculatePayout",
      "outputs": [
        {
          "internalType": "uint256",
          "name": "",
          "type": "uint256"
        }
      ],
      "payable": false,
      "stateMutability": "view",
      "type": "function"
    },
    {
      "constant": false,
      "inputs": [
        {
          "internalType": "address",
          "name": "_wallet",
          "type": "address"
        }
      ],
      "name": "stageStake",
      "outputs": [],
      "payable": false,
      "stateMutability": "nonpayable",
      "type": "function"
    },
    {
      "constant": true,
      "inputs": [
        {
          "internalType": "string",
          "name": "_name",
          "type": "string"
        }
      ],
      "name": "enabled",
      "outputs": [
        {
          "internalType": "bool",
          "name": "",
          "type": "bool"
        }
      ],
      "payable": false,
      "stateMutability": "view",
      "type": "function"
    },
    {
      "constant": true,
      "inputs": [],
      "name": "oracle",
      "outputs": [
        {
          "internalType": "address",
          "name": "",
          "type": "address"
        }
      ],
      "payable": false,
      "stateMutability": "view",
      "type": "function"
    },
    {
      "constant": false,
      "inputs": [],
      "name": "initialize",
      "outputs": [],
      "payable": false,
      "stateMutability": "nonpayable",
      "type": "function"
    },
    {
      "constant": false,
      "inputs": [
        {
          "internalType": "address",
          "name": "_bountyAllocator",
          "type": "address"
        }
      ],
      "name": "setBountyAllocator",
      "outputs": [],
      "payable": false,
      "stateMutability": "nonpayable",
      "type": "function"
    },
    {
      "constant": true,
      "inputs": [],
      "name": "RESOLVE_ACTION",
      "outputs": [
        {
          "internalType": "string",
          "name": "",
          "type": "string"
        }
      ],
      "payable": false,
      "stateMutability": "view",
      "type": "function"
    },
    {
      "constant": true,
      "inputs": [],
      "name": "STAKE_ACTION",
      "outputs": [
        {
          "internalType": "string",
          "name": "",
          "type": "string"
        }
      ],
      "payable": false,
      "stateMutability": "view",
      "type": "function"
    },
    {
      "constant": true,
      "inputs": [],
      "name": "rolesCount",
      "outputs": [
        {
          "internalType": "uint256",
          "name": "",
          "type": "uint256"
        }
      ],
      "payable": false,
      "stateMutability": "view",
      "type": "function"
    },
    {
      "constant": false,
      "inputs": [
        {
          "internalType": "string",
          "name": "_action",
          "type": "string"
        }
      ],
      "name": "enable",
      "outputs": [],
      "payable": false,
      "stateMutability": "nonpayable",
      "type": "function"
    },
    {
      "constant": true,
      "inputs": [
        {
          "internalType": "uint256",
          "name": "",
          "type": "uint256"
        }
      ],
      "name": "roles",
      "outputs": [
        {
          "internalType": "string",
          "name": "",
          "type": "string"
        }
      ],
      "payable": false,
      "stateMutability": "view",
      "type": "function"
    },
    {
      "constant": true,
      "inputs": [],
      "name": "bountyFund",
      "outputs": [
        {
          "internalType": "contract BountyFund",
          "name": "",
          "type": "address"
        }
      ],
      "payable": false,
      "stateMutability": "view",
      "type": "function"
    },
    {
      "constant": false,
      "inputs": [],
      "name": "resolveIfCriteriaMet",
      "outputs": [],
      "payable": false,
      "stateMutability": "nonpayable",
      "type": "function"
    },
    {
      "constant": true,
      "inputs": [],
      "name": "bountyAllocator",
      "outputs": [
        {
          "internalType": "address",
          "name": "",
          "type": "address"
        }
      ],
      "payable": false,
      "stateMutability": "view",
      "type": "function"
    },
    {
      "constant": true,
      "inputs": [],
      "name": "verificationPhaseNumber",
      "outputs": [
        {
          "internalType": "uint256",
          "name": "",
          "type": "uint256"
        }
      ],
      "payable": false,
      "stateMutability": "view",
      "type": "function"
    },
    {
      "constant": true,
      "inputs": [
        {
          "internalType": "address",
          "name": "",
          "type": "address"
        },
        {
          "internalType": "uint256",
          "name": "",
          "type": "uint256"
        }
      ],
      "name": "payoutStagedByWalletPhase",
      "outputs": [
        {
          "internalType": "bool",
          "name": "",
          "type": "bool"
        }
      ],
      "payable": false,
      "stateMutability": "view",
      "type": "function"
    },
    {
      "constant": false,
      "inputs": [
        {
          "internalType": "address",
          "name": "_wallet",
          "type": "address"
        }
      ],
      "name": "stageBounty",
      "outputs": [],
      "payable": false,
      "stateMutability": "nonpayable",
      "type": "function"
    },
    {
      "constant": false,
      "inputs": [
        {
          "internalType": "string",
          "name": "_action",
          "type": "string"
        }
      ],
      "name": "disable",
      "outputs": [],
      "payable": false,
      "stateMutability": "nonpayable",
      "type": "function"
    },
    {
      "constant": true,
      "inputs": [],
      "name": "OWNER_ROLE",
      "outputs": [
        {
          "internalType": "string",
          "name": "",
          "type": "string"
        }
      ],
      "payable": false,
      "stateMutability": "view",
      "type": "function"
    },
    {
      "constant": true,
      "inputs": [
        {
          "internalType": "address",
          "name": "",
          "type": "address"
        },
        {
          "internalType": "bool",
          "name": "",
          "type": "bool"
        }
      ],
      "name": "stakedAmountByWalletStatus",
      "outputs": [
        {
          "internalType": "uint256",
          "name": "",
          "type": "uint256"
        }
      ],
      "payable": false,
      "stateMutability": "view",
      "type": "function"
    },
    {
      "constant": false,
      "inputs": [
        {
          "internalType": "address",
          "name": "_wallet",
          "type": "address"
        },
        {
          "internalType": "uint256",
          "name": "_amount",
          "type": "uint256"
        }
      ],
      "name": "stage",
      "outputs": [],
      "payable": false,
      "stateMutability": "nonpayable",
      "type": "function"
    },
    {
      "constant": false,
      "inputs": [
        {
          "internalType": "address",
          "name": "_wallet",
          "type": "address"
        },
        {
          "internalType": "uint256",
          "name": "_amount",
          "type": "uint256"
        }
      ],
      "name": "withdraw",
      "outputs": [],
      "payable": false,
      "stateMutability": "nonpayable",
      "type": "function"
    },
    {
      "constant": true,
      "inputs": [
        {
          "internalType": "uint256",
          "name": "_verificationPhaseNumber",
          "type": "uint256"
        },
        {
          "internalType": "address",
          "name": "_wallet",
          "type": "address"
        }
      ],
      "name": "metricsByVerificationPhaseNumberAndWallet",
      "outputs": [
        {
          "internalType": "uint256",
          "name": "trueStakeAmount",
          "type": "uint256"
        },
        {
          "internalType": "uint256",
          "name": "falseStakeAmount",
          "type": "uint256"
        },
        {
          "internalType": "uint256",
          "name": "stakeAmount",
          "type": "uint256"
        }
      ],
      "payable": false,
      "stateMutability": "view",
      "type": "function"
    },
    {
      "constant": true,
      "inputs": [
        {
          "internalType": "string",
          "name": "_role",
          "type": "string"
        },
        {
          "internalType": "address",
          "name": "_address",
          "type": "address"
        }
      ],
      "name": "isRoleAccessor",
      "outputs": [
        {
          "internalType": "bool",
          "name": "",
          "type": "bool"
        }
      ],
      "payable": false,
      "stateMutability": "view",
      "type": "function"
    },
    {
      "constant": true,
      "inputs": [
        {
          "internalType": "uint256",
          "name": "",
          "type": "uint256"
        },
        {
          "internalType": "bool",
          "name": "",
          "type": "bool"
        }
      ],
      "name": "stakedAmountByBlockStatus",
      "outputs": [
        {
          "internalType": "uint256",
          "name": "",
          "type": "uint256"
        }
      ],
      "payable": false,
      "stateMutability": "view",
      "type": "function"
    },
    {
      "constant": true,
      "inputs": [],
      "name": "token",
      "outputs": [
        {
          "internalType": "contract ERC20",
          "name": "",
          "type": "address"
        }
      ],
      "payable": false,
      "stateMutability": "view",
      "type": "function"
    },
    {
      "constant": true,
      "inputs": [
        {
          "internalType": "uint256",
          "name": "",
          "type": "uint256"
        }
      ],
      "name": "verificationPhaseByPhaseNumber",
      "outputs": [
        {
          "internalType": "enum VerificationPhaseLib.State",
          "name": "state",
          "type": "uint8"
        },
        {
          "internalType": "enum VerificationPhaseLib.Status",
          "name": "result",
          "type": "uint8"
        },
        {
          "internalType": "uint256",
          "name": "stakedAmount",
          "type": "uint256"
        },
        {
          "internalType": "uint256",
          "name": "stakingWallets",
          "type": "uint256"
        },
        {
          "internalType": "uint256",
          "name": "bountyAmount",
          "type": "uint256"
        },
        {
          "internalType": "bool",
          "name": "bountyAwarded",
          "type": "bool"
        },
        {
          "internalType": "uint256",
          "name": "startBlock",
          "type": "uint256"
        },
        {
          "internalType": "uint256",
          "name": "endBlock",
          "type": "uint256"
        }
      ],
      "payable": false,
      "stateMutability": "view",
      "type": "function"
    },
    {
      "inputs": [
        {
          "internalType": "address",
          "name": "_oracle",
          "type": "address"
        },
        {
          "internalType": "address",
          "name": "_operator",
          "type": "address"
        },
        {
          "internalType": "address",
          "name": "_bountyFund",
          "type": "address"
        },
        {
          "internalType": "uint256",
          "name": "_nextAmount",
          "type": "uint256"
        }
      ],
      "payable": false,
      "stateMutability": "nonpayable",
      "type": "constructor"
    },
    {
      "anonymous": false,
      "inputs": [
        {
          "indexed": false,
          "internalType": "uint256",
          "name": "amount",
          "type": "uint256"
        }
      ],
      "name": "NextAmountSet",
      "type": "event"
    },
    {
      "anonymous": false,
      "inputs": [],
      "name": "Frozen",
      "type": "event"
    },
    {
      "anonymous": false,
      "inputs": [
        {
          "indexed": true,
          "internalType": "address",
          "name": "_bountyAllocator",
          "type": "address"
        }
      ],
      "name": "BountyAllocatorSet",
      "type": "event"
    },
    {
      "anonymous": false,
      "inputs": [],
      "name": "Initialized",
      "type": "event"
    },
    {
      "anonymous": false,
      "inputs": [
        {
          "indexed": true,
          "internalType": "address",
          "name": "_wallet",
          "type": "address"
        },
        {
          "indexed": true,
          "internalType": "uint256",
          "name": "_verificationPhaseNumber",
          "type": "uint256"
        },
        {
          "indexed": false,
          "internalType": "bool",
          "name": "_status",
          "type": "bool"
        },
        {
          "indexed": false,
          "internalType": "uint256",
          "name": "_amount",
          "type": "uint256"
        }
      ],
      "name": "Staked",
      "type": "event"
    },
    {
      "anonymous": false,
      "inputs": [
        {
          "indexed": true,
          "internalType": "uint256",
          "name": "_verificationPhaseNumber",
          "type": "uint256"
        }
      ],
      "name": "Resolved",
      "type": "event"
    },
    {
      "anonymous": false,
      "inputs": [
        {
          "indexed": true,
          "internalType": "uint256",
          "name": "_verificationPhaseNumber",
          "type": "uint256"
        },
        {
          "indexed": false,
          "internalType": "uint256",
          "name": "_bountyAmount",
          "type": "uint256"
        }
      ],
      "name": "BountyImported",
      "type": "event"
    },
    {
      "anonymous": false,
      "inputs": [
        {
          "indexed": true,
          "internalType": "address",
          "name": "_wallet",
          "type": "address"
        },
        {
          "indexed": false,
          "internalType": "uint256",
          "name": "_bountyAmount",
          "type": "uint256"
        }
      ],
      "name": "BountyStaged",
      "type": "event"
    },
    {
      "anonymous": false,
      "inputs": [
        {
          "indexed": true,
          "internalType": "uint256",
          "name": "_verificationPhaseNumber",
          "type": "uint256"
        }
      ],
      "name": "VerificationPhaseOpened",
      "type": "event"
    },
    {
      "anonymous": false,
      "inputs": [
        {
          "indexed": true,
          "internalType": "uint256",
          "name": "_verificationPhaseNumber",
          "type": "uint256"
        }
      ],
      "name": "VerificationPhaseClosed",
      "type": "event"
    },
    {
      "anonymous": false,
      "inputs": [
        {
          "indexed": true,
          "internalType": "address",
          "name": "_wallet",
          "type": "address"
        },
        {
          "indexed": true,
          "internalType": "uint256",
          "name": "_firstVerificationPhaseNumber",
          "type": "uint256"
        },
        {
          "indexed": true,
          "internalType": "uint256",
          "name": "_lastVerificationPhaseNumber",
          "type": "uint256"
        },
        {
          "indexed": false,
          "internalType": "uint256",
          "name": "_payout",
          "type": "uint256"
        }
      ],
      "name": "PayoutStaged",
      "type": "event"
    },
    {
      "anonymous": false,
      "inputs": [
        {
          "indexed": true,
          "internalType": "address",
          "name": "_wallet",
          "type": "address"
        },
        {
          "indexed": false,
          "internalType": "uint256",
          "name": "_amount",
          "type": "uint256"
        }
      ],
      "name": "StakeStaged",
      "type": "event"
    },
    {
      "anonymous": false,
      "inputs": [
        {
          "indexed": true,
          "internalType": "address",
          "name": "_wallet",
          "type": "address"
        },
        {
          "indexed": false,
          "internalType": "uint256",
          "name": "_amount",
          "type": "uint256"
        }
      ],
      "name": "Staged",
      "type": "event"
    },
    {
      "anonymous": false,
      "inputs": [
        {
          "indexed": true,
          "internalType": "address",
          "name": "_wallet",
          "type": "address"
        },
        {
          "indexed": false,
          "internalType": "uint256",
          "name": "_amount",
          "type": "uint256"
        }
      ],
      "name": "Withdrawn",
      "type": "event"
    },
    {
      "anonymous": false,
      "inputs": [
        {
          "indexed": false,
          "internalType": "string",
          "name": "_name",
          "type": "string"
        }
      ],
      "name": "Disabled",
      "type": "event"
    },
    {
      "anonymous": false,
      "inputs": [
        {
          "indexed": false,
          "internalType": "string",
          "name": "_name",
          "type": "string"
        }
      ],
      "name": "Enabled",
      "type": "event"
    },
    {
      "anonymous": false,
      "inputs": [
        {
          "indexed": false,
          "internalType": "string",
          "name": "_role",
          "type": "string"
        }
      ],
      "name": "RoleAdded",
      "type": "event"
    },
    {
      "anonymous": false,
      "inputs": [
        {
          "indexed": false,
          "internalType": "string",
          "name": "_role",
          "type": "string"
        },
        {
          "indexed": true,
          "internalType": "address",
          "name": "_address",
          "type": "address"
        }
      ],
      "name": "RoleAccessorAdded",
      "type": "event"
    },
    {
      "anonymous": false,
      "inputs": [
        {
          "indexed": false,
          "internalType": "string",
          "name": "_role",
          "type": "string"
        },
        {
          "indexed": true,
          "internalType": "address",
          "name": "_address",
          "type": "address"
        }
      ],
      "name": "RoleAccessorRemoved",
      "type": "event"
    },
    {
      "constant": true,
      "inputs": [
        {
          "internalType": "bool",
          "name": "_status",
          "type": "bool"
        }
      ],
      "name": "resolutionDeltaAmount",
      "outputs": [
        {
          "internalType": "uint256",
          "name": "",
          "type": "uint256"
        }
      ],
      "payable": false,
      "stateMutability": "view",
      "type": "function"
    },
    {
      "constant": true,
      "inputs": [],
      "name": "resolutionCriteriaMet",
      "outputs": [
        {
          "internalType": "bool",
          "name": "",
          "type": "bool"
        }
      ],
      "payable": false,
      "stateMutability": "view",
      "type": "function"
    },
    {
      "constant": false,
      "inputs": [
        {
          "internalType": "uint256",
          "name": "_nextAmount",
          "type": "uint256"
        }
      ],
      "name": "setNextAmount",
      "outputs": [],
      "payable": false,
      "stateMutability": "nonpayable",
      "type": "function"
    },
    {
      "constant": true,
      "inputs": [
        {
          "internalType": "uint256",
          "name": "_verificationPhaseNumber",
          "type": "uint256"
        }
      ],
      "name": "amountByPhaseNumber",
      "outputs": [
        {
          "internalType": "uint256",
          "name": "",
          "type": "uint256"
        }
      ],
      "payable": false,
      "stateMutability": "view",
      "type": "function"
    }
  ],
  "bytecode": "0x60806040523480156200001157600080fd5b506040516200593638038062005936833981810160405260808110156200003757600080fd5b8101908080519060200190929190805190602001909291908051906020019092919080519060200190929190505050838383620000af6040518060400160405280600581526020017f4f574e45520000000000000000000000000000000000000000000000000000008152506200036e60201b60201c565b620000f66040518060400160405280600581526020017f4f574e4552000000000000000000000000000000000000000000000000000000815250336200040d60201b60201c565b82600460006101000a81548173ffffffffffffffffffffffffffffffffffffffff021916908373ffffffffffffffffffffffffffffffffffffffff16021790555081600560006101000a81548173ffffffffffffffffffffffffffffffffffffffff021916908373ffffffffffffffffffffffffffffffffffffffff16021790555080600760006101000a81548173ffffffffffffffffffffffffffffffffffffffff021916908373ffffffffffffffffffffffffffffffffffffffff160217905550600760009054906101000a900473ffffffffffffffffffffffffffffffffffffffff1673ffffffffffffffffffffffffffffffffffffffff16637d54a822306040518263ffffffff1660e01b8152600401808273ffffffffffffffffffffffffffffffffffffffff1673ffffffffffffffffffffffffffffffffffffffff168152602001915050600060405180830381600087803b1580156200025b57600080fd5b505af115801562000270573d6000803e3d6000fd5b50505050600760009054906101000a900473ffffffffffffffffffffffffffffffffffffffff1673ffffffffffffffffffffffffffffffffffffffff1663fc0c546a6040518163ffffffff1660e01b815260040160206040518083038186803b158015620002dd57600080fd5b505afa158015620002f2573d6000803e3d6000fd5b505050506040513d60208110156200030957600080fd5b8101908080519060200190929190505050600860006101000a81548173ffffffffffffffffffffffffffffffffffffffff021916908373ffffffffffffffffffffffffffffffffffffffff16021790555050505080601081905550505050506200073d565b6001600062000383836200044d60201b60201c565b815260200190815260200160002054600014156200040a576000819080600181540180825580915050906001820390600052602060002001600090919290919091509080519060200190620003da9291906200068e565b505060008054905060016000620003f7846200044d60201b60201c565b8152602001908152602001600020819055505b50565b62000449816002600062000427866200044d60201b60201c565b8152602001908152602001600020620004ca60201b62004af61790919060201c565b5050565b6000816040516020018082805190602001908083835b6020831062000488578051825260208201915060208101905060208303925062000463565b6001836020036101000a038019825116818451168082178552505050505050905001915050604051602081830303815290604052805190602001209050919050565b620004dc8282620005ae60201b60201c565b1562000550576040517f08c379a000000000000000000000000000000000000000000000000000000000815260040180806020018281038252601f8152602001807f526f6c65733a206163636f756e7420616c72656164792068617320726f6c650081525060200191505060405180910390fd5b60018260000160008373ffffffffffffffffffffffffffffffffffffffff1673ffffffffffffffffffffffffffffffffffffffff16815260200190815260200160002060006101000a81548160ff0219169083151502179055505050565b60008073ffffffffffffffffffffffffffffffffffffffff168273ffffffffffffffffffffffffffffffffffffffff16141562000637576040517f08c379a0000000000000000000000000000000000000000000000000000000008152600401808060200182810382526022815260200180620059146022913960400191505060405180910390fd5b8260000160008373ffffffffffffffffffffffffffffffffffffffff1673ffffffffffffffffffffffffffffffffffffffff16815260200190815260200160002060009054906101000a900460ff16905092915050565b828054600181600116156101000203166002900490600052602060002090601f016020900481019282601f10620006d157805160ff191683800117855562000702565b8280016001018555821562000702579182015b8281111562000701578251825591602001919060010190620006e4565b5b50905062000711919062000715565b5090565b6200073a91905b80821115620007365760008160009055506001016200071c565b5090565b90565b6151c7806200074d6000396000f3fe608060405234801561001057600080fd5b50600436106102a05760003560e01c80637dc0d1d011610167578063d0e22f09116100ce578063f3fef3a311610087578063f3fef3a3146112be578063f556e70a1461130c578063fb535fd61461137c578063fbf098ed1461146f578063fc0c546a146114bd578063fc8d631714611507576102a0565b8063d0e22f0914611024578063d5bdee6d1461108a578063e2998381146110ce578063e58378bb14611189578063e86c1d361461120c578063ebb2666f14611270576102a0565b8063b8724c5911610120578063b8724c5914610e06578063bfda4a4914610ec1578063c06c66ca14610f68578063c587f53c14610fb2578063cf7f3da414610fbc578063d00e768b14611006576102a0565b80637dc0d1d014610c4a5780638129fc1c14610c94578063960873da14610c9e578063a1f6c95914610ce2578063b330df7314610d65578063b8517dd814610de8576102a0565b80634da195be1161020b5780635b526811116101c45780635b526811146109a657806362a5af3b14610a7957806370551d4d14610a83578063790d36cb14610ac75780637bd190b714610b335780637ca41f2614610b77576102a0565b80634da195be1461070e57806350f956db146107e9578063513554e71461080757806353a538aa14610829578063570ca735146108815780635b0f833a146108cb576102a0565b806312e810f21161025d57806312e810f2146104ed578063158ef93e14610553578063170ec9fb146105755780633e96e868146105cd5780634a0d3096146106885780634a0f2f7a146106b4576102a0565b8063054f7d9c146102a557806306bcbd00146102c757806306d05aef1461035a5780630a3b2c8a146103aa5780630f6c37de146103ec57806312b0348a146104bf575b600080fd5b6102ad61159a565b604051808215151515815260200191505060405180910390f35b6102f3600480360360208110156102dd57600080fd5b81019080803590602001909291905050506115ad565b604051808b600281111561030357fe5b60ff1681526020018a8152602001898152602001888152602001878152602001868152602001851515151581526020018481526020018381526020018281526020019a505050505050505050505060405180910390f35b6103866004803603602081101561037057600080fd5b810190808035906020019092919050505061171f565b60405180848152602001838152602001828152602001935050505060405180910390f35b6103d6600480360360208110156103c057600080fd5b8101908080359060200190929190505050611797565b6040518082815260200191505060405180910390f35b6104a56004803603602081101561040257600080fd5b810190808035906020019064010000000081111561041f57600080fd5b82018360208201111561043157600080fd5b8035906020019184600183028401116401000000008311171561045357600080fd5b91908080601f016020809104026020016040519081016040528093929190818152602001838380828437600081840152601f19601f8201169050808301925050505050505091929192905050506117cd565b604051808215151515815260200191505060405180910390f35b6104eb600480360360208110156104d557600080fd5b81019080803590602001909291905050506117f6565b005b61052f6004803603602081101561050357600080fd5b81019080803573ffffffffffffffffffffffffffffffffffffffff169060200190929190505050611952565b60405180848152602001838152602001828152602001935050505060405180910390f35b61055b611a22565b604051808215151515815260200191505060405180910390f35b6105cb6004803603606081101561058b57600080fd5b81019080803573ffffffffffffffffffffffffffffffffffffffff1690602001909291908035906020019092919080359060200190929190505050611a35565b005b610686600480360360208110156105e357600080fd5b810190808035906020019064010000000081111561060057600080fd5b82018360208201111561061257600080fd5b8035906020019184600183028401116401000000008311171561063457600080fd5b91908080601f016020809104026020016040519081016040528093929190818152602001838380828437600081840152601f19601f820116905080830192505050505050509192919290505050611b6f565b005b610690611cad565b604051808260028111156106a057fe5b60ff16815260200191505060405180910390f35b61070c600480360360608110156106ca57600080fd5b81019080803573ffffffffffffffffffffffffffffffffffffffff16906020019092919080351515906020019092919080359060200190929190505050611cc0565b005b6107e76004803603604081101561072457600080fd5b810190808035906020019064010000000081111561074157600080fd5b82018360208201111561075357600080fd5b8035906020019184600183028401116401000000008311171561077557600080fd5b91908080601f016020809104026020016040519081016040528093929190818152602001838380828437600081840152601f19601f820116905080830192505050505050509192919290803573ffffffffffffffffffffffffffffffffffffffff169060200190929190505050611fcb565b005b6107f1612122565b6040518082815260200191505060405180910390f35b61080f612128565b604051808215151515815260200191505060405180910390f35b61086b6004803603602081101561083f57600080fd5b81019080803573ffffffffffffffffffffffffffffffffffffffff1690602001909291905050506121ad565b6040518082815260200191505060405180910390f35b6108896121c5565b604051808273ffffffffffffffffffffffffffffffffffffffff1673ffffffffffffffffffffffffffffffffffffffff16815260200191505060405180910390f35b6109a4600480360360408110156108e157600080fd5b81019080803590602001906401000000008111156108fe57600080fd5b82018360208201111561091057600080fd5b8035906020019184600183028401116401000000008311171561093257600080fd5b91908080601f016020809104026020016040519081016040528093929190818152602001838380828437600081840152601f19601f820116905080830192505050505050509192919290803573ffffffffffffffffffffffffffffffffffffffff1690602001909291905050506121eb565b005b610a5f600480360360208110156109bc57600080fd5b81019080803590602001906401000000008111156109d957600080fd5b8201836020820111156109eb57600080fd5b80359060200191846001830284011164010000000083111715610a0d57600080fd5b91908080601f016020809104026020016040519081016040528093929190818152602001838380828437600081840152601f19601f820116905080830192505050505050509192919290505050612365565b604051808215151515815260200191505060405180910390f35b610a816123e5565b005b610ab160048036036020811015610a9957600080fd5b810190808035151590602001909291905050506124c4565b6040518082815260200191505060405180910390f35b610b1d60048036036060811015610add57600080fd5b81019080803573ffffffffffffffffffffffffffffffffffffffff169060200190929190803590602001909291908035906020019092919050505061255d565b6040518082815260200191505060405180910390f35b610b7560048036036020811015610b4957600080fd5b81019080803573ffffffffffffffffffffffffffffffffffffffff1690602001909291905050506125a8565b005b610c3060048036036020811015610b8d57600080fd5b8101908080359060200190640100000000811115610baa57600080fd5b820183602082011115610bbc57600080fd5b80359060200191846001830284011164010000000083111715610bde57600080fd5b91908080601f016020809104026020016040519081016040528093929190818152602001838380828437600081840152601f19601f82011690508083019250505050505050919291929050505061283a565b604051808215151515815260200191505060405180910390f35b610c526128bb565b604051808273ffffffffffffffffffffffffffffffffffffffff1673ffffffffffffffffffffffffffffffffffffffff16815260200191505060405180910390f35b610c9c6128e1565b005b610ce060048036036020811015610cb457600080fd5b81019080803573ffffffffffffffffffffffffffffffffffffffff169060200190929190505050612ae4565b005b610cea612c23565b6040518080602001828103825283818151815260200191508051906020019080838360005b83811015610d2a578082015181840152602081019050610d0f565b50505050905090810190601f168015610d575780820380516001836020036101000a031916815260200191505b509250505060405180910390f35b610d6d612c5c565b6040518080602001828103825283818151815260200191508051906020019080838360005b83811015610dad578082015181840152602081019050610d92565b50505050905090810190601f168015610dda5780820380516001836020036101000a031916815260200191505b509250505060405180910390f35b610df0612c95565b6040518082815260200191505060405180910390f35b610ebf60048036036020811015610e1c57600080fd5b8101908080359060200190640100000000811115610e3957600080fd5b820183602082011115610e4b57600080fd5b80359060200191846001830284011164010000000083111715610e6d57600080fd5b91908080601f016020809104026020016040519081016040528093929190818152602001838380828437600081840152601f19601f820116905080830192505050505050509192919290505050612ca1565b005b610eed60048036036020811015610ed757600080fd5b8101908080359060200190929190505050612d53565b6040518080602001828103825283818151815260200191508051906020019080838360005b83811015610f2d578082015181840152602081019050610f12565b50505050905090810190601f168015610f5a5780820380516001836020036101000a031916815260200191505b509250505060405180910390f35b610f70612e0c565b604051808273ffffffffffffffffffffffffffffffffffffffff1673ffffffffffffffffffffffffffffffffffffffff16815260200191505060405180910390f35b610fba612e32565b005b610fc4612fe7565b604051808273ffffffffffffffffffffffffffffffffffffffff1673ffffffffffffffffffffffffffffffffffffffff16815260200191505060405180910390f35b61100e61300d565b6040518082815260200191505060405180910390f35b6110706004803603604081101561103a57600080fd5b81019080803573ffffffffffffffffffffffffffffffffffffffff16906020019092919080359060200190929190505050613013565b604051808215151515815260200191505060405180910390f35b6110cc600480360360208110156110a057600080fd5b81019080803573ffffffffffffffffffffffffffffffffffffffff169060200190929190505050613042565b005b611187600480360360208110156110e457600080fd5b810190808035906020019064010000000081111561110157600080fd5b82018360208201111561111357600080fd5b8035906020019184600183028401116401000000008311171561113557600080fd5b91908080601f016020809104026020016040519081016040528093929190818152602001838380828437600081840152601f19601f820116905080830192505050505050509192919290505050613225565b005b6111916132d7565b6040518080602001828103825283818151815260200191508051906020019080838360005b838110156111d15780820151818401526020810190506111b6565b50505050905090810190601f1680156111fe5780820380516001836020036101000a031916815260200191505b509250505060405180910390f35b61125a6004803603604081101561122257600080fd5b81019080803573ffffffffffffffffffffffffffffffffffffffff169060200190929190803515159060200190929190505050613310565b6040518082815260200191505060405180910390f35b6112bc6004803603604081101561128657600080fd5b81019080803573ffffffffffffffffffffffffffffffffffffffff16906020019092919080359060200190929190505050613335565b005b61130a600480360360408110156112d457600080fd5b81019080803573ffffffffffffffffffffffffffffffffffffffff16906020019092919080359060200190929190505050613437565b005b6113586004803603604081101561132257600080fd5b8101908080359060200190929190803573ffffffffffffffffffffffffffffffffffffffff169060200190929190505050613539565b60405180848152602001838152602001828152602001935050505060405180910390f35b6114556004803603604081101561139257600080fd5b81019080803590602001906401000000008111156113af57600080fd5b8201836020820111156113c157600080fd5b803590602001918460018302840111640100000000831117156113e357600080fd5b91908080601f016020809104026020016040519081016040528093929190818152602001838380828437600081840152601f19601f820116905080830192505050505050509192919290803573ffffffffffffffffffffffffffffffffffffffff169060200190929190505050613631565b604051808215151515815260200191505060405180910390f35b6114a76004803603604081101561148557600080fd5b8101908080359060200190929190803515159060200190929190505050613668565b6040518082815260200191505060405180910390f35b6114c561368d565b604051808273ffffffffffffffffffffffffffffffffffffffff1673ffffffffffffffffffffffffffffffffffffffff16815260200191505060405180910390f35b6115336004803603602081101561151d57600080fd5b81019080803590602001909291905050506136b3565b6040518089600281111561154357fe5b60ff16815260200188600281111561155757fe5b60ff168152602001878152602001868152602001858152602001841515151581526020018381526020018281526020019850505050505050505060405180910390f35b600860159054906101000a900460ff1681565b600080600080600080600080600080600a60008c815260200190815260200160002060000160009054906101000a900460ff169950600a60008c815260200190815260200160002060020160006001151515158152602001908152602001600020549850600a60008c8152602001908152602001600020600201600080151515158152602001908152602001600020549750600a60008c8152602001908152602001600020600101549650600a60008c8152602001908152602001600020600601549550600a60008c8152602001908152602001600020600701549450600a60008c815260200190815260200160002060080160009054906101000a900460ff169350600a60008c8152602001908152602001600020600901549250600a60008c8152602001908152602001600020600a01549150611710836000851180156116f65750600084145b6117005783611702565b435b61372290919063ffffffff16565b90509193959799509193959799565b6000806000600c600085815260200190815260200160002060006001151515158152602001908152602001600020549250600c600085815260200190815260200160002060008015151515815260200190815260200160002054915061178e82846137ab90919063ffffffff16565b90509193909250565b6000600a6000838152602001908152602001600020600b016000815481106117bb57fe5b90600052602060002001549050919050565b6000600160006117dc84613833565b815260200190815260200160002054600014159050919050565b6040518060400160405280600581526020017f4f574e45520000000000000000000000000000000000000000000000000000008152506118368133613631565b61188b576040517f08c379a000000000000000000000000000000000000000000000000000000000815260040180806020018281038252602a815260200180614fd4602a913960400191505060405180910390fd5b600860159054906101000a900460ff161561190e576040517f08c379a000000000000000000000000000000000000000000000000000000000815260040180806020018281038252601b8152602001807f5265736f6c7574696f6e456e67696e653a2069732066726f7a656e000000000081525060200191505060405180910390fd5b816010819055507f7702c8637c1dee54c3fb4477b85ca21edd857983155e179d09f33721d50480466010546040518082815260200191505060405180910390a15050565b6000806000600b60008573ffffffffffffffffffffffffffffffffffffffff1673ffffffffffffffffffffffffffffffffffffffff16815260200190815260200160002060006001151515158152602001908152602001600020549250600b60008573ffffffffffffffffffffffffffffffffffffffff1673ffffffffffffffffffffffffffffffffffffffff168152602001908152602001600020600080151515158152602001908152602001600020549150611a1982846137ab90919063ffffffff16565b90509193909250565b600860149054906101000a900460ff1681565b600460009054906101000a900473ffffffffffffffffffffffffffffffffffffffff1673ffffffffffffffffffffffffffffffffffffffff163373ffffffffffffffffffffffffffffffffffffffff1614611adb576040517f08c379a0000000000000000000000000000000000000000000000000000000008152600401808060200182810382526032815260200180614fa26032913960400191505060405180910390fd5b600080905060008390505b828111611b1857611b09611afa86836138ae565b836137ab90919063ffffffff16565b91508080600101915050611ae6565b5081838573ffffffffffffffffffffffffffffffffffffffff167fc1199d92491cca50fe2a0c945991862e1ea7ed9da838db6eedd4e19580f6ec45846040518082815260200191505060405180910390a450505050565b6040518060400160405280600581526020017f4f574e4552000000000000000000000000000000000000000000000000000000815250611baf8133613631565b611c04576040517f08c379a000000000000000000000000000000000000000000000000000000000815260040180806020018281038252602a815260200180614fd4602a913960400191505060405180910390fd5b611c0d826139f1565b7f22f30a094e2ed10e9a92ebac7a70b8e2ae3288d9b594db22587861bc8fef4eef826040518080602001828103825283818151815260200191508051906020019080838360005b83811015611c6f578082015181840152602081019050611c54565b50505050905090810190601f168015611c9c5780820380516001836020036101000a031916815260200191505b509250505060405180910390a15050565b600d60009054906101000a900460ff1681565b600460009054906101000a900473ffffffffffffffffffffffffffffffffffffffff1673ffffffffffffffffffffffffffffffffffffffff163373ffffffffffffffffffffffffffffffffffffffff1614611d66576040517f08c379a0000000000000000000000000000000000000000000000000000000008152600401808060200182810382526032815260200180614fa26032913960400191505060405180910390fd5b6040518060400160405280600581526020017f5354414b45000000000000000000000000000000000000000000000000000000815250611da58161283a565b611e17576040517f08c379a00000000000000000000000000000000000000000000000000000000081526004018080602001828103825260168152602001807f41626c653a206e616d652069732064697361626c65640000000000000000000081525060200191505060405180910390fd5b611e7e82600b60008773ffffffffffffffffffffffffffffffffffffffff1673ffffffffffffffffffffffffffffffffffffffff168152602001908152602001600020600086151515158152602001908152602001600020546137ab90919063ffffffff16565b600b60008673ffffffffffffffffffffffffffffffffffffffff1673ffffffffffffffffffffffffffffffffffffffff16815260200190815260200160002060008515151515815260200190815260200160002081905550611f1182600c6000438152602001908152602001600020600086151515158152602001908152602001600020546137ab90919063ffffffff16565b600c600043815260200190815260200160002060008515151515815260200190815260200160002081905550611f68848484600a60006009548152602001908152602001600020613a7d909392919063ffffffff16565b6009548473ffffffffffffffffffffffffffffffffffffffff167fb090af6b9902ba8a7bc46486cd082be61763b3decc7be5ab48dc26422860230c858560405180831515151581526020018281526020019250505060405180910390a350505050565b6040518060400160405280600581526020017f4f574e455200000000000000000000000000000000000000000000000000000081525061200b8133613631565b612060576040517f08c379a000000000000000000000000000000000000000000000000000000000815260040180806020018281038252602a815260200180614fd4602a913960400191505060405180910390fd5b61206a8383613ce7565b8173ffffffffffffffffffffffffffffffffffffffff167fafe42c64e42361a5193c84f3f11b6803e41dd901d473ee6faa72f43f8ab1f468846040518080602001828103825283818151815260200191508051906020019080838360005b838110156120e35780820151818401526020810190506120c8565b50505050905090810190601f1680156121105780820380516001836020036101000a031916815260200191505b509250505060405180910390a2505050565b60105481565b6000612135600954611797565b600a6000600954815260200190815260200160002060020160006001151515158152602001908152602001600020541015806121a85750612177600954611797565b600a600060095481526020019081526020016000206002016000801515151581526020019081526020016000205410155b905090565b600f6020528060005260406000206000915090505481565b600560009054906101000a900473ffffffffffffffffffffffffffffffffffffffff1681565b6040518060400160405280600581526020017f4f574e455200000000000000000000000000000000000000000000000000000081525061222b8133613631565b612280576040517f08c379a000000000000000000000000000000000000000000000000000000000815260040180806020018281038252602a815260200180614fd4602a913960400191505060405180910390fd5b6122ad826002600061229187613833565b8152602001908152602001600020613d1890919063ffffffff16565b8173ffffffffffffffffffffffffffffffffffffffff167f3e3ea7a1060be276a52e916803e2f89e3478e263893fc3c0b4d5793dd6d5f032846040518080602001828103825283818151815260200191508051906020019080838360005b8381101561232657808201518184015260208101905061230b565b50505050905090810190601f1680156123535780820380516001836020036101000a031916815260200191505b509250505060405180910390a2505050565b60006003826040518082805190602001908083835b6020831061239d578051825260208201915060208101905060208303925061237a565b6001836020036101000a038019825116818451168082178552505050505050905001915050908152602001604051809103902060009054906101000a900460ff169050919050565b6040518060400160405280600581526020017f4f574e45520000000000000000000000000000000000000000000000000000008152506124258133613631565b61247a576040517f08c379a000000000000000000000000000000000000000000000000000000000815260040180806020018281038252602a815260200180614fd4602a913960400191505060405180910390fd5b6001600860156101000a81548160ff0219169083151502179055507fa8cab3d1893ed53071b052fafa843143492f25d1d6b0170d460789f7ab1954be60405160405180910390a150565b6000600a60006009548152602001908152602001600020600201600083151515158152602001908152602001600020546124ff600954611797565b1161250b576000612556565b612555600a6000600954815260200190815260200160002060020160008415151515815260200190815260200160002054612547600954611797565b61372290919063ffffffff16565b5b9050919050565b6000806000905060008490505b83811161259c5761258d61257e8783613dd5565b836137ab90919063ffffffff16565b9150808060010191505061256a565b50809150509392505050565b600460009054906101000a900473ffffffffffffffffffffffffffffffffffffffff1673ffffffffffffffffffffffffffffffffffffffff163373ffffffffffffffffffffffffffffffffffffffff161461264e576040517f08c379a0000000000000000000000000000000000000000000000000000000008152600401808060200182810382526032815260200180614fa26032913960400191505060405180910390fd5b6040518060400160405280600781526020017f5245534f4c56450000000000000000000000000000000000000000000000000081525061268d81612365565b6126ff576040517f08c379a00000000000000000000000000000000000000000000000000000000081526004018080602001828103825260158152602001807f41626c653a206e616d6520697320656e61626c6564000000000000000000000081525060200191505060405180910390fd5b6000600a60006009548152602001908152602001600020905060006127da8260030160008673ffffffffffffffffffffffffffffffffffffffff1673ffffffffffffffffffffffffffffffffffffffff168152602001908152602001600020600080151515158152602001908152602001600020548360030160008773ffffffffffffffffffffffffffffffffffffffff1673ffffffffffffffffffffffffffffffffffffffff16815260200190815260200160002060006001151515158152602001908152602001600020546137ab90919063ffffffff16565b90506127e68482613fca565b8373ffffffffffffffffffffffffffffffffffffffff167f46c86b7ebca513b3ec213b4738e43070434543c30ac031708ba3851ac8cb4121826040518082815260200191505060405180910390a250505050565b60006003826040518082805190602001908083835b60208310612872578051825260208201915060208101905060208303925061284f565b6001836020036101000a038019825116818451168082178552505050505050905001915050908152602001604051809103902060009054906101000a900460ff16159050919050565b600460009054906101000a900473ffffffffffffffffffffffffffffffffffffffff1681565b6040518060400160405280600581526020017f4f574e45520000000000000000000000000000000000000000000000000000008152506129218133613631565b612976576040517f08c379a000000000000000000000000000000000000000000000000000000000815260040180806020018281038252602a815260200180614fd4602a913960400191505060405180910390fd5b600860149054906101000a900460ff16156129dc576040517f08c379a00000000000000000000000000000000000000000000000000000000081526004018080602001828103825260258152602001806150986025913960400191505060405180910390fd5b600660009054906101000a900473ffffffffffffffffffffffffffffffffffffffff1673ffffffffffffffffffffffffffffffffffffffff16600073ffffffffffffffffffffffffffffffffffffffff161415612a84576040517f08c379a000000000000000000000000000000000000000000000000000000000815260040180806020018281038252602a815260200180615169602a913960400191505060405180910390fd5b6001600860146101000a81548160ff0219169083151502179055506000612aa9614063565b9050612ab4816141a7565b7f5daa87a0e9463431830481fd4b6e3403442dfb9a12b9c07597e9f61d50b633c860405160405180910390a15050565b6040518060400160405280600581526020017f4f574e4552000000000000000000000000000000000000000000000000000000815250612b248133613631565b612b79576040517f08c379a000000000000000000000000000000000000000000000000000000000815260040180806020018281038252602a815260200180614fd4602a913960400191505060405180910390fd5b81600660006101000a81548173ffffffffffffffffffffffffffffffffffffffff021916908373ffffffffffffffffffffffffffffffffffffffff160217905550600660009054906101000a900473ffffffffffffffffffffffffffffffffffffffff1673ffffffffffffffffffffffffffffffffffffffff167f788e1a4c2faf407e4a26256b2cc5e39ac3883f819087249fc5c54102d5a1afda60405160405180910390a25050565b6040518060400160405280600781526020017f5245534f4c56450000000000000000000000000000000000000000000000000081525081565b6040518060400160405280600581526020017f5354414b4500000000000000000000000000000000000000000000000000000081525081565b60008080549050905090565b600560009054906101000a900473ffffffffffffffffffffffffffffffffffffffff1673ffffffffffffffffffffffffffffffffffffffff163373ffffffffffffffffffffffffffffffffffffffff1614612d47576040517f08c379a00000000000000000000000000000000000000000000000000000000081526004018080602001828103825260348152602001806150bd6034913960400191505060405180910390fd5b612d50816142cb565b50565b60008181548110612d6057fe5b906000526020600020016000915090508054600181600116156101000203166002900480601f016020809104026020016040519081016040528092919081815260200182805460018160011615610100020316600290048015612e045780601f10612dd957610100808354040283529160200191612e04565b820191906000526020600020905b815481529060010190602001808311612de757829003601f168201915b505050505081565b600760009054906101000a900473ffffffffffffffffffffffffffffffffffffffff1681565b600460009054906101000a900473ffffffffffffffffffffffffffffffffffffffff1673ffffffffffffffffffffffffffffffffffffffff163373ffffffffffffffffffffffffffffffffffffffff1614612ed8576040517f08c379a0000000000000000000000000000000000000000000000000000000008152600401808060200182810382526032815260200180614fa26032913960400191505060405180910390fd5b6040518060400160405280600781526020017f5245534f4c564500000000000000000000000000000000000000000000000000815250612f178161283a565b612f89576040517f08c379a00000000000000000000000000000000000000000000000000000000081526004018080602001828103825260168152602001807f41626c653a206e616d652069732064697361626c65640000000000000000000081525060200191505060405180910390fd5b612f91612128565b15612fe457612f9e6144d5565b6009547f148a25ee2a7671350ab878ff183447de8ae5afa2ee0ae7d5ee1ad6b25c4868c260405160405180910390a26000612fd7614063565b9050612fe2816141a7565b505b50565b600660009054906101000a900473ffffffffffffffffffffffffffffffffffffffff1681565b60095481565b600e6020528160005260406000206020528060005260406000206000915091509054906101000a900460ff1681565b600560009054906101000a900473ffffffffffffffffffffffffffffffffffffffff1673ffffffffffffffffffffffffffffffffffffffff163373ffffffffffffffffffffffffffffffffffffffff16146130e8576040517f08c379a00000000000000000000000000000000000000000000000000000000081526004018080602001828103825260348152602001806150bd6034913960400191505060405180910390fd5b6040518060400160405280600781526020017f5245534f4c56450000000000000000000000000000000000000000000000000081525061312781612365565b613199576040517f08c379a00000000000000000000000000000000000000000000000000000000081526004018080602001828103825260158152602001807f41626c653a206e616d6520697320656e61626c6564000000000000000000000081525060200191505060405180910390fd5b6131bb82600a6000600954815260200190815260200160002060070154613fca565b8173ffffffffffffffffffffffffffffffffffffffff167f0f49497f1a94a8def9ec5c99c6cb026964d545cbc6e742501cd1b2b07d1ba99f600a60006009548152602001908152602001600020600701546040518082815260200191505060405180910390a25050565b600560009054906101000a900473ffffffffffffffffffffffffffffffffffffffff1673ffffffffffffffffffffffffffffffffffffffff163373ffffffffffffffffffffffffffffffffffffffff16146132cb576040517f08c379a00000000000000000000000000000000000000000000000000000000081526004018080602001828103825260348152602001806150bd6034913960400191505060405180910390fd5b6132d481614682565b50565b6040518060400160405280600581526020017f4f574e455200000000000000000000000000000000000000000000000000000081525081565b600b602052816000526040600020602052806000526040600020600091509150505481565b600460009054906101000a900473ffffffffffffffffffffffffffffffffffffffff1673ffffffffffffffffffffffffffffffffffffffff163373ffffffffffffffffffffffffffffffffffffffff16146133db576040517f08c379a0000000000000000000000000000000000000000000000000000000008152600401808060200182810382526032815260200180614fa26032913960400191505060405180910390fd5b6133e58282613fca565b8173ffffffffffffffffffffffffffffffffffffffff167f02688c924ef99d72adc11835fa071707c184455730eb94dc633e9870e1c3bcee826040518082815260200191505060405180910390a25050565b600460009054906101000a900473ffffffffffffffffffffffffffffffffffffffff1673ffffffffffffffffffffffffffffffffffffffff163373ffffffffffffffffffffffffffffffffffffffff16146134dd576040517f08c379a0000000000000000000000000000000000000000000000000000000008152600401808060200182810382526032815260200180614fa26032913960400191505060405180910390fd5b6134e7828261488d565b8173ffffffffffffffffffffffffffffffffffffffff167f7084f5476618d8e60b11ef0d7d3f06914655adb8793e28ff7f018d4c76d505d5826040518082815260200191505060405180910390a25050565b6000806000600a600086815260200190815260200160002060030160008573ffffffffffffffffffffffffffffffffffffffff1673ffffffffffffffffffffffffffffffffffffffff16815260200190815260200160002060006001151515158152602001908152602001600020549250600a600086815260200190815260200160002060030160008573ffffffffffffffffffffffffffffffffffffffff1673ffffffffffffffffffffffffffffffffffffffff16815260200190815260200160002060008015151515815260200190815260200160002054915061362882846137ab90919063ffffffff16565b90509250925092565b6000613660826002600061364487613833565b8152602001908152602001600020614a1890919063ffffffff16565b905092915050565b600c602052816000526040600020602052806000526040600020600091509150505481565b600860009054906101000a900473ffffffffffffffffffffffffffffffffffffffff1681565b600a6020528060005260406000206000915090508060000160009054906101000a900460ff16908060000160019054906101000a900460ff16908060010154908060060154908060070154908060080160009054906101000a900460ff169080600901549080600a0154905088565b60008282111561379a576040517f08c379a000000000000000000000000000000000000000000000000000000000815260040180806020018281038252601e8152602001807f536166654d6174683a207375627472616374696f6e206f766572666c6f77000081525060200191505060405180910390fd5b600082840390508091505092915050565b600080828401905083811015613829576040517f08c379a000000000000000000000000000000000000000000000000000000000815260040180806020018281038252601b8152602001807f536166654d6174683a206164646974696f6e206f766572666c6f77000000000081525060200191505060405180910390fd5b8091505092915050565b6000816040516020018082805190602001908083835b6020831061386c5780518252602082019150602081019050602083039250613849565b6001836020036101000a038019825116818451168082178552505050505050905001915050604051602081830303815290604052805190602001209050919050565b6000600a600083815260200190815260200160002060000160009054906101000a900460ff1660028111156138df57fe5b6002808111156138eb57fe5b146138f957600090506139eb565b600e60008473ffffffffffffffffffffffffffffffffffffffff1673ffffffffffffffffffffffffffffffffffffffff168152602001908152602001600020600083815260200190815260200160002060009054906101000a900460ff161561396557600090506139eb565b60006139718484613dd5565b90506001600e60008673ffffffffffffffffffffffffffffffffffffffff1673ffffffffffffffffffffffffffffffffffffffff168152602001908152602001600020600085815260200190815260200160002060006101000a81548160ff0219169083151502179055506139e68482613fca565b809150505b92915050565b600160006139fe83613833565b81526020019081526020016000205460001415613a7a576000819080600181540180825580915050906001820390600052602060002001600090919290919091509080519060200190613a52929190614efc565b505060008054905060016000613a6784613833565b8152602001908152602001600020819055505b50565b613a948185600101546137ab90919063ffffffff16565b8460010181905550613ac88185600201600085151515158152602001908152602001600020546137ab90919063ffffffff16565b8460020160008415151515815260200190815260200160002081905550613b4e818560030160008673ffffffffffffffffffffffffffffffffffffffff1673ffffffffffffffffffffffffffffffffffffffff168152602001908152602001600020600085151515158152602001908152602001600020546137ab90919063ffffffff16565b8460030160008573ffffffffffffffffffffffffffffffffffffffff1673ffffffffffffffffffffffffffffffffffffffff16815260200190815260200160002060008415151515815260200190815260200160002081905550613be581856004016000438152602001908152602001600020600085151515158152602001908152602001600020546137ab90919063ffffffff16565b846004016000438152602001908152602001600020600084151515158152602001908152602001600020819055508360050160008473ffffffffffffffffffffffffffffffffffffffff1673ffffffffffffffffffffffffffffffffffffffff16815260200190815260200160002060009054906101000a900460ff16613ce15760018460050160008573ffffffffffffffffffffffffffffffffffffffff1673ffffffffffffffffffffffffffffffffffffffff16815260200190815260200160002060006101000a81548160ff021916908315150217905550613cd8600185600601546137ab90919063ffffffff16565b84600601819055505b50505050565b613d148160026000613cf886613833565b8152602001908152602001600020614af690919063ffffffff16565b5050565b613d228282614a18565b613d77576040517f08c379a0000000000000000000000000000000000000000000000000000000008152600401808060200182810382526021815260200180614ffe6021913960400191505060405180910390fd5b60008260000160008373ffffffffffffffffffffffffffffffffffffffff1673ffffffffffffffffffffffffffffffffffffffff16815260200190815260200160002060006101000a81548160ff0219169083151502179055505050565b6000600a600083815260200190815260200160002060000160019054906101000a900460ff166002811115613e0657fe5b60006002811115613e1357fe5b1415613e225760009050613fc4565b600060016002811115613e3157fe5b600a600085815260200190815260200160002060000160019054906101000a900460ff166002811115613e6057fe5b1490506000600a600085815260200190815260200160002060020160008315151515158152602001908152602001600020549050600a600085815260200190815260200160002060080160009054906101000a900460ff1615613ee957613ee6600a600086815260200190815260200160002060070154826137ab90919063ffffffff16565b90505b6000600a600086815260200190815260200160002060030160008773ffffffffffffffffffffffffffffffffffffffff1673ffffffffffffffffffffffffffffffffffffffff1681526020019081526020016000206000841515151581526020019081526020016000205490506000600a6000878152602001908152602001600020600201600085151515158152602001908152602001600020549050613fbd82613faf83613fa18688614bd190919063ffffffff16565b614c5790919063ffffffff16565b6137ab90919063ffffffff16565b9450505050505b92915050565b61401c81600f60008573ffffffffffffffffffffffffffffffffffffffff1673ffffffffffffffffffffffffffffffffffffffff168152602001908152602001600020546137ab90919063ffffffff16565b600f60008473ffffffffffffffffffffffffffffffffffffffff1673ffffffffffffffffffffffffffffffffffffffff168152602001908152602001600020819055505050565b600080600760009054906101000a900473ffffffffffffffffffffffffffffffffffffffff1673ffffffffffffffffffffffffffffffffffffffff1663cabfd1bf600660009054906101000a900473ffffffffffffffffffffffffffffffffffffffff166040518263ffffffff1660e01b8152600401808273ffffffffffffffffffffffffffffffffffffffff1673ffffffffffffffffffffffffffffffffffffffff168152602001915050602060405180830381600087803b15801561412957600080fd5b505af115801561413d573d6000803e3d6000fd5b505050506040513d602081101561415357600080fd5b810190808051906020019092919050505090506009547f19f48f5ad18ce87f3ee918db6f8ece6244ca05188a3f986cbaad4ef1241a5dbd826040518082815260200191505060405180910390a28091505090565b600060028111156141b457fe5b600a60006141ce60016009546137ab90919063ffffffff16565b815260200190815260200160002060000160009054906101000a900460ff1660028111156141f857fe5b1461424e576040517f08c379a000000000000000000000000000000000000000000000000000000000815260040180806020018281038252603d8152602001806150f1603d913960400191505060405180910390fd5b61426460016009546137ab90919063ffffffff16565b60098190555061429181600a60006009548152602001908152602001600020614ce690919063ffffffff16565b614299614d22565b6009547f9bdc29cef4fb1c7bae8fbfe617da2974521f5b773b27c8826ba71e9edbc23b8860405160405180910390a250565b6003816040518082805190602001908083835b6020831061430157805182526020820191506020810190506020830392506142de565b6001836020036101000a038019825116818451168082178552505050505050905001915050908152602001604051809103902060009054906101000a900460ff166143b4576040517f08c379a00000000000000000000000000000000000000000000000000000000081526004018080602001828103825260158152602001807f41626c653a206e616d6520697320656e61626c6564000000000000000000000081525060200191505060405180910390fd5b60006003826040518082805190602001908083835b602083106143ec57805182526020820191506020810190506020830392506143c9565b6001836020036101000a038019825116818451168082178552505050505050905001915050908152602001604051809103902060006101000a81548160ff0219169083151502179055507fb5e827ca0218ec32f5872a8cdba7c9a069373f7ef4a2fb0c72ae0f25cf78f1c2816040518080602001828103825283818151815260200191508051906020019080838360005b8381101561449857808201518184015260208101905061447d565b50505050905090810190601f1680156144c55780820380516001836020036101000a031916815260200191505b509250505060405180910390a150565b600160028111156144e257fe5b600a6000600954815260200190815260200160002060000160009054906101000a900460ff16600281111561451357fe5b14614569576040517f08c379a000000000000000000000000000000000000000000000000000000000815260040180806020018281038252603b81526020018061512e603b913960400191505060405180910390fd5b614586600a60006009548152602001908152602001600020614d68565b600d60009054906101000a900460ff1660028111156145a157fe5b600a6000600954815260200190815260200160002060000160019054906101000a900460ff1660028111156145d257fe5b1461465157600a6000600954815260200190815260200160002060000160019054906101000a900460ff16600d60006101000a81548160ff0219169083600281111561461a57fe5b02179055506001600a6000600954815260200190815260200160002060080160006101000a81548160ff0219169083151502179055505b6009547f9feea6fd2bc175ea5210b97c9f21684984af26aa9a2aa1049dad999cf094289d60405160405180910390a2565b6003816040518082805190602001908083835b602083106146b85780518252602082019150602081019050602083039250614695565b6001836020036101000a038019825116818451168082178552505050505050905001915050908152602001604051809103902060009054906101000a900460ff161561476c576040517f08c379a00000000000000000000000000000000000000000000000000000000081526004018080602001828103825260168152602001807f41626c653a206e616d652069732064697361626c65640000000000000000000081525060200191505060405180910390fd5b60016003826040518082805190602001908083835b602083106147a45780518252602082019150602081019050602083039250614781565b6001836020036101000a038019825116818451168082178552505050505050905001915050908152602001604051809103902060006101000a81548160ff0219169083151502179055507f1429691d4b3ebbe1b946e4625c94bd72f57e8d9f73242f97d7c968072cb891b9816040518080602001828103825283818151815260200191508051906020019080838360005b83811015614850578082015181840152602081019050614835565b50505050905090810190601f16801561487d5780820380516001836020036101000a031916815260200191505b509250505060405180910390a150565b600f60008373ffffffffffffffffffffffffffffffffffffffff1673ffffffffffffffffffffffffffffffffffffffff16815260200190815260200160002054811115614925576040517f08c379a00000000000000000000000000000000000000000000000000000000081526004018080602001828103825260368152602001806150626036913960400191505060405180910390fd5b61492f8282614e63565b600860009054906101000a900473ffffffffffffffffffffffffffffffffffffffff1673ffffffffffffffffffffffffffffffffffffffff1663a9059cbb83836040518363ffffffff1660e01b8152600401808373ffffffffffffffffffffffffffffffffffffffff1673ffffffffffffffffffffffffffffffffffffffff16815260200182815260200192505050602060405180830381600087803b1580156149d857600080fd5b505af11580156149ec573d6000803e3d6000fd5b505050506040513d6020811015614a0257600080fd5b8101908080519060200190929190505050505050565b60008073ffffffffffffffffffffffffffffffffffffffff168273ffffffffffffffffffffffffffffffffffffffff161415614a9f576040517f08c379a00000000000000000000000000000000000000000000000000000000081526004018080602001828103825260228152602001806150406022913960400191505060405180910390fd5b8260000160008373ffffffffffffffffffffffffffffffffffffffff1673ffffffffffffffffffffffffffffffffffffffff16815260200190815260200160002060009054906101000a900460ff16905092915050565b614b008282614a18565b15614b73576040517f08c379a000000000000000000000000000000000000000000000000000000000815260040180806020018281038252601f8152602001807f526f6c65733a206163636f756e7420616c72656164792068617320726f6c650081525060200191505060405180910390fd5b60018260000160008373ffffffffffffffffffffffffffffffffffffffff1673ffffffffffffffffffffffffffffffffffffffff16815260200190815260200160002060006101000a81548160ff0219169083151502179055505050565b600080831415614be45760009050614c51565b6000828402905082848281614bf557fe5b0414614c4c576040517f08c379a000000000000000000000000000000000000000000000000000000000815260040180806020018281038252602181526020018061501f6021913960400191505060405180910390fd5b809150505b92915050565b6000808211614cce576040517f08c379a000000000000000000000000000000000000000000000000000000000815260040180806020018281038252601a8152602001807f536166654d6174683a206469766973696f6e206279207a65726f00000000000081525060200191505060405180910390fd5b6000828481614cd957fe5b0490508091505092915050565b60018260000160006101000a81548160ff02191690836002811115614d0757fe5b02179055508082600701819055504382600901819055505050565b600a60006009548152602001908152602001600020600b016010549080600181540180825580915050906001820390600052602060002001600090919290919091505550565b60028160000160006101000a81548160ff02191690836002811115614d8957fe5b02179055504381600a018190555080600201600080151515158152602001908152602001600020548160020160006001151515158152602001908152602001600020541115614dfd5760018160000160016101000a81548160ff02191690836002811115614df357fe5b0217905550614e60565b80600201600080151515158152602001908152602001600020548160020160006001151515158152602001908152602001600020541015614e5f5760028160000160016101000a81548160ff02191690836002811115614e5957fe5b02179055505b5b50565b614eb581600f60008573ffffffffffffffffffffffffffffffffffffffff1673ffffffffffffffffffffffffffffffffffffffff1681526020019081526020016000205461372290919063ffffffff16565b600f60008473ffffffffffffffffffffffffffffffffffffffff1673ffffffffffffffffffffffffffffffffffffffff168152602001908152602001600020819055505050565b828054600181600116156101000203166002900490600052602060002090601f016020900481019282601f10614f3d57805160ff1916838001178555614f6b565b82800160010185558215614f6b579182015b82811115614f6a578251825591602001919060010190614f4f565b5b509050614f789190614f7c565b5090565b614f9e91905b80821115614f9a576000816000905550600101614f82565b5090565b9056fe5265736f6c7574696f6e456e67696e653a2073656e646572206973206e6f742074686520646566696e6564206f7261636c655242414365643a2073656e646572206973206e6f74206163636573736f72206f662074686520726f6c65526f6c65733a206163636f756e7420646f6573206e6f74206861766520726f6c65536166654d6174683a206d756c7469706c69636174696f6e206f766572666c6f77526f6c65733a206163636f756e7420697320746865207a65726f20616464726573735265736f6c7574696f6e456e67696e653a20616d6f756e742069732067726561746572207468616e2073746167656420616d6f756e745265736f6c7574696f6e456e67696e653a20616c726561647920696e697469616c697a65645265736f6c7574696f6e456e67696e653a2073656e646572206973206e6f742074686520646566696e6564206f70657261746f725265736f6c7574696f6e456e67696e653a20766572696669636174696f6e207068617365206973206e6f7420696e20756e6f70656e65642073746174655265736f6c7574696f6e456e67696e653a20766572696669636174696f6e207068617365206973206e6f7420696e206f70656e65642073746174655265736f6c7574696f6e456e67696e653a206d697373696e6720626f756e747920616c6c6f6361746f72a265627a7a72315820d289c1db74b1fdd375c4d163e0cc8af0d676f0bc26f62b73bff54ff05964af7f64736f6c634300050b0032526f6c65733a206163636f756e7420697320746865207a65726f2061646472657373",
  "source": "/*\n * Lottery oracle\n *\n * Copyright (C) 2017-2019 Hubii AS\n */\n\npragma solidity ^0.5.11;\n\nimport {Resolvable} from \"./Resolvable.sol\";\nimport {ResolutionEngine} from \"./ResolutionEngine.sol\";\n\n/// @title NaiveTotalResolutionEngine\n/// @author Jens Ivar Jrdre <jensivar@hubii.com>\n/// @notice A nave total resolution engine\n/// Resolve the staking market when:\n/// - The total number of tokens staked on either option reaches the defined amount criterion\ncontract NaiveTotalResolutionEngine is Resolvable, ResolutionEngine {\n\n    event NextAmountSet(uint256 amount);\n\n    uint256 public nextAmount;\n\n    /// @notice `msg.sender` will be added as accessor to the owner role\n    /// @param _oracle The address of oracle\n    /// @param _operator The address of operator\n    /// @param _bountyFund The address of bounty fund\n    /// @param _nextAmount The next amount criterion of this resolution engine\n    constructor(address _oracle, address _operator, address _bountyFund,\n        uint256 _nextAmount)\n    public\n    ResolutionEngine(_oracle, _operator, _bountyFund)\n    {\n        nextAmount = _nextAmount;\n    }\n\n    /// @notice Return the amount needed to resolve the current market for the given status\n    /// @param _status The concerned status\n    /// @return the amount needed to obtain to resolve the market\n    function resolutionDeltaAmount(bool _status)\n    public\n    view\n    returns (uint256)\n    {\n        return (\n        amountByPhaseNumber(verificationPhaseNumber) >\n        verificationPhaseByPhaseNumber[verificationPhaseNumber].stakedAmountByStatus[_status] ?\n        amountByPhaseNumber(verificationPhaseNumber).sub(\n            verificationPhaseByPhaseNumber[verificationPhaseNumber].stakedAmountByStatus[_status]\n        ) :\n        0\n        );\n    }\n\n    /// @notice Gauge whether the resolution criteria have been met\n    /// @return true if resolution criteria have been met, else false\n    function resolutionCriteriaMet()\n    public\n    view\n    returns (bool)\n    {\n        return verificationPhaseByPhaseNumber[verificationPhaseNumber].stakedAmountByStatus[true] >=\n        amountByPhaseNumber(verificationPhaseNumber) ||\n        verificationPhaseByPhaseNumber[verificationPhaseNumber].stakedAmountByStatus[false] >=\n        amountByPhaseNumber(verificationPhaseNumber);\n    }\n\n\n    /// @notice Set the next amount criterion\n    /// @dev Only enabled when the resolution engine is not frozen\n    /// @param _nextAmount The next amount\n    function setNextAmount(uint256 _nextAmount)\n    public\n    onlyRoleAccessor(OWNER_ROLE)\n    onlyNotFrozen\n    {\n        // Set the amount\n        nextAmount = _nextAmount;\n\n        // Emit event\n        emit NextAmountSet(nextAmount);\n    }\n\n    /// @notice Get the amount parameter by the given verification phase number\n    /// @param _verificationPhaseNumber The concerned verification phase number\n    /// @return the amount value\n    function amountByPhaseNumber(uint256 _verificationPhaseNumber)\n    public\n    view\n    returns (uint256)\n    {\n        return verificationPhaseByPhaseNumber[_verificationPhaseNumber].uintCriteria[0];\n    }\n\n    /// @notice Augment the verification phase with verification criteria params\n    function _addVerificationCriteria()\n    internal\n    {\n        verificationPhaseByPhaseNumber[verificationPhaseNumber].uintCriteria.push(nextAmount);\n    }\n}\n",
  "sourcePath": "/opt/buildagent/work/9988d0feca52d9d9/contracts/NaiveTotalResolutionEngine.sol",
  "compiler": {
    "name": "solc",
    "version": "0.5.11+commit.c082d0b4.Emscripten.clang"
  },
  "schemaVersion": "3.0.16",
  "updatedAt": "2019-09-23T20:10:28.973Z",
  "devdoc": {
    "author": "Jens Ivar Jrdre <jensivar@hubii.com>",
    "methods": {
      "addRole(string)": {
        "params": {
          "_role": "The concerned role"
        }
      },
      "addRoleAccessor(string,address)": {
        "params": {
          "_address": "The concerned address",
          "_role": "The concerned role"
        }
      },
      "amountByPhaseNumber(uint256)": {
        "params": {
          "_verificationPhaseNumber": "The concerned verification phase number"
        },
        "return": "the amount value"
      },
      "calculatePayout(address,uint256,uint256)": {
        "params": {
          "_firstVerificationPhaseNumber": "The first verification phase number to stage payout from",
          "_lastVerificationPhaseNumber": "The last verification phase number to stage payout from",
          "_wallet": "The address of the concerned wallet"
        },
        "return": "the payout"
      },
      "constructor": {
        "params": {
          "_bountyFund": "The address of bounty fund",
          "_nextAmount": "The next amount criterion of this resolution engine",
          "_operator": "The address of operator",
          "_oracle": "The address of oracle"
        }
      },
      "disable(string)": {
        "params": {
          "_action": "The action to disable"
        }
      },
      "disabled(string)": {
        "params": {
          "_name": "The name to gauge"
        }
      },
      "enable(string)": {
        "params": {
          "_action": "The action to enable"
        }
      },
      "enabled(string)": {
        "params": {
          "_name": "The name to gauge"
        }
      },
      "freeze()": {
        "details": "This operation can not be undone"
      },
      "isRole(string)": {
        "params": {
          "_role": "The concerned role"
        },
        "return": "true if role has been set, else false"
      },
      "isRoleAccessor(string,address)": {
        "params": {
          "_address": "The concerned address",
          "_role": "The concerned role"
        },
        "return": "true if address is the one of a registered accessor of role, else false"
      },
      "metricsByBlockNumber(uint256)": {
        "details": "Reverts if provided block number is higher than current block number",
        "params": {
          "_blockNumber": "The concerned block number"
        },
        "return": "the metrics"
      },
      "metricsByVerificationPhaseNumber(uint256)": {
        "params": {
          "_verificationPhaseNumber": "The concerned verification phase number"
        },
        "return": "the metrics"
      },
      "metricsByVerificationPhaseNumberAndWallet(uint256,address)": {
        "details": "Reverts if provided verification phase number is higher than current verification phase number",
        "params": {
          "_verificationPhaseNumber": "The concerned verification phase number",
          "_wallet": "The address of the concerned wallet"
        },
        "return": "the metrics"
      },
      "metricsByWallet(address)": {
        "params": {
          "_wallet": "The address of the concerned wallet"
        },
        "return": "the metrics"
      },
      "removeRoleAccessor(string,address)": {
        "params": {
          "_address": "The concerned address",
          "_role": "The concerned role"
        }
      },
      "resolutionCriteriaMet()": {
        "return": "true if resolution criteria have been met, else false"
      },
      "resolutionDeltaAmount(bool)": {
        "params": {
          "_status": "The concerned status"
        },
        "return": "the amount needed to obtain to resolve the market"
      },
      "resolveIfCriteriaMet()": {
        "details": "The function can only be called by oracle. be the current verification phase number"
      },
      "rolesCount()": {
        "return": "the count of roles"
      },
      "setBountyAllocator(address)": {
        "params": {
          "_bountyAllocator": "The bounty allocator to be set"
        }
      },
      "setNextAmount(uint256)": {
        "details": "Only enabled when the resolution engine is not frozen",
        "params": {
          "_nextAmount": "The next amount"
        }
      },
      "stage(address,uint256)": {
        "details": "The function can only be called by oracle.",
        "params": {
          "_amount": "The amount to be staged",
          "_wallet": "The address of the concerned wallet"
        }
      },
      "stageBounty(address)": {
        "params": {
          "_wallet": "The recipient address of the bounty transfer"
        }
      },
      "stagePayout(address,uint256,uint256)": {
        "details": "The function can only be called by oracle.",
        "params": {
          "_firstVerificationPhaseNumber": "The first verification phase number to stage payout from",
          "_lastVerificationPhaseNumber": "The last verification phase number to stage payout from",
          "_wallet": "The address of the concerned wallet"
        }
      },
      "stageStake(address)": {
        "details": "The function can only be called by oracle and when resolve action has been disabled",
        "params": {
          "_wallet": "The address of the concerned wallet"
        }
      },
      "stake(address,bool,uint256)": {
        "details": "The function can only be called by oracle.",
        "params": {
          "_amount": "The amount staked",
          "_status": "The status staked at",
          "_wallet": "The concerned wallet"
        }
      },
      "withdraw(address,uint256)": {
        "details": "The function can only be called by oracle.",
        "params": {
          "_amount": "The amount to be withdrawn",
          "_wallet": "The address of the concerned wallet"
        }
      }
    },
    "title": "NaiveTotalResolutionEngine"
  },
  "userdoc": {
    "methods": {
      "addRole(string)": {
        "notice": "Add role"
      },
      "addRoleAccessor(string,address)": {
        "notice": "Register an address as accessor of a role"
      },
      "amountByPhaseNumber(uint256)": {
        "notice": "Get the amount parameter by the given verification phase number"
      },
      "calculatePayout(address,uint256,uint256)": {
        "notice": "Calculate the payout accrued by given wallet in the inclusive range of given verification phase numbers"
      },
      "constructor": "`msg.sender` will be added as accessor to the owner role",
      "disable(string)": {
        "notice": "Disable the given action"
      },
      "disabled(string)": {
        "notice": "Gauge whether the name is disable"
      },
      "enable(string)": {
        "notice": "Enable the given action"
      },
      "enabled(string)": {
        "notice": "Gauge whether the name is enabled"
      },
      "freeze()": {
        "notice": "Freeze this resolution engine"
      },
      "initialize()": {
        "notice": "Initialize the engine"
      },
      "isRole(string)": {
        "notice": "Gauge whether a role is set"
      },
      "isRoleAccessor(string,address)": {
        "notice": "Gauge whether an address is an accessor of a role"
      },
      "metricsByBlockNumber(uint256)": {
        "notice": "Get the metrics for the block"
      },
      "metricsByVerificationPhaseNumber(uint256)": {
        "notice": "Get the metrics for the given verification phase number"
      },
      "metricsByVerificationPhaseNumberAndWallet(uint256,address)": {
        "notice": "Get the metrics for the given verification phase number and wallet"
      },
      "metricsByWallet(address)": {
        "notice": "Get the metrics for the wallet"
      },
      "removeRoleAccessor(string,address)": {
        "notice": "Deregister an address as accessor of a role"
      },
      "resolutionCriteriaMet()": {
        "notice": "Gauge whether the resolution criteria have been met"
      },
      "resolutionDeltaAmount(bool)": {
        "notice": "Return the amount needed to resolve the current market for the given status"
      },
      "resolveIfCriteriaMet()": {
        "notice": "Resolve the market in the current verification phase if resolution criteria have been met"
      },
      "rolesCount()": {
        "notice": "Get the count of roles"
      },
      "setBountyAllocator(address)": {
        "notice": "Set the bounty allocator"
      },
      "setNextAmount(uint256)": {
        "notice": "Set the next amount criterion"
      },
      "stage(address,uint256)": {
        "notice": "Stage the given amount"
      },
      "stageBounty(address)": {
        "notice": "Stage the bounty to the given address"
      },
      "stagePayout(address,uint256,uint256)": {
        "notice": "Stage the payout accrued by given wallet in the inclusive range of given verification phase numbers"
      },
      "stageStake(address)": {
        "notice": "Stage the amount staked in the current verification phase"
      },
      "stake(address,bool,uint256)": {
        "notice": "Stake by updating metrics"
      },
      "withdraw(address,uint256)": {
        "notice": "Withdraw the given amount"
      }
    },
    "notice": "A nave total resolution engine Resolve the staking market when: - The total number of tokens staked on either option reaches the defined amount criterion"
  }
}