{
  "contractName": "Operator",
  "abi": [
    {
      "constant": true,
      "inputs": [],
      "name": "frozen",
      "outputs": [
        {
          "internalType": "bool",
          "name": "",
          "type": "bool"
        }
      ],
      "payable": false,
      "stateMutability": "view",
      "type": "function"
    },
    {
      "constant": true,
      "inputs": [
        {
          "internalType": "address",
          "name": "",
          "type": "address"
        }
      ],
      "name": "disablementTimeoutByResolutionEngine",
      "outputs": [
        {
          "internalType": "uint256",
          "name": "",
          "type": "uint256"
        }
      ],
      "payable": false,
      "stateMutability": "view",
      "type": "function"
    },
    {
      "constant": true,
      "inputs": [
        {
          "internalType": "string",
          "name": "_role",
          "type": "string"
        }
      ],
      "name": "isRole",
      "outputs": [
        {
          "internalType": "bool",
          "name": "",
          "type": "bool"
        }
      ],
      "payable": false,
      "stateMutability": "view",
      "type": "function"
    },
    {
      "constant": false,
      "inputs": [
        {
          "internalType": "string",
          "name": "_role",
          "type": "string"
        }
      ],
      "name": "addRole",
      "outputs": [],
      "payable": false,
      "stateMutability": "nonpayable",
      "type": "function"
    },
    {
      "constant": false,
      "inputs": [
        {
          "internalType": "string",
          "name": "_role",
          "type": "string"
        },
        {
          "internalType": "address",
          "name": "_address",
          "type": "address"
        }
      ],
      "name": "addRoleAccessor",
      "outputs": [],
      "payable": false,
      "stateMutability": "nonpayable",
      "type": "function"
    },
    {
      "constant": false,
      "inputs": [
        {
          "internalType": "string",
          "name": "_role",
          "type": "string"
        },
        {
          "internalType": "address",
          "name": "_address",
          "type": "address"
        }
      ],
      "name": "removeRoleAccessor",
      "outputs": [],
      "payable": false,
      "stateMutability": "nonpayable",
      "type": "function"
    },
    {
      "constant": true,
      "inputs": [],
      "name": "rolesCount",
      "outputs": [
        {
          "internalType": "uint256",
          "name": "",
          "type": "uint256"
        }
      ],
      "payable": false,
      "stateMutability": "view",
      "type": "function"
    },
    {
      "constant": true,
      "inputs": [
        {
          "internalType": "uint256",
          "name": "",
          "type": "uint256"
        }
      ],
      "name": "roles",
      "outputs": [
        {
          "internalType": "string",
          "name": "",
          "type": "string"
        }
      ],
      "payable": false,
      "stateMutability": "view",
      "type": "function"
    },
    {
      "constant": true,
      "inputs": [],
      "name": "minimumTimeout",
      "outputs": [
        {
          "internalType": "uint256",
          "name": "",
          "type": "uint256"
        }
      ],
      "payable": false,
      "stateMutability": "view",
      "type": "function"
    },
    {
      "constant": true,
      "inputs": [],
      "name": "OWNER_ROLE",
      "outputs": [
        {
          "internalType": "string",
          "name": "",
          "type": "string"
        }
      ],
      "payable": false,
      "stateMutability": "view",
      "type": "function"
    },
    {
      "constant": true,
      "inputs": [
        {
          "internalType": "string",
          "name": "_role",
          "type": "string"
        },
        {
          "internalType": "address",
          "name": "_address",
          "type": "address"
        }
      ],
      "name": "isRoleAccessor",
      "outputs": [
        {
          "internalType": "bool",
          "name": "",
          "type": "bool"
        }
      ],
      "payable": false,
      "stateMutability": "view",
      "type": "function"
    },
    {
      "inputs": [
        {
          "internalType": "uint256",
          "name": "_minimumTimeout",
          "type": "uint256"
        }
      ],
      "payable": false,
      "stateMutability": "nonpayable",
      "type": "constructor"
    },
    {
      "anonymous": false,
      "inputs": [],
      "name": "Frozen",
      "type": "event"
    },
    {
      "anonymous": false,
      "inputs": [
        {
          "indexed": true,
          "internalType": "address",
          "name": "_resolutionEngine",
          "type": "address"
        },
        {
          "indexed": false,
          "internalType": "uint256",
          "name": "_timeout",
          "type": "uint256"
        }
      ],
      "name": "DisablementTimerStarted",
      "type": "event"
    },
    {
      "anonymous": false,
      "inputs": [
        {
          "indexed": true,
          "internalType": "address",
          "name": "_resolutionEngine",
          "type": "address"
        }
      ],
      "name": "DisablementTimerStopped",
      "type": "event"
    },
    {
      "anonymous": false,
      "inputs": [
        {
          "indexed": true,
          "internalType": "address",
          "name": "_resolutionEngine",
          "type": "address"
        }
      ],
      "name": "Disabled",
      "type": "event"
    },
    {
      "anonymous": false,
      "inputs": [
        {
          "indexed": true,
          "internalType": "address",
          "name": "_resolutionEngine",
          "type": "address"
        }
      ],
      "name": "AllocatedBountyWithdrawn",
      "type": "event"
    },
    {
      "anonymous": false,
      "inputs": [
        {
          "indexed": true,
          "internalType": "address",
          "name": "_bountyFund",
          "type": "address"
        }
      ],
      "name": "UnallocatedBountyWithdrawn",
      "type": "event"
    },
    {
      "anonymous": false,
      "inputs": [
        {
          "indexed": false,
          "internalType": "uint256",
          "name": "minimumTimeout",
          "type": "uint256"
        }
      ],
      "name": "MinimumTimeoutSet",
      "type": "event"
    },
    {
      "anonymous": false,
      "inputs": [
        {
          "indexed": false,
          "internalType": "string",
          "name": "_role",
          "type": "string"
        }
      ],
      "name": "RoleAdded",
      "type": "event"
    },
    {
      "anonymous": false,
      "inputs": [
        {
          "indexed": false,
          "internalType": "string",
          "name": "_role",
          "type": "string"
        },
        {
          "indexed": true,
          "internalType": "address",
          "name": "_address",
          "type": "address"
        }
      ],
      "name": "RoleAccessorAdded",
      "type": "event"
    },
    {
      "anonymous": false,
      "inputs": [
        {
          "indexed": false,
          "internalType": "string",
          "name": "_role",
          "type": "string"
        },
        {
          "indexed": true,
          "internalType": "address",
          "name": "_address",
          "type": "address"
        }
      ],
      "name": "RoleAccessorRemoved",
      "type": "event"
    },
    {
      "constant": false,
      "inputs": [],
      "name": "freeze",
      "outputs": [],
      "payable": false,
      "stateMutability": "nonpayable",
      "type": "function"
    },
    {
      "constant": false,
      "inputs": [
        {
          "internalType": "address",
          "name": "_resolutionEngine",
          "type": "address"
        },
        {
          "internalType": "uint256",
          "name": "_timeout",
          "type": "uint256"
        }
      ],
      "name": "startDisablementTimer",
      "outputs": [],
      "payable": false,
      "stateMutability": "nonpayable",
      "type": "function"
    },
    {
      "constant": false,
      "inputs": [
        {
          "internalType": "address",
          "name": "_resolutionEngine",
          "type": "address"
        }
      ],
      "name": "stopDisablementTimer",
      "outputs": [],
      "payable": false,
      "stateMutability": "nonpayable",
      "type": "function"
    },
    {
      "constant": true,
      "inputs": [
        {
          "internalType": "address",
          "name": "_resolutionEngine",
          "type": "address"
        }
      ],
      "name": "isDisablementTimerExpired",
      "outputs": [
        {
          "internalType": "bool",
          "name": "",
          "type": "bool"
        }
      ],
      "payable": false,
      "stateMutability": "view",
      "type": "function"
    },
    {
      "constant": false,
      "inputs": [
        {
          "internalType": "address",
          "name": "_resolutionEngine",
          "type": "address"
        }
      ],
      "name": "disable",
      "outputs": [],
      "payable": false,
      "stateMutability": "nonpayable",
      "type": "function"
    },
    {
      "constant": false,
      "inputs": [
        {
          "internalType": "address",
          "name": "_resolutionEngine",
          "type": "address"
        },
        {
          "internalType": "address",
          "name": "_wallet",
          "type": "address"
        }
      ],
      "name": "withdrawAllocatedBounty",
      "outputs": [],
      "payable": false,
      "stateMutability": "nonpayable",
      "type": "function"
    },
    {
      "constant": false,
      "inputs": [
        {
          "internalType": "address",
          "name": "_bountyFund",
          "type": "address"
        },
        {
          "internalType": "address",
          "name": "_wallet",
          "type": "address"
        }
      ],
      "name": "withdrawUnallocatedBounty",
      "outputs": [],
      "payable": false,
      "stateMutability": "nonpayable",
      "type": "function"
    },
    {
      "constant": false,
      "inputs": [
        {
          "internalType": "uint256",
          "name": "_minimumTimeout",
          "type": "uint256"
        }
      ],
      "name": "setMinimumTimeout",
      "outputs": [],
      "payable": false,
      "stateMutability": "nonpayable",
      "type": "function"
    }
  ],
  "bytecode": "0x60806040523480156200001157600080fd5b5060405162002cf638038062002cf6833981810160405260208110156200003757600080fd5b81019080805190602001909291905050506200008e6040518060400160405280600581526020017f4f574e4552000000000000000000000000000000000000000000000000000000815250620000e360201b60201c565b620000d56040518060400160405280600581526020017f4f574e4552000000000000000000000000000000000000000000000000000000815250336200018260201b60201c565b8060048190555050620004b2565b60016000620000f883620001c260201b60201c565b815260200190815260200160002054600014156200017f5760008190806001815401808255809150509060018203906000526020600020016000909192909190915090805190602001906200014f92919062000403565b5050600080549050600160006200016c84620001c260201b60201c565b8152602001908152602001600020819055505b50565b620001be81600260006200019c86620001c260201b60201c565b81526020019081526020016000206200023f60201b6200255c1790919060201c565b5050565b6000816040516020018082805190602001908083835b60208310620001fd5780518252602082019150602081019050602083039250620001d8565b6001836020036101000a038019825116818451168082178552505050505050905001915050604051602081830303815290604052805190602001209050919050565b6200025182826200032360201b60201c565b15620002c5576040517f08c379a000000000000000000000000000000000000000000000000000000000815260040180806020018281038252601f8152602001807f526f6c65733a206163636f756e7420616c72656164792068617320726f6c650081525060200191505060405180910390fd5b60018260000160008373ffffffffffffffffffffffffffffffffffffffff1673ffffffffffffffffffffffffffffffffffffffff16815260200190815260200160002060006101000a81548160ff0219169083151502179055505050565b60008073ffffffffffffffffffffffffffffffffffffffff168273ffffffffffffffffffffffffffffffffffffffff161415620003ac576040517f08c379a000000000000000000000000000000000000000000000000000000000815260040180806020018281038252602281526020018062002cd46022913960400191505060405180910390fd5b8260000160008373ffffffffffffffffffffffffffffffffffffffff1673ffffffffffffffffffffffffffffffffffffffff16815260200190815260200160002060009054906101000a900460ff16905092915050565b828054600181600116156101000203166002900490600052602060002090601f016020900481019282601f106200044657805160ff191683800117855562000477565b8280016001018555821562000477579182015b828111156200047657825182559160200191906001019062000459565b5b5090506200048691906200048a565b5090565b620004af91905b80821115620004ab57600081600090555060010162000491565b5090565b90565b61281280620004c26000396000f3fe608060405234801561001057600080fd5b50600436106101215760003560e01c80637aea444e116100ad578063bfda4a4911610071578063bfda4a49146106f0578063d8294ede14610797578063e58378bb146107b5578063e6c09edf14610838578063fb535fd61461087c57610121565b80637aea444e146105805780637c0dc5b3146105dc5780637d00f8f71461062a578063a52803671461066e578063b8517dd8146106d257610121565b806322554f70116100f457806322554f70146102d75780633e96e868146103055780634da195be146103c05780635b0f833a1461049b57806362a5af3b1461057657610121565b8063054f7d9c146101265780630740606c146101485780630f6c37de146101a05780632071c56c14610273575b600080fd5b61012e61096f565b604051808215151515815260200191505060405180910390f35b61018a6004803603602081101561015e57600080fd5b81019080803573ffffffffffffffffffffffffffffffffffffffff169060200190929190505050610982565b6040518082815260200191505060405180910390f35b610259600480360360208110156101b657600080fd5b81019080803590602001906401000000008111156101d357600080fd5b8201836020820111156101e557600080fd5b8035906020019184600183028401116401000000008311171561020757600080fd5b91908080601f016020809104026020016040519081016040528093929190818152602001838380828437600081840152601f19601f82011690508083019250505050505050919291929050505061099a565b604051808215151515815260200191505060405180910390f35b6102d56004803603604081101561028957600080fd5b81019080803573ffffffffffffffffffffffffffffffffffffffff169060200190929190803573ffffffffffffffffffffffffffffffffffffffff1690602001909291905050506109c3565b005b610303600480360360208110156102ed57600080fd5b8101908080359060200190929190505050610e47565b005b6103be6004803603602081101561031b57600080fd5b810190808035906020019064010000000081111561033857600080fd5b82018360208201111561034a57600080fd5b8035906020019184600183028401116401000000008311171561036c57600080fd5b91908080601f016020809104026020016040519081016040528093929190818152602001838380828437600081840152601f19601f820116905080830192505050505050509192919290505050610fa3565b005b610499600480360360408110156103d657600080fd5b81019080803590602001906401000000008111156103f357600080fd5b82018360208201111561040557600080fd5b8035906020019184600183028401116401000000008311171561042757600080fd5b91908080601f016020809104026020016040519081016040528093929190818152602001838380828437600081840152601f19601f820116905080830192505050505050509192919290803573ffffffffffffffffffffffffffffffffffffffff1690602001909291905050506110e1565b005b610574600480360360408110156104b157600080fd5b81019080803590602001906401000000008111156104ce57600080fd5b8201836020820111156104e057600080fd5b8035906020019184600183028401116401000000008311171561050257600080fd5b91908080601f016020809104026020016040519081016040528093929190818152602001838380828437600081840152601f19601f820116905080830192505050505050509192919290803573ffffffffffffffffffffffffffffffffffffffff169060200190929190505050611238565b005b61057e6113b2565b005b6105c26004803603602081101561059657600080fd5b81019080803573ffffffffffffffffffffffffffffffffffffffff169060200190929190505050611491565b604051808215151515815260200191505060405180910390f35b610628600480360360408110156105f257600080fd5b81019080803573ffffffffffffffffffffffffffffffffffffffff169060200190929190803590602001909291905050506114dd565b005b61066c6004803603602081101561064057600080fd5b81019080803573ffffffffffffffffffffffffffffffffffffffff1690602001909291905050506118c9565b005b6106d06004803603604081101561068457600080fd5b81019080803573ffffffffffffffffffffffffffffffffffffffff169060200190929190803573ffffffffffffffffffffffffffffffffffffffff169060200190929190505050611bfe565b005b6106da611d78565b6040518082815260200191505060405180910390f35b61071c6004803603602081101561070657600080fd5b8101908080359060200190929190505050611d84565b6040518080602001828103825283818151815260200191508051906020019080838360005b8381101561075c578082015181840152602081019050610741565b50505050905090810190601f1680156107895780820380516001836020036101000a031916815260200191505b509250505060405180910390f35b61079f611e3d565b6040518082815260200191505060405180910390f35b6107bd611e43565b6040518080602001828103825283818151815260200191508051906020019080838360005b838110156107fd5780820151818401526020810190506107e2565b50505050905090810190601f16801561082a5780820380516001836020036101000a031916815260200191505b509250505060405180910390f35b61087a6004803603602081101561084e57600080fd5b81019080803573ffffffffffffffffffffffffffffffffffffffff169060200190929190505050611e7c565b005b6109556004803603604081101561089257600080fd5b81019080803590602001906401000000008111156108af57600080fd5b8201836020820111156108c157600080fd5b803590602001918460018302840111640100000000831117156108e357600080fd5b91908080601f016020809104026020016040519081016040528093929190818152602001838380828437600081840152601f19601f820116905080830192505050505050509192919290803573ffffffffffffffffffffffffffffffffffffffff1690602001909291905050506121ca565b604051808215151515815260200191505060405180910390f35b600360009054906101000a900460ff1681565b60056020528060005260406000206000915090505481565b6000600160006109a984612201565b815260200190815260200160002054600014159050919050565b6040518060400160405280600581526020017f4f574e4552000000000000000000000000000000000000000000000000000000815250610a0381336121ca565b610a58576040517f08c379a000000000000000000000000000000000000000000000000000000000815260040180806020018281038252602a815260200180612716602a913960400191505060405180910390fd5b600083905060008173ffffffffffffffffffffffffffffffffffffffff1663bb7efd196040518163ffffffff1660e01b815260040160206040518083038186803b158015610aa557600080fd5b505afa158015610ab9573d6000803e3d6000fd5b505050506040513d6020811015610acf57600080fd5b810190808051906020019092919050505090508073ffffffffffffffffffffffffffffffffffffffff16635b5268118273ffffffffffffffffffffffffffffffffffffffff1663a1f6c9596040518163ffffffff1660e01b815260040160006040518083038186803b158015610b4457600080fd5b505afa158015610b58573d6000803e3d6000fd5b505050506040513d6000823e3d601f19601f820116820180604052506020811015610b8257600080fd5b8101908080516040519392919084640100000000821115610ba257600080fd5b83820191506020820185811115610bb857600080fd5b8251866001820283011164010000000082111715610bd557600080fd5b8083526020830192505050908051906020019080838360005b83811015610c09578082015181840152602081019050610bee565b50505050905090810190601f168015610c365780820380516001836020036101000a031916815260200191505b506040525050506040518263ffffffff1660e01b81526004018080602001828103825283818151815260200191508051906020019080838360005b83811015610c8c578082015181840152602081019050610c71565b50505050905090810190601f168015610cb95780820380516001836020036101000a031916815260200191505b509250505060206040518083038186803b158015610cd657600080fd5b505afa158015610cea573d6000803e3d6000fd5b505050506040513d6020811015610d0057600080fd5b8101908080519060200190929190505050610d66576040517f08c379a00000000000000000000000000000000000000000000000000000000081526004018080602001828103825260398152602001806126dd6039913960400191505060405180910390fd5b8173ffffffffffffffffffffffffffffffffffffffff166351cff8d9856040518263ffffffff1660e01b8152600401808273ffffffffffffffffffffffffffffffffffffffff1673ffffffffffffffffffffffffffffffffffffffff168152602001915050600060405180830381600087803b158015610de557600080fd5b505af1158015610df9573d6000803e3d6000fd5b505050508473ffffffffffffffffffffffffffffffffffffffff167f671a8e6b48ea424cc911c48865e5869eaeaa4b65bf9edd971ac9914a6704b12a60405160405180910390a25050505050565b6040518060400160405280600581526020017f4f574e4552000000000000000000000000000000000000000000000000000000815250610e8781336121ca565b610edc576040517f08c379a000000000000000000000000000000000000000000000000000000000815260040180806020018281038252602a815260200180612716602a913960400191505060405180910390fd5b600360009054906101000a900460ff1615610f5f576040517f08c379a00000000000000000000000000000000000000000000000000000000081526004018080602001828103825260138152602001807f4f70657261746f723a2069732066726f7a656e0000000000000000000000000081525060200191505060405180910390fd5b816004819055507f0399e0d52b417b93f3bdefb82d4ba7eab1b22fa9740ed45ab7d9f793e0bbf0f26004546040518082815260200191505060405180910390a15050565b6040518060400160405280600581526020017f4f574e4552000000000000000000000000000000000000000000000000000000815250610fe381336121ca565b611038576040517f08c379a000000000000000000000000000000000000000000000000000000000815260040180806020018281038252602a815260200180612716602a913960400191505060405180910390fd5b6110418261227c565b7f22f30a094e2ed10e9a92ebac7a70b8e2ae3288d9b594db22587861bc8fef4eef826040518080602001828103825283818151815260200191508051906020019080838360005b838110156110a3578082015181840152602081019050611088565b50505050905090810190601f1680156110d05780820380516001836020036101000a031916815260200191505b509250505060405180910390a15050565b6040518060400160405280600581526020017f4f574e455200000000000000000000000000000000000000000000000000000081525061112181336121ca565b611176576040517f08c379a000000000000000000000000000000000000000000000000000000000815260040180806020018281038252602a815260200180612716602a913960400191505060405180910390fd5b6111808383612308565b8173ffffffffffffffffffffffffffffffffffffffff167fafe42c64e42361a5193c84f3f11b6803e41dd901d473ee6faa72f43f8ab1f468846040518080602001828103825283818151815260200191508051906020019080838360005b838110156111f95780820151818401526020810190506111de565b50505050905090810190601f1680156112265780820380516001836020036101000a031916815260200191505b509250505060405180910390a2505050565b6040518060400160405280600581526020017f4f574e455200000000000000000000000000000000000000000000000000000081525061127881336121ca565b6112cd576040517f08c379a000000000000000000000000000000000000000000000000000000000815260040180806020018281038252602a815260200180612716602a913960400191505060405180910390fd5b6112fa82600260006112de87612201565b815260200190815260200160002061233990919063ffffffff16565b8173ffffffffffffffffffffffffffffffffffffffff167f3e3ea7a1060be276a52e916803e2f89e3478e263893fc3c0b4d5793dd6d5f032846040518080602001828103825283818151815260200191508051906020019080838360005b83811015611373578082015181840152602081019050611358565b50505050905090810190601f1680156113a05780820380516001836020036101000a031916815260200191505b509250505060405180910390a2505050565b6040518060400160405280600581526020017f4f574e45520000000000000000000000000000000000000000000000000000008152506113f281336121ca565b611447576040517f08c379a000000000000000000000000000000000000000000000000000000000815260040180806020018281038252602a815260200180612716602a913960400191505060405180910390fd5b6001600360006101000a81548160ff0219169083151502179055507fa8cab3d1893ed53071b052fafa843143492f25d1d6b0170d460789f7ab1954be60405160405180910390a150565b6000600560008373ffffffffffffffffffffffffffffffffffffffff1673ffffffffffffffffffffffffffffffffffffffff168152602001908152602001600020544210159050919050565b6040518060400160405280600581526020017f4f574e455200000000000000000000000000000000000000000000000000000081525061151d81336121ca565b611572576040517f08c379a000000000000000000000000000000000000000000000000000000000815260040180806020018281038252602a815260200180612716602a913960400191505060405180910390fd5b6004548210156115cd576040517f08c379a000000000000000000000000000000000000000000000000000000000815260040180806020018281038252603181526020018061278b6031913960400191505060405180910390fd5b6115e082426123f690919063ffffffff16565b600560008573ffffffffffffffffffffffffffffffffffffffff1673ffffffffffffffffffffffffffffffffffffffff1681526020019081526020016000208190555060008390508073ffffffffffffffffffffffffffffffffffffffff1663e29983818273ffffffffffffffffffffffffffffffffffffffff1663b330df736040518163ffffffff1660e01b815260040160006040518083038186803b15801561168a57600080fd5b505afa15801561169e573d6000803e3d6000fd5b505050506040513d6000823e3d601f19601f8201168201806040525060208110156116c857600080fd5b81019080805160405193929190846401000000008211156116e857600080fd5b838201915060208201858111156116fe57600080fd5b825186600182028301116401000000008211171561171b57600080fd5b8083526020830192505050908051906020019080838360005b8381101561174f578082015181840152602081019050611734565b50505050905090810190601f16801561177c5780820380516001836020036101000a031916815260200191505b506040525050506040518263ffffffff1660e01b81526004018080602001828103825283818151815260200191508051906020019080838360005b838110156117d25780820151818401526020810190506117b7565b50505050905090810190601f1680156117ff5780820380516001836020036101000a031916815260200191505b5092505050600060405180830381600087803b15801561181e57600080fd5b505af1158015611832573d6000803e3d6000fd5b505050508373ffffffffffffffffffffffffffffffffffffffff167fefdc41ad8f300ee0e1679de026f029ab25c74b575d46aed4386e803426c2d1a8600560008773ffffffffffffffffffffffffffffffffffffffff1673ffffffffffffffffffffffffffffffffffffffff168152602001908152602001600020546040518082815260200191505060405180910390a250505050565b6040518060400160405280600581526020017f4f574e455200000000000000000000000000000000000000000000000000000081525061190981336121ca565b61195e576040517f08c379a000000000000000000000000000000000000000000000000000000000815260040180806020018281038252602a815260200180612716602a913960400191505060405180910390fd5b6000600560008473ffffffffffffffffffffffffffffffffffffffff1673ffffffffffffffffffffffffffffffffffffffff1681526020019081526020016000208190555060008290508073ffffffffffffffffffffffffffffffffffffffff1663b8724c598273ffffffffffffffffffffffffffffffffffffffff1663b330df736040518163ffffffff1660e01b815260040160006040518083038186803b158015611a0a57600080fd5b505afa158015611a1e573d6000803e3d6000fd5b505050506040513d6000823e3d601f19601f820116820180604052506020811015611a4857600080fd5b8101908080516040519392919084640100000000821115611a6857600080fd5b83820191506020820185811115611a7e57600080fd5b8251866001820283011164010000000082111715611a9b57600080fd5b8083526020830192505050908051906020019080838360005b83811015611acf578082015181840152602081019050611ab4565b50505050905090810190601f168015611afc5780820380516001836020036101000a031916815260200191505b506040525050506040518263ffffffff1660e01b81526004018080602001828103825283818151815260200191508051906020019080838360005b83811015611b52578082015181840152602081019050611b37565b50505050905090810190601f168015611b7f5780820380516001836020036101000a031916815260200191505b5092505050600060405180830381600087803b158015611b9e57600080fd5b505af1158015611bb2573d6000803e3d6000fd5b505050508273ffffffffffffffffffffffffffffffffffffffff167f34b4759ede65104ab3265e87674d547299b04041948c396f80dafb50e207c63560405160405180910390a2505050565b6040518060400160405280600581526020017f4f574e4552000000000000000000000000000000000000000000000000000000815250611c3e81336121ca565b611c93576040517f08c379a000000000000000000000000000000000000000000000000000000000815260040180806020018281038252602a815260200180612716602a913960400191505060405180910390fd5b60008390508073ffffffffffffffffffffffffffffffffffffffff16636dbf8108846040518263ffffffff1660e01b8152600401808273ffffffffffffffffffffffffffffffffffffffff1673ffffffffffffffffffffffffffffffffffffffff168152602001915050600060405180830381600087803b158015611d1757600080fd5b505af1158015611d2b573d6000803e3d6000fd5b505050508373ffffffffffffffffffffffffffffffffffffffff167f94802ebc541565f6b884a869dd19a622e960a72cd66701adce6b701bc808cee460405160405180910390a250505050565b60008080549050905090565b60008181548110611d9157fe5b906000526020600020016000915090508054600181600116156101000203166002900480601f016020809104026020016040519081016040528092919081815260200182805460018160011615610100020316600290048015611e355780601f10611e0a57610100808354040283529160200191611e35565b820191906000526020600020905b815481529060010190602001808311611e1857829003601f168201915b505050505081565b60045481565b6040518060400160405280600581526020017f4f574e455200000000000000000000000000000000000000000000000000000081525081565b6040518060400160405280600581526020017f4f574e4552000000000000000000000000000000000000000000000000000000815250611ebc81336121ca565b611f11576040517f08c379a000000000000000000000000000000000000000000000000000000000815260040180806020018281038252602a815260200180612716602a913960400191505060405180910390fd5b611f1a82611491565b611f6f576040517f08c379a000000000000000000000000000000000000000000000000000000000815260040180806020018281038252602a815260200180612740602a913960400191505060405180910390fd5b60008290508073ffffffffffffffffffffffffffffffffffffffff1663e29983818273ffffffffffffffffffffffffffffffffffffffff1663a1f6c9596040518163ffffffff1660e01b815260040160006040518083038186803b158015611fd657600080fd5b505afa158015611fea573d6000803e3d6000fd5b505050506040513d6000823e3d601f19601f82011682018060405250602081101561201457600080fd5b810190808051604051939291908464010000000082111561203457600080fd5b8382019150602082018581111561204a57600080fd5b825186600182028301116401000000008211171561206757600080fd5b8083526020830192505050908051906020019080838360005b8381101561209b578082015181840152602081019050612080565b50505050905090810190601f1680156120c85780820380516001836020036101000a031916815260200191505b506040525050506040518263ffffffff1660e01b81526004018080602001828103825283818151815260200191508051906020019080838360005b8381101561211e578082015181840152602081019050612103565b50505050905090810190601f16801561214b5780820380516001836020036101000a031916815260200191505b5092505050600060405180830381600087803b15801561216a57600080fd5b505af115801561217e573d6000803e3d6000fd5b505050508273ffffffffffffffffffffffffffffffffffffffff167ff54453d15e2e6aee566733e6da03165ea58500408e802e05aa4e75f2408f59fe60405160405180910390a2505050565b60006121f982600260006121dd87612201565b815260200190815260200160002061247e90919063ffffffff16565b905092915050565b6000816040516020018082805190602001908083835b6020831061223a5780518252602082019150602081019050602083039250612217565b6001836020036101000a038019825116818451168082178552505050505050905001915050604051602081830303815290604052805190602001209050919050565b6001600061228983612201565b815260200190815260200160002054600014156123055760008190806001815401808255809150509060018203906000526020600020016000909192909190915090805190602001906122dd929190612637565b5050600080549050600160006122f284612201565b8152602001908152602001600020819055505b50565b612335816002600061231986612201565b815260200190815260200160002061255c90919063ffffffff16565b5050565b612343828261247e565b612398576040517f08c379a000000000000000000000000000000000000000000000000000000000815260040180806020018281038252602181526020018061276a6021913960400191505060405180910390fd5b60008260000160008373ffffffffffffffffffffffffffffffffffffffff1673ffffffffffffffffffffffffffffffffffffffff16815260200190815260200160002060006101000a81548160ff0219169083151502179055505050565b600080828401905083811015612474576040517f08c379a000000000000000000000000000000000000000000000000000000000815260040180806020018281038252601b8152602001807f536166654d6174683a206164646974696f6e206f766572666c6f77000000000081525060200191505060405180910390fd5b8091505092915050565b60008073ffffffffffffffffffffffffffffffffffffffff168273ffffffffffffffffffffffffffffffffffffffff161415612505576040517f08c379a00000000000000000000000000000000000000000000000000000000081526004018080602001828103825260228152602001806127bc6022913960400191505060405180910390fd5b8260000160008373ffffffffffffffffffffffffffffffffffffffff1673ffffffffffffffffffffffffffffffffffffffff16815260200190815260200160002060009054906101000a900460ff16905092915050565b612566828261247e565b156125d9576040517f08c379a000000000000000000000000000000000000000000000000000000000815260040180806020018281038252601f8152602001807f526f6c65733a206163636f756e7420616c72656164792068617320726f6c650081525060200191505060405180910390fd5b60018260000160008373ffffffffffffffffffffffffffffffffffffffff1673ffffffffffffffffffffffffffffffffffffffff16815260200190815260200160002060006101000a81548160ff0219169083151502179055505050565b828054600181600116156101000203166002900490600052602060002090601f016020900481019282601f1061267857805160ff19168380011785556126a6565b828001600101855582156126a6579182015b828111156126a557825182559160200191906001019061268a565b5b5090506126b391906126b7565b5090565b6126d991905b808211156126d55760008160009055506001016126bd565b5090565b9056fe4f70657261746f723a207265736f6c7574696f6e20656e67696e652773207265736f6c766520616374696f6e206e6f742064697361626c65645242414365643a2073656e646572206973206e6f74206163636573736f72206f662074686520726f6c654f70657261746f723a2064697361626c656d656e742074696d6572206973206e6f742065787069726564526f6c65733a206163636f756e7420646f6573206e6f74206861766520726f6c654f70657261746f723a2074696d656f757420697320736d616c6c6572207468616e2074686520736574206d696e696d756d526f6c65733a206163636f756e7420697320746865207a65726f2061646472657373a265627a7a72315820d719b54ee3401a914a6853646b97850c7cb29b6d7d000147bcebf0e681d7b0d264736f6c634300050b0032526f6c65733a206163636f756e7420697320746865207a65726f2061646472657373",
  "source": "/*\n * Lottery oracle\n *\n * Copyright (C) 2017-2019 Hubii AS\n */\n\npragma solidity ^0.5.11;\n\nimport {RBACed} from \"./RBACed.sol\";\nimport {ResolutionEngine} from \"./ResolutionEngine.sol\";\nimport {BountyFund} from \"./BountyFund.sol\";\nimport {SafeMath} from \"openzeppelin-solidity/contracts/math/SafeMath.sol\";\n\n/// @title Operator\n/// @author Jens Ivar Jrdre <jensivar@hubii.com>\n/// @notice An operator of resolution engines and bounty funds\ncontract Operator is RBACed {\n    using SafeMath for uint256;\n\n    bool public frozen;\n\n    uint256 public minimumTimeout;\n    mapping(address => uint256) public disablementTimeoutByResolutionEngine;\n\n    event Frozen();\n    event DisablementTimerStarted(address indexed _resolutionEngine, uint256 _timeout);\n    event DisablementTimerStopped(address indexed _resolutionEngine);\n    event Disabled(address indexed _resolutionEngine);\n    event AllocatedBountyWithdrawn(address indexed _resolutionEngine);\n    event UnallocatedBountyWithdrawn(address indexed _bountyFund);\n    event MinimumTimeoutSet(uint256 minimumTimeout);\n\n    /// @notice `msg.sender` will be added as accessor to the owner role\n    constructor(uint256 _minimumTimeout)\n    public\n    {\n        minimumTimeout = _minimumTimeout;\n    }\n\n    modifier onlyNotFrozen() {\n        require(!frozen, \"Operator: is frozen\");\n        _;\n    }\n\n    /// @notice Freeze this resolution engine\n    /// @dev This operation can not be undone\n    function freeze()\n    onlyRoleAccessor(OWNER_ROLE)\n    public\n    {\n        // Set the frozen flag\n        frozen = true;\n\n        // Emit event\n        emit Frozen();\n    }\n\n    /// @notice Start the disablement timer for the given resolution engine\n    /// @dev The timeout can only be greater than or equal to the defined minimum timeout\n    /// @param _resolutionEngine The address of the concerned resolution engine\n    /// @param _timeout The duration of the timer\n    function startDisablementTimer(address _resolutionEngine, uint256 _timeout)\n    public\n    onlyRoleAccessor(OWNER_ROLE)\n    {\n        // Require that the given timeout beyond the minimum\n        require(_timeout >= minimumTimeout, \"Operator: timeout is smaller than the set minimum\");\n\n        // Set the timeout\n        disablementTimeoutByResolutionEngine[_resolutionEngine] = block.timestamp.add(_timeout);\n\n        // Initialize resolution engine\n        ResolutionEngine resolutionEngine = ResolutionEngine(_resolutionEngine);\n\n        // Disable staking in the resolution engine\n        resolutionEngine.disable(resolutionEngine.STAKE_ACTION());\n\n        // Emit event\n        emit DisablementTimerStarted(\n            _resolutionEngine, disablementTimeoutByResolutionEngine[_resolutionEngine]\n        );\n    }\n\n    /// @notice Stop the disablement timer for the given resolution engine\n    /// @param _resolutionEngine The address of the concerned resolution engine\n    function stopDisablementTimer(address _resolutionEngine)\n    public\n    onlyRoleAccessor(OWNER_ROLE)\n    {\n        // Set the timeout\n        disablementTimeoutByResolutionEngine[_resolutionEngine] = 0;\n\n        // Initialize resolution engine\n        ResolutionEngine resolutionEngine = ResolutionEngine(_resolutionEngine);\n\n        // Enable staking in the resolution engine\n        resolutionEngine.enable(resolutionEngine.STAKE_ACTION());\n\n        // Emit event\n        emit DisablementTimerStopped(_resolutionEngine);\n    }\n\n    /// @notice Gauge whether the disablement timer for the given resolution engine is expired\n    /// @param _resolutionEngine The address of the concerned resolution engine\n    /// @return true if the resolution engine's disablement timer is expired, else false\n    function isDisablementTimerExpired(address _resolutionEngine)\n    public\n    view\n    returns (bool)\n    {\n        return block.timestamp >= disablementTimeoutByResolutionEngine[_resolutionEngine];\n    }\n\n    /// @notice Disable the given resolution engine\n    /// @param _resolutionEngine The address of the concerned resolution engine\n    function disable(address _resolutionEngine)\n    public\n    onlyRoleAccessor(OWNER_ROLE)\n    {\n        // Require that the disablement timer has expired\n        require(\n            isDisablementTimerExpired(_resolutionEngine),\n            \"Operator: disablement timer is not expired\"\n        );\n\n        // Initialize resolution engine\n        ResolutionEngine resolutionEngine = ResolutionEngine(_resolutionEngine);\n\n        // Disable resolution in the resolution engine\n        resolutionEngine.disable(resolutionEngine.RESOLVE_ACTION());\n\n        // Emit event\n        emit Disabled(_resolutionEngine);\n    }\n\n    /// @notice Withdraw allocated bounty for the given resolution engine\n    /// @param _resolutionEngine The address of the concerned resolution engine\n    /// @param _wallet The recipient address of the bounty transfer\n    function withdrawAllocatedBounty(address _resolutionEngine, address _wallet)\n    public\n    onlyRoleAccessor(OWNER_ROLE)\n    {\n        // Initialize resolution engine\n        ResolutionEngine resolutionEngine = ResolutionEngine(_resolutionEngine);\n\n        // Withdraw the allocated bounty\n        resolutionEngine.withdrawBounty(_wallet);\n\n        // Emit event\n        emit AllocatedBountyWithdrawn(_resolutionEngine);\n    }\n\n    /// @notice Withdraw unallocated bounty for the given bounty fund\n    /// @param _bountyFund The address of the concerned bounty fund\n    /// @param _wallet The recipient address of the bounty transfer\n    function withdrawUnallocatedBounty(address _bountyFund, address _wallet)\n    public\n    onlyRoleAccessor(OWNER_ROLE)\n    {\n        // Initialize bounty fund\n        BountyFund bountyFund = BountyFund(_bountyFund);\n\n        // Initialize resolution engine\n        ResolutionEngine resolutionEngine = ResolutionEngine(bountyFund.resolutionEngine());\n\n        // Require that the resolution engine's resolve action is disabled\n        require(resolutionEngine.disabled(resolutionEngine.RESOLVE_ACTION()),\n            \"Operator: resolution engine's resolve action not disabled\");\n\n        // Withdraw the unallocated bounty\n        bountyFund.withdraw(_wallet);\n\n        // Emit event\n        emit UnallocatedBountyWithdrawn(_bountyFund);\n    }\n\n    /// @notice Set the minimum timeout criterion\n    /// @dev Only enabled when the resolution engine is not frozen\n    /// @param _minimumTimeout The concerned minimum timeout\n    function setMinimumTimeout(uint256 _minimumTimeout)\n    public\n    onlyRoleAccessor(OWNER_ROLE)\n    onlyNotFrozen\n    {\n        // Set the minimumTimeout\n        minimumTimeout = _minimumTimeout;\n\n        // Emit event\n        emit MinimumTimeoutSet(minimumTimeout);\n    }\n}\n",
  "sourcePath": "/opt/buildagent/work/9988d0feca52d9d9/contracts/Operator.sol",
  "compiler": {
    "name": "solc",
    "version": "0.5.11+commit.c082d0b4.Emscripten.clang"
  },
  "schemaVersion": "3.0.16",
  "updatedAt": "2019-09-25T10:17:50.381Z",
  "devdoc": {
    "author": "Jens Ivar Jrdre <jensivar@hubii.com>",
    "methods": {
      "addRole(string)": {
        "params": {
          "_role": "The concerned role"
        }
      },
      "addRoleAccessor(string,address)": {
        "params": {
          "_address": "The concerned address",
          "_role": "The concerned role"
        }
      },
      "disable(address)": {
        "params": {
          "_resolutionEngine": "The address of the concerned resolution engine"
        }
      },
      "freeze()": {
        "details": "This operation can not be undone"
      },
      "isDisablementTimerExpired(address)": {
        "params": {
          "_resolutionEngine": "The address of the concerned resolution engine"
        },
        "return": "true if the resolution engine's disablement timer is expired, else false"
      },
      "isRole(string)": {
        "params": {
          "_role": "The concerned role"
        },
        "return": "true if role has been set, else false"
      },
      "isRoleAccessor(string,address)": {
        "params": {
          "_address": "The concerned address",
          "_role": "The concerned role"
        },
        "return": "true if address is the one of a registered accessor of role, else false"
      },
      "removeRoleAccessor(string,address)": {
        "params": {
          "_address": "The concerned address",
          "_role": "The concerned role"
        }
      },
      "rolesCount()": {
        "return": "the count of roles"
      },
      "setMinimumTimeout(uint256)": {
        "details": "Only enabled when the resolution engine is not frozen",
        "params": {
          "_minimumTimeout": "The concerned minimum timeout"
        }
      },
      "startDisablementTimer(address,uint256)": {
        "details": "The timeout can only be greater than or equal to the defined minimum timeout",
        "params": {
          "_resolutionEngine": "The address of the concerned resolution engine",
          "_timeout": "The duration of the timer"
        }
      },
      "stopDisablementTimer(address)": {
        "params": {
          "_resolutionEngine": "The address of the concerned resolution engine"
        }
      },
      "withdrawAllocatedBounty(address,address)": {
        "params": {
          "_resolutionEngine": "The address of the concerned resolution engine",
          "_wallet": "The recipient address of the bounty transfer"
        }
      },
      "withdrawUnallocatedBounty(address,address)": {
        "params": {
          "_bountyFund": "The address of the concerned bounty fund",
          "_wallet": "The recipient address of the bounty transfer"
        }
      }
    },
    "title": "Operator"
  },
  "userdoc": {
    "methods": {
      "addRole(string)": {
        "notice": "Add role"
      },
      "addRoleAccessor(string,address)": {
        "notice": "Register an address as accessor of a role"
      },
      "constructor": "`msg.sender` will be added as accessor to the owner role",
      "disable(address)": {
        "notice": "Disable the given resolution engine"
      },
      "freeze()": {
        "notice": "Freeze this resolution engine"
      },
      "isDisablementTimerExpired(address)": {
        "notice": "Gauge whether the disablement timer for the given resolution engine is expired"
      },
      "isRole(string)": {
        "notice": "Gauge whether a role is set"
      },
      "isRoleAccessor(string,address)": {
        "notice": "Gauge whether an address is an accessor of a role"
      },
      "removeRoleAccessor(string,address)": {
        "notice": "Deregister an address as accessor of a role"
      },
      "rolesCount()": {
        "notice": "Get the count of roles"
      },
      "setMinimumTimeout(uint256)": {
        "notice": "Set the minimum timeout criterion"
      },
      "startDisablementTimer(address,uint256)": {
        "notice": "Start the disablement timer for the given resolution engine"
      },
      "stopDisablementTimer(address)": {
        "notice": "Stop the disablement timer for the given resolution engine"
      },
      "withdrawAllocatedBounty(address,address)": {
        "notice": "Withdraw allocated bounty for the given resolution engine"
      },
      "withdrawUnallocatedBounty(address,address)": {
        "notice": "Withdraw unallocated bounty for the given bounty fund"
      }
    },
    "notice": "An operator of resolution engines and bounty funds"
  }
}