{
  "contractName": "Oracle",
  "abi": [
    {
      "constant": true,
      "inputs": [
        {
          "name": "_role",
          "type": "string"
        }
      ],
      "name": "isRole",
      "outputs": [
        {
          "name": "",
          "type": "bool"
        }
      ],
      "payable": false,
      "stateMutability": "view",
      "type": "function",
      "signature": "0x0f6c37de"
    },
    {
      "constant": false,
      "inputs": [
        {
          "name": "_role",
          "type": "string"
        }
      ],
      "name": "addRole",
      "outputs": [],
      "payable": false,
      "stateMutability": "nonpayable",
      "type": "function",
      "signature": "0x3e96e868"
    },
    {
      "constant": false,
      "inputs": [
        {
          "name": "_role",
          "type": "string"
        },
        {
          "name": "_address",
          "type": "address"
        }
      ],
      "name": "addRoleAccessor",
      "outputs": [],
      "payable": false,
      "stateMutability": "nonpayable",
      "type": "function",
      "signature": "0x4da195be"
    },
    {
      "constant": false,
      "inputs": [
        {
          "name": "_role",
          "type": "string"
        },
        {
          "name": "_address",
          "type": "address"
        }
      ],
      "name": "removeRoleAccessor",
      "outputs": [],
      "payable": false,
      "stateMutability": "nonpayable",
      "type": "function",
      "signature": "0x5b0f833a"
    },
    {
      "constant": true,
      "inputs": [],
      "name": "rolesCount",
      "outputs": [
        {
          "name": "",
          "type": "uint256"
        }
      ],
      "payable": false,
      "stateMutability": "view",
      "type": "function",
      "signature": "0xb8517dd8"
    },
    {
      "constant": true,
      "inputs": [
        {
          "name": "",
          "type": "uint256"
        }
      ],
      "name": "roles",
      "outputs": [
        {
          "name": "",
          "type": "string"
        }
      ],
      "payable": false,
      "stateMutability": "view",
      "type": "function",
      "signature": "0xbfda4a49"
    },
    {
      "constant": true,
      "inputs": [],
      "name": "OWNER_ROLE",
      "outputs": [
        {
          "name": "",
          "type": "string"
        }
      ],
      "payable": false,
      "stateMutability": "view",
      "type": "function",
      "signature": "0xe58378bb"
    },
    {
      "constant": true,
      "inputs": [
        {
          "name": "_role",
          "type": "string"
        },
        {
          "name": "_address",
          "type": "address"
        }
      ],
      "name": "isRoleAccessor",
      "outputs": [
        {
          "name": "",
          "type": "bool"
        }
      ],
      "payable": false,
      "stateMutability": "view",
      "type": "function",
      "signature": "0xfb535fd6"
    },
    {
      "inputs": [],
      "payable": false,
      "stateMutability": "nonpayable",
      "type": "constructor",
      "signature": "constructor"
    },
    {
      "anonymous": false,
      "inputs": [
        {
          "indexed": true,
          "name": "_resolutionEngine",
          "type": "address"
        }
      ],
      "name": "ResolutionEngineAdded",
      "type": "event",
      "signature": "0xdd79e4508bc29903281675743dea8b0bc4eb4f9049ce38a081b23c9519c80834"
    },
    {
      "anonymous": false,
      "inputs": [
        {
          "indexed": true,
          "name": "_resolutionEngine",
          "type": "address"
        }
      ],
      "name": "ResolutionEngineRemoved",
      "type": "event",
      "signature": "0xa5e14f279e9326d7fd762969f16d1ea7f9ff2a2a754fb962fd93544fc4ace86d"
    },
    {
      "anonymous": false,
      "inputs": [
        {
          "indexed": false,
          "name": "_resolutionEngine",
          "type": "address"
        },
        {
          "indexed": false,
          "name": "_wallet",
          "type": "address"
        },
        {
          "indexed": false,
          "name": "_status",
          "type": "bool"
        },
        {
          "indexed": false,
          "name": "_amount",
          "type": "uint256"
        }
      ],
      "name": "TokensStaked",
      "type": "event",
      "signature": "0x0144b26cd143ef8bdf819343ba62c13012f65c36574ce2bf886f63f401ef698e"
    },
    {
      "anonymous": false,
      "inputs": [
        {
          "indexed": false,
          "name": "_resolutionEngine",
          "type": "address"
        },
        {
          "indexed": false,
          "name": "_wallet",
          "type": "address"
        },
        {
          "indexed": false,
          "name": "_firstVerificationPhaseNumber",
          "type": "uint256"
        },
        {
          "indexed": false,
          "name": "_lastVerificationPhaseNumber",
          "type": "uint256"
        }
      ],
      "name": "PayoutClaimed",
      "type": "event",
      "signature": "0xe6aaaaf06c76218483e7dea49b5101c561f6395438de54864693ccf051e7f47c"
    },
    {
      "anonymous": false,
      "inputs": [
        {
          "indexed": false,
          "name": "_role",
          "type": "string"
        }
      ],
      "name": "RoleAdded",
      "type": "event",
      "signature": "0x22f30a094e2ed10e9a92ebac7a70b8e2ae3288d9b594db22587861bc8fef4eef"
    },
    {
      "anonymous": false,
      "inputs": [
        {
          "indexed": false,
          "name": "_role",
          "type": "string"
        },
        {
          "indexed": true,
          "name": "_address",
          "type": "address"
        }
      ],
      "name": "RoleAccessorAdded",
      "type": "event",
      "signature": "0xafe42c64e42361a5193c84f3f11b6803e41dd901d473ee6faa72f43f8ab1f468"
    },
    {
      "anonymous": false,
      "inputs": [
        {
          "indexed": false,
          "name": "_role",
          "type": "string"
        },
        {
          "indexed": true,
          "name": "_address",
          "type": "address"
        }
      ],
      "name": "RoleAccessorRemoved",
      "type": "event",
      "signature": "0x3e3ea7a1060be276a52e916803e2f89e3478e263893fc3c0b4d5793dd6d5f032"
    },
    {
      "constant": true,
      "inputs": [
        {
          "name": "_resolutionEngine",
          "type": "address"
        }
      ],
      "name": "hasResolutionEngine",
      "outputs": [
        {
          "name": "",
          "type": "bool"
        }
      ],
      "payable": false,
      "stateMutability": "view",
      "type": "function",
      "signature": "0x72e20260"
    },
    {
      "constant": true,
      "inputs": [],
      "name": "resolutionEnginesCount",
      "outputs": [
        {
          "name": "",
          "type": "uint256"
        }
      ],
      "payable": false,
      "stateMutability": "view",
      "type": "function",
      "signature": "0x63a901c8"
    },
    {
      "constant": false,
      "inputs": [
        {
          "name": "_resolutionEngine",
          "type": "address"
        }
      ],
      "name": "addResolutionEngine",
      "outputs": [],
      "payable": false,
      "stateMutability": "nonpayable",
      "type": "function",
      "signature": "0xe2d92342"
    },
    {
      "constant": false,
      "inputs": [
        {
          "name": "_resolutionEngine",
          "type": "address"
        }
      ],
      "name": "removeResolutionEngine",
      "outputs": [],
      "payable": false,
      "stateMutability": "nonpayable",
      "type": "function",
      "signature": "0xa8dd5824"
    },
    {
      "constant": false,
      "inputs": [
        {
          "name": "_resolutionEngine",
          "type": "address"
        },
        {
          "name": "_verificationPhaseNumber",
          "type": "uint256"
        },
        {
          "name": "_status",
          "type": "bool"
        },
        {
          "name": "_amount",
          "type": "uint256"
        }
      ],
      "name": "stakeTokens",
      "outputs": [],
      "payable": false,
      "stateMutability": "nonpayable",
      "type": "function",
      "signature": "0xeb477bf1"
    },
    {
      "constant": false,
      "inputs": [
        {
          "name": "_resolutionEngine",
          "type": "address"
        },
        {
          "name": "_firstVerificationPhaseNumber",
          "type": "uint256"
        },
        {
          "name": "_lastVerificationPhaseNumber",
          "type": "uint256"
        }
      ],
      "name": "claimPayout",
      "outputs": [],
      "payable": false,
      "stateMutability": "nonpayable",
      "type": "function",
      "signature": "0x6990155c"
    }
  ],
  "bytecode": "0x60806040523480156200001157600080fd5b50620000616040805190810160405280600581526020017f4f574e4552000000000000000000000000000000000000000000000000000000815250620000b7640100000000026401000000009004565b620000b16040805190810160405280600581526020017f4f574e45520000000000000000000000000000000000000000000000000000008152503362000178640100000000026401000000009004565b620003f8565b60016000620000d583620001d2640100000000026401000000009004565b600019166000191681526020019081526020016000205460001415620001755760008190806001815401808255809150509060018203906000526020600020016000909192909190915090805190602001906200013492919062000349565b5050600080549050600160006200015a84620001d2640100000000026401000000009004565b60001916600019168152602001908152602001600020819055505b50565b620001ce81600260006200019b86620001d2640100000000026401000000009004565b60001916600019168152602001908152602001600020620002ae64010000000002620019bd179091906401000000009004565b5050565b6000816040516020018082805190602001908083835b6020831015156200020f5780518252602082019150602081019050602083039250620001e8565b6001836020036101000a0380198251168184511680821785525050505050509050019150506040516020818303038152906040526040518082805190602001908083835b6020831015156200027a578051825260208201915060208101905060208303925062000253565b6001836020036101000a03801982511681845116808217855250505050505090500191505060405180910390209050919050565b600073ffffffffffffffffffffffffffffffffffffffff168173ffffffffffffffffffffffffffffffffffffffff1614151515620002eb57600080fd5b60018260000160008373ffffffffffffffffffffffffffffffffffffffff1673ffffffffffffffffffffffffffffffffffffffff16815260200190815260200160002060006101000a81548160ff0219169083151502179055505050565b828054600181600116156101000203166002900490600052602060002090601f016020900481019282601f106200038c57805160ff1916838001178555620003bd565b82800160010185558215620003bd579182015b82811115620003bc5782518255916020019190600101906200039f565b5b509050620003cc9190620003d0565b5090565b620003f591905b80821115620003f1576000816000905550600101620003d7565b5090565b90565b611c1a80620004086000396000f3006080604052600436106100d0576000357c0100000000000000000000000000000000000000000000000000000000900463ffffffff1680630f6c37de146100d55780633e96e868146101565780634da195be146101bf5780635b0f833a1461024857806363a901c8146102d15780636990155c146102fc57806372e2026014610353578063a8dd5824146103ae578063b8517dd8146103f1578063bfda4a491461041c578063e2d92342146104c2578063e58378bb14610505578063eb477bf114610595578063fb535fd6146105f8575b600080fd5b3480156100e157600080fd5b5061013c600480360381019080803590602001908201803590602001908080601f0160208091040260200160405190810160405280939291908181526020018383808284378201915050505050509192919290505050610699565b604051808215151515815260200191505060405180910390f35b34801561016257600080fd5b506101bd600480360381019080803590602001908201803590602001908080601f01602080910402602001604051908101604052809392919081815260200183838082843782019150505050505091929192905050506106ca565b005b3480156101cb57600080fd5b50610246600480360381019080803590602001908201803590602001908080601f0160208091040260200160405190810160405280939291908181526020018383808284378201915050505050509192919290803573ffffffffffffffffffffffffffffffffffffffff1690602001909291905050506107be565b005b34801561025457600080fd5b506102cf600480360381019080803590602001908201803590602001908080601f0160208091040260200160405190810160405280939291908181526020018383808284378201915050505050509192919290803573ffffffffffffffffffffffffffffffffffffffff1690602001909291905050506108cb565b005b3480156102dd57600080fd5b506102e6610a03565b6040518082815260200191505060405180910390f35b34801561030857600080fd5b50610351600480360381019080803573ffffffffffffffffffffffffffffffffffffffff1690602001909291908035906020019092919080359060200190929190505050610a13565b005b34801561035f57600080fd5b50610394600480360381019080803573ffffffffffffffffffffffffffffffffffffffff169060200190929190505050610b88565b604051808215151515815260200191505060405180910390f35b3480156103ba57600080fd5b506103ef600480360381019080803573ffffffffffffffffffffffffffffffffffffffff169060200190929190505050610ba5565b005b3480156103fd57600080fd5b50610406610c4b565b6040518082815260200191505060405180910390f35b34801561042857600080fd5b5061044760048036038101908080359060200190929190505050610c57565b6040518080602001828103825283818151815260200191508051906020019080838360005b8381101561048757808201518184015260208101905061046c565b50505050905090810190601f1680156104b45780820380516001836020036101000a031916815260200191505b509250505060405180910390f35b3480156104ce57600080fd5b50610503600480360381019080803573ffffffffffffffffffffffffffffffffffffffff169060200190929190505050610d12565b005b34801561051157600080fd5b5061051a610db8565b6040518080602001828103825283818151815260200191508051906020019080838360005b8381101561055a57808201518184015260208101905061053f565b50505050905090810190601f1680156105875780820380516001836020036101000a031916815260200191505b509250505060405180910390f35b3480156105a157600080fd5b506105f6600480360381019080803573ffffffffffffffffffffffffffffffffffffffff1690602001909291908035906020019092919080351515906020019092919080359060200190929190505050610df1565b005b34801561060457600080fd5b5061067f600480360381019080803590602001908201803590602001908080601f0160208091040260200160405190810160405280939291908181526020018383808284378201915050505050509192919290803573ffffffffffffffffffffffffffffffffffffffff169060200190929190505050611355565b604051808215151515815260200191505060405180910390f35b6000600160006106a884611394565b6000191660001916815260200190815260200160002054600014159050919050565b6040805190810160405280600581526020017f4f574e455200000000000000000000000000000000000000000000000000000081525061070a8133611355565b151561071557600080fd5b61071e8261146c565b7f22f30a094e2ed10e9a92ebac7a70b8e2ae3288d9b594db22587861bc8fef4eef826040518080602001828103825283818151815260200191508051906020019080838360005b83811015610780578082015181840152602081019050610765565b50505050905090810190601f1680156107ad5780820380516001836020036101000a031916815260200191505b509250505060405180910390a15050565b6040805190810160405280600581526020017f4f574e45520000000000000000000000000000000000000000000000000000008152506107fe8133611355565b151561080957600080fd5b6108138383611508565b8173ffffffffffffffffffffffffffffffffffffffff167fafe42c64e42361a5193c84f3f11b6803e41dd901d473ee6faa72f43f8ab1f468846040518080602001828103825283818151815260200191508051906020019080838360005b8381101561088c578082015181840152602081019050610871565b50505050905090810190601f1680156108b95780820380516001836020036101000a031916815260200191505b509250505060405180910390a2505050565b6040805190810160405280600581526020017f4f574e455200000000000000000000000000000000000000000000000000000081525061090b8133611355565b151561091657600080fd5b61094b826002600061092787611394565b6000191660001916815260200190815260200160002061154190919063ffffffff16565b8173ffffffffffffffffffffffffffffffffffffffff167f3e3ea7a1060be276a52e916803e2f89e3478e263893fc3c0b4d5793dd6d5f032846040518080602001828103825283818151815260200191508051906020019080838360005b838110156109c45780820151818401526020810190506109a9565b50505050905090810190601f1680156109f15780820380516001836020036101000a031916815260200191505b509250505060405180910390a2505050565b6000600360010180549050905090565b60008390508073ffffffffffffffffffffffffffffffffffffffff1663e28980c53385856040518463ffffffff167c0100000000000000000000000000000000000000000000000000000000028152600401808473ffffffffffffffffffffffffffffffffffffffff1673ffffffffffffffffffffffffffffffffffffffff1681526020018381526020018281526020019350505050600060405180830381600087803b158015610ac357600080fd5b505af1158015610ad7573d6000803e3d6000fd5b505050507fe6aaaaf06c76218483e7dea49b5101c561f6395438de54864693ccf051e7f47c84338585604051808573ffffffffffffffffffffffffffffffffffffffff1673ffffffffffffffffffffffffffffffffffffffff1681526020018473ffffffffffffffffffffffffffffffffffffffff1673ffffffffffffffffffffffffffffffffffffffff16815260200183815260200182815260200194505050505060405180910390a150505050565b6000610b9e8260036115db90919063ffffffff16565b9050919050565b6040805190810160405280600581526020017f4f574e4552000000000000000000000000000000000000000000000000000000815250610be58133611355565b1515610bf057600080fd5b610c0482600361160f90919063ffffffff16565b8173ffffffffffffffffffffffffffffffffffffffff167fa5e14f279e9326d7fd762969f16d1ea7f9ff2a2a754fb962fd93544fc4ace86d60405160405180910390a25050565b60008080549050905090565b600081815481101515610c6657fe5b906000526020600020016000915090508054600181600116156101000203166002900480601f016020809104026020016040519081016040528092919081815260200182805460018160011615610100020316600290048015610d0a5780601f10610cdf57610100808354040283529160200191610d0a565b820191906000526020600020905b815481529060010190602001808311610ced57829003601f168201915b505050505081565b6040805190810160405280600581526020017f4f574e4552000000000000000000000000000000000000000000000000000000815250610d528133611355565b1515610d5d57600080fd5b610d7182600361185a90919063ffffffff16565b8173ffffffffffffffffffffffffffffffffffffffff167fdd79e4508bc29903281675743dea8b0bc4eb4f9049ce38a081b23c9519c8083460405160405180910390a25050565b6040805190810160405280600581526020017f4f574e455200000000000000000000000000000000000000000000000000000081525081565b60008085610dfe81610b88565b1515610e0957600080fd5b869250858373ffffffffffffffffffffffffffffffffffffffff1663d00e768b6040518163ffffffff167c0100000000000000000000000000000000000000000000000000000000028152600401602060405180830381600087803b158015610e7157600080fd5b505af1158015610e85573d6000803e3d6000fd5b505050506040513d6020811015610e9b57600080fd5b8101908080519060200190929190505050141515610eb857600080fd5b8273ffffffffffffffffffffffffffffffffffffffff1663fc0c546a6040518163ffffffff167c0100000000000000000000000000000000000000000000000000000000028152600401602060405180830381600087803b158015610f1c57600080fd5b505af1158015610f30573d6000803e3d6000fd5b505050506040513d6020811015610f4657600080fd5b810190808051906020019092919050505091508173ffffffffffffffffffffffffffffffffffffffff166323b872dd3389876040518463ffffffff167c0100000000000000000000000000000000000000000000000000000000028152600401808473ffffffffffffffffffffffffffffffffffffffff1673ffffffffffffffffffffffffffffffffffffffff1681526020018373ffffffffffffffffffffffffffffffffffffffff1673ffffffffffffffffffffffffffffffffffffffff1681526020018281526020019350505050602060405180830381600087803b15801561103057600080fd5b505af1158015611044573d6000803e3d6000fd5b505050506040513d602081101561105a57600080fd5b8101908080519060200190929190505050508173ffffffffffffffffffffffffffffffffffffffff1663095ea7b384866040518363ffffffff167c0100000000000000000000000000000000000000000000000000000000028152600401808373ffffffffffffffffffffffffffffffffffffffff1673ffffffffffffffffffffffffffffffffffffffff16815260200182815260200192505050602060405180830381600087803b15801561110f57600080fd5b505af1158015611123573d6000803e3d6000fd5b505050506040513d602081101561113957600080fd5b8101908080519060200190929190505050508273ffffffffffffffffffffffffffffffffffffffff16636b2324ea338888886040518563ffffffff167c0100000000000000000000000000000000000000000000000000000000028152600401808573ffffffffffffffffffffffffffffffffffffffff1673ffffffffffffffffffffffffffffffffffffffff16815260200184815260200183151515158152602001828152602001945050505050600060405180830381600087803b15801561120257600080fd5b505af1158015611216573d6000803e3d6000fd5b505050508273ffffffffffffffffffffffffffffffffffffffff16630c680f14876040518263ffffffff167c010000000000000000000000000000000000000000000000000000000002815260040180828152602001915050600060405180830381600087803b15801561128957600080fd5b505af115801561129d573d6000803e3d6000fd5b505050507f0144b26cd143ef8bdf819343ba62c13012f65c36574ce2bf886f63f401ef698e87338787604051808573ffffffffffffffffffffffffffffffffffffffff1673ffffffffffffffffffffffffffffffffffffffff1681526020018473ffffffffffffffffffffffffffffffffffffffff1673ffffffffffffffffffffffffffffffffffffffff1681526020018315151515815260200182815260200194505050505060405180910390a150505050505050565b600061138c826002600061136887611394565b6000191660001916815260200190815260200160002061192990919063ffffffff16565b905092915050565b6000816040516020018082805190602001908083835b6020831015156113cf57805182526020820191506020810190506020830392506113aa565b6001836020036101000a0380198251168184511680821785525050505050509050019150506040516020818303038152906040526040518082805190602001908083835b6020831015156114385780518252602082019150602081019050602083039250611413565b6001836020036101000a03801982511681845116808217855250505050505090500191505060405180910390209050919050565b6001600061147983611394565b6000191660001916815260200190815260200160002054600014156115055760008190806001815401808255809150509060018203906000526020600020016000909192909190915090805190602001906114d5929190611b1d565b5050600080549050600160006114ea84611394565b60001916600019168152602001908152602001600020819055505b50565b61153d816002600061151986611394565b600019166000191681526020019081526020016000206119bd90919063ffffffff16565b5050565b600073ffffffffffffffffffffffffffffffffffffffff168173ffffffffffffffffffffffffffffffffffffffff161415151561157d57600080fd5b60008260000160008373ffffffffffffffffffffffffffffffffffffffff1673ffffffffffffffffffffffffffffffffffffffff16815260200190815260200160002060006101000a81548160ff0219169083151502179055505050565b60008260000160006115ec84611a57565b600019166000191681526020019081526020016000205460001415905092915050565b600061161a82611a57565b9050600083600001600083600019166000191681526020019081526020016000205414151561185557826001018054905083600001600083600019166000191681526020019081526020016000205410156118195782600101600184600101805490500381548110151561168a57fe5b9060005260206000200160009054906101000a900473ffffffffffffffffffffffffffffffffffffffff16836001016001856000016000856000191660001916815260200190815260200160002054038154811015156116e657fe5b9060005260206000200160006101000a81548173ffffffffffffffffffffffffffffffffffffffff021916908373ffffffffffffffffffffffffffffffffffffffff1602179055508260000160008260001916600019168152602001908152602001600020548360000160006117b68660010160018860000160008860001916600019168152602001908152602001600020540381548110151561178657fe5b9060005260206000200160009054906101000a900473ffffffffffffffffffffffffffffffffffffffff16611a57565b60001916600019168152602001908152602001600020819055508260010160018460010180549050038154811015156117eb57fe5b9060005260206000200160006101000a81549073ffffffffffffffffffffffffffffffffffffffff02191690555b826001018054809190600190036118309190611b9d565b5060008360000160008360001916600019168152602001908152602001600020819055505b505050565b60008082915061186983611a57565b90506000846000016000836000191660001916815260200190815260200160002054141561192357836001018290806001815401808255809150509060018203906000526020600020016000909192909190916101000a81548173ffffffffffffffffffffffffffffffffffffffff021916908373ffffffffffffffffffffffffffffffffffffffff1602179055505083600101805490508460000160008360001916600019168152602001908152602001600020819055505b50505050565b60008073ffffffffffffffffffffffffffffffffffffffff168273ffffffffffffffffffffffffffffffffffffffff161415151561196657600080fd5b8260000160008373ffffffffffffffffffffffffffffffffffffffff1673ffffffffffffffffffffffffffffffffffffffff16815260200190815260200160002060009054906101000a900460ff16905092915050565b600073ffffffffffffffffffffffffffffffffffffffff168173ffffffffffffffffffffffffffffffffffffffff16141515156119f957600080fd5b60018260000160008373ffffffffffffffffffffffffffffffffffffffff1673ffffffffffffffffffffffffffffffffffffffff16815260200190815260200160002060006101000a81548160ff0219169083151502179055505050565b600081604051602001808273ffffffffffffffffffffffffffffffffffffffff1673ffffffffffffffffffffffffffffffffffffffff166c010000000000000000000000000281526014019150506040516020818303038152906040526040518082805190602001908083835b602083101515611ae95780518252602082019150602081019050602083039250611ac4565b6001836020036101000a03801982511681845116808217855250505050505090500191505060405180910390209050919050565b828054600181600116156101000203166002900490600052602060002090601f016020900481019282601f10611b5e57805160ff1916838001178555611b8c565b82800160010185558215611b8c579182015b82811115611b8b578251825591602001919060010190611b70565b5b509050611b999190611bc9565b5090565b815481835581811115611bc457818360005260206000209182019101611bc39190611bc9565b5b505050565b611beb91905b80821115611be7576000816000905550600101611bcf565b5090565b905600a165627a7a72305820ee57017bfcbda2e1409d34a684dccf1c24cdb7074ea3c6abdd0e5d0ff04ff48a0029",
  "source": "/*\n * Lottery oracle\n *\n * Copyright (C) 2017-2018 Hubii AS\n */\n\npragma solidity ^0.4.25;\n\nimport {RBACed} from \"./RBACed.sol\";\nimport {ResolutionEngine} from \"./ResolutionEngine.sol\";\nimport {ERC20} from \"openzeppelin-solidity/contracts/token/ERC20/ERC20.sol\";\n\n/// @title ResolutionEnginesLib\n/// @author Jens Ivar Jrdre <jensivar@hubii.com>\n/// @notice A library to ease the oracle's management of resolution engines\nlibrary ResolutionEnginesLib {\n\n    struct ResolutionEngines {\n        mapping(bytes32 => uint256) map;\n        ResolutionEngine[] list;\n    }\n\n    function has(ResolutionEngines storage _engines, address _address) internal view returns (bool) {\n        return (0 != _engines.map[address2Key(_address)]);\n    }\n\n    function add(ResolutionEngines storage _engines, address _address) internal {\n        ResolutionEngine engine = ResolutionEngine(_address);\n        bytes32 key = address2Key(_address);\n        if (_engines.map[key] == 0) {\n            _engines.list.push(engine);\n            _engines.map[key] = _engines.list.length;\n        }\n    }\n\n    function remove(ResolutionEngines storage _engines, address _address) internal {\n        bytes32 key = address2Key(_address);\n        if (_engines.map[key] != 0) {\n            if (_engines.map[key] < _engines.list.length) {\n                _engines.list[_engines.map[key] - 1] = _engines.list[_engines.list.length - 1];\n                _engines.map[address2Key(address(_engines.list[_engines.map[key] - 1]))] = _engines.map[key];\n                delete _engines.list[_engines.list.length - 1];\n            }\n            _engines.list.length--;\n            _engines.map[key] = 0;\n        }\n    }\n\n    function address2Key(address _address) private pure returns (bytes32) {\n        return keccak256(abi.encodePacked(_address));\n    }\n}\n\n/// @title Oracle\n/// @author Jens Ivar Jrdre <jensivar@hubii.com>\n/// @notice A lottery oracle\ncontract Oracle is RBACed {\n    using ResolutionEnginesLib for ResolutionEnginesLib.ResolutionEngines;\n\n    event ResolutionEngineAdded(address indexed _resolutionEngine);\n    event ResolutionEngineRemoved(address indexed _resolutionEngine);\n    event TokensStaked(address _resolutionEngine, address _wallet, bool _status, uint256 _amount);\n    event PayoutClaimed(address _resolutionEngine, address _wallet, uint256 _firstVerificationPhaseNumber,\n        uint256 _lastVerificationPhaseNumber);\n\n    ResolutionEnginesLib.ResolutionEngines resolutionEngines;\n\n    /// @notice `msg.sender` will be added as accessor to the owner role\n    constructor() public {\n    }\n\n    modifier onlyRegisteredResolutionEngine(address _resolutionEngine) {\n        require(hasResolutionEngine(_resolutionEngine));\n        _;\n    }\n\n    /// @notice Gauge whether an address is the one of a registered resolution engine\n    /// @param _resolutionEngine The concerned address\n    /// @return true if address is the one of a registered resolution engine, else false\n    function hasResolutionEngine(address _resolutionEngine) public view returns (bool) {\n        return resolutionEngines.has(_resolutionEngine);\n    }\n\n    /// @notice Return the count of registered resolution engines\n    /// @return The count of registered resolution engines\n    function resolutionEnginesCount()\n    public\n    view\n    returns (uint256)\n    {\n        return resolutionEngines.list.length;\n    }\n\n    /// @notice Register a resolution engine by its address\n    /// @param _resolutionEngine The concerned address\n    function addResolutionEngine(address _resolutionEngine)\n    public\n    onlyRoleAccessor(OWNER_ROLE)\n    {\n        // Add resolution engine\n        resolutionEngines.add(_resolutionEngine);\n\n        // Emit event\n        emit ResolutionEngineAdded(_resolutionEngine);\n    }\n\n    /// @notice Deregister a resolution engine by its address\n    /// @param _resolutionEngine The concerned address\n    function removeResolutionEngine(address _resolutionEngine)\n    public\n    onlyRoleAccessor(OWNER_ROLE)\n    {\n        // Remove resolution engine\n        resolutionEngines.remove(_resolutionEngine);\n\n        // Emit event\n        emit ResolutionEngineRemoved(_resolutionEngine);\n    }\n\n    /// @notice For the given resolution engine and verification phase number stake the amount of tokens\n    /// at the given status\n    /// @dev Client has to do prior approval of the transfer of the given amount\n    /// @param _resolutionEngine The concerned resolution engine\n    /// @param _verificationPhaseNumber The verification phase number to stake into\n    /// @param _amount The amount staked\n    /// @param _status The status staked at\n    function stakeTokens(address _resolutionEngine, uint256 _verificationPhaseNumber, bool _status, uint256 _amount)\n    public\n    onlyRegisteredResolutionEngine(_resolutionEngine)\n    {\n        // Initialize resolution engine\n        ResolutionEngine resolutionEngine = ResolutionEngine(_resolutionEngine);\n\n        // Require that stake targets current verification phase number\n        require(resolutionEngine.verificationPhaseNumber() == _verificationPhaseNumber);\n\n        // Initialize token\n        ERC20 token = ERC20(resolutionEngine.token());\n\n        // Transfer from msg.sender to this oracle\n        token.transferFrom(msg.sender, _resolutionEngine, _amount);\n\n        // Approve of resolution transferring\n        token.approve(resolutionEngine, _amount);\n\n        // Update metrics post transfer\n        resolutionEngine.updateMetrics(msg.sender, _verificationPhaseNumber, _status, _amount);\n\n        // Possibly resolve market if resolution criteria have been met\n        resolutionEngine.resolveConditionally(_verificationPhaseNumber);\n\n        // Emit event\n        emit TokensStaked(_resolutionEngine, msg.sender, _status, _amount);\n    }\n\n    /// @notice For the given resolution engine and verification phase number claim payout\n    /// @param _resolutionEngine The concerned resolution engine\n    /// @param _firstVerificationPhaseNumber The first verification phase number to claim payout from\n    /// @param _lastVerificationPhaseNumber The last verification phase number to claim payout from\n    function claimPayout(address _resolutionEngine, uint256 _firstVerificationPhaseNumber,\n        uint256 _lastVerificationPhaseNumber)\n    public\n    {\n        // Initialize resolution engine\n        ResolutionEngine resolutionEngine = ResolutionEngine(_resolutionEngine);\n\n        // Withdraw payout from resolution engine\n        resolutionEngine.withdrawPayout(msg.sender, _firstVerificationPhaseNumber, _lastVerificationPhaseNumber);\n\n        // Emit event\n        emit PayoutClaimed(_resolutionEngine, msg.sender, _firstVerificationPhaseNumber, _lastVerificationPhaseNumber);\n    }\n}\n",
  "sourcePath": "/opt/buildagent/work/9988d0feca52d9d9/contracts/Oracle.sol",
  "compiler": {
    "name": "solc",
    "version": "0.4.25+commit.59dbf8f1.Emscripten.clang"
  },
  "schemaVersion": "3.0.0-beta.1",
  "updatedAt": "2018-10-03T16:03:08.677Z"
}