{
  "contractName": "Oracle",
  "abi": [
    {
      "constant": true,
      "inputs": [
        {
          "internalType": "string",
          "name": "_role",
          "type": "string"
        }
      ],
      "name": "isRole",
      "outputs": [
        {
          "internalType": "bool",
          "name": "",
          "type": "bool"
        }
      ],
      "payable": false,
      "stateMutability": "view",
      "type": "function"
    },
    {
      "constant": false,
      "inputs": [
        {
          "internalType": "string",
          "name": "_role",
          "type": "string"
        }
      ],
      "name": "addRole",
      "outputs": [],
      "payable": false,
      "stateMutability": "nonpayable",
      "type": "function"
    },
    {
      "constant": false,
      "inputs": [
        {
          "internalType": "string",
          "name": "_role",
          "type": "string"
        },
        {
          "internalType": "address",
          "name": "_address",
          "type": "address"
        }
      ],
      "name": "addRoleAccessor",
      "outputs": [],
      "payable": false,
      "stateMutability": "nonpayable",
      "type": "function"
    },
    {
      "constant": false,
      "inputs": [
        {
          "internalType": "string",
          "name": "_role",
          "type": "string"
        },
        {
          "internalType": "address",
          "name": "_address",
          "type": "address"
        }
      ],
      "name": "removeRoleAccessor",
      "outputs": [],
      "payable": false,
      "stateMutability": "nonpayable",
      "type": "function"
    },
    {
      "constant": true,
      "inputs": [],
      "name": "rolesCount",
      "outputs": [
        {
          "internalType": "uint256",
          "name": "",
          "type": "uint256"
        }
      ],
      "payable": false,
      "stateMutability": "view",
      "type": "function"
    },
    {
      "constant": true,
      "inputs": [
        {
          "internalType": "uint256",
          "name": "",
          "type": "uint256"
        }
      ],
      "name": "roles",
      "outputs": [
        {
          "internalType": "string",
          "name": "",
          "type": "string"
        }
      ],
      "payable": false,
      "stateMutability": "view",
      "type": "function"
    },
    {
      "constant": true,
      "inputs": [],
      "name": "OWNER_ROLE",
      "outputs": [
        {
          "internalType": "string",
          "name": "",
          "type": "string"
        }
      ],
      "payable": false,
      "stateMutability": "view",
      "type": "function"
    },
    {
      "constant": true,
      "inputs": [
        {
          "internalType": "string",
          "name": "_role",
          "type": "string"
        },
        {
          "internalType": "address",
          "name": "_address",
          "type": "address"
        }
      ],
      "name": "isRoleAccessor",
      "outputs": [
        {
          "internalType": "bool",
          "name": "",
          "type": "bool"
        }
      ],
      "payable": false,
      "stateMutability": "view",
      "type": "function"
    },
    {
      "inputs": [],
      "payable": false,
      "stateMutability": "nonpayable",
      "type": "constructor"
    },
    {
      "anonymous": false,
      "inputs": [
        {
          "indexed": true,
          "internalType": "address",
          "name": "_resolutionEngine",
          "type": "address"
        }
      ],
      "name": "ResolutionEngineAdded",
      "type": "event"
    },
    {
      "anonymous": false,
      "inputs": [
        {
          "indexed": true,
          "internalType": "address",
          "name": "_resolutionEngine",
          "type": "address"
        }
      ],
      "name": "ResolutionEngineRemoved",
      "type": "event"
    },
    {
      "anonymous": false,
      "inputs": [
        {
          "indexed": true,
          "internalType": "address",
          "name": "_wallet",
          "type": "address"
        },
        {
          "indexed": true,
          "internalType": "address",
          "name": "_resolutionEngine",
          "type": "address"
        },
        {
          "indexed": false,
          "internalType": "bool",
          "name": "_status",
          "type": "bool"
        },
        {
          "indexed": false,
          "internalType": "uint256",
          "name": "_amount",
          "type": "uint256"
        }
      ],
      "name": "TokensStaked",
      "type": "event"
    },
    {
      "anonymous": false,
      "inputs": [
        {
          "indexed": true,
          "internalType": "address",
          "name": "_wallet",
          "type": "address"
        },
        {
          "indexed": true,
          "internalType": "address",
          "name": "_resolutionEngine",
          "type": "address"
        },
        {
          "indexed": false,
          "internalType": "uint256",
          "name": "_firstVerificationPhaseNumber",
          "type": "uint256"
        },
        {
          "indexed": false,
          "internalType": "uint256",
          "name": "_lastVerificationPhaseNumber",
          "type": "uint256"
        }
      ],
      "name": "PayoutStaged",
      "type": "event"
    },
    {
      "anonymous": false,
      "inputs": [
        {
          "indexed": true,
          "internalType": "address",
          "name": "_wallet",
          "type": "address"
        },
        {
          "indexed": true,
          "internalType": "address",
          "name": "_resolutionEngine",
          "type": "address"
        }
      ],
      "name": "StakeStaged",
      "type": "event"
    },
    {
      "anonymous": false,
      "inputs": [
        {
          "indexed": true,
          "internalType": "address",
          "name": "_wallet",
          "type": "address"
        },
        {
          "indexed": true,
          "internalType": "address",
          "name": "_resolutionEngine",
          "type": "address"
        },
        {
          "indexed": false,
          "internalType": "uint256",
          "name": "_amount",
          "type": "uint256"
        }
      ],
      "name": "Withdrawn",
      "type": "event"
    },
    {
      "anonymous": false,
      "inputs": [
        {
          "indexed": false,
          "internalType": "string",
          "name": "_role",
          "type": "string"
        }
      ],
      "name": "RoleAdded",
      "type": "event"
    },
    {
      "anonymous": false,
      "inputs": [
        {
          "indexed": false,
          "internalType": "string",
          "name": "_role",
          "type": "string"
        },
        {
          "indexed": true,
          "internalType": "address",
          "name": "_address",
          "type": "address"
        }
      ],
      "name": "RoleAccessorAdded",
      "type": "event"
    },
    {
      "anonymous": false,
      "inputs": [
        {
          "indexed": false,
          "internalType": "string",
          "name": "_role",
          "type": "string"
        },
        {
          "indexed": true,
          "internalType": "address",
          "name": "_address",
          "type": "address"
        }
      ],
      "name": "RoleAccessorRemoved",
      "type": "event"
    },
    {
      "constant": true,
      "inputs": [
        {
          "internalType": "address",
          "name": "_resolutionEngine",
          "type": "address"
        }
      ],
      "name": "hasResolutionEngine",
      "outputs": [
        {
          "internalType": "bool",
          "name": "",
          "type": "bool"
        }
      ],
      "payable": false,
      "stateMutability": "view",
      "type": "function"
    },
    {
      "constant": true,
      "inputs": [],
      "name": "resolutionEnginesCount",
      "outputs": [
        {
          "internalType": "uint256",
          "name": "",
          "type": "uint256"
        }
      ],
      "payable": false,
      "stateMutability": "view",
      "type": "function"
    },
    {
      "constant": false,
      "inputs": [
        {
          "internalType": "address",
          "name": "_resolutionEngine",
          "type": "address"
        }
      ],
      "name": "addResolutionEngine",
      "outputs": [],
      "payable": false,
      "stateMutability": "nonpayable",
      "type": "function"
    },
    {
      "constant": false,
      "inputs": [
        {
          "internalType": "address",
          "name": "_resolutionEngine",
          "type": "address"
        }
      ],
      "name": "removeResolutionEngine",
      "outputs": [],
      "payable": false,
      "stateMutability": "nonpayable",
      "type": "function"
    },
    {
      "constant": false,
      "inputs": [
        {
          "internalType": "address",
          "name": "_resolutionEngine",
          "type": "address"
        },
        {
          "internalType": "uint256",
          "name": "_verificationPhaseNumber",
          "type": "uint256"
        },
        {
          "internalType": "bool",
          "name": "_status",
          "type": "bool"
        },
        {
          "internalType": "uint256",
          "name": "_amount",
          "type": "uint256"
        }
      ],
      "name": "stake",
      "outputs": [],
      "payable": false,
      "stateMutability": "nonpayable",
      "type": "function"
    },
    {
      "constant": false,
      "inputs": [
        {
          "internalType": "address",
          "name": "_resolutionEngine",
          "type": "address"
        },
        {
          "internalType": "uint256",
          "name": "_firstVerificationPhaseNumber",
          "type": "uint256"
        },
        {
          "internalType": "uint256",
          "name": "_lastVerificationPhaseNumber",
          "type": "uint256"
        }
      ],
      "name": "stagePayout",
      "outputs": [],
      "payable": false,
      "stateMutability": "nonpayable",
      "type": "function"
    },
    {
      "constant": false,
      "inputs": [
        {
          "internalType": "address",
          "name": "_resolutionEngine",
          "type": "address"
        }
      ],
      "name": "stageStake",
      "outputs": [],
      "payable": false,
      "stateMutability": "nonpayable",
      "type": "function"
    },
    {
      "constant": false,
      "inputs": [
        {
          "internalType": "address",
          "name": "_resolutionEngine",
          "type": "address"
        },
        {
          "internalType": "uint256",
          "name": "_amount",
          "type": "uint256"
        }
      ],
      "name": "withdraw",
      "outputs": [],
      "payable": false,
      "stateMutability": "nonpayable",
      "type": "function"
    }
  ],
  "bytecode": "0x60806040523480156200001157600080fd5b50620000586040518060400160405280600581526020017f4f574e4552000000000000000000000000000000000000000000000000000000815250620000a560201b60201c565b6200009f6040518060400160405280600581526020017f4f574e4552000000000000000000000000000000000000000000000000000000815250336200014460201b60201c565b62000474565b60016000620000ba836200018460201b60201c565b815260200190815260200160002054600014156200014157600081908060018154018082558091505090600182039060005260206000200160009091929091909150908051906020019062000111929190620003c5565b5050600080549050600160006200012e846200018460201b60201c565b8152602001908152602001600020819055505b50565b6200018081600260006200015e866200018460201b60201c565b81526020019081526020016000206200020160201b62001f741790919060201c565b5050565b6000816040516020018082805190602001908083835b60208310620001bf57805182526020820191506020810190506020830392506200019a565b6001836020036101000a038019825116818451168082178552505050505050905001915050604051602081830303815290604052805190602001209050919050565b620002138282620002e560201b60201c565b1562000287576040517f08c379a000000000000000000000000000000000000000000000000000000000815260040180806020018281038252601f8152602001807f526f6c65733a206163636f756e7420616c72656164792068617320726f6c650081525060200191505060405180910390fd5b60018260000160008373ffffffffffffffffffffffffffffffffffffffff1673ffffffffffffffffffffffffffffffffffffffff16815260200190815260200160002060006101000a81548160ff0219169083151502179055505050565b60008073ffffffffffffffffffffffffffffffffffffffff168273ffffffffffffffffffffffffffffffffffffffff1614156200036e576040517f08c379a0000000000000000000000000000000000000000000000000000000008152600401808060200182810382526022815260200180620027016022913960400191505060405180910390fd5b8260000160008373ffffffffffffffffffffffffffffffffffffffff1673ffffffffffffffffffffffffffffffffffffffff16815260200190815260200160002060009054906101000a900460ff16905092915050565b828054600181600116156101000203166002900490600052602060002090601f016020900481019282601f106200040857805160ff191683800117855562000439565b8280016001018555821562000439579182015b82811115620004385782518255916020019190600101906200041b565b5b5090506200044891906200044c565b5090565b6200047191905b808211156200046d57600081600090555060010162000453565b5090565b90565b61227d80620004846000396000f3fe608060405234801561001057600080fd5b50600436106101005760003560e01c80637bd190b711610097578063e2d9234211610066578063e2d92342146106cc578063e58378bb14610710578063f3fef3a314610793578063fb535fd6146107e157610100565b80637bd190b71461057f578063a8dd5824146105c3578063b8517dd814610607578063bfda4a491461062557610100565b80634da195be116100d35780634da195be1461034f5780635b0f833a1461042a57806363a901c81461050557806372e202601461052357610100565b80630f6c37de14610105578063170ec9fb146101d85780633b9c719d146102305780633e96e86814610294575b600080fd5b6101be6004803603602081101561011b57600080fd5b810190808035906020019064010000000081111561013857600080fd5b82018360208201111561014a57600080fd5b8035906020019184600183028401116401000000008311171561016c57600080fd5b91908080601f016020809104026020016040519081016040528093929190818152602001838380828437600081840152601f19601f8201169050808301925050505050505091929192905050506108d4565b604051808215151515815260200191505060405180910390f35b61022e600480360360608110156101ee57600080fd5b81019080803573ffffffffffffffffffffffffffffffffffffffff16906020019092919080359060200190929190803590602001909291905050506108fd565b005b6102926004803603608081101561024657600080fd5b81019080803573ffffffffffffffffffffffffffffffffffffffff1690602001909291908035906020019092919080351515906020019092919080359060200190929190505050610a1c565b005b61034d600480360360208110156102aa57600080fd5b81019080803590602001906401000000008111156102c757600080fd5b8201836020820111156102d957600080fd5b803590602001918460018302840111640100000000831117156102fb57600080fd5b91908080601f016020809104026020016040519081016040528093929190818152602001838380828437600081840152601f19601f820116905080830192505050505050509192919290505050610fd0565b005b6104286004803603604081101561036557600080fd5b810190808035906020019064010000000081111561038257600080fd5b82018360208201111561039457600080fd5b803590602001918460018302840111640100000000831117156103b657600080fd5b91908080601f016020809104026020016040519081016040528093929190818152602001838380828437600081840152601f19601f820116905080830192505050505050509192919290803573ffffffffffffffffffffffffffffffffffffffff16906020019092919050505061110e565b005b6105036004803603604081101561044057600080fd5b810190808035906020019064010000000081111561045d57600080fd5b82018360208201111561046f57600080fd5b8035906020019184600183028401116401000000008311171561049157600080fd5b91908080601f016020809104026020016040519081016040528093929190818152602001838380828437600081840152601f19601f820116905080830192505050505050509192919290803573ffffffffffffffffffffffffffffffffffffffff169060200190929190505050611265565b005b61050d6113df565b6040518082815260200191505060405180910390f35b6105656004803603602081101561053957600080fd5b81019080803573ffffffffffffffffffffffffffffffffffffffff1690602001909291905050506113ef565b604051808215151515815260200191505060405180910390f35b6105c16004803603602081101561059557600080fd5b81019080803573ffffffffffffffffffffffffffffffffffffffff16906020019092919050505061140c565b005b610605600480360360208110156105d957600080fd5b81019080803573ffffffffffffffffffffffffffffffffffffffff169060200190929190505050611506565b005b61060f6115f6565b6040518082815260200191505060405180910390f35b6106516004803603602081101561063b57600080fd5b8101908080359060200190929190505050611602565b6040518080602001828103825283818151815260200191508051906020019080838360005b83811015610691578082015181840152602081019050610676565b50505050905090810190601f1680156106be5780820380516001836020036101000a031916815260200191505b509250505060405180910390f35b61070e600480360360208110156106e257600080fd5b81019080803573ffffffffffffffffffffffffffffffffffffffff1690602001909291905050506116bb565b005b6107186117ab565b6040518080602001828103825283818151815260200191508051906020019080838360005b8381101561075857808201518184015260208101905061073d565b50505050905090810190601f1680156107855780820380516001836020036101000a031916815260200191505b509250505060405180910390f35b6107df600480360360408110156107a957600080fd5b81019080803573ffffffffffffffffffffffffffffffffffffffff169060200190929190803590602001909291905050506117e4565b005b6108ba600480360360408110156107f757600080fd5b810190808035906020019064010000000081111561081457600080fd5b82018360208201111561082657600080fd5b8035906020019184600183028401116401000000008311171561084857600080fd5b91908080601f016020809104026020016040519081016040528093929190818152602001838380828437600081840152601f19601f820116905080830192505050505050509192919290803573ffffffffffffffffffffffffffffffffffffffff1690602001909291905050506118f2565b604051808215151515815260200191505060405180910390f35b6000600160006108e384611929565b815260200190815260200160002054600014159050919050565b60008390508073ffffffffffffffffffffffffffffffffffffffff1663170ec9fb3385856040518463ffffffff1660e01b8152600401808473ffffffffffffffffffffffffffffffffffffffff1673ffffffffffffffffffffffffffffffffffffffff1681526020018381526020018281526020019350505050600060405180830381600087803b15801561099157600080fd5b505af11580156109a5573d6000803e3d6000fd5b505050508373ffffffffffffffffffffffffffffffffffffffff163373ffffffffffffffffffffffffffffffffffffffff167ffca306931a48e14aab1affd9865b2c453e2e50c9a8684f98d5de1691caa892078585604051808381526020018281526020019250505060405180910390a350505050565b83610a26816113ef565b610a7b576040517f08c379a000000000000000000000000000000000000000000000000000000000815260040180806020018281038252602b8152602001806121aa602b913960400191505060405180910390fd5b6000859050848173ffffffffffffffffffffffffffffffffffffffff1663d00e768b6040518163ffffffff1660e01b815260040160206040518083038186803b158015610ac757600080fd5b505afa158015610adb573d6000803e3d6000fd5b505050506040513d6020811015610af157600080fd5b810190808051906020019092919050505014610b58576040517f08c379a00000000000000000000000000000000000000000000000000000000081526004018080602001828103825260318152602001806121d56031913960400191505060405180910390fd5b60008173ffffffffffffffffffffffffffffffffffffffff166370551d4d866040518263ffffffff1660e01b8152600401808215151515815260200191505060206040518083038186803b158015610baf57600080fd5b505afa158015610bc3573d6000803e3d6000fd5b505050506040513d6020811015610bd957600080fd5b810190808051906020019092919050505090506000818511610bfc576000610c10565b610c0f82866119a490919063ffffffff16565b5b905060008373ffffffffffffffffffffffffffffffffffffffff1663fc0c546a6040518163ffffffff1660e01b815260040160206040518083038186803b158015610c5a57600080fd5b505afa158015610c6e573d6000803e3d6000fd5b505050506040513d6020811015610c8457600080fd5b810190808051906020019092919050505090508073ffffffffffffffffffffffffffffffffffffffff166323b872dd338b896040518463ffffffff1660e01b8152600401808473ffffffffffffffffffffffffffffffffffffffff1673ffffffffffffffffffffffffffffffffffffffff1681526020018373ffffffffffffffffffffffffffffffffffffffff1673ffffffffffffffffffffffffffffffffffffffff1681526020018281526020019350505050602060405180830381600087803b158015610d5257600080fd5b505af1158015610d66573d6000803e3d6000fd5b505050506040513d6020811015610d7c57600080fd5b8101908080519060200190929190505050506000821115610e37578373ffffffffffffffffffffffffffffffffffffffff1663ebb2666f33846040518363ffffffff1660e01b8152600401808373ffffffffffffffffffffffffffffffffffffffff1673ffffffffffffffffffffffffffffffffffffffff16815260200182815260200192505050600060405180830381600087803b158015610e1e57600080fd5b505af1158015610e32573d6000803e3d6000fd5b505050505b8373ffffffffffffffffffffffffffffffffffffffff16634a0f2f7a3389610e68868b6119a490919063ffffffff16565b6040518463ffffffff1660e01b8152600401808473ffffffffffffffffffffffffffffffffffffffff1673ffffffffffffffffffffffffffffffffffffffff168152602001831515151581526020018281526020019350505050600060405180830381600087803b158015610edc57600080fd5b505af1158015610ef0573d6000803e3d6000fd5b505050508373ffffffffffffffffffffffffffffffffffffffff1663c587f53c6040518163ffffffff1660e01b8152600401600060405180830381600087803b158015610f3c57600080fd5b505af1158015610f50573d6000803e3d6000fd5b505050508873ffffffffffffffffffffffffffffffffffffffff163373ffffffffffffffffffffffffffffffffffffffff167f0144b26cd143ef8bdf819343ba62c13012f65c36574ce2bf886f63f401ef698e898960405180831515151581526020018281526020019250505060405180910390a3505050505050505050565b6040518060400160405280600581526020017f4f574e455200000000000000000000000000000000000000000000000000000081525061101081336118f2565b611065576040517f08c379a000000000000000000000000000000000000000000000000000000000815260040180806020018281038252602a815260200180612180602a913960400191505060405180910390fd5b61106e82611a2d565b7f22f30a094e2ed10e9a92ebac7a70b8e2ae3288d9b594db22587861bc8fef4eef826040518080602001828103825283818151815260200191508051906020019080838360005b838110156110d05780820151818401526020810190506110b5565b50505050905090810190601f1680156110fd5780820380516001836020036101000a031916815260200191505b509250505060405180910390a15050565b6040518060400160405280600581526020017f4f574e455200000000000000000000000000000000000000000000000000000081525061114e81336118f2565b6111a3576040517f08c379a000000000000000000000000000000000000000000000000000000000815260040180806020018281038252602a815260200180612180602a913960400191505060405180910390fd5b6111ad8383611ab9565b8173ffffffffffffffffffffffffffffffffffffffff167fafe42c64e42361a5193c84f3f11b6803e41dd901d473ee6faa72f43f8ab1f468846040518080602001828103825283818151815260200191508051906020019080838360005b8381101561122657808201518184015260208101905061120b565b50505050905090810190601f1680156112535780820380516001836020036101000a031916815260200191505b509250505060405180910390a2505050565b6040518060400160405280600581526020017f4f574e45520000000000000000000000000000000000000000000000000000008152506112a581336118f2565b6112fa576040517f08c379a000000000000000000000000000000000000000000000000000000000815260040180806020018281038252602a815260200180612180602a913960400191505060405180910390fd5b611327826002600061130b87611929565b8152602001908152602001600020611aea90919063ffffffff16565b8173ffffffffffffffffffffffffffffffffffffffff167f3e3ea7a1060be276a52e916803e2f89e3478e263893fc3c0b4d5793dd6d5f032846040518080602001828103825283818151815260200191508051906020019080838360005b838110156113a0578082015181840152602081019050611385565b50505050905090810190601f1680156113cd5780820380516001836020036101000a031916815260200191505b509250505060405180910390a2505050565b6000600360010180549050905090565b6000611405826003611ba790919063ffffffff16565b9050919050565b60008190508073ffffffffffffffffffffffffffffffffffffffff16637bd190b7336040518263ffffffff1660e01b8152600401808273ffffffffffffffffffffffffffffffffffffffff1673ffffffffffffffffffffffffffffffffffffffff168152602001915050600060405180830381600087803b15801561149057600080fd5b505af11580156114a4573d6000803e3d6000fd5b505050508173ffffffffffffffffffffffffffffffffffffffff163373ffffffffffffffffffffffffffffffffffffffff167ff83c66d938b8fb0bc9adec688ebabcf09ae76453ce9a535d5ebdd5fb0dc5dff460405160405180910390a35050565b6040518060400160405280600581526020017f4f574e455200000000000000000000000000000000000000000000000000000081525061154681336118f2565b61159b576040517f08c379a000000000000000000000000000000000000000000000000000000000815260040180806020018281038252602a815260200180612180602a913960400191505060405180910390fd5b6115af826003611bd390919063ffffffff16565b8173ffffffffffffffffffffffffffffffffffffffff167fa5e14f279e9326d7fd762969f16d1ea7f9ff2a2a754fb962fd93544fc4ace86d60405160405180910390a25050565b60008080549050905090565b6000818154811061160f57fe5b906000526020600020016000915090508054600181600116156101000203166002900480601f0160208091040260200160405190810160405280929190818152602001828054600181600116156101000203166002900480156116b35780601f10611688576101008083540402835291602001916116b3565b820191906000526020600020905b81548152906001019060200180831161169657829003601f168201915b505050505081565b6040518060400160405280600581526020017f4f574e45520000000000000000000000000000000000000000000000000000008152506116fb81336118f2565b611750576040517f08c379a000000000000000000000000000000000000000000000000000000000815260040180806020018281038252602a815260200180612180602a913960400191505060405180910390fd5b611764826003611ddc90919063ffffffff16565b8173ffffffffffffffffffffffffffffffffffffffff167fdd79e4508bc29903281675743dea8b0bc4eb4f9049ce38a081b23c9519c8083460405160405180910390a25050565b6040518060400160405280600581526020017f4f574e455200000000000000000000000000000000000000000000000000000081525081565b60008290508073ffffffffffffffffffffffffffffffffffffffff1663f3fef3a333846040518363ffffffff1660e01b8152600401808373ffffffffffffffffffffffffffffffffffffffff1673ffffffffffffffffffffffffffffffffffffffff16815260200182815260200192505050600060405180830381600087803b15801561187057600080fd5b505af1158015611884573d6000803e3d6000fd5b505050508273ffffffffffffffffffffffffffffffffffffffff163373ffffffffffffffffffffffffffffffffffffffff167fd1c19fbcd4551a5edfb66d43d2e337c04837afda3482b42bdf569a8fccdae5fb846040518082815260200191505060405180910390a3505050565b6000611921826002600061190587611929565b8152602001908152602001600020611e9690919063ffffffff16565b905092915050565b6000816040516020018082805190602001908083835b60208310611962578051825260208201915060208101905060208303925061193f565b6001836020036101000a038019825116818451168082178552505050505050905001915050604051602081830303815290604052805190602001209050919050565b600082821115611a1c576040517f08c379a000000000000000000000000000000000000000000000000000000000815260040180806020018281038252601e8152602001807f536166654d6174683a207375627472616374696f6e206f766572666c6f77000081525060200191505060405180910390fd5b600082840390508091505092915050565b60016000611a3a83611929565b81526020019081526020016000205460001415611ab6576000819080600181540180825580915050906001820390600052602060002001600090919290919091509080519060200190611a8e9291906120ae565b505060008054905060016000611aa384611929565b8152602001908152602001600020819055505b50565b611ae68160026000611aca86611929565b8152602001908152602001600020611f7490919063ffffffff16565b5050565b611af48282611e96565b611b49576040517f08c379a00000000000000000000000000000000000000000000000000000000081526004018080602001828103825260218152602001806122066021913960400191505060405180910390fd5b60008260000160008373ffffffffffffffffffffffffffffffffffffffff1673ffffffffffffffffffffffffffffffffffffffff16815260200190815260200160002060006101000a81548160ff0219169083151502179055505050565b6000826000016000611bb88461204f565b81526020019081526020016000205460001415905092915050565b6000611bde8261204f565b905060008360000160008381526020019081526020016000205414611dd7578260010180549050836000016000838152602001908152602001600020541015611da35782600101600184600101805490500381548110611c3a57fe5b9060005260206000200160009054906101000a900473ffffffffffffffffffffffffffffffffffffffff16836001016001856000016000858152602001908152602001600020540381548110611c8c57fe5b9060005260206000200160006101000a81548173ffffffffffffffffffffffffffffffffffffffff021916908373ffffffffffffffffffffffffffffffffffffffff16021790555082600001600082815260200190815260200160002054836000016000611d4a866001016001886000016000888152602001908152602001600020540381548110611d1a57fe5b9060005260206000200160009054906101000a900473ffffffffffffffffffffffffffffffffffffffff1661204f565b81526020019081526020016000208190555082600101600184600101805490500381548110611d7557fe5b9060005260206000200160006101000a81549073ffffffffffffffffffffffffffffffffffffffff02191690555b82600101805480919060019003611dba919061212e565b506000836000016000838152602001908152602001600020819055505b505050565b6000611de78261204f565b90506000836000016000838152602001908152602001600020541415611e9157826001018290806001815401808255809150509060018203906000526020600020016000909192909190916101000a81548173ffffffffffffffffffffffffffffffffffffffff021916908373ffffffffffffffffffffffffffffffffffffffff160217905550508260010180549050836000016000838152602001908152602001600020819055505b505050565b60008073ffffffffffffffffffffffffffffffffffffffff168273ffffffffffffffffffffffffffffffffffffffff161415611f1d576040517f08c379a00000000000000000000000000000000000000000000000000000000081526004018080602001828103825260228152602001806122276022913960400191505060405180910390fd5b8260000160008373ffffffffffffffffffffffffffffffffffffffff1673ffffffffffffffffffffffffffffffffffffffff16815260200190815260200160002060009054906101000a900460ff16905092915050565b611f7e8282611e96565b15611ff1576040517f08c379a000000000000000000000000000000000000000000000000000000000815260040180806020018281038252601f8152602001807f526f6c65733a206163636f756e7420616c72656164792068617320726f6c650081525060200191505060405180910390fd5b60018260000160008373ffffffffffffffffffffffffffffffffffffffff1673ffffffffffffffffffffffffffffffffffffffff16815260200190815260200160002060006101000a81548160ff0219169083151502179055505050565b600081604051602001808273ffffffffffffffffffffffffffffffffffffffff1673ffffffffffffffffffffffffffffffffffffffff1660601b8152601401915050604051602081830303815290604052805190602001209050919050565b828054600181600116156101000203166002900490600052602060002090601f016020900481019282601f106120ef57805160ff191683800117855561211d565b8280016001018555821561211d579182015b8281111561211c578251825591602001919060010190612101565b5b50905061212a919061215a565b5090565b81548183558181111561215557818360005260206000209182019101612154919061215a565b5b505050565b61217c91905b80821115612178576000816000905550600101612160565b5090565b9056fe5242414365643a2073656e646572206973206e6f74206163636573736f72206f662074686520726f6c654f7261636c653a205265736f6c7574696f6e20656e67696e65206973206e6f7420726567697374657265644f7261636c653a206e6f74207468652063757272656e7420766572696669636174696f6e207068617365206e756d626572526f6c65733a206163636f756e7420646f6573206e6f74206861766520726f6c65526f6c65733a206163636f756e7420697320746865207a65726f2061646472657373a265627a7a72315820e7452cc5d70b262c54e24d22f1c7d98f83548d444205f812234fae97fc691d7664736f6c634300050b0032526f6c65733a206163636f756e7420697320746865207a65726f2061646472657373",
  "source": "/*\n * Lottery oracle\n *\n * Copyright (C) 2017-2019 Hubii AS\n */\n\npragma solidity ^0.5.11;\n\nimport {RBACed} from \"./RBACed.sol\";\nimport {SafeMath} from \"openzeppelin-solidity/contracts/math/SafeMath.sol\";\nimport {AddressStoreLib} from \"./AddressStoreLib.sol\";\nimport {ResolutionEngine} from \"./ResolutionEngine.sol\";\nimport {ERC20} from \"openzeppelin-solidity/contracts/token/ERC20/ERC20.sol\";\n\n/// @title Oracle\n/// @author Jens Ivar Jrdre <jensivar@hubii.com>\n/// @notice A lottery oracle\ncontract Oracle is RBACed {\n    using SafeMath for uint256;\n    using AddressStoreLib for AddressStoreLib.Addresses;\n\n    event ResolutionEngineAdded(address indexed _resolutionEngine);\n    event ResolutionEngineRemoved(address indexed _resolutionEngine);\n    event TokensStaked(address indexed _wallet, address indexed _resolutionEngine,\n        bool _status, uint256 _amount);\n    event PayoutStaged(address indexed _wallet, address indexed _resolutionEngine,\n        uint256 _firstVerificationPhaseNumber, uint256 _lastVerificationPhaseNumber);\n    event StakeStaged(address indexed _wallet, address indexed _resolutionEngine);\n    event Withdrawn(address indexed _wallet, address indexed _resolutionEngine,\n        uint256 _amount);\n\n    AddressStoreLib.Addresses resolutionEngines;\n\n    /// @notice `msg.sender` will be added as accessor to the owner role\n    constructor()\n    public\n    {\n    }\n\n    modifier onlyRegisteredResolutionEngine(address _resolutionEngine) {\n        require(hasResolutionEngine(_resolutionEngine), \"Oracle: Resolution engine is not registered\");\n        _;\n    }\n\n    /// @notice Gauge whether an address is the one of a registered resolution engine\n    /// @param _resolutionEngine The concerned address\n    /// @return true if address is the one of a registered resolution engine, else false\n    function hasResolutionEngine(address _resolutionEngine)\n    public\n    view\n    returns\n    (bool)\n    {\n        return resolutionEngines.has(_resolutionEngine);\n    }\n\n    /// @notice Return the count of registered resolution engines\n    /// @return The count of registered resolution engines\n    function resolutionEnginesCount()\n    public\n    view\n    returns (uint256)\n    {\n        return resolutionEngines.list.length;\n    }\n\n    /// @notice Register a resolution engine by its address\n    /// @param _resolutionEngine The concerned address\n    function addResolutionEngine(address _resolutionEngine)\n    public\n    onlyRoleAccessor(OWNER_ROLE)\n    {\n        // Add resolution engine\n        resolutionEngines.add(_resolutionEngine);\n\n        // Emit event\n        emit ResolutionEngineAdded(_resolutionEngine);\n    }\n\n    /// @notice Deregister a resolution engine by its address\n    /// @param _resolutionEngine The concerned address\n    function removeResolutionEngine(address _resolutionEngine)\n    public\n    onlyRoleAccessor(OWNER_ROLE)\n    {\n        // Remove resolution engine\n        resolutionEngines.remove(_resolutionEngine);\n\n        // Emit event\n        emit ResolutionEngineRemoved(_resolutionEngine);\n    }\n\n    /// @notice For the given resolution engine and verification phase number stake the amount of tokens\n    /// at the given status\n    /// @dev Client has to do prior approval of the transfer of the given amount\n    /// @param _resolutionEngine The concerned resolution engine\n    /// @param _verificationPhaseNumber The verification phase number to stake into\n    /// @param _amount The amount staked\n    /// @param _status The status staked at\n    function stake(address _resolutionEngine, uint256 _verificationPhaseNumber, bool _status, uint256 _amount)\n    public\n    onlyRegisteredResolutionEngine(_resolutionEngine)\n    {\n        // Initialize resolution engine\n        ResolutionEngine resolutionEngine = ResolutionEngine(_resolutionEngine);\n\n        // Require that stake targets current verification phase number\n        require(resolutionEngine.verificationPhaseNumber() == _verificationPhaseNumber,\n            \"Oracle: not the current verification phase number\");\n\n        // Calculate the stake overage amount\n        uint256 resolutionDeltaAmount = resolutionEngine.resolutionDeltaAmount(_status);\n        uint256 overageAmount = _amount > resolutionDeltaAmount ?\n        _amount.sub(resolutionDeltaAmount) :\n        0;\n\n        // Initialize token\n        ERC20 token = ERC20(resolutionEngine.token());\n\n        // Transfer from msg.sender to this resolution engine\n        token.transferFrom(msg.sender, _resolutionEngine, _amount);\n\n        // Stage for refund the stake overage amount\n        if (overageAmount > 0)\n            resolutionEngine.stage(msg.sender, overageAmount);\n\n        // Update the current verification phase metrics post transfer\n        resolutionEngine.stake(msg.sender, _status, _amount.sub(overageAmount));\n\n        // Possibly resolve market in the current verification phase if resolution criteria have been met\n        resolutionEngine.resolveIfCriteriaMet();\n\n        // Emit event\n        emit TokensStaked(msg.sender, _resolutionEngine, _status, _amount);\n    }\n\n    /// @notice For the given resolution engine and inclusive verification phase number range stage payout\n    /// @param _resolutionEngine The concerned resolution engine\n    /// @param _firstVerificationPhaseNumber The first verification phase number to stage payout from\n    /// @param _lastVerificationPhaseNumber The last verification phase number to stage payout from\n    function stagePayout(address _resolutionEngine, uint256 _firstVerificationPhaseNumber,\n        uint256 _lastVerificationPhaseNumber)\n    public\n    {\n        // Initialize resolution engine\n        ResolutionEngine resolutionEngine = ResolutionEngine(_resolutionEngine);\n\n        // Withdraw payout from resolution engine\n        resolutionEngine.stagePayout(msg.sender, _firstVerificationPhaseNumber, _lastVerificationPhaseNumber);\n\n        // Emit event\n        emit PayoutStaged(msg.sender, _resolutionEngine, _firstVerificationPhaseNumber, _lastVerificationPhaseNumber);\n    }\n\n    /// @notice For the given resolution engine stage the stake\n    /// @param _resolutionEngine The concerned resolution engine\n    function stageStake(address _resolutionEngine)\n    public\n    {\n        // Initialize resolution engine\n        ResolutionEngine resolutionEngine = ResolutionEngine(_resolutionEngine);\n\n        // Withdraw payout from resolution engine\n        resolutionEngine.stageStake(msg.sender);\n\n        // Emit event\n        emit StakeStaged(msg.sender, _resolutionEngine);\n    }\n\n    /// @notice For the given resolution engine withdraw the given amount\n    /// @param _resolutionEngine The concerned resolution engine\n    /// @param _amount The amount to be withdrawn\n    function withdraw(address _resolutionEngine, uint256 _amount)\n    public\n    {\n        // Initialize resolution engine\n        ResolutionEngine resolutionEngine = ResolutionEngine(_resolutionEngine);\n\n        // Withdraw payout from resolution engine\n        resolutionEngine.withdraw(msg.sender, _amount);\n\n        // Emit event\n        emit Withdrawn(msg.sender, _resolutionEngine, _amount);\n    }\n}\n",
  "sourcePath": "/opt/buildagent/work/9988d0feca52d9d9/contracts/Oracle.sol",
  "compiler": {
    "name": "solc",
    "version": "0.5.11+commit.c082d0b4.Emscripten.clang"
  },
  "schemaVersion": "3.0.16",
  "updatedAt": "2019-09-22T23:17:18.954Z",
  "devdoc": {
    "author": "Jens Ivar Jrdre <jensivar@hubii.com>",
    "methods": {
      "addResolutionEngine(address)": {
        "params": {
          "_resolutionEngine": "The concerned address"
        }
      },
      "addRole(string)": {
        "params": {
          "_role": "The concerned role"
        }
      },
      "addRoleAccessor(string,address)": {
        "params": {
          "_address": "The concerned address",
          "_role": "The concerned role"
        }
      },
      "hasResolutionEngine(address)": {
        "params": {
          "_resolutionEngine": "The concerned address"
        },
        "return": "true if address is the one of a registered resolution engine, else false"
      },
      "isRole(string)": {
        "params": {
          "_role": "The concerned role"
        },
        "return": "true if role has been set, else false"
      },
      "isRoleAccessor(string,address)": {
        "params": {
          "_address": "The concerned address",
          "_role": "The concerned role"
        },
        "return": "true if address is the one of a registered accessor of role, else false"
      },
      "removeResolutionEngine(address)": {
        "params": {
          "_resolutionEngine": "The concerned address"
        }
      },
      "removeRoleAccessor(string,address)": {
        "params": {
          "_address": "The concerned address",
          "_role": "The concerned role"
        }
      },
      "resolutionEnginesCount()": {
        "return": "The count of registered resolution engines"
      },
      "rolesCount()": {
        "return": "The count of roles"
      },
      "stagePayout(address,uint256,uint256)": {
        "params": {
          "_firstVerificationPhaseNumber": "The first verification phase number to stage payout from",
          "_lastVerificationPhaseNumber": "The last verification phase number to stage payout from",
          "_resolutionEngine": "The concerned resolution engine"
        }
      },
      "stageStake(address)": {
        "params": {
          "_resolutionEngine": "The concerned resolution engine"
        }
      },
      "stake(address,uint256,bool,uint256)": {
        "details": "Client has to do prior approval of the transfer of the given amount",
        "params": {
          "_amount": "The amount staked",
          "_resolutionEngine": "The concerned resolution engine",
          "_status": "The status staked at",
          "_verificationPhaseNumber": "The verification phase number to stake into"
        }
      },
      "withdraw(address,uint256)": {
        "params": {
          "_amount": "The amount to be withdrawn",
          "_resolutionEngine": "The concerned resolution engine"
        }
      }
    },
    "title": "Oracle"
  },
  "userdoc": {
    "methods": {
      "addResolutionEngine(address)": {
        "notice": "Register a resolution engine by its address"
      },
      "addRole(string)": {
        "notice": "Add role"
      },
      "addRoleAccessor(string,address)": {
        "notice": "Register an address as accessor of a role"
      },
      "constructor": "`msg.sender` will be added as accessor to the owner role",
      "hasResolutionEngine(address)": {
        "notice": "Gauge whether an address is the one of a registered resolution engine"
      },
      "isRole(string)": {
        "notice": "Gauge whether a role is set"
      },
      "isRoleAccessor(string,address)": {
        "notice": "Gauge whether an address is an accessor of a role"
      },
      "removeResolutionEngine(address)": {
        "notice": "Deregister a resolution engine by its address"
      },
      "removeRoleAccessor(string,address)": {
        "notice": "Deregister an address as accessor of a role"
      },
      "resolutionEnginesCount()": {
        "notice": "Return the count of registered resolution engines"
      },
      "rolesCount()": {
        "notice": "Get the count of roles"
      },
      "stagePayout(address,uint256,uint256)": {
        "notice": "For the given resolution engine and inclusive verification phase number range stage payout"
      },
      "stageStake(address)": {
        "notice": "For the given resolution engine stage the stake"
      },
      "stake(address,uint256,bool,uint256)": {
        "notice": "For the given resolution engine and verification phase number stake the amount of tokens at the given status"
      },
      "withdraw(address,uint256)": {
        "notice": "For the given resolution engine withdraw the given amount"
      }
    },
    "notice": "A lottery oracle"
  }
}