{
  "contractName": "RBACed",
  "abi": [
    {
      "constant": true,
      "inputs": [
        {
          "internalType": "uint256",
          "name": "",
          "type": "uint256"
        }
      ],
      "name": "roles",
      "outputs": [
        {
          "internalType": "string",
          "name": "",
          "type": "string"
        }
      ],
      "payable": false,
      "stateMutability": "view",
      "type": "function"
    },
    {
      "constant": true,
      "inputs": [],
      "name": "OWNER_ROLE",
      "outputs": [
        {
          "internalType": "string",
          "name": "",
          "type": "string"
        }
      ],
      "payable": false,
      "stateMutability": "view",
      "type": "function"
    },
    {
      "inputs": [],
      "payable": false,
      "stateMutability": "nonpayable",
      "type": "constructor"
    },
    {
      "anonymous": false,
      "inputs": [
        {
          "indexed": false,
          "internalType": "string",
          "name": "_role",
          "type": "string"
        }
      ],
      "name": "RoleAdded",
      "type": "event"
    },
    {
      "anonymous": false,
      "inputs": [
        {
          "indexed": false,
          "internalType": "string",
          "name": "_role",
          "type": "string"
        },
        {
          "indexed": true,
          "internalType": "address",
          "name": "_address",
          "type": "address"
        }
      ],
      "name": "RoleAccessorAdded",
      "type": "event"
    },
    {
      "anonymous": false,
      "inputs": [
        {
          "indexed": false,
          "internalType": "string",
          "name": "_role",
          "type": "string"
        },
        {
          "indexed": true,
          "internalType": "address",
          "name": "_address",
          "type": "address"
        }
      ],
      "name": "RoleAccessorRemoved",
      "type": "event"
    },
    {
      "constant": true,
      "inputs": [],
      "name": "rolesCount",
      "outputs": [
        {
          "internalType": "uint256",
          "name": "",
          "type": "uint256"
        }
      ],
      "payable": false,
      "stateMutability": "view",
      "type": "function"
    },
    {
      "constant": true,
      "inputs": [
        {
          "internalType": "string",
          "name": "_role",
          "type": "string"
        }
      ],
      "name": "isRole",
      "outputs": [
        {
          "internalType": "bool",
          "name": "",
          "type": "bool"
        }
      ],
      "payable": false,
      "stateMutability": "view",
      "type": "function"
    },
    {
      "constant": false,
      "inputs": [
        {
          "internalType": "string",
          "name": "_role",
          "type": "string"
        }
      ],
      "name": "addRole",
      "outputs": [],
      "payable": false,
      "stateMutability": "nonpayable",
      "type": "function"
    },
    {
      "constant": true,
      "inputs": [
        {
          "internalType": "string",
          "name": "_role",
          "type": "string"
        },
        {
          "internalType": "address",
          "name": "_address",
          "type": "address"
        }
      ],
      "name": "isRoleAccessor",
      "outputs": [
        {
          "internalType": "bool",
          "name": "",
          "type": "bool"
        }
      ],
      "payable": false,
      "stateMutability": "view",
      "type": "function"
    },
    {
      "constant": false,
      "inputs": [
        {
          "internalType": "string",
          "name": "_role",
          "type": "string"
        },
        {
          "internalType": "address",
          "name": "_address",
          "type": "address"
        }
      ],
      "name": "addRoleAccessor",
      "outputs": [],
      "payable": false,
      "stateMutability": "nonpayable",
      "type": "function"
    },
    {
      "constant": false,
      "inputs": [
        {
          "internalType": "string",
          "name": "_role",
          "type": "string"
        },
        {
          "internalType": "address",
          "name": "_address",
          "type": "address"
        }
      ],
      "name": "removeRoleAccessor",
      "outputs": [],
      "payable": false,
      "stateMutability": "nonpayable",
      "type": "function"
    }
  ],
  "bytecode": "0x60806040523480156200001157600080fd5b50620000586040518060400160405280600581526020017f4f574e4552000000000000000000000000000000000000000000000000000000815250620000a560201b60201c565b6200009f6040518060400160405280600581526020017f4f574e4552000000000000000000000000000000000000000000000000000000815250336200014460201b60201c565b62000474565b60016000620000ba836200018460201b60201c565b815260200190815260200160002054600014156200014157600081908060018154018082558091505090600182039060005260206000200160009091929091909150908051906020019062000111929190620003c5565b5050600080549050600160006200012e846200018460201b60201c565b8152602001908152602001600020819055505b50565b6200018081600260006200015e866200018460201b60201c565b81526020019081526020016000206200020160201b62000e4c1790919060201c565b5050565b6000816040516020018082805190602001908083835b60208310620001bf57805182526020820191506020810190506020830392506200019a565b6001836020036101000a038019825116818451168082178552505050505050905001915050604051602081830303815290604052805190602001209050919050565b620002138282620002e560201b60201c565b1562000287576040517f08c379a000000000000000000000000000000000000000000000000000000000815260040180806020018281038252601f8152602001807f526f6c65733a206163636f756e7420616c72656164792068617320726f6c650081525060200191505060405180910390fd5b60018260000160008373ffffffffffffffffffffffffffffffffffffffff1673ffffffffffffffffffffffffffffffffffffffff16815260200190815260200160002060006101000a81548160ff0219169083151502179055505050565b60008073ffffffffffffffffffffffffffffffffffffffff168273ffffffffffffffffffffffffffffffffffffffff1614156200036e576040517f08c379a0000000000000000000000000000000000000000000000000000000008152600401808060200182810382526022815260200180620014f26022913960400191505060405180910390fd5b8260000160008373ffffffffffffffffffffffffffffffffffffffff1673ffffffffffffffffffffffffffffffffffffffff16815260200190815260200160002060009054906101000a900460ff16905092915050565b828054600181600116156101000203166002900490600052602060002090601f016020900481019282601f106200040857805160ff191683800117855562000439565b8280016001018555821562000439579182015b82811115620004385782518255916020019190600101906200041b565b5b5090506200044891906200044c565b5090565b6200047191905b808211156200046d57600081600090555060010162000453565b5090565b90565b61106e80620004846000396000f3fe608060405234801561001057600080fd5b50600436106100885760003560e01c8063b8517dd81161005b578063b8517dd8146103d1578063bfda4a49146103ef578063e58378bb14610496578063fb535fd61461051957610088565b80630f6c37de1461008d5780633e96e868146101605780634da195be1461021b5780635b0f833a146102f6575b600080fd5b610146600480360360208110156100a357600080fd5b81019080803590602001906401000000008111156100c057600080fd5b8201836020820111156100d257600080fd5b803590602001918460018302840111640100000000831117156100f457600080fd5b91908080601f016020809104026020016040519081016040528093929190818152602001838380828437600081840152601f19601f82011690508083019250505050505050919291929050505061060c565b604051808215151515815260200191505060405180910390f35b6102196004803603602081101561017657600080fd5b810190808035906020019064010000000081111561019357600080fd5b8201836020820111156101a557600080fd5b803590602001918460018302840111640100000000831117156101c757600080fd5b91908080601f016020809104026020016040519081016040528093929190818152602001838380828437600081840152601f19601f820116905080830192505050505050509192919290505050610635565b005b6102f46004803603604081101561023157600080fd5b810190808035906020019064010000000081111561024e57600080fd5b82018360208201111561026057600080fd5b8035906020019184600183028401116401000000008311171561028257600080fd5b91908080601f016020809104026020016040519081016040528093929190818152602001838380828437600081840152601f19601f820116905080830192505050505050509192919290803573ffffffffffffffffffffffffffffffffffffffff169060200190929190505050610773565b005b6103cf6004803603604081101561030c57600080fd5b810190808035906020019064010000000081111561032957600080fd5b82018360208201111561033b57600080fd5b8035906020019184600183028401116401000000008311171561035d57600080fd5b91908080601f016020809104026020016040519081016040528093929190818152602001838380828437600081840152601f19601f820116905080830192505050505050509192919290803573ffffffffffffffffffffffffffffffffffffffff1690602001909291905050506108ca565b005b6103d9610a44565b6040518082815260200191505060405180910390f35b61041b6004803603602081101561040557600080fd5b8101908080359060200190929190505050610a50565b6040518080602001828103825283818151815260200191508051906020019080838360005b8381101561045b578082015181840152602081019050610440565b50505050905090810190601f1680156104885780820380516001836020036101000a031916815260200191505b509250505060405180910390f35b61049e610b09565b6040518080602001828103825283818151815260200191508051906020019080838360005b838110156104de5780820151818401526020810190506104c3565b50505050905090810190601f16801561050b5780820380516001836020036101000a031916815260200191505b509250505060405180910390f35b6105f26004803603604081101561052f57600080fd5b810190808035906020019064010000000081111561054c57600080fd5b82018360208201111561055e57600080fd5b8035906020019184600183028401116401000000008311171561058057600080fd5b91908080601f016020809104026020016040519081016040528093929190818152602001838380828437600081840152601f19601f820116905080830192505050505050509192919290803573ffffffffffffffffffffffffffffffffffffffff169060200190929190505050610b42565b604051808215151515815260200191505060405180910390f35b60006001600061061b84610b79565b815260200190815260200160002054600014159050919050565b6040518060400160405280600581526020017f4f574e45520000000000000000000000000000000000000000000000000000008152506106758133610b42565b6106ca576040517f08c379a000000000000000000000000000000000000000000000000000000000815260040180806020018281038252602a815260200180610fcd602a913960400191505060405180910390fd5b6106d382610bf4565b7f22f30a094e2ed10e9a92ebac7a70b8e2ae3288d9b594db22587861bc8fef4eef826040518080602001828103825283818151815260200191508051906020019080838360005b8381101561073557808201518184015260208101905061071a565b50505050905090810190601f1680156107625780820380516001836020036101000a031916815260200191505b509250505060405180910390a15050565b6040518060400160405280600581526020017f4f574e45520000000000000000000000000000000000000000000000000000008152506107b38133610b42565b610808576040517f08c379a000000000000000000000000000000000000000000000000000000000815260040180806020018281038252602a815260200180610fcd602a913960400191505060405180910390fd5b6108128383610c80565b8173ffffffffffffffffffffffffffffffffffffffff167fafe42c64e42361a5193c84f3f11b6803e41dd901d473ee6faa72f43f8ab1f468846040518080602001828103825283818151815260200191508051906020019080838360005b8381101561088b578082015181840152602081019050610870565b50505050905090810190601f1680156108b85780820380516001836020036101000a031916815260200191505b509250505060405180910390a2505050565b6040518060400160405280600581526020017f4f574e455200000000000000000000000000000000000000000000000000000081525061090a8133610b42565b61095f576040517f08c379a000000000000000000000000000000000000000000000000000000000815260040180806020018281038252602a815260200180610fcd602a913960400191505060405180910390fd5b61098c826002600061097087610b79565b8152602001908152602001600020610cb190919063ffffffff16565b8173ffffffffffffffffffffffffffffffffffffffff167f3e3ea7a1060be276a52e916803e2f89e3478e263893fc3c0b4d5793dd6d5f032846040518080602001828103825283818151815260200191508051906020019080838360005b83811015610a055780820151818401526020810190506109ea565b50505050905090810190601f168015610a325780820380516001836020036101000a031916815260200191505b509250505060405180910390a2505050565b60008080549050905090565b60008181548110610a5d57fe5b906000526020600020016000915090508054600181600116156101000203166002900480601f016020809104026020016040519081016040528092919081815260200182805460018160011615610100020316600290048015610b015780601f10610ad657610100808354040283529160200191610b01565b820191906000526020600020905b815481529060010190602001808311610ae457829003601f168201915b505050505081565b6040518060400160405280600581526020017f4f574e455200000000000000000000000000000000000000000000000000000081525081565b6000610b718260026000610b5587610b79565b8152602001908152602001600020610d6e90919063ffffffff16565b905092915050565b6000816040516020018082805190602001908083835b60208310610bb25780518252602082019150602081019050602083039250610b8f565b6001836020036101000a038019825116818451168082178552505050505050905001915050604051602081830303815290604052805190602001209050919050565b60016000610c0183610b79565b81526020019081526020016000205460001415610c7d576000819080600181540180825580915050906001820390600052602060002001600090919290919091509080519060200190610c55929190610f27565b505060008054905060016000610c6a84610b79565b8152602001908152602001600020819055505b50565b610cad8160026000610c9186610b79565b8152602001908152602001600020610e4c90919063ffffffff16565b5050565b610cbb8282610d6e565b610d10576040517f08c379a0000000000000000000000000000000000000000000000000000000008152600401808060200182810382526021815260200180610ff76021913960400191505060405180910390fd5b60008260000160008373ffffffffffffffffffffffffffffffffffffffff1673ffffffffffffffffffffffffffffffffffffffff16815260200190815260200160002060006101000a81548160ff0219169083151502179055505050565b60008073ffffffffffffffffffffffffffffffffffffffff168273ffffffffffffffffffffffffffffffffffffffff161415610df5576040517f08c379a00000000000000000000000000000000000000000000000000000000081526004018080602001828103825260228152602001806110186022913960400191505060405180910390fd5b8260000160008373ffffffffffffffffffffffffffffffffffffffff1673ffffffffffffffffffffffffffffffffffffffff16815260200190815260200160002060009054906101000a900460ff16905092915050565b610e568282610d6e565b15610ec9576040517f08c379a000000000000000000000000000000000000000000000000000000000815260040180806020018281038252601f8152602001807f526f6c65733a206163636f756e7420616c72656164792068617320726f6c650081525060200191505060405180910390fd5b60018260000160008373ffffffffffffffffffffffffffffffffffffffff1673ffffffffffffffffffffffffffffffffffffffff16815260200190815260200160002060006101000a81548160ff0219169083151502179055505050565b828054600181600116156101000203166002900490600052602060002090601f016020900481019282601f10610f6857805160ff1916838001178555610f96565b82800160010185558215610f96579182015b82811115610f95578251825591602001919060010190610f7a565b5b509050610fa39190610fa7565b5090565b610fc991905b80821115610fc5576000816000905550600101610fad565b5090565b9056fe5242414365643a2073656e646572206973206e6f74206163636573736f72206f662074686520726f6c65526f6c65733a206163636f756e7420646f6573206e6f74206861766520726f6c65526f6c65733a206163636f756e7420697320746865207a65726f2061646472657373a265627a7a723158205ccca35da42884ed37136a519b9c058eb1c22d2f4f2a4396fe76be5023f09b5a64736f6c634300050b0032526f6c65733a206163636f756e7420697320746865207a65726f2061646472657373",
  "source": "/*\n * Lottery oracle\n *\n * Copyright (C) 2017-2019 Hubii AS\n */\n\npragma solidity ^0.5.11;\n\nimport {Roles} from \"openzeppelin-solidity/contracts/access/Roles.sol\";\n\n/// @title RBACed (Role-Based Access Controlled)\n/// @author Jens Ivar Jørdre <jensivar@hubii.com>\n/// @notice A base contract to support general RBAC of arbitrary number of roles\ncontract RBACed {\n    using Roles for Roles.Role;\n\n    event RoleAdded(string _role);\n    event RoleAccessorAdded(string _role, address indexed _address);\n    event RoleAccessorRemoved(string _role, address indexed _address);\n\n    string constant public OWNER_ROLE = \"OWNER\";\n\n    string[] public roles;\n    mapping(bytes32 => uint256) roleIndexByName;\n    mapping(bytes32 => Roles.Role) private roleByName;\n\n    /// @notice `msg.sender` will be added as accessor to the owner role\n    constructor()\n    public\n    {\n        // Add role\n        _addRole(OWNER_ROLE);\n\n        // Add role accessor\n        _addRoleAccessor(OWNER_ROLE, msg.sender);\n    }\n\n    modifier onlyRoleAccessor(string memory _role) {\n        require(isRoleAccessor(_role, msg.sender), \"RBACed: sender is not accessor of the role\");\n        _;\n    }\n\n    /// @notice Get the count of roles\n    /// @return the count of roles\n    function rolesCount()\n    public\n    view\n    returns (uint256)\n    {\n        return roles.length;\n    }\n\n    /// @notice Gauge whether a role is set\n    /// @param _role The concerned role\n    /// @return true if role has been set, else false\n    function isRole(string memory _role)\n    public\n    view\n    returns (bool)\n    {\n        return 0 != roleIndexByName[_role2Key(_role)];\n    }\n\n    /// @notice Add role\n    /// @param _role The concerned role\n    function addRole(string memory _role)\n    public\n    onlyRoleAccessor(OWNER_ROLE)\n    {\n        // Add role\n        _addRole(_role);\n\n        // Emit event\n        emit RoleAdded(_role);\n    }\n\n    /// @notice Gauge whether an address is an accessor of a role\n    /// @param _role The concerned role\n    /// @param _address The concerned address\n    /// @return true if address is the one of a registered accessor of role, else false\n    function isRoleAccessor(string memory _role, address _address)\n    public\n    view\n    returns (bool)\n    {\n        return roleByName[_role2Key(_role)].has(_address);\n    }\n\n    /// @notice Register an address as accessor of a role\n    /// @param _role The concerned role\n    /// @param _address The concerned address\n    function addRoleAccessor(string memory _role, address _address)\n    public\n    onlyRoleAccessor(OWNER_ROLE)\n    {\n        // Add role accessor\n        _addRoleAccessor(_role, _address);\n\n        // Emit event\n        emit RoleAccessorAdded(_role, _address);\n    }\n\n    /// @notice Deregister an address as accessor of a role\n    /// @param _role The concerned role\n    /// @param _address The concerned address\n    function removeRoleAccessor(string memory _role, address _address)\n    public\n    onlyRoleAccessor(OWNER_ROLE)\n    {\n        // Remove role accessor\n        roleByName[_role2Key(_role)].remove(_address);\n\n        // Emit event\n        emit RoleAccessorRemoved(_role, _address);\n    }\n\n    function _addRole(string memory _role)\n    internal\n    {\n        if (0 == roleIndexByName[_role2Key(_role)]) {\n            roles.push(_role);\n            roleIndexByName[_role2Key(_role)] = roles.length;\n        }\n    }\n\n    function _addRoleAccessor(string memory _role, address _address)\n    internal\n    {\n        roleByName[_role2Key(_role)].add(_address);\n    }\n\n    function _role2Key(string memory _role)\n    internal\n    pure\n    returns (bytes32)\n    {\n        return keccak256(abi.encodePacked(_role));\n    }\n}\n",
  "sourcePath": "/opt/buildagent/work/9988d0feca52d9d9/contracts/RBACed.sol",
  "compiler": {
    "name": "solc",
    "version": "0.5.11+commit.c082d0b4.Emscripten.clang"
  },
  "schemaVersion": "3.0.16",
  "updatedAt": "2019-09-23T19:58:01.524Z",
  "devdoc": {
    "author": "Jens Ivar Jørdre <jensivar@hubii.com>",
    "methods": {
      "addRole(string)": {
        "params": {
          "_role": "The concerned role"
        }
      },
      "addRoleAccessor(string,address)": {
        "params": {
          "_address": "The concerned address",
          "_role": "The concerned role"
        }
      },
      "isRole(string)": {
        "params": {
          "_role": "The concerned role"
        },
        "return": "true if role has been set, else false"
      },
      "isRoleAccessor(string,address)": {
        "params": {
          "_address": "The concerned address",
          "_role": "The concerned role"
        },
        "return": "true if address is the one of a registered accessor of role, else false"
      },
      "removeRoleAccessor(string,address)": {
        "params": {
          "_address": "The concerned address",
          "_role": "The concerned role"
        }
      },
      "rolesCount()": {
        "return": "the count of roles"
      }
    },
    "title": "RBACed (Role-Based Access Controlled)"
  },
  "userdoc": {
    "methods": {
      "addRole(string)": {
        "notice": "Add role"
      },
      "addRoleAccessor(string,address)": {
        "notice": "Register an address as accessor of a role"
      },
      "constructor": "`msg.sender` will be added as accessor to the owner role",
      "isRole(string)": {
        "notice": "Gauge whether a role is set"
      },
      "isRoleAccessor(string,address)": {
        "notice": "Gauge whether an address is an accessor of a role"
      },
      "removeRoleAccessor(string,address)": {
        "notice": "Deregister an address as accessor of a role"
      },
      "rolesCount()": {
        "notice": "Get the count of roles"
      }
    },
    "notice": "A base contract to support general RBAC of arbitrary number of roles"
  }
}