{
  "contractName": "RBACed",
  "abi": [
    {
      "constant": true,
      "inputs": [
        {
          "name": "",
          "type": "uint256"
        }
      ],
      "name": "roles",
      "outputs": [
        {
          "name": "",
          "type": "string"
        }
      ],
      "payable": false,
      "stateMutability": "view",
      "type": "function"
    },
    {
      "constant": true,
      "inputs": [],
      "name": "OWNER_ROLE",
      "outputs": [
        {
          "name": "",
          "type": "string"
        }
      ],
      "payable": false,
      "stateMutability": "view",
      "type": "function"
    },
    {
      "inputs": [],
      "payable": false,
      "stateMutability": "nonpayable",
      "type": "constructor"
    },
    {
      "anonymous": false,
      "inputs": [
        {
          "indexed": false,
          "name": "_role",
          "type": "string"
        }
      ],
      "name": "RoleAdded",
      "type": "event"
    },
    {
      "anonymous": false,
      "inputs": [
        {
          "indexed": false,
          "name": "_role",
          "type": "string"
        },
        {
          "indexed": true,
          "name": "_address",
          "type": "address"
        }
      ],
      "name": "RoleAccessorAdded",
      "type": "event"
    },
    {
      "anonymous": false,
      "inputs": [
        {
          "indexed": false,
          "name": "_role",
          "type": "string"
        },
        {
          "indexed": true,
          "name": "_address",
          "type": "address"
        }
      ],
      "name": "RoleAccessorRemoved",
      "type": "event"
    },
    {
      "constant": true,
      "inputs": [],
      "name": "rolesCount",
      "outputs": [
        {
          "name": "",
          "type": "uint256"
        }
      ],
      "payable": false,
      "stateMutability": "view",
      "type": "function"
    },
    {
      "constant": true,
      "inputs": [
        {
          "name": "_role",
          "type": "string"
        }
      ],
      "name": "isRole",
      "outputs": [
        {
          "name": "",
          "type": "bool"
        }
      ],
      "payable": false,
      "stateMutability": "view",
      "type": "function"
    },
    {
      "constant": false,
      "inputs": [
        {
          "name": "_role",
          "type": "string"
        }
      ],
      "name": "addRole",
      "outputs": [],
      "payable": false,
      "stateMutability": "nonpayable",
      "type": "function"
    },
    {
      "constant": true,
      "inputs": [
        {
          "name": "_role",
          "type": "string"
        },
        {
          "name": "_address",
          "type": "address"
        }
      ],
      "name": "isRoleAccessor",
      "outputs": [
        {
          "name": "",
          "type": "bool"
        }
      ],
      "payable": false,
      "stateMutability": "view",
      "type": "function"
    },
    {
      "constant": false,
      "inputs": [
        {
          "name": "_role",
          "type": "string"
        },
        {
          "name": "_address",
          "type": "address"
        }
      ],
      "name": "addRoleAccessor",
      "outputs": [],
      "payable": false,
      "stateMutability": "nonpayable",
      "type": "function"
    },
    {
      "constant": false,
      "inputs": [
        {
          "name": "_role",
          "type": "string"
        },
        {
          "name": "_address",
          "type": "address"
        }
      ],
      "name": "removeRoleAccessor",
      "outputs": [],
      "payable": false,
      "stateMutability": "nonpayable",
      "type": "function"
    }
  ],
  "bytecode": "0x60806040523480156200001157600080fd5b50620000616040805190810160405280600581526020017f4f574e4552000000000000000000000000000000000000000000000000000000815250620000b7640100000000026401000000009004565b620000b16040805190810160405280600581526020017f4f574e45520000000000000000000000000000000000000000000000000000008152503362000178640100000000026401000000009004565b620003f8565b60016000620000d583620001d2640100000000026401000000009004565b600019166000191681526020019081526020016000205460001415620001755760008190806001815401808255809150509060018203906000526020600020016000909192909190915090805190602001906200013492919062000349565b5050600080549050600160006200015a84620001d2640100000000026401000000009004565b60001916600019168152602001908152602001600020819055505b50565b620001ce81600260006200019b86620001d2640100000000026401000000009004565b60001916600019168152602001908152602001600020620002ae6401000000000262000c15179091906401000000009004565b5050565b6000816040516020018082805190602001908083835b6020831015156200020f5780518252602082019150602081019050602083039250620001e8565b6001836020036101000a0380198251168184511680821785525050505050509050019150506040516020818303038152906040526040518082805190602001908083835b6020831015156200027a578051825260208201915060208101905060208303925062000253565b6001836020036101000a03801982511681845116808217855250505050505090500191505060405180910390209050919050565b600073ffffffffffffffffffffffffffffffffffffffff168173ffffffffffffffffffffffffffffffffffffffff1614151515620002eb57600080fd5b60018260000160008373ffffffffffffffffffffffffffffffffffffffff1673ffffffffffffffffffffffffffffffffffffffff16815260200190815260200160002060006101000a81548160ff0219169083151502179055505050565b828054600181600116156101000203166002900490600052602060002090601f016020900481019282601f106200038c57805160ff1916838001178555620003bd565b82800160010185558215620003bd579182015b82811115620003bc5782518255916020019190600101906200039f565b5b509050620003cc9190620003d0565b5090565b620003f591905b80821115620003f1576000816000905550600101620003d7565b5090565b90565b610d8080620004086000396000f30060806040526004361061008e576000357c0100000000000000000000000000000000000000000000000000000000900463ffffffff1680630f6c37de146100935780633e96e868146101145780634da195be1461017d5780635b0f833a14610206578063b8517dd81461028f578063bfda4a49146102ba578063e58378bb14610360578063fb535fd6146103f0575b600080fd5b34801561009f57600080fd5b506100fa600480360381019080803590602001908201803590602001908080601f0160208091040260200160405190810160405280939291908181526020018383808284378201915050505050509192919290505050610491565b604051808215151515815260200191505060405180910390f35b34801561012057600080fd5b5061017b600480360381019080803590602001908201803590602001908080601f01602080910402602001604051908101604052809392919081815260200183838082843782019150505050505091929192905050506104c2565b005b34801561018957600080fd5b50610204600480360381019080803590602001908201803590602001908080601f0160208091040260200160405190810160405280939291908181526020018383808284378201915050505050509192919290803573ffffffffffffffffffffffffffffffffffffffff1690602001909291905050506105b6565b005b34801561021257600080fd5b5061028d600480360381019080803590602001908201803590602001908080601f0160208091040260200160405190810160405280939291908181526020018383808284378201915050505050509192919290803573ffffffffffffffffffffffffffffffffffffffff1690602001909291905050506106c3565b005b34801561029b57600080fd5b506102a46107fb565b6040518082815260200191505060405180910390f35b3480156102c657600080fd5b506102e560048036038101908080359060200190929190505050610807565b6040518080602001828103825283818151815260200191508051906020019080838360005b8381101561032557808201518184015260208101905061030a565b50505050905090810190601f1680156103525780820380516001836020036101000a031916815260200191505b509250505060405180910390f35b34801561036c57600080fd5b506103756108c2565b6040518080602001828103825283818151815260200191508051906020019080838360005b838110156103b557808201518184015260208101905061039a565b50505050905090810190601f1680156103e25780820380516001836020036101000a031916815260200191505b509250505060405180910390f35b3480156103fc57600080fd5b50610477600480360381019080803590602001908201803590602001908080601f0160208091040260200160405190810160405280939291908181526020018383808284378201915050505050509192919290803573ffffffffffffffffffffffffffffffffffffffff1690602001909291905050506108fb565b604051808215151515815260200191505060405180910390f35b6000600160006104a08461093a565b6000191660001916815260200190815260200160002054600014159050919050565b6040805190810160405280600581526020017f4f574e455200000000000000000000000000000000000000000000000000000081525061050281336108fb565b151561050d57600080fd5b61051682610a12565b7f22f30a094e2ed10e9a92ebac7a70b8e2ae3288d9b594db22587861bc8fef4eef826040518080602001828103825283818151815260200191508051906020019080838360005b8381101561057857808201518184015260208101905061055d565b50505050905090810190601f1680156105a55780820380516001836020036101000a031916815260200191505b509250505060405180910390a15050565b6040805190810160405280600581526020017f4f574e45520000000000000000000000000000000000000000000000000000008152506105f681336108fb565b151561060157600080fd5b61060b8383610aae565b8173ffffffffffffffffffffffffffffffffffffffff167fafe42c64e42361a5193c84f3f11b6803e41dd901d473ee6faa72f43f8ab1f468846040518080602001828103825283818151815260200191508051906020019080838360005b83811015610684578082015181840152602081019050610669565b50505050905090810190601f1680156106b15780820380516001836020036101000a031916815260200191505b509250505060405180910390a2505050565b6040805190810160405280600581526020017f4f574e455200000000000000000000000000000000000000000000000000000081525061070381336108fb565b151561070e57600080fd5b610743826002600061071f8761093a565b60001916600019168152602001908152602001600020610ae790919063ffffffff16565b8173ffffffffffffffffffffffffffffffffffffffff167f3e3ea7a1060be276a52e916803e2f89e3478e263893fc3c0b4d5793dd6d5f032846040518080602001828103825283818151815260200191508051906020019080838360005b838110156107bc5780820151818401526020810190506107a1565b50505050905090810190601f1680156107e95780820380516001836020036101000a031916815260200191505b509250505060405180910390a2505050565b60008080549050905090565b60008181548110151561081657fe5b906000526020600020016000915090508054600181600116156101000203166002900480601f0160208091040260200160405190810160405280929190818152602001828054600181600116156101000203166002900480156108ba5780601f1061088f576101008083540402835291602001916108ba565b820191906000526020600020905b81548152906001019060200180831161089d57829003601f168201915b505050505081565b6040805190810160405280600581526020017f4f574e455200000000000000000000000000000000000000000000000000000081525081565b6000610932826002600061090e8761093a565b60001916600019168152602001908152602001600020610b8190919063ffffffff16565b905092915050565b6000816040516020018082805190602001908083835b6020831015156109755780518252602082019150602081019050602083039250610950565b6001836020036101000a0380198251168184511680821785525050505050509050019150506040516020818303038152906040526040518082805190602001908083835b6020831015156109de57805182526020820191506020810190506020830392506109b9565b6001836020036101000a03801982511681845116808217855250505050505090500191505060405180910390209050919050565b60016000610a1f8361093a565b600019166000191681526020019081526020016000205460001415610aab576000819080600181540180825580915050906001820390600052602060002001600090919290919091509080519060200190610a7b929190610caf565b505060008054905060016000610a908461093a565b60001916600019168152602001908152602001600020819055505b50565b610ae38160026000610abf8661093a565b60001916600019168152602001908152602001600020610c1590919063ffffffff16565b5050565b600073ffffffffffffffffffffffffffffffffffffffff168173ffffffffffffffffffffffffffffffffffffffff1614151515610b2357600080fd5b60008260000160008373ffffffffffffffffffffffffffffffffffffffff1673ffffffffffffffffffffffffffffffffffffffff16815260200190815260200160002060006101000a81548160ff0219169083151502179055505050565b60008073ffffffffffffffffffffffffffffffffffffffff168273ffffffffffffffffffffffffffffffffffffffff1614151515610bbe57600080fd5b8260000160008373ffffffffffffffffffffffffffffffffffffffff1673ffffffffffffffffffffffffffffffffffffffff16815260200190815260200160002060009054906101000a900460ff16905092915050565b600073ffffffffffffffffffffffffffffffffffffffff168173ffffffffffffffffffffffffffffffffffffffff1614151515610c5157600080fd5b60018260000160008373ffffffffffffffffffffffffffffffffffffffff1673ffffffffffffffffffffffffffffffffffffffff16815260200190815260200160002060006101000a81548160ff0219169083151502179055505050565b828054600181600116156101000203166002900490600052602060002090601f016020900481019282601f10610cf057805160ff1916838001178555610d1e565b82800160010185558215610d1e579182015b82811115610d1d578251825591602001919060010190610d02565b5b509050610d2b9190610d2f565b5090565b610d5191905b80821115610d4d576000816000905550600101610d35565b5090565b905600a165627a7a7230582090fadfa9d1c164d16be10135a705e04294cd5d0ad8539e061d07aa64d8f75fc10029",
  "source": "/*\n * Lottery oracle\n *\n * Copyright (C) 2017-2018 Hubii AS\n */\n\npragma solidity ^0.4.25;\n\nimport {Roles} from \"openzeppelin-solidity/contracts/access/Roles.sol\";\n\n/// @title RBACed (Role-Based Access Controlled)\n/// @author Jens Ivar Jørdre <jensivar@hubii.com>\n/// @notice A base contract to support general RBAC of arbitrary number of roles\ncontract RBACed {\n    using Roles for Roles.Role;\n\n    event RoleAdded(string _role);\n    event RoleAccessorAdded(string _role, address indexed _address);\n    event RoleAccessorRemoved(string _role, address indexed _address);\n\n    string constant public OWNER_ROLE = \"OWNER\";\n\n    string[] public roles;\n    mapping(bytes32 => uint256) roleIndexMap;\n    mapping(bytes32 => Roles.Role) private roleAccessorsMap;\n\n    /// @notice `msg.sender` will be added as accessor to the owner role\n    constructor() public {\n        // Add role\n        addRoleInternal(OWNER_ROLE);\n\n        // Add role accessor\n        addRoleAccessorInternal(OWNER_ROLE, msg.sender);\n    }\n\n    modifier onlyRoleAccessor(string _role) {\n        require(isRoleAccessor(_role, msg.sender));\n        _;\n    }\n\n    /// @notice Get the count of roles\n    /// @return The count of roles\n    function rolesCount() public view returns (uint256) {\n        return roles.length;\n    }\n\n    /// @notice Gauge whether a role is set\n    /// @param _role The concerned role\n    /// @return true if role has been set, else false\n    function isRole(string _role) public view returns (bool) {\n        return 0 != roleIndexMap[role2Key(_role)];\n    }\n\n    /// @notice Add role\n    /// @param _role The concerned role\n    function addRole(string _role) public onlyRoleAccessor(OWNER_ROLE) {\n        // Add role\n        addRoleInternal(_role);\n\n        // Emit event\n        emit RoleAdded(_role);\n    }\n\n    /// @notice Gauge whether an address is an accessor of a role\n    /// @param _role The concerned role\n    /// @param _address The concerned address\n    /// @return true if address is the one of a registered accessor of role, else false\n    function isRoleAccessor(string _role, address _address) public view returns (bool) {\n        return roleAccessorsMap[role2Key(_role)].has(_address);\n    }\n\n    /// @notice Register an address as accessor of a role\n    /// @param _role The concerned role\n    /// @param _address The concerned address\n    function addRoleAccessor(string _role, address _address) public onlyRoleAccessor(OWNER_ROLE) {\n        // Add role accessor\n        addRoleAccessorInternal(_role, _address);\n\n        // Emit event\n        emit RoleAccessorAdded(_role, _address);\n    }\n\n    /// @notice Deregister an address as accessor of a role\n    /// @param _role The concerned role\n    /// @param _address The concerned address\n    function removeRoleAccessor(string _role, address _address) public onlyRoleAccessor(OWNER_ROLE) {\n        // Remove role accessor\n        roleAccessorsMap[role2Key(_role)].remove(_address);\n\n        // Emit event\n        emit RoleAccessorRemoved(_role, _address);\n    }\n\n    function addRoleInternal(string _role) internal {\n        if (0 == roleIndexMap[role2Key(_role)]) {\n            roles.push(_role);\n            roleIndexMap[role2Key(_role)] = roles.length;\n        }\n    }\n\n    function addRoleAccessorInternal(string _role, address _address) internal {\n        roleAccessorsMap[role2Key(_role)].add(_address);\n    }\n\n    function role2Key(string _role) internal pure returns (bytes32) {\n        return keccak256(abi.encodePacked(_role));\n    }\n}\n",
  "sourcePath": "/opt/buildagent/work/9988d0feca52d9d9/contracts/RBACed.sol",
  "compiler": {
    "name": "solc",
    "version": "0.4.25+commit.59dbf8f1.Emscripten.clang"
  },
  "schemaVersion": "3.0.0-beta.1",
  "updatedAt": "2018-10-03T15:59:44.207Z"
}