{
  "contractName": "ResolutionEngine",
  "abi": [
    {
      "constant": true,
      "inputs": [],
      "name": "ORACLE_ROLE",
      "outputs": [
        {
          "name": "",
          "type": "string"
        }
      ],
      "payable": false,
      "stateMutability": "view",
      "type": "function"
    },
    {
      "constant": true,
      "inputs": [
        {
          "name": "_role",
          "type": "string"
        }
      ],
      "name": "isRole",
      "outputs": [
        {
          "name": "",
          "type": "bool"
        }
      ],
      "payable": false,
      "stateMutability": "view",
      "type": "function"
    },
    {
      "constant": false,
      "inputs": [
        {
          "name": "_role",
          "type": "string"
        }
      ],
      "name": "addRole",
      "outputs": [],
      "payable": false,
      "stateMutability": "nonpayable",
      "type": "function"
    },
    {
      "constant": true,
      "inputs": [],
      "name": "verificationStatus",
      "outputs": [
        {
          "name": "",
          "type": "uint8"
        }
      ],
      "payable": false,
      "stateMutability": "view",
      "type": "function"
    },
    {
      "constant": false,
      "inputs": [
        {
          "name": "_role",
          "type": "string"
        },
        {
          "name": "_address",
          "type": "address"
        }
      ],
      "name": "addRoleAccessor",
      "outputs": [],
      "payable": false,
      "stateMutability": "nonpayable",
      "type": "function"
    },
    {
      "constant": false,
      "inputs": [
        {
          "name": "_role",
          "type": "string"
        },
        {
          "name": "_address",
          "type": "address"
        }
      ],
      "name": "removeRoleAccessor",
      "outputs": [],
      "payable": false,
      "stateMutability": "nonpayable",
      "type": "function"
    },
    {
      "constant": true,
      "inputs": [
        {
          "name": "",
          "type": "uint256"
        }
      ],
      "name": "verificationPhaseMap",
      "outputs": [
        {
          "name": "state",
          "type": "uint8"
        },
        {
          "name": "result",
          "type": "uint8"
        },
        {
          "name": "stakingWallets",
          "type": "uint256"
        },
        {
          "name": "bountyAmount",
          "type": "uint256"
        },
        {
          "name": "bountyAwarded",
          "type": "bool"
        },
        {
          "name": "startBlock",
          "type": "uint256"
        },
        {
          "name": "endBlock",
          "type": "uint256"
        }
      ],
      "payable": false,
      "stateMutability": "view",
      "type": "function"
    },
    {
      "constant": true,
      "inputs": [],
      "name": "bountyFraction",
      "outputs": [
        {
          "name": "",
          "type": "uint256"
        }
      ],
      "payable": false,
      "stateMutability": "view",
      "type": "function"
    },
    {
      "constant": true,
      "inputs": [
        {
          "name": "",
          "type": "uint256"
        },
        {
          "name": "",
          "type": "bool"
        }
      ],
      "name": "blockStatusAmountMap",
      "outputs": [
        {
          "name": "",
          "type": "uint256"
        }
      ],
      "payable": false,
      "stateMutability": "view",
      "type": "function"
    },
    {
      "constant": true,
      "inputs": [],
      "name": "oracle",
      "outputs": [
        {
          "name": "",
          "type": "address"
        }
      ],
      "payable": false,
      "stateMutability": "view",
      "type": "function"
    },
    {
      "constant": true,
      "inputs": [
        {
          "name": "",
          "type": "address"
        },
        {
          "name": "",
          "type": "uint256"
        }
      ],
      "name": "walletPhasePayoutMap",
      "outputs": [
        {
          "name": "",
          "type": "bool"
        }
      ],
      "payable": false,
      "stateMutability": "view",
      "type": "function"
    },
    {
      "constant": true,
      "inputs": [],
      "name": "rolesCount",
      "outputs": [
        {
          "name": "",
          "type": "uint256"
        }
      ],
      "payable": false,
      "stateMutability": "view",
      "type": "function"
    },
    {
      "constant": true,
      "inputs": [
        {
          "name": "",
          "type": "uint256"
        }
      ],
      "name": "roles",
      "outputs": [
        {
          "name": "",
          "type": "string"
        }
      ],
      "payable": false,
      "stateMutability": "view",
      "type": "function"
    },
    {
      "constant": true,
      "inputs": [],
      "name": "bountyFund",
      "outputs": [
        {
          "name": "",
          "type": "address"
        }
      ],
      "payable": false,
      "stateMutability": "view",
      "type": "function"
    },
    {
      "constant": true,
      "inputs": [],
      "name": "bountyAmount",
      "outputs": [
        {
          "name": "",
          "type": "uint256"
        }
      ],
      "payable": false,
      "stateMutability": "view",
      "type": "function"
    },
    {
      "constant": true,
      "inputs": [],
      "name": "verificationPhaseNumber",
      "outputs": [
        {
          "name": "",
          "type": "uint256"
        }
      ],
      "payable": false,
      "stateMutability": "view",
      "type": "function"
    },
    {
      "constant": true,
      "inputs": [],
      "name": "OWNER_ROLE",
      "outputs": [
        {
          "name": "",
          "type": "string"
        }
      ],
      "payable": false,
      "stateMutability": "view",
      "type": "function"
    },
    {
      "constant": true,
      "inputs": [
        {
          "name": "",
          "type": "address"
        },
        {
          "name": "",
          "type": "bool"
        }
      ],
      "name": "walletStatusAmountMap",
      "outputs": [
        {
          "name": "",
          "type": "uint256"
        }
      ],
      "payable": false,
      "stateMutability": "view",
      "type": "function"
    },
    {
      "constant": true,
      "inputs": [
        {
          "name": "_role",
          "type": "string"
        },
        {
          "name": "_address",
          "type": "address"
        }
      ],
      "name": "isRoleAccessor",
      "outputs": [
        {
          "name": "",
          "type": "bool"
        }
      ],
      "payable": false,
      "stateMutability": "view",
      "type": "function"
    },
    {
      "constant": true,
      "inputs": [],
      "name": "token",
      "outputs": [
        {
          "name": "",
          "type": "address"
        }
      ],
      "payable": false,
      "stateMutability": "view",
      "type": "function"
    },
    {
      "inputs": [
        {
          "name": "_oracle",
          "type": "address"
        },
        {
          "name": "_bountyFund",
          "type": "address"
        },
        {
          "name": "_bountyFraction",
          "type": "uint256"
        }
      ],
      "payable": false,
      "stateMutability": "nonpayable",
      "type": "constructor"
    },
    {
      "anonymous": false,
      "inputs": [
        {
          "indexed": true,
          "name": "_wallet",
          "type": "address"
        },
        {
          "indexed": true,
          "name": "_verificationPhaseNumber",
          "type": "uint256"
        },
        {
          "indexed": false,
          "name": "_status",
          "type": "bool"
        },
        {
          "indexed": false,
          "name": "_amount",
          "type": "uint256"
        }
      ],
      "name": "MetricsUpdated",
      "type": "event"
    },
    {
      "anonymous": false,
      "inputs": [
        {
          "indexed": true,
          "name": "_verificationPhaseNumber",
          "type": "uint256"
        }
      ],
      "name": "ConditionallyResolved",
      "type": "event"
    },
    {
      "anonymous": false,
      "inputs": [
        {
          "indexed": true,
          "name": "_verificationPhaseNumber",
          "type": "uint256"
        },
        {
          "indexed": false,
          "name": "_bountyFraction",
          "type": "uint256"
        },
        {
          "indexed": false,
          "name": "_bountyAmount",
          "type": "uint256"
        }
      ],
      "name": "BountyExtracted",
      "type": "event"
    },
    {
      "anonymous": false,
      "inputs": [
        {
          "indexed": true,
          "name": "_verificationPhaseNumber",
          "type": "uint256"
        }
      ],
      "name": "VerificationPhaseOpened",
      "type": "event"
    },
    {
      "anonymous": false,
      "inputs": [
        {
          "indexed": true,
          "name": "_verificationPhaseNumber",
          "type": "uint256"
        }
      ],
      "name": "VerificationPhaseClosed",
      "type": "event"
    },
    {
      "anonymous": false,
      "inputs": [
        {
          "indexed": true,
          "name": "_wallet",
          "type": "address"
        },
        {
          "indexed": true,
          "name": "_verificationPhaseNumber",
          "type": "uint256"
        },
        {
          "indexed": false,
          "name": "_payout",
          "type": "uint256"
        }
      ],
      "name": "PayoutWithdrawn",
      "type": "event"
    },
    {
      "anonymous": false,
      "inputs": [
        {
          "indexed": false,
          "name": "_role",
          "type": "string"
        }
      ],
      "name": "RoleAdded",
      "type": "event"
    },
    {
      "anonymous": false,
      "inputs": [
        {
          "indexed": false,
          "name": "_role",
          "type": "string"
        },
        {
          "indexed": true,
          "name": "_address",
          "type": "address"
        }
      ],
      "name": "RoleAccessorAdded",
      "type": "event"
    },
    {
      "anonymous": false,
      "inputs": [
        {
          "indexed": false,
          "name": "_role",
          "type": "string"
        },
        {
          "indexed": true,
          "name": "_address",
          "type": "address"
        }
      ],
      "name": "RoleAccessorRemoved",
      "type": "event"
    },
    {
      "constant": false,
      "inputs": [
        {
          "name": "_wallet",
          "type": "address"
        },
        {
          "name": "_verificationPhaseNumber",
          "type": "uint256"
        },
        {
          "name": "_status",
          "type": "bool"
        },
        {
          "name": "_amount",
          "type": "uint256"
        }
      ],
      "name": "updateMetrics",
      "outputs": [],
      "payable": false,
      "stateMutability": "nonpayable",
      "type": "function"
    },
    {
      "constant": false,
      "inputs": [
        {
          "name": "_verificationPhaseNumber",
          "type": "uint256"
        }
      ],
      "name": "resolveConditionally",
      "outputs": [],
      "payable": false,
      "stateMutability": "nonpayable",
      "type": "function"
    },
    {
      "constant": true,
      "inputs": [],
      "name": "resolutionCriteriaMet",
      "outputs": [
        {
          "name": "",
          "type": "bool"
        }
      ],
      "payable": false,
      "stateMutability": "view",
      "type": "function"
    },
    {
      "constant": true,
      "inputs": [
        {
          "name": "_verificationPhaseNumber",
          "type": "uint256"
        }
      ],
      "name": "metricsByVerificationPhaseNumber",
      "outputs": [
        {
          "name": "state",
          "type": "uint8"
        },
        {
          "name": "trueStakeAmount",
          "type": "uint256"
        },
        {
          "name": "falseStakeAmount",
          "type": "uint256"
        },
        {
          "name": "stakeAmount",
          "type": "uint256"
        },
        {
          "name": "numberOfWallets",
          "type": "uint256"
        },
        {
          "name": "bountyAmount",
          "type": "uint256"
        },
        {
          "name": "bountyAwarded",
          "type": "bool"
        },
        {
          "name": "startBlock",
          "type": "uint256"
        },
        {
          "name": "endBlock",
          "type": "uint256"
        },
        {
          "name": "numberOfBlocks",
          "type": "uint256"
        }
      ],
      "payable": false,
      "stateMutability": "view",
      "type": "function"
    },
    {
      "constant": true,
      "inputs": [
        {
          "name": "_verificationPhaseNumber",
          "type": "uint256"
        },
        {
          "name": "_wallet",
          "type": "address"
        }
      ],
      "name": "metricsByVerificationPhaseNumberAndWallet",
      "outputs": [
        {
          "name": "trueStakeAmount",
          "type": "uint256"
        },
        {
          "name": "falseStakeAmount",
          "type": "uint256"
        },
        {
          "name": "stakeAmount",
          "type": "uint256"
        }
      ],
      "payable": false,
      "stateMutability": "view",
      "type": "function"
    },
    {
      "constant": true,
      "inputs": [
        {
          "name": "_wallet",
          "type": "address"
        }
      ],
      "name": "metricsByWallet",
      "outputs": [
        {
          "name": "trueStakeAmount",
          "type": "uint256"
        },
        {
          "name": "falseStakeAmount",
          "type": "uint256"
        },
        {
          "name": "stakeAmount",
          "type": "uint256"
        }
      ],
      "payable": false,
      "stateMutability": "view",
      "type": "function"
    },
    {
      "constant": true,
      "inputs": [
        {
          "name": "_blockNumber",
          "type": "uint256"
        }
      ],
      "name": "metricsByBlockNumber",
      "outputs": [
        {
          "name": "trueStakeAmount",
          "type": "uint256"
        },
        {
          "name": "falseStakeAmount",
          "type": "uint256"
        },
        {
          "name": "stakeAmount",
          "type": "uint256"
        }
      ],
      "payable": false,
      "stateMutability": "view",
      "type": "function"
    },
    {
      "constant": true,
      "inputs": [
        {
          "name": "_verificationPhaseNumber",
          "type": "uint256"
        },
        {
          "name": "_wallet",
          "type": "address"
        }
      ],
      "name": "calculatePayout",
      "outputs": [
        {
          "name": "",
          "type": "uint256"
        }
      ],
      "payable": false,
      "stateMutability": "view",
      "type": "function"
    },
    {
      "constant": false,
      "inputs": [
        {
          "name": "_wallet",
          "type": "address"
        },
        {
          "name": "_firstVerificationPhaseNumber",
          "type": "uint256"
        },
        {
          "name": "_lastVerificationPhaseNumber",
          "type": "uint256"
        }
      ],
      "name": "withdrawPayout",
      "outputs": [],
      "payable": false,
      "stateMutability": "nonpayable",
      "type": "function"
    }
  ],
  "bytecode": "0x60806040523480156200001157600080fd5b5060405160608062003374833981018060405281019080805190602001909291908051906020019092919080519060200190929190505050620000986040805190810160405280600581526020017f4f574e455200000000000000000000000000000000000000000000000000000081525062000426640100000000026401000000009004565b620000e86040805190810160405280600581526020017f4f574e455200000000000000000000000000000000000000000000000000000081525033620004e7640100000000026401000000009004565b82600360006101000a81548173ffffffffffffffffffffffffffffffffffffffff021916908373ffffffffffffffffffffffffffffffffffffffff160217905550620001786040805190810160405280600681526020017f4f5241434c45000000000000000000000000000000000000000000000000000081525062000426640100000000026401000000009004565b620001c86040805190810160405280600681526020017f4f5241434c45000000000000000000000000000000000000000000000000000081525084620004e7640100000000026401000000009004565b81600560006101000a81548173ffffffffffffffffffffffffffffffffffffffff021916908373ffffffffffffffffffffffffffffffffffffffff160217905550600560009054906101000a900473ffffffffffffffffffffffffffffffffffffffff1673ffffffffffffffffffffffffffffffffffffffff16637d54a822306040518263ffffffff167c0100000000000000000000000000000000000000000000000000000000028152600401808273ffffffffffffffffffffffffffffffffffffffff1673ffffffffffffffffffffffffffffffffffffffff168152602001915050600060405180830381600087803b158015620002c757600080fd5b505af1158015620002dc573d6000803e3d6000fd5b50505050600560009054906101000a900473ffffffffffffffffffffffffffffffffffffffff1673ffffffffffffffffffffffffffffffffffffffff1663fc0c546a6040518163ffffffff167c0100000000000000000000000000000000000000000000000000000000028152600401602060405180830381600087803b1580156200036757600080fd5b505af11580156200037c573d6000803e3d6000fd5b505050506040513d60208110156200039357600080fd5b8101908080519060200190929190505050600460006101000a81548173ffffffffffffffffffffffffffffffffffffffff021916908373ffffffffffffffffffffffffffffffffffffffff160217905550806006819055506200040462000541640100000000026401000000009004565b6200041d62000660640100000000026401000000009004565b5050506200097a565b60016000620004448362000717640100000000026401000000009004565b600019166000191681526020019081526020016000205460001415620004e4576000819080600181540180825580915050906001820390600052602060002001600090919290919091509080519060200190620004a3929190620008cb565b505060008054905060016000620004c98462000717640100000000026401000000009004565b60001916600019168152602001908152602001600020819055505b50565b6200053d81600260006200050a8662000717640100000000026401000000009004565b60001916600019168152602001908152602001600020620007f3640100000000026200287f179091906401000000009004565b5050565b600560009054906101000a900473ffffffffffffffffffffffffffffffffffffffff1673ffffffffffffffffffffffffffffffffffffffff1663315a095d6006546040518263ffffffff167c010000000000000000000000000000000000000000000000000000000002815260040180828152602001915050602060405180830381600087803b158015620005d557600080fd5b505af1158015620005ea573d6000803e3d6000fd5b505050506040513d60208110156200060157600080fd5b81019080805190602001909291905050506007819055506008547fcfa758a68bf0397527bd572b3087e8063ee06e3135a8beb2a6db24411023a057600654600754604051808381526020018281526020019250505060405180910390a2565b600060028111156200066e57fe5b60096000600854815260200190815260200160002060000160009054906101000a900460ff166002811115620006a057fe5b141515620006ad57600080fd5b620006e66007546009600060085481526020019081526020016000206200088e6401000000000262002843179091906401000000009004565b6008547f9bdc29cef4fb1c7bae8fbfe617da2974521f5b773b27c8826ba71e9edbc23b8860405160405180910390a2565b6000816040516020018082805190602001908083835b6020831015156200075457805182526020820191506020810190506020830392506200072d565b6001836020036101000a0380198251168184511680821785525050505050509050019150506040516020818303038152906040526040518082805190602001908083835b602083101515620007bf578051825260208201915060208101905060208303925062000798565b6001836020036101000a03801982511681845116808217855250505050505090500191505060405180910390209050919050565b600073ffffffffffffffffffffffffffffffffffffffff168173ffffffffffffffffffffffffffffffffffffffff16141515156200083057600080fd5b60018260000160008373ffffffffffffffffffffffffffffffffffffffff1673ffffffffffffffffffffffffffffffffffffffff16815260200190815260200160002060006101000a81548160ff0219169083151502179055505050565b60018260000160006101000a81548160ff02191690836002811115620008b057fe5b02179055508082600601819055504382600801819055505050565b828054600181600116156101000203166002900490600052602060002090601f016020900481019282601f106200090e57805160ff19168380011785556200093f565b828001600101855582156200093f579182015b828111156200093e57825182559160200191906001019062000921565b5b5090506200094e919062000952565b5090565b6200097791905b808211156200097357600081600090555060010162000959565b5090565b90565b6129ea806200098a6000396000f300608060405260043610610175576000357c0100000000000000000000000000000000000000000000000000000000900463ffffffff16806306bcbd001461017a57806306d05aef1461020c57806307e2cea51461025b5780630c680f14146102eb5780630f6c37de1461031857806312e810f2146103995780633e96e868146103fe5780634a0d3096146104675780634da195be146104a0578063513554e7146105295780635b0f833a146105585780635de85e81146105e157806362b46e1f1461066c57806364f2a259146106975780636b2324ea146106e45780637dc0d1d014610747578063b6d51b421461079e578063b726be7f14610803578063b8517dd814610864578063bfda4a491461088f578063c06c66ca14610935578063ccd331bf1461098c578063d00e768b146109b7578063e28980c5146109e2578063e58378bb14610a39578063f556e70a14610ac9578063faba0b4414610b38578063fb535fd614610b9b578063fc0c546a14610c3c575b600080fd5b34801561018657600080fd5b506101a560048036038101908080359060200190929190505050610c93565b604051808b60028111156101b557fe5b60ff1681526020018a8152602001898152602001888152602001878152602001868152602001851515151581526020018481526020018381526020018281526020019a505050505050505050505060405180910390f35b34801561021857600080fd5b5061023760048036038101908080359060200190929190505050610df8565b60405180848152602001838152602001828152602001935050505060405180910390f35b34801561026757600080fd5b50610270610e81565b6040518080602001828103825283818151815260200191508051906020019080838360005b838110156102b0578082015181840152602081019050610295565b50505050905090810190601f1680156102dd5780820380516001836020036101000a031916815260200191505b509250505060405180910390f35b3480156102f757600080fd5b5061031660048036038101908080359060200190929190505050610eba565b005b34801561032457600080fd5b5061037f600480360381019080803590602001908201803590602001908080601f0160208091040260200160405190810160405280939291908181526020018383808284378201915050505050509192919290505050610f68565b604051808215151515815260200191505060405180910390f35b3480156103a557600080fd5b506103da600480360381019080803573ffffffffffffffffffffffffffffffffffffffff169060200190929190505050610f99565b60405180848152602001838152602001828152602001935050505060405180910390f35b34801561040a57600080fd5b50610465600480360381019080803590602001908201803590602001908080601f0160208091040260200160405190810160405280939291908181526020018383808284378201915050505050509192919290505050611069565b005b34801561047357600080fd5b5061047c61115d565b6040518082600281111561048c57fe5b60ff16815260200191505060405180910390f35b3480156104ac57600080fd5b50610527600480360381019080803590602001908201803590602001908080601f0160208091040260200160405190810160405280939291908181526020018383808284378201915050505050509192919290803573ffffffffffffffffffffffffffffffffffffffff169060200190929190505050611170565b005b34801561053557600080fd5b5061053e61127d565b604051808215151515815260200191505060405180910390f35b34801561056457600080fd5b506105df600480360381019080803590602001908201803590602001908080601f0160208091040260200160405190810160405280939291908181526020018383808284378201915050505050509192919290803573ffffffffffffffffffffffffffffffffffffffff169060200190929190505050611285565b005b3480156105ed57600080fd5b5061060c600480360381019080803590602001909291905050506113bd565b6040518088600281111561061c57fe5b60ff16815260200187600281111561063057fe5b60ff1681526020018681526020018581526020018415151515815260200183815260200182815260200197505050505050505060405180910390f35b34801561067857600080fd5b50610681611426565b6040518082815260200191505060405180910390f35b3480156106a357600080fd5b506106ce6004803603810190808035906020019092919080351515906020019092919050505061142c565b6040518082815260200191505060405180910390f35b3480156106f057600080fd5b50610745600480360381019080803573ffffffffffffffffffffffffffffffffffffffff1690602001909291908035906020019092919080351515906020019092919080359060200190929190505050611451565b005b34801561075357600080fd5b5061075c611661565b604051808273ffffffffffffffffffffffffffffffffffffffff1673ffffffffffffffffffffffffffffffffffffffff16815260200191505060405180910390f35b3480156107aa57600080fd5b506107e9600480360381019080803573ffffffffffffffffffffffffffffffffffffffff16906020019092919080359060200190929190505050611687565b604051808215151515815260200191505060405180910390f35b34801561080f57600080fd5b5061084e60048036038101908080359060200190929190803573ffffffffffffffffffffffffffffffffffffffff1690602001909291905050506116b6565b6040518082815260200191505060405180910390f35b34801561087057600080fd5b506108796118a9565b6040518082815260200191505060405180910390f35b34801561089b57600080fd5b506108ba600480360381019080803590602001909291905050506118b5565b6040518080602001828103825283818151815260200191508051906020019080838360005b838110156108fa5780820151818401526020810190506108df565b50505050905090810190601f1680156109275780820380516001836020036101000a031916815260200191505b509250505060405180910390f35b34801561094157600080fd5b5061094a611970565b604051808273ffffffffffffffffffffffffffffffffffffffff1673ffffffffffffffffffffffffffffffffffffffff16815260200191505060405180910390f35b34801561099857600080fd5b506109a1611996565b6040518082815260200191505060405180910390f35b3480156109c357600080fd5b506109cc61199c565b6040518082815260200191505060405180910390f35b3480156109ee57600080fd5b50610a37600480360381019080803573ffffffffffffffffffffffffffffffffffffffff16906020019092919080359060200190929190803590602001909291905050506119a2565b005b348015610a4557600080fd5b50610a4e611a1a565b6040518080602001828103825283818151815260200191508051906020019080838360005b83811015610a8e578082015181840152602081019050610a73565b50505050905090810190601f168015610abb5780820380516001836020036101000a031916815260200191505b509250505060405180910390f35b348015610ad557600080fd5b50610b1460048036038101908080359060200190929190803573ffffffffffffffffffffffffffffffffffffffff169060200190929190505050611a53565b60405180848152602001838152602001828152602001935050505060405180910390f35b348015610b4457600080fd5b50610b85600480360381019080803573ffffffffffffffffffffffffffffffffffffffff169060200190929190803515159060200190929190505050611b5e565b6040518082815260200191505060405180910390f35b348015610ba757600080fd5b50610c22600480360381019080803590602001908201803590602001908080601f0160208091040260200160405190810160405280939291908181526020018383808284378201915050505050509192919290803573ffffffffffffffffffffffffffffffffffffffff169060200190929190505050611b83565b604051808215151515815260200191505060405180910390f35b348015610c4857600080fd5b50610c51611bc2565b604051808273ffffffffffffffffffffffffffffffffffffffff1673ffffffffffffffffffffffffffffffffffffffff16815260200191505060405180910390f35b6000806000806000806000806000808a8060085410151515610cb457600080fd5b600960008d815260200190815260200160002060000160009054906101000a900460ff169a50600960008d815260200190815260200160002060010160006001151515158152602001908152602001600020549950600960008d8152602001908152602001600020600101600080151515158152602001908152602001600020549850610d4a898b611be890919063ffffffff16565b9750600960008d8152602001908152602001600020600301549650600960008d8152602001908152602001600020600601549550600960008d815260200190815260200160002060070160009054906101000a900460ff169450600960008d8152602001908152602001600020600801549350600960008d81526020019081526020016000206009015492508360008414610de55783610de7565b435b039150509193959799509193959799565b600080600083804310151515610e0d57600080fd5b600b600086815260200190815260200160002060006001151515158152602001908152602001600020549350600b6000868152602001908152602001600020600080151515158152602001908152602001600020549250610e778385611be890919063ffffffff16565b9150509193909250565b6040805190810160405280600681526020017f4f5241434c45000000000000000000000000000000000000000000000000000081525081565b6040805190810160405280600681526020017f4f5241434c450000000000000000000000000000000000000000000000000000815250610efa8133611b83565b1515610f0557600080fd5b8180600854141515610f1657600080fd5b610f1e61127d565b15610f3457610f2b611c09565b610f33611d88565b5b6008547f1a26b489739b235034b24b8f7c9c487736f13b77be1dd2ef63198ee5de40430960405160405180910390a2505050565b600060016000610f7784611e2c565b6000191660001916815260200190815260200160002054600014159050919050565b6000806000600a60008573ffffffffffffffffffffffffffffffffffffffff1673ffffffffffffffffffffffffffffffffffffffff16815260200190815260200160002060006001151515158152602001908152602001600020549250600a60008573ffffffffffffffffffffffffffffffffffffffff1673ffffffffffffffffffffffffffffffffffffffff1681526020019081526020016000206000801515151581526020019081526020016000205491506110608284611be890919063ffffffff16565b90509193909250565b6040805190810160405280600581526020017f4f574e45520000000000000000000000000000000000000000000000000000008152506110a98133611b83565b15156110b457600080fd5b6110bd82611f04565b7f22f30a094e2ed10e9a92ebac7a70b8e2ae3288d9b594db22587861bc8fef4eef826040518080602001828103825283818151815260200191508051906020019080838360005b8381101561111f578082015181840152602081019050611104565b50505050905090810190601f16801561114c5780820380516001836020036101000a031916815260200191505b509250505060405180910390a15050565b600c60009054906101000a900460ff1681565b6040805190810160405280600581526020017f4f574e45520000000000000000000000000000000000000000000000000000008152506111b08133611b83565b15156111bb57600080fd5b6111c58383611fa0565b8173ffffffffffffffffffffffffffffffffffffffff167fafe42c64e42361a5193c84f3f11b6803e41dd901d473ee6faa72f43f8ab1f468846040518080602001828103825283818151815260200191508051906020019080838360005b8381101561123e578082015181840152602081019050611223565b50505050905090810190601f16801561126b5780820380516001836020036101000a031916815260200191505b509250505060405180910390a2505050565b600080905090565b6040805190810160405280600581526020017f4f574e45520000000000000000000000000000000000000000000000000000008152506112c58133611b83565b15156112d057600080fd5b61130582600260006112e187611e2c565b60001916600019168152602001908152602001600020611fd990919063ffffffff16565b8173ffffffffffffffffffffffffffffffffffffffff167f3e3ea7a1060be276a52e916803e2f89e3478e263893fc3c0b4d5793dd6d5f032846040518080602001828103825283818151815260200191508051906020019080838360005b8381101561137e578082015181840152602081019050611363565b50505050905090810190601f1680156113ab5780820380516001836020036101000a031916815260200191505b509250505060405180910390a2505050565b60096020528060005260406000206000915090508060000160009054906101000a900460ff16908060000160019054906101000a900460ff16908060030154908060060154908060070160009054906101000a900460ff16908060080154908060090154905087565b60065481565b600b602052816000526040600020602052806000526040600020600091509150505481565b6040805190810160405280600681526020017f4f5241434c4500000000000000000000000000000000000000000000000000008152506114918133611b83565b151561149c57600080fd5b83806008541415156114ad57600080fd5b61151483600a60008973ffffffffffffffffffffffffffffffffffffffff1673ffffffffffffffffffffffffffffffffffffffff16815260200190815260200160002060008715151515815260200190815260200160002054611be890919063ffffffff16565b600a60008873ffffffffffffffffffffffffffffffffffffffff1673ffffffffffffffffffffffffffffffffffffffff168152602001908152602001600020600086151515158152602001908152602001600020819055506115a783600b600043815260200190815260200160002060008715151515815260200190815260200160002054611be890919063ffffffff16565b600b6000438152602001908152602001600020600086151515158152602001908152602001600020819055506115fe868585600960006008548152602001908152602001600020612073909392919063ffffffff16565b848673ffffffffffffffffffffffffffffffffffffffff167ff0982056128fe431f591c932edd3cb69e2ef5164c40dbf84734d97241bae92c0868660405180831515151581526020018281526020019250505060405180910390a3505050505050565b600360009054906101000a900473ffffffffffffffffffffffffffffffffffffffff1681565b600d6020528160005260406000206020528060005260406000206000915091509054906101000a900460ff1681565b60008060008060006009600088815260200190815260200160002060000160019054906101000a900460ff1660028111156116ed57fe5b600060028111156116fa57fe5b1415611709576000945061189f565b6001600281111561171657fe5b6009600089815260200190815260200160002060000160019054906101000a900460ff16600281111561174557fe5b14935060096000888152602001908152602001600020600101600085151515151581526020019081526020016000205492506009600088815260200190815260200160002060070160009054906101000a900460ff16156117cc576117c9600960008981526020019081526020016000206006015484611be890919063ffffffff16565b92505b6009600088815260200190815260200160002060040160008773ffffffffffffffffffffffffffffffffffffffff1673ffffffffffffffffffffffffffffffffffffffff1681526020019081526020016000206000851515151581526020019081526020016000205491506009600088815260200190815260200160002060010160008515151515815260200190815260200160002054905061189c8261188e8361188086886122b490919063ffffffff16565b6122f290919063ffffffff16565b611be890919063ffffffff16565b94505b5050505092915050565b60008080549050905090565b6000818154811015156118c457fe5b906000526020600020016000915090508054600181600116156101000203166002900480601f0160208091040260200160405190810160405280929190818152602001828054600181600116156101000203166002900480156119685780601f1061193d57610100808354040283529160200191611968565b820191906000526020600020905b81548152906001019060200180831161194b57829003601f168201915b505050505081565b600560009054906101000a900473ffffffffffffffffffffffffffffffffffffffff1681565b60075481565b60085481565b60006040805190810160405280600681526020017f4f5241434c4500000000000000000000000000000000000000000000000000008152506119e48133611b83565b15156119ef57600080fd5b8391505b8282111515611a1357611a06858361231c565b81806001019250506119f3565b5050505050565b6040805190810160405280600581526020017f4f574e455200000000000000000000000000000000000000000000000000000081525081565b6000806000848060085410151515611a6a57600080fd5b6009600087815260200190815260200160002060040160008673ffffffffffffffffffffffffffffffffffffffff1673ffffffffffffffffffffffffffffffffffffffff168152602001908152602001600020600060011515151581526020019081526020016000205493506009600087815260200190815260200160002060040160008673ffffffffffffffffffffffffffffffffffffffff1673ffffffffffffffffffffffffffffffffffffffff168152602001908152602001600020600080151515158152602001908152602001600020549250611b548385611be890919063ffffffff16565b9150509250925092565b600a602052816000526040600020602052806000526040600020600091509150505481565b6000611bba8260026000611b9687611e2c565b6000191660001916815260200190815260200160002061259890919063ffffffff16565b905092915050565b600460009054906101000a900473ffffffffffffffffffffffffffffffffffffffff1681565b6000808284019050838110151515611bff57600080fd5b8091505092915050565b60016002811115611c1657fe5b60096000600854815260200190815260200160002060000160009054906101000a900460ff166002811115611c4757fe5b141515611c5357600080fd5b611c7060096000600854815260200190815260200160002061262c565b600c60009054906101000a900460ff166002811115611c8b57fe5b60096000600854815260200190815260200160002060000160019054906101000a900460ff166002811115611cbc57fe5b141515611d455760096000600854815260200190815260200160002060000160019054906101000a900460ff16600c60006101000a81548160ff02191690836002811115611d0657fe5b0217905550600160096000600854815260200190815260200160002060070160006101000a81548160ff021916908315150217905550611d44612727565b5b6008547f9feea6fd2bc175ea5210b97c9f21684984af26aa9a2aa1049dad999cf094289d60405160405180910390a2600860008154809291906001019190505550565b60006002811115611d9557fe5b60096000600854815260200190815260200160002060000160009054906101000a900460ff166002811115611dc657fe5b141515611dd257600080fd5b611dfb60075460096000600854815260200190815260200160002061284390919063ffffffff16565b6008547f9bdc29cef4fb1c7bae8fbfe617da2974521f5b773b27c8826ba71e9edbc23b8860405160405180910390a2565b6000816040516020018082805190602001908083835b602083101515611e675780518252602082019150602081019050602083039250611e42565b6001836020036101000a0380198251168184511680821785525050505050509050019150506040516020818303038152906040526040518082805190602001908083835b602083101515611ed05780518252602082019150602081019050602083039250611eab565b6001836020036101000a03801982511681845116808217855250505050505090500191505060405180910390209050919050565b60016000611f1183611e2c565b600019166000191681526020019081526020016000205460001415611f9d576000819080600181540180825580915050906001820390600052602060002001600090919290919091509080519060200190611f6d929190612919565b505060008054905060016000611f8284611e2c565b60001916600019168152602001908152602001600020819055505b50565b611fd58160026000611fb186611e2c565b6000191660001916815260200190815260200160002061287f90919063ffffffff16565b5050565b600073ffffffffffffffffffffffffffffffffffffffff168173ffffffffffffffffffffffffffffffffffffffff161415151561201557600080fd5b60008260000160008373ffffffffffffffffffffffffffffffffffffffff1673ffffffffffffffffffffffffffffffffffffffff16815260200190815260200160002060006101000a81548160ff0219169083151502179055505050565b61209f818560010160008515151515815260200190815260200160002054611be890919063ffffffff16565b84600101600084151515158152602001908152602001600020819055508360020160008473ffffffffffffffffffffffffffffffffffffffff1673ffffffffffffffffffffffffffffffffffffffff16815260200190815260200160002060009054906101000a900460ff1615156121805760018460020160008573ffffffffffffffffffffffffffffffffffffffff1673ffffffffffffffffffffffffffffffffffffffff16815260200190815260200160002060006101000a81548160ff02191690831515021790555083600301600081548092919060010191905055505b6121e9818560040160008673ffffffffffffffffffffffffffffffffffffffff1673ffffffffffffffffffffffffffffffffffffffff16815260200190815260200160002060008515151515815260200190815260200160002054611be890919063ffffffff16565b8460040160008573ffffffffffffffffffffffffffffffffffffffff1673ffffffffffffffffffffffffffffffffffffffff168152602001908152602001600020600084151515158152602001908152602001600020819055506122808185600501600043815260200190815260200160002060008515151515815260200190815260200160002054611be890919063ffffffff16565b8460050160004381526020019081526020016000206000841515151581526020019081526020016000208190555050505050565b60008060008414156122c957600091506122eb565b82840290508284828115156122da57fe5b041415156122e757600080fd5b8091505b5092915050565b60008060008311151561230457600080fd5b828481151561230f57fe5b0490508091505092915050565b60006009600083815260200190815260200160002060000160009054906101000a900460ff16600281111561234d57fe5b60028081111561235957fe5b14151561236557612593565b600d60008473ffffffffffffffffffffffffffffffffffffffff1673ffffffffffffffffffffffffffffffffffffffff168152602001908152602001600020600083815260200190815260200160002060009054906101000a900460ff16156123cd57612593565b6123d782846116b6565b90506001600d60008573ffffffffffffffffffffffffffffffffffffffff1673ffffffffffffffffffffffffffffffffffffffff168152602001908152602001600020600084815260200190815260200160002060006101000a81548160ff021916908315150217905550600460009054906101000a900473ffffffffffffffffffffffffffffffffffffffff1673ffffffffffffffffffffffffffffffffffffffff1663a9059cbb84836040518363ffffffff167c0100000000000000000000000000000000000000000000000000000000028152600401808373ffffffffffffffffffffffffffffffffffffffff1673ffffffffffffffffffffffffffffffffffffffff16815260200182815260200192505050602060405180830381600087803b15801561250757600080fd5b505af115801561251b573d6000803e3d6000fd5b505050506040513d602081101561253157600080fd5b810190808051906020019092919050505050818373ffffffffffffffffffffffffffffffffffffffff167fc5b7ebe2f977029f8b4377865e62fba0a54814d637b7fad519868496741e44c5836040518082815260200191505060405180910390a35b505050565b60008073ffffffffffffffffffffffffffffffffffffffff168273ffffffffffffffffffffffffffffffffffffffff16141515156125d557600080fd5b8260000160008373ffffffffffffffffffffffffffffffffffffffff1673ffffffffffffffffffffffffffffffffffffffff16815260200190815260200160002060009054906101000a900460ff16905092915050565b60028160000160006101000a81548160ff0219169083600281111561264d57fe5b0217905550438160090181905550806001016000801515151581526020019081526020016000205481600101600060011515151581526020019081526020016000205411156126c15760018160000160016101000a81548160ff021916908360028111156126b757fe5b0217905550612724565b806001016000801515151581526020019081526020016000205481600101600060011515151581526020019081526020016000205410156127235760028160000160016101000a81548160ff0219169083600281111561271d57fe5b02179055505b5b50565b600560009054906101000a900473ffffffffffffffffffffffffffffffffffffffff1673ffffffffffffffffffffffffffffffffffffffff1663315a095d6006546040518263ffffffff167c010000000000000000000000000000000000000000000000000000000002815260040180828152602001915050602060405180830381600087803b1580156127ba57600080fd5b505af11580156127ce573d6000803e3d6000fd5b505050506040513d60208110156127e457600080fd5b81019080805190602001909291905050506007819055506008547fcfa758a68bf0397527bd572b3087e8063ee06e3135a8beb2a6db24411023a057600654600754604051808381526020018281526020019250505060405180910390a2565b60018260000160006101000a81548160ff0219169083600281111561286457fe5b02179055508082600601819055504382600801819055505050565b600073ffffffffffffffffffffffffffffffffffffffff168173ffffffffffffffffffffffffffffffffffffffff16141515156128bb57600080fd5b60018260000160008373ffffffffffffffffffffffffffffffffffffffff1673ffffffffffffffffffffffffffffffffffffffff16815260200190815260200160002060006101000a81548160ff0219169083151502179055505050565b828054600181600116156101000203166002900490600052602060002090601f016020900481019282601f1061295a57805160ff1916838001178555612988565b82800160010185558215612988579182015b8281111561298757825182559160200191906001019061296c565b5b5090506129959190612999565b5090565b6129bb91905b808211156129b757600081600090555060010161299f565b5090565b905600a165627a7a72305820dcd2e29eaf2c5500e996913b35e4358ed3f0e700566c443498ecdd235335930c0029",
  "source": "/*\n * Lottery oracle\n *\n * Copyright (C) 2017-2018 Hubii AS\n */\n\npragma solidity ^0.4.25;\n\nimport {Resolvable} from \"./Resolvable.sol\";\nimport {RBACed} from \"./RBACed.sol\";\nimport {Oracle} from \"./Oracle.sol\";\nimport {BountyFund} from \"./BountyFund.sol\";\nimport {SafeMath} from \"openzeppelin-solidity/contracts/math/SafeMath.sol\";\nimport {ERC20} from \"openzeppelin-solidity/contracts/token/ERC20/ERC20.sol\";\n\nlibrary VerificationPhaseLib {\n    using SafeMath for uint256;\n\n    enum State {Unopened, Opened, Closed}\n    enum Status {Null, True, False}\n\n    struct VerificationPhase {\n        State state;\n        Status result;\n\n        mapping(bool => uint256) statusAmountMap;\n\n        mapping(address => bool) walletStakedMap;\n        uint256 stakingWallets;\n\n        mapping(address => mapping(bool => uint256)) walletStatusAmountMap;\n        mapping(uint256 => mapping(bool => uint256)) blockStatusAmountMap;\n\n        uint256 bountyAmount;\n        bool bountyAwarded;\n\n        uint256 startBlock;\n        uint256 endBlock;\n    }\n\n    function open(VerificationPhase storage _phase, uint256 _bountyAmount) internal {\n        _phase.state = State.Opened;\n        _phase.bountyAmount = _bountyAmount;\n        _phase.startBlock = block.number;\n    }\n\n    function close(VerificationPhase storage _phase) internal {\n        _phase.state = State.Closed;\n        _phase.endBlock = block.number;\n        if (_phase.statusAmountMap[true] > _phase.statusAmountMap[false])\n            _phase.result = Status.True;\n        else if (_phase.statusAmountMap[true] < _phase.statusAmountMap[false])\n            _phase.result = Status.False;\n    }\n\n    function updateMetrics(VerificationPhase storage _phase, address _wallet,\n        bool _status, uint256 _amount) internal {\n\n        _phase.statusAmountMap[_status] = _phase.statusAmountMap[_status].add(_amount);\n\n        if (!_phase.walletStakedMap[_wallet]) {\n            _phase.walletStakedMap[_wallet] = true;\n            _phase.stakingWallets++;\n        }\n\n        _phase.walletStatusAmountMap[_wallet][_status] = _phase.walletStatusAmountMap[_wallet][_status].add(_amount);\n        _phase.blockStatusAmountMap[block.number][_status] = _phase.blockStatusAmountMap[block.number][_status].add(_amount);\n    }\n}\n\n/// @title ResolutionEngine\n/// @author Jens Ivar Jrdre <jensivar@hubii.com>\n/// @notice A resolution engine base contract\ncontract ResolutionEngine is Resolvable, RBACed {\n    using SafeMath for uint256;\n    using VerificationPhaseLib for VerificationPhaseLib.VerificationPhase;\n\n    event MetricsUpdated(address indexed _wallet, uint256 indexed _verificationPhaseNumber, bool _status,\n        uint256 _amount);\n    event ConditionallyResolved(uint256 indexed _verificationPhaseNumber);\n    event BountyExtracted(uint256 indexed _verificationPhaseNumber, uint256 _bountyFraction,\n        uint256 _bountyAmount);\n    event VerificationPhaseOpened(uint256 indexed _verificationPhaseNumber);\n    event VerificationPhaseClosed(uint256 indexed _verificationPhaseNumber);\n    event PayoutWithdrawn(address indexed _wallet, uint256 indexed _verificationPhaseNumber, uint256 _payout);\n\n    string constant public ORACLE_ROLE = \"ORACLE\";\n\n    Oracle public oracle;\n    ERC20 public token;\n    BountyFund public bountyFund;\n    uint256 public bountyFraction;\n    uint256 public bountyAmount;\n\n    uint256 public verificationPhaseNumber;\n    mapping(uint256 => VerificationPhaseLib.VerificationPhase) public verificationPhaseMap;\n    mapping(address => mapping(bool => uint256)) public walletStatusAmountMap;\n    mapping(uint256 => mapping(bool => uint256)) public blockStatusAmountMap;\n\n    VerificationPhaseLib.Status public verificationStatus;\n\n    mapping(address => mapping(uint256 => bool)) public walletPhasePayoutMap;\n\n    /// @notice `msg.sender` will be added as accessor to the owner role\n    constructor(address _oracle, address _bountyFund, uint256 _bountyFraction) public {\n        // Initialize oracle\n        oracle = Oracle(_oracle);\n\n        // Add oracle role and add oracle as accessor to it\n        addRoleInternal(ORACLE_ROLE);\n        addRoleAccessorInternal(ORACLE_ROLE, _oracle);\n\n        // Initialize bounty fund\n        bountyFund = BountyFund(_bountyFund);\n        bountyFund.setResolutionEngine(this);\n\n        // Initialize token to the one of bounty fund\n        token = ERC20(bountyFund.token());\n\n        // Initialize bounty fraction\n        bountyFraction = _bountyFraction;\n\n        // Withdraw bounty\n        extractBounty();\n\n        // Open verification phase\n        openVerificationPhase();\n    }\n\n    modifier onlyCurrentPhaseNumber(uint256 _verificationPhaseNumber) {\n        require(verificationPhaseNumber == _verificationPhaseNumber);\n        _;\n    }\n\n    modifier onlyCurrentOrEarlierPhaseNumber(uint256 _verificationPhaseNumber) {\n        require(verificationPhaseNumber >= _verificationPhaseNumber);\n        _;\n    }\n\n    modifier onlyCurrentOrEarlierBlockNumber(uint256 _blockNumber) {\n        require(block.number >= _blockNumber);\n        _;\n    }\n\n    /// @notice Update metrics following a stake operation in the oracle\n    /// @dev The function can only be called by oracle.\n    /// @param _wallet The concerned wallet\n    /// @param _verificationPhaseNumber The verification phase number whose metrics will be updated, which can only\n    /// be the current verification phase number\n    /// @param _status The status staked at\n    /// @param _amount The amount staked\n    function updateMetrics(address _wallet, uint256 _verificationPhaseNumber, bool _status, uint256 _amount)\n    public\n    onlyRoleAccessor(ORACLE_ROLE)\n    onlyCurrentPhaseNumber(_verificationPhaseNumber)\n    {\n        // Update metrics\n        walletStatusAmountMap[_wallet][_status] = walletStatusAmountMap[_wallet][_status].add(_amount);\n        blockStatusAmountMap[block.number][_status] = blockStatusAmountMap[block.number][_status].add(_amount);\n        verificationPhaseMap[verificationPhaseNumber].updateMetrics(_wallet, _status, _amount);\n\n        // Emit event\n        emit MetricsUpdated(_wallet, _verificationPhaseNumber, _status, _amount);\n    }\n\n    /// @notice Resolve the market if resolution criteria have been met\n    /// @dev The function can only be called by oracle.\n    /// @param _verificationPhaseNumber The verification phase number that is considered for resolution, which can only\n    /// be the current verification phase number\n    function resolveConditionally(uint256 _verificationPhaseNumber)\n    public\n    onlyRoleAccessor(ORACLE_ROLE)\n    onlyCurrentPhaseNumber(_verificationPhaseNumber)\n    {\n        if (resolutionCriteriaMet()) {\n            closeVerificationPhase();\n            openVerificationPhase();\n        }\n\n        // Emit event\n        emit ConditionallyResolved(verificationPhaseNumber);\n    }\n\n    /// @notice Gauge whether the resolution criteria have been met\n    /// @return true if resolution criteria have been met, else false\n    function resolutionCriteriaMet() public view returns (bool) {\n        return false;\n    }\n\n    /// @notice Get the metrics for the given verification phase number\n    /// @dev Reverts if provided verification phase number is higher than current verification phase number\n    /// @param _verificationPhaseNumber The concerned verification phase number\n    function metricsByVerificationPhaseNumber(uint256 _verificationPhaseNumber)\n    public\n    view\n    onlyCurrentOrEarlierPhaseNumber(_verificationPhaseNumber)\n    returns (VerificationPhaseLib.State state, uint256 trueStakeAmount, uint256 falseStakeAmount,\n        uint256 stakeAmount, uint256 numberOfWallets, uint256 bountyAmount, bool bountyAwarded,\n        uint256 startBlock, uint256 endBlock, uint256 numberOfBlocks)\n    {\n        state = verificationPhaseMap[_verificationPhaseNumber].state;\n        trueStakeAmount = verificationPhaseMap[_verificationPhaseNumber].statusAmountMap[true];\n        falseStakeAmount = verificationPhaseMap[_verificationPhaseNumber].statusAmountMap[false];\n        stakeAmount = trueStakeAmount.add(falseStakeAmount);\n        numberOfWallets = verificationPhaseMap[_verificationPhaseNumber].stakingWallets;\n        bountyAmount = verificationPhaseMap[_verificationPhaseNumber].bountyAmount;\n        bountyAwarded = verificationPhaseMap[_verificationPhaseNumber].bountyAwarded;\n        startBlock = verificationPhaseMap[_verificationPhaseNumber].startBlock;\n        endBlock = verificationPhaseMap[_verificationPhaseNumber].endBlock;\n        numberOfBlocks = (endBlock == 0 ? block.number : endBlock) - startBlock;\n    }\n\n    /// @notice Get the metrics for the given verification phase number and wallet\n    /// @dev Reverts if provided verification phase number is higher than current verification phase number\n    /// @param _verificationPhaseNumber The concerned verification phase number\n    /// @param _wallet The address of the concerned wallet\n    function metricsByVerificationPhaseNumberAndWallet(uint256 _verificationPhaseNumber, address _wallet)\n    public\n    view\n    onlyCurrentOrEarlierPhaseNumber(_verificationPhaseNumber)\n    returns (uint256 trueStakeAmount, uint256 falseStakeAmount, uint256 stakeAmount)\n    {\n        trueStakeAmount = verificationPhaseMap[_verificationPhaseNumber].walletStatusAmountMap[_wallet][true];\n        falseStakeAmount = verificationPhaseMap[_verificationPhaseNumber].walletStatusAmountMap[_wallet][false];\n        stakeAmount = trueStakeAmount.add(falseStakeAmount);\n    }\n\n    /// @notice Get the metrics for the wallet\n    /// @param _wallet The address of the concerned wallet\n    function metricsByWallet(address _wallet)\n    public\n    view\n    returns (uint256 trueStakeAmount, uint256 falseStakeAmount, uint256 stakeAmount)\n    {\n        trueStakeAmount = walletStatusAmountMap[_wallet][true];\n        falseStakeAmount = walletStatusAmountMap[_wallet][false];\n        stakeAmount = trueStakeAmount.add(falseStakeAmount);\n    }\n\n    /// @notice Get the metrics for the block\n    /// @dev Reverts if provided block number is higher than current block number\n    /// @param _blockNumber The concerned block number\n    function metricsByBlockNumber(uint256 _blockNumber)\n    public\n    view\n    onlyCurrentOrEarlierBlockNumber(_blockNumber)\n    returns (uint256 trueStakeAmount, uint256 falseStakeAmount, uint256 stakeAmount)\n    {\n        trueStakeAmount = blockStatusAmountMap[_blockNumber][true];\n        falseStakeAmount = blockStatusAmountMap[_blockNumber][false];\n        stakeAmount = trueStakeAmount.add(falseStakeAmount);\n    }\n\n    /// @notice Calculate the payout of the given wallet at the given verification phase number\n    /// @param _verificationPhaseNumber The concerned verification phase number\n    /// @param _wallet The address of the concerned wallet\n    function calculatePayout(uint256 _verificationPhaseNumber, address _wallet)\n    public\n    view\n    returns (uint256)\n    {\n        // Return 0 if no non-null verification status has been obtained\n        if (VerificationPhaseLib.Status.Null == verificationPhaseMap[_verificationPhaseNumber].result)\n            return 0;\n\n        // Get the status obtained by the verification phase\n        bool status = verificationPhaseMap[_verificationPhaseNumber].result == VerificationPhaseLib.Status.True;\n\n        // Get the lot staked opposite of status\n        uint256 lot = verificationPhaseMap[_verificationPhaseNumber].statusAmountMap[!status];\n\n        // If bounty was awarded add bounty to the total lot\n        if (verificationPhaseMap[_verificationPhaseNumber].bountyAwarded)\n            lot = lot.add(verificationPhaseMap[_verificationPhaseNumber].bountyAmount);\n\n        // Get the amount the wallet staked and total amount staked on the obtained status\n        uint256 walletStatusAmount = verificationPhaseMap[_verificationPhaseNumber].walletStatusAmountMap[_wallet][status];\n        uint256 statusAmount = verificationPhaseMap[_verificationPhaseNumber].statusAmountMap[status];\n\n        // Return the lot scaled by the fractional contribution that wallet staked on the obtained status and\n        // to this added the wallet's own staked amount\n        return lot.mul(walletStatusAmount).div(statusAmount).add(walletStatusAmount);\n    }\n\n    /// @notice Withdraw the payout earned by given wallet in the inclusive range of given verification phase numbers\n    /// @dev The function can only be called by oracle.\n    /// @param _wallet The address of the concerned wallet\n    /// @param _firstVerificationPhaseNumber The first verification phase number to withdraw payout from\n    /// @param _lastVerificationPhaseNumber The last verification phase number to withdraw payout from\n    function withdrawPayout(address _wallet, uint256 _firstVerificationPhaseNumber,\n        uint256 _lastVerificationPhaseNumber)\n    public\n    onlyRoleAccessor(ORACLE_ROLE)\n    {\n        // For each verification phase number in the inclusive range withdraw payout\n        for (uint256 i = _firstVerificationPhaseNumber; i <= _lastVerificationPhaseNumber; i++)\n            withdrawPayout(_wallet, i);\n    }\n\n    /// @notice Extract from bounty fund\n    function extractBounty() internal {\n        // Withdraw from bounty fund\n        bountyAmount = bountyFund.withdrawTokens(bountyFraction);\n\n        // Emit event\n        emit BountyExtracted(verificationPhaseNumber, bountyFraction, bountyAmount);\n    }\n\n    /// @notice Open verification phase\n    function openVerificationPhase() internal {\n        // Require that verification phase is not open\n        require(verificationPhaseMap[verificationPhaseNumber].state == VerificationPhaseLib.State.Unopened);\n\n        // Open the verification phase\n        verificationPhaseMap[verificationPhaseNumber].open(bountyAmount);\n\n        // Emit event\n        emit VerificationPhaseOpened(verificationPhaseNumber);\n    }\n\n    /// @notice Close verification phase\n    function closeVerificationPhase() internal {\n        // Require that verification phase is open\n        require(verificationPhaseMap[verificationPhaseNumber].state == VerificationPhaseLib.State.Opened);\n\n        // Close the verification phase\n        verificationPhaseMap[verificationPhaseNumber].close();\n\n        // If new verification status...\n        if (verificationPhaseMap[verificationPhaseNumber].result != verificationStatus) {\n            // Update verification status of this resolution engine\n            verificationStatus = verificationPhaseMap[verificationPhaseNumber].result;\n\n            // Award bounty to this verification phase\n            verificationPhaseMap[verificationPhaseNumber].bountyAwarded = true;\n\n            // Extract new bounty\n            extractBounty();\n        }\n\n        // Emit event\n        emit VerificationPhaseClosed(verificationPhaseNumber);\n\n        // Bump verification phase number\n        verificationPhaseNumber++;\n    }\n\n    /// @notice Withdraw payout of given wallet and verification phase number\n    /// @param _wallet The address of the concerned wallet\n    /// @param _verificationPhaseNumber The concerned verification phase number\n    function withdrawPayout(address _wallet, uint256 _verificationPhaseNumber) internal {\n        // Return if the verification phase has not been closed\n        if (VerificationPhaseLib.State.Closed != verificationPhaseMap[_verificationPhaseNumber].state)\n            return;\n\n        // Return if the wallet has been payed out for this verification phase number already\n        if (walletPhasePayoutMap[_wallet][_verificationPhaseNumber])\n            return;\n\n        // Calculate payout\n        uint256 payout = calculatePayout(_verificationPhaseNumber, _wallet);\n\n        // Register payout of wallet and verification phase number\n        walletPhasePayoutMap[_wallet][_verificationPhaseNumber] = true;\n\n        // Transfer payout\n        token.transfer(_wallet, payout);\n\n        // Emit event\n        emit PayoutWithdrawn(_wallet, _verificationPhaseNumber, payout);\n    }\n}\n",
  "sourcePath": "/opt/buildagent/work/9988d0feca52d9d9/contracts/ResolutionEngine.sol",
  "compiler": {
    "name": "solc",
    "version": "0.4.25+commit.59dbf8f1.Emscripten.clang"
  },
  "schemaVersion": "3.0.0-beta.1",
  "updatedAt": "2018-10-03T15:59:44.208Z"
}