{
  "contractName": "ResolutionEngineOperator",
  "abi": [
    {
      "constant": true,
      "inputs": [],
      "name": "frozen",
      "outputs": [
        {
          "internalType": "bool",
          "name": "",
          "type": "bool"
        }
      ],
      "payable": false,
      "stateMutability": "view",
      "type": "function"
    },
    {
      "constant": true,
      "inputs": [
        {
          "internalType": "address",
          "name": "",
          "type": "address"
        }
      ],
      "name": "disablementTimeoutByResolutionEngine",
      "outputs": [
        {
          "internalType": "uint256",
          "name": "",
          "type": "uint256"
        }
      ],
      "payable": false,
      "stateMutability": "view",
      "type": "function"
    },
    {
      "constant": true,
      "inputs": [
        {
          "internalType": "string",
          "name": "_role",
          "type": "string"
        }
      ],
      "name": "isRole",
      "outputs": [
        {
          "internalType": "bool",
          "name": "",
          "type": "bool"
        }
      ],
      "payable": false,
      "stateMutability": "view",
      "type": "function"
    },
    {
      "constant": false,
      "inputs": [
        {
          "internalType": "string",
          "name": "_role",
          "type": "string"
        }
      ],
      "name": "addRole",
      "outputs": [],
      "payable": false,
      "stateMutability": "nonpayable",
      "type": "function"
    },
    {
      "constant": false,
      "inputs": [
        {
          "internalType": "string",
          "name": "_role",
          "type": "string"
        },
        {
          "internalType": "address",
          "name": "_address",
          "type": "address"
        }
      ],
      "name": "addRoleAccessor",
      "outputs": [],
      "payable": false,
      "stateMutability": "nonpayable",
      "type": "function"
    },
    {
      "constant": false,
      "inputs": [
        {
          "internalType": "string",
          "name": "_role",
          "type": "string"
        },
        {
          "internalType": "address",
          "name": "_address",
          "type": "address"
        }
      ],
      "name": "removeRoleAccessor",
      "outputs": [],
      "payable": false,
      "stateMutability": "nonpayable",
      "type": "function"
    },
    {
      "constant": true,
      "inputs": [],
      "name": "rolesCount",
      "outputs": [
        {
          "internalType": "uint256",
          "name": "",
          "type": "uint256"
        }
      ],
      "payable": false,
      "stateMutability": "view",
      "type": "function"
    },
    {
      "constant": true,
      "inputs": [
        {
          "internalType": "uint256",
          "name": "",
          "type": "uint256"
        }
      ],
      "name": "roles",
      "outputs": [
        {
          "internalType": "string",
          "name": "",
          "type": "string"
        }
      ],
      "payable": false,
      "stateMutability": "view",
      "type": "function"
    },
    {
      "constant": true,
      "inputs": [],
      "name": "minimumTimeout",
      "outputs": [
        {
          "internalType": "uint256",
          "name": "",
          "type": "uint256"
        }
      ],
      "payable": false,
      "stateMutability": "view",
      "type": "function"
    },
    {
      "constant": true,
      "inputs": [],
      "name": "OWNER_ROLE",
      "outputs": [
        {
          "internalType": "string",
          "name": "",
          "type": "string"
        }
      ],
      "payable": false,
      "stateMutability": "view",
      "type": "function"
    },
    {
      "constant": true,
      "inputs": [
        {
          "internalType": "string",
          "name": "_role",
          "type": "string"
        },
        {
          "internalType": "address",
          "name": "_address",
          "type": "address"
        }
      ],
      "name": "isRoleAccessor",
      "outputs": [
        {
          "internalType": "bool",
          "name": "",
          "type": "bool"
        }
      ],
      "payable": false,
      "stateMutability": "view",
      "type": "function"
    },
    {
      "inputs": [
        {
          "internalType": "uint256",
          "name": "_minimumTimeout",
          "type": "uint256"
        }
      ],
      "payable": false,
      "stateMutability": "nonpayable",
      "type": "constructor"
    },
    {
      "anonymous": false,
      "inputs": [],
      "name": "Frozen",
      "type": "event"
    },
    {
      "anonymous": false,
      "inputs": [
        {
          "indexed": true,
          "internalType": "address",
          "name": "_resolutionEngine",
          "type": "address"
        },
        {
          "indexed": false,
          "internalType": "uint256",
          "name": "_timeout",
          "type": "uint256"
        }
      ],
      "name": "DisablementTimerStarted",
      "type": "event"
    },
    {
      "anonymous": false,
      "inputs": [
        {
          "indexed": true,
          "internalType": "address",
          "name": "_resolutionEngine",
          "type": "address"
        }
      ],
      "name": "DisablementTimerStopped",
      "type": "event"
    },
    {
      "anonymous": false,
      "inputs": [
        {
          "indexed": true,
          "internalType": "address",
          "name": "_resolutionEngine",
          "type": "address"
        }
      ],
      "name": "Disabled",
      "type": "event"
    },
    {
      "anonymous": false,
      "inputs": [
        {
          "indexed": false,
          "internalType": "uint256",
          "name": "minimumTimeout",
          "type": "uint256"
        }
      ],
      "name": "MinimumTimeoutSet",
      "type": "event"
    },
    {
      "anonymous": false,
      "inputs": [
        {
          "indexed": false,
          "internalType": "string",
          "name": "_role",
          "type": "string"
        }
      ],
      "name": "RoleAdded",
      "type": "event"
    },
    {
      "anonymous": false,
      "inputs": [
        {
          "indexed": false,
          "internalType": "string",
          "name": "_role",
          "type": "string"
        },
        {
          "indexed": true,
          "internalType": "address",
          "name": "_address",
          "type": "address"
        }
      ],
      "name": "RoleAccessorAdded",
      "type": "event"
    },
    {
      "anonymous": false,
      "inputs": [
        {
          "indexed": false,
          "internalType": "string",
          "name": "_role",
          "type": "string"
        },
        {
          "indexed": true,
          "internalType": "address",
          "name": "_address",
          "type": "address"
        }
      ],
      "name": "RoleAccessorRemoved",
      "type": "event"
    },
    {
      "constant": false,
      "inputs": [],
      "name": "freeze",
      "outputs": [],
      "payable": false,
      "stateMutability": "nonpayable",
      "type": "function"
    },
    {
      "constant": false,
      "inputs": [
        {
          "internalType": "address",
          "name": "_resolutionEngine",
          "type": "address"
        },
        {
          "internalType": "uint256",
          "name": "_timeout",
          "type": "uint256"
        }
      ],
      "name": "startDisablementTimer",
      "outputs": [],
      "payable": false,
      "stateMutability": "nonpayable",
      "type": "function"
    },
    {
      "constant": false,
      "inputs": [
        {
          "internalType": "address",
          "name": "_resolutionEngine",
          "type": "address"
        }
      ],
      "name": "stopDisablementTimer",
      "outputs": [],
      "payable": false,
      "stateMutability": "nonpayable",
      "type": "function"
    },
    {
      "constant": true,
      "inputs": [
        {
          "internalType": "address",
          "name": "_resolutionEngine",
          "type": "address"
        }
      ],
      "name": "isDisablementTimerExpired",
      "outputs": [
        {
          "internalType": "bool",
          "name": "",
          "type": "bool"
        }
      ],
      "payable": false,
      "stateMutability": "view",
      "type": "function"
    },
    {
      "constant": false,
      "inputs": [
        {
          "internalType": "address",
          "name": "_resolutionEngine",
          "type": "address"
        }
      ],
      "name": "disable",
      "outputs": [],
      "payable": false,
      "stateMutability": "nonpayable",
      "type": "function"
    },
    {
      "constant": false,
      "inputs": [
        {
          "internalType": "uint256",
          "name": "_minimumTimeout",
          "type": "uint256"
        }
      ],
      "name": "setMinimumTimeout",
      "outputs": [],
      "payable": false,
      "stateMutability": "nonpayable",
      "type": "function"
    }
  ],
  "bytecode": "0x60806040523480156200001157600080fd5b506040516200260738038062002607833981810160405260208110156200003757600080fd5b81019080805190602001909291905050506200008e6040518060400160405280600581526020017f4f574e4552000000000000000000000000000000000000000000000000000000815250620000e360201b60201c565b620000d56040518060400160405280600581526020017f4f574e4552000000000000000000000000000000000000000000000000000000815250336200018260201b60201c565b8060048190555050620004b2565b60016000620000f883620001c260201b60201c565b815260200190815260200160002054600014156200017f5760008190806001815401808255809150509060018203906000526020600020016000909192909190915090805190602001906200014f92919062000403565b5050600080549050600160006200016c84620001c260201b60201c565b8152602001908152602001600020819055505b50565b620001be81600260006200019c86620001c260201b60201c565b81526020019081526020016000206200023f60201b62001e631790919060201c565b5050565b6000816040516020018082805190602001908083835b60208310620001fd5780518252602082019150602081019050602083039250620001d8565b6001836020036101000a038019825116818451168082178552505050505050905001915050604051602081830303815290604052805190602001209050919050565b6200025182826200032360201b60201c565b15620002c5576040517f08c379a000000000000000000000000000000000000000000000000000000000815260040180806020018281038252601f8152602001807f526f6c65733a206163636f756e7420616c72656164792068617320726f6c650081525060200191505060405180910390fd5b60018260000160008373ffffffffffffffffffffffffffffffffffffffff1673ffffffffffffffffffffffffffffffffffffffff16815260200190815260200160002060006101000a81548160ff0219169083151502179055505050565b60008073ffffffffffffffffffffffffffffffffffffffff168273ffffffffffffffffffffffffffffffffffffffff161415620003ac576040517f08c379a0000000000000000000000000000000000000000000000000000000008152600401808060200182810382526022815260200180620025e56022913960400191505060405180910390fd5b8260000160008373ffffffffffffffffffffffffffffffffffffffff1673ffffffffffffffffffffffffffffffffffffffff16815260200190815260200160002060009054906101000a900460ff16905092915050565b828054600181600116156101000203166002900490600052602060002090601f016020900481019282601f106200044657805160ff191683800117855562000477565b8280016001018555821562000477579182015b828111156200047657825182559160200191906001019062000459565b5b5090506200048691906200048a565b5090565b620004af91905b80821115620004ab57600081600090555060010162000491565b5090565b90565b61212380620004c26000396000f3fe608060405234801561001057600080fd5b506004361061010b5760003560e01c80637aea444e116100a2578063bfda4a4911610071578063bfda4a4914610612578063d8294ede146106b9578063e58378bb146106d7578063e6c09edf1461075a578063fb535fd61461079e5761010b565b80637aea444e146105065780637c0dc5b3146105625780637d00f8f7146105b0578063b8517dd8146105f45761010b565b80633e96e868116100de5780633e96e8681461028b5780634da195be146103465780635b0f833a1461042157806362a5af3b146104fc5761010b565b8063054f7d9c146101105780630740606c146101325780630f6c37de1461018a57806322554f701461025d575b600080fd5b610118610891565b604051808215151515815260200191505060405180910390f35b6101746004803603602081101561014857600080fd5b81019080803573ffffffffffffffffffffffffffffffffffffffff1690602001909291905050506108a4565b6040518082815260200191505060405180910390f35b610243600480360360208110156101a057600080fd5b81019080803590602001906401000000008111156101bd57600080fd5b8201836020820111156101cf57600080fd5b803590602001918460018302840111640100000000831117156101f157600080fd5b91908080601f016020809104026020016040519081016040528093929190818152602001838380828437600081840152601f19601f8201169050808301925050505050505091929192905050506108bc565b604051808215151515815260200191505060405180910390f35b6102896004803603602081101561027357600080fd5b81019080803590602001909291905050506108e5565b005b610344600480360360208110156102a157600080fd5b81019080803590602001906401000000008111156102be57600080fd5b8201836020820111156102d057600080fd5b803590602001918460018302840111640100000000831117156102f257600080fd5b91908080601f016020809104026020016040519081016040528093929190818152602001838380828437600081840152601f19601f820116905080830192505050505050509192919290505050610a24565b005b61041f6004803603604081101561035c57600080fd5b810190808035906020019064010000000081111561037957600080fd5b82018360208201111561038b57600080fd5b803590602001918460018302840111640100000000831117156103ad57600080fd5b91908080601f016020809104026020016040519081016040528093929190818152602001838380828437600081840152601f19601f820116905080830192505050505050509192919290803573ffffffffffffffffffffffffffffffffffffffff169060200190929190505050610b62565b005b6104fa6004803603604081101561043757600080fd5b810190808035906020019064010000000081111561045457600080fd5b82018360208201111561046657600080fd5b8035906020019184600183028401116401000000008311171561048857600080fd5b91908080601f016020809104026020016040519081016040528093929190818152602001838380828437600081840152601f19601f820116905080830192505050505050509192919290803573ffffffffffffffffffffffffffffffffffffffff169060200190929190505050610cb9565b005b610504610e33565b005b6105486004803603602081101561051c57600080fd5b81019080803573ffffffffffffffffffffffffffffffffffffffff169060200190929190505050610f12565b604051808215151515815260200191505060405180910390f35b6105ae6004803603604081101561057857600080fd5b81019080803573ffffffffffffffffffffffffffffffffffffffff16906020019092919080359060200190929190505050610f5e565b005b6105f2600480360360208110156105c657600080fd5b81019080803573ffffffffffffffffffffffffffffffffffffffff16906020019092919050505061134a565b005b6105fc61167f565b6040518082815260200191505060405180910390f35b61063e6004803603602081101561062857600080fd5b810190808035906020019092919050505061168b565b6040518080602001828103825283818151815260200191508051906020019080838360005b8381101561067e578082015181840152602081019050610663565b50505050905090810190601f1680156106ab5780820380516001836020036101000a031916815260200191505b509250505060405180910390f35b6106c1611744565b6040518082815260200191505060405180910390f35b6106df61174a565b6040518080602001828103825283818151815260200191508051906020019080838360005b8381101561071f578082015181840152602081019050610704565b50505050905090810190601f16801561074c5780820380516001836020036101000a031916815260200191505b509250505060405180910390f35b61079c6004803603602081101561077057600080fd5b81019080803573ffffffffffffffffffffffffffffffffffffffff169060200190929190505050611783565b005b610877600480360360408110156107b457600080fd5b81019080803590602001906401000000008111156107d157600080fd5b8201836020820111156107e357600080fd5b8035906020019184600183028401116401000000008311171561080557600080fd5b91908080601f016020809104026020016040519081016040528093929190818152602001838380828437600081840152601f19601f820116905080830192505050505050509192919290803573ffffffffffffffffffffffffffffffffffffffff169060200190929190505050611ad1565b604051808215151515815260200191505060405180910390f35b600360009054906101000a900460ff1681565b60056020528060005260406000206000915090505481565b6000600160006108cb84611b08565b815260200190815260200160002054600014159050919050565b6040518060400160405280600581526020017f4f574e45520000000000000000000000000000000000000000000000000000008152506109258133611ad1565b61097a576040517f08c379a000000000000000000000000000000000000000000000000000000000815260040180806020018281038252602a815260200180612041602a913960400191505060405180910390fd5b600360009054906101000a900460ff16156109e0576040517f08c379a0000000000000000000000000000000000000000000000000000000008152600401808060200182810382526023815260200180611fe46023913960400191505060405180910390fd5b816004819055507f0399e0d52b417b93f3bdefb82d4ba7eab1b22fa9740ed45ab7d9f793e0bbf0f26004546040518082815260200191505060405180910390a15050565b6040518060400160405280600581526020017f4f574e4552000000000000000000000000000000000000000000000000000000815250610a648133611ad1565b610ab9576040517f08c379a000000000000000000000000000000000000000000000000000000000815260040180806020018281038252602a815260200180612041602a913960400191505060405180910390fd5b610ac282611b83565b7f22f30a094e2ed10e9a92ebac7a70b8e2ae3288d9b594db22587861bc8fef4eef826040518080602001828103825283818151815260200191508051906020019080838360005b83811015610b24578082015181840152602081019050610b09565b50505050905090810190601f168015610b515780820380516001836020036101000a031916815260200191505b509250505060405180910390a15050565b6040518060400160405280600581526020017f4f574e4552000000000000000000000000000000000000000000000000000000815250610ba28133611ad1565b610bf7576040517f08c379a000000000000000000000000000000000000000000000000000000000815260040180806020018281038252602a815260200180612041602a913960400191505060405180910390fd5b610c018383611c0f565b8173ffffffffffffffffffffffffffffffffffffffff167fafe42c64e42361a5193c84f3f11b6803e41dd901d473ee6faa72f43f8ab1f468846040518080602001828103825283818151815260200191508051906020019080838360005b83811015610c7a578082015181840152602081019050610c5f565b50505050905090810190601f168015610ca75780820380516001836020036101000a031916815260200191505b509250505060405180910390a2505050565b6040518060400160405280600581526020017f4f574e4552000000000000000000000000000000000000000000000000000000815250610cf98133611ad1565b610d4e576040517f08c379a000000000000000000000000000000000000000000000000000000000815260040180806020018281038252602a815260200180612041602a913960400191505060405180910390fd5b610d7b8260026000610d5f87611b08565b8152602001908152602001600020611c4090919063ffffffff16565b8173ffffffffffffffffffffffffffffffffffffffff167f3e3ea7a1060be276a52e916803e2f89e3478e263893fc3c0b4d5793dd6d5f032846040518080602001828103825283818151815260200191508051906020019080838360005b83811015610df4578082015181840152602081019050610dd9565b50505050905090810190601f168015610e215780820380516001836020036101000a031916815260200191505b509250505060405180910390a2505050565b6040518060400160405280600581526020017f4f574e4552000000000000000000000000000000000000000000000000000000815250610e738133611ad1565b610ec8576040517f08c379a000000000000000000000000000000000000000000000000000000000815260040180806020018281038252602a815260200180612041602a913960400191505060405180910390fd5b6001600360006101000a81548160ff0219169083151502179055507fa8cab3d1893ed53071b052fafa843143492f25d1d6b0170d460789f7ab1954be60405160405180910390a150565b6000600560008373ffffffffffffffffffffffffffffffffffffffff1673ffffffffffffffffffffffffffffffffffffffff168152602001908152602001600020544210159050919050565b6040518060400160405280600581526020017f4f574e4552000000000000000000000000000000000000000000000000000000815250610f9e8133611ad1565b610ff3576040517f08c379a000000000000000000000000000000000000000000000000000000000815260040180806020018281038252602a815260200180612041602a913960400191505060405180910390fd5b60045482101561104e576040517f08c379a000000000000000000000000000000000000000000000000000000000815260040180806020018281038252604181526020018061206b6041913960600191505060405180910390fd5b6110618242611cfd90919063ffffffff16565b600560008573ffffffffffffffffffffffffffffffffffffffff1673ffffffffffffffffffffffffffffffffffffffff1681526020019081526020016000208190555060008390508073ffffffffffffffffffffffffffffffffffffffff1663e29983818273ffffffffffffffffffffffffffffffffffffffff1663b330df736040518163ffffffff1660e01b815260040160006040518083038186803b15801561110b57600080fd5b505afa15801561111f573d6000803e3d6000fd5b505050506040513d6000823e3d601f19601f82011682018060405250602081101561114957600080fd5b810190808051604051939291908464010000000082111561116957600080fd5b8382019150602082018581111561117f57600080fd5b825186600182028301116401000000008211171561119c57600080fd5b8083526020830192505050908051906020019080838360005b838110156111d05780820151818401526020810190506111b5565b50505050905090810190601f1680156111fd5780820380516001836020036101000a031916815260200191505b506040525050506040518263ffffffff1660e01b81526004018080602001828103825283818151815260200191508051906020019080838360005b83811015611253578082015181840152602081019050611238565b50505050905090810190601f1680156112805780820380516001836020036101000a031916815260200191505b5092505050600060405180830381600087803b15801561129f57600080fd5b505af11580156112b3573d6000803e3d6000fd5b505050508373ffffffffffffffffffffffffffffffffffffffff167fefdc41ad8f300ee0e1679de026f029ab25c74b575d46aed4386e803426c2d1a8600560008773ffffffffffffffffffffffffffffffffffffffff1673ffffffffffffffffffffffffffffffffffffffff168152602001908152602001600020546040518082815260200191505060405180910390a250505050565b6040518060400160405280600581526020017f4f574e455200000000000000000000000000000000000000000000000000000081525061138a8133611ad1565b6113df576040517f08c379a000000000000000000000000000000000000000000000000000000000815260040180806020018281038252602a815260200180612041602a913960400191505060405180910390fd5b6000600560008473ffffffffffffffffffffffffffffffffffffffff1673ffffffffffffffffffffffffffffffffffffffff1681526020019081526020016000208190555060008290508073ffffffffffffffffffffffffffffffffffffffff1663b8724c598273ffffffffffffffffffffffffffffffffffffffff1663b330df736040518163ffffffff1660e01b815260040160006040518083038186803b15801561148b57600080fd5b505afa15801561149f573d6000803e3d6000fd5b505050506040513d6000823e3d601f19601f8201168201806040525060208110156114c957600080fd5b81019080805160405193929190846401000000008211156114e957600080fd5b838201915060208201858111156114ff57600080fd5b825186600182028301116401000000008211171561151c57600080fd5b8083526020830192505050908051906020019080838360005b83811015611550578082015181840152602081019050611535565b50505050905090810190601f16801561157d5780820380516001836020036101000a031916815260200191505b506040525050506040518263ffffffff1660e01b81526004018080602001828103825283818151815260200191508051906020019080838360005b838110156115d35780820151818401526020810190506115b8565b50505050905090810190601f1680156116005780820380516001836020036101000a031916815260200191505b5092505050600060405180830381600087803b15801561161f57600080fd5b505af1158015611633573d6000803e3d6000fd5b505050508273ffffffffffffffffffffffffffffffffffffffff167f34b4759ede65104ab3265e87674d547299b04041948c396f80dafb50e207c63560405160405180910390a2505050565b60008080549050905090565b6000818154811061169857fe5b906000526020600020016000915090508054600181600116156101000203166002900480601f01602080910402602001604051908101604052809291908181526020018280546001816001161561010002031660029004801561173c5780601f106117115761010080835404028352916020019161173c565b820191906000526020600020905b81548152906001019060200180831161171f57829003601f168201915b505050505081565b60045481565b6040518060400160405280600581526020017f4f574e455200000000000000000000000000000000000000000000000000000081525081565b6040518060400160405280600581526020017f4f574e45520000000000000000000000000000000000000000000000000000008152506117c38133611ad1565b611818576040517f08c379a000000000000000000000000000000000000000000000000000000000815260040180806020018281038252602a815260200180612041602a913960400191505060405180910390fd5b61182182610f12565b611876576040517f08c379a000000000000000000000000000000000000000000000000000000000815260040180806020018281038252603a815260200180612007603a913960400191505060405180910390fd5b60008290508073ffffffffffffffffffffffffffffffffffffffff1663e29983818273ffffffffffffffffffffffffffffffffffffffff1663a1f6c9596040518163ffffffff1660e01b815260040160006040518083038186803b1580156118dd57600080fd5b505afa1580156118f1573d6000803e3d6000fd5b505050506040513d6000823e3d601f19601f82011682018060405250602081101561191b57600080fd5b810190808051604051939291908464010000000082111561193b57600080fd5b8382019150602082018581111561195157600080fd5b825186600182028301116401000000008211171561196e57600080fd5b8083526020830192505050908051906020019080838360005b838110156119a2578082015181840152602081019050611987565b50505050905090810190601f1680156119cf5780820380516001836020036101000a031916815260200191505b506040525050506040518263ffffffff1660e01b81526004018080602001828103825283818151815260200191508051906020019080838360005b83811015611a25578082015181840152602081019050611a0a565b50505050905090810190601f168015611a525780820380516001836020036101000a031916815260200191505b5092505050600060405180830381600087803b158015611a7157600080fd5b505af1158015611a85573d6000803e3d6000fd5b505050508273ffffffffffffffffffffffffffffffffffffffff167ff54453d15e2e6aee566733e6da03165ea58500408e802e05aa4e75f2408f59fe60405160405180910390a2505050565b6000611b008260026000611ae487611b08565b8152602001908152602001600020611d8590919063ffffffff16565b905092915050565b6000816040516020018082805190602001908083835b60208310611b415780518252602082019150602081019050602083039250611b1e565b6001836020036101000a038019825116818451168082178552505050505050905001915050604051602081830303815290604052805190602001209050919050565b60016000611b9083611b08565b81526020019081526020016000205460001415611c0c576000819080600181540180825580915050906001820390600052602060002001600090919290919091509080519060200190611be4929190611f3e565b505060008054905060016000611bf984611b08565b8152602001908152602001600020819055505b50565b611c3c8160026000611c2086611b08565b8152602001908152602001600020611e6390919063ffffffff16565b5050565b611c4a8282611d85565b611c9f576040517f08c379a00000000000000000000000000000000000000000000000000000000081526004018080602001828103825260218152602001806120ac6021913960400191505060405180910390fd5b60008260000160008373ffffffffffffffffffffffffffffffffffffffff1673ffffffffffffffffffffffffffffffffffffffff16815260200190815260200160002060006101000a81548160ff0219169083151502179055505050565b600080828401905083811015611d7b576040517f08c379a000000000000000000000000000000000000000000000000000000000815260040180806020018281038252601b8152602001807f536166654d6174683a206164646974696f6e206f766572666c6f77000000000081525060200191505060405180910390fd5b8091505092915050565b60008073ffffffffffffffffffffffffffffffffffffffff168273ffffffffffffffffffffffffffffffffffffffff161415611e0c576040517f08c379a00000000000000000000000000000000000000000000000000000000081526004018080602001828103825260228152602001806120cd6022913960400191505060405180910390fd5b8260000160008373ffffffffffffffffffffffffffffffffffffffff1673ffffffffffffffffffffffffffffffffffffffff16815260200190815260200160002060009054906101000a900460ff16905092915050565b611e6d8282611d85565b15611ee0576040517f08c379a000000000000000000000000000000000000000000000000000000000815260040180806020018281038252601f8152602001807f526f6c65733a206163636f756e7420616c72656164792068617320726f6c650081525060200191505060405180910390fd5b60018260000160008373ffffffffffffffffffffffffffffffffffffffff1673ffffffffffffffffffffffffffffffffffffffff16815260200190815260200160002060006101000a81548160ff0219169083151502179055505050565b828054600181600116156101000203166002900490600052602060002090601f016020900481019282601f10611f7f57805160ff1916838001178555611fad565b82800160010185558215611fad579182015b82811115611fac578251825591602001919060010190611f91565b5b509050611fba9190611fbe565b5090565b611fe091905b80821115611fdc576000816000905550600101611fc4565b5090565b9056fe5265736f6c7574696f6e456e67696e654f70657261746f723a2069732066726f7a656e5265736f6c7574696f6e456e67696e654f70657261746f723a2064697361626c656d656e742074696d6572206973206e6f7420657870697265645242414365643a2073656e646572206973206e6f74206163636573736f72206f662074686520726f6c655265736f6c7574696f6e456e67696e654f70657261746f723a2074696d656f757420697320736d616c6c6572207468616e2074686520736574206d696e696d756d526f6c65733a206163636f756e7420646f6573206e6f74206861766520726f6c65526f6c65733a206163636f756e7420697320746865207a65726f2061646472657373a265627a7a72315820242f6bdd3e97231830cd8e12e06d8305f6f54686b61b3612e7fb966aab2e6c7c64736f6c634300050b0032526f6c65733a206163636f756e7420697320746865207a65726f2061646472657373",
  "source": "/*\n * Lottery oracle\n *\n * Copyright (C) 2017-2019 Hubii AS\n */\n\npragma solidity ^0.5.11;\n\nimport {RBACed} from \"./RBACed.sol\";\nimport {ResolutionEngine} from \"./ResolutionEngine.sol\";\nimport {SafeMath} from \"openzeppelin-solidity/contracts/math/SafeMath.sol\";\n\n/// @title ResolutionEngineOperator\n/// @author Jens Ivar Jrdre <jensivar@hubii.com>\n/// @notice An operator of resolution engines\ncontract ResolutionEngineOperator is RBACed {\n    using SafeMath for uint256;\n\n    bool public frozen;\n\n    uint256 public minimumTimeout;\n    mapping(address => uint256) public disablementTimeoutByResolutionEngine;\n\n    event Frozen();\n    event DisablementTimerStarted(address indexed _resolutionEngine, uint256 _timeout);\n    event DisablementTimerStopped(address indexed _resolutionEngine);\n    event Disabled(address indexed _resolutionEngine);\n    event MinimumTimeoutSet(uint256 minimumTimeout);\n\n    /// @notice `msg.sender` will be added as accessor to the owner role\n    constructor(uint256 _minimumTimeout)\n    public\n    {\n        minimumTimeout = _minimumTimeout;\n    }\n\n    modifier onlyNotFrozen() {\n        require(!frozen, \"ResolutionEngineOperator: is frozen\");\n        _;\n    }\n\n    /// @notice Freeze this resolution engine\n    /// @dev This operation can not be undone\n    function freeze()\n    onlyRoleAccessor(OWNER_ROLE)\n    public\n    {\n        // Set the frozen flag\n        frozen = true;\n\n        // Emit event\n        emit Frozen();\n    }\n\n    /// @notice Start the disablement timer for the given resolution engine\n    /// @dev The timeout can only be greater than or equal to the defined minimum timeout\n    /// @param _resolutionEngine The address of the concerned resolution engine\n    /// @param _timeout The duration of the timer\n    function startDisablementTimer(address _resolutionEngine, uint256 _timeout)\n    public\n    onlyRoleAccessor(OWNER_ROLE)\n    {\n        // Require that the given timeout beyond the minimum\n        require(_timeout >= minimumTimeout, \"ResolutionEngineOperator: timeout is smaller than the set minimum\");\n\n        // Set the timeout\n        disablementTimeoutByResolutionEngine[_resolutionEngine] = block.timestamp.add(_timeout);\n\n        // Initialize resolution engine\n        ResolutionEngine resolutionEngine = ResolutionEngine(_resolutionEngine);\n\n        // Disable staking in the resolution engine\n        resolutionEngine.disable(resolutionEngine.STAKE_ACTION());\n\n        // Emit event\n        emit DisablementTimerStarted(\n            _resolutionEngine, disablementTimeoutByResolutionEngine[_resolutionEngine]\n        );\n    }\n\n    /// @notice Stop the disablement timer for the given resolution engine\n    /// @param _resolutionEngine The address of the concerned resolution engine\n    function stopDisablementTimer(address _resolutionEngine)\n    public\n    onlyRoleAccessor(OWNER_ROLE)\n    {\n        // Set the timeout\n        disablementTimeoutByResolutionEngine[_resolutionEngine] = 0;\n\n        // Initialize resolution engine\n        ResolutionEngine resolutionEngine = ResolutionEngine(_resolutionEngine);\n\n        // Enable staking in the resolution engine\n        resolutionEngine.enable(resolutionEngine.STAKE_ACTION());\n\n        // Emit event\n        emit DisablementTimerStopped(_resolutionEngine);\n    }\n\n    /// @notice Gauge whether the disablement timer of the given resolution engine is expired\n    /// @param _resolutionEngine The address of the concerned resolution engine\n    /// @return true if the resolution engine's disablement timer is expired, else false\n    function isDisablementTimerExpired(address _resolutionEngine)\n    public\n    view\n    returns (bool)\n    {\n        return block.timestamp >= disablementTimeoutByResolutionEngine[_resolutionEngine];\n    }\n\n    /// @notice Disable the given resolution engine\n    /// @param _resolutionEngine The address of the concerned resolution engine\n    function disable(address _resolutionEngine)\n    public\n    onlyRoleAccessor(OWNER_ROLE)\n    {\n        // Require that the disablement timer has expired\n        require(\n            isDisablementTimerExpired(_resolutionEngine),\n            \"ResolutionEngineOperator: disablement timer is not expired\"\n        );\n\n        // Initialize resolution engine\n        ResolutionEngine resolutionEngine = ResolutionEngine(_resolutionEngine);\n\n        // Disable resolution in the resolution engine\n        resolutionEngine.disable(resolutionEngine.RESOLVE_ACTION());\n\n        // Emit event\n        emit Disabled(_resolutionEngine);\n    }\n\n    /// @notice Set the minimum timeout criterion\n    /// @dev Only enabled when the resolution engine is not frozen\n    /// @param _minimumTimeout The concerned minimum timeout\n    function setMinimumTimeout(uint256 _minimumTimeout)\n    public\n    onlyRoleAccessor(OWNER_ROLE)\n    onlyNotFrozen\n    {\n        // Set the minimumTimeout\n        minimumTimeout = _minimumTimeout;\n\n        // Emit event\n        emit MinimumTimeoutSet(minimumTimeout);\n    }\n}\n",
  "sourcePath": "/opt/buildagent/work/9988d0feca52d9d9/contracts/ResolutionEngineOperator.sol",
  "compiler": {
    "name": "solc",
    "version": "0.5.11+commit.c082d0b4.Emscripten.clang"
  },
  "schemaVersion": "3.0.16",
  "updatedAt": "2019-09-22T23:17:18.964Z",
  "devdoc": {
    "author": "Jens Ivar Jrdre <jensivar@hubii.com>",
    "methods": {
      "addRole(string)": {
        "params": {
          "_role": "The concerned role"
        }
      },
      "addRoleAccessor(string,address)": {
        "params": {
          "_address": "The concerned address",
          "_role": "The concerned role"
        }
      },
      "disable(address)": {
        "params": {
          "_resolutionEngine": "The address of the concerned resolution engine"
        }
      },
      "freeze()": {
        "details": "This operation can not be undone"
      },
      "isDisablementTimerExpired(address)": {
        "params": {
          "_resolutionEngine": "The address of the concerned resolution engine"
        },
        "return": "true if the resolution engine's disablement timer is expired, else false"
      },
      "isRole(string)": {
        "params": {
          "_role": "The concerned role"
        },
        "return": "true if role has been set, else false"
      },
      "isRoleAccessor(string,address)": {
        "params": {
          "_address": "The concerned address",
          "_role": "The concerned role"
        },
        "return": "true if address is the one of a registered accessor of role, else false"
      },
      "removeRoleAccessor(string,address)": {
        "params": {
          "_address": "The concerned address",
          "_role": "The concerned role"
        }
      },
      "rolesCount()": {
        "return": "The count of roles"
      },
      "setMinimumTimeout(uint256)": {
        "details": "Only enabled when the resolution engine is not frozen",
        "params": {
          "_minimumTimeout": "The concerned minimum timeout"
        }
      },
      "startDisablementTimer(address,uint256)": {
        "details": "The timeout can only be greater than or equal to the defined minimum timeout",
        "params": {
          "_resolutionEngine": "The address of the concerned resolution engine",
          "_timeout": "The duration of the timer"
        }
      },
      "stopDisablementTimer(address)": {
        "params": {
          "_resolutionEngine": "The address of the concerned resolution engine"
        }
      }
    },
    "title": "ResolutionEngineOperator"
  },
  "userdoc": {
    "methods": {
      "addRole(string)": {
        "notice": "Add role"
      },
      "addRoleAccessor(string,address)": {
        "notice": "Register an address as accessor of a role"
      },
      "constructor": "`msg.sender` will be added as accessor to the owner role",
      "disable(address)": {
        "notice": "Disable the given resolution engine"
      },
      "freeze()": {
        "notice": "Freeze this resolution engine"
      },
      "isDisablementTimerExpired(address)": {
        "notice": "Gauge whether the disablement timer of the given resolution engine is expired"
      },
      "isRole(string)": {
        "notice": "Gauge whether a role is set"
      },
      "isRoleAccessor(string,address)": {
        "notice": "Gauge whether an address is an accessor of a role"
      },
      "removeRoleAccessor(string,address)": {
        "notice": "Deregister an address as accessor of a role"
      },
      "rolesCount()": {
        "notice": "Get the count of roles"
      },
      "setMinimumTimeout(uint256)": {
        "notice": "Set the minimum timeout criterion"
      },
      "startDisablementTimer(address,uint256)": {
        "notice": "Start the disablement timer for the given resolution engine"
      },
      "stopDisablementTimer(address)": {
        "notice": "Stop the disablement timer for the given resolution engine"
      }
    },
    "notice": "An operator of resolution engines"
  }
}